:020000040800F2
:10400000689F0020D1D7000801B2000803B2000861
:1040100005B2000807B2000809B20008000000005D
:104020000000000000000000000000000BB20008CB
:104030000DB20008000000000FB2000811B2000825
:1040400011D8000815D8000819D800081DD8000894
:1040500021D8000825D8000829D800082DD8000844
:1040600031D8000835D8000839D800083DD80008F4
:1040700041D8000845D8000849D800084DD80008A4
:1040800051D8000855D8000859D800085DD8000854
:104090007BB2000865D8000869D800086DD8000810
:1040A00071D8000875D8000879D800087DD80008B4
:1040B00081D8000885D8000853B300088DD80008BF
:1040C00091D8000895D8000899D800089DD8000814
:1040D000A1D80008A5D80008BDB30008ADD80008D5
:1040E000B1D80008B5D80008B9D80008BDD8000874
:1040F000C1D80008C5D80008C9D80008CDD8000824
:10410000D1D80008D5D80008A9B30008DDD8000828
:104110001BB40008E5D80008E9D80008EDD800086D
:10412000F1D80008F5D80008F9D80008FDD8000833
:1041300001D9000805D9000809D900080DD90008DF
:1041400011D9000815D9000819D900081DD900088F
:1041500021D9000825D9000829D900082DD900083F
:1041600031D9000835D9000839D900083DD90008EF
:1041700041D9000845D9000849D900084DD900089F
:1041800051D9000855D900081CB501F077FE0F235E
:104190000F220221032000F00DFA1F2001900023BE
:1041A0002D2000901A461146032001F04DFD1F20DE
:1041B000019000232D2000901A460121032001F0D8
:1041C00043FD1F20019000232D2000901A4602215C
:1041D000032001F039FD1F20019000232D200090C5
:1041E00003211A46084601F02FFD1F2000900022EF
:1041F0002D231146032001F0A6FDF02310220221F9
:10420000032000F0D7F9502000901022DFF8BC4ABC
:1042100004F108030221032000F06DFA20798009DF
:1042200028D12020009004F15803602202210320AD
:1042300000F061FA2020009004F17803802202212E
:10424000032000F058FA2020009004F17803A02207
:104250000221032000F04FFA2020009004F178039F
:10426000C0220221032000F046FA2020009004F131
:10427000780324E02020009004F1980360220221BA
:10428000032000F038FA20200090B8342346802222
:104290000221032000F02FFA202000902346A022C4
:1042A0000221032000F027FA202000902346C0229C
:1042B0000221032000F01FFA202000902346E02274
:1042C0000221032000F017FA13BD2DE9F041DFF8B9
:1042D000FC49DFF8FC89A0700E46207940F004000C
:1042E000207115464FF48051404601F055FFDFF82C
:1042F000E4794FF48041384601F022FF4FF4005139
:10430000384601F01DFF4FF40051404601F044FFD4
:104310004FF48061384601F03FFF4FF4805138463A
:1043200001F00EFF002000F0A0FB384601F0DAFE9D
:1043300000F47F4046EA0001384601F0B8FF4FF430
:104340008051404601F0FCFE4FF48051404601F0A0
:1043500023FF002000F089FB384601F0C3FE00F483
:104360007F4045EA0001384601F0A1FF4FF40051BB
:10437000384601F011FF4FF40051384601F0E0FEDD
:104380004FF48051404601F007FF4FF4804138461A
:1043900001F0D6FE4FF40051384601F0D1FE4FF443
:1043A0000051404601F0F8FE4FF48061384601F0BC
:1043B000C7FE4FF48051384601F0C2FE002000F0E5
:1043C00054FB384601F08EFE40F0FF01384601F004
:1043D0006EFF207900F0FB002071BDE8F0812DE92F
:1043E000F041DFF8E858DFF8E868A8700F46287950
:1043F00040F00400287114464FF48051304601F01B
:10440000CBFEDFF8D0884FF48041404601F098FEA3
:104410004FF40051404601F093FE4FF400513046F6
:1044200001F0BAFE4FF48061404601F0B5FE4FF452
:104430008051404601F084FE002000F016FB40460B
:1044400001F050FE00F47F4047EA0001404601F0D1
:104450002EFF4FF48051304601F072FE4FF4805130
:10446000304601F099FE2778002000F0FEFA404621
:1044700001F038FE00F47F4047EA0001404601F0B9
:1044800016FF4FF40051404601F086FE4FF40051F4
:10449000404601F055FE6778002000F0E6FA4046FD
:1044A00001F020FE00F47F4047EA0001404601F0A1
:1044B000FEFE4FF40051404601F06EFE4FF40051F5
:1044C000404601F03DFEA778002000F0CEFA4046BD
:1044D00001F008FE00F47F4047EA0001404601F089
:1044E000E6FE4FF40051404601F056FE4FF40051F5
:1044F000404601F025FEE778002000F0B6FA40467D
:1045000001F0F0FD00F47F4047EA0001404601F071
:10451000CEFE4FF40051404601F03EFE4FF40051F4
:10452000404601F00DFE2479002000F09EFA40463E
:1045300001F0D8FD00F47F4044EA0001404601F05C
:10454000B6FE4FF40051404601F026FE4FF40051F4
:10455000404601F0F5FD4FF48051304601F01CFE5D
:104560004FF48041404601F0EBFD4FF400514046CE
:1045700001F0E6FD4FF40051304601F00DFE4FF41E
:104580008061404601F0DCFD4FF48051404601F06F
:10459000D7FD002000F069FA404601F0A3FD40F08D
:1045A000FF01404601F083FE287900F0FB002871EE
:1045B000BDE8F0812DE9F843DFF81047DFF81087F8
:1045C000A0700F46207940F00400207191461E46ED
:1045D0004FF48051404601F0DFFDDFF8F8564FF40C
:1045E0008041284601F0ACFD4FF40051284601F00F
:1045F000A7FD4FF40051404601F0CEFD2FB94FF416
:104600008051284601F0C8FD13E0012F0AD14FF474
:104610008051284601F0C0FD4FF48061284601F02A
:104620008FFD0BE0022F09D14FF48051284601F095
:1046300087FD4FF48061284601F0AEFD002000F0B8
:1046400014FA284601F04EFD00F47F4049EA0001CB
:10465000284601F02CFE4FF48051404601F070FDD9
:104660004FF48051404601F097FD002000F0FDF925
:10467000284601F037FD00F47F4046EA0001284655
:1046800001F015FE4FF40051284601F085FD4FF46E
:104690000051284601F054FD4FF48051404601F08E
:1046A0007BFD4FF48041284601F04AFD4FF4005154
:1046B000284601F045FD4FF40051404601F06CFDE5
:1046C0004FF48061284601F03BFD4FF480512846AD
:1046D00001F036FD002000F0C8F9284601F002FD87
:1046E00040F0FF01284601F0E2FD207900F0FB00D8
:1046F0002071BDE8F1832DE9F843DFF8D055DFF8EC
:10470000D085A8700F46287940F00400287114461F
:104710001E464FF48051404601F03EFDDFF8B4954F
:104720004FF48041484601F00BFD4FF400514846DC
:1047300001F006FD4FF40051404601F02DFD2FB968
:104740004FF48051484601F027FD13E0012F0AD1B4
:104750004FF48051484601F01FFD4FF480614846F8
:1047600001F0EEFC0BE0022F09D14FF480514846D6
:1047700001F0E6FC4FF48061484601F00DFD002099
:1047800000F073F9484601F0ADFC00F47F4044EAC4
:104790000001484601F08BFD4FF48051404601F086
:1047A000CFFC4FF48051404601F0F6FC089CA4B2C7
:1047B000D4B116F8017B002000F057F9484601F00B
:1047C00091FC00F47F4047EA0001484601F06FFD8C
:1047D0004FF40051484601F0DFFC4FF400514846C9
:1047E00001F0AEFC641EE4D14FF48051404601F06C
:1047F000D3FC4FF48041484601F0A2FC4FF4005135
:10480000484601F09DFC4FF40051404601F0C4FCC5
:104810004FF48061484601F093FC4FF480514846C4
:1048200001F08EFC002000F020F9484601F05AFC0F
:1048300040F0FF01484601F03AFDFFE7287900F01B
:10484000FB002871BDE8F1832DE9F041DFF87C44DD
:10485000DFF87C74A0700E46207940F004002071CF
:1048600015464FF48051384601F096FCDFF8648419
:104870004FF48041404601F063FC4FF40051404644
:1048800001F05EFC4FF40051384601F085FC2EB972
:104890004FF48051404601F07FFC13E0012E0AD115
:1048A0004FF48051404601F077FC4FF48061404660
:1048B00001F046FC0BE0022E09D14FF48051404636
:1048C00001F03EFC4FF48061404601F065FC0020A1
:1048D00000F0CBF8404601F005FC00F47F4045EACB
:1048E0000001404601F0E3FC4FF48051384601F0EE
:1048F00027FC4FF48051384601F04EFC4FF48041C4
:10490000404601F049FC012000F0AFF8404601F0BC
:10491000BBFB05464FF48041404601F011FC4FF4CB
:104920008051384601F038FC4FF48041404601F098
:1049300007FC4FF40051404601F002FC4FF40051D7
:10494000384601F029FC4FF48061404601F0F8FB45
:104950004FF48051404601F0F3FB207900F0FB005A
:104960002071E8B2BDE8F081F8B5DFF86043DFF808
:104970006053A0704FF48051207940F00400207102
:10498000284601F009FCDFF84C634FF480413046C3
:1049900001F0D6FB4FF40051304601F0D1FB4FF44B
:1049A0000051284601F0F8FB4FF48061304601F0D9
:1049B000F3FB4FF48051304601F0C2FB002000F0C1
:1049C00054F8304601F08EFB00F47F4040F00A01BD
:1049D000304601F06CFC4FF48051284601F0B0FBEA
:1049E0004FF48051284601F0D7FB002000F03DF83D
:1049F000304601F077FB40F0FF01304601F057FCF4
:104A00004FF48041304601F0C7FB012000F02DF843
:104A1000304601F039FB07464FF48041304601F043
:104A20008FFB4FF48051284601F0B6FB4FF48041D4
:104A3000304601F085FB4FF40051304601F080FB19
:104A40004FF40051284601F0A7FB4FF48061304637
:104A500001F076FB4FF48051304601F071FB207974
:104A600000F0FB002071F8B2F2BD00B583B018B9B8
:104A7000FF200090012004E0012811D1FF200090C8
:104A800000208DF8040000A902208DF80500002008
:104A90008DF8060001208DF807008E4801F0F2F92C
:104AA00003B000BD1CB50020009000238A4C019487
:104AB00064224121032000F0B5FF0020009003464E
:104AC000019464221421032000F0ACFF0020009028
:104AD0000346019464226E21032000F0A3FF00200E
:104AE0000090034601942D221421032000F09AFF28
:104AF00000200090034601942D226E21032000F037
:104B000091FF0020009003460194A5221421032068
:104B100000F088FF0020009003460194A5226E213A
:104B2000032000F07FFF13BD2DE9FC410746002262
:104B300000210320FFF788FE0646102200210320F3
:104B4000FFF782FE0446202200210320FFF77CFEAF
:104B50000546302200210320FFF776FE8046FFF74E
:104B6000A1FF57B9802E16D1DFF8A00E01900023C7
:104B70000020009064224121A3E0012F02D1802C6B
:104B800009D1F1E7022F01D1802DF9E7032F0AD1D6
:104B9000B8F1800FE8D05048019000230020009029
:104BA000642241218DE0042F17D1802E14BF4A4882
:104BB000DFF8580E01900023002000906422142199
:104BC000032000F02FFF802C2BD1DFF8400E019046
:104BD000002300200090642272E0052F0FD1802E68
:104BE0002AD1DFF8280E01900023002000906422D3
:104BF0001421032000F016FF802D12D1E5E7062FC7
:104C000016D1802E23D1DFF8040E0190002300205E
:104C1000009064221421032000F004FFB8F1800FFB
:104C2000D3D02D480190002300200090642247E05B
:104C3000072F03D1802CD4D02748D4E7082F02D1E6
:104C4000802C04D1DFE7092F03D1802DDBD022484F
:104C5000DBE70A2F38D1802E14BF1F48DFF8AC0DD8
:104C600001900023002000902D221421032000F049
:104C7000D9FE802C14BF1848DFF8900D0190002356
:104C8000002000902D226E21032000F0CBFE802D0D
:104C900014BF1148DFF8740D01900023002000902C
:104CA000A5221421032000F0BDFEB8F1800F14BF2F
:104CB0000948DFF8580D0190002300200090A5223C
:104CC0006E21032000F0AEFEBDE8F381A067002056
:104CD000000C0240001802400000002000B583B024
:104CE000002861D1A1B11F20019000222D20009049
:104CF00000231146032000F0A7FFDFF8140D0190F8
:104D00000522002000900346A221032000F08AFE25
:104D10000123802200210320FFF74CFCFF23812286
:104D200000210320FFF746FCFF23822200210320FD
:104D3000FFF740FCFF23832200210320FFF73AFC0A
:104D4000FF23842200210320FFF734FC802310225C
:104D500001210320FFF72EFC01231822012103204B
:104D6000FFF728FC0223202201210320FFF722FC69
:104D70000323282201211846FFF71CFC00233022C0
:104D800001210320FFF716FCB0233122012103206B
:104D9000FFF710FC0023322201210320FFF70AFC59
:104DA0007823332200F010BE012861D1A1B11F2069
:104DB000019000222D20009000231146032000F0D6
:104DC00043FFDFF8500C01900522002000900346BD
:104DD000A221032000F026FE41239022002103207F
:104DE000FFF7E8FBFF23912200210320FFF7E2FBFE
:104DF000FF23922200210320FFF7DCFBFF239322F5
:104E000000210320FFF7D6FBFF239422002103207B
:104E1000FFF7D0FB0023102201210320FFF7CAFB7C
:104E20008123182201210320FFF7C4FB0223202243
:104E300001210320FFF7BEFB0323282201210320C9
:104E4000FFF7B8FB0023342201210320FFF7B2FB58
:104E5000B023352201210320FFF7ACFB00233622CB
:104E600001210320FFF7A6FB7823372200F0ACBD19
:104E7000022861D1A1B11F20019000222D200090B5
:104E800000231146032000F0DFFEDFF88C0B0190B9
:104E90000522002000900346A221032000F0C2FD5D
:104EA0008123A02200210320FFF784FBFF23A122FE
:104EB00000210320FFF77EFBFF23A2220021032015
:104EC000FFF778FBFF23A32200210320FFF772FBEB
:104ED000FF23A42200210320FFF76CFB00231022F4
:104EE00001210320FFF766FB012318220121032083
:104EF000FFF760FB8223202201210320FFF75AFBEA
:104F00000323282201211846FFF754FB00233822EF
:104F100001210320FFF74EFBB0233922012103209A
:104F2000FFF748FB00233A2201210320FFF742FB51
:104F300078233B2200F048BD03285AD1A1B11F209D
:104F4000019000222D20009000231146032000F044
:104F50007BFEDFF8C80A019005220020009003467E
:104F6000A221032000F05EFDC123B0220021032016
:104F7000FFF720FBFF23B12200210320FFF71AFBDC
:104F8000FF23B22200210320FFF714FBFF23B322EB
:104F900000210320FFF70EFBFF23B4220021032092
:104FA000FFF708FB0023102201210320FFF702FB7B
:104FB0000123182201210320FFF7FCFA02232022FB
:104FC00001210320FFF7F6FA832328220121032081
:104FD000FFF7F0FA00233C2201210320FFF7EAFA51
:104FE000B0233D2201210320FFF7E4FA002300F063
:104FF000E4BC042840F0A380F9B11F2001900022F6
:105000002D20009000231146032000F01DFEDFF844
:10501000000A019005220020009003464C21032045
:1050200000F000FDDFF8EC0901900522002000905F
:105030000346A221032000F0F5FC01238022002179
:105040000320FFF7B7FAFF23812200210320FFF797
:10505000B1FAFF23822200210320FFF7ABFA7F235E
:10506000832200210320FFF7A5FAFF2384220021D9
:105070000320FFF79FFA4123902200210320FFF72E
:1050800099FAFF23912200210320FFF793FAFF23CF
:10509000922200210320FFF78DFA7F239322002123
:1050A0000320FFF787FAFF23942200210320FFF754
:1050B00081FA8023102201210320FFF77BFA81234C
:1050C000182201210320FFF775FA02232022012173
:1050D0000320FFF76FFA0323282201210320FFF7A3
:1050E00069FA0023302201210320FFF763FA5823D5
:1050F000312201210320FFF75DFA00233222012132
:105100000320FFF757FA7823332201210320FFF70A
:1051100051FA5823342201210320FFF74BFAB02320
:10512000352201210320FFF745FA00233622012111
:105130000320FFF73FFA7823372200F045BC05280B
:1051400040F0A280F9B11F20019000222D20009094
:1051500000231146032000F077FDDFF8B40801902A
:1051600005220020009003464C21032000F05AFC49
:10517000DFF8A40801900522002000900346A22138
:10518000032000F04FFC0123802200210320FFF7C1
:1051900011FAFF23812200210320FFF70BFAFF23DE
:1051A000822200210320FFF705FA7F2383220021BA
:1051B0000320FFF7FFF9FF23842200210320FFF7DC
:1051C000F9F98123A02200210320FFF7F3F9FF233F
:1051D000A12200210320FFF7EDF9FF23A2220021E5
:1051E0000320FFF7E7F9FF23A32200210320FFF7A5
:1051F000E1F9FF23A42200210320FFF7DBF980233C
:10520000102201210320FFF7D5F9012318220121E3
:105210000320FFF7CFF98223202201210320FFF78B
:10522000C9F90323282201211846FFF7C3F90023F7
:10523000302201210320FFF7BDF95823312201213B
:105240000320FFF7B7F90023322201210320FFF7E3
:10525000B1F97823332201210320FFF7ABF958235A
:10526000382201210320FFF7A5F9B02339220121BB
:105270000320FFF79FF900233A2201210320FFF7C3
:1052800099F978233B229FE3062840F09B80F9B1EF
:105290001F20019000222D200090002311460320A2
:1052A00000F0D2FCDFF86807019005220020009092
:1052B00003464C21032000F0B5FBDFF860070190A6
:1052C0000522002000900346A221032000F0AAFB43
:1052D0000123802200210320FFF76CF9FF238122A4
:1052E00000210320FFF766F9FF238222002103201B
:1052F000FFF760F97F23832200210320FFF75AF98B
:10530000FF23842200210320FFF754F9C123B02298
:1053100000210320FFF74EF9FF23B12200210320D3
:10532000FFF748F9FF23B22200210320FFF742F9DB
:10533000FF23B32200210320FFF73CF9FF23B4220F
:1053400000210320FFF736F98023102201210320DA
:10535000FFF730F90123182201210320FFF72AF972
:105360000223202201210320FFF724F9832328228E
:1053700001210320FFF71EF9002330220121032021
:10538000FFF718F95823312201210320FFF712F902
:105390000023322201210320FFF70CF97823332266
:1053A00001210320FFF706F958233C2201210320A5
:1053B000FFF700F9B0233D2201210320FFF7FAF89F
:1053C0000023FAE2072840F0A280F9B11F200190E3
:1053D00000222D20009000231146032000F034FC11
:1053E000DFF83006019005220020009003464C2192
:1053F000032000F017FBDFF82006019005220020B3
:1054000000900346A221032000F00CFB41239022D0
:1054100000210320FFF7CEF8FF2391220021032073
:10542000FFF7C8F8FF23922200210320FFF7C2F8FC
:105430007F23932200210320FFF7BCF8FF2394224F
:1054400000210320FFF7B6F88123A02200210320CA
:10545000FFF7B0F8FF23A12200210320FFF7AAF8ED
:10546000FF23A22200210320FFF7A4F87F23A32219
:1054700000210320FFF79EF8FF23A4220021032030
:10548000FFF798F80023102201210320FFF792F87C
:105490008123182201210320FFF78CF88223202288
:1054A00001210320FFF786F803232822012103208E
:1054B000FFF780F80023342201210320FFF77AF858
:1054C0005823352201210320FFF774F800233622E8
:1054D00001210320FFF76EF87823372201210320F2
:1054E000FFF768F85823382201210320FFF762F8FC
:1054F000B023392201210320FFF75CF800233A2270
:1055000001210320FFF756F878233B225CE20828AC
:1055100040F09B80F9B11F20019000222D200090C7
:1055200000231146032000F08FFBDFF8E804019010
:1055300005220020009003464C21032000F072FA5F
:10554000DFF8D80401900522002000900346A22134
:10555000032000F067FA4123902200210320FFF787
:1055600029F8FF23912200210320FFF723F8FF23CE
:10557000922200210320FFF71DF87F2393220021B0
:105580000320FFF717F8FF23942200210320FFF7E1
:1055900011F8C123B02200210320FFF70BF8FF23ED
:1055A000B12200210320FFF705F8FF23B2220021DA
:1055B0000320FEF7FFFFFF23B32200210320FEF7A5
:1055C000F9FFFF23B42200210320FEF7F3FF00239D
:1055D000102201210320FEF7EDFF81231822012173
:1055E0000320FEF7E7FF0223202201210320FEF71C
:1055F000E1FF8323282201210320FEF7DBFF0023A4
:10560000342201210320FEF7D5FF58233522012142
:105610000320FEF7CFFF0023362201210320FEF7EF
:10562000C9FF7823372201210320FEF7C3FF582347
:105630003C2201210320FEF7BDFFB0233D220121C2
:105640000320FEF7B7FF0023B7E1092840F0998057
:10565000E9B11F20019000222D2000900023114667
:10566000032000F0F1FAEC480190052200200090A0
:1056700003464C21032000F0D5F9E84801900522AB
:10568000002000900346A221032000F0CBF98123E3
:10569000A02200210320FEF78DFFFF23A12200217D
:1056A0000320FEF787FFFF23A22200210320FEF73D
:1056B00081FF7F23A32200210320FEF77BFFFF232E
:1056C000A42200210320FEF775FFC123B022002190
:1056D0000320FEF76FFFFF23B12200210320FEF716
:1056E00069FFFF23B22200210320FEF763FFFF239F
:1056F000B32200210320FEF75DFFFF23B422002127
:105700000320FEF757FF0023102201210320FEF79C
:1057100051FF0123182201210320FEF74BFF8223B2
:10572000202201210320FEF745FF832328220121A7
:105730000320FEF73FFF0023382201210320FEF75C
:1057400039FF5823392201210320FEF733FF0023BC
:105750003A2201210320FEF72DFF78233B2201216D
:105760000320FEF727FF58233C2201210320FEF7E8
:1057700021FFB0233D2201210320FEF71BFF002360
:105780001BE10A2840F02781002931D01F20019019
:1057900000222D20009000231146032000F054FA2F
:1057A0009B48019005220020009003464C210320D5
:1057B00000F038F997480190052200200090034638
:1057C000A221032000F02EF9934801907D220020B1
:1057D000009003464C21032000F024F98F480190EB
:1057E0007D22002000900346A221032000F01AF938
:1057F0000123802200210320FEF7DCFE7F2381228B
:1058000000210320FEF7D6FEFF2382220021032081
:10581000FEF7D0FE7F23832200210320FEF7CAFE7D
:10582000FF23842200210320FEF7C4FE412390229F
:1058300000210320FEF7BEFE7F23912200210320DA
:10584000FEF7B8FEFF23922200210320FEF7B2FEEE
:105850007F23932200210320FEF7ACFEFF23942236
:1058600000210320FEF7A6FE8123A02200210320B1
:10587000FEF7A0FE7F23A12200210320FEF79AFE5F
:10588000FF23A22200210320FEF794FE7F23A32200
:1058900000210320FEF78EFEFF23A4220021032017
:1058A000FEF788FEC123B02200210320FEF782FE0E
:1058B0007F23B12200210320FEF77CFEFF23B222CA
:1058C00000210320FEF776FE7F23B3220021032070
:1058D000FEF770FEFF23B42200210320FEF76AFECC
:1058E0008023102201210320FEF764FE8123182269
:1058F00001210320FEF75EFE8223202201210320E6
:10590000FEF758FE8323282201210320FEF752FED2
:105910000023302201210320FEF74CFE58233122C0
:1059200001210320FEF746FE00233222012103203D
:10593000FEF740FE3C23332201210320FEF73AFE0E
:105940005823342201210320FEF734FEB0233522F0
:1059500001210320FEF72EFE002336220121032021
:10596000FEF728FE3C23372201210320FEF722FE0A
:105970000023382201210320FEF71CFE5823392280
:1059800001210320FEF716FE3C233A2201210320C9
:10599000FEF710FE78233B2201210320FEF70AFECA
:1059A00058233C2201210320FEF704FEB0233D22B0
:1059B00001210320FEF7FEFD3C233E2201210320AE
:1059C000FEF7F8FD78233F2203B05DF804EB0121D8
:1059D0000320FEF7EFBD03B000BD10B582B0FF207D
:1059E000009000220E4C234600210320FEF783FE88
:1059F000FF20009004F58073002201210320FEF7B0
:105A00007AFEBDE81340FEF7BFBB00001827002058
:105A100050560020C8590020405D0020B86000208A
:105A200030640020FFE72DE9FE4F8AB080461798CA
:105A3000179003F0070717990078497801EB0020C9
:105A400080B2049003F0C005179817998078C97840
:105A5000DDF810C001EB0020179909791FFA80F9D1
:105A600016980A4619FB0CFC90FBF2F31CFB01F1A3
:105A700011FB03F102FB130010FB091080B206902A
:105A8000002206214046FEF720FC00220821404665
:105A9000FEF71BFC1798007900FB09F080B2059017
:105AA0000020019004980128C0F2CB8000200390D0
:105AB000B80080308DF8010007AF4EE01798305CD9
:105AC00028438DF81C004FEAA40A179830180AF0F2
:105AD0000F0B41782943797007AA81782943B9705F
:105AE0000021C0782843F870ABF18000387140463F
:105AF000FEF775FCBBF10F0F02D0201D48451EDBE1
:105B00009DF828005044A0EB0B02D2B2052140467C
:105B1000FEF7DBFB9DF8000040EA0B1040F00A02A4
:105B200009214046FEF7D1FB4046FEF71DFF000667
:105B3000FAD49DF801200A214046FEF7C6FB201D3D
:105B400084B2361D4C45B9DB01980599801C80B2A2
:105B50000190039800EB410003900198049988425A
:105B60006FDA03A8068805980199801980B2099018
:105B70004910BDF82C0011FA80F00290C2B2072142
:105B80004046FEF7A2FB0024B9F1010FDCDB0698CA
:105B90003018401D86B20298001280008DF8000077
:105BA00041E01798305C28438DF81C004FEAA40AA6
:105BB000179830180AF00F0B41782943797007AA1B
:105BC00081782943B9700021C0782843F870ABF17F
:105BD000800038714046FEF702FCBBF10F0F02D087
:105BE000201D48451CDB9DF828005044A0EB0B020B
:105BF000D2B205214046FEF768FB9DF8000040EA5E
:105C00000B1209214046FEF760FB4046FEF7ACFE52
:105C10000006FAD49DF801200A214046FEF755FB04
:105C2000201D84B2361D4C45BBDB06980999081827
:105C3000401D86B202980012800000248DF80000FA
:105C400080E70DB0BDE8F08F2DE9F8430E46914690
:105C5000089C80461D46FF220021FEF736FBFF22EE
:105C600001214046FEF731FBFF2202214046FEF7AC
:105C70002CFBFF2203214046FEF727FBE80000EB48
:105C80004505EAB207214046FEF71FFB099880B29E
:105C9000410011FA85F101EBC000401E87B2FAB253
:105CA00008214046FEF711FB2904080E390A01EBD2
:105CB000800040F00202D2B209214046FEF705FB07
:105CC000A000C0B24FEA8907040900F00F0519D0FF
:105CD000FAB205210020FEF7F8FA200150FA87F207
:105CE000D2B206210020FEF7F0FAB00000F1C002A7
:105CF000D2B20A210020FEF7E8FA4046FEF734FE51
:105D00000006FAD4EDB1200150FA87F2D2B2052193
:105D10000020FEF7DAFA07EB04102818421ED2B270
:105D200006210020FEF7D1FAB00000F1C002D2B285
:105D30000A210020FEF7C9FA4046FEF715FE0006CC
:105D4000FAD4BDE8F1832DE9F0410E4617468046AE
:105D50001D46FF220021FEF7B8FAFF22012140462E
:105D6000FEF7B3FAFF2202214046FEF7AEFAFF2209
:105D700003214046FEF7A9FAF80000EB4707FAB204
:105D800007214046FEF7A1FA069880B2410011FAB9
:105D900087F101EBC000401E84B2E2B20821404608
:105DA000FEF793FA3F04380E210A01EB800040F021
:105DB0000202D2B209214046FEF787FA6800760057
:105DC000C0B2050900F00F0716D0F2B2052100207D
:105DD000FEF77BFA280150FA86F2D2B206210020A3
:105DE000FEF773FAE0220A210020FEF76EFA404621
:105DF000FEF7BAFD0006FAD4D7B1280150FA86F2B0
:105E0000D2B205210020FEF760FA06EB0510381823
:105E1000421ED2B206210020FEF757FAE0220A21E4
:105E20000020FEF752FA4046FEF79EFD0006FAD427
:105E3000BDE8F08138B50478012C1EDB451C15F84F
:105E4000013B0B2202210320FEF7B4FB15F8013BB6
:105E50000C2202210320FEF7ADFB15F8013B0D22B9
:105E600002210320FEF7A6FB15F8013B0E220221BA
:105E70000320FEF79FFB641EE1D131BD0048D9E746
:105E8000046900202DE9F84304460026DFF8640584
:105E90000D4684421CBFDFF8600584421FD0DFF846
:105EA0005C0584421CBFDFF85805844217D0DFF838
:105EB000540584421CBFDFF8500584420FD0DFF840
:105EC0004C0584421FBFDFF848058442DFF84405D3
:105ED000844204D0C1210FF2405000F0EEFA28684D
:105EE00020B90FF23450C22100F0E7FA28790028D7
:105EF00018BF012808D0022818BF032804D0C321E6
:105F00000FF2145000F0D9FAE87940B1012818BF17
:105F1000022804D00FF20050C42100F0CEFA012074
:105F200000FA06F8286808EA0000404546D17700E4
:105F30000320B8406FEA0009206809EA00002060E9
:105F400020682979B940084320602879012818BFC2
:105F500002282AD16879002818BF012808D0022811
:105F600018BF032804D0D6210FF2AC4000F0A5FAE8
:105F7000A06809EA0000A060A0686979B9400843F8
:105F8000A060A879002818BF012804D0DD210FF2F5
:105F9000884000F092FA606820EA0800606060685B
:105FA000A979B14089B208436060E06809EA00005D
:105FB000E060E068E979B9400843E060761C102EA3
:105FC000ADD3BDE8F18370B504460026DFF82404A4
:105FD0000D4684421CBFDFF82004844220D0DFF845
:105FE0001C0484421CBFDFF81804844218D0DFF878
:105FF000140484421CBFDFF81004844210D0DFF880
:106000000C0484421FBFDFF808048442DFF8040454
:10601000844205D04FF49B710FF2FC3000F04DFA32
:10602000012D18BF022D29D0042D18BF082D25D011
:10603000102D18BF202D21D0402D18BF802D1DD030
:10604000B5F5807F18BFB5F5007F17D0B5F5806F27
:1060500018BFB5F5006F11D0B5F5805F18BFB5F565
:10606000005F0BD0B5F5804F18BFB5F5004F05D0D8
:106070000FF2A43040F2371100F01FFA20692842D5
:1060800018BF0126304670BD10B50446DFF8640322
:1060900084421CBFDFF86003844220D0DFF85C0339
:1060A00084421CBFDFF85803844218D0DFF8540341
:1060B00084421CBFDFF85003844210D0DFF84C0349
:1060C00084421FBFDFF848038442DFF8480384425C
:1060D00005D04FF4A6710FF2403000F0EEF92069C0
:1060E00080B210BD10B50446DFF8080384421CBF1F
:1060F000DFF80403844220D0DFF8000384421CBF91
:10610000DFF8FC02844218D0DFF8F80284421CBF9A
:10611000DFF8F402844210D0DFF8F00284421FBF9F
:10612000DFF8EC028442DFF8EC02844205D040F252
:1061300073110FF2E42000F0C0F9606980B210BD65
:1061400038B50446AB480D4684421CBFAA48844279
:1061500019D0AA4884421CBFA948844213D0A94838
:1061600084421CBFA84884420DD0A84884421FBF67
:10617000A7488442A748844205D040F285110FF217
:10618000982000F09AF92DB90FF28C204FF4C371CA
:1061900000F093F9258331BD38B5044695480D4686
:1061A00084421CBF9448844219D0944884421CBF46
:1061B0009348844213D0934884421CBF924884423F
:1061C0000DD0924884421FBF914884429148844236
:1061D00005D04FF4CC710FF2402000F06EF92DB9CC
:1061E0000FF2342040F2991100F067F9658331BD58
:1061F00070B504467F480D46164684421CBF7E4853
:10620000844219D07D4884421CBF7D48844213D00B
:106210007C4884421CBF7C4884420DD07B48844229
:106220001FBF7B4884427B48844205D04FF4D6711F
:106230000FF2E41000F041F9012D18BF022D29D012
:10624000042D18BF082D25D0102D18BF202D21D0CA
:10625000402D18BF802D1DD0B5F5807F18BFB5F536
:10626000007F17D0B5F5806F18BFB5F5006F11D05E
:10627000B5F5805F18BFB5F5005F0BD0B5F5804F61
:1062800018BFB5F5004F05D00FF28C1040F2AD11DC
:1062900000F013F94EB1012E05D04FF4D7710FF273
:1062A000781000F00AF9258370BD658370BD38B59C
:1062B000044650480D4684421CBF4F48844219D0C2
:1062C0004E4884421CBF4E48844213D04D488442FD
:1062D0001CBF4D4884420DD04C4884421FBF4C48DF
:1062E00084424C48844205D040F2C3110FF228107A
:1062F00000F0E3F8656131BD70B506463D480D46D6
:10630000144686421CBF3C48864219D03B48864210
:106310001CBF3B48864213D03A4886421CBF3A48CD
:1063200086420DD0394886421FBF394886423948D7
:10633000864205D040F21D210FF2DC0000F0BDF8CE
:10634000002D18BF012D21D0022D18BF032D1DD007
:10635000042D18BF052D19D0062D18BF072D15D0F7
:10636000082D18BF092D11D00A2D18BF0B2D0DD0E7
:106370000C2D18BF0D2D09D00E2D18BF0F2D05D0D7
:106380000FF2940040F21E2100F097F8002C18BF85
:10639000092C1ED0012C18BF022C1AD0032C18BFB8
:1063A000042C16D0052C18BF062C12D0072C18BFB1
:1063B000082C0ED00A2C18BF0B2C0AD00C2C1CBF9A
:1063C0000D2C0F2C05D040F21F210FF24C0000F0D5
:1063D00074F8E80806EB800005F007018900026AFE
:1063E0000F238B409A43026204FA01F1026A1143BF
:1063F000016270BD0000024000040240000802403B
:10640000000C02400010024000140240001802403C
:10641000001C024000200240433A5C546F6F6C73D2
:106420005C4941522053797374656D735C576F7288
:106430006B73706163655F574C39465C574C5F46C0
:106440005F4D6F6E69746F725F4150505C4C696252
:106450007261726965735C53544D33324634787897
:106460005F5374645065726970685F4472697665E1
:10647000725C7372635C73746D3332663478785F08
:106480006770696F2E63000080B500F005FD002085
:1064900002BD00B585B04FF4E130009000A90020A6
:1064A0000190ADF80800ADF80C000C20ADF80A0022
:1064B000002000F073FD05B000BDFEE700B5DFF879
:1064C000D8080021017083B0012141708170C17032
:1064D0000C210171002141718171D0E90023CDE9C6
:1064E0000023DDE9000100F0FBFF03B000BDF0B5C3
:1064F0008DB0DFF8080902A9016000A9416004A974
:10650000816006A9C16000219DF8080000F0FC0030
:106510008DF8080000F0F3008DF8080000F00F007F
:1065200040F030008DF8080002A84170817007210A
:10653000C17000210171417901F0F00141F00101C8
:10654000417131214171422181712421C1710821A0
:106550009DF8000000F0FC008DF8000000F0F30052
:106560008DF8000000F0CF008DF8000000F03F0033
:106570008DF8000000A8417010218170C17801F0F1
:10658000F001C1700021C17041609DF8100000F061
:10659000F0008DF8100080208DF8100004A84178DC
:1065A00001F0F001417050214170817801F0F0015B
:1065B00041F00501817055218170C17801F0F00131
:1065C00041F00801C1702821C170017901F0F0018A
:1065D00041F00701017127210171FF214171002064
:1065E0000690002106A841608160C1600161002021
:1065F0008DF82C0000F0D0FD0021084600F0CCFD05
:106600000021084600F0C8FD002402AD00AE04AF32
:1066100015F8011B04F1080000F0BEFD052001F093
:106620000EF816F8011B04F1100000F0B5FD05206E
:1066300001F005F817F8011B04F1180000F0ACFD9B
:10664000052000F0FCFF641C082CE1DB002406ADF3
:1066500015F8011B04F1320000F09EFD052000F04A
:10666000EEFF641C152CF3DB0024FF2104F1640011
:1066700000F092FD052000F0E2FF641C4F2CF4DBDB
:106680000024FF2104F1C80000F086FD052000F081
:10669000D6FF641C1E2CF4DB0024FF2104F1E6006D
:1066A00000F07AFD052000F0CAFF641C1D2CF4DB0D
:1066B000FFF704FF0DB0F0BDDFF8980801218163FA
:1066C000FF21C17300218174018241724181818166
:1066D0008173704710B5DFF8C04684B0204600F0E3
:1066E0002FFF02208DF80000832100A8417021783F
:1066F00081706178C170A1780171E178417121796F
:10670000817100A960798DF80700A0798DF80800E3
:10671000FF208DF8090003208DF80A00042001F005
:1067200066F804B010BD0146002000F035BD0146FA
:10673000012000F031BD012000F057BDF8B5DFF8B1
:10674000144801F0E2F830B1E07D002871D12076E4
:1067500001F0DBF828B9012001F0D2F80020A07583
:10676000F1BD642000F06BFF207E401C2076C0B29B
:106770000F28EDDB01F011F90021F52001F01EF9E1
:10678000642000F05CFF0021F52001F017F9DFF82C
:10679000C85740F2277600223146284601F00CFC0B
:1067A000DFF8B87700220221384601F0D1FF01F06E
:1067B000F9F8002060630021DFF8A407017002F0FF
:1067C00055F84FF4966000F03AFF002002F05BF9B4
:1067D000012002F04EF9002002F046F901F05AF8CB
:1067E000002001F041F84FF47A7000F028FF01F02A
:1067F0008CF8C8B9012001F083F8DFF86807017848
:10680000012903D161760021017001E00120A0750A
:1068100000223146284601F0CFFB3846BDE8F8405B
:106820000022022101F094BFBDE8F240002001F0F7
:1068300067B8F1BDDFF81C178A7CFF2101F00CB9A5
:10684000002818BF022806D1DFF8081791F8202089
:1068500060F3010214E0DFF8FC1691F8200040F02C
:10686000030010E0DFF8EC16042804DA91F8202089
:1068700060F3850204E091F8200040F03C0002E063
:1068800081F82020704781F820007047DFF8C406A7
:10689000818DB1F57B4FA8BF4FF6FF7141847047E2
:1068A00010B568B902F0C8F94FF6FF2190FBF1F17D
:1068B0004FF6FF2202FB1100DFF89816888510BD05
:1068C00001280DD102F0B8F96FF0A061B0FBF1F131
:1068D0006FF0A06202FB1100DFF87816886210BD2D
:1068E000022817D102F0A8F94FF6FF21DFF864461D
:1068F00090FBF1F14FF6FF2202FB1100A08502F0A0
:106900009BF96FF0A061B0FBF1F16FF0A06202FBA8
:106910001100A06210BD10B584B00020FFF790FFF9
:106920000320FFF79FFF0220FFF7BAFFFFF7AEFF3C
:10693000DFF82046A06A10F1A06F28BF4FF0FF30AB
:10694000606248F2870148F2850002F088FA042369
:1069500000AA042104F1240002F086FA0098606283
:106960000A2000F06CFE04F120000CC802A91820D7
:106970000CC18DF80400FF208DF80500E7208DF88C
:10698000060028208DF8070001A807C802F012FCB5
:1069900004B010BD30B5DFF8BC45A56A85B0002055
:1069A000FFF74EFF0020FFF75DFF0020FFF778FFA5
:1069B000FFF76CFFA9B2280C02F051FA042300AAD9
:1069C000042104F1240002F04FFA009860620A20CA
:1069D00000F035FE04F120000CC802A918200CC1FB
:1069E0002CE030B5DFF86C45A56A85B00020FFF7D4
:1069F00027FF012008E030B5DFF85845A56A85B0CB
:106A00000020FFF71DFF0220FFF72CFF0020FFF7FB
:106A100047FFFFF73BFFA9B2280C02F020FA04233E
:106A200000AA042104F1240002F01EFA009860621A
:106A300002A904F120000CC80CC118208DF8040034
:106A4000FF208DF80500E7208DF8060028208DF83E
:106A5000070001A807C802F0ADFB05B030BD20B5A6
:106A6000DFF8F054A86A81B284B0000C02F0F7F9A4
:106A7000082300AA0821284602F021FA00A806C827
:106A800006C5083D95F82000297800F0030201F0C2
:106A900003039A4202BFC0F38300C1F3830188421B
:106AA00002BF688C6988884203D12979080904B03B
:106AB00020BDFF2004B020BD1CB5DFF89844A06ABB
:106AC00081B2000C02F0CBF9082300AA082120466D
:106AD00002F0F5F900A806C806C4083C94F82000A6
:106AE000217800F0030201F003039A4202BFC1F3D0
:106AF0008301C0F38300884202BF608C62889042A9
:106B00003BD1207900F00F03012B2FD10009012880
:106B100033D00FD3032830D002D3042805D009E0A6
:106B2000607900F00F0203212BE0607900F00F0282
:106B3000052126E0012914D1607900F00F02012A15
:106B40001FD0022A08BF02211BD0032A08BF072139
:106B500017D0042A08BF082113D0052A10D1092113
:106B60000FE0A07C48B1401EA07406E0022B6079C3
:106B700000F00F0204D1062103E0607900F00F025B
:106B80000421FF2000F068FF13BD38B5DFF8C443CF
:106B9000E17B002001291EBFA16BB1F5803FB1F55B
:106BA000801F51D0012905D141F20100A063FFF7F8
:106BB000B2FE49E0102905D141F21000A063FFF7B1
:106BC000E9FE41E0CA053FD521F48071A163C90700
:106BD00048BF0320FFF743FFD0B9A06BC10702D520
:106BE000002020722EE0C0062ED500202072FF214A
:106BF0000120E073607900F00F024FF48030A06351
:106C0000A274A520207400F027FF012060721BE011
:106C1000207A401C2072C0B214280CDB0120E073E3
:106C20004FF48010A063FE20A27C2074FF21BDE8F9
:106C3000384000F011BFA06BC10748BF012002D44B
:106C4000C00601D51020A063DFF81C53A8780128E6
:106C500018BF02280FD1012802D1FFF7C2FE03E0BE
:106C6000022808BFFFF7C7FE012060740020A06360
:106C7000FF20A87031BD607C012804BFA06BB0F577
:106C8000807F04D100206074BDE8314014E731BD3D
:106C900010B5B04CA07A18B9FF20A07202F0BAFB70
:106CA000E07A012803D1FF20E07202F0DBFB207BB9
:106CB000012805D1FF20207302F04BFC00206072F8
:106CC000607B012804BFBDE81040FFF7F5BC10BD94
:106CD00010B501F0CBFD9F4C607F012808BFFFF786
:106CE00054FF607A012808BFFFF7D2FF207F1E28DB
:106CF00003DA401C2077012003E004BF401C20770A
:106D0000002001F0B6FE99480088B0F57A7F14DDC6
:106D100097480078012810D102F0EEF801220221F4
:106D20008E4801F015FD934800210170607D401CE4
:106D30006075C0B20A28A8BF6175208EC82802DA23
:106D4000401C208604E004BF401C2086FFF7F6FCB0
:106D5000A07E78B1E07E0A28BCBF401CE076E07ED1
:106D60000A2807DB844801788448007802F0D4FDC3
:106D70000020A076607E01280CD0A07F012805D1DC
:106D80007F48007801F020FF0020A077BDE8104088
:106D900002F0A4BB10BD00002897002080B56D480C
:106DA000C07E0A28B8BFFFF795FC77480078012815
:106DB00017D173480078FF2813D074480178491C14
:106DC000C9B2062908BF002101700321007890FB99
:106DD000F1F101EB4101401A06D1BDE8014001F09B
:106DE000EFBE6A480021017001BD694A1278002A8D
:106DF00008BFFDF773BF03F04CB90000FC960020FC
:106E000063490978002908BFFDF78EBE03F02FB94A
:106E100010B5504CA07D01281CBF002000F070FD73
:106E2000012000F021FD00F023FD03F011FA03F032
:106E300021FF00F052FD03F0B0F900F071FD0020D9
:106E400000F012FA00F0DEFE01F0E7FD002001F094
:106E500005FE012001F008FE012001F00AFE01F00C
:106E6000BFFE4C49022000F03EFC042000F0FEFB77
:106E700002F042F8002000F0B8F9607702F037FD28
:106E80000020606301220221344801F061FCBDE86A
:106E9000104003F087BF000038B5FFF7FAFA394C0D
:106EA0003D4D03F07EFE03F089FE03F0BFFEFFF7C9
:106EB000AFFF10E0288A012806D100202882207820
:106EC000012818BF02F07FFA688A012803D1002048
:106ED0006882FFF763FFA888012816D10020A880E8
:106EE0001C48C17C01290CD1017D4A1C0275042972
:106EF00007DB0021017504F05CF90021202000F07F
:106F00005DFD02F0A8F902F075F9E888012804BFD8
:106F10000020E88028890128CCD100202881FFF7B3
:106F2000D7FE0C48417E807D012818BF0129C1D1C0
:106F30000029B6D045F2555004F098FC062004F024
:106F4000A5FC012004F0B8FC04F0C3FC04F0C6FC6E
:106F5000FEE700004496002000440040006400402A
:106F6000F0950020414E002064940020088F0020FE
:106F70006197002062970020FE8E0020FD8E002089
:106F8000D8690020FF8E0020D9690020FB960020E0
:106F900040970020BC960020D4960020F0B506460D
:106FA0000FF2BC000FF2BC0283B0354650F825004A
:106FB00052F825200C460121104304F029FD1EB98A
:106FC0000121102004F067FD0FF2AC00DFF88C60A7
:106FD00030F815200FF2980030F8151006EB8507F1
:106FE000D2B27868FFF788F90FF2900030F81520D8
:106FF0000FF2800030F81510B868D2B2FFF77CF9B4
:1070000000208DF8060000A901208DF8070002205D
:107010008DF804000FF2500030F8150000900220A7
:107020008DF805007868FEF72DFF02208DF804002A
:1070300000A90FF2380030F815000090B868FEF78C
:1070400021FF56F82500214600F01AFE56F82500CB
:10705000012100F0DCFE03B0F0BD0000C869002093
:107060000100000001000000000200000004000018
:10707000090000000A00000007000000070050F8A7
:10708000041B61B150F8042BD30744BFA9F10103DD
:107090009A18002342F8043B091FFAD1EFE7704722
:1070A00000B50100DFF82C0283B001694FF40072D3
:1070B0004FF6FF5308D019404161009201218DF82D
:1070C00004108DF8051005E019404161009200217F
:1070D0008DF8041000A9FEF7D5FE03B000BD70B511
:1070E00004460825DFF8EC61E4B2E0094FF40071D2
:1070F000304602D0FFF724F801E0FFF74DF84FF4D7
:1071000080713046FFF71CF864004FF48071304600
:10711000FFF742F86D1EE7D14FF400713046FFF7DC
:107120003BF84FF480713046FFF70AF83046BDE86F
:1071300070404FF48071FFF72FB870B5DFF89451AD
:107140004FF480712846FFF727F84FF40071284666
:10715000FEF7F6FF0020FFF7A3FF08264FF480712B
:107160002846FEF7EDFF4FF400712846FEF72BFF8F
:1071700040EA4404E4B24FF480712846FFF70CF86B
:10718000761EEBD14FF400712846FFF705F8012079
:10719000FFF786FF204670BD70B504460D464D4E84
:1071A0004FF400713046FEF7CBFF0120FFF778FF68
:1071B0004FF400713046FEF7C3FF4FF48071304644
:1071C000FEF7BEFF4FF400713046FEF7E5FF4FF4C7
:1071D00080713046FEF7E0FFA020FFF780FF20041B
:1071E000000EFFF77CFFE0B29EE038B50446394D53
:1071F0004FF400712846FEF7A3FF0120FFF750FF70
:107200004FF400712846FEF79BFF4FF4807128462B
:10721000FEF796FF4FF400712846FEF7BDFF4FF4CE
:1072200080712846FEF7B8FFA020FFF758FF200422
:10723000000EFFF754FFE0B2FFF751FF4FF400716B
:107240002846FEF77DFF4FF480712846FEF778FF51
:107250004FF400712846FEF79FFF4FF480712846D7
:10726000FEF79AFFA120B2E038B50446194D4FF45D
:1072700000712846FEF764FF0120FFF711FF4FF46D
:1072800000712846FEF75CFF4FF480712846FEF738
:1072900057FF4FF400712846FEF77EFF4FF48071D0
:1072A0002846FEF779FFD020FFF719FF0A20FFF7E5
:1072B00016FF2046FFF713FF4FF400712846FEF734
:1072C0006BFF4FF480712846FEF73AFF2846BDE871
:1072D00034403BE00004024070B504460D46014EC8
:1072E00002E000BF000402404FF400713046FEF798
:1072F00027FF0120FFF7D4FE4FF400713046FEF760
:107300001FFF4FF480713046FEF71AFF4FF40071F3
:107310003046FEF741FF4FF480713046FEF73CFFE8
:10732000D020FFF7DCFE2046FFF7D9FE2846FFF706
:10733000D6FE4FF400713046FEF72EFF4FF48071F9
:107340003046FEF7FDFE3046BDE870404FF4007158
:10735000FEF7F6BE38B50446004D01E000040240D9
:107360004FF400712846FEF7EBFE0120FFF798FE70
:107370004FF400712846FEF7E3FE4FF48071284673
:10738000FEF7DEFE4FF400712846FEF705FF4FF4CE
:1073900080712846FEF700FFD020FFF7A0FE2046B0
:1073A000FFF79DFE4FF400712846FEF7C9FE4FF42B
:1073B00080712846FEF7C4FE4FF400712846FEF7A0
:1073C000EBFE4FF480712846FEF7E6FED120FFF772
:1073D00086FEFFF7B2FE04464FF400712846FEF722
:1073E000AFFE4FF480712846FEF7AAFE4FF480717D
:1073F0002846FEF7D1FE4FF400712846FEF7CCFE7A
:107400004FF480712846FEF79BFE4FF4007128462A
:10741000FEF796FE204632BD64280CDA0A2190FB66
:10742000F1F10A0150FA82F001EB8102A0EB420176
:10743000C9B2082050E7704701460D290DDA60B146
:107440000A2091FBF0F0020151FA82F100EB800278
:10745000A1EB4201C9B207203EE77047014620294F
:107460000DDA60B10A2091FBF0F0020151FA82F1CD
:1074700000EB8002A1EB4201C9B206202CE7704765
:1074800018280CDA0A2190FBF1F10A0150FA82F077
:1074900001EB8102A0EB4201C9B204201CE7704756
:1074A0003C280CDA0A2190FBF1F10A0150FA82F033
:1074B00001EB8102A0EB4201C9B203200CE7704747
:1074C0003C280CDA0A2190FBF1F10A0150FA82F013
:1074D00001EB8102A0EB4201C9B20220FCE6704739
:1074E00003B581B002210020FFF7F6FE9DF80400ED
:1074F000FFF792FF9DF80500FFF79EFF9DF806003D
:10750000FFF7ACFF9DF80710082903DA11B1052039
:10751000FFF7E2FE9DF80800FFF7B2FF9DF80900B3
:10752000FFF7BEFF9DF80A00FFF7CAFF0021002009
:10753000FFF7D2FE03B05DF804EB00210120CBE69B
:1075400010B5044601210020FFF7C6FE0820FFF712
:1075500001FF010901EB810200F00F0000EB420086
:1075600020700720FFF7F6FEC0F3001101EB810247
:1075700000F00F0000EB420060700620FFF7EAFE0B
:10758000C0F3011101EB810200F00F0000EB42009B
:10759000A0700520FFF7DEFE00F00700E070042079
:1075A000FFF7D8FEC0F3011101EB810200F00F00DC
:1075B00000EB420020710320FFF7CCFEC0F3021164
:1075C00001EB810200F00F0000EB4200607102202D
:1075D000FFF7C0FEC0F3021101EB810200F00F00C3
:1075E00000EB4200A0710021BDE81040002073E6CE
:1075F0000848016811B10168491E0160704700BF69
:1076000001B404480099016001680029FCD101B06F
:10761000704700005097002082B0002107E00099D9
:10762000491C009100990529F9D30199491C019140
:107630000199814238BF0021F3D302B0704782B074
:107640000021019144F2682108E0009A521C009246
:10765000009A8A42F9D3019A521C0192019A8242FD
:1076600038BF0022F3D302B07047000030B585B0B8
:10767000044600200290ADF80C00ADF810000C207C
:10768000ADF80E0001A90FF2C010684D50F82400AB
:10769000019055F8240000F0F3FA55F82400012178
:1076A00000F0B5FB55F82400012240F2255100F00E
:1076B00083FC55F82400002240F2277100F07CFC86
:1076C0000FF2981030F814008DF8000000208DF8AB
:1076D00001008DF8020001208DF8030000A804F0DD
:1076E000B7FA05B030BD70B50446514D94B00E46A2
:1076F000284604F051FB4FF000600590079605A95D
:107700004C480690402008901120099000200A90D3
:107710004FF480600B900420109003201190002003
:107720000C900D9012900E904FF440300F9000206E
:107730001390284604F00DFC00221021284604F086
:107740004FFE00200290ADF80C00ADF810000C20A8
:10775000ADF80E0001A90FF2F000344D50F82400EE
:10776000019055F8240000F08BFA33480122802163
:1077700000F0E0FB55F82400012240F2255100F012
:107780001BFC0FF2D80030F814008DF80000002028
:107790008DF801008DF8020001208DF8030000A88B
:1077A00004F056FA55F82400012100F030FB14B023
:1077B00070BDF8B504460D461D4F164600213846EB
:1077C00004F0F1FC32462946204604F0D3FE7E60E8
:1077D0000121384604F0E7FC384604F03FFD00285C
:1077E000FAD13846BDE8F440144904F09BBD38B5E1
:1077F000134D0446288840F2FF229042A4BF002087
:10780000288028880F4B0B22C01804F0B3FE28886C
:107810000B3028800122054850F82400BDE838408C
:1078200040F2277100F0C8BB000000009069002002
:10783000A0600240044400400044004000002020BA
:10784000028F0020108F00200000000000000000C8
:1078500000C2010000E1000000C2010000000000C1
:10786000260000003400000002464FF4805131E051
:1078700010B5284C012204212046FEF7B9FC4FF434
:107880007A70FFF7DCFE2046BDE81040002204219C
:10789000FEF7AEBC38B5204C01224FF480412046A3
:1078A000FEF7A6FC1B4D012204212846FEF7A0FC92
:1078B0004FF47A70FFF7C3FE002204212846FEF73A
:1078C00097FC2046BDE83840FFE700224FF4804196
:1078D000FEF78EBC1048FEF78BBC10B50E4C002294
:1078E0004FF400412046FEF783FC6420FFF7A7FE1B
:1078F0002046BDE8104001224FF40041FEF778BC5D
:10790000024602210548FEF773BC01210348FEF739
:107910005ABB0000000C0240000802400004024074
:1079200010B584B042F210700290A820ADF80400A7
:107930000020ADF80C00ADF8060001A91B4C204654
:1079400004F054FE0121204604F000FF0122012131
:10795000204605F059F81E208DF8000000208DF813
:1079600001008DF8020001208DF8030000A804F04A
:107970006FF90F480021018041808180C18004B0EF
:107980000C484170017010BD4FF400610A48FEF7C9
:10799000D7BB07480121018070474FF400610648BA
:1079A000FEF7FABB02480021018070470008004042
:1079B00030970020E69500200018024030B583B0D3
:1079C00004460D460B2100A805F01EF902208DF893
:1079D0000000210A80208DF801008DF8055000A8D4
:1079E000C1708470210C017103208DF80A002046BB
:1079F00000F009F89B48007818B900A90420FFF7A7
:107A0000F6FE03B030BD984901224A7000F01F0015
:107A10000022002320FA03FC5FEACC7C17D513B9BF
:107A200042F0010213E0012B08BF42F010020DD01A
:107A3000022B08BF42F0020208D0032B08BF42F01D
:107A4000040203D0042B02D142F00802D2B25B1C24
:107A5000052BDFDB8A70704700B583B002238DF8F9
:107A6000003087238DF8013000AB9870D970032067
:107A70008DF80A001A717B48007818B900A9042013
:107A8000FFF7B5FE03B000BD2DE9F041764C20783C
:107A900060B9A062002260680121FEF7A9FBA0681E
:107AA00001220221FEF7A4FB01221AE001280BD1DA
:107AB000606801220121FEF79BFBA06800220221E1
:107AC000FEF796FB01220CE002280ED1606801222D
:107AD0000121FEF78DFBA06801220221FEF788FB41
:107AE0000022E0680421FEF783FB00250FF28416D4
:107AF00004F110074FF0060836F8021B57F8040B84
:107B0000FEF761FA401E8041C00F690051FA80F50E
:107B1000B8F10108F0D1A06A28B925B12078C000D9
:107B200005FA00F0A062606B32283CBF401C606325
:107B3000207802285DD1A06AD0B94C4D286888B160
:107B400000202063E0622860A06BB0F5003F05D103
:107B50000021FFF733FF0020A06303E00021002095
:107B6000FFF72CFF00202063E0622860607040E097
:107B7000E16A81423AD1216B491C216303290ED16C
:107B80003A4D616B2860322909D3B0F5003F03D02C
:107B90000021FFF713FF00E0A06300206063E16AAB
:107BA000206BB1F5003F10D1642822D1322121632E
:107BB000A06A2E4D616B286032291AD30121FFF78C
:107BC000FDFE00206063A06313E0B0F5967F10D146
:107BD000FA212163A06A254D616B2860322908D300
:107BE0000121FFF7EBFE0020606302E0002121632A
:107BF000E0622078401CC0B20328A8BF002020709B
:107C0000BDE8F08110B584B040F6C4100290A82001
:107C1000ADF804000020ADF80C00ADF8060001A995
:107C2000134C204604F0E2FC0121204604F08EFDB6
:107C300001220121204604F0E7FE32208DF80000E9
:107C400000208DF801008DF8020001208DF803005E
:107C500000A803F0FDFF05480021016004B010BD3D
:107C600000000000404E002054690020589700207A
:107C7000000C0040000400080010002000400080BC
:107C8000F0B50446DFF89472DFF8246385B00D4642
:107C9000BC421CBFDFF88802844213D0DFF88402A4
:107CA00084421CBFDFF8800284420BD0DFF87C02E4
:107CB00084421CBFDFF87802844203D0F1213046B1
:107CC000FEF7FBFB286818B1DFF8E812884203D3FF
:107CD000F2213046FEF7F1FBA888002818BFB0F566
:107CE000805F03D0F3213046FEF7E7FBE8880028E9
:107CF00018BFB0F5805F09D0B0F5005F18BFB0F5D0
:107D0000405F03D0F4213046FEF7D7FB28890028D6
:107D10001CBFB0F5806FB0F5C06F03D0F5213046C1
:107D2000FEF7CBFB68894FF6F371084200D118B912
:107D3000F6213046FEF7C1FBA889F8B1B0F5807F87
:107D40001CBFB0F5007FB0F5407F05D0F72130466D
:107D5000FEF7B3FBA88988B1BC421CBFDFF8C001A5
:107D600084420BD0DFF8BC0184421CBFDFF8C001A5
:107D7000844203D0FC213046FEF79FFB208A4CF65C
:107D8000FF710840E988084320824EF6F311A0896C
:107D90000840A98808432989084369890843A081C4
:107DA0004FF6FF41A08A0840A9890843A08200A895
:107DB00003F0E7FDBC421BBFDFF874018442039867
:107DC0000298296819225043A28912044CBF490025
:107DD0008900B0FBF1F16420B1FBF0F00001020971
:107DE000642303FB1211A289120406D5C9003231A3
:107DF000B1FBF3F101F0070105E009013231B1FBFC
:107E0000F3F101F00F010843208105B0F0BD38B552
:107E10000446DFF808010D4684421CBFDFF800016C
:107E2000844215D0DFF8FC0084421CBFDFF8F80064
:107E300084420DD0DFF8F40084421CBFDFF8F0006C
:107E4000844205D040F2A1110FF26030FEF735FBFD
:107E50005DB1012D05D00FF254304FF4D171FEF712
:107E60002CFBA08940F4005003E0A0894DF6FF717F
:107E70000840A08131BD38B50446DFF8A0000D46AA
:107E800084421CBFDFF89800844215D0DFF89400CC
:107E900084421CBFDFF8900084420DD0DFF88C00D4
:107EA00084421CBFDFF88800844205D040F22321C1
:107EB0000FF2F820FEF701FBB5F5007F05DB0FF2AE
:107EC000EC204FF40971FEF7F8FAE805C00DA08028
:107ED00031BD10B50446DFF8440084421CBFDFF812
:107EE0004000844215D0DFF83C0084421CBFDFF81C
:107EF000380084420DD0DFF8340084421CBFDFF824
:107F00003000844205D040F233210FF2A020FEF76A
:107F1000D4FAA088C005C00D10BD000000100140BB
:107F20000044004000480040004C00400050004029
:107F30000014014070B50446DFF858020D4616469D
:107F400084421CBFDFF85002844215D0DFF84C0297
:107F500084421CBFDFF8480284420DD0DFF844029F
:107F600084421CBFDFF84002844205D040F2414108
:107F70000FF23820FEF7A1FA4FF63F70054200D10C
:107F80002DB940F242410FF22420FEF796FA56B185
:107F9000012E05D00FF2142040F24341FEF78DFA76
:107FA000A08A284301E0A08AA843A08270BD0000F7
:107FB000AC810008E1707200F8B50546DFF8D471B5
:107FC0000E461446BD421CBFDFF8CC01854215D0D9
:107FD000DFF8C80185421CBFDFF8C40185420DD01F
:107FE000DFF8C00185421CBFDFF8BC01854205D027
:107FF00040F2C3410FF2B410FEF75FFA282E1CBF07
:1080000040F2277086421BD040F2266086421CBF99
:1080100040F22550864213D040F2244086421CBFD5
:1080200040F6460086420BD040F66A10864218BFE2
:10803000602E05D040F2C4410FF27010FEF73DFAF9
:10804000002C18BF012C05D00FF2601040F2C54182
:10805000FEF733FA40F66A10864210D1BD421CBFCB
:108060004D4885420BD04D4885421CBF4E48854245
:1080700005D040F2CA410FF23410FEF71EFA300666
:10808000012106F01F02400F9140012808BF05F1B1
:108090000C0005D002280CBF05F1100005F11400FA
:1080A0000268002C14BF114322EA01010160F1BDF6
:1080B000F8B504460026374F0D46BC421CBF364873
:1080C000844211D0354884421CBF354884420BD0CD
:1080D000344884421CBF3448844205D040F2565193
:1080E0000FF2C800FEF7E9F9282D1CBF40F22771F6
:1080F0008D4234D040F226618D421CBF40F22551A2
:108100008D422CD040F224418D421CBF40F64601E6
:108110008D4224D040F66A118D420FD0B5F5587FBC
:108120001CBF40F225318D4219D0B5F5187F18BF1C
:10813000B5F5B07F13D040F257510CE0BC421CBFE4
:10814000154884420BD0154884421CBF164884420F
:1081500005D040F25C510FF25400FEF7AEF928064C
:10816000400F012105F01F0201FA02F2012808BFA9
:10817000A08903D002280CBF208AA08A10402A0AB6
:1081800091402288114000281CBF0029012630465A
:10819000F2BD0000001001400044004000480040D3
:1081A000004C00400050004000140140433A5C5431
:1081B0006F6F6C735C4941522053797374656D73B2
:1081C0005C576F726B73706163655F574C39465CC7
:1081D000574C5F465F4D6F6E69746F725F415050D0
:1081E0005C4C69627261726965735C53544D3332E1
:1081F000463478785F5374645065726970685F4480
:1082000072697665725C7372635C73746D33326627
:108210003478785F75736172742E630080B5DFF80F
:10822000C415884214D0DFF8C015884204D0AB21B1
:10823000DFF8B805FEF741F901214FF0806003F047
:108240006EFC00214FF08060BDE8044003F067BC85
:1082500001214FF0007003F062FC00214FF000702C
:10826000F2E7F8B504460026DFF87805DFF87C75FC
:108270000D4684421CBFDFF87005844203D0CB2139
:108280003846FEF71AF9A879002818BF012803D04C
:10829000CC213846FEF711F9E879002818BF0128EB
:1082A00003D0CD213846FEF708F9287A002818BFF8
:1082B000012803D0CE213846FEF7FFF8687A00285F
:1082C00018BF012803D0CF213846FEF7F6F8A87A68
:1082D000002818BF012803D0D0213846FEF7EDF85A
:1082E000E87A002818BF012803D0D1213846FEF7CC
:1082F000E4F8A878002818BF012807D0022818BF82
:10830000032803D0D2213846FEF7D7F8E8780028B2
:1083100018BF012807D0022818BF032803D0D32193
:108320003846FEF7CAF82879102803DBD4213846EE
:10833000FEF7C3F86879082803DBD5213846FEF735
:10834000BCF8288810B1B0F5806F03DDD62138461F
:10835000FEF7B3F8206820F002002060206840F0AB
:10836000010020604FF6FF70014600E0491E626880
:10837000D20701D40029F9D16168C90754D5A97978
:10838000012921680CBF41F0800121F080012160AA
:10839000E979012921680CBF41F0400121F0400139
:1083A0002160297A012921680CBF41F0200121F0C8
:1083B00020012160697A012921680CBF41F0100178
:1083C00021F010012160A97A012921680CBF41F038
:1083D000080121F008012160E97A012921680CBF18
:1083E00041F0040121F004012160EA78A978120625
:1083F00042EA81712A7941EA02416A7941EA0251ED
:108400002A88521E1143E161216849084900216010
:1084100000E0401E6168C90701D50028F9D16068F5
:1084200000F0010080F001063046F2BD70B5044650
:10843000A07A1C2805DB40F253110FF2C030FEF782
:108440003CF8E07A002818BF012805D04FF4AA7143
:108450000FF2A830FEF731F8207B002818BF012862
:1084600005D040F255110FF29430FEF726F820891E
:10847000002818BF012805D04FF4AB710FF27C30F3
:10848000FEF71BF8607B002818BF012805D040F2DA
:1084900057110FF26830FEF710F8A17A01208840DA
:1084A000DFF84C130A6842F001020A60C243CB694C
:1084B0001340CB61237B9BB9CB681340CB60E5882D
:1084C0006688DFF8303346EA0545A67A43F8365029
:1084D000A57A268803EBC503A58846EA05455D60B5
:1084E000237B012B13D1CB680343CB60258866889F
:1084F000DFF8003346EA0545A67A43F83650A57AF8
:10850000E68803EBC503A58846EA05455D60E37A86
:10851000002B4B680CBF134003434B60238913B9F6
:108520004B691A4003E0012B02D14A6902434A61B8
:10853000627B012A02D1CA691043C86108684008F9
:108540004000086070BD00218171C17101724172EB
:108550008172C1728170C170032101710221417168
:1085600001210180704770B50546DFF878020C469E
:1085700085421CBFDFF88002854205D040F24621CB
:108580000FF27820FDF799FF207A002818BF042801
:1085900005D040F247210FF26420FDF78EFF607A8C
:1085A000002818BF022805D04FF412710FF24C209A
:1085B000FDF783FFA07A092805DB40F249210FF27D
:1085C0003C20FDF77AFFA86840011BD5002605EB8B
:1085D0000615D5F8800100F00100C5F88001207A69
:1085E000E0B92068B0F5006F05D340F263210FF2C7
:1085F0000C20FDF762FFD5F880012168627A42EA1B
:1086000041511DE0A868000148BF0126DFD4A868D9
:10861000C00048BF0226DAD404263EE06068B0F10C
:10862000005F05D340F269210FF2D010FDF745FF3E
:10863000D5F880016168227A42EAC101627A114369
:108640000843C5F88001A07A00F00F00A07205F57C
:10865000C07041680909090141604168A27A11436B
:108660004160627BA17B120442EA0161227B41EA04
:108670000221E27A11438160627CA17C120442EA09
:108680000161227C41EA0221E27B1143C160D5F8FD
:10869000800140F00100C5F88001304670BDF8B59A
:1086A0000446DFF840010D46164684421CBFDFF841
:1086B0004801844205D040F2F2210FF24010FDF74C
:1086C000FCFE2F0018BF012D05D00FF2301040F234
:1086D000F321FDF7F2FE04EB0510D0F8B011317272
:1086E000317A4907D0F8B01159BF490D3160C90836
:1086F0007160D0F8B01101F00201717200F5D8700C
:10870000416801F00F01B1724168090AF174816892
:10871000F1728168090A31738168090C717381688B
:10872000090EB173C168F173C168090A3174C16877
:10873000090C7174C068000EB07425B9E06840F08F
:108740002000E060F1BD206940F020002061F1BD13
:1087500070B5044623480D46164684421CBFDFF818
:108760009800844205D04FF4A2610FF29000FDF70B
:10877000A4FE012D18BF022D24D0042D18BF082DF2
:1087800020D0102D18BF202D1CD0402D18BFB5F5BE
:10879000807F17D0B5F5007F18BFB5F5806F11D079
:1087A000B5F5006F18BFB5F5004F0BD0B5F5803F9C
:1087B00018BFB5F5003F05D00FF2400040F211514F
:1087C000FDF77BFE56B1012E05D040F212510FF29B
:1087D0002C00FDF772FE6069284301E06069A84340
:1087E000606170BD0064004000680040FC870008C4
:1087F000006600404066004000680040433A5C5418
:108800006F6F6C735C4941522053797374656D735B
:108810005C576F726B73706163655F574C39465C70
:10882000574C5F465F4D6F6E69746F725F41505079
:108830005C4C69627261726965735C53544D33328A
:10884000463478785F5374645065726970685F4429
:1088500072697665725C7372635C73746D333266D1
:108860003478785F63616E2E63000000F8B5774856
:10887000774D007A4FF4800418B1286840F4E00086
:108880002860744928680A68904238D00860172622
:10889000714F2868204214BF012200224FF400418A
:1088A0003846FDF7A5FC01224FF480413846FDF71C
:1088B0009FFC0120FEF7C3FE00224FF480413846A2
:1088C000FDF796FC6408761EE3D101224FF40051B7
:1088D0003846FDF78DFC0120FEF7B1FE00224FF473
:1088E00000513846FDF784FC0120FEF7A8FE38460B
:1088F000BDE8F84001224FF40051FDF779BCF1BD0D
:1089000052480021C160017801F003035A1E9241D0
:10891000D243D20FC260C1F3810202B10222C36806
:10892000D218C260C1F3011303B104239A18C260C4
:10893000890918BF082189184278C16003231A42A7
:1089400014BF102300235918C160C2F3810303B17F
:1089500020235918C160C2F3011303B140235918F1
:10896000C160920918BF802251188278C160032328
:108970001A4214BF4FF4807300235918C160C2F328
:1089800081030BB14FF400735918C160C2F3011396
:108990000BB14FF480635918C160920918BF4FF4AE
:1089A00000625118C278C16003231A4214BF4FF409
:1089B000805300235918C160C2F381030BB14FF4F7
:1089C00000535918C160C2F301130BB14FF4804337
:1089D0005918C160920918BF4FF40042511802792A
:1089E000C16003231A4214BF4FF480330023591887
:1089F000C160C2F381030BB14FF400335918C16059
:108A0000C2F301130BB14FF480235918104BC1600E
:108A10009209426319600272704710B50E4C012230
:108A20004FF480512046FDF7E3FB0A20FEF707FED6
:108A300000224FF480512046FDF7DAFB04486FF026
:108A40007F410160BDE8104010E70000E89500207C
:108A5000789600205C9700200004024002464FF404
:108A600000416948FDF7C4BB024610216748FDF785
:108A7000BFBB10B50446224680216448FDF7B8FB11
:108A80006348047010BD0FF29C12614932F8102047
:108A900048704A80104610B586B07021ADF80010BD
:108AA00002900121ADF802100421ADF8041002215A
:108AB000ADF80C100021ADF80E104FF48071ADF838
:108AC00010100021ADF8121000A9524C204603F0FE
:108AD00093FE0121204603F039FE0121204603F0D8
:108AE0006FFF06B010BD30B589B01020ADF814008E
:108AF000FA210020ADF81600464C47480068B0FB4C
:108B0000F1F0401E80B2069005A90020ADF81C00CF
:108B10008DF81E00204603F069FD7020ADF80000BE
:108B200041F27F350120ADF8020002950420ADF836
:108B3000040000A90220ADF80C000020ADF80E00E2
:108B40004FF48070ADF810000020ADF81200204600
:108B500003F052FE0121204603F0F8FD01212046DA
:108B600003F02EFF4FF47A70FEF769FD28480621C6
:108B70004170458009B030BD38B5284C234D0128DF
:108B80000DD100224FF400712846FDF731FB0A2079
:108B9000FEF755FD01224FF4807120460CE00022C3
:108BA0004FF480712046FDF723FB0A20FEF747FDB6
:108BB00001224FF400712846BDE83840FDF718BB8C
:108BC00017480078FEF71CB980B5FF2808BF0020C1
:108BD00003D00121FEF709F90120BDE80240CBE7EF
:108BE00080B540F6B830FEF72AFD0020FFF7C4FF3D
:108BF000FFF779FF002280210448FDF7F9FA0448C5
:108C00000021017001BD0000001802400008024070
:108C10005497002000040140B46900200000024085
:108C2000D8690020FE403E377E2DFE267F20FF19AA
:108C30007F13FF0C00000000F8B5344F384603F0F6
:108C4000E6FF0446381D03F0E2FF054607F1080081
:108C500003F0DDFF064607F10C0003F0D8FF237890
:108C60002B492C4A002B40D12B6802FB03132B60AD
:108C7000082702FB03132B6002FB03132B6002FB8C
:108C800003132B6002FB03132B6002FB03132B6007
:108C900002FB03132B6002FB03132B600346D5F882
:108CA00000C002FB0C1CC5F800C043F804CB7F1EBB
:108CB000D5F800C002FB0C1CC5F800C043F804CB7B
:108CC000D5F800C002FB0C1CC5F800C043F804CB6B
:108CD000D5F800C002FB0C1CC5F800C043F804CB5B
:108CE000DDD1C36F3360012323702B6802FB0311B6
:108CF0002960317801F01F0150F8212032602A6884
:108D000040F82120306880008008F2BD786800209B
:108D10005FF36E3C0D66190030B40146002000235D
:108D2000724A01F001049D56AC402043C9035B1C0C
:108D3000090C01F001049D56AC40204349085B1C1E
:108D400001F001049D56AC40204349085B1C01F032
:108D500001049D56AC40204349085B1C102BE0DB0E
:108D600030BC704710B582B00C46FFF7D5FF6040AD
:108D700000905F48BDF8001001F00F0130F821109D
:108D8000ADF800109DF8021001F00F0100EB81001A
:108D90004088ADF80200BDF80010484016BD81B013
:108DA0000090C1F11000BDF8002002FA01F3024169
:108DB0001A43ADF80020BDF8022042FA01F102FA90
:108DC00000F00843ADF80200009801B070472DE9AB
:108DD000F84304460D469146CDB16D1E2788B4F880
:108DE0000280002631464846FFF7D9FF014640463B
:108DF000FFF7B8FF784080B247468046761C082EC1
:108E0000F0DB24F8027B24F8028B002DE5D1002052
:108E1000BDE8F2832DE9F04780460E469246DEB16A
:108E2000761EB8F80050B8F8029008277F1E394621
:108E30005046FFF7B4FF2C460146A0B2FFF792FF61
:108E400080EA090085B2A146012FEFDA28F8025B1B
:108E500028F8029B002EE3D10020BDE8F08741EA0C
:108E600000402449086070472DE9F0410F46144640
:108E70003D46AE1017F0030818BF761C3A4601466F
:108E8000204603F077FBB8F1000F04D0381D07F03F
:108E90000301471A3FB20020791B012906DB421962
:108EA00000231355401C00B28842F8DB11480268C9
:108EB00031462046FFF78BFF78B2BDE8F08138B528
:108EC0000C46154603210C4202D04FF0FF3032BD54
:108ED00022460146284603F04DFB06480268A110D1
:108EE0002846FFF797FF60B232BD0000C0D70008E8
:108EF000E4D60008D469002030B5DFF804478BB011
:108F00002046FFF78BF9DFF8FC562846FFF786F975
:108F100001A8FFF718FB00208DF80A0001A9012025
:108F20008DF80B0000200390ADF806000D208DF8A1
:108F3000080005208DF809000420ADF80400204643
:108F4000FFF78FF90020ADF816000690ADF812007B
:108F500004A90D208DF8140005208DF815000820B7
:108F6000ADF810002846FFF77CF90020ADF8260088
:108F700001208DF82800002007900890ADF824000B
:108F800001208DF8290007A8FFF750FA14208DF86A
:108F9000000000208DF801008DF8020001208DF8FE
:108FA000030000A802F054FE0BB030BD38B5DFF866
:108FB000584600202074E061002106202070618264
:108FC000002060702175FF20A070082228202071E9
:108FD00000206074DFF834060180DFF83406017089
:108FE00004F12000A061FF2104F1280003F010FE2D
:108FF0000822FF2104F1300003F00AFE0822FF21BD
:1090000004F1380003F004FE0822FF2104F14000BF
:1090100003F0FEFD0822FF2104F1480003F0F8FDF3
:109020000822FF2104F1500003F0F2FD0822FF2185
:1090300004F1700003F0ECFD0822FF2104F10800A8
:1090400003F0E6FD002020730822FF2104F18800D0
:1090500003F0DEFD0822FF2104F1900003F0D8FDAB
:109060000822FF2104F1980003F0D2FD0822FF211D
:1090700004F1A00003F0CCFD0822FF2104F1A800B8
:1090800003F0C6FD0822FF2104F1B00003F0C0FD8B
:109090000822FF2104F1B80003F0BAFD04F5A87519
:1090A0000822FF21284603F0B3FD1022FF2104F11E
:1090B000780003F0ADFD1522FF2104F1580003F004
:1090C000A7FD0822FF2104F1C00003F0A1FD152235
:1090D000FF2104F1C80003F09BFD0822FF2104F1E9
:1090E000D00003F095FD0D22FF2104F1D80003F01C
:1090F0008FFD0822FF2104F1E80003F089FD08221A
:10910000FF2104F1F00003F083FD0822FF2104F1A8
:10911000F80003F07DFD0822FF2104F5807003F0C4
:1091200077FD0822FF2104F5847003F071FD082209
:10913000FF2104F5887003F06BFD0822FF2104F580
:109140008C7003F065FD0822FF2104F5907003F098
:109150005FFD0822FF2104F5947003F059FDFF2202
:10916000082104F5987003F05DFDFF220821DFF867
:10917000A40403F057FDFF22162104F59C7003F0B0
:1091800051FDFF220821284603F04CFDFF22082153
:10919000DFF8840403F064FDDFF88044A522022197
:1091A000204603F05DFDA01CBDE83840F0220221FE
:1091B00003F056BD17B59DF80200DFF864442F2870
:1091C00011D0207800EB400304EB83000C2200A9AF
:1091D000801C03F0CFF92078401C2070C0B2FF281B
:1091E00006D1002013E101A80CC804F6F8310CC127
:1091F00003B010BDDFF82C040188491C0180052252
:1092000089B291FBF2F202EB8202891A00D0704718
:1092100010B50180DFF8104460782178814219D0C0
:1092200000EB00100019811C1122DFF80004FEF78A
:10923000C0FADFF8FC03D0E90023521C43F100031D
:10924000C0E900236078401C6070C0B2FF2804BFF2
:109250000020607010BD30B5DFF8D843B4F8680066
:10926000401CA4F8680085B0C00740D4DFF8B053B4
:109270006878297881423AD000EB400105EB810003
:10928000C2788178120402EB0161027901EB0221BC
:10929000427989180191082204218DF808100021D3
:1092A0008DF8091008218DF80A1000A98379CB7276
:1092B000401C491C521EF9D100A9D148FFF753F9AF
:1092C0002070042809D06878401C6870C0B2FF285C
:1092D0000DD10020687005B030BD61780A19107199
:1092E000481C6070C0B26528A4BF0020607005B043
:1092F00030BD0FB410B5CC4C207800EB0010001935
:1093000002218170F521207800EB0010001908225D
:10931000C1700821207800EB0010001901710021B4
:10932000207800EB0010001941740321207800EB35
:109330000010001981742078039900EB00100019C7
:10934000C0F805100DF11301207800EB0010001992
:10935000093003F00FF9B84920780978012928D19C
:1093600000EB00110919B54AD1F80510914210D14E
:1093700000EB00121219537A162B03D1B04A0123C5
:10938000137006E0182B04D1927AAE4B02F0010262
:109390001A70AD4A91420CD100EB00110919497ABB
:1093A000112908BFA94902D0132902D1A8490122D5
:1093B0000A70401C2070C0B2FF2804BF002020703B
:1093C00010BC5DF814FB10B583B018208DF80000B8
:1093D000FF208DF801002F208DF8020028208DF845
:1093E000030001A98E4C04F6F8300CC80CC120789B
:1093F00000EB400304EB83000C2200A9801C03F067
:10940000B9F82078401CC0B2FF2808BF00202070A7
:1094100003B010BD10B583B018208DF80000FF22F6
:10942000EF208DF80100082147208DF80200282048
:109430008DF8030001A803F0F5FB15208DF804005A
:109440000C22774C207800EB400304EB830000A94A
:10945000801C03F08FF82078401CC0B2FF2808BFA2
:109460000020D4E710B585B01C208DF808000D2130
:10947000EC208DF80900082247208DF80A002820EA
:109480008DF80B0010208DF8000000A8417000211D
:1094900081700221C170FF21017100208DF805004B
:1094A00000A9EF208DF8060000208DF8070003A822
:1094B00003F060F85A4C207800EB400304EB830083
:1094C0000C2202A9801C03F055F82078401CC0B281
:1094D000FF2808BF0020207005B010BD10B585B072
:1094E00018208DF8080000A9EF208DF8090047200A
:1094F0008DF80A0028208DF80B0001208DF800005F
:10950000FF204870C87008718DF805008DF80600BE
:109510008DF807004F4A5048127800788A70B0B131
:10952000082203A803F026F83D4C207800EB400306
:1095300004EB83000C2202A9801C03F01BF82078A6
:10954000401C2070C0B2FF2804BF0020207005B06E
:1095500010BD70B585B01C208DF8080000ACEB2064
:109560008DF80900FF2647208DF80A00E6702820B4
:109570008DF80B00267101208DF800006671172010
:109580006070A671F820A070E671082200A903A8F7
:1095900002F0F0FF224D287800EB400305EB83003A
:1095A0000C2202A9801C02F0E5FF2878401CC0B202
:1095B000FF2808BF00202870667002208DF8000088
:1095C000A670E67026716671A671E671082200A980
:1095D00003A802F0CFFF287800EB400305EB8300DF
:1095E0000C2202A9801C02F0C5FF2878401CC0B2E2
:1095F000FF2808BF0020287005B070BD00000000E3
:10960000006400400068004024940020D2960020AE
:1096100060970020C88600201C9700200C9700202F
:10962000D07A0020BA960020DC690020BC96002089
:10963000489700207C9500204D9600204728EF1881
:109640004F960020529600204728EC1C5096002090
:1096500051960020566900205569002038B504460F
:1096600000F0EEF8DFF80455002210212846FCF740
:10967000BFFDD82000F0BAF82002000E00F0B6F8C6
:109680002004000E00F0B2F8E0B200F0AFF80122C2
:1096900010212846FCF7ACFDBDE83140E1E010B5F3
:1096A00000F0CEF8DFF8C444002210212046FCF779
:1096B0009FFDC72000F09AF8012210212046FCF7F8
:1096C00097FDBDE81040CCE02DE9F84304460F4675
:1096D000164600F0B5F8DFF89494002210214846B1
:1096E000FCF786FD022000F081F83802000E00F041
:1096F0007DF83804000E00F079F8F8B200F076F842
:109700002EB3012794F800800025761E0022202128
:109710004846FCF76DFDC5F1070007FA00F0414629
:10972000014214BF0122002280214846FCF760FD5F
:10973000012220214846FCF75BFD40214846FCF70A
:1097400042FC6D1C082DE1DB641C002EDAD10122E5
:1097500010214846FCF74CFDBDE8F14381E02DE9BE
:10976000F84380460F461646DFF800940022102189
:109770004846FCF73DFD032000F038F83802000EA3
:1097800000F034F83804000E00F030F8F8B200F0C1
:109790002DF83EB3012700240025761E002220214B
:1097A0004846FCF725FDC5F1070007FA00F010F068
:1097B000A50014BF0122002280214846FCF718FDB5
:1097C000012220214846FCF713FD40214846FCF7C2
:1097D000FAFB6D1C40EA4404082DDFDB08F8014B5E
:1097E000002ED8D14846BDE8F84336E02DE9F041D7
:1097F0000446002500260127DFF87083002220217F
:109800004046FCF7F5FCC6F1070007FA00F00442F9
:1098100014BF0122002280214046FCF7E9FC01220E
:1098200020214046FCF7E4FC40214046FCF7CBFBFE
:10983000761C40EA4505082EE0DBE8B2BDE8F08181
:1098400010B5CA4C002210212046FCF7D1FC06209E
:10985000FFF7CCFF2046BDE8104001221021FCF7A5
:10986000C7BCF8B5C14C002210212046FCF7C0FC53
:109870000520FFF7BBFF012500260027002220213D
:109880002046FCF7B5FCC7F1070005FA00F010F020
:10989000A50014BF0122002280212046FCF7A8FC6D
:1098A000012220212046FCF7A3FC40212046FCF7A2
:1098B0008AFB7F1C40EA4606082FDFDBF007DBD47B
:1098C0002046BDE8F840C8E710B4002261B10FF2AD
:1098D000AC2310F8014B5440E4B233F8144084EA4E
:1098E000222292B2491EF4D110BC1046704710B526
:1098F000012210219D48FCF77BFC9D4C01224FF476
:1099000000612046FCF774FC2046BDE810400122AF
:109910004FF48061FCF76CBC10B501294BD10128D4
:1099200005D0C0F09780032812D01CD310BD914CF5
:10993000207C30B94FF42020FFF790FE01202074E6
:109940005DE08D48B0F80100800200F520204CE079
:109950008848007C00284ED08748B0F8010080027B
:1099600000F5202054E04FF47410FFF777FE4FF419
:109970007810FFF773FE80487E4CB0F80110217319
:10998000080A607306224FF4741104F10800FFF70F
:109990009BFE06224FF4781104F10800FFF794FEB5
:1099A00006224FF4781104F11400FFF7D8FE0020CE
:1099B0002074022023E0012804D04BD3032817D0C1
:1099C00029D310BD6B4C207C48B94FF48030FFF791
:1099D00045FE0120207400F04DF8002039E0664873
:1099E000B0F80100800200F58030BDE8104054E07E
:1099F0006048007C30B95F48012101740320BDE854
:109A0000104037E05C48B0F80100800200F580307B
:109A1000BDE810407AE04FF47C10FFF71FFE564877
:109A2000544CB0F801102171080A607106224FF4FD
:109A30007C112046FFF748FE06224FF47C1104F10A
:109A40001400FFF78CFE00202074022000F012F8B2
:109A50000120607410BD00B583B002218DF80010A4
:109A600000AA4549B1F80130B1F801105370090A54
:109A700091700AE000B583B002218DF800108DF8D6
:109A80000200862103208DF801108DF80A0000A93C
:109A90000420FDF7ACFE03B000BD38B50446364DDA
:109AA0004FF48061E81CFFF70FFFB5F803148842FC
:109AB00027D10620FFF7CFFF4FF480722146E81C24
:109AC000FFF702FE4FF4807204F5807105F2031077
:109AD000FFF7FAFD4FF4807204F5007105F20320E0
