:020000040800F2
:10400000589F0020ADD400087FB0000881B00008A0
:1040100083B0000885B0000887B0000800000000E9
:1040200000000000000000000000000089B000084F
:104030008BB00008000000008DB000088FB00008B1
:10404000EDD40008F1D40008F5D40008F9D4000834
:10405000FDD4000801D5000805D5000809D50008E1
:104060000DD5000811D5000815D5000819D5000890
:104070001DD5000821D5000825D5000829D5000840
:104080002DD5000831D5000835D5000839D50008F0
:10409000F9B0000841D5000845D5000849D5000809
:1040A0004DD5000851D5000855D5000859D5000850
:1040B0005DD5000861D50008D1B1000869D50008B8
:1040C0006DD5000871D5000875D5000879D50008B0
:1040D0007DD5000881D500083BB2000889D50008CD
:1040E0008DD5000891D5000895D5000899D5000810
:1040F0009DD50008A1D50008A5D50008A9D50008C0
:10410000ADD50008B1D5000827B20008B9D5000820
:1041100099B20008C1D50008C5D50008C9D5000866
:10412000CDD50008D1D50008D5D50008D9D50008CF
:10413000DDD50008E1D50008E5D50008E9D500087F
:10414000EDD50008F1D50008F5D50008F9D500082F
:10415000FDD5000801D6000805D6000809D60008DC
:104160000DD6000811D6000815D6000819D600088B
:104170001DD6000821D6000825D6000829D600083B
:104180002DD6000831D600081CB501F077FE0F23AC
:104190000F220221032000F00DFA1F2001900023BE
:1041A0002D2000901A461146032001F04DFD1F20DE
:1041B000019000232D2000901A460121032001F0D8
:1041C00043FD1F20019000232D2000901A4602215C
:1041D000032001F039FD1F20019000232D200090C5
:1041E00003211A46084601F02FFD1F2000900022EF
:1041F0002D231146032001F0A6FDF02310220221F9
:10420000032000F0D7F9502000901022DFF8BC4ABC
:1042100004F108030221032000F06DFA20798009DF
:1042200028D12020009004F15803602202210320AD
:1042300000F061FA2020009004F17803802202212E
:10424000032000F058FA2020009004F17803A02207
:104250000221032000F04FFA2020009004F178039F
:10426000C0220221032000F046FA2020009004F131
:10427000780324E02020009004F1980360220221BA
:10428000032000F038FA20200090B8342346802222
:104290000221032000F02FFA202000902346A022C4
:1042A0000221032000F027FA202000902346C0229C
:1042B0000221032000F01FFA202000902346E02274
:1042C0000221032000F017FA13BD2DE9F041DFF8B9
:1042D000FC49DFF8FC89A0700E46207940F004000C
:1042E000207115464FF48051404601F055FFDFF82C
:1042F000E4794FF48041384601F022FF4FF4005139
:10430000384601F01DFF4FF40051404601F044FFD4
:104310004FF48061384601F03FFF4FF4805138463A
:1043200001F00EFF002000F0A0FB384601F0DAFE9D
:1043300000F47F4046EA0001384601F0B8FF4FF430
:104340008051404601F0FCFE4FF48051404601F0A0
:1043500023FF002000F089FB384601F0C3FE00F483
:104360007F4045EA0001384601F0A1FF4FF40051BB
:10437000384601F011FF4FF40051384601F0E0FEDD
:104380004FF48051404601F007FF4FF4804138461A
:1043900001F0D6FE4FF40051384601F0D1FE4FF443
:1043A0000051404601F0F8FE4FF48061384601F0BC
:1043B000C7FE4FF48051384601F0C2FE002000F0E5
:1043C00054FB384601F08EFE40F0FF01384601F004
:1043D0006EFF207900F0FB002071BDE8F0812DE92F
:1043E000F041DFF8E858DFF8E868A8700F46287950
:1043F00040F00400287114464FF48051304601F01B
:10440000CBFEDFF8D0884FF48041404601F098FEA3
:104410004FF40051404601F093FE4FF400513046F6
:1044200001F0BAFE4FF48061404601F0B5FE4FF452
:104430008051404601F084FE002000F016FB40460B
:1044400001F050FE00F47F4047EA0001404601F0D1
:104450002EFF4FF48051304601F072FE4FF4805130
:10446000304601F099FE2778002000F0FEFA404621
:1044700001F038FE00F47F4047EA0001404601F0B9
:1044800016FF4FF40051404601F086FE4FF40051F4
:10449000404601F055FE6778002000F0E6FA4046FD
:1044A00001F020FE00F47F4047EA0001404601F0A1
:1044B000FEFE4FF40051404601F06EFE4FF40051F5
:1044C000404601F03DFEA778002000F0CEFA4046BD
:1044D00001F008FE00F47F4047EA0001404601F089
:1044E000E6FE4FF40051404601F056FE4FF40051F5
:1044F000404601F025FEE778002000F0B6FA40467D
:1045000001F0F0FD00F47F4047EA0001404601F071
:10451000CEFE4FF40051404601F03EFE4FF40051F4
:10452000404601F00DFE2479002000F09EFA40463E
:1045300001F0D8FD00F47F4044EA0001404601F05C
:10454000B6FE4FF40051404601F026FE4FF40051F4
:10455000404601F0F5FD4FF48051304601F01CFE5D
:104560004FF48041404601F0EBFD4FF400514046CE
:1045700001F0E6FD4FF40051304601F00DFE4FF41E
:104580008061404601F0DCFD4FF48051404601F06F
:10459000D7FD002000F069FA404601F0A3FD40F08D
:1045A000FF01404601F083FE287900F0FB002871EE
:1045B000BDE8F0812DE9F843DFF81047DFF81087F8
:1045C000A0700F46207940F00400207191461E46ED
:1045D0004FF48051404601F0DFFDDFF8F8564FF40C
:1045E0008041284601F0ACFD4FF40051284601F00F
:1045F000A7FD4FF40051404601F0CEFD2FB94FF416
:104600008051284601F0C8FD13E0012F0AD14FF474
:104610008051284601F0C0FD4FF48061284601F02A
:104620008FFD0BE0022F09D14FF48051284601F095
:1046300087FD4FF48061284601F0AEFD002000F0B8
:1046400014FA284601F04EFD00F47F4049EA0001CB
:10465000284601F02CFE4FF48051404601F070FDD9
:104660004FF48051404601F097FD002000F0FDF925
:10467000284601F037FD00F47F4046EA0001284655
:1046800001F015FE4FF40051284601F085FD4FF46E
:104690000051284601F054FD4FF48051404601F08E
:1046A0007BFD4FF48041284601F04AFD4FF4005154
:1046B000284601F045FD4FF40051404601F06CFDE5
:1046C0004FF48061284601F03BFD4FF480512846AD
:1046D00001F036FD002000F0C8F9284601F002FD87
:1046E00040F0FF01284601F0E2FD207900F0FB00D8
:1046F0002071BDE8F1832DE9F843DFF8D055DFF8EC
:10470000D085A8700F46287940F00400287114461F
:104710001E464FF48051404601F03EFDDFF8B4954F
:104720004FF48041484601F00BFD4FF400514846DC
:1047300001F006FD4FF40051404601F02DFD2FB968
:104740004FF48051484601F027FD13E0012F0AD1B4
:104750004FF48051484601F01FFD4FF480614846F8
:1047600001F0EEFC0BE0022F09D14FF480514846D6
:1047700001F0E6FC4FF48061484601F00DFD002099
:1047800000F073F9484601F0ADFC00F47F4044EAC4
:104790000001484601F08BFD4FF48051404601F086
:1047A000CFFC4FF48051404601F0F6FC089CA4B2C7
:1047B000D4B116F8017B002000F057F9484601F00B
:1047C00091FC00F47F4047EA0001484601F06FFD8C
:1047D0004FF40051484601F0DFFC4FF400514846C9
:1047E00001F0AEFC641EE4D14FF48051404601F06C
:1047F000D3FC4FF48041484601F0A2FC4FF4005135
:10480000484601F09DFC4FF40051404601F0C4FCC5
:104810004FF48061484601F093FC4FF480514846C4
:1048200001F08EFC002000F020F9484601F05AFC0F
:1048300040F0FF01484601F03AFDFFE7287900F01B
:10484000FB002871BDE8F1832DE9F041DFF87C44DD
:10485000DFF87C74A0700E46207940F004002071CF
:1048600015464FF48051384601F096FCDFF8648419
:104870004FF48041404601F063FC4FF40051404644
:1048800001F05EFC4FF40051384601F085FC2EB972
:104890004FF48051404601F07FFC13E0012E0AD115
:1048A0004FF48051404601F077FC4FF48061404660
:1048B00001F046FC0BE0022E09D14FF48051404636
:1048C00001F03EFC4FF48061404601F065FC0020A1
:1048D00000F0CBF8404601F005FC00F47F4045EACB
:1048E0000001404601F0E3FC4FF48051384601F0EE
:1048F00027FC4FF48051384601F04EFC4FF48041C4
:10490000404601F049FC012000F0AFF8404601F0BC
:10491000BBFB05464FF48041404601F011FC4FF4CB
:104920008051384601F038FC4FF48041404601F098
:1049300007FC4FF40051404601F002FC4FF40051D7
:10494000384601F029FC4FF48061404601F0F8FB45
:104950004FF48051404601F0F3FB207900F0FB005A
:104960002071E8B2BDE8F081F8B5DFF86043DFF808
:104970006053A0704FF48051207940F00400207102
:10498000284601F009FCDFF84C634FF480413046C3
:1049900001F0D6FB4FF40051304601F0D1FB4FF44B
:1049A0000051284601F0F8FB4FF48061304601F0D9
:1049B000F3FB4FF48051304601F0C2FB002000F0C1
:1049C00054F8304601F08EFB00F47F4040F00A01BD
:1049D000304601F06CFC4FF48051284601F0B0FBEA
:1049E0004FF48051284601F0D7FB002000F03DF83D
:1049F000304601F077FB40F0FF01304601F057FCF4
:104A00004FF48041304601F0C7FB012000F02DF843
:104A1000304601F039FB07464FF48041304601F043
:104A20008FFB4FF48051284601F0B6FB4FF48041D4
:104A3000304601F085FB4FF40051304601F080FB19
:104A40004FF40051284601F0A7FB4FF48061304637
:104A500001F076FB4FF48051304601F071FB207974
:104A600000F0FB002071F8B2F2BD00B583B018B9B8
:104A7000FF200090012004E0012811D1FF200090C8
:104A800000208DF8040000A902208DF80500002008
:104A90008DF8060001208DF807008E4801F0F2F92C
:104AA00003B000BD1CB50020009000238A4C019487
:104AB00064224121032000F0B5FF0020009003464E
:104AC000019464221421032000F0ACFF0020009028
:104AD0000346019464226E21032000F0A3FF00200E
:104AE0000090034601942D221421032000F09AFF28
:104AF00000200090034601942D226E21032000F037
:104B000091FF0020009003460194A5221421032068
:104B100000F088FF0020009003460194A5226E213A
:104B2000032000F07FFF13BD2DE9FC410746002262
:104B300000210320FFF788FE0646102200210320F3
:104B4000FFF782FE0446202200210320FFF77CFEAF
:104B50000546302200210320FFF776FE8046FFF74E
:104B6000A1FF57B9802E16D1DFF8A00E01900023C7
:104B70000020009064224121A3E0012F02D1802C6B
:104B800009D1F1E7022F01D1802DF9E7032F0AD1D6
:104B9000B8F1800FE8D05048019000230020009029
:104BA000642241218DE0042F17D1802E14BF4A4882
:104BB000DFF8580E01900023002000906422142199
:104BC000032000F02FFF802C2BD1DFF8400E019046
:104BD000002300200090642272E0052F0FD1802E68
:104BE0002AD1DFF8280E01900023002000906422D3
:104BF0001421032000F016FF802D12D1E5E7062FC7
:104C000016D1802E23D1DFF8040E0190002300205E
:104C1000009064221421032000F004FFB8F1800FFB
:104C2000D3D02D480190002300200090642247E05B
:104C3000072F03D1802CD4D02748D4E7082F02D1E6
:104C4000802C04D1DFE7092F03D1802DDBD022484F
:104C5000DBE70A2F38D1802E14BF1F48DFF8AC0DD8
:104C600001900023002000902D221421032000F049
:104C7000D9FE802C14BF1848DFF8900D0190002356
:104C8000002000902D226E21032000F0CBFE802D0D
:104C900014BF1148DFF8740D01900023002000902C
:104CA000A5221421032000F0BDFEB8F1800F14BF2F
:104CB0000948DFF8580D0190002300200090A5223C
:104CC0006E21032000F0AEFEBDE8F381A067002056
:104CD000000C0240001802400000002000B583B024
:104CE000002861D1A1B11F20019000222D20009049
:104CF00000231146032000F0A7FFDFF8140D0190F8
:104D00000522002000900346A221032000F08AFE25
:104D10000123802200210320FFF74CFCFF23812286
:104D200000210320FFF746FCFF23822200210320FD
:104D3000FFF740FCFF23832200210320FFF73AFC0A
:104D4000FF23842200210320FFF734FC802310225C
:104D500001210320FFF72EFC01231822012103204B
:104D6000FFF728FC0223202201210320FFF722FC69
:104D70000323282201211846FFF71CFC00233022C0
:104D800001210320FFF716FCB0233122012103206B
:104D9000FFF710FC0023322201210320FFF70AFC59
:104DA0007823332200F010BE012861D1A1B11F2069
:104DB000019000222D20009000231146032000F0D6
:104DC00043FFDFF8500C01900522002000900346BD
:104DD000A221032000F026FE41239022002103207F
:104DE000FFF7E8FBFF23912200210320FFF7E2FBFE
:104DF000FF23922200210320FFF7DCFBFF239322F5
:104E000000210320FFF7D6FBFF239422002103207B
:104E1000FFF7D0FB0023102201210320FFF7CAFB7C
:104E20008123182201210320FFF7C4FB0223202243
:104E300001210320FFF7BEFB0323282201210320C9
:104E4000FFF7B8FB0023342201210320FFF7B2FB58
:104E5000B023352201210320FFF7ACFB00233622CB
:104E600001210320FFF7A6FB7823372200F0ACBD19
:104E7000022861D1A1B11F20019000222D200090B5
:104E800000231146032000F0DFFEDFF88C0B0190B9
:104E90000522002000900346A221032000F0C2FD5D
:104EA0008123A02200210320FFF784FBFF23A122FE
:104EB00000210320FFF77EFBFF23A2220021032015
:104EC000FFF778FBFF23A32200210320FFF772FBEB
:104ED000FF23A42200210320FFF76CFB00231022F4
:104EE00001210320FFF766FB012318220121032083
:104EF000FFF760FB8223202201210320FFF75AFBEA
:104F00000323282201211846FFF754FB00233822EF
:104F100001210320FFF74EFBB0233922012103209A
:104F2000FFF748FB00233A2201210320FFF742FB51
:104F300078233B2200F048BD03285AD1A1B11F209D
:104F4000019000222D20009000231146032000F044
:104F50007BFEDFF8C80A019005220020009003467E
:104F6000A221032000F05EFDC123B0220021032016
:104F7000FFF720FBFF23B12200210320FFF71AFBDC
:104F8000FF23B22200210320FFF714FBFF23B322EB
:104F900000210320FFF70EFBFF23B4220021032092
:104FA000FFF708FB0023102201210320FFF702FB7B
:104FB0000123182201210320FFF7FCFA02232022FB
:104FC00001210320FFF7F6FA832328220121032081
:104FD000FFF7F0FA00233C2201210320FFF7EAFA51
:104FE000B0233D2201210320FFF7E4FA002300F063
:104FF000E4BC042840F0A380F9B11F2001900022F6
:105000002D20009000231146032000F01DFEDFF844
:10501000000A019005220020009003464C21032045
:1050200000F000FDDFF8EC0901900522002000905F
:105030000346A221032000F0F5FC01238022002179
:105040000320FFF7B7FAFF23812200210320FFF797
:10505000B1FAFF23822200210320FFF7ABFA7F235E
:10506000832200210320FFF7A5FAFF2384220021D9
:105070000320FFF79FFA4123902200210320FFF72E
:1050800099FAFF23912200210320FFF793FAFF23CF
:10509000922200210320FFF78DFA7F239322002123
:1050A0000320FFF787FAFF23942200210320FFF754
:1050B00081FA8023102201210320FFF77BFA81234C
:1050C000182201210320FFF775FA02232022012173
:1050D0000320FFF76FFA0323282201210320FFF7A3
:1050E00069FA0023302201210320FFF763FA5823D5
:1050F000312201210320FFF75DFA00233222012132
:105100000320FFF757FA7823332201210320FFF70A
:1051100051FA5823342201210320FFF74BFAB02320
:10512000352201210320FFF745FA00233622012111
:105130000320FFF73FFA7823372200F045BC05280B
:1051400040F0A280F9B11F20019000222D20009094
:1051500000231146032000F077FDDFF8B40801902A
:1051600005220020009003464C21032000F05AFC49
:10517000DFF8A40801900522002000900346A22138
:10518000032000F04FFC0123802200210320FFF7C1
:1051900011FAFF23812200210320FFF70BFAFF23DE
:1051A000822200210320FFF705FA7F2383220021BA
:1051B0000320FFF7FFF9FF23842200210320FFF7DC
:1051C000F9F98123A02200210320FFF7F3F9FF233F
:1051D000A12200210320FFF7EDF9FF23A2220021E5
:1051E0000320FFF7E7F9FF23A32200210320FFF7A5
:1051F000E1F9FF23A42200210320FFF7DBF980233C
:10520000102201210320FFF7D5F9012318220121E3
:105210000320FFF7CFF98223202201210320FFF78B
:10522000C9F90323282201211846FFF7C3F90023F7
:10523000302201210320FFF7BDF95823312201213B
:105240000320FFF7B7F90023322201210320FFF7E3
:10525000B1F97823332201210320FFF7ABF958235A
:10526000382201210320FFF7A5F9B02339220121BB
:105270000320FFF79FF900233A2201210320FFF7C3
:1052800099F978233B229FE3062840F09B80F9B1EF
:105290001F20019000222D200090002311460320A2
:1052A00000F0D2FCDFF86807019005220020009092
:1052B00003464C21032000F0B5FBDFF860070190A6
:1052C0000522002000900346A221032000F0AAFB43
:1052D0000123802200210320FFF76CF9FF238122A4
:1052E00000210320FFF766F9FF238222002103201B
:1052F000FFF760F97F23832200210320FFF75AF98B
:10530000FF23842200210320FFF754F9C123B02298
:1053100000210320FFF74EF9FF23B12200210320D3
:10532000FFF748F9FF23B22200210320FFF742F9DB
:10533000FF23B32200210320FFF73CF9FF23B4220F
:1053400000210320FFF736F98023102201210320DA
:10535000FFF730F90123182201210320FFF72AF972
:105360000223202201210320FFF724F9832328228E
:1053700001210320FFF71EF9002330220121032021
:10538000FFF718F95823312201210320FFF712F902
:105390000023322201210320FFF70CF97823332266
:1053A00001210320FFF706F958233C2201210320A5
:1053B000FFF700F9B0233D2201210320FFF7FAF89F
:1053C0000023FAE2072840F0A280F9B11F200190E3
:1053D00000222D20009000231146032000F034FC11
:1053E000DFF83006019005220020009003464C2192
:1053F000032000F017FBDFF82006019005220020B3
:1054000000900346A221032000F00CFB41239022D0
:1054100000210320FFF7CEF8FF2391220021032073
:10542000FFF7C8F8FF23922200210320FFF7C2F8FC
:105430007F23932200210320FFF7BCF8FF2394224F
:1054400000210320FFF7B6F88123A02200210320CA
:10545000FFF7B0F8FF23A12200210320FFF7AAF8ED
:10546000FF23A22200210320FFF7A4F87F23A32219
:1054700000210320FFF79EF8FF23A4220021032030
:10548000FFF798F80023102201210320FFF792F87C
:105490008123182201210320FFF78CF88223202288
:1054A00001210320FFF786F803232822012103208E
:1054B000FFF780F80023342201210320FFF77AF858
:1054C0005823352201210320FFF774F800233622E8
:1054D00001210320FFF76EF87823372201210320F2
:1054E000FFF768F85823382201210320FFF762F8FC
:1054F000B023392201210320FFF75CF800233A2270
:1055000001210320FFF756F878233B225CE20828AC
:1055100040F09B80F9B11F20019000222D200090C7
:1055200000231146032000F08FFBDFF8E804019010
:1055300005220020009003464C21032000F072FA5F
:10554000DFF8D80401900522002000900346A22134
:10555000032000F067FA4123902200210320FFF787
:1055600029F8FF23912200210320FFF723F8FF23CE
:10557000922200210320FFF71DF87F2393220021B0
:105580000320FFF717F8FF23942200210320FFF7E1
:1055900011F8C123B02200210320FFF70BF8FF23ED
:1055A000B12200210320FFF705F8FF23B2220021DA
:1055B0000320FEF7FFFFFF23B32200210320FEF7A5
:1055C000F9FFFF23B42200210320FEF7F3FF00239D
:1055D000102201210320FEF7EDFF81231822012173
:1055E0000320FEF7E7FF0223202201210320FEF71C
:1055F000E1FF8323282201210320FEF7DBFF0023A4
:10560000342201210320FEF7D5FF58233522012142
:105610000320FEF7CFFF0023362201210320FEF7EF
:10562000C9FF7823372201210320FEF7C3FF582347
:105630003C2201210320FEF7BDFFB0233D220121C2
:105640000320FEF7B7FF0023B7E1092840F0998057
:10565000E9B11F20019000222D2000900023114667
:10566000032000F0F1FAEC480190052200200090A0
:1056700003464C21032000F0D5F9E84801900522AB
:10568000002000900346A221032000F0CBF98123E3
:10569000A02200210320FEF78DFFFF23A12200217D
:1056A0000320FEF787FFFF23A22200210320FEF73D
:1056B00081FF7F23A32200210320FEF77BFFFF232E
:1056C000A42200210320FEF775FFC123B022002190
:1056D0000320FEF76FFFFF23B12200210320FEF716
:1056E00069FFFF23B22200210320FEF763FFFF239F
:1056F000B32200210320FEF75DFFFF23B422002127
:105700000320FEF757FF0023102201210320FEF79C
:1057100051FF0123182201210320FEF74BFF8223B2
:10572000202201210320FEF745FF832328220121A7
:105730000320FEF73FFF0023382201210320FEF75C
:1057400039FF5823392201210320FEF733FF0023BC
:105750003A2201210320FEF72DFF78233B2201216D
:105760000320FEF727FF58233C2201210320FEF7E8
:1057700021FFB0233D2201210320FEF71BFF002360
:105780001BE10A2840F02781002931D01F20019019
:1057900000222D20009000231146032000F054FA2F
:1057A0009B48019005220020009003464C210320D5
:1057B00000F038F997480190052200200090034638
:1057C000A221032000F02EF9934801907D220020B1
:1057D000009003464C21032000F024F98F480190EB
:1057E0007D22002000900346A221032000F01AF938
:1057F0000123802200210320FEF7DCFE7F2381228B
:1058000000210320FEF7D6FEFF2382220021032081
:10581000FEF7D0FE7F23832200210320FEF7CAFE7D
:10582000FF23842200210320FEF7C4FE412390229F
:1058300000210320FEF7BEFE7F23912200210320DA
:10584000FEF7B8FEFF23922200210320FEF7B2FEEE
:105850007F23932200210320FEF7ACFEFF23942236
:1058600000210320FEF7A6FE8123A02200210320B1
:10587000FEF7A0FE7F23A12200210320FEF79AFE5F
:10588000FF23A22200210320FEF794FE7F23A32200
:1058900000210320FEF78EFEFF23A4220021032017
:1058A000FEF788FEC123B02200210320FEF782FE0E
:1058B0007F23B12200210320FEF77CFEFF23B222CA
:1058C00000210320FEF776FE7F23B3220021032070
:1058D000FEF770FEFF23B42200210320FEF76AFECC
:1058E0008023102201210320FEF764FE8123182269
:1058F00001210320FEF75EFE8223202201210320E6
:10590000FEF758FE8323282201210320FEF752FED2
:105910000023302201210320FEF74CFE58233122C0
:1059200001210320FEF746FE00233222012103203D
:10593000FEF740FE3C23332201210320FEF73AFE0E
:105940005823342201210320FEF734FEB0233522F0
:1059500001210320FEF72EFE002336220121032021
:10596000FEF728FE3C23372201210320FEF722FE0A
:105970000023382201210320FEF71CFE5823392280
:1059800001210320FEF716FE3C233A2201210320C9
:10599000FEF710FE78233B2201210320FEF70AFECA
:1059A00058233C2201210320FEF704FEB0233D22B0
:1059B00001210320FEF7FEFD3C233E2201210320AE
:1059C000FEF7F8FD78233F2203B05DF804EB0121D8
:1059D0000320FEF7EFBD03B000BD10B582B0FF207D
:1059E000009000220E4C234600210320FEF783FE88
:1059F000FF20009004F58073002201210320FEF7B0
:105A00007AFEBDE81340FEF7BFBB00001827002058
:105A100050560020C8590020405D0020B86000208A
:105A200030640020FFE72DE9FE4F8AB080461798CA
:105A3000179003F0070717990078497801EB0020C9
:105A400080B2049003F0C005179817998078C97840
:105A5000DDF810C001EB0020179909791FFA80F9D1
:105A600016980A4619FB0CFC90FBF2F31CFB01F1A3
:105A700011FB03F102FB130010FB091080B206902A
:105A8000002206214046FEF720FC00220821404665
:105A9000FEF71BFC1798007900FB09F080B2059017
:105AA0000020019004980128C0F2CB8000200390D0
:105AB000B80080308DF8010007AF4EE01798305CD9
:105AC00028438DF81C004FEAA40A179830180AF0F2
:105AD0000F0B41782943797007AA81782943B9705F
:105AE0000021C0782843F870ABF18000387140463F
:105AF000FEF775FCBBF10F0F02D0201D48451EDBE1
:105B00009DF828005044A0EB0B02D2B2052140467C
:105B1000FEF7DBFB9DF8000040EA0B1040F00A02A4
:105B200009214046FEF7D1FB4046FEF71DFF000667
:105B3000FAD49DF801200A214046FEF7C6FB201D3D
:105B400084B2361D4C45B9DB01980599801C80B2A2
:105B50000190039800EB410003900198049988425A
:105B60006FDA03A8068805980199801980B2099018
:105B70004910BDF82C0011FA80F00290C2B2072142
:105B80004046FEF7A2FB0024B9F1010FDCDB0698CA
:105B90003018401D86B20298001280008DF8000077
:105BA00041E01798305C28438DF81C004FEAA40AA6
:105BB000179830180AF00F0B41782943797007AA1B
:105BC00081782943B9700021C0782843F870ABF17F
:105BD000800038714046FEF702FCBBF10F0F02D087
:105BE000201D48451CDB9DF828005044A0EB0B020B
:105BF000D2B205214046FEF768FB9DF8000040EA5E
:105C00000B1209214046FEF760FB4046FEF7ACFE52
:105C10000006FAD49DF801200A214046FEF755FB04
:105C2000201D84B2361D4C45BBDB06980999081827
:105C3000401D86B202980012800000248DF80000FA
:105C400080E70DB0BDE8F08F2DE9F8430E46914690
:105C5000089C80461D46FF220021FEF736FBFF22EE
:105C600001214046FEF731FBFF2202214046FEF7AC
:105C70002CFBFF2203214046FEF727FBE80000EB48
:105C80004505EAB207214046FEF71FFB099880B29E
:105C9000410011FA85F101EBC000401E87B2FAB253
:105CA00008214046FEF711FB2904080E390A01EBD2
:105CB000800040F00202D2B209214046FEF705FB07
:105CC000A000C0B24FEA8907040900F00F0519D0FF
:105CD000FAB205210020FEF7F8FA200150FA87F207
:105CE000D2B206210020FEF7F0FAB00000F1C002A7
:105CF000D2B20A210020FEF7E8FA4046FEF734FE51
:105D00000006FAD4EDB1200150FA87F2D2B2052193
:105D10000020FEF7DAFA07EB04102818421ED2B270
:105D200006210020FEF7D1FAB00000F1C002D2B285
:105D30000A210020FEF7C9FA4046FEF715FE0006CC
:105D4000FAD4BDE8F1832DE9F0410E4617468046AE
:105D50001D46FF220021FEF7B8FAFF22012140462E
:105D6000FEF7B3FAFF2202214046FEF7AEFAFF2209
:105D700003214046FEF7A9FAF80000EB4707FAB204
:105D800007214046FEF7A1FA069880B2410011FAB9
:105D900087F101EBC000401E84B2E2B20821404608
:105DA000FEF793FA3F04380E210A01EB800040F021
:105DB0000202D2B209214046FEF787FA6800760057
:105DC000C0B2050900F00F0716D0F2B2052100207D
:105DD000FEF77BFA280150FA86F2D2B206210020A3
:105DE000FEF773FAE0220A210020FEF76EFA404621
:105DF000FEF7BAFD0006FAD4D7B1280150FA86F2B0
:105E0000D2B205210020FEF760FA06EB0510381823
:105E1000421ED2B206210020FEF757FAE0220A21E4
:105E20000020FEF752FA4046FEF79EFD0006FAD427
:105E3000BDE8F08138B50478012C1EDB451C15F84F
:105E4000013B0B2202210320FEF7B4FB15F8013BB6
:105E50000C2202210320FEF7ADFB15F8013B0D22B9
:105E600002210320FEF7A6FB15F8013B0E220221BA
:105E70000320FEF79FFB641EE1D131BD0048D9E746
:105E8000046900202DE9F84304460026DFF8640584
:105E90000D4684421CBFDFF8600584421FD0DFF846
:105EA0005C0584421CBFDFF85805844217D0DFF838
:105EB000540584421CBFDFF8500584420FD0DFF840
:105EC0004C0584421FBFDFF848058442DFF84405D3
:105ED000844204D0C1210FF2405000F0E4FA286857
:105EE00020B90FF23450C22100F0DDFA28790028E1
:105EF00018BF012808D0022818BF032804D0C321E6
:105F00000FF2145000F0CFFAE87940B1012818BF21
:105F1000022804D00FF20050C42100F0C4FA01207E
:105F200000FA06F8286808EA0000404546D17700E4
:105F30000320B8406FEA0009206809EA00002060E9
:105F400020682979B940084320602879012818BFC2
:105F500002282AD16879002818BF012808D0022811
:105F600018BF032804D0D6210FF2AC4000F09BFAF2
:105F7000A06809EA0000A060A0686979B9400843F8
:105F8000A060A879002818BF012804D0DD210FF2F5
:105F9000884000F088FA606820EA08006060606865
:105FA000A979B14089B208436060E06809EA00005D
:105FB000E060E068E979B9400843E060761C102EA3
:105FC000ADD3BDE8F18370B504460026DFF82404A4
:105FD0000D4684421CBFDFF82004844220D0DFF845
:105FE0001C0484421CBFDFF81804844218D0DFF878
:105FF000140484421CBFDFF81004844210D0DFF880
:106000000C0484421FBFDFF808048442DFF8040454
:10601000844205D04FF49B710FF2FC3000F043FA3C
:10602000012D18BF022D29D0042D18BF082D25D011
:10603000102D18BF202D21D0402D18BF802D1DD030
:10604000B5F5807F18BFB5F5007F17D0B5F5806F27
:1060500018BFB5F5006F11D0B5F5805F18BFB5F565
:10606000005F0BD0B5F5804F18BFB5F5004F05D0D8
:106070000FF2A43040F2371100F015FA20692842DF
:1060800018BF0126304670BD10B50446DFF8640322
:1060900084421CBFDFF86003844220D0DFF85C0339
:1060A00084421CBFDFF85803844218D0DFF8540341
:1060B00084421CBFDFF85003844210D0DFF84C0349
:1060C00084421FBFDFF848038442DFF8480384425C
:1060D00005D04FF4A6710FF2403000F0E4F92069CA
:1060E00080B210BD10B50446DFF8080384421CBF1F
:1060F000DFF80403844220D0DFF8000384421CBF91
:10610000DFF8FC02844218D0DFF8F80284421CBF9A
:10611000DFF8F402844210D0DFF8F00284421FBF9F
:10612000DFF8EC028442DFF8EC02844205D040F252
:1061300073110FF2E42000F0B6F9606980B210BD6F
:1061400038B50446AB480D4684421CBFAA48844279
:1061500019D0AA4884421CBFA948844213D0A94838
:1061600084421CBFA84884420DD0A84884421FBF67
:10617000A7488442A748844205D040F285110FF217
:10618000982000F090F92DB90FF28C204FF4C371D4
:1061900000F089F9258331BD38B5044695480D4690
:1061A00084421CBF9448844219D0944884421CBF46
:1061B0009348844213D0934884421CBF924884423F
:1061C0000DD0924884421FBF914884429148844236
:1061D00005D04FF4CC710FF2402000F064F92DB9D6
:1061E0000FF2342040F2991100F05DF9658331BD62
:1061F00070B504467F480D46164684421CBF7E4853
:10620000844219D07D4884421CBF7D48844213D00B
:106210007C4884421CBF7C4884420DD07B48844229
:106220001FBF7B4884427B48844205D04FF4D6711F
:106230000FF2E41000F037F9012D18BF022D29D01C
:10624000042D18BF082D25D0102D18BF202D21D0CA
:10625000402D18BF802D1DD0B5F5807F18BFB5F536
:10626000007F17D0B5F5806F18BFB5F5006F11D05E
:10627000B5F5805F18BFB5F5005F0BD0B5F5804F61
:1062800018BFB5F5004F05D00FF28C1040F2AD11DC
:1062900000F009F94EB1012E05D04FF4D7710FF27D
:1062A000781000F000F9258370BD658370BD38B5A6
:1062B000044650480D4684421CBF4F48844219D0C2
:1062C0004E4884421CBF4E48844213D04D488442FD
:1062D0001CBF4D4884420DD04C4884421FBF4C48DF
:1062E00084424C48844205D040F2C3110FF228107A
:1062F00000F0D9F8656131BD70B506463D480D46E0
:10630000144686421CBF3C48864219D03B48864210
:106310001CBF3B48864213D03A4886421CBF3A48CD
:1063200086420DD0394886421FBF394886423948D7
:10633000864205D040F21D210FF2DC0000F0B3F8D8
:10634000002D18BF012D21D0022D18BF032D1DD007
:10635000042D18BF052D19D0062D18BF072D15D0F7
:10636000082D18BF092D11D00A2D18BF0B2D0DD0E7
:106370000C2D18BF0D2D09D00E2D18BF0F2D05D0D7
:106380000FF2940040F21E2100F08DF8002C18BF8F
:10639000092C1ED0012C18BF022C1AD0032C18BFB8
:1063A000042C16D0052C18BF062C12D0072C18BFB1
:1063B000082C0ED00A2C18BF0B2C0AD00C2C1CBF9A
:1063C0000D2C0F2C05D040F21F210FF24C0000F0D5
:1063D0006AF8E80806EB800005F007018900026A08
:1063E0000F238B409A43026204FA01F1026A1143BF
:1063F000016270BD0000024000040240000802403B
:10640000000C02400010024000140240001802403C
:10641000001C024000200240433A5C546F6F6C73D2
:106420005C574C39465C574C5F465F4D6F6E6974E4
:106430006F725F4150505C4C696272617269657342
:106440005C53544D3332463478785F5374645065EE
:10645000726970685F4472697665725C7372635CBE
:1064600073746D3332663478785F6770696F2E634A
:106470000000000080B500F0FDFC002002BD00B56A
:1064800085B04FF4E130009000A900200190ADF8F4
:106490000800ADF80C000C20ADF80A00002000F058
:1064A00057FD05B000BDFEE700B5DFF82809002163
:1064B000017083B0012141708170C1700C210171A4
:1064C000002141718171D0E90023CDE90023DDE98C
:1064D000000100F0DFFF03B000BDF0B58DB0DFF8C4
:1064E000080902A9016000A9416004A9816006A908
:1064F000C16000219DF8080000F0FC008DF8080044
:1065000000F0F3008DF8080000F00F0040F03000BC
:106510008DF8080002A8417081700721C170002128
:106520000171417901F0F00141F001014171312126
:106530004171422181712421C17108219DF800001F
:1065400000F0FC008DF8000000F0F3008DF8000072
:1065500000F0CF008DF8000000F03F008DF8000043
:1065600000A8417010218170C17801F0F001C17064
:106570000021C17041609DF8100000F0F0008DF81E
:10658000100080208DF8100004A8417801F0F0017F
:10659000417050214170817801F0F00141F0050116
:1065A000817055218170C17801F0F00141F008013E
:1065B000C1702821C170017901F0F00141F007019B
:1065C000017127210171FF214171002006900021F6
:1065D00006A841608160C160016100208DF82C0037
:1065E00000F0B4FD0021084600F0B0FD002108468F
:1065F00000F0ACFD002402AD00AE04AF15F8011BA5
:1066000004F1080000F0A2FD052000F0E8FF16F8F4
:10661000011B04F1100000F099FD052000F0DFFFE0
:1066200017F8011B04F1180000F090FD052000F0A0
:10663000D6FF641C082CE1DB002406AD15F8011B15
:1066400004F1320000F082FD052000F0C8FF641C58
:10665000152CF3DB0024FF2104F1640000F076FD2B
:10666000052000F0BCFF641C4F2CF4DB0024FF214C
:1066700004F1C80000F06AFD052000F0B0FF641CC2
:106680001E2CF4DB0024FF2104F1E60000F05EFD87
:10669000052000F0A4FF641C1D2CF4DBFFF704FFB1
:1066A0000DB0F0BDDFF8600801218164FF21C173E6
:1066B000002181740182417241818181817370471F
:1066C00010B5DFF8104784B0204600F013FF022019
:1066D0008DF80000832100A84170217881706178D5
:1066E000C170A1780171E17841712179817100A9AE
:1066F00060798DF80700A0798DF80800FF208DF8EB
:10670000090003208DF80A00042001F040F804B0CD
:1067100010BD0146002000F019BD0146012000F027
:1067200015BD012000F03BBDF8B501F0B6F840B151
:10673000DFF8D847207800286FD1607001F0ADF8FD
:1067400038B9012001F0A4F8DFF8BC0700218175F9
:10675000F1BD642000F043FF6078401C6070C0B25F
:106760000F28EBDB01F0E1F80021F52001F0EEF855
:10677000032000F034FF0021F52001F0E7F80320AA
:1067800000F02DFFDFF8884740F2277500222946E8
:10679000204601F0BBFBDFF87C6700220221304677
:1067A00001F076FF01F0C6F8DFF85C77002078642E
:1067B0000021DFF86407017001F0ECFF4FF49660F0
:1067C00000F00DFF002002F0F2F8012002F0E5F8E1
:1067D000002002F0DDF801F025F8002001F00CF8AF
:1067E0004FF47A7000F0FBFE01F057F880B90120F9
:1067F00001F04EF80120B87500222946204601F02C
:1068000085FB3046BDE8F8400022022101F040BF80
:10681000BDE8F240002001F03BB8F1BDDFF8E8161A
:106820008A7CFF2101F0E0B8002818BF022806D1B9
:10683000DFF8D4160A7F60F301020A777047DFF8A9
:10684000C816087F40F0030008777047DFF8B816D5
:10685000042804DA0A7F60F385020A777047087F0C
:1068600040F03C0008777047DFF89C06818FB1F557
:106870007B4FA8BF4FF6FF71C183704710B568B951
:1068800002F06EF94FF6FF2190FBF1F14FF6FF2277
:1068900002FB1100DFF87016888710BD01280DD1AA
:1068A00002F05EF96FF0A061B0FBF1F16FF0A06251
:1068B00002FB1100DFF85016886310BD022817D1C3
:1068C00002F04EF94FF6FF21DFF83C4690FBF1F164
:1068D0004FF6FF2202FB1100A08702F041F96FF092
:1068E000A061B0FBF1F16FF0A06202FB1100A063A8
:1068F00010BD10B584B00020FFF796FF0320FFF70E
:10690000A5FF0220FFF7BAFFFFF7AEFFDFF8F8455B
:10691000A06B10F1A06F28BF4FF0FF30206248F24B
:10692000870148F2850002F02EFA042300AA042110
:1069300004F1200002F02CFA009820620A2000F0F6
:106940004EFE04F11C000CC802A918200CC18DF8E1
:106950000400FF208DF80500E7208DF806002820B0
:106960008DF8070001A807C802F0B8FB04B010BDFD
:1069700030B5DFF89445A56B85B00020FFF754FFD4
:106980000020FFF763FF0020FFF778FFFFF76CFFA1
:10699000A9B2280C02F0F7F9042300AA042104F19B
:1069A000200002F0F5F9009820620A2000F017FE9E
:1069B00004F11C000CC802A918200CC12CE030B551
:1069C000DFF84445A56B85B00020FFF72DFF0120BF
:1069D00008E030B5DFF83045A56B85B00020FFF743
:1069E00023FF0220FFF732FF0020FFF747FFFFF7EA
:1069F0003BFFA9B2280C02F0C6F9042300AA042127
:106A000004F1200002F0C4F90098206202A904F108
:106A10001C000CC80CC118208DF80400FF208DF854
:106A20000500E7208DF8060028208DF8070001A852
:106A300007C802F053FB05B030BD20B5DFF8C854DD
:106A4000A86B81B284B0000C02F09DF9082300AA63
:106A50000821284602F0C7F900A806C806C5083D67
:106A6000287F297800F0030201F003039A4202BF55
:106A7000C0F38300C1F38301884202BFE88B6988B9
:106A8000884203D12979080904B020BDFF2004B051
:106A900020BD1CB5DFF87044A06B81B2000C02F081
:106AA00072F9082300AA0821204602F09CF900A8E8
:106AB00006C806C4083C207F217800F0030201F0DC
:106AC00003039A4202BFC1F38301C0F383008842EB
:106AD00002BFE08B628890423BD1207900F00F0327
:106AE000012B2FD10009012833D00FD3032830D038
:106AF00002D3042805D009E0607900F00F020321D9
:106B00002BE0607900F00F02052126E0012914D165
:106B1000607900F00F02012A1FD0022A08BF02216B
:106B20001BD0032A08BF072117D0042A08BF082159
:106B300013D0052A10D109210FE0A07C48B1401ED6
:106B4000A07406E0022B607900F00F0204D1062148
:106B500003E0607900F00F020421FF2000F044FF01
:106B600013BD38B5DFF8A043E17B002001291EBF2B
:106B7000A16CB1F5803FB1F5801F51D0012905D13D
:106B800041F20100A064FFF7B4FE49E0102905D1ED
:106B900041F21000A064FFF7EBFE41E0CA053FD5CB
:106BA00021F48071A164C90748BF0320FFF745FFA6
:106BB000D0B9A06CC10702D5002020722EE0C0061B
:106BC0002ED500202072FF210120E073607900F0B3
:106BD0000F024FF48030A064A274A520207400F04E
:106BE00003FF012060721BE0207A401C2072C0B2BB
:106BF00014280CDB0120E0734FF48010A064FE2009
:106C0000A27C2074FF21BDE8384000F0EDBEA06CEE
:106C1000C10748BF012002D4C00601D51020A064DE
:106C2000BE4DA878012818BF02280FD1012802D133
:106C3000FFF7C5FE03E0022808BFFFF7CAFE0120E8
:106C400060740020A064FF20A87031BD607C012822
:106C500004BFA06CB0F5807F04D100206074BDE853
:106C6000314016E731BD10B5A74CA07A18B9FF2006
:106C7000A07202F063FBE07A012803D1FF20E072EA
:106C800002F084FB207B012805D1FF20207302F055
:106C9000F4FB00206072607B012804BFBDE8104057
:106CA000FFF700BD10BD10B501F074FD964CA07E3D
:106CB000012808BFFFF755FF607A012808BFFFF7DA
:106CC000D2FF607E1E2803DA401C6076012003E0BC
:106CD00004BF401C6076002001F05FFE90480088F1
:106CE000B0F57A7F14DD8F480078012810D102F0CA
:106CF00097F801220221874801F0CAFC8A48002146
:106D00000170607D401C6075C0B20A28A8BF617523
:106D1000B4F84000C82803DA401CA4F8400005E09D
:106D200004BF401CA4F84000FFF7FEFC207E80B1A9
:106D30007E4801780A29BCBF491C017000780A28E6
:106D400007DB7B4801787B48007802F079FD002062
:106D50002076E07D01280CD0E07E012805D1764820
:106D6000007801F0C5FE0020E076BDE8104002F09A
:106D700049BB10BD80B56D4800780A28B8BFFFF741
:106D80009FFC6F480078012817D16B480078FF28D6
:106D900013D06C480178491CC9B2062908BF0021EC
:106DA00001700321007890FBF1F101EB4101401AE1
:106DB00006D1BDE8014001F097BE62480021017094
:106DC00001BD614A1278002A08BFFDF787BF03F0B2
:106DD000E7B800001C9700205B490978002908BF2C
:106DE000FDF7A2BE03F0CAB8F096002010B5464CDD
:106DF000A07D01281CBF002000F04AFD012000F00A
:106E0000FBFC00F0FDFC03F061F903F071FE00F003
:106E10002CFD03F001F900F04BFD002000F0FEF91D
:106E200000F09AFE01F08DFD002001F0ABFD012085
:106E300001F0AEFD012001F0B0FD01F065FE434917
:106E4000022000F020FC042000F0E0FB01F0E8FF4D
:106E5000002000F0A4F9A07602F0DDFC00206064C0
:106E6000012202212B4801F013FCBDE8104003F081
:106E7000D7BE000038B5FFF702FB304C224D03F0BF
:106E8000CEFD03F0D9FD03F00FFEFFF7AFFF288D15
:106E9000012815D100202885E87C01280CD1287D07
:106EA000411C2975042807DB0020287504F0C8F868
:106EB0000021202000F04AFD02F061F902F02EF9D5
:106EC000688D012804BF00206885A88D012809D19C
:106ED0000020A885FFF7E7FEA87D01281CBFE87DFC
:106EE0000128CCD0A88E012806D10020A8862078C1
:106EF000012818BF02F0FBF9E88E0128C7D1002055
:106F0000E886FFF737FFC2E73C960020D9960020BD
:106F10000044004000640040E89500205C9400209C
:106F2000028F002054970020559700205297002090
:106F3000FA8E0020F98E0020D4690020FB8E0020FC
:106F4000D56900205197002034970020C496002076
:106F5000F0B506460FF2BC000FF2BC0283B0354616
:106F600050F8250052F825200C460121104304F06A
:106F7000F9FB1EB90121102004F037FC0FF2AC0020
:106F8000DFF88C6030F815200FF2980030F81510FB
:106F900006EB8507D2B27868FFF7AEF90FF29000E2
:106FA00030F815200FF2800030F81510B868D2B212
:106FB000FFF7A2F900208DF8060000A901208DF846
:106FC000070002208DF804000FF2500030F8150081
:106FD000009002208DF805007868FEF753FF02202C
:106FE0008DF8040000A90FF2380030F81500009069
:106FF000B868FEF747FF56F82500214600F0EAFD85
:1070000056F82500012100F0ACFE03B0F0BD0000F1
:10701000C46900200100000001000000000200001F
:1070200000040000090000000A0000000700000042
:10703000070050F8041B61B150F8042BD30744BF7C
:10704000A9F101039A18002342F8043B091FFAD161
:10705000EFE7704700B50100DFF82C0283B001694B
:107060004FF400724FF6FF5308D01940416100926F
:1070700001218DF804108DF8051005E019404161DB
:10708000009200218DF8041000A9FEF7FBFE03B06A
:1070900000BD70B504460825DFF8EC61E4B2E009F4
:1070A0004FF40071304602D0FFF74AF801E0FFF7D5
:1070B00073F84FF480713046FFF742F864004FF4E4
:1070C00080713046FFF768F86D1EE7D14FF400710C
:1070D0003046FFF761F84FF480713046FFF730F823
:1070E0003046BDE870404FF48071FFF755B870B579
:1070F000DFF894514FF480712846FFF74DF84FF4B4
:1071000000712846FFF71CF80020FFF7A3FF0826B0
:107110004FF480712846FFF713F84FF400712846AA
:10712000FEF751FF40EA4404E4B24FF48071284670
:10713000FFF732F8761EEBD14FF400712846FFF7C7
:107140002BF80120FFF786FF204670BD70B504467E
:107150000D464D4E4FF400713046FEF7F1FF012011
:10716000FFF778FF4FF400713046FEF7E9FF4FF468
:1071700080713046FEF7E4FF4FF400713046FFF7B0
:107180000BF84FF480713046FFF706F8A020FFF7A8
:1071900080FF2004000EFFF77CFFE0B29EE038B5D0
:1071A0000446394D4FF400712846FEF7C9FF01200F
:1071B000FFF750FF4FF400712846FEF7C1FF4FF470
:1071C00080712846FEF7BCFF4FF400712846FEF799
:1071D000E3FF4FF480712846FEF7DEFFA020FFF7A3
:1071E00058FF2004000EFFF754FFE0B2FFF751FFF5
:1071F0004FF400712846FEF7A3FF4FF48071284634
:10720000FEF79EFF4FF400712846FEF7C5FF4FF4CE
:1072100080712846FEF7C0FFA120B2E038B50446D1
:10722000194D4FF400712846FEF78AFF0120FFF741
:1072300011FF4FF400712846FEF782FF4FF4807172
:107240002846FEF77DFF4FF400712846FEF7A4FFA5
:107250004FF480712846FEF79FFFD020FFF719FFFB
:107260000A20FFF716FF2046FFF713FF4FF40071C7
:107270002846FEF791FF4FF480712846FEF760FF25
:107280002846BDE834403BE00004024070B50446A7
:107290000D46014E02E000BF000402404FF40071B1
:1072A0003046FEF74DFF0120FFF7D4FE4FF400718A
:1072B0003046FEF745FF4FF480713046FEF740FF41
:1072C0004FF400713046FEF767FF4FF4807130468F
:1072D000FEF762FFD020FFF7DCFE2046FFF7D9FE65
:1072E0002846FFF7D6FE4FF400713046FEF754FFF4
:1072F0004FF480713046FEF723FF3046BDE8704002
:107300004FF40071FEF71CBF38B50446004D01E094
:10731000000402404FF400712846FEF711FF0120DF
:10732000FFF798FE4FF400712846FEF709FF4FF46F
:1073300080712846FEF704FF4FF400712846FEF7DF
:107340002BFF4FF480712846FEF726FFD020FFF771
:10735000A0FE2046FFF79DFE4FF400712846FEF781
:10736000EFFE4FF480712846FEF7EAFE4FF40071FD
:107370002846FEF711FF4FF480712846FEF70CFFF8
:10738000D120FFF786FEFFF7B2FE04464FF40071EE
:107390002846FEF7D5FE4FF480712846FEF7D0FE52
:1073A0004FF480712846FEF7F7FE4FF4007128462F
:1073B000FEF7F2FE4FF480712846FEF7C1FE4FF44F
:1073C00000712846FEF7BCFE204632BD64280CDA68
:1073D0000A2190FBF1F10A0150FA82F001EB8102DF
:1073E000A0EB4201C9B2082050E7704701460D29C1
:1073F0000DDA60B10A2091FBF0F0020151FA82F13E
:1074000000EB8002A1EB4201C9B207203EE77047C2
:10741000014620290DDA60B10A2091FBF0F002014B
:1074200051FA82F100EB8002A1EB4201C9B20620C1
:107430002CE7704718280CDA0A2190FBF1F10A01B9
:1074400050FA82F001EB8102A0EB4201C9B20420A4
:107450001CE770473C280CDA0A2190FBF1F10A0185
:1074600050FA82F001EB8102A0EB4201C9B2032085
:107470000CE770473C280CDA0A2190FBF1F10A0175
:1074800050FA82F001EB8102A0EB4201C9B2022066
:10749000FCE6704703B581B002210020FFF7F6FE3D
:1074A0009DF80400FFF792FF9DF80500FFF79EFF8F
:1074B0009DF80600FFF7ACFF9DF80710082903DAD6
:1074C00011B10520FFF7E2FE9DF80800FFF7B2FFBB
:1074D0009DF80900FFF7BEFF9DF80A00FFF7CAFFFD
:1074E00000210020FFF7D2FE03B05DF804EB00217D
:1074F0000120CBE610B5044601210020FFF7C6FEAF
:107500000820FFF701FF010901EB810200F00F00E5
:1075100000EB420020700720FFF7F6FEC0F30011D9
:1075200001EB810200F00F0000EB420060700620CA
:10753000FFF7EAFEC0F3011101EB810200F00F003A
:1075400000EB4200A0700520FFF7DEFE00F0070010
:10755000E0700420FFF7D8FEC0F3011101EB8102B7
:1075600000F00F0000EB420020710320FFF7CCFE7B
:10757000C0F3021101EB810200F00F0000EB4200AA
:1075800060710220FFF7C0FEC0F3021101EB81021F
:1075900000F00F0000EB4200A0710021BDE8104098
:1075A000002073E60348016811B10168491E0160BB
:1075B000704700004097002082B0002107E000994A
:1075C000491C009100990529F9D30199491C0191A1
:1075D0000199814238BF0021F3D302B0704782B0D5
:1075E0000021019144F2682108E0009A521C0092A7
:1075F000009A8A42F9D3019A521C0192019A82425E
:1076000038BF0022F3D302B07047000030B585B018
:10761000044600200290ADF80C00ADF810000C20DC
:10762000ADF80E0001A90FF2B010644D50F824001F
:10763000019055F8240000F0CDFA55F824000121FE
:1076400000F08FFB55F82400012240F2255100F094
:107650005DFC55F82400002240F2277100F056FC32
:107660000FF2881030F814008DF8000000208DF81B
:1076700001008DF8020001208DF8030000A804F03D
:1076800085F905B030BD70B504464D4D94B00E4639
:10769000284604F013FA4FF000600590079605A9FC
:1076A00048480690402008901120099000200A9038
:1076B0004FF480600B900420109003201190002064
:1076C0000C900D9012900E904FF440300F900020CF
:1076D0001390284604F0CFFA00221021284604F027
:1076E00011FD00200290ADF80C00ADF810000C2048
:1076F000ADF80E0001A90FF2E000304D50F8240063
:10770000019055F8240000F065FA2F4801228021ED
:1077100000F0BAFB55F82400012240F2255100F098
:10772000F5FB0FF2C80030F814008DF800000020BF
:107730008DF801008DF8020001208DF8030000A8EB
:1077400004F024F955F82400012100F00AFB14B0DC
:1077500070BDF8B504460D46194F1646002138464F
:1077600004F0B3FB32462946204604F089FD7E60D2
:107770000121384604F0A9FB384604F001FC00283A
:10778000FAD13846BDE8F440104904F05DBC10B5AC
:1077900004460B220F4804F073FD0D480021C17010
:1077A00001220B21417040F22771044850F8240057
:1077B000BDE8104000F0AABB000000008C6900206A
:1077C000A06002400444004000440040000020202B
:1077D0002C9700200793002000000000000000000C
:1077E00000C2010000E1000000C201000000000032
:1077F000260000003400000002464FF4805131E0C2
:1078000010B5284C012204212046FEF7F1FC4FF46C
:107810007A70FFF7E4FE2046BDE810400022042104
:10782000FEF7E6BC38B5204C01224FF480412046DB
:10783000FEF7DEFC1B4D012204212846FEF7D8FC92
:107840004FF47A70FFF7CBFE002204212846FEF7A2
:10785000CFFC2046BDE83840FFE700224FF48041CE
:10786000FEF7C6BC1048FEF7C3BC10B50E4C002294
:107870004FF400412046FEF7BBFC6420FFF7AFFE4B
:107880002046BDE8104001224FF40041FEF7B0BC95
:10789000024602210548FEF7ABBC01210348FEF772
:1078A00092BB0000000C02400008024000040240AD
:1078B00010B584B042F210700290A820ADF8040018
:1078C0000020ADF80C00ADF8060001A91B4C2046C5
:1078D00004F012FD0121204604F0BEFD0122012129
:1078E000204604F017FF1E208DF8000000208DF8C0
:1078F00001008DF8020001208DF8030000A804F0BB
:1079000045F80F480021018041808180C18004B08A
:107910000C484170017010BD4FF400610A48FEF739
:107920000FBC07480121018070474FF400610648F1
:10793000FEF732BC02480021018070470008004079
:1079400024970020DE9500200018024030B583B057
:1079500004460D460B2100A804F0D0FF02208DF84C
:107960000000210A80208DF801008DF8055000A844
:10797000C1708470210C017103208DF80A0020462B
:1079800000F009F88C48007818B900A90420FFF726
:10799000FEFE03B030BD894901224A7000F01F008D
:1079A0000022002320FA03FC5FEACC7C17D513B930
:1079B00042F0010213E0012B08BF42F010020DD08B
:1079C000022B08BF42F0020208D0032B08BF42F08E
:1079D000040203D0042B02D142F00802D2B25B1C95
:1079E000052BDFDB8A70704700B583B002238DF86A
:1079F000003087238DF8013000AB9870D9700320D8
:107A00008DF80A001A716C48007818B900A9042092
:107A1000FFF7BDFE03B000BD2DE9F041674C2078B3
:107A200060B9A062002260680121FEF7E1FBA06856
:107A300001220221FEF7DCFB01221AE001280BD112
:107A4000606801220121FEF7D3FBA0680022022119
:107A5000FEF7CEFB01220CE002280ED16068012265
:107A60000121FEF7C5FBA06801220221FEF7C0FB41
:107A70000022E0680421FEF7BBFB00250FF2481648
:107A800004F110074FF0060836F8021B57F8040BF4
:107A9000FEF799FA401E8041C00F690051FA80F547
:107AA000B8F10108F0D1A06A28B925B12078C0004A
:107AB00005FA00F0A062606B32283CBF401C606396
:107AC000207802283FD1A06A78B93D4D286830B1AE
:107AD00000202063E06228600021FFF737FF0020CC
:107AE0002063E062286060702DE0E16A814227D166
:107AF000216B491C2163032909D1314D616B286039
:107B0000322904D30021FFF721FF00206063E06ADF
:107B1000216BB0F5003F02D1642914D102E0B1F528
:107B2000967F10D132392163A06A254D616B2860A0
:107B3000322908D30121FFF709FF0020606302E02A
:107B400000212163E0622078401CC0B20328A8BF56
:107B500000202070BDE8F08110B584B040F6C4105C
:107B60000290A820ADF804000020ADF80C00ADF89C
:107B7000060001A9134C204604F0BEFB012120465B
:107B800004F06AFC01220121204604F0C3FD3220EA
:107B90008DF8000000208DF801008DF80200012012
:107BA0008DF8030000A803F0F1FE054800210160F4
:107BB00004B010BD00000000404E002054690020B9
:107BC00048970020000C004000040008001000202E
:107BD00000400080F0B50446DFF89472DFF82463BB
:107BE00085B00D46BC421CBFDFF88802844213D02A
:107BF000DFF8840284421CBFDFF8800284420BD08D
:107C0000DFF87C0284421CBFDFF87802844203D094
:107C1000F1213046FEF747FC286818B1DFF8E8127A
:107C2000884203D3F2213046FEF73DFCA8880028A5
:107C300018BFB0F5805F03D0F3213046FEF733FC68
:107C4000E888002818BFB0F5805F09D0B0F5005F64
:107C500018BFB0F5405F03D0F4213046FEF723FC97
:107C6000288900281CBFB0F5806FB0F5C06F03D025
:107C7000F5213046FEF717FC68894FF6F37108428C
:107C800000D118B9F6213046FEF70DFCA889F8B1ED
:107C9000B0F5807F1CBFB0F5007FB0F5407F05D008
:107CA000F7213046FEF7FFFBA88988B1BC421CBF14
:107CB000DFF8C00184420BD0DFF8BC0184421CBF56
:107CC000DFF8C001844203D0FC213046FEF7EBFB15
:107CD000208A4CF6FF710840E988084320824EF65E
:107CE000F311A0890840A9880843298908436989B4
:107CF0000843A0814FF6FF41A08A0840A9890843A4
:107D0000A08200A803F0E7FCBC421BBFDFF87401AF
:107D1000844203980298296819225043A2891204C8
:107D20004CBF49008900B0FBF1F16420B1FBF0F0D9
:107D300000010209642303FB1211A289120406D573
:107D4000C9003231B1FBF3F101F0070105E009018F
:107D50003231B1FBF3F101F00F010843208105B08E
:107D6000F0BD38B50446DFF808010D4684421CBF5B
:107D7000DFF80001844215D0DFF8FC0084421CBF0C
:107D8000DFF8F80084420DD0DFF8F40084421CBF15
:107D9000DFF8F000844205D040F2A1110FF260300C
:107DA000FEF781FB5DB1012D05D00FF254304FF489
:107DB000D171FEF778FBA08940F4005003E0A08960
:107DC0004DF6FF710840A08131BD38B50446DFF89B
:107DD000A0000D4684421CBFDFF89800844215D0F5
:107DE000DFF8940084421CBFDFF8900084420DD07D
:107DF000DFF88C0084421CBFDFF88800844205D085
:107E000040F223210FF2F820FEF74DFBB5F5007F7D
:107E100005DB0FF2EC204FF40971FEF744FBE80597
:107E2000C00DA08031BD10B50446DFF84400844287
:107E30001CBFDFF84000844215D0DFF83C008442CC
:107E40001CBFDFF8380084420DD0DFF834008442D4
:107E50001CBFDFF83000844205D040F233210FF21E
:107E6000A020FEF720FBA088C005C00D10BD0000BB
:107E7000001001400044004000480040004C004019
:107E8000005000400014014070B50446DFF858026D
:107E90000D46164684421CBFDFF85002844215D0BE
:107EA000DFF84C0284421CBFDFF8480284420DD048
:107EB000DFF8440284421CBFDFF84002844205D050
:107EC00040F241410FF23820FEF7EDFA4FF63F70D5
:107ED000054200D12DB940F242410FF22420FEF7B5
:107EE000E2FA56B1012E05D00FF2142040F24341C0
:107EF000FEF7D9FAA08A284301E0A08AA843A0820D
:107F000070BD000000810008E1707200F8B5054600
:107F1000DFF8D4710E461446BD421CBFDFF8CC0119
:107F2000854215D0DFF8C80185421CBFDFF8C401C7
:107F300085420DD0DFF8C00185421CBFDFF8BC01CF
:107F4000854205D040F2C3410FF2B410FEF7ABFA00
:107F5000282E1CBF40F2277086421BD040F22660BC
:107F600086421CBF40F22550864213D040F2244086
:107F700086421CBF40F6460086420BD040F66A108F
:107F8000864218BF602E05D040F2C4410FF2701037
:107F9000FEF789FA002C18BF012C05D00FF26010F3
:107FA00040F2C541FEF77FFA40F66A10864210D1D2
:107FB000BD421CBF4D4885420BD04D4885421CBF79
:107FC0004E48854205D040F2CA410FF23410FEF708
:107FD0006AFA3006012106F01F02400F9140012885
:107FE00008BF05F10C0005D002280CBF05F11000F8
:107FF00005F114000268002C14BF114322EA0101AC
:108000000160F1BDF8B504460026374F0D46BC426D
:108010001CBF3648844211D0354884421CBF3548C5
:1080200084420BD0344884421CBF3448844205D07B
:1080300040F256510FF2C800FEF735FA282D1CBF4A
:1080400040F227718D4234D040F226618D421CBF30
:1080500040F225518D422CD040F224418D421CBF6C
:1080600040F646018D4224D040F66A118D420FD071
:10807000B5F5587F1CBF40F225318D4219D0B5F5BA
:10808000187F18BFB5F5B07F13D040F257510CE000
:10809000BC421CBF154884420BD0154884421CBF0B
:1080A0001648844205D040F25C510FF25400FEF7AE
:1080B000FAF92806400F012105F01F0201FA02F229
:1080C000012808BFA08903D002280CBF208AA08AFB
:1080D00010402A0A91402288114000281CBF002924
:1080E00001263046F2BD000000100140004400406F
:1080F00000480040004C0040005000400014014087
:10810000433A5C546F6F6C735C574C39465C574C08
:108110005F465F4D6F6E69746F725F4150505C4C8B
:1081200069627261726965735C53544D33324634CF
:1081300078785F5374645065726970685F447269DF
:108140007665725C7372635C73746D333266347817
:10815000785F75736172742E6300000080B5DFF87C
:10816000C415884214D0DFF8C015884204D0AB2172
:10817000DFF8B805FEF797F901214FF0806003F0B2
:1081800078FB00214FF08060BDE8044003F071BB34
:1081900001214FF0007003F06CFB00214FF00070E4
:1081A000F2E7F8B504460026DFF87805DFF87C75BD
:1081B0000D4684421CBFDFF87005844203D0CB21FA
:1081C0003846FEF770F9A879002818BF012803D0B7
:1081D000CC213846FEF767F9E879002818BF012856
:1081E00003D0CD213846FEF75EF9287A002818BF63
:1081F000012803D0CE213846FEF755F9687A0028C9
:1082000018BF012803D0CF213846FEF74CF9A87AD1
:10821000002818BF012803D0D0213846FEF743F9C3
:10822000E87A002818BF012803D0D1213846FEF78C
:108230003AF9A878002818BF012807D0022818BFEB
:10824000032803D0D2213846FEF72DF9E87800281C
:1082500018BF012807D0022818BF032803D0D32154
:108260003846FEF720F92879102803DBD421384658
:10827000FEF719F96879082803DBD5213846FEF79F
:1082800012F9288810B1B0F5806F03DDD621384689
:10829000FEF709F9206820F002002060206840F015
:1082A000010020604FF6FF70014600E0491E626841
:1082B000D20701D40029F9D16168C90754D5A97939
:1082C000012921680CBF41F0800121F0800121606B
:1082D000E979012921680CBF41F0400121F04001FA
:1082E0002160297A012921680CBF41F0200121F089
:1082F00020012160697A012921680CBF41F0100139
:1083000021F010012160A97A012921680CBF41F0F8
:10831000080121F008012160E97A012921680CBFD8
:1083200041F0040121F004012160EA78A9781206E5
:1083300042EA81712A7941EA02416A7941EA0251AD
:108340002A88521E1143E1612168490849002160D1
:1083500000E0401E6168C90701D50028F9D16068B6
:1083600000F0010080F001063046F2BD70B5044611
:10837000A07A1C2805DB40F253110FF2C030FEF743
:1083800092F8E07A002818BF012805D04FF4AA71AE
:108390000FF2A830FEF787F8207B002818BF0128CD
:1083A00005D040F255110FF29430FEF77CF8208989
:1083B000002818BF012805D04FF4AB710FF27C30B4
:1083C000FEF771F8607B002818BF012805D040F245
:1083D00057110FF26830FEF766F8A17A0120884045
:1083E000DFF84C130A6842F001020A60C243CB690D
:1083F0001340CB61237B9BB9CB681340CB60E588EE
:108400006688DFF8303346EA0545A67A43F83650E9
:10841000A57A268803EBC503A58846EA05455D6075
:10842000237B012B13D1CB680343CB60258866885F
:10843000DFF8003346EA0545A67A43F83650A57AB8
:10844000E68803EBC503A58846EA05455D60E37A47
:10845000002B4B680CBF134003434B60238913B9B7
:108460004B691A4003E0012B02D14A6902434A6179
:10847000627B012A02D1CA691043C86108684008BA
:108480004000086070BD00218171C17101724172AC
:108490008172C1728170C170032101710221417129
:1084A00001210180704770B50546DFF878020C465F
:1084B00085421CBFDFF88002854205D040F246218C
:1084C0000FF27820FDF7EFFF207A002818BF04286C
:1084D00005D040F247210FF26420FDF7E4FF607AF7
:1084E000002818BF022805D04FF412710FF24C205B
:1084F000FDF7D9FFA07A092805DB40F249210FF2E8
:108500003C20FDF7D0FFA86840011BD5002605EBF5
:108510000615D5F8800100F00100C5F88001207A29
:10852000E0B92068B0F5006F05D340F263210FF287
:108530000C20FDF7B8FFD5F880012168627A42EA85
:1085400041511DE0A868000148BF0126DFD4A8689A
:10855000C00048BF0226DAD404263EE06068B0F1CD
:10856000005F05D340F269210FF2D010FDF79BFFA9
:10857000D5F880016168227A42EAC101627A11432A
:108580000843C5F88001A07A00F00F00A07205F53D
:10859000C07041680909090141604168A27A11432C
:1085A0004160627BA17B120442EA0161227B41EAC5
:1085B0000221E27A11438160627CA17C120442EACA
:1085C0000161227C41EA0221E27B1143C160D5F8BE
:1085D000800140F00100C5F88001304670BDF8B55B
:1085E0000446DFF840010D46164684421CBFDFF802
:1085F0004801844205D040F2F2210FF24010FDF70D
:1086000052FF2F0018BF012D05D00FF2301040F29D
:10861000F321FDF748FF04EB0510D0F8B0113172DB
:10862000317A4907D0F8B01159BF490D3160C908F6
:108630007160D0F8B01101F00201717200F5D870CC
:10864000416801F00F01B1724168090AF174816853
:10865000F1728168090A31738168090C717381684C
:10866000090EB173C168F173C168090A3174C16838
:10867000090C7174C068000EB07425B9E06840F050
:108680002000E060F1BD206940F020002061F1BDD4
:1086900070B5044623480D46164684421CBFDFF8D9
:1086A0009800844205D04FF4A2610FF29000FDF7CC
:1086B000FAFE012D18BF022D24D0042D18BF082D5D
:1086C00020D0102D18BF202D1CD0402D18BFB5F57F
:1086D000807F17D0B5F5007F18BFB5F5806F11D03A
:1086E000B5F5006F18BFB5F5004F0BD0B5F5803F5D
:1086F00018BFB5F5003F05D00FF2400040F2115110
:10870000FDF7D1FE56B1012E05D040F212510FF205
:108710002C00FDF7C8FE6069284301E06069A843AA
:10872000606170BD00640040006800403C87000844
:10873000006600404066004000680040433A5C54D8
:108740006F6F6C735C574C39465C574C5F465F4D9E
:108750006F6E69746F725F4150505C4C69627261F8
:10876000726965735C53544D3332463478785F5385
:1087700074645065726970685F4472697665725C92
:108780007372635C73746D3332663478785F6361DF
:108790006E2E6300F8B57748774D007A4FF4800469
:1087A00018B1286840F4E0002860744928680A6815
:1087B000904238D008601726714F2868204214BFB5
:1087C000012200224FF400413846FDF711FD01223D
:1087D0004FF480413846FDF70BFD0120FEF7FFFE08
:1087E00000224FF480413846FDF702FD6408761EF2
:1087F000E3D101224FF400513846FDF7F9FC012086
:10880000FEF7EDFE00224FF400513846FDF7F0FC74
:108810000120FEF7E4FE3846BDE8F84001224FF49F
:108820000051FDF7E5BCF1BD52480021C16001785F
:1088300001F003035A1E9241D243D20FC260C1F32A
:10884000810202B10222C368D218C260C1F30113CF
:1088500003B104239A18C260890918BF0821891836
:108860004278C16003231A4214BF10230023591811
:10887000C160C2F3810303B120235918C160C2F360
:10888000011303B140235918C160920918BF802217
:1088900051188278C16003231A4214BF4FF48073C9
:1088A00000235918C160C2F381030BB14FF4007368
:1088B0005918C160C2F301130BB14FF4806359180A
:1088C000C160920918BF4FF400625118C278C160AC
:1088D00003231A4214BF4FF4805300235918C16078
:1088E000C2F381030BB14FF400535918C160C2F3B6
:1088F00001130BB14FF480435918C160920918BF9E
:108900004FF4004251180279C16003231A4214BF88
:108910004FF4803300235918C160C2F381030BB1B7
:108920004FF400335918C160C2F301130BB14FF477
:1089300080235918104BC16092094263196002727A
:10894000704710B50E4C01224FF480512046FDF7C0
:108950004FFC0A20FEF743FE00224FF480512046D0
:10896000FDF746FC04486FF07F410160BDE8104010
:1089700010E70000E0950020809600204C97002032
:108980000004024002464FF400416948FDF730BC44
:10899000024610216748FDF72BBC10B5044622465D
:1089A00080216448FDF724FC6348047010BD0FF279
:1089B0009C12614932F8102048704A80104610B568
:1089C00086B07021ADF8001002900121ADF80210C0
:1089D0000421ADF804100221ADF80C100021ADF80F
:1089E0000E104FF48071ADF810100021ADF8121088
:1089F00000A9524C204603F085FD0121204603F0DA
:108A00002BFD0121204603F061FE06B010BD30B5FC
:108A100089B01020ADF81400FA210020ADF816003E
:108A2000464C47480068B0FBF1F0401E80B206900B
:108A300005A90020ADF81C008DF81E00204603F0AB
:108A40005BFC7020ADF8000041F27F350120ADF8ED
:108A5000020002950420ADF8040000A90220ADF840
:108A60000C000020ADF80E004FF48070ADF810003F
:108A70000020ADF81200204603F044FD01212046FD
:108A800003F0EAFC0121204603F020FE4FF47A7047
:108A9000FEF7A5FD284806214170458009B030BD8C
:108AA00038B5284C234D01280DD100224FF4007118
:108AB0002846FDF79DFB0A20FEF791FD01224FF4A9
:108AC000807120460CE000224FF480712046FDF7B3
:108AD0008FFB0A20FEF783FD01224FF40071284628
:108AE000BDE83840FDF784BB17480078FEF774B93D
:108AF00080B5FF2808BF002003D00121FEF761F9EF
:108B00000120BDE80240CBE780B540F6B830FEF763
:108B100066FD0020FFF7C4FFFFF779FF00228021E8
:108B20000448FDF765FB04480021017001BD000009
:108B30000018024000080240449700200004014051
:108B4000B069002000000240D4690020FE403E379A
:108B50007E2DFE267F20FF197F13FF0C00000000F2
:108B6000F8B5344F384603F0CCFE0446381D03F008
:108B7000C8FE054607F1080003F0C3FE064607F1EC
:108B80000C0003F0BEFE23782B492C4A002B40D169
:108B90002B6802FB03132B60082702FB03132B60D7
:108BA00002FB03132B6002FB03132B6002FB031376
:108BB0002B6002FB03132B6002FB03132B6002FBF1
:108BC00003132B600346D5F800C002FB0C1CC5F84C
:108BD00000C043F804CB7F1ED5F800C002FB0C1C7C
:108BE000C5F800C043F804CBD5F800C002FB0C1C4C
:108BF000C5F800C043F804CBD5F800C002FB0C1C3C
:108C0000C5F800C043F804CBDDD1C36F3360012346
:108C100023702B6802FB03112960317801F01F01DA
:108C200050F8212032602A6840F821203068800006
:108C30008008F2BD786800205FF36E3C0D66190075
:108C400030B4014600200023724A01F001049D5611
:108C5000AC402043C9035B1C090C01F001049D5684
:108C6000AC40204349085B1C01F001049D56AC4018
:108C7000204349085B1C01F001049D56AC40204391
:108C800049085B1C102BE0DB30BC704710B582B08C
:108C90000C46FFF7D5FF604000905F48BDF800101C
:108CA00001F00F0130F82110ADF800109DF802100E
:108CB00001F00F0100EB81004088ADF80200BDF823
:108CC0000010484016BD81B00090C1F11000BDF801
:108CD000002002FA01F302411A43ADF80020BDF86A
:108CE000022042FA01F102FA00F00843ADF8020056
:108CF000009801B070472DE9F84304460D469146AF
:108D0000CDB16D1E2788B4F8028000263146484652
:108D1000FFF7D9FF01464046FFF7B8FF784080B221
:108D200047468046761C082EF0DB24F8027B24F8A8
:108D3000028B002DE5D10020BDE8F2832DE9F0473C
:108D400080460E469246DEB1761EB8F80050B8F85E
:108D5000029008277F1E39465046FFF7B4FF2C4685
:108D60000146A0B2FFF792FF80EA090085B2A14652
:108D7000012FEFDA28F8025B28F8029B002EE3D1DE
:108D80000020BDE8F08741EA0040244908607047B0
:108D90002DE9F0410F4614463D46AE1017F003088A
:108DA00018BF761C3A460146204603F069FAB8F12E
:108DB000000F04D0381D07F00301471A3FB200200E
:108DC000791B012906DB421900231355401C00B210
:108DD0008842F8DB1148026831462046FFF78BFFD6
:108DE00078B2BDE8F08138B50C46154603210C4237
:108DF00002D04FF0FF3032BD22460146284603F034
:108E00003FFA06480268A1102846FFF797FF60B2B4
:108E100032BD00009CD40008C0D30008D0690020F7
:108E200030B5DFF804478BB02046FFF797F9DFF83D
:108E3000FC562846FFF792F901A8FFF724FB002013
:108E40008DF80A0001A901208DF80B000020039085
:108E5000ADF806000D208DF8080005208DF80900FA
:108E60000420ADF804002046FFF79BF90020ADF880
:108E700016000690ADF8120004A90D208DF814001C
:108E800005208DF815000820ADF810002846FFF7E2
:108E900088F90020ADF8260001208DF82800002078
:108EA00007900890ADF8240001208DF8290007A84C
:108EB000FFF75CFA14208DF8000000208DF8010007
:108EC0008DF8020001208DF8030000A802F05EFD7D
:108ED0000BB030BD38B5DFF8584600202074E06193
:108EE0000021062020706182002060702175FF2023
:108EF000A07008222820207100206074DFF834065A
:108F00000180DFF83406017004F12000A061FF2128
:108F100004F1280003F0F6FC0822FF2104F13000E0
:108F200003F0F0FC0822FF2104F1380003F0EAFC12
:108F30000822FF2104F1400003F0E4FC0822FF2195
:108F400004F1480003F0DEFC0822FF2104F1500088
:108F500003F0D8FC0822FF2104F1700003F0D2FCDA
:108F60000822FF2104F1080003F0CCFC002020734C
:108F70000822FF2104F1880003F0C4FC0822FF212D
:108F800004F1900003F0BEFC0822FF2104F19800D8
:108F900003F0B8FC0822FF2104F1A00003F0B2FCAA
:108FA0000822FF2104F1A80003F0ACFC0822FF21F5
:108FB00004F1B00003F0A6FC0822FF2104F1B80080
:108FC00003F0A0FC04F5A8750822FF21284603F051
:108FD00099FC1022FF2104F1780003F093FC152284
:108FE000FF2104F1580003F08DFC0822FF2104F159
:108FF000C00003F087FC1522FF2104F1C80003F034
:1090000081FC0822FF2104F1D00003F07BFC0D223B
:10901000FF2104F1D80003F075FC0822FF2104F1C0
:10902000E80003F06FFC0822FF2104F1F00003F0D8
:1090300069FC0822FF2104F1F80003F063FC082218
:10904000FF2104F5807003F05DFC0822FF2104F588
:10905000847003F057FC0822FF2104F5887003F0A8
:1090600051FC0822FF2104F58C7003F04BFC082210
:10907000FF2104F5907003F045FC0822FF2104F560
:10908000947003F03FFCFF22082104F5987003F070
:1090900043FCFF220821DFF8A40403F03DFCFF227B
:1090A000162104F59C7003F037FCFF2208212846A6
:1090B00003F032FCFF220821DFF8840403F04AFCAD
:1090C000DFF88044A5220221204603F043FCA01CC7
:1090D000BDE83840F022022103F03CBC17B59DF8F2
:1090E0000200DFF864442F2811D0207800EB400301
:1090F00004EB83000C2200A9801C03F0C1F8207847
:10910000401C2070C0B2FF2806D1002013E101A846
:109110000CC804F6F8310CC103B010BDDFF82C0404
:109120000188491C0180052289B291FBF2F202EB11
:109130008202891A00D0704710B50180DFF8104410
:1091400060782178814219D000EB00100019811C51
:109150001122DFF80004FEF7FCFADFF8FC03D0E987
:109160000023521C43F10003C0E900236078401C37
:109170006070C0B2FF2804BF0020607010BD30B521
:10918000DFF8D843B4F86800401CA4F8680085B044
:10919000C00740D4DFF8B0536878297881423AD0CC
:1091A00000EB400105EB8100C2788178120402EBEC
:1091B0000161027901EB02214279891801910822AB
:1091C00004218DF8081000218DF8091008218DF870
:1091D0000A1000A98379CB72401C491C521EF9D198
:1091E00000A9D148FFF75FF92070042809D06878FA
:1091F000401C6870C0B2FF280DD10020687005B017
:1092000030BD61780A191071481C6070C0B26528C1
:10921000A4BF0020607005B030BD0FB410B5CC4CB9
:10922000207800EB0010001902218170F5212078D0
:1092300000EB001000190822C1700821207800EB13
:109240000010001901710021207800EB00100019B6
:1092500041740321207800EB0010001981742078FC
:10926000039900EB00100019C0F805100DF113016F
:10927000207800EB00100019093003F001F8B8491C
:1092800020780978012928D100EB00110919B54A85
:10929000D1F80510914210D100EB00121219537A47
:1092A000162B03D1B04A0123137006E0182B04D10A
:1092B000927AAE4B02F001021A70AD4A91420CD183
:1092C00000EB00110919497A112908BFA94902D0F8
:1092D000132902D1A84901220A70401C2070C0B293
:1092E000FF2804BF0020207010BC5DF814FB10B5EF
:1092F00083B018208DF80000FF208DF801002F208A
:109300008DF8020028208DF8030001A98E4C04F688
:10931000F8300CC80CC1207800EB400304EB83004C
:109320000C2200A9801C02F0ABFF2078401CC0B2C8
:10933000FF2808BF0020207003B010BD10B583B017
:1093400018208DF80000FF22EF208DF80100082181
:1093500047208DF8020028208DF8030001A803F0B3
:10936000DBFA15208DF804000C22774C207800EBF6
:10937000400304EB830000A9801C02F081FF2078E9
:10938000401CC0B2FF2808BF0020D4E710B585B04C
:109390001C208DF808000D21EC208DF80900082212
:1093A00047208DF80A0028208DF80B0010208DF83A
:1093B000000000A84170002181700221C170FF21CE
:1093C000017100208DF8050000A9EF208DF806003E
:1093D00000208DF8070003A802F052FF5A4C2078B5
:1093E00000EB400304EB83000C2202A9801C02F076
:1093F00047FF2078401CC0B2FF2808BF0020207023
:1094000005B010BD10B585B018208DF8080000A972
:10941000EF208DF8090047208DF80A0028208DF8EC
:109420000B0001208DF80000FF204870C870087103
:109430008DF805008DF806008DF807004F4A50485A
:10944000127800788A70B0B1082203A802F018FFE1
:109450003D4C207800EB400304EB83000C2202A972
:10946000801C02F00DFF2078401C2070C0B2FF2845
:1094700004BF0020207005B010BD70B585B01C2061
:109480008DF8080000ACEB208DF80900FF2647207E
:109490008DF80A00E67028208DF80B002671012057
:1094A0008DF80000667117206070A671F820A0701A
:1094B000E671082200A903A802F0E2FE224D2878F6
:1094C00000EB400305EB83000C2202A9801C02F094
:1094D000D7FE2878401CC0B2FF2808BF00202870A3
:1094E000667002208DF80000A670E6702671667125
:1094F000A671E671082200A903A802F0C1FE28782F
:1095000000EB400305EB83000C2202A9801C02F053
:10951000B7FE2878401CC0B2FF2808BF0020287082
:1095200005B070BD0000000000640040006800400D
:109530001C940020EE96002053970020C486002043
:109540001097002000970020CC7A0020C2960020BF
:10955000D8690020C4960020389700207495002018
:10956000459600204728EF18479600204A9600208D
:109570004728EC1C48960020499600205669002098
:109580005569002038B5044600F0EEF8DFF8EC54D9
:10959000002210212846FCF72BFED82000F0BAF854
:1095A0002002000E00F0B6F82004000E00F0B2F821
:1095B000E0B200F0AFF8012210212846FCF718FEB7
:1095C000BDE83140E1E010B500F0CEF8DFF8AC4482
:1095D000002210212046FCF70BFEC72000F09AF86D
:1095E000012210212046FCF703FEBDE81040CCE02C
:1095F0002DE9F84304460F46164600F0B5F8DFF8AB
:109600007C94002210214846FCF7F2FD022000F075
:1096100081F83802000E00F07DF83804000E00F0EA
:1096200079F8F8B200F076F82EB3012794F80080AC
:109630000025761E002220214846FCF7D9FDC5F101
:10964000070007FA00F04146014214BF0122002240
:1096500080214846FCF7CCFD012220214846FCF73A
:10966000C7FD40214846FCF7AEFC6D1C082DE1DB30
:10967000641C002EDAD1012210214846FCF7B8FD07
:10968000BDE8F14381E02DE9F84380460F461646D8
:10969000DFF8E893002210214846FCF7A9FD0320DB
:1096A00000F038F83802000E00F034F83804000EEC
:1096B00000F030F8F8B200F02DF83EB30127002496
:1096C0000025761E002220214846FCF791FDC5F1B9
:1096D000070007FA00F010F0A50014BF01220022D5
:1096E00080214846FCF784FD012220214846FCF7F2
:1096F0007FFD40214846FCF766FC6D1C40EA4404AF
:10970000082DDFDB08F8014B002ED8D14846BDE814
:10971000F84336E02DE9F0410446002500260127F4
:10972000DFF85883002220214046FCF761FDC6F196
:10973000070007FA00F0044214BF01220022802132
:109740004046FCF755FD012220214046FCF750FD24
:1097500040214046FCF737FC761C40EA4505082EC0
:10976000E0DBE8B2BDE8F08110B5C44C0022102166
:109770002046FCF73DFD0620FFF7CCFF2046BDE864
:10978000104001221021FCF733BDF8B5BB4C00227C
:1097900010212046FCF72CFD0520FFF7BBFF01251B
:1097A00000260027002220212046FCF721FDC7F1DA
:1097B000070005FA00F010F0A50014BF01220022F6
:1097C00080212046FCF714FD012220212046FCF7D1
:1097D0000FFD40212046FCF7F6FB7F1C40EA4606C1
:1097E000082FDFDBF007DBD42046BDE8F840C8E7F0
:1097F00010B4002261B10FF2942310F8014B5440D1
:10980000E4B233F8144084EA222292B2491EF4D121
:1098100010BC1046704710B5012210219748FCF784
:10982000E7FC974C01224FF400612046FCF7E0FC76
:109830002046BDE8104001224FF48061FCF7D8BCFF
:1098400010B5012944D1012805D0C0F08A80032831
:1098500012D01CD310BD8B4C207C30B94FF420208B
:10986000FFF790FE0120207478E08748B0F80100EF
:10987000800200F5202042E08248007C002844D08D
:109880008148B0F80100800200F5202048E04FF444
:109890007410FFF777FE4FF47810FFF773FE7A48E5
:1098A000784CB0F801102173080A607306224FF457
:1098B000741104F10800FFF79BFE06224FF47811A3
:1098C00004F10800FFF794FE06224FF478113EE001
:1098D000012804D045D3032814D024D310BD694CEB
:1098E000207C30B94FF48030FFF74CFE012020740B
:1098F00034E06548B0F80100800200F58030BDE832
:10990000104051E05F48007C20B95E48012101749D
:10991000032023E05C48B0F80100800200F58030AD
:10992000BDE8104079E04FF47C10FFF72BFE56485D
:10993000544CB0F801102171080A607106224FF4EE
:109940007C112046FFF754FE06224FF47C1104F1EF
:109950001400FFF798FE002020740220BDE810409C
:109960000FE010BD00B583B002218DF8001000AAF1
:109970004549B1F80130B1F801105370090A9170EE
:109980000AE000B583B002218DF800108DF80200C6
:10999000862103208DF801108DF80A0000A904200B
:1099A000FDF7F5FE03B000BD38B50446364D4FF463
:1099B0008061E81CFFF71CFFB5F80314884227D12B
:1099C0000620FFF7CFFF4FF480722146E81CFFF717
:1099D0000FFE4FF4807204F5807105F20310FFF75B
:1099E00007FE4FF4807204F5007105F20320FFF7C3
:1099F000FFFD4FF4807204F5407105F20330FFF76C
:109A0000F7FD2048017C022906D10021017431BDF7
:109A10001520BDE83240A5E731BD70B504461A4DAA
:109A20004FF48061E81CFFF7E3FE164EB5F803140F
:109A3000708288421CD1FF224FF4806106F11C0025
:109A400002F06AFF4FF48062214606F11C00FFF726
:109A50001AFE4FF48062E91C06F11C0002F0AEFF12
:109A600030B9307C022804BF00203074062000E0AA
:109A70001520BDE8704075E70000000000000240BE
:109A800000080240304E0020D48A00200000C1C0EF
:109A900081C1400101C3C003800241C201C6C006AA
:109AA000800741C70005C1C581C4400401CCC00C7A
:109AB000800D41CD000FC1CF81CE400E000AC1CA3A
:109AC00081CB400B01C9C009800841C801D8C0182A
:109AD000801941D9001BC1DB81DA401A001EC1DEAA
