:020000040800F2
:10400000E89B002099C50008DBA60008DDA6000893
:10401000DFA60008E1A60008E3A6000800000000F3
:10402000000000000000000000000000E5A60008FD
:10403000E7A6000800000000E9A60008EBA60008BB
:10404000D9C50008DDC50008E1C50008E5C50008C0
:10405000E9C50008EDC50008F1C50008F5C5000870
:10406000F9C50008FDC5000801C6000805C600081E
:1040700009C600080DC6000811C6000815C60008CC
:1040800019C600081DC6000821C6000825C600087C
:1040900055A700082DC6000831C6000835C600081F
:1040A00039C600083DC6000841C6000845C60008DC
:1040B00049C600084DC6000825A8000855C60008D6
:1040C00059C600085DC6000861C6000865C600083C
:1040D00069C600086DC600088FA8000875C60008EC
:1040E00079C600087DC6000881C6000885C600089C
:1040F00089C600088DC6000891C6000895C600084C
:1041000099C600089DC600087BA80008A5C600083F
:10411000E9A80008ADC60008B1C60008B5C6000889
:10412000B9C60008BDC60008C1C60008C5C600085B
:10413000C9C60008CDC60008D1C60008D5C600080B
:10414000D9C60008DDC60008E1C60008E5C60008BB
:10415000E9C60008EDC60008F1C60008F5C600086B
:10416000F9C60008FDC6000801C7000805C7000819
:1041700009C700080DC7000811C7000815C70008C7
:1041800019C700081DC700081CB501F077FE0F23F2
:104190000F220221032000F00DFA1F2001900023BE
:1041A0002D2000901A461146032001F04DFD1F20DE
:1041B000019000232D2000901A460121032001F0D8
:1041C00043FD1F20019000232D2000901A4602215C
:1041D000032001F039FD1F20019000232D200090C5
:1041E00003211A46084601F02FFD1F2000900022EF
:1041F0002D231146032001F0A6FDF02310220221F9
:10420000032000F0D7F9502000901022DFF8BC4ABC
:1042100004F108030221032000F06DFA20798009DF
:1042200028D12020009004F15803602202210320AD
:1042300000F061FA2020009004F17803802202212E
:10424000032000F058FA2020009004F17803A02207
:104250000221032000F04FFA2020009004F178039F
:10426000C0220221032000F046FA2020009004F131
:10427000780324E02020009004F1980360220221BA
:10428000032000F038FA20200090B8342346802222
:104290000221032000F02FFA202000902346A022C4
:1042A0000221032000F027FA202000902346C0229C
:1042B0000221032000F01FFA202000902346E02274
:1042C0000221032000F017FA13BD2DE9F041DFF8B9
:1042D000FC49DFF8FC89A0700E46207940F004000C
:1042E000207115464FF48051404601F055FFDFF82C
:1042F000E4794FF48041384601F022FF4FF4005139
:10430000384601F01DFF4FF40051404601F044FFD4
:104310004FF48061384601F03FFF4FF4805138463A
:1043200001F00EFF002000F0A0FB384601F0DAFE9D
:1043300000F47F4046EA0001384601F0B8FF4FF430
:104340008051404601F0FCFE4FF48051404601F0A0
:1043500023FF002000F089FB384601F0C3FE00F483
:104360007F4045EA0001384601F0A1FF4FF40051BB
:10437000384601F011FF4FF40051384601F0E0FEDD
:104380004FF48051404601F007FF4FF4804138461A
:1043900001F0D6FE4FF40051384601F0D1FE4FF443
:1043A0000051404601F0F8FE4FF48061384601F0BC
:1043B000C7FE4FF48051384601F0C2FE002000F0E5
:1043C00054FB384601F08EFE40F0FF01384601F004
:1043D0006EFF207900F0FB002071BDE8F0812DE92F
:1043E000F041DFF8E858DFF8E868A8700F46287950
:1043F00040F00400287114464FF48051304601F01B
:10440000CBFEDFF8D0884FF48041404601F098FEA3
:104410004FF40051404601F093FE4FF400513046F6
:1044200001F0BAFE4FF48061404601F0B5FE4FF452
:104430008051404601F084FE002000F016FB40460B
:1044400001F050FE00F47F4047EA0001404601F0D1
:104450002EFF4FF48051304601F072FE4FF4805130
:10446000304601F099FE2778002000F0FEFA404621
:1044700001F038FE00F47F4047EA0001404601F0B9
:1044800016FF4FF40051404601F086FE4FF40051F4
:10449000404601F055FE6778002000F0E6FA4046FD
:1044A00001F020FE00F47F4047EA0001404601F0A1
:1044B000FEFE4FF40051404601F06EFE4FF40051F5
:1044C000404601F03DFEA778002000F0CEFA4046BD
:1044D00001F008FE00F47F4047EA0001404601F089
:1044E000E6FE4FF40051404601F056FE4FF40051F5
:1044F000404601F025FEE778002000F0B6FA40467D
:1045000001F0F0FD00F47F4047EA0001404601F071
:10451000CEFE4FF40051404601F03EFE4FF40051F4
:10452000404601F00DFE2479002000F09EFA40463E
:1045300001F0D8FD00F47F4044EA0001404601F05C
:10454000B6FE4FF40051404601F026FE4FF40051F4
:10455000404601F0F5FD4FF48051304601F01CFE5D
:104560004FF48041404601F0EBFD4FF400514046CE
:1045700001F0E6FD4FF40051304601F00DFE4FF41E
:104580008061404601F0DCFD4FF48051404601F06F
:10459000D7FD002000F069FA404601F0A3FD40F08D
:1045A000FF01404601F083FE287900F0FB002871EE
:1045B000BDE8F0812DE9F843DFF81047DFF81087F8
:1045C000A0700F46207940F00400207191461E46ED
:1045D0004FF48051404601F0DFFDDFF8F8564FF40C
:1045E0008041284601F0ACFD4FF40051284601F00F
:1045F000A7FD4FF40051404601F0CEFD2FB94FF416
:104600008051284601F0C8FD13E0012F0AD14FF474
:104610008051284601F0C0FD4FF48061284601F02A
:104620008FFD0BE0022F09D14FF48051284601F095
:1046300087FD4FF48061284601F0AEFD002000F0B8
:1046400014FA284601F04EFD00F47F4049EA0001CB
:10465000284601F02CFE4FF48051404601F070FDD9
:104660004FF48051404601F097FD002000F0FDF925
:10467000284601F037FD00F47F4046EA0001284655
:1046800001F015FE4FF40051284601F085FD4FF46E
:104690000051284601F054FD4FF48051404601F08E
:1046A0007BFD4FF48041284601F04AFD4FF4005154
:1046B000284601F045FD4FF40051404601F06CFDE5
:1046C0004FF48061284601F03BFD4FF480512846AD
:1046D00001F036FD002000F0C8F9284601F002FD87
:1046E00040F0FF01284601F0E2FD207900F0FB00D8
:1046F0002071BDE8F1832DE9F843DFF8D055DFF8EC
:10470000D085A8700F46287940F00400287114461F
:104710001E464FF48051404601F03EFDDFF8B4954F
:104720004FF48041484601F00BFD4FF400514846DC
:1047300001F006FD4FF40051404601F02DFD2FB968
:104740004FF48051484601F027FD13E0012F0AD1B4
:104750004FF48051484601F01FFD4FF480614846F8
:1047600001F0EEFC0BE0022F09D14FF480514846D6
:1047700001F0E6FC4FF48061484601F00DFD002099
:1047800000F073F9484601F0ADFC00F47F4044EAC4
:104790000001484601F08BFD4FF48051404601F086
:1047A000CFFC4FF48051404601F0F6FC089CA4B2C7
:1047B000D4B116F8017B002000F057F9484601F00B
:1047C00091FC00F47F4047EA0001484601F06FFD8C
:1047D0004FF40051484601F0DFFC4FF400514846C9
:1047E00001F0AEFC641EE4D14FF48051404601F06C
:1047F000D3FC4FF48041484601F0A2FC4FF4005135
:10480000484601F09DFC4FF40051404601F0C4FCC5
:104810004FF48061484601F093FC4FF480514846C4
:1048200001F08EFC002000F020F9484601F05AFC0F
:1048300040F0FF01484601F03AFDFFE7287900F01B
:10484000FB002871BDE8F1832DE9F041DFF87C44DD
:10485000DFF87C74A0700E46207940F004002071CF
:1048600015464FF48051384601F096FCDFF8648419
:104870004FF48041404601F063FC4FF40051404644
:1048800001F05EFC4FF40051384601F085FC2EB972
:104890004FF48051404601F07FFC13E0012E0AD115
:1048A0004FF48051404601F077FC4FF48061404660
:1048B00001F046FC0BE0022E09D14FF48051404636
:1048C00001F03EFC4FF48061404601F065FC0020A1
:1048D00000F0CBF8404601F005FC00F47F4045EACB
:1048E0000001404601F0E3FC4FF48051384601F0EE
:1048F00027FC4FF48051384601F04EFC4FF48041C4
:10490000404601F049FC012000F0AFF8404601F0BC
:10491000BBFB05464FF48041404601F011FC4FF4CB
:104920008051384601F038FC4FF48041404601F098
:1049300007FC4FF40051404601F002FC4FF40051D7
:10494000384601F029FC4FF48061404601F0F8FB45
:104950004FF48051404601F0F3FB207900F0FB005A
:104960002071E8B2BDE8F081F8B5DFF86043DFF808
:104970006053A0704FF48051207940F00400207102
:10498000284601F009FCDFF84C634FF480413046C3
:1049900001F0D6FB4FF40051304601F0D1FB4FF44B
:1049A0000051284601F0F8FB4FF48061304601F0D9
:1049B000F3FB4FF48051304601F0C2FB002000F0C1
:1049C00054F8304601F08EFB00F47F4040F00A01BD
:1049D000304601F06CFC4FF48051284601F0B0FBEA
:1049E0004FF48051284601F0D7FB002000F03DF83D
:1049F000304601F077FB40F0FF01304601F057FCF4
:104A00004FF48041304601F0C7FB012000F02DF843
:104A1000304601F039FB07464FF48041304601F043
:104A20008FFB4FF48051284601F0B6FB4FF48041D4
:104A3000304601F085FB4FF40051304601F080FB19
:104A40004FF40051284601F0A7FB4FF48061304637
:104A500001F076FB4FF48051304601F071FB207974
:104A600000F0FB002071F8B2F2BD00B583B018B9B8
:104A7000FF200090012004E0012811D1FF200090C8
:104A800000208DF8040000A902208DF80500002008
:104A90008DF8060001208DF807008E4801F0F2F92C
:104AA00003B000BD1CB50020009000238A4C019487
:104AB00064224121032000F0B5FF0020009003464E
:104AC000019464221421032000F0ACFF0020009028
:104AD0000346019464226E21032000F0A3FF00200E
:104AE0000090034601942D221421032000F09AFF28
:104AF00000200090034601942D226E21032000F037
:104B000091FF0020009003460194A5221421032068
:104B100000F088FF0020009003460194A5226E213A
:104B2000032000F07FFF13BD2DE9FC410746002262
:104B300000210320FFF788FE0646102200210320F3
:104B4000FFF782FE0446202200210320FFF77CFEAF
:104B50000546302200210320FFF776FE8046FFF74E
:104B6000A1FF57B9802E16D1DFF8A00E01900023C7
:104B70000020009064224121A3E0012F02D1802C6B
:104B800009D1F1E7022F01D1802DF9E7032F0AD1D6
:104B9000B8F1800FE8D05048019000230020009029
:104BA000642241218DE0042F17D1802E14BF4A4882
:104BB000DFF8580E01900023002000906422142199
:104BC000032000F02FFF802C2BD1DFF8400E019046
:104BD000002300200090642272E0052F0FD1802E68
:104BE0002AD1DFF8280E01900023002000906422D3
:104BF0001421032000F016FF802D12D1E5E7062FC7
:104C000016D1802E23D1DFF8040E0190002300205E
:104C1000009064221421032000F004FFB8F1800FFB
:104C2000D3D02D480190002300200090642247E05B
:104C3000072F03D1802CD4D02748D4E7082F02D1E6
:104C4000802C04D1DFE7092F03D1802DDBD022484F
:104C5000DBE70A2F38D1802E14BF1F48DFF8AC0DD8
:104C600001900023002000902D221421032000F049
:104C7000D9FE802C14BF1848DFF8900D0190002356
:104C8000002000902D226E21032000F0CBFE802D0D
:104C900014BF1148DFF8740D01900023002000902C
:104CA000A5221421032000F0BDFEB8F1800F14BF2F
:104CB0000948DFF8580D0190002300200090A5223C
:104CC0006E21032000F0AEFEBDE8F3819C6300205E
:104CD000000C0240001802400000002000B583B024
:104CE000002861D1A1B11F20019000222D20009049
:104CF00000231146032000F0A7FFDFF8140D0190F8
:104D00000522002000900346A221032000F08AFE25
:104D10000123802200210320FFF74CFCFF23812286
:104D200000210320FFF746FCFF23822200210320FD
:104D3000FFF740FCFF23832200210320FFF73AFC0A
:104D4000FF23842200210320FFF734FC802310225C
:104D500001210320FFF72EFC01231822012103204B
:104D6000FFF728FC0223202201210320FFF722FC69
:104D70000323282201211846FFF71CFC00233022C0
:104D800001210320FFF716FCB0233122012103206B
:104D9000FFF710FC0023322201210320FFF70AFC59
:104DA0007823332200F010BE012861D1A1B11F2069
:104DB000019000222D20009000231146032000F0D6
:104DC00043FFDFF8500C01900522002000900346BD
:104DD000A221032000F026FE41239022002103207F
:104DE000FFF7E8FBFF23912200210320FFF7E2FBFE
:104DF000FF23922200210320FFF7DCFBFF239322F5
:104E000000210320FFF7D6FBFF239422002103207B
:104E1000FFF7D0FB0023102201210320FFF7CAFB7C
:104E20008123182201210320FFF7C4FB0223202243
:104E300001210320FFF7BEFB0323282201210320C9
:104E4000FFF7B8FB0023342201210320FFF7B2FB58
:104E5000B023352201210320FFF7ACFB00233622CB
:104E600001210320FFF7A6FB7823372200F0ACBD19
:104E7000022861D1A1B11F20019000222D200090B5
:104E800000231146032000F0DFFEDFF88C0B0190B9
:104E90000522002000900346A221032000F0C2FD5D
:104EA0008123A02200210320FFF784FBFF23A122FE
:104EB00000210320FFF77EFBFF23A2220021032015
:104EC000FFF778FBFF23A32200210320FFF772FBEB
:104ED000FF23A42200210320FFF76CFB00231022F4
:104EE00001210320FFF766FB012318220121032083
:104EF000FFF760FB8223202201210320FFF75AFBEA
:104F00000323282201211846FFF754FB00233822EF
:104F100001210320FFF74EFBB0233922012103209A
:104F2000FFF748FB00233A2201210320FFF742FB51
:104F300078233B2200F048BD03285AD1A1B11F209D
:104F4000019000222D20009000231146032000F044
:104F50007BFEDFF8C80A019005220020009003467E
:104F6000A221032000F05EFDC123B0220021032016
:104F7000FFF720FBFF23B12200210320FFF71AFBDC
:104F8000FF23B22200210320FFF714FBFF23B322EB
:104F900000210320FFF70EFBFF23B4220021032092
:104FA000FFF708FB0023102201210320FFF702FB7B
:104FB0000123182201210320FFF7FCFA02232022FB
:104FC00001210320FFF7F6FA832328220121032081
:104FD000FFF7F0FA00233C2201210320FFF7EAFA51
:104FE000B0233D2201210320FFF7E4FA002300F063
:104FF000E4BC042840F0A380F9B11F2001900022F6
:105000002D20009000231146032000F01DFEDFF844
:10501000000A019005220020009003464C21032045
:1050200000F000FDDFF8EC0901900522002000905F
:105030000346A221032000F0F5FC01238022002179
:105040000320FFF7B7FAFF23812200210320FFF797
:10505000B1FAFF23822200210320FFF7ABFA7F235E
:10506000832200210320FFF7A5FAFF2384220021D9
:105070000320FFF79FFA4123902200210320FFF72E
:1050800099FAFF23912200210320FFF793FAFF23CF
:10509000922200210320FFF78DFA7F239322002123
:1050A0000320FFF787FAFF23942200210320FFF754
:1050B00081FA8023102201210320FFF77BFA81234C
:1050C000182201210320FFF775FA02232022012173
:1050D0000320FFF76FFA0323282201210320FFF7A3
:1050E00069FA0023302201210320FFF763FA5823D5
:1050F000312201210320FFF75DFA00233222012132
:105100000320FFF757FA7823332201210320FFF70A
:1051100051FA5823342201210320FFF74BFAB02320
:10512000352201210320FFF745FA00233622012111
:105130000320FFF73FFA7823372200F045BC05280B
:1051400040F0A280F9B11F20019000222D20009094
:1051500000231146032000F077FDDFF8B40801902A
:1051600005220020009003464C21032000F05AFC49
:10517000DFF8A40801900522002000900346A22138
:10518000032000F04FFC0123802200210320FFF7C1
:1051900011FAFF23812200210320FFF70BFAFF23DE
:1051A000822200210320FFF705FA7F2383220021BA
:1051B0000320FFF7FFF9FF23842200210320FFF7DC
:1051C000F9F98123A02200210320FFF7F3F9FF233F
:1051D000A12200210320FFF7EDF9FF23A2220021E5
:1051E0000320FFF7E7F9FF23A32200210320FFF7A5
:1051F000E1F9FF23A42200210320FFF7DBF980233C
:10520000102201210320FFF7D5F9012318220121E3
:105210000320FFF7CFF98223202201210320FFF78B
:10522000C9F90323282201211846FFF7C3F90023F7
:10523000302201210320FFF7BDF95823312201213B
:105240000320FFF7B7F90023322201210320FFF7E3
:10525000B1F97823332201210320FFF7ABF958235A
:10526000382201210320FFF7A5F9B02339220121BB
:105270000320FFF79FF900233A2201210320FFF7C3
:1052800099F978233B229FE3062840F09B80F9B1EF
:105290001F20019000222D200090002311460320A2
:1052A00000F0D2FCDFF86807019005220020009092
:1052B00003464C21032000F0B5FBDFF860070190A6
:1052C0000522002000900346A221032000F0AAFB43
:1052D0000123802200210320FFF76CF9FF238122A4
:1052E00000210320FFF766F9FF238222002103201B
:1052F000FFF760F97F23832200210320FFF75AF98B
:10530000FF23842200210320FFF754F9C123B02298
:1053100000210320FFF74EF9FF23B12200210320D3
:10532000FFF748F9FF23B22200210320FFF742F9DB
:10533000FF23B32200210320FFF73CF9FF23B4220F
:1053400000210320FFF736F98023102201210320DA
:10535000FFF730F90123182201210320FFF72AF972
:105360000223202201210320FFF724F9832328228E
:1053700001210320FFF71EF9002330220121032021
:10538000FFF718F95823312201210320FFF712F902
:105390000023322201210320FFF70CF97823332266
:1053A00001210320FFF706F958233C2201210320A5
:1053B000FFF700F9B0233D2201210320FFF7FAF89F
:1053C0000023FAE2072840F0A280F9B11F200190E3
:1053D00000222D20009000231146032000F034FC11
:1053E000DFF83006019005220020009003464C2192
:1053F000032000F017FBDFF82006019005220020B3
:1054000000900346A221032000F00CFB41239022D0
:1054100000210320FFF7CEF8FF2391220021032073
:10542000FFF7C8F8FF23922200210320FFF7C2F8FC
:105430007F23932200210320FFF7BCF8FF2394224F
:1054400000210320FFF7B6F88123A02200210320CA
:10545000FFF7B0F8FF23A12200210320FFF7AAF8ED
:10546000FF23A22200210320FFF7A4F87F23A32219
:1054700000210320FFF79EF8FF23A4220021032030
:10548000FFF798F80023102201210320FFF792F87C
:105490008123182201210320FFF78CF88223202288
:1054A00001210320FFF786F803232822012103208E
:1054B000FFF780F80023342201210320FFF77AF858
:1054C0005823352201210320FFF774F800233622E8
:1054D00001210320FFF76EF87823372201210320F2
:1054E000FFF768F85823382201210320FFF762F8FC
:1054F000B023392201210320FFF75CF800233A2270
:1055000001210320FFF756F878233B225CE20828AC
:1055100040F09B80F9B11F20019000222D200090C7
:1055200000231146032000F08FFBDFF8E804019010
:1055300005220020009003464C21032000F072FA5F
:10554000DFF8D80401900522002000900346A22134
:10555000032000F067FA4123902200210320FFF787
:1055600029F8FF23912200210320FFF723F8FF23CE
:10557000922200210320FFF71DF87F2393220021B0
:105580000320FFF717F8FF23942200210320FFF7E1
:1055900011F8C123B02200210320FFF70BF8FF23ED
:1055A000B12200210320FFF705F8FF23B2220021DA
:1055B0000320FEF7FFFFFF23B32200210320FEF7A5
:1055C000F9FFFF23B42200210320FEF7F3FF00239D
:1055D000102201210320FEF7EDFF81231822012173
:1055E0000320FEF7E7FF0223202201210320FEF71C
:1055F000E1FF8323282201210320FEF7DBFF0023A4
:10560000342201210320FEF7D5FF58233522012142
:105610000320FEF7CFFF0023362201210320FEF7EF
:10562000C9FF7823372201210320FEF7C3FF582347
:105630003C2201210320FEF7BDFFB0233D220121C2
:105640000320FEF7B7FF0023B7E1092840F0998057
:10565000E9B11F20019000222D2000900023114667
:10566000032000F0F1FAEC480190052200200090A0
:1056700003464C21032000F0D5F9E84801900522AB
:10568000002000900346A221032000F0CBF98123E3
:10569000A02200210320FEF78DFFFF23A12200217D
:1056A0000320FEF787FFFF23A22200210320FEF73D
:1056B00081FF7F23A32200210320FEF77BFFFF232E
:1056C000A42200210320FEF775FFC123B022002190
:1056D0000320FEF76FFFFF23B12200210320FEF716
:1056E00069FFFF23B22200210320FEF763FFFF239F
:1056F000B32200210320FEF75DFFFF23B422002127
:105700000320FEF757FF0023102201210320FEF79C
:1057100051FF0123182201210320FEF74BFF8223B2
:10572000202201210320FEF745FF832328220121A7
:105730000320FEF73FFF0023382201210320FEF75C
:1057400039FF5823392201210320FEF733FF0023BC
:105750003A2201210320FEF72DFF78233B2201216D
:105760000320FEF727FF58233C2201210320FEF7E8
:1057700021FFB0233D2201210320FEF71BFF002360
:105780001BE10A2840F02781002931D01F20019019
:1057900000222D20009000231146032000F054FA2F
:1057A0009B48019005220020009003464C210320D5
:1057B00000F038F997480190052200200090034638
:1057C000A221032000F02EF9934801907D220020B1
:1057D000009003464C21032000F024F98F480190EB
:1057E0007D22002000900346A221032000F01AF938
:1057F0000123802200210320FEF7DCFE7F2381228B
:1058000000210320FEF7D6FEFF2382220021032081
:10581000FEF7D0FE7F23832200210320FEF7CAFE7D
:10582000FF23842200210320FEF7C4FE412390229F
:1058300000210320FEF7BEFE7F23912200210320DA
:10584000FEF7B8FEFF23922200210320FEF7B2FEEE
:105850007F23932200210320FEF7ACFEFF23942236
:1058600000210320FEF7A6FE8123A02200210320B1
:10587000FEF7A0FE7F23A12200210320FEF79AFE5F
:10588000FF23A22200210320FEF794FE7F23A32200
:1058900000210320FEF78EFEFF23A4220021032017
:1058A000FEF788FEC123B02200210320FEF782FE0E
:1058B0007F23B12200210320FEF77CFEFF23B222CA
:1058C00000210320FEF776FE7F23B3220021032070
:1058D000FEF770FEFF23B42200210320FEF76AFECC
:1058E0008023102201210320FEF764FE8123182269
:1058F00001210320FEF75EFE8223202201210320E6
:10590000FEF758FE8323282201210320FEF752FED2
:105910000023302201210320FEF74CFE58233122C0
:1059200001210320FEF746FE00233222012103203D
:10593000FEF740FE3C23332201210320FEF73AFE0E
:105940005823342201210320FEF734FEB0233522F0
:1059500001210320FEF72EFE002336220121032021
:10596000FEF728FE3C23372201210320FEF722FE0A
:105970000023382201210320FEF71CFE5823392280
:1059800001210320FEF716FE3C233A2201210320C9
:10599000FEF710FE78233B2201210320FEF70AFECA
:1059A00058233C2201210320FEF704FEB0233D22B0
:1059B00001210320FEF7FEFD3C233E2201210320AE
:1059C000FEF7F8FD78233F2203B05DF804EB0121D8
:1059D0000320FEF7EFBD03B000BD10B582B0FF207D
:1059E000009000220E4C234600210320FEF783FE88
:1059F000FF20009004F58073002201210320FEF7B0
:105A00007AFEBDE81340FEF7BFBB00001827002058
:105A10004C520020C45500203C590020B45C0020AA
:105A20002C600020FFE72DE9FE4F8AB080461798D2
:105A3000179003F0070717990078497801EB0020C9
:105A400080B2049003F0C005179817998078C97840
:105A5000DDF810C001EB0020179909791FFA80F9D1
:105A600016980A4619FB0CFC90FBF2F31CFB01F1A3
:105A700011FB03F102FB130010FB091080B206902A
:105A8000002206214046FEF720FC00220821404665
:105A9000FEF71BFC1798007900FB09F080B2059017
:105AA0000020019004980128C0F2CB8000200390D0
:105AB000B80080308DF8010007AF4EE01798305CD9
:105AC00028438DF81C004FEAA40A179830180AF0F2
:105AD0000F0B41782943797007AA81782943B9705F
:105AE0000021C0782843F870ABF18000387140463F
:105AF000FEF775FCBBF10F0F02D0201D48451EDBE1
:105B00009DF828005044A0EB0B02D2B2052140467C
:105B1000FEF7DBFB9DF8000040EA0B1040F00A02A4
:105B200009214046FEF7D1FB4046FEF71DFF000667
:105B3000FAD49DF801200A214046FEF7C6FB201D3D
:105B400084B2361D4C45B9DB01980599801C80B2A2
:105B50000190039800EB410003900198049988425A
:105B60006FDA03A8068805980199801980B2099018
:105B70004910BDF82C0011FA80F00290C2B2072142
:105B80004046FEF7A2FB0024B9F1010FDCDB0698CA
:105B90003018401D86B20298001280008DF8000077
:105BA00041E01798305C28438DF81C004FEAA40AA6
:105BB000179830180AF00F0B41782943797007AA1B
:105BC00081782943B9700021C0782843F870ABF17F
:105BD000800038714046FEF702FCBBF10F0F02D087
:105BE000201D48451CDB9DF828005044A0EB0B020B
:105BF000D2B205214046FEF768FB9DF8000040EA5E
:105C00000B1209214046FEF760FB4046FEF7ACFE52
:105C10000006FAD49DF801200A214046FEF755FB04
:105C2000201D84B2361D4C45BBDB06980999081827
:105C3000401D86B202980012800000248DF80000FA
:105C400080E70DB0BDE8F08F2DE9F8430E46914690
:105C5000089C80461D46FF220021FEF736FBFF22EE
:105C600001214046FEF731FBFF2202214046FEF7AC
:105C70002CFBFF2203214046FEF727FBE80000EB48
:105C80004505EAB207214046FEF71FFB099880B29E
:105C9000410011FA85F101EBC000401E87B2FAB253
:105CA00008214046FEF711FB2904080E390A01EBD2
:105CB000800040F00202D2B209214046FEF705FB07
:105CC000A000C0B24FEA8907040900F00F0519D0FF
:105CD000FAB205210020FEF7F8FA200150FA87F207
:105CE000D2B206210020FEF7F0FAB00000F1C002A7
:105CF000D2B20A210020FEF7E8FA4046FEF734FE51
:105D00000006FAD4EDB1200150FA87F2D2B2052193
:105D10000020FEF7DAFA07EB04102818421ED2B270
:105D200006210020FEF7D1FAB00000F1C002D2B285
:105D30000A210020FEF7C9FA4046FEF715FE0006CC
:105D4000FAD4BDE8F1832DE9F0410E4617468046AE
:105D50001D46FF220021FEF7B8FAFF22012140462E
:105D6000FEF7B3FAFF2202214046FEF7AEFAFF2209
:105D700003214046FEF7A9FAF80000EB4707FAB204
:105D800007214046FEF7A1FA069880B2410011FAB9
:105D900087F101EBC000401E84B2E2B20821404608
:105DA000FEF793FA3F04380E210A01EB800040F021
:105DB0000202D2B209214046FEF787FA6800760057
:105DC000C0B2050900F00F0716D0F2B2052100207D
:105DD000FEF77BFA280150FA86F2D2B206210020A3
:105DE000FEF773FAE0220A210020FEF76EFA404621
:105DF000FEF7BAFD0006FAD4D7B1280150FA86F2B0
:105E0000D2B205210020FEF760FA06EB0510381823
:105E1000421ED2B206210020FEF757FAE0220A21E4
:105E20000020FEF752FA4046FEF79EFD0006FAD427
:105E3000BDE8F08138B50478012C1EDB451C15F84F
:105E4000013B0B2202210320FEF7B4FB15F8013BB6
:105E50000C2202210320FEF7ADFB15F8013B0D22B9
:105E600002210320FEF7A6FB15F8013B0E220221BA
:105E70000320FEF79FFB641EE1D131BD0048D9E746
:105E8000006500202DE9F84304460026DFF864058C
:105E90000D4684421CBFDFF8600584421FD0DFF846
:105EA0005C0584421CBFDFF85805844217D0DFF838
:105EB000540584421CBFDFF8500584420FD0DFF840
:105EC0004C0584421FBFDFF848058442DFF84405D3
:105ED000844204D0C1210FF2405000F0E4FA286857
:105EE00020B90FF23450C22100F0DDFA28790028E1
:105EF00018BF012808D0022818BF032804D0C321E6
:105F00000FF2145000F0CFFAE87940B1012818BF21
:105F1000022804D00FF20050C42100F0C4FA01207E
:105F200000FA06F8286808EA0000404546D17700E4
:105F30000320B8406FEA0009206809EA00002060E9
:105F400020682979B940084320602879012818BFC2
:105F500002282AD16879002818BF012808D0022811
:105F600018BF032804D0D6210FF2AC4000F09BFAF2
:105F7000A06809EA0000A060A0686979B9400843F8
:105F8000A060A879002818BF012804D0DD210FF2F5
:105F9000884000F088FA606820EA08006060606865
:105FA000A979B14089B208436060E06809EA00005D
:105FB000E060E068E979B9400843E060761C102EA3
:105FC000ADD3BDE8F18370B504460026DFF82404A4
:105FD0000D4684421CBFDFF82004844220D0DFF845
:105FE0001C0484421CBFDFF81804844218D0DFF878
:105FF000140484421CBFDFF81004844210D0DFF880
:106000000C0484421FBFDFF808048442DFF8040454
:10601000844205D04FF49B710FF2FC3000F043FA3C
:10602000012D18BF022D29D0042D18BF082D25D011
:10603000102D18BF202D21D0402D18BF802D1DD030
:10604000B5F5807F18BFB5F5007F17D0B5F5806F27
:1060500018BFB5F5006F11D0B5F5805F18BFB5F565
:10606000005F0BD0B5F5804F18BFB5F5004F05D0D8
:106070000FF2A43040F2371100F015FA20692842DF
:1060800018BF0126304670BD10B50446DFF8640322
:1060900084421CBFDFF86003844220D0DFF85C0339
:1060A00084421CBFDFF85803844218D0DFF8540341
:1060B00084421CBFDFF85003844210D0DFF84C0349
:1060C00084421FBFDFF848038442DFF8480384425C
:1060D00005D04FF4A6710FF2403000F0E4F92069CA
:1060E00080B210BD10B50446DFF8080384421CBF1F
:1060F000DFF80403844220D0DFF8000384421CBF91
:10610000DFF8FC02844218D0DFF8F80284421CBF9A
:10611000DFF8F402844210D0DFF8F00284421FBF9F
:10612000DFF8EC028442DFF8EC02844205D040F252
:1061300073110FF2E42000F0B6F9606980B210BD6F
:1061400038B50446AB480D4684421CBFAA48844279
:1061500019D0AA4884421CBFA948844213D0A94838
:1061600084421CBFA84884420DD0A84884421FBF67
:10617000A7488442A748844205D040F285110FF217
:10618000982000F090F92DB90FF28C204FF4C371D4
:1061900000F089F9258331BD38B5044695480D4690
:1061A00084421CBF9448844219D0944884421CBF46
:1061B0009348844213D0934884421CBF924884423F
:1061C0000DD0924884421FBF914884429148844236
:1061D00005D04FF4CC710FF2402000F064F92DB9D6
:1061E0000FF2342040F2991100F05DF9658331BD62
:1061F00070B504467F480D46164684421CBF7E4853
:10620000844219D07D4884421CBF7D48844213D00B
:106210007C4884421CBF7C4884420DD07B48844229
:106220001FBF7B4884427B48844205D04FF4D6711F
:106230000FF2E41000F037F9012D18BF022D29D01C
:10624000042D18BF082D25D0102D18BF202D21D0CA
:10625000402D18BF802D1DD0B5F5807F18BFB5F536
:10626000007F17D0B5F5806F18BFB5F5006F11D05E
:10627000B5F5805F18BFB5F5005F0BD0B5F5804F61
:1062800018BFB5F5004F05D00FF28C1040F2AD11DC
:1062900000F009F94EB1012E05D04FF4D7710FF27D
:1062A000781000F000F9258370BD658370BD38B5A6
:1062B000044650480D4684421CBF4F48844219D0C2
:1062C0004E4884421CBF4E48844213D04D488442FD
:1062D0001CBF4D4884420DD04C4884421FBF4C48DF
:1062E00084424C48844205D040F2C3110FF228107A
:1062F00000F0D9F8656131BD70B506463D480D46E0
:10630000144686421CBF3C48864219D03B48864210
:106310001CBF3B48864213D03A4886421CBF3A48CD
:1063200086420DD0394886421FBF394886423948D7
:10633000864205D040F21D210FF2DC0000F0B3F8D8
:10634000002D18BF012D21D0022D18BF032D1DD007
:10635000042D18BF052D19D0062D18BF072D15D0F7
:10636000082D18BF092D11D00A2D18BF0B2D0DD0E7
:106370000C2D18BF0D2D09D00E2D18BF0F2D05D0D7
:106380000FF2940040F21E2100F08DF8002C18BF8F
:10639000092C1ED0012C18BF022C1AD0032C18BFB8
:1063A000042C16D0052C18BF062C12D0072C18BFB1
:1063B000082C0ED00A2C18BF0B2C0AD00C2C1CBF9A
:1063C0000D2C0F2C05D040F21F210FF24C0000F0D5
:1063D0006AF8E80806EB800005F007018900026A08
:1063E0000F238B409A43026204FA01F1026A1143BF
:1063F000016270BD0000024000040240000802403B
:10640000000C02400010024000140240001802403C
:10641000001C024000200240433A5C546F6F6C73D2
:106420005C574C39465C574C5F465F4D6F6E6974E4
:106430006F725F4150505C4C696272617269657342
:106440005C53544D3332463478785F5374645065EE
:10645000726970685F4472697665725C7372635CBE
:1064600073746D3332663478785F6770696F2E634A
:106470000000000080B500F057FD002002BD00B50F
:1064800085B04FF4E130009000A900200190ADF8F4
:106490000800ADF80C000C20ADF80A00002000F058
:1064A000E3FD05B000BDFEE72DE9F041DFF8545BE8
:1064B000DFF8544B28682087002000F0FCFE002005
:1064C00000F0F9FE002000F0F6FE28682087002684
:1064D000A04606F1080000F0EEFE761C08F8010B5D
:1064E000182EF6DB08222146DFF8200B01F0E6F833
:1064F000DFF81C0B082204F1080101F0DFF8082284
:1065000004F11001DFF80C0B01F0D8F8002604F1BB
:10651000200806F1320000F0CEFE761C08F8010BD0
:10652000152EF6DBDFF8F08A0026474606F16400F8
:1065300000F0C1FE761C07F8010B4F2EF6DBDFF8EA
:10654000DC6AC82000F0B7FE3070C92000F0B3FE4E
:106550007070CA2000F0AFFEB070CB2000F0ABFE30
:10656000F070D22000F0A7FE3071D32000F0A3FE1F
:106570007071D42000F09FFEB071D52000F09BFE1A
:10658000F071DC2000F097FE3072DD2000F093FE09
:106590007072DE2000F08FFEB072DF2000F08BFE04
:1065A000F072FF22DFF8787A4D21781C01F0C2F8F2
:1065B00005224146384601F081F804223146781D13
:1065C00001F07CF80422311D07F1090001F076F892
:1065D000042206F1080107F10D0001F06FF82868A8
:1065E0002087208F2073000A6073BDE8F081DFF8F8
:1065F000340A01210162FF214172002101734181AE
:10660000704710B5DFF81C4984B0204600F0FEFF4B
:1066100002208DF80000832100A84170217881704C
:106620006178C170A1780171E1784171217981713E
:1066300000A960798DF80700A0798DF80800FF2087
:106640008DF8090003208DF80A00042001F067F995
:1066500004B010BD38B5DFF8B4492178082000F047
:1066600001FE012001F0ADF96178092000F0FAFD8A
:10667000012001F0A6F9A1780A2000F0F3FD012025
:1066800001F09FF9E1780B2000F0ECFD012001F012
:1066900098F921790C2000F0E5FD012001F091F935
:1066A00061790D2000F0DEFD012001F08AF9A17969
:1066B0000E2000F0D7FD012001F083F9E1790F20D1
:1066C00000F0D0FD012001F07CF9DFF84449217889
:1066D000102000F0C7FD012001F073F9617811204E
:1066E00000F0C0FD012001F06CF9A178122000F04B
:1066F000B9FD012001F065F9E178132000F0B2FD49
:10670000012001F05EF92179142000F0ABFD012099
:1067100001F057F96179152000F0A4FD012001F086
:1067200050F9A179162000F09DFD012001F049F9F2
:10673000E179172000F096FD012001F042F9DFF821
:10674000D4482178182000F08DFD012001F039F99E
:106750006178192000F086FD012001F032F9A1785E
:106760001A2000F07FFD012001F02BF9E1781B20B9
:1067700000F078FD012001F024F921791C2000F0BF
:1067800071FD012001F01DF961791D2000F06AFD05
:10679000012001F016F9A1791E2000F063FD01200F
:1067A00001F00FF9E1791F2000F05CFD012001F0FC
:1067B00008F90024DFF8705815F8011B04F13200C5
:1067C00000F050FD012001F0FCF8641C152CF3DBF7
:1067D000DFF84458002415F8011B04F1640000F0B0
:1067E00041FD012001F0EDF8641C4F2CF3DBDFF8D4
:1067F0002C48207B012813D1DFF824580422691D7E
:10680000204600F05BFF042205F10901201D00F085
:1068100055FF042205F10D0104F1080000F04EFFC0
:106820002178C82000F01EFD012001F0CAF861782F
:10683000C92000F017FD012001F0C3F8A178CA209B
:1068400000F010FD012001F0BCF8E178CB2000F051
:1068500009FD012001F0B5F82179D22000F002FDF8
:10686000012001F0AEF86179D32000F0FBFC01209B
:1068700001F0A7F8A179D42000F0F4FC012001F088
:10688000A0F8E179D52000F0EDFC012001F099F8A5
:10689000217ADC2000F0E6FC012001F092F8617A18
:1068A000DD2000F0DFFC012001F08BF8A17ADE2072
:1068B00000F0D8FC012001F084F8E17ADF2000F03C
:1068C000D1FCBDE83240012001F07BB8F8B5DFF81B
:1068D0005C4701F0BDF848B1207900286FD1FFF77F
:1068E000B9FE0020607101F0B3F828B9012001F071
:1068F000AAF80020E070F1BD642001F062F8607930
:10690000401C6071C0B20F28EDDB01F0EAF80021F5
:10691000F52001F0F7F8032001F053F80021F520ED
:1069200001F0F0F8032001F04CF8DFF8045740F2D2
:10693000277600223146284601F090FBDFF8F476F6
:1069400000220221384601F04BFF00206062002146
:10695000DFF8E406017001F0C5FF4FF4966001F026
:1069600030F8002002F0C3F8012002F0B6F8002051
:1069700002F0AEF8002002F0A5F801F03FF8002088
:1069800001F036F84FF47A7001F01BF801F060F86E
:1069900080B9012001F057F80120E0700022314653
:1069A000284601F05BFB3846BDE8F8400022022192
:1069B00001F016BFBDE8F240002001F044B8F1BD7F
:1069C000DFF860160A7BFF2101F0BEB8002818BF6F
:1069D000022806D1DFF84C160A7C60F301020A7423
:1069E0007047DFF84016087C40F0030008747047D9
:1069F000DFF83016042804DA0A7C60F385020A7492
:106A00007047087C40F03C0008747047DFF81406BB
:106A1000818BB1F57B4FA8BF4FF6FF714182704764
:106A2000DFF80006816911F1A06F28BF4FF0FF3138
:106A30004161704710B568B902F034F94FF6FF2193
:106A400090FBF1F14FF6FF2202FB1100DFF8D415A5
:106A5000888310BD01280DD102F024F96FF0A061E8
:106A6000B0FBF1F16FF0A06202FB1100DFF8B4158A
:106A7000886110BD022817D102F014F94FF6FF21EA
:106A8000DFF8A04590FBF1F14FF6FF2202FB110069
:106A9000A08302F007F96FF0A061B0FBF1F16FF095
:106AA000A06202FB1100A06110BD10B584B00020EF
:106AB000FFF78CFF0320FFF79BFF0220FFF7BAFFD1
:106AC000FFF7A4FFFFF7ACFF48F2870148F285000B
:106AD00002F0FBF9DFF84C45042300AA042104F17D
:106AE000140002F0F7F9009860610A2000F069FFD5
:106AF00004F110000CC802A918200CC18DF8040084
:106B0000FF208DF80500E7208DF8060028208DF87D
:106B1000070001A807C802F07CFB04B010BD30B527
:106B2000DFF80045A56985B00020FFF74FFF002082
:106B3000FFF75EFF0020FFF77DFFFFF767FFA9B2B9
:106B4000280C02F0C2F9042300AA042104F1140065
:106B500002F0C0F9009860610A2000F032FF04F1F1
:106B600010000CC802A918200CC12CE030B5DFF8C9
:106B7000B444A56985B00020FFF728FF012008E094
:106B800030B5DFF8A044A56985B00020FFF71EFFEF
:106B90000220FFF72DFF0020FFF74CFFFFF736FF25
:106BA000A9B2280C02F091F9042300AA042104F1EF
:106BB000140002F08FF90098606102A904F110003E
:106BC0000CC80CC118208DF80400FF208DF80500BA
:106BD000E7208DF8060028208DF8070001A807C8D7
:106BE00002F017FB05B030BD20B5DFF83854A869B6
:106BF00081B284B0000C02F068F9082300AA0821D1
:106C0000284602F092F900A806C806C5083D287C6F
:106C1000297800F0030201F003039A4202BFC0F397
:106C20008300C1F38301884202BF688A6988884271
:106C300003D12979080904B020BDFF2004B020BD8C
:106C40001CB5DFF8E043A06981B2000C02F03DF909
:106C5000082300AA0821204602F067F900A806C808
:106C600006C4083C207C217800F0030201F00303F5
:106C70009A4202BFC1F38301C0F38300884202BF7E
:106C8000608A628890422DD1207900F00F03012B99
:106C900021D10009022804D00DD3042806D021D325
:106CA00009E0607900F00F0203211FE0607900F035
:106CB0000F0205211AE0012908D1607900F00F02C6
:106CC000012A13D0022A10D102210FE0207B48B103
:106CD000401E207306E0022B607900F00F0204D101
:106CE000062103E0607900F00F020421FF2000F08C
:106CF0002BFF13BD38B5DFF82C43617A0020012942
:106D00001EBF216AB1F5803FB1F5801F4FD0012928
:106D100005D141F201002062FFF7C7FE47E01029CC
:106D200005D141F210002062FFF7F9FE3FE0CA05ED
:106D30003DD521F480712162C90748BF0320FFF7C8
:106D400053FFC0B9206AC10702D5002020722CE091
:106D5000C0062CD500202072FF21012060726079CE
:106D600000F00F024FF4803020622273A520A07241
:106D700000F0EAFE1BE0207A401C2072C0B214280A
:106D80000CDB012060724FF480102062FE20227B19
:106D9000A072FF21BDE8384000F0D6BE206AC107CE
:106DA00048BF012002D4C00601D510202062A34DA7
:106DB000A878012818BF02280FD1012802D1FFF7B7
:106DC000D5FE03E0022808BFFFF7DAFE0120E072DB
:106DD00000202062FF20A87031BDE07A012804BFA6
:106DE000206AB0F5807F04D10020E072BDE8314018
:106DF00026E731BD10B501F075FDFFF77BFF8B4C29
:106E0000607A1E2803DA401C6072012003E004BF90
:106E1000401C6072002001F060FE89480088B0F5D7
:106E20007A7F14DD87480078012810D102F09AF8A3
:106E3000012202217F4801F0D3FC83480021017028
:106E4000A078401CA070C0B20A28A8BFA170208CF6
:106E5000C82802DA401C208404E004BF401C2084BF
:106E6000FFF734FDE07978B1207A0A28BCBF401CD6
:106E70002072207A0A2807DB744801787448007869
:106E800002F02DFC0020E071E178A079012902D008
:106E9000012802D010BD0128FCD1BDE81040FFF749
:106EA000D9BB10B5614CE07801281CBF002000F070
:106EB000CAFD012000F09CFD00F0A0FD00F0B0FD37
:106EC00002F0F3FEFEF789FD02F0F8FE02F026FF65
:106ED00000F0CAFD002000F02DFA00F0E5FE01F000
:106EE000D2FD012001F0EEFD012001F0F1FD0120B5
:106EF00001F0F3FD01F0AAFE5A49022000F08BFCDC
:106F0000042000F04BFC02F02DF8FFF7CDFA02F060
:106F1000D1FB002060620122BDE8104002214548FB
:106F200001F05EBCB89300202DE9F041FFF7A7FA0D
:106F30004B4C4A4D484EDFF81C813C4F03F010FB90
:106F400003F01AFB03F04BFBFFF7ABFF10E02078D8
:106F5000401CC0B2062808BF002020700321207802
:106F600090FBF1F101EB4101401A08BF01F05CFE1A
:106F7000388A012815D100203882387801280CD1B0
:106F80007878411C7970042807DB0020787003F0C2
:106F900085FB0021202000F0B5FD02F086F902F00B
:106FA00057F9788A012804BF00207882B88A01281E
:106FB00009D10020B882FFF71DFFF87801281CBF17
:106FC000B8790128BAD0B88B012807D10020B8833E
:106FD00098F80000012818BF02F00CFAF88B01287D
:106FE000C6D10020F883387A0A28B8BFFFF709FB1A
:106FF0003078012802D12878FF28A8D100202070FD
:10700000B6E700004C200140D892002040900020BC
:107010004890002050900020389200209C9300203F
:10702000889200203C930020F892002014930020C6
:107030000044004000640040E4910020589000208B
:10704000FE8A0020AA930020AB930020F68A00203D
:10705000F58A0020F78A0020D1650020D065002045
:107060008B93002060930020F0B506460FF2BC0021
:107070000FF2BC0283B0354650F8250052F82520A7
:107080000C460121104303F02DFE1EB901211020F2
:1070900003F06BFE0FF2AC00DFF88C6030F81520C7
:1070A0000FF2980030F8151006EB8507D2B2786819
:1070B000FFF722F90FF2900030F815200FF2800050
:1070C00030F81510B868D2B2FFF716F900208DF825
:1070D000060000A901208DF8070002208DF80400A9
:1070E0000FF2500030F81500009002208DF80500D6
:1070F0007868FEF7C7FE02208DF8040000A90FF2A1
:10710000380030F815000090B868FEF7BBFE56F85E
:107110002500214600F006FE56F82500012100F06A
:10712000C8FE03B0F0BD0000C065002001000000F3
:10713000010000000002000000040000090000003F
:107140000A00000007000000070050F8041B61B1AE
:1071500050F8042BD30744BFA9F101039A18002368
:1071600042F8043B091FFAD1EFE7704700B5010070
:10717000DFF82C0283B001694FF400724FF6FF5321
:1071800008D019404161009201218DF804108DF85A
:10719000051005E019404161009200218DF80410AE
:1071A00000A9FEF76FFE03B000BD70B504460825C8
:1071B000DFF8EC61E4B2E0094FF40071304602D030
:1071C000FEF7BEFF01E0FEF7E7FF4FF480713046A7
:1071D000FEF7B6FF64004FF480713046FEF7DCFF27
:1071E0006D1EE7D14FF400713046FEF7D5FF4FF426
:1071F00080713046FEF7A4FF3046BDE870404FF482
:107200008071FEF7C9BF70B5DFF894514FF48071FB
:107210002846FEF7C1FF4FF400712846FEF790FFA5
:107220000020FFF7A3FF08264FF480712846FEF7E1
:1072300087FF4FF400712846FEF7C5FE40EA44047C
:10724000E4B24FF480712846FEF7A6FF761EEBD11C
:107250004FF400712846FEF79FFF0120FFF786FFDD
:10726000204670BD70B504460D464D4E4FF400717A
:107270003046FEF765FF0120FFF778FF4FF40071FD
:107280003046FEF75DFF4FF480713046FEF758FF41
:107290004FF400713046FEF77FFF4FF480713046A7
:1072A000FEF77AFFA020FFF780FF2004000EFFF713
:1072B0007CFFE0B29EE038B50446394D4FF40071D2
:1072C0002846FEF73DFF0120FFF750FF4FF4007105
:1072D0002846FEF735FF4FF480712846FEF730FF51
:1072E0004FF400712846FEF757FF4FF4807128468F
:1072F000FEF752FFA020FFF758FF2004000EFFF713
:1073000054FFE0B2FFF751FF4FF400712846FEF73B
:1073100017FF4FF480712846FEF712FF4FF40071FB
:107320002846FEF739FF4FF480712846FEF734FFF8
:10733000A120B2E038B50446194D4FF4007128463B
:10734000FEF7FEFE0120FFF711FF4FF40071284603
:10735000FEF7F6FE4FF480712846FEF7F1FE4FF47B
:1073600000712846FEF718FF4FF480712846FEF79B
:1073700013FFD020FFF719FF0A20FFF716FF204662
:10738000FFF713FF4FF400712846FEF705FF4FF497
:1073900080712846FEF7D4FE2846BDE834403BE025
:1073A0000004024070B504460D46014E02E000BFE5
:1073B000000402404FF400713046FEF7C1FE012088
:1073C000FFF7D4FE4FF400713046FEF7B9FE4FF4DC
:1073D00080713046FEF7B4FE4FF400713046FEF780
:1073E000DBFE4FF480713046FEF7D6FED020FFF76B
:1073F000DCFE2046FFF7D9FE2846FFF7D6FE4FF405
:1074000000713046FEF7C8FE4FF480713046FEF73B
:1074100097FE3046BDE870404FF40071FEF790BE15
:1074200038B50446004D01E0000402404FF40071FD
:107430002846FEF785FE0120FFF798FE4FF4007105
:107440002846FEF77DFE4FF480712846FEF778FE51
:107450004FF400712846FEF79FFE4FF480712846D6
:10746000FEF79AFED020FFF7A0FE2046FFF79DFE14
:107470004FF400712846FEF763FE4FF480712846F2
:10748000FEF75EFE4FF400712846FEF785FE4FF4CE
:1074900080712846FEF780FED120FFF786FEFFF7B9
:1074A000B2FE04464FF400712846FEF749FE4FF441
:1074B00080712846FEF744FE4FF480712846FEF79F
:1074C0006BFE4FF400712846FEF766FE4FF48071A4
:1074D0002846FEF735FE4FF400712846FEF730FED1
:1074E000204632BD64280CDA0A2190FBF1F10A0132
:1074F00050FA82F001EB8102A0EB4201C9B20820F0
:1075000050E7704701460D290DDA60B10A2091FB62
:10751000F0F0020151FA82F100EB8002A1EB42018E
:10752000C9B207203EE77047014620290DDA60B155
:107530000A2091FBF0F0020151FA82F100EB800287
:10754000A1EB4201C9B206202CE7704718280CDADB
:107550000A2190FBF1F10A0150FA82F001EB81025D
:10756000A0EB4201C9B204201CE770473C280CDAAA
:107570000A2190FBF1F10A0150FA82F001EB81023D
:10758000A0EB4201C9B203200CE770473C280CDA9B
:107590000A2190FBF1F10A0150FA82F001EB81021D
:1075A000A0EB4201C9B20220FCE6704703B581B0EE
:1075B00002210020FFF7F6FE9DF80400FFF792FF7E
:1075C0009DF80500FFF79EFF9DF80600FFF7ACFF52
:1075D0009DF80710082903DA11B10520FFF7E2FE34
:1075E0009DF80800FFF7B2FF9DF80900FFF7BEFF06
:1075F0009DF80A00FFF7CAFF00210020FFF7D2FE26
:1076000003B05DF804EB00210120CBE610B5044681
:1076100001210020FFF7C6FE0820FFF701FF010946
:1076200001EB810200F00F0000EB42002070072008
:10763000FFF7F6FEC0F3001101EB810200F00F002E
:1076400000EB420060700620FFF7EAFEC0F3011174
:1076500001EB810200F00F0000EB4200A07005205A
:10766000FFF7DEFE00F00700E0700420FFF7D8FE11
:10767000C0F3011101EB810200F00F0000EB4200AA
:1076800020710320FFF7CCFEC0F3021101EB810251
:1076900000F00F0000EB420060710220FFF7C0FE17
:1076A000C0F3021101EB810200F00F0000EB420079
:1076B000A0710021BDE81040002073E662B38B0783
:1076C00008D0521E11F8013B00F8013B00F0248065
:1076D0008B07F6D1830740F0208000BF103A07D314
:1076E00030B4B1E83810103AA0E83810F9D230BC04
:1076F000530724BFB1E80810A0E8081044BF51F8B0
:10770000043B40F8043BD20724BF31F8022B20F899
:10771000022B44BF0B7803707047083A07D3B1E8D7
:107720000810083A40F8043B40F804CBF7D253075E
:10773000E4E7000062F30F2262F31F42401810F0EA
:10774000030308D0C91A1FD3DB0748BF00F8012D77
:1077500028BF20F8022D130030B414461546103906
:1077600028BF20E93C00FAD8490728BF20E90C00CF
:1077700048BF40F8042D890028BF20F8022D48BFDB
:1077800000F8012D30BC7047C91818BF00F8012D52
:10779000CB0728BF00F8012D7047000030B585B039
:1077A000044600200290ADF80C00ADF810000C204B
:1077B000ADF80E0001A90FF2B010644D50F824008E
:1077C000019055F8240000F0ADFA55F8240001218D
:1077D00000F06FFB55F82400012240F2255100F023
:1077E0003DFC55F82400002240F2277100F036FCE1
:1077F0000FF2881030F814008DF8000000208DF88A
:1078000001008DF8020001208DF8030000A803F0AC
:1078100059FB05B030BD70B504464D4D94B00E46D1
:10782000284603F0E7FB4FF000600590079605A996
:1078300048480690402008901120099000200A90A6
:107840004FF480600B9004201090032011900020D2
:107850000C900D9012900E904FF440300F9000203D
:107860001390284603F0A3FC00221021284603F0C1
:10787000E5FE00200290ADF80C00ADF810000C20E1
:10788000ADF80E0001A90FF2E000304D50F82400D1
:10789000019055F8240000F045FA2F48012280217C
:1078A00000F09AFB55F82400012240F2255100F027
:1078B000D5FB0FF2C80030F814008DF8000000204E
:1078C0008DF801008DF8020001208DF8030000A85A
:1078D00003F0F8FA55F82400012100F0EAFA14B098
:1078E00070BDF8B504460D46194F164600213846BE
:1078F00003F087FD324629462046FFF7DFFE7E6013
:107900000121384603F07DFD384603F0D5FD0028FF
:10791000FAD13846BDE8F440104903F031BE10B545
:1079200004460B220F48FFF7C9FE0D480021C17025
:1079300001220B21417040F22771044850F82400C5
:10794000BDE8104000F08ABB000000008865002000
:10795000A060024004440040004400400000202099
:10796000C8930020038F00200000000000000000EA
:1079700000C2010000E1000000C2010000000000A0
:1079800026000000340000000348016811B10168BE
:10799000491E016070470000D093002082B0002192
:1079A00007E00099491C009100990529F9D3019934
:1079B000491C01910199814238BF0021F3D302B0E3
:1079C000704782B00021019144F2682108E0009ADA
:1079D000521C0092009A8A42F9D3019A521C0192D9
:1079E000019A824238BF0022F3D302B070470000F0
:1079F00002464FF480511948FEF7FABB10B5184CF7
:107A0000012204212046FEF7F3FB4FF47A70FFF7C2
:107A1000D8FF2046BDE8104000220421FEF7E8BB55
:107A200010B50E4C00224FF400412046FEF7E0FB5B
:107A30006420FFF7C6FF2046BDE8104001224FF446
:107A40000041FEF7D5BB024602210648FEF7D0BB37
:107A500001210448FEF7B7BA000000000008024008
:107A6000000C02400004024010B584B042F21070D5
:107A70000290A820ADF804000020ADF80C00ADF88D
:107A8000060001A91B4C204603F096FE012120466A
:107A900003F042FF01220121204604F09BF81E2042
:107AA0008DF8000000208DF801008DF80200012003
:107AB0008DF8030000A803F005FA0F4800210180AB
:107AC00041808180C18004B00C484170017010BDBC
:107AD0004FF400610A48FEF733BB074801210180DB
:107AE00070474FF400610648FEF756BB024800217C
:107AF0000180704700080040C0930020DA91002008
:107B00000018024030B583B005460C460B2100A892
:107B100004F054F902208DF80000290A80208DF825
:107B200001008DF8054000A8C1708570290C017115
:107B300003208DF80A007448007818B900A90420C1
:107B4000FFF7EDFE03B030BD00B583B002238DF822
:107B5000003087238DF8013000AB9870D970032076
:107B60008DF80A001A716848007818B900A9042035
:107B7000FFF7D5FE03B000BD2DE9F041634C20783E
:107B800060B9A062002260680121FEF731FBA068A5
:107B900001220221FEF72CFB01221AE001280BD161
:107BA000606801220121FEF723FBA0680022022168
:107BB000FEF71EFB01220CE002280ED160680122B4
:107BC0000121FEF715FBA06801220221FEF710FB40
:107BD0000022E0680421FEF70BFB00250FF23816A7
:107BE00004F110074FF0060836F8021B57F8040B93
:107BF000FEF7E9F9401E8041C00F690051FA80F597
:107C0000B8F10108F0D1A06A28B925B12078C000E8
:107C100005FA00F0A062606B32283CBF401C606334
:107C20002078022837D1A06A70B9394D286830B160
:107C300000202063E06228600021FFF763FF00203E
:107C40002063E062286026E0E16A814220D1216B56
:107C5000491C2163032909D12D4D616B286032290C
:107C600019D30021FFF74EFF00206063206BB0F5B1
:107C7000967F10D1FA212163A06A254D616B28609F
:107C8000322908D30121FFF73DFF0020606302E0A5
:107C900000212163E0622078401CC0B20328A8BF05
:107CA00000202070BDE8F08110B584B040F6C4100B
:107CB0000290A820ADF804000020ADF80C00ADF84B
:107CC000060001A9134C204603F076FD0121204651
:107CD00003F022FE01220121204603F07BFF322027
:107CE0008DF8000000208DF801008DF802000120C1
:107CF0008DF8030000A803F0E5F8054800210160B5
:107D000004B010BD00000000404E0020506500206F
:107D1000E4930020000C0040000400080010002044
:107D200000400080F0B50446DFF89472DFF8246369
:107D300085B00D46BC421CBFDFF88802844213D0D8
:107D4000DFF8840284421CBFDFF8800284420BD03B
:107D5000DFF87C0284421CBFDFF87802844203D043
:107D6000F1213046FEF79FFB286818B1DFF8E812D2
:107D7000884203D3F2213046FEF795FBA8880028FD
:107D800018BFB0F5805F03D0F3213046FEF78BFBC0
:107D9000E888002818BFB0F5805F09D0B0F5005F13
:107DA00018BFB0F5405F03D0F4213046FEF77BFBEF
:107DB000288900281CBFB0F5806FB0F5C06F03D0D4
:107DC000F5213046FEF76FFB68894FF6F3710842E4
:107DD00000D118B9F6213046FEF765FBA889F8B145
:107DE000B0F5807F1CBFB0F5007FB0F5407F05D0B7
:107DF000F7213046FEF757FBA88988B1BC421CBF6B
:107E0000DFF8C00184420BD0DFF8BC0184421CBF04
:107E1000DFF8C001844203D0FC213046FEF743FB6B
:107E2000208A4CF6FF710840E988084320824EF60C
:107E3000F311A0890840A988084329890843698962
:107E40000843A0814FF6FF41A08A0840A989084352
:107E5000A08200A802F0FFFEBC421BBFDFF8740145
:107E6000844203980298296819225043A289120477
:107E70004CBF49008900B0FBF1F16420B1FBF0F088
:107E800000010209642303FB1211A289120406D522
:107E9000C9003231B1FBF3F101F0070105E009013E
:107EA0003231B1FBF3F101F00F010843208105B03D
:107EB000F0BD38B50446DFF808010D4684421CBF0A
:107EC000DFF80001844215D0DFF8FC0084421CBFBB
:107ED000DFF8F80084420DD0DFF8F40084421CBFC4
:107EE000DFF8F000844205D040F2A1110FF26030BB
:107EF000FEF7D9FA5DB1012D05D00FF254304FF4E1
:107F0000D171FEF7D0FAA08940F4005003E0A089B7
:107F10004DF6FF710840A08131BD38B50446DFF849
:107F2000A0000D4684421CBFDFF89800844215D0A3
:107F3000DFF8940084421CBFDFF8900084420DD02B
:107F4000DFF88C0084421CBFDFF88800844205D033
:107F500040F223210FF2F820FEF7A5FAB5F5007FD5
:107F600005DB0FF2EC204FF40971FEF79CFAE805EF
:107F7000C00DA08031BD10B50446DFF84400844236
:107F80001CBFDFF84000844215D0DFF83C0084427B
:107F90001CBFDFF8380084420DD0DFF83400844283
:107FA0001CBFDFF83000844205D040F233210FF2CD
:107FB000A020FEF778FAA088C005C00D10BD000013
:107FC000001001400044004000480040004C0040C8
:107FD000005000400014014070B50446DFF858021C
:107FE0000D46164684421CBFDFF85002844215D06D
:107FF000DFF84C0284421CBFDFF8480284420DD0F7
:10800000DFF8440284421CBFDFF84002844205D0FE
:1080100040F241410FF23820FEF745FA4FF63F702B
:10802000054200D12DB940F242410FF22420FEF763
:108030003AFA56B1012E05D00FF2142040F2434116
:10804000FEF731FAA08A284301E0A08AA843A08263
:1080500070BD000050820008E1707200F8B505465E
:10806000DFF8D4710E461446BD421CBFDFF8CC01C8
:10807000854215D0DFF8C80185421CBFDFF8C40176
:1080800085420DD0DFF8C00185421CBFDFF8BC017E
:10809000854205D040F2C3410FF2B410FEF703FA57
:1080A000282E1CBF40F2277086421BD040F226606B
:1080B00086421CBF40F22550864213D040F2244035
:1080C00086421CBF40F6460086420BD040F66A103E
:1080D000864218BF602E05D040F2C4410FF27010E6
:1080E000FEF7E1F9002C18BF012C05D00FF260104B
:1080F00040F2C541FEF7D7F940F66A10864210D12A
:10810000BD421CBF4D4885420BD04D4885421CBF27
:108110004E48854205D040F2CA410FF23410FEF7B6
:10812000C2F93006012106F01F02400F91400128DC
:1081300008BF05F10C0005D002280CBF05F11000A6
:1081400005F114000268002C14BF114322EA01015A
:108150000160F1BDF8B504460026374F0D46BC421C
:108160001CBF3648844211D0354884421CBF354874
:1081700084420BD0344884421CBF3448844205D02A
:1081800040F256510FF2C800FEF78DF9282D1CBFA2
:1081900040F227718D4234D040F226618D421CBFDF
:1081A00040F225518D422CD040F224418D421CBF1B
:1081B00040F646018D4224D040F66A118D420FD020
:1081C000B5F5587F1CBF40F225318D4219D0B5F569
:1081D000187F18BFB5F5B07F13D040F257510CE0AF
:1081E000BC421CBF154884420BD0154884421CBFBA
:1081F0001648844205D040F25C510FF25400FEF75D
:1082000052F92806400F012105F01F0201FA02F27F
:10821000012808BFA08903D002280CBF208AA08AA9
:1082200010402A0A91402288114000281CBF0029D2
:1082300001263046F2BD000000100140004400401D
:1082400000480040004C0040005000400014014035
:10825000433A5C546F6F6C735C574C39465C574CB7
:108260005F465F4D6F6E69746F725F4150505C4C3A
:1082700069627261726965735C53544D333246347E
:1082800078785F5374645065726970685F4472698E
:108290007665725C7372635C73746D3332663478C6
:1082A000785F75736172742E6300000080B5DFF82B
:1082B000C415884214D0DFF8C015884204D0AB2121
:1082C000DFF8B805FEF7EFF801214FF0806002F00B
:1082D00090FD00214FF08060BDE8044002F089BDB0
:1082E00001214FF0007002F084FD00214FF000707A
:1082F000F2E7F8B504460026DFF87805DFF87C756C
:108300000D4684421CBFDFF87005844203D0CB21A8
:108310003846FEF7C8F8A879002818BF012803D00E
:10832000CC213846FEF7BFF8E879002818BF0128AD
:1083300003D0CD213846FEF7B6F8287A002818BFBA
:10834000012803D0CE213846FEF7ADF8687A002820
:1083500018BF012803D0CF213846FEF7A4F8A87A29
:10836000002818BF012803D0D0213846FEF79BF81B
:10837000E87A002818BF012803D0D1213846FEF73B
:1083800092F8A878002818BF012807D0022818BF43
:10839000032803D0D2213846FEF785F8E878002874
:1083A00018BF012807D0022818BF032803D0D32103
:1083B0003846FEF778F82879102803DBD4213846B0
:1083C000FEF771F86879082803DBD5213846FEF7F7
:1083D0006AF8288810B1B0F5806F03DDD6213846E1
:1083E000FEF761F8206820F002002060206840F06D
:1083F000010020604FF6FF70014600E0491E6268F0
:10840000D20701D40029F9D16168C90754D5A979E7
:10841000012921680CBF41F0800121F08001216019
:10842000E979012921680CBF41F0400121F04001A8
:108430002160297A012921680CBF41F0200121F037
:1084400020012160697A012921680CBF41F01001E7
:1084500021F010012160A97A012921680CBF41F0A7
:10846000080121F008012160E97A012921680CBF87
:1084700041F0040121F004012160EA78A978120694
:1084800042EA81712A7941EA02416A7941EA02515C
:108490002A88521E1143E161216849084900216080
:1084A00000E0401E6168C90701D50028F9D1606865
:1084B00000F0010080F001063046F2BD70B50446C0
:1084C000A07A1C2805DB40F253110FF2C030FDF7F3
:1084D000EAFFE07A002818BF012805D04FF4AA71FE
:1084E0000FF2A830FDF7DFFF207B002818BF01281E
:1084F00005D040F255110FF29430FDF7D4FF2089DA
:10850000002818BF012805D04FF4AB710FF27C3062
:10851000FDF7C9FF607B002818BF012805D040F295
:1085200057110FF26830FDF7BEFFA17A0120884095
:10853000DFF84C130A6842F001020A60C243CB69BB
:108540001340CB61237B9BB9CB681340CB60E5889C
:108550006688DFF8303346EA0545A67A43F8365098
:10856000A57A268803EBC503A58846EA05455D6024
:10857000237B012B13D1CB680343CB60258866880E
:10858000DFF8003346EA0545A67A43F83650A57A67
:10859000E68803EBC503A58846EA05455D60E37AF6
:1085A000002B4B680CBF134003434B60238913B966
:1085B0004B691A4003E0012B02D14A6902434A6128
:1085C000627B012A02D1CA691043C8610868400869
:1085D0004000086070BD00218171C171017241725B
:1085E0008172C1728170C1700321017102214171D8
:1085F00001210180704770B50546DFF878020C460E
:1086000085421CBFDFF88002854205D040F246213A
:108610000FF27820FDF747FF207A002818BF0428C2
:1086200005D040F247210FF26420FDF73CFF607A4D
:10863000002818BF022805D04FF412710FF24C2009
:10864000FDF731FFA07A092805DB40F249210FF23E
:108650003C20FDF728FFA86840011BD5002605EB4C
:108660000615D5F8800100F00100C5F88001207AD8
:10867000E0B92068B0F5006F05D340F263210FF236
:108680000C20FDF710FFD5F880012168627A42EADC
:1086900041511DE0A868000148BF0126DFD4A86849
:1086A000C00048BF0226DAD404263EE06068B0F17C
:1086B000005F05D340F269210FF2D010FDF7F3FE01
:1086C000D5F880016168227A42EAC101627A1143D9
:1086D0000843C5F88001A07A00F00F00A07205F5EC
:1086E000C07041680909090141604168A27A1143DB
:1086F0004160627BA17B120442EA0161227B41EA74
:108700000221E27A11438160627CA17C120442EA78
:108710000161227C41EA0221E27B1143C160D5F86C
:10872000800140F00100C5F88001304670BDF8B509
:108730000446DFF840010D46164684421CBFDFF8B0
:108740004801844205D040F2F2210FF24010FDF7BB
:10875000AAFE2F0018BF012D05D00FF2301040F2F5
:10876000F321FDF7A0FE04EB0510D0F8B011317233
:10877000317A4907D0F8B01159BF490D3160C908A5
:108780007160D0F8B01101F00201717200F5D8707B
:10879000416801F00F01B1724168090AF174816802
:1087A000F1728168090A31738168090C71738168FB
:1087B000090EB173C168F173C168090A3174C168E7
:1087C000090C7174C068000EB07425B9E06840F0FF
:1087D0002000E060F1BD206940F020002061F1BD83
:1087E00070B5044623480D46164684421CBFDFF888
:1087F0009800844205D04FF4A2610FF29000FDF77B
:1088000052FE012D18BF022D24D0042D18BF082DB3
:1088100020D0102D18BF202D1CD0402D18BFB5F52D
:10882000807F17D0B5F5007F18BFB5F5806F11D0E8
:10883000B5F5006F18BFB5F5004F0BD0B5F5803F0B
:1088400018BFB5F5003F05D00FF2400040F21151BE
:10885000FDF729FE56B1012E05D040F212510FF25C
:108860002C00FDF720FE6069284301E06069A84301
:10887000606170BD00640040006800408C880008A2
:10888000006600404066004000680040433A5C5487
:108890006F6F6C735C574C39465C574C5F465F4D4D
:1088A0006F6E69746F725F4150505C4C69627261A7
:1088B000726965735C53544D3332463478785F5334
:1088C00074645065726970685F4472697665725C41
:1088D0007372635C73746D3332663478785F63618E
:1088E0006E2E6300F8B57448007A4FF4800420B10E
:1088F000724D286840F4E00028601726704F6F4DD5
:108900002868204214BF012200224FF4004138465B
:10891000FDF76EFC01224FF480413846FDF768FCFC
:108920000120FFF74EF800224FF480413846FDF752
:108930005FFC6408761EE3D101224FF400513846F3
:10894000FDF756FC0120FFF73CF800224FF40051E0
:108950003846FDF74DFC0120FFF733F83846BDE8F7
:10896000F84001224FF40051FDF742BC524800216B
:10897000C160017801F003035A1E9241D243D20F25
:10898000C260C1F3810202B10222C368D218C26080
:10899000C1F3011303B104239A18C260890918BFF7
:1089A000082189184278C16003231A4214BF10239A
:1089B00000235918C160C2F3810303B12023591861
:1089C000C160C2F3011303B140235918C160920979
:1089D00018BF802251188278C16003231A4214BF45
:1089E0004FF4807300235918C160C2F381030BB1A7
:1089F0004FF400735918C160C2F301130BB14FF467
:108A000080635918C160920918BF4FF40062511871
:108A1000C278C16003231A4214BF4FF4805300236D
:108A20005918C160C2F381030BB14FF400535918B8
:108A3000C160C2F301130BB14FF480435918C160F8
:108A4000920918BF4FF4004251180279C160032304
:108A50001A4214BF4FF4803300235918C160C2F387
:108A600081030BB14FF400335918C160C2F30113F5
:108A70000BB14FF480235918104BC1609209426327
:108A800019600272704710B50D4C01224FF48051ED
:108A90002046FDF7ADFB0A20FEF793FF00224FF4BE
:108AA00080512046FDF7A4FB04486FF07F41016030
:108AB000BDE8104016E70000DC910020389300204C
:108AC0000004024002464FF400416A48FDF790BBA3
:108AD000024610216848FDF78BBB10B504462246BC
:108AE00080216548FDF784FB6448047010BD0FF2D7
:108AF000A012624932F8102048704A80104610B522
:108B000086B07021ADF8001002900121ADF802107E
:108B10000421ADF804100221ADF80C100021ADF8CD
:108B20000E104FF48071ADF810100021ADF8121046
:108B300000A9534C204602F045FF0121204602F0D7
:108B4000EBFE0121204603F021F806B010BD30B540
:108B500089B01020ADF81400FA210020ADF81600FD
:108B6000474C48480068B0FBF1F0401E80B20690C8
:108B700005A90020ADF81C008DF81E00204602F06B
:108B80001BFE7020ADF8000041F27F350120ADF8EA
:108B9000020002950420ADF8040000A90220ADF8FF
:108BA0000C000020ADF80E004FF48070ADF81000FE
:108BB0000020ADF81200204602F004FF01212046FB
:108BC00002F0AAFE0121204602F0E0FF4FF47A7085
:108BD000FEF7F7FE294806214170458009B030BDF7
:108BE00038B5294C244D01280DD100224FF40071D5
:108BF0002846FDF7FDFA0A20FEF7E3FE01224FF4B6
:108C0000807120460CE000224FF480712046FDF771
:108C1000EFFA0A20FEF7D5FE01224FF40071284634
:108C2000BDE83840FDF7E4BA18480078FBF77CBF90
:108C300080B516490870FF2808BF002003D0012125
:108C4000FCF74CF80120BDE80240C9E780B540F6CA
:108C5000B830FEF7B6FE0020FFF7C2FFFFF777FF40
:108C6000002280210448FDF7C3FA04480021017066
:108C700001BD00000018024000080240E0930020FF
:108C800000040140AC65002000000240D0650020D7
:108C9000FE403E377E2DFE267F20FF197F13FF0CFE
:108CA00000000000F8B5344F384603F08AF8044657
:108CB000381D03F086F8054607F1080003F081F837
:108CC000064607F10C0003F07CF823782B492C4A68
:108CD000002B40D12B6802FB03132B60082702FBFB
:108CE00003132B6002FB03132B6002FB03132B60A7
:108CF00002FB03132B6002FB03132B6002FB031325
:108D00002B6002FB03132B600346D5F800C002FB67
:108D10000C1CC5F800C043F804CB7F1ED5F800C07A
:108D200002FB0C1CC5F800C043F804CBD5F800C00A
:108D300002FB0C1CC5F800C043F804CBD5F800C0FA
:108D400002FB0C1CC5F800C043F804CBDDD1C36F97
:108D50003360012323702B6802FB031129603178F3
:108D600001F01F0150F8212032602A6840F82120CC
:108D7000306880008008F2BD746400205FF36E3CB0
:108D80000D66190030B4014600200023724A01F03C
:108D900001049D56AC402043C9035B1C090C01F043
:108DA00001049D56AC40204349085B1C01F00104BE
:108DB0009D56AC40204349085B1C01F001049D56C0
:108DC000AC40204349085B1C102BE0DB30BC7047F3
:108DD00010B582B00C46FFF7D5FF604000905F48A9
:108DE000BDF8001001F00F0130F82110ADF80010AF
:108DF0009DF8021001F00F0100EB81004088ADF8F2
:108E00000200BDF80010484016BD81B00090C1F1CD
:108E10001000BDF8002002FA01F302411A43ADF838
:108E20000020BDF8022042FA01F102FA00F00843E6
:108E3000ADF80200009801B070472DE9F8430446F0
:108E40000D469146CDB16D1E2788B4F802800026EC
:108E500031464846FFF7D9FF01464046FFF7B8FFC5
:108E6000784080B247468046761C082EF0DB24F816
:108E7000027B24F8028B002DE5D10020BDE8F283AF
:108E80002DE9F04780460E469246DEB1761EB8F8D0
:108E90000050B8F8029008277F1E39465046FFF769
:108EA000B4FF2C460146A0B2FFF792FF80EA09000A
:108EB00085B2A146012FEFDA28F8025B28F8029B61
:108EC000002EE3D10020BDE8F08741EA00402449AC
:108ED000086070472DE9F0410F4614463D46AE103C
:108EE00017F0030818BF761C3A4601462046FEF7E5
:108EF000E5FBB8F1000F04D0381D07F00301471A55
:108F00003FB20020791B012906DB421900231355CB
:108F1000401C00B28842F8DB114802683146204606
:108F2000FFF78BFF78B2BDE8F08138B50C461546E7
:108F300003210C4202D04FF0FF3032BD22460146E1
:108F40002846FEF7BBFB06480268A1102846FFF73B
:108F500097FF60B232BD000088C50008ACC40008AD
:108F6000CC65002030B5DFF854448BB02046FFF7C5
:108F70009DF9DFF84C542846FFF798F901A8FFF750
:108F80002AFB0020ADF80A000390ADF8060001A905
:108F90000D208DF8080005208DF809000420ADF89B
:108FA00004002046FFF7A5F90020ADF81600069052
:108FB000ADF8120004A90D208DF8140005208DF8DD
:108FC00015000820ADF810002846FFF792F90020A0
:108FD000ADF8260001208DF82800002007900890A9
:108FE000ADF8240001208DF8290007A8FFF766FAE4
:108FF00014208DF8000000208DF801008DF802008B
:1090000001208DF8030000A801F05CFF0BB030BD1B
:1090100038B5DFF8B04300202074E061002106205D
:1090200020706182002060702175FF20A0700822EE
:109030002820207100206074DFF88C030180DFF8A5
:109040008C03017004F12000A061FF2104F12800CD
:1090500002F0B8FE0822FF2104F1300002F0B2FE57
:109060000822FF2104F1380002F0ACFE0822FF21A3
:1090700004F1400002F0A6FE0822FF2104F148009E
:1090800002F0A0FE0822FF2104F1500002F09AFE37
:109090000822FF2104F1700002F094FE0822FF2153
:1090A00004F1080002F08EFE002020730822FF2148
:1090B00004F1880002F086FE0822FF2104F19000EE
:1090C00002F080FE0822FF2104F1980002F07AFEEF
:1090D0000822FF2104F1A00002F074FE0822FF2103
:1090E00004F1A80002F06EFE0822FF2104F1B00096
:1090F00002F068FE0822FF2104F1B80002F062FECF
:1091000004F5A8750822FF21284602F05BFE102214
:10911000FF2104F1780002F055FE1522FF2104F131
:10912000580002F04FFE0822FF2104F1C00002F0B7
:1091300049FE1522FF2104F1C80002F043FE082277
:10914000FF2104F1D00002F03DFE0D22FF2104F1C9
:10915000D80002F037FE0822FF2104F1E80002F0F7
:1091600031FE0822FF2104F1F00002F02BFE08225C
:10917000FF2104F1F80002F025FE0822FF2104F58A
:10918000807002F01FFE0822FF2104F5847002F0B7
:1091900019FE0822FF2104F5887002F013FEFF2259
:1091A000082104F58C7002F017FEFF22082104F557
:1091B000907002F011FEFF22082104F5947002F075
:1091C0000BFEFF22082104F5987002F005FEFF2235
:1091D00008217F4802F000FEFF22162104F59C7052
:1091E00002F0FAFDFF220821284602F0F5FDFF22D9
:1091F00008217848FEF79EFA774CA52202212046E6
:10920000FEF798FAA01CBDE83840F0220221FEF7D4
:1092100091BA17B59DF80200704C2F2811D0207814
:1092200000EB400304EB83000C2200A9801CFEF736
:1092300045FA2078401C2070C0B2FF2806D10020DB
:1092400000E101A80CC804F6F8310CC103B010BD50
:1092500063480188491C0180052289B291FBF2F222
:1092600002EB8202891A00D0704710B501805D4C74
:1092700060782178814217D000EB00100019811C22
:1092800011225948FEF72DFB5848D0E90023521C03
:1092900043F10003C0E900236078401C6070C0B255
:1092A000FF2804BF0020607010BD30B5504CB4F8EA
:1092B0006800401CA4F8680085B0C0073FD4474D43
:1092C0006878297881423AD000EB400105EB8100B3
:1092D000C2788178120402EB0161027901EB02216C
:1092E000427989180191082204218DF80810002183
:1092F0008DF8091008218DF80A1000A98379CB7226
:10930000401C491C521EF9D100A92C48FFF773F9E3
:109310002070042809D06878401C6870C0B2FF280B
:109320000DD10020687005B030BD61780A19107148
:10933000481C6070C0B26528A4BF0020607005B0F2
:1093400030BD0FB410B5274C207800EB0010001989
:1093500002218170F521207800EB0010001908220D
:10936000C1700821207800EB001000190171002164
:10937000207800EB0010001941740321207800EBE5
:109380000010001981742078039900EB0010001977
:10939000C0F805100DF11301207800EB0010001942
:1093A0000930FEF78BF92078401C2070C0B2FF28EE
:1093B00004BF0020207010BC5DF814FB0064004066
:1093C000006800401890002076930020A9930020A8
:1093D000C0820020AC9300208C930020C87600202F
:1093E00012930020D465002060930020D8930020C1
:1093F0007091002010B583B018208DF80000FF2078
:109400008DF801002F208DF8020028208DF8030030
:1094100001A9014C02E000BFC876002004F6F83034
:109420000CC80CC1207800EB400304EB83000C2235
:1094300000A9801CFEF742F92078401CC0B2FF282A
:1094400008BF0020207003B010BD000038B50446EE
:1094500000F0D9F8DFF8CC54002210212846FCF7A0
:10946000C7FED82000F0A5F82002000E00F0A1F8F9
:109470002004000E00F09DF8E0B200F09AF80122FE
:1094800010212846FCF7B4FEBDE83140CCE02DE9C0
:10949000F84304460F46164600F0B5F8DFF884940A
:1094A000002210214846FCF7A3FE022000F081F8BC
:1094B0003802000E00F07DF83804000E00F079F854
:1094C000F8B200F076F82EB3012794F8008000255A
:1094D000761E002220214846FCF78AFEC5F10700CF
:1094E00007FA00F04146014214BF01220022802108
:1094F0004846FCF77DFE012220214846FCF778FE15
:1095000040214846FCF75FFD6D1C082DE1DB641C23
:10951000002EDAD1012210214846FCF769FEBDE891
:10952000F14381E02DE9F84380460F461646DFF807
:10953000F493002210214846FCF75AFE032000F065
:1095400038F83802000E00F034F83804000E00F04D
:1095500030F8F8B200F02DF83EB3012700240025C2
:10956000761E002220214846FCF742FEC5F1070086
:1095700007FA00F010F0A50014BF0122002280219C
:109580004846FCF735FE012220214846FCF730FE14
:1095900040214846FCF717FD6D1C40EA4404082DA5
:1095A000DFDB08F8014B002ED8D14846BDE8F84370
:1095B00036E02DE9F0410446002500260127DFF8BA
:1095C0006483002220214046FCF712FEC6F107000A
:1095D00007FA00F0044214BF012200228021404615
:1095E000FCF706FE012220214046FCF701FE402147
:1095F0004046FCF7E8FC761C40EA4505082EE0DB17
:10960000E8B2BDE8F08110B5C64C0022102120461A
:10961000FCF7EEFD0620FFF7CCFF2046BDE810402A
:1096200001221021FCF7E4BDF8B5BE4C0022102148
:109630002046FCF7DDFD0520FFF7BBFF01250026D6
:109640000027002220212046FCF7D2FDC7F10700A9
:1096500005FA00F010F0A50014BF012200228021BD
:109660002046FCF7C5FD012220212046FCF7C0FD65
:1096700040212046FCF7A7FC7F1C40EA4606082F45
:10968000DFDBF007DBD42046BDE8F840C8E710B4C4
:10969000002261B10FF29C2310F8014B5440E4B258
:1096A00033F8144084EA222292B2491EF4D110BC4D
:1096B0001046704710B5012210219A48FCF798FD1A
:1096C000994C01224FF400612046FCF791FD2046A1
:1096D000BDE8104001224FF48061FCF789BD10B550
:1096E000012944D1012805D0C0F08A80032812D076
:1096F0001CD310BD8D4C207C30B94FF42020FFF7D7
:10970000A5FE0120207478E08948B0F801008002AD
:1097100000F5202042E08548007C002844D08448A1
:10972000B0F80100800200F5202048E04FF47410EA
:10973000FFF78CFE4FF47810FFF788FE7C487B4CD7
:10974000B0F801102173080A607306224FF47411F7
:1097500004F10800FFF79BFE06224FF4781104F194
:109760000800FFF794FE06224FF478113EE001282E
:1097700004D045D3032814D024D310BD6B4C207CD7
:1097800030B94FF48030FFF761FE0120207434E0DF
:109790006748B0F80100800200F58030BDE8104055
:1097A00051E06248007C20B9604801210174032027
:1097B00023E05F48B0F80100800200F58030BDE88A
:1097C000104080E04FF47C10FFF740FE5848574CA3
:1097D000B0F801102171080A607106224FF47C1163
:1097E0002046FFF754FE06224FF47C1104F11400CA
:1097F000FFF798FE002020740220BDE810400FE023
:1098000010BD00B583B002218DF8001000AA4849B0
:10981000B1F80130B1F801105370090A91700AE0F3
:1098200000B583B002218DF800108DF8020086216A
:1098300003208DF801108DF80A0000A90420FEF71E
:109840006EF803B000BD38B50446394D4FF4806161
:10985000E81CFFF71CFFB5F8031488422ED1062040
:10986000FFF7CFFF4FF480722146E81CFFF70FFE91
:109870004FF4807204F5807105F20310FFF707FEC4
:109880004FF4807204F5007105F20320FFF7FFFD2D
:109890004FF4807204F5407105F20330FFF7F7FDD5
:1098A000224D4FF48062214605F11C00FFF73AFE7D
:1098B000287C022806D10020287431BD1520BDE87F
:1098C00032409EE731BD70B50446194D4FF48061BA
:1098D000E81CFFF7DCFE154EB5F8031470828842D1
:1098E0001CD1FF224FF4806106F11C0002F074FAD3
:1098F0004FF48062214606F11C00FFF713FE4FF47F
:109900008062E91C06F11C0002F084FA30B9307C58
:10991000022804BF00203074062000E01520BDE8B6
:1099200070406EE70000024000080240304E002008
:10993000D08600200000C1C081C1400101C3C00326
:10994000800241C201C6C006800741C70005C1C5EB
:1099500081C4400401CCC00C800D41CD000FC1CFAB
:1099600081CE400E000AC1CA81CB400B01C9C0099B
:10997000800841C801D8C018801941D9001BC1DB3B
:1099800081DA401A001EC1DE81DF401F01DDC01DEB
:10999000801C41DC0014C1D481D5401501D7C0170B
:1099A000801641D601D2C012801341D30011C1D11B
:1099B00081D0401001F0C030803141F10033C1F35B
:1099C00081F240320036C1F681F7403701F5C035EB
:1099D000803441F4003CC1FC81FD403D01FFC03FAB
:1099E000803E41FE01FAC03A803B41FB0039C1F99B
:1099F00081F840380028C1E881E9402901EBC02BFB
:109A0000802A41EA01EEC02E802F41EF002DC1EDEA
:109A100081EC402C01E4C024802541E50027C1E70A
:109A200081E640260022C1E281E3402301E1C0211A
:109A3000802041E001A0C060806141A10063C1A31A
:109A400081A240620066C1A681A7406701A5C065EA
:109A5000806441A4006CC1AC81AD406D01AFC06FAA
:109A6000806E41AE01AAC06A806B41AB0069C1A99A
:109A700081A840680078C1B881B9407901BBC07B3A
:109A8000807A41BA01BEC07E807F41BF007DC1BDEA
:109A900081BC407C01B4C074807541B50077C1B70A
:109AA00081B640760072C1B281B3407301B1C0711A
:109AB000807041B00050C190819140510193C053DA
:109AC000805241920196C056805741970055C195EA
:109AD00081944054019CC05C805D419D005FC19FAA
