:020000040800F2
:1040000058A6002021BD0008ADA50008AFA50008F6
:10401000B1A50008B3A50008B5A500080000000080
:10402000000000000000000000000000B7A500082C
:10403000B9A5000800000000BBA50008BDA5000848
:1040400061BD000865BD000869BD00086DBD0008C0
:1040500071BD000875BD000879BD00087DBD000870
:1040600081BD000885BD000889BD00088DBD000820
:1040700091BD000895BD000899BD00089DBD0008D0
:10408000A1BD0008A5BD0008A9BD0008ADBD000880
:1040900027A60008B5BD0008B9BD0008BDBD0008D1
:1040A000C1BD0008C5BD0008C9BD0008CDBD0008E0
:1040B000D1BD0008D5BD0008BFA60008DDBD0008C1
:1040C000E1BD0008E5BD0008E9BD0008EDBD000840
:1040D000F1BD0008F5BD000829A70008FDBD0008D6
:1040E00001BE000805BE000809BE00080DBE00089C
:1040F00011BE000815BE000819BE00081DBE00084C
:1041000021BE000825BE000815A700082DBE000826
:104110003BA8000835BE000839BE00083DBE0008B7
:1041200041BE000845BE000849BE00084DBE00085B
:1041300051BE000855BE000859BE00085DBE00080B
:1041400061BE000865BE000869BE00086DBE0008BB
:1041500071BE000875BE000879BE00087DBE00086B
:1041600081BE000885BE000889BE00088DBE00081B
:1041700091BE000895BE000899BE00089DBE0008CB
:10418000A1BE0008A5BE00081CB501F077FE0F23F4
:104190000F220221032000F00DFA1F2001900023BE
:1041A0002D2000901A461146032001F04DFD1F20DE
:1041B000019000232D2000901A460121032001F0D8
:1041C00043FD1F20019000232D2000901A4602215C
:1041D000032001F039FD1F20019000232D200090C5
:1041E00003211A46084601F02FFD1F2000900022EF
:1041F0002D231146032001F0A6FDF02310220221F9
:10420000032000F0D7F9502000901022DFF8BC4ABC
:1042100004F108030221032000F06DFA20798009DF
:1042200028D12020009004F15803602202210320AD
:1042300000F061FA2020009004F17803802202212E
:10424000032000F058FA2020009004F17803A02207
:104250000221032000F04FFA2020009004F178039F
:10426000C0220221032000F046FA2020009004F131
:10427000780324E02020009004F1980360220221BA
:10428000032000F038FA20200090B8342346802222
:104290000221032000F02FFA202000902346A022C4
:1042A0000221032000F027FA202000902346C0229C
:1042B0000221032000F01FFA202000902346E02274
:1042C0000221032000F017FA13BD2DE9F041DFF8B9
:1042D000FC49DFF8FC89A0700E46207940F004000C
:1042E000207115464FF48051404601F055FFDFF82C
:1042F000E4794FF48041384601F022FF4FF4005139
:10430000384601F01DFF4FF40051404601F044FFD4
:104310004FF48061384601F03FFF4FF4805138463A
:1043200001F00EFF002000F0A0FB384601F0DAFE9D
:1043300000F47F4046EA0001384601F0B8FF4FF430
:104340008051404601F0FCFE4FF48051404601F0A0
:1043500023FF002000F089FB384601F0C3FE00F483
:104360007F4045EA0001384601F0A1FF4FF40051BB
:10437000384601F011FF4FF40051384601F0E0FEDD
:104380004FF48051404601F007FF4FF4804138461A
:1043900001F0D6FE4FF40051384601F0D1FE4FF443
:1043A0000051404601F0F8FE4FF48061384601F0BC
:1043B000C7FE4FF48051384601F0C2FE002000F0E5
:1043C00054FB384601F08EFE40F0FF01384601F004
:1043D0006EFF207900F0FB002071BDE8F0812DE92F
:1043E000F041DFF8E858DFF8E868A8700F46287950
:1043F00040F00400287114464FF48051304601F01B
:10440000CBFEDFF8D0884FF48041404601F098FEA3
:104410004FF40051404601F093FE4FF400513046F6
:1044200001F0BAFE4FF48061404601F0B5FE4FF452
:104430008051404601F084FE002000F016FB40460B
:1044400001F050FE00F47F4047EA0001404601F0D1
:104450002EFF4FF48051304601F072FE4FF4805130
:10446000304601F099FE2778002000F0FEFA404621
:1044700001F038FE00F47F4047EA0001404601F0B9
:1044800016FF4FF40051404601F086FE4FF40051F4
:10449000404601F055FE6778002000F0E6FA4046FD
:1044A00001F020FE00F47F4047EA0001404601F0A1
:1044B000FEFE4FF40051404601F06EFE4FF40051F5
:1044C000404601F03DFEA778002000F0CEFA4046BD
:1044D00001F008FE00F47F4047EA0001404601F089
:1044E000E6FE4FF40051404601F056FE4FF40051F5
:1044F000404601F025FEE778002000F0B6FA40467D
:1045000001F0F0FD00F47F4047EA0001404601F071
:10451000CEFE4FF40051404601F03EFE4FF40051F4
:10452000404601F00DFE2479002000F09EFA40463E
:1045300001F0D8FD00F47F4044EA0001404601F05C
:10454000B6FE4FF40051404601F026FE4FF40051F4
:10455000404601F0F5FD4FF48051304601F01CFE5D
:104560004FF48041404601F0EBFD4FF400514046CE
:1045700001F0E6FD4FF40051304601F00DFE4FF41E
:104580008061404601F0DCFD4FF48051404601F06F
:10459000D7FD002000F069FA404601F0A3FD40F08D
:1045A000FF01404601F083FE287900F0FB002871EE
:1045B000BDE8F0812DE9F843DFF81047DFF81087F8
:1045C000A0700F46207940F00400207191461E46ED
:1045D0004FF48051404601F0DFFDDFF8F8564FF40C
:1045E0008041284601F0ACFD4FF40051284601F00F
:1045F000A7FD4FF40051404601F0CEFD2FB94FF416
:104600008051284601F0C8FD13E0012F0AD14FF474
:104610008051284601F0C0FD4FF48061284601F02A
:104620008FFD0BE0022F09D14FF48051284601F095
:1046300087FD4FF48061284601F0AEFD002000F0B8
:1046400014FA284601F04EFD00F47F4049EA0001CB
:10465000284601F02CFE4FF48051404601F070FDD9
:104660004FF48051404601F097FD002000F0FDF925
:10467000284601F037FD00F47F4046EA0001284655
:1046800001F015FE4FF40051284601F085FD4FF46E
:104690000051284601F054FD4FF48051404601F08E
:1046A0007BFD4FF48041284601F04AFD4FF4005154
:1046B000284601F045FD4FF40051404601F06CFDE5
:1046C0004FF48061284601F03BFD4FF480512846AD
:1046D00001F036FD002000F0C8F9284601F002FD87
:1046E00040F0FF01284601F0E2FD207900F0FB00D8
:1046F0002071BDE8F1832DE9F843DFF8D055DFF8EC
:10470000D085A8700F46287940F00400287114461F
:104710001E464FF48051404601F03EFDDFF8B4954F
:104720004FF48041484601F00BFD4FF400514846DC
:1047300001F006FD4FF40051404601F02DFD2FB968
:104740004FF48051484601F027FD13E0012F0AD1B4
:104750004FF48051484601F01FFD4FF480614846F8
:1047600001F0EEFC0BE0022F09D14FF480514846D6
:1047700001F0E6FC4FF48061484601F00DFD002099
:1047800000F073F9484601F0ADFC00F47F4044EAC4
:104790000001484601F08BFD4FF48051404601F086
:1047A000CFFC4FF48051404601F0F6FC089CA4B2C7
:1047B000D4B116F8017B002000F057F9484601F00B
:1047C00091FC00F47F4047EA0001484601F06FFD8C
:1047D0004FF40051484601F0DFFC4FF400514846C9
:1047E00001F0AEFC641EE4D14FF48051404601F06C
:1047F000D3FC4FF48041484601F0A2FC4FF4005135
:10480000484601F09DFC4FF40051404601F0C4FCC5
:104810004FF48061484601F093FC4FF480514846C4
:1048200001F08EFC002000F020F9484601F05AFC0F
:1048300040F0FF01484601F03AFDFFE7287900F01B
:10484000FB002871BDE8F1832DE9F041DFF87C44DD
:10485000DFF87C74A0700E46207940F004002071CF
:1048600015464FF48051384601F096FCDFF8648419
:104870004FF48041404601F063FC4FF40051404644
:1048800001F05EFC4FF40051384601F085FC2EB972
:104890004FF48051404601F07FFC13E0012E0AD115
:1048A0004FF48051404601F077FC4FF48061404660
:1048B00001F046FC0BE0022E09D14FF48051404636
:1048C00001F03EFC4FF48061404601F065FC0020A1
:1048D00000F0CBF8404601F005FC00F47F4045EACB
:1048E0000001404601F0E3FC4FF48051384601F0EE
:1048F00027FC4FF48051384601F04EFC4FF48041C4
:10490000404601F049FC012000F0AFF8404601F0BC
:10491000BBFB05464FF48041404601F011FC4FF4CB
:104920008051384601F038FC4FF48041404601F098
:1049300007FC4FF40051404601F002FC4FF40051D7
:10494000384601F029FC4FF48061404601F0F8FB45
:104950004FF48051404601F0F3FB207900F0FB005A
:104960002071E8B2BDE8F081F8B5DFF86043DFF808
:104970006053A0704FF48051207940F00400207102
:10498000284601F009FCDFF84C634FF480413046C3
:1049900001F0D6FB4FF40051304601F0D1FB4FF44B
:1049A0000051284601F0F8FB4FF48061304601F0D9
:1049B000F3FB4FF48051304601F0C2FB002000F0C1
:1049C00054F8304601F08EFB00F47F4040F00A01BD
:1049D000304601F06CFC4FF48051284601F0B0FBEA
:1049E0004FF48051284601F0D7FB002000F03DF83D
:1049F000304601F077FB40F0FF01304601F057FCF4
:104A00004FF48041304601F0C7FB012000F02DF843
:104A1000304601F039FB07464FF48041304601F043
:104A20008FFB4FF48051284601F0B6FB4FF48041D4
:104A3000304601F085FB4FF40051304601F080FB19
:104A40004FF40051284601F0A7FB4FF48061304637
:104A500001F076FB4FF48051304601F071FB207974
:104A600000F0FB002071F8B2F2BD00B583B018B9B8
:104A7000FF200090012004E0012811D1FF200090C8
:104A800000208DF8040000A902208DF80500002008
:104A90008DF8060001208DF807008E4801F0F2F92C
:104AA00003B000BD1CB50020009000238A4C019487
:104AB00064224121032000F0B5FF0020009003464E
:104AC000019464221421032000F0ACFF0020009028
:104AD0000346019464226E21032000F0A3FF00200E
:104AE0000090034601942D221421032000F09AFF28
:104AF00000200090034601942D226E21032000F037
:104B000091FF0020009003460194A5221421032068
:104B100000F088FF0020009003460194A5226E213A
:104B2000032000F07FFF13BD2DE9FC410746002262
:104B300000210320FFF788FE0646102200210320F3
:104B4000FFF782FE0446202200210320FFF77CFEAF
:104B50000546302200210320FFF776FE8046FFF74E
:104B6000A1FF57B9802E16D1DFF8A00E01900023C7
:104B70000020009064224121A3E0012F02D1802C6B
:104B800009D1F1E7022F01D1802DF9E7032F0AD1D6
:104B9000B8F1800FE8D05048019000230020009029
:104BA000642241218DE0042F17D1802E14BF4A4882
:104BB000DFF8580E01900023002000906422142199
:104BC000032000F02FFF802C2BD1DFF8400E019046
:104BD000002300200090642272E0052F0FD1802E68
:104BE0002AD1DFF8280E01900023002000906422D3
:104BF0001421032000F016FF802D12D1E5E7062FC7
:104C000016D1802E23D1DFF8040E0190002300205E
:104C1000009064221421032000F004FFB8F1800FFB
:104C2000D3D02D480190002300200090642247E05B
:104C3000072F03D1802CD4D02748D4E7082F02D1E6
:104C4000802C04D1DFE7092F03D1802DDBD022484F
:104C5000DBE70A2F38D1802E14BF1F48DFF8AC0DD8
:104C600001900023002000902D221421032000F049
:104C7000D9FE802C14BF1848DFF8900D0190002356
:104C8000002000902D226E21032000F0CBFE802D0D
:104C900014BF1148DFF8740D01900023002000902C
:104CA000A5221421032000F0BDFEB8F1800F14BF2F
:104CB0000948DFF8580D0190002300200090A5223C
:104CC0006E21032000F0AEFEBDE8F3819463002066
:104CD000000C0240001802400000002000B583B024
:104CE000002861D1A1B11F20019000222D20009049
:104CF00000231146032000F0A7FFDFF8140D0190F8
:104D00000522002000900346A221032000F08AFE25
:104D10000123802200210320FFF74CFCFF23812286
:104D200000210320FFF746FCFF23822200210320FD
:104D3000FFF740FCFF23832200210320FFF73AFC0A
:104D4000FF23842200210320FFF734FC802310225C
:104D500001210320FFF72EFC01231822012103204B
:104D6000FFF728FC0223202201210320FFF722FC69
:104D70000323282201211846FFF71CFC00233022C0
:104D800001210320FFF716FCB0233122012103206B
:104D9000FFF710FC0023322201210320FFF70AFC59
:104DA0007823332200F010BE012861D1A1B11F2069
:104DB000019000222D20009000231146032000F0D6
:104DC00043FFDFF8500C01900522002000900346BD
:104DD000A221032000F026FE41239022002103207F
:104DE000FFF7E8FBFF23912200210320FFF7E2FBFE
:104DF000FF23922200210320FFF7DCFBFF239322F5
:104E000000210320FFF7D6FBFF239422002103207B
:104E1000FFF7D0FB0023102201210320FFF7CAFB7C
:104E20008123182201210320FFF7C4FB0223202243
:104E300001210320FFF7BEFB0323282201210320C9
:104E4000FFF7B8FB0023342201210320FFF7B2FB58
:104E5000B023352201210320FFF7ACFB00233622CB
:104E600001210320FFF7A6FB7823372200F0ACBD19
:104E7000022861D1A1B11F20019000222D200090B5
:104E800000231146032000F0DFFEDFF88C0B0190B9
:104E90000522002000900346A221032000F0C2FD5D
:104EA0008123A02200210320FFF784FBFF23A122FE
:104EB00000210320FFF77EFBFF23A2220021032015
:104EC000FFF778FBFF23A32200210320FFF772FBEB
:104ED000FF23A42200210320FFF76CFB00231022F4
:104EE00001210320FFF766FB012318220121032083
:104EF000FFF760FB8223202201210320FFF75AFBEA
:104F00000323282201211846FFF754FB00233822EF
:104F100001210320FFF74EFBB0233922012103209A
:104F2000FFF748FB00233A2201210320FFF742FB51
:104F300078233B2200F048BD03285AD1A1B11F209D
:104F4000019000222D20009000231146032000F044
:104F50007BFEDFF8C80A019005220020009003467E
:104F6000A221032000F05EFDC123B0220021032016
:104F7000FFF720FBFF23B12200210320FFF71AFBDC
:104F8000FF23B22200210320FFF714FBFF23B322EB
:104F900000210320FFF70EFBFF23B4220021032092
:104FA000FFF708FB0023102201210320FFF702FB7B
:104FB0000123182201210320FFF7FCFA02232022FB
:104FC00001210320FFF7F6FA832328220121032081
:104FD000FFF7F0FA00233C2201210320FFF7EAFA51
:104FE000B0233D2201210320FFF7E4FA002300F063
:104FF000E4BC042840F0A380F9B11F2001900022F6
:105000002D20009000231146032000F01DFEDFF844
:10501000000A019005220020009003464C21032045
:1050200000F000FDDFF8EC0901900522002000905F
:105030000346A221032000F0F5FC01238022002179
:105040000320FFF7B7FAFF23812200210320FFF797
:10505000B1FAFF23822200210320FFF7ABFA7F235E
:10506000832200210320FFF7A5FAFF2384220021D9
:105070000320FFF79FFA4123902200210320FFF72E
:1050800099FAFF23912200210320FFF793FAFF23CF
:10509000922200210320FFF78DFA7F239322002123
:1050A0000320FFF787FAFF23942200210320FFF754
:1050B00081FA8023102201210320FFF77BFA81234C
:1050C000182201210320FFF775FA02232022012173
:1050D0000320FFF76FFA0323282201210320FFF7A3
:1050E00069FA0023302201210320FFF763FA5823D5
:1050F000312201210320FFF75DFA00233222012132
:105100000320FFF757FA7823332201210320FFF70A
:1051100051FA5823342201210320FFF74BFAB02320
:10512000352201210320FFF745FA00233622012111
:105130000320FFF73FFA7823372200F045BC05280B
:1051400040F0A280F9B11F20019000222D20009094
:1051500000231146032000F077FDDFF8B40801902A
:1051600005220020009003464C21032000F05AFC49
:10517000DFF8A40801900522002000900346A22138
:10518000032000F04FFC0123802200210320FFF7C1
:1051900011FAFF23812200210320FFF70BFAFF23DE
:1051A000822200210320FFF705FA7F2383220021BA
:1051B0000320FFF7FFF9FF23842200210320FFF7DC
:1051C000F9F98123A02200210320FFF7F3F9FF233F
:1051D000A12200210320FFF7EDF9FF23A2220021E5
:1051E0000320FFF7E7F9FF23A32200210320FFF7A5
:1051F000E1F9FF23A42200210320FFF7DBF980233C
:10520000102201210320FFF7D5F9012318220121E3
:105210000320FFF7CFF98223202201210320FFF78B
:10522000C9F90323282201211846FFF7C3F90023F7
:10523000302201210320FFF7BDF95823312201213B
:105240000320FFF7B7F90023322201210320FFF7E3
:10525000B1F97823332201210320FFF7ABF958235A
:10526000382201210320FFF7A5F9B02339220121BB
:105270000320FFF79FF900233A2201210320FFF7C3
:1052800099F978233B229FE3062840F09B80F9B1EF
:105290001F20019000222D200090002311460320A2
:1052A00000F0D2FCDFF86807019005220020009092
:1052B00003464C21032000F0B5FBDFF860070190A6
:1052C0000522002000900346A221032000F0AAFB43
:1052D0000123802200210320FFF76CF9FF238122A4
:1052E00000210320FFF766F9FF238222002103201B
:1052F000FFF760F97F23832200210320FFF75AF98B
:10530000FF23842200210320FFF754F9C123B02298
:1053100000210320FFF74EF9FF23B12200210320D3
:10532000FFF748F9FF23B22200210320FFF742F9DB
:10533000FF23B32200210320FFF73CF9FF23B4220F
:1053400000210320FFF736F98023102201210320DA
:10535000FFF730F90123182201210320FFF72AF972
:105360000223202201210320FFF724F9832328228E
:1053700001210320FFF71EF9002330220121032021
:10538000FFF718F95823312201210320FFF712F902
:105390000023322201210320FFF70CF97823332266
:1053A00001210320FFF706F958233C2201210320A5
:1053B000FFF700F9B0233D2201210320FFF7FAF89F
:1053C0000023FAE2072840F0A280F9B11F200190E3
:1053D00000222D20009000231146032000F034FC11
:1053E000DFF83006019005220020009003464C2192
:1053F000032000F017FBDFF82006019005220020B3
:1054000000900346A221032000F00CFB41239022D0
:1054100000210320FFF7CEF8FF2391220021032073
:10542000FFF7C8F8FF23922200210320FFF7C2F8FC
:105430007F23932200210320FFF7BCF8FF2394224F
:1054400000210320FFF7B6F88123A02200210320CA
:10545000FFF7B0F8FF23A12200210320FFF7AAF8ED
:10546000FF23A22200210320FFF7A4F87F23A32219
:1054700000210320FFF79EF8FF23A4220021032030
:10548000FFF798F80023102201210320FFF792F87C
:105490008123182201210320FFF78CF88223202288
:1054A00001210320FFF786F803232822012103208E
:1054B000FFF780F80023342201210320FFF77AF858
:1054C0005823352201210320FFF774F800233622E8
:1054D00001210320FFF76EF87823372201210320F2
:1054E000FFF768F85823382201210320FFF762F8FC
:1054F000B023392201210320FFF75CF800233A2270
:1055000001210320FFF756F878233B225CE20828AC
:1055100040F09B80F9B11F20019000222D200090C7
:1055200000231146032000F08FFBDFF8E804019010
:1055300005220020009003464C21032000F072FA5F
:10554000DFF8D80401900522002000900346A22134
:10555000032000F067FA4123902200210320FFF787
:1055600029F8FF23912200210320FFF723F8FF23CE
:10557000922200210320FFF71DF87F2393220021B0
:105580000320FFF717F8FF23942200210320FFF7E1
:1055900011F8C123B02200210320FFF70BF8FF23ED
:1055A000B12200210320FFF705F8FF23B2220021DA
:1055B0000320FEF7FFFFFF23B32200210320FEF7A5
:1055C000F9FFFF23B42200210320FEF7F3FF00239D
:1055D000102201210320FEF7EDFF81231822012173
:1055E0000320FEF7E7FF0223202201210320FEF71C
:1055F000E1FF8323282201210320FEF7DBFF0023A4
:10560000342201210320FEF7D5FF58233522012142
:105610000320FEF7CFFF0023362201210320FEF7EF
:10562000C9FF7823372201210320FEF7C3FF582347
:105630003C2201210320FEF7BDFFB0233D220121C2
:105640000320FEF7B7FF0023B7E1092840F0998057
:10565000E9B11F20019000222D2000900023114667
:10566000032000F0F1FAEC480190052200200090A0
:1056700003464C21032000F0D5F9E84801900522AB
:10568000002000900346A221032000F0CBF98123E3
:10569000A02200210320FEF78DFFFF23A12200217D
:1056A0000320FEF787FFFF23A22200210320FEF73D
:1056B00081FF7F23A32200210320FEF77BFFFF232E
:1056C000A42200210320FEF775FFC123B022002190
:1056D0000320FEF76FFFFF23B12200210320FEF716
:1056E00069FFFF23B22200210320FEF763FFFF239F
:1056F000B32200210320FEF75DFFFF23B422002127
:105700000320FEF757FF0023102201210320FEF79C
:1057100051FF0123182201210320FEF74BFF8223B2
:10572000202201210320FEF745FF832328220121A7
:105730000320FEF73FFF0023382201210320FEF75C
:1057400039FF5823392201210320FEF733FF0023BC
:105750003A2201210320FEF72DFF78233B2201216D
:105760000320FEF727FF58233C2201210320FEF7E8
:1057700021FFB0233D2201210320FEF71BFF002360
:105780001BE10A2840F02781002931D01F20019019
:1057900000222D20009000231146032000F054FA2F
:1057A0009B48019005220020009003464C210320D5
:1057B00000F038F997480190052200200090034638
:1057C000A221032000F02EF9934801907D220020B1
:1057D000009003464C21032000F024F98F480190EB
:1057E0007D22002000900346A221032000F01AF938
:1057F0000123802200210320FEF7DCFE7F2381228B
:1058000000210320FEF7D6FEFF2382220021032081
:10581000FEF7D0FE7F23832200210320FEF7CAFE7D
:10582000FF23842200210320FEF7C4FE412390229F
:1058300000210320FEF7BEFE7F23912200210320DA
:10584000FEF7B8FEFF23922200210320FEF7B2FEEE
:105850007F23932200210320FEF7ACFEFF23942236
:1058600000210320FEF7A6FE8123A02200210320B1
:10587000FEF7A0FE7F23A12200210320FEF79AFE5F
:10588000FF23A22200210320FEF794FE7F23A32200
:1058900000210320FEF78EFEFF23A4220021032017
:1058A000FEF788FEC123B02200210320FEF782FE0E
:1058B0007F23B12200210320FEF77CFEFF23B222CA
:1058C00000210320FEF776FE7F23B3220021032070
:1058D000FEF770FEFF23B42200210320FEF76AFECC
:1058E0008023102201210320FEF764FE8123182269
:1058F00001210320FEF75EFE8223202201210320E6
:10590000FEF758FE8323282201210320FEF752FED2
:105910000023302201210320FEF74CFE58233122C0
:1059200001210320FEF746FE00233222012103203D
:10593000FEF740FE3C23332201210320FEF73AFE0E
:105940005823342201210320FEF734FEB0233522F0
:1059500001210320FEF72EFE002336220121032021
:10596000FEF728FE3C23372201210320FEF722FE0A
:105970000023382201210320FEF71CFE5823392280
:1059800001210320FEF716FE3C233A2201210320C9
:10599000FEF710FE78233B2201210320FEF70AFECA
:1059A00058233C2201210320FEF704FEB0233D22B0
:1059B00001210320FEF7FEFD3C233E2201210320AE
:1059C000FEF7F8FD78233F2203B05DF804EB0121D8
:1059D0000320FEF7EFBD03B000BD10B582B0FF207D
:1059E000009000220E4C234600210320FEF783FE88
:1059F000FF20009004F58073002201210320FEF7B0
:105A00007AFEBDE81340FEF7BFBB00001827002058
:105A100044520020BC55002034590020AC5C0020CA
:105A200024600020FFE72DE9FE4F8AB080461798DA
:105A3000179003F0070717990078497801EB0020C9
:105A400080B2049003F0C005179817998078C97840
:105A5000DDF810C001EB0020179909791FFA80F9D1
:105A600016980A4619FB0CFC90FBF2F31CFB01F1A3
:105A700011FB03F102FB130010FB091080B206902A
:105A8000002206214046FEF720FC00220821404665
:105A9000FEF71BFC1798007900FB09F080B2059017
:105AA0000020019004980128C0F2CB8000200390D0
:105AB000B80080308DF8010007AF4EE01798305CD9
:105AC00028438DF81C004FEAA40A179830180AF0F2
:105AD0000F0B41782943797007AA81782943B9705F
:105AE0000021C0782843F870ABF18000387140463F
:105AF000FEF775FCBBF10F0F02D0201D48451EDBE1
:105B00009DF828005044A0EB0B02D2B2052140467C
:105B1000FEF7DBFB9DF8000040EA0B1040F00A02A4
:105B200009214046FEF7D1FB4046FEF71DFF000667
:105B3000FAD49DF801200A214046FEF7C6FB201D3D
:105B400084B2361D4C45B9DB01980599801C80B2A2
:105B50000190039800EB410003900198049988425A
:105B60006FDA03A8068805980199801980B2099018
:105B70004910BDF82C0011FA80F00290C2B2072142
:105B80004046FEF7A2FB0024B9F1010FDCDB0698CA
:105B90003018401D86B20298001280008DF8000077
:105BA00041E01798305C28438DF81C004FEAA40AA6
:105BB000179830180AF00F0B41782943797007AA1B
:105BC00081782943B9700021C0782843F870ABF17F
:105BD000800038714046FEF702FCBBF10F0F02D087
:105BE000201D48451CDB9DF828005044A0EB0B020B
:105BF000D2B205214046FEF768FB9DF8000040EA5E
:105C00000B1209214046FEF760FB4046FEF7ACFE52
:105C10000006FAD49DF801200A214046FEF755FB04
:105C2000201D84B2361D4C45BBDB06980999081827
:105C3000401D86B202980012800000248DF80000FA
:105C400080E70DB0BDE8F08F2DE9F8430E46914690
:105C5000089C80461D46FF220021FEF736FBFF22EE
:105C600001214046FEF731FBFF2202214046FEF7AC
:105C70002CFBFF2203214046FEF727FBE80000EB48
:105C80004505EAB207214046FEF71FFB099880B29E
:105C9000410011FA85F101EBC000401E87B2FAB253
:105CA00008214046FEF711FB2904080E390A01EBD2
:105CB000800040F00202D2B209214046FEF705FB07
:105CC000A000C0B24FEA8907040900F00F0519D0FF
:105CD000FAB205210020FEF7F8FA200150FA87F207
:105CE000D2B206210020FEF7F0FAB00000F1C002A7
:105CF000D2B20A210020FEF7E8FA4046FEF734FE51
:105D00000006FAD4EDB1200150FA87F2D2B2052193
:105D10000020FEF7DAFA07EB04102818421ED2B270
:105D200006210020FEF7D1FAB00000F1C002D2B285
:105D30000A210020FEF7C9FA4046FEF715FE0006CC
:105D4000FAD4BDE8F1832DE9F0410E4617468046AE
:105D50001D46FF220021FEF7B8FAFF22012140462E
:105D6000FEF7B3FAFF2202214046FEF7AEFAFF2209
:105D700003214046FEF7A9FAF80000EB4707FAB204
:105D800007214046FEF7A1FA069880B2410011FAB9
:105D900087F101EBC000401E84B2E2B20821404608
:105DA000FEF793FA3F04380E210A01EB800040F021
:105DB0000202D2B209214046FEF787FA6800760057
:105DC000C0B2050900F00F0716D0F2B2052100207D
:105DD000FEF77BFA280150FA86F2D2B206210020A3
:105DE000FEF773FAE0220A210020FEF76EFA404621
:105DF000FEF7BAFD0006FAD4D7B1280150FA86F2B0
:105E0000D2B205210020FEF760FA06EB0510381823
:105E1000421ED2B206210020FEF757FAE0220A21E4
:105E20000020FEF752FA4046FEF79EFD0006FAD427
:105E3000BDE8F08138B50478012C1EDB451C15F84F
:105E4000013B0B2202210320FEF7B4FB15F8013BB6
:105E50000C2202210320FEF7ADFB15F8013B0D22B9
:105E600002210320FEF7A6FB15F8013B0E220221BA
:105E70000320FEF79FFB641EE1D131BD0048D9E746
:105E8000F86400202DE9F84304460026DFF8640595
:105E90000D4684421CBFDFF8600584421FD0DFF846
:105EA0005C0584421CBFDFF85805844217D0DFF838
:105EB000540584421CBFDFF8500584420FD0DFF840
:105EC0004C0584421FBFDFF848058442DFF84405D3
:105ED000844204D0C1210FF2405000F0E4FA286857
:105EE00020B90FF23450C22100F0DDFA28790028E1
:105EF00018BF012808D0022818BF032804D0C321E6
:105F00000FF2145000F0CFFAE87940B1012818BF21
:105F1000022804D00FF20050C42100F0C4FA01207E
:105F200000FA06F8286808EA0000404546D17700E4
:105F30000320B8406FEA0009206809EA00002060E9
:105F400020682979B940084320602879012818BFC2
:105F500002282AD16879002818BF012808D0022811
:105F600018BF032804D0D6210FF2AC4000F09BFAF2
:105F7000A06809EA0000A060A0686979B9400843F8
:105F8000A060A879002818BF012804D0DD210FF2F5
:105F9000884000F088FA606820EA08006060606865
:105FA000A979B14089B208436060E06809EA00005D
:105FB000E060E068E979B9400843E060761C102EA3
:105FC000ADD3BDE8F18370B504460026DFF82404A4
:105FD0000D4684421CBFDFF82004844220D0DFF845
:105FE0001C0484421CBFDFF81804844218D0DFF878
:105FF000140484421CBFDFF81004844210D0DFF880
:106000000C0484421FBFDFF808048442DFF8040454
:10601000844205D04FF49B710FF2FC3000F043FA3C
:10602000012D18BF022D29D0042D18BF082D25D011
:10603000102D18BF202D21D0402D18BF802D1DD030
:10604000B5F5807F18BFB5F5007F17D0B5F5806F27
:1060500018BFB5F5006F11D0B5F5805F18BFB5F565
:10606000005F0BD0B5F5804F18BFB5F5004F05D0D8
:106070000FF2A43040F2371100F015FA20692842DF
:1060800018BF0126304670BD10B50446DFF8640322
:1060900084421CBFDFF86003844220D0DFF85C0339
:1060A00084421CBFDFF85803844218D0DFF8540341
:1060B00084421CBFDFF85003844210D0DFF84C0349
:1060C00084421FBFDFF848038442DFF8480384425C
:1060D00005D04FF4A6710FF2403000F0E4F92069CA
:1060E00080B210BD10B50446DFF8080384421CBF1F
:1060F000DFF80403844220D0DFF8000384421CBF91
:10610000DFF8FC02844218D0DFF8F80284421CBF9A
:10611000DFF8F402844210D0DFF8F00284421FBF9F
:10612000DFF8EC028442DFF8EC02844205D040F252
:1061300073110FF2E42000F0B6F9606980B210BD6F
:1061400038B50446AB480D4684421CBFAA48844279
:1061500019D0AA4884421CBFA948844213D0A94838
:1061600084421CBFA84884420DD0A84884421FBF67
:10617000A7488442A748844205D040F285110FF217
:10618000982000F090F92DB90FF28C204FF4C371D4
:1061900000F089F9258331BD38B5044695480D4690
:1061A00084421CBF9448844219D0944884421CBF46
:1061B0009348844213D0934884421CBF924884423F
:1061C0000DD0924884421FBF914884429148844236
:1061D00005D04FF4CC710FF2402000F064F92DB9D6
:1061E0000FF2342040F2991100F05DF9658331BD62
:1061F00070B504467F480D46164684421CBF7E4853
:10620000844219D07D4884421CBF7D48844213D00B
:106210007C4884421CBF7C4884420DD07B48844229
:106220001FBF7B4884427B48844205D04FF4D6711F
:106230000FF2E41000F037F9012D18BF022D29D01C
:10624000042D18BF082D25D0102D18BF202D21D0CA
:10625000402D18BF802D1DD0B5F5807F18BFB5F536
:10626000007F17D0B5F5806F18BFB5F5006F11D05E
:10627000B5F5805F18BFB5F5005F0BD0B5F5804F61
:1062800018BFB5F5004F05D00FF28C1040F2AD11DC
:1062900000F009F94EB1012E05D04FF4D7710FF27D
:1062A000781000F000F9258370BD658370BD38B5A6
:1062B000044650480D4684421CBF4F48844219D0C2
:1062C0004E4884421CBF4E48844213D04D488442FD
:1062D0001CBF4D4884420DD04C4884421FBF4C48DF
:1062E00084424C48844205D040F2C3110FF228107A
:1062F00000F0D9F8656131BD70B506463D480D46E0
:10630000144686421CBF3C48864219D03B48864210
:106310001CBF3B48864213D03A4886421CBF3A48CD
:1063200086420DD0394886421FBF394886423948D7
:10633000864205D040F21D210FF2DC0000F0B3F8D8
:10634000002D18BF012D21D0022D18BF032D1DD007
:10635000042D18BF052D19D0062D18BF072D15D0F7
:10636000082D18BF092D11D00A2D18BF0B2D0DD0E7
:106370000C2D18BF0D2D09D00E2D18BF0F2D05D0D7
:106380000FF2940040F21E2100F08DF8002C18BF8F
:10639000092C1ED0012C18BF022C1AD0032C18BFB8
:1063A000042C16D0052C18BF062C12D0072C18BFB1
:1063B000082C0ED00A2C18BF0B2C0AD00C2C1CBF9A
:1063C0000D2C0F2C05D040F21F210FF24C0000F0D5
:1063D0006AF8E80806EB800005F007018900026A08
:1063E0000F238B409A43026204FA01F1026A1143BF
:1063F000016270BD0000024000040240000802403B
:10640000000C02400010024000140240001802403C
:10641000001C024000200240433A5C546F6F6C73D2
:106420005C574C39465C574C5F465F4D6F6E6974E4
:106430006F725F4150505C4C696272617269657342
:106440005C53544D3332463478785F5374645065EE
:10645000726970685F4472697665725C7372635CBE
:1064600073746D3332663478785F6770696F2E634A
:106470000000000080B500F061FD002002BD00B505
:1064800085B04FF4E130009000A900200190ADF8F4
:106490000800ADF80C000C20ADF80A00002000F058
:1064A000C5FD05B000BDFEE72DE9F041DFF8245B36
:1064B000DFF8244B28682087002000F0DEFE002053
:1064C00000F0DBFE002000F0D8FE286820870026C0
:1064D000A04606F1080000F0D0FE761C08F8010B7B
:1064E000182EF6DB08222146DFF8F00A01F0C8F882
:1064F000DFF8EC0A082204F1080101F0C1F80822D3
:1065000004F11001DFF8DC0A01F0BAF8002604F10A
:10651000200806F1320000F0B0FE761C08F8010BEE
:10652000152EF6DBDFF8C08A0026474606F1640028
:1065300000F0A3FE761C07F8010B4F2EF6DBDFF808
:10654000AC6AC82000F099FE3070C92000F095FEBA
:106550007070CA2000F091FEB070CB2000F08DFE6C
:10656000F070D22000F089FE3071D32000F085FE5B
:106570007071D42000F081FEB071D52000F07DFE56
:10658000F071DC2000F079FE3072DD2000F075FE45
:106590007072DE2000F071FEB072DF2000F06DFE40
:1065A000F072FF22DFF8487A4D21781C01F0A4F840
:1065B00005224146384601F063F804223146781D31
:1065C00001F05EF80422311D07F1090001F058F8CE
:1065D000042206F1080107F10D0001F051F82868C6
:1065E0002087208F2073000A6073BDE8F081DFF8F8
:1065F000040A0121C161FF214172002141817047DC
:1066000010B5DFF8C04884B0204600F0E1FF02205A
:106610008DF80000832100A8417021788170617895
:10662000C170A1780171E17841712179817100A96E
:1066300060798DF80700A0798DF80800FF208DF8AB
:10664000090003208DF80A00042001F0C6F804B008
:1066500010BD38B5DFF884492178082000F0E4FD4A
:10666000012001F004F96178092000F0DDFD01202E
:1066700001F0FDF8A1780A2000F0D6FD012001F01C
:10668000F6F8E1780B2000F0CFFD012001F0EFF8E3
:1066900021790C2000F0C8FD012001F0E8F86179B3
:1066A0000D2000F0C1FD012001F0E1F8A1790E20DC
:1066B00000F0BAFD012001F0DAF8E1790F2000F0D6
:1066C000B3FD012001F0D3F8DFF814492178102040
:1066D00000F0AAFD012001F0CAF86178112000F055
:1066E000A3FD012001F0C3F8A178122000F09CFD69
:1066F000012001F0BCF8E178132000F095FD0120A5
:1067000001F0B5F82179142000F08EFD012001F090
:10671000AEF86179152000F087FD012001F0A7F89F
:10672000A179162000F080FD012001F0A0F8E179A8
:10673000172000F079FD012001F099F8DFF8A44856
:106740002178182000F070FD012001F090F86178A8
:10675000192000F069FD012001F089F8A1781A20C4
:1067600000F062FD012001F082F8E1781B2000F0CA
:106770005BFD012001F07BF821791C2000F054FD25
:10678000012001F074F861791D2000F04DFD012019
:1067900001F06DF8A1791E2000F046FD012001F006
:1067A00066F8E1791F2000F03FFD012001F05FF85D
:1067B0000024DFF8445815F8011B04F1320000F002
:1067C00033FD012001F053F8641C152CF3DBDFF8D6
:1067D0001858002415F8011B04F1640000F024FD92
:1067E000012001F044F8641C4F2CF3DBDFF8FC4778
:1067F000207B012813D1DFF8F8570422691D2046B9
:1068000000F03EFF042205F10901201D00F038FFD1
:10681000042205F10D0104F1080000F031FF217898
:10682000C82000F001FD012001F021F86178C920A5
:1068300000F0FAFC012001F01AF8A178CA2000F05B
:10684000F3FC012001F013F8E178CB2000F0ECFC20
:10685000012001F00CF82179D22000F0E5FC0120A4
:1068600001F005F86179D32000F0DEFC012000F092
:10687000FEFFA179D42000F0D7FC012000F0F7FF43
:10688000E179D52000F0D0FC012000F0F0FF217A62
:10689000DC2000F0C9FC012000F0E9FF617ADD2076
:1068A00000F0C2FC012000F0E2FFA17ADE2000F03F
:1068B000BBFC012000F0DBFFE17ADF2000F0B4FC3C
:1068C000BDE83240012000F0D2BF10B5DFF82C4700
:1068D00001F014F820B9012001F00BF8002065E068
:1068E000207A002869D1FFF7B4FE0020607201F021
:1068F00005F888B9002240F22771DFF8040701F09B
:1069000067F9DFF800070022022101F023FD0120D2
:1069100000F0EFFF002049E0642000F0A8FF607A5B
:10692000401C6072C0B20F28E1DB01F0D2FD0021F3
:10693000F52001F0DFFD032000F099FF0021F52094
:1069400001F0D8FD032000F092FF002240F22771F1
:10695000DFF8AC0601F03CF9DFF8A80600220221BE
:1069600001F0F8FC0020A06201F0B8FE4FF4966040
:1069700000F07DFF002001F0AEFF012001F0A1FF3B
:10698000002001F099FF002001F090FF00F08CFF43
:10699000002000F083FF4FF47A7000F068FF00F0F1
:1069A000ADFF28B9012000F0A4FF0120E07110BD67
:1069B0000020BDE8104000F09CBF10BD002818BFAB
:1069C000022806D1DFF82C160A7B60F301020A7355
:1069D0007047DFF82016087B40F00300087370470B
:1069E000DFF81016042804DA0A7B60F385020A73C4
:1069F0007047087B40F03C0008737047DFF8F405EF
:106A0000018BB1F57B4FA8BF4FF6FF71C181704775
:106A100010B568B902F03AF84FF6FF2190FBF1F19A
:106A20004FF6FF2202FB1100DFF8C815088310BDE6
:106A300001280DD102F02AF86FF0A061B0FBF1F14E
:106A40006FF0A06202FB1100DFF8A815486110BDCD
:106A5000022817D102F01AF84FF6FF21DFF894450B
:106A600090FBF1F14FF6FF2202FB1100208302F0B0
:106A70000DF86FF0A061B0FBF1F16FF0A06202FBC6
:106A80001100606110BD10B582B00020FFF796FFC5
:106A90000320FFF7A5FF0220FFF7BAFFFFF7AEFFC5
:106AA000DFF85045606910F1A06F28BF4FF0FF304C
:106AB000206148F2870148F2850002F0FAF80423C9
:106AC00000AA042104F1100002F0F8F800982061F7
:106AD0000A2000F0CCFE0622E721FF2002F0A0FAF7
:106AE00004F10C0002F0A9FA13BD30B5DFF804453B
:106AF000656983B00020FFF761FF0020FFF770FF9A
:106B00000020FFF785FF208BB0F57B4FA8BF4FF625
:106B1000FF70E081A9B2280C02F0CBF8042300AA90
:106B2000042104F1100002F0C9F8009820610A2045
:106B300000F09DFE36E030B5DFF8B844656983B0FB
:106B40000020FFF73BFF0120FFF74AFF0020FFF77F
:106B50005FFF208BB0F57B4FA8BF4FF6FF7013E0AF
:106B600030B5DFF89044656983B00020FFF726FF59
:106B70000220FFF735FF0020FFF74AFF208BB0F51A
:106B80007B4FA8BF4FF6FF70E081A9B2280C02F03E
:106B900090F8042300AA042104F1100002F08EF8FA
:106BA000009820610622E721FF2002F039FA04F163
:106BB0000C0002F042FA03B030BD20B5DFF83454C7
:106BC000686981B284B0000C02F073F8082300AA4F
:106BD0000821284602F09DF800A806C806C5083D11
:106BE000287B297800F0030201F003039A4202BFD8
:106BF000C0F38300C1F38301884202BFE88969883A
:106C0000884203D12979080904B020BDFF2004B0CF
:106C100020BD1CB5DFF8DC43606981B2000C02F0D6
:106C200048F8082300AA0821204602F072F800A8BC
:106C300006C806C4083C207B217800F0030201F05E
:106C400003039A4202BFC1F38301C0F38300884269
:106C500002BFE089628890422DD1207900F00F03B5
:106C6000012B21D10009022804D00DD3042806D01D
:106C700021D309E0607900F00F0203211FE0607961
:106C800000F00F0205211AE0012908D1607900F017
:106C90000F02012A13D0022A10D102210FE0E07A5C
:106CA00048B1401EE07206E0022B607900F00F024E
:106CB00004D1062103E0607900F00F020421FF20D7
:106CC00001F03AFC13BD38B5CA4C617A00200129A5
:106CD0001EBFE169B1F5803FB1F5801F4DD001299C
:106CE00005D141F20100E061FFF7CDFE45E010293A
:106CF00005D141F21000E061FFF7F7FE3DE0CA0563
:106D00003BD521F48071E161C90748BF0320FFF73B
:106D100054FFB8B9E069C10702D5002020722AE00B
:106D2000C0062AD500202072FF2101206072607900
:106D300000F00F024FF48030E061E272A52001F014
:106D4000FBFB1AE0207A401C2072C0B214280BDB37
:106D5000012060724FF48010E27AE061FF21BDE80B
:106D60003840FE2001F0E8BBE069C10748BF0120C0
:106D700002D4C00601D51020E061A34D2878012877
:106D800018BF022811D1012802D1FFF7D4FE03E079
:106D9000022808BFFFF7E4FE0120A0720020E06196
:106DA0002878E871FF20287031BDA07A012804BF3F
:106DB000E069B0F5807F04D10020A072BDE83140C9
:106DC00027E731BD38B501F089FC904D28780128BE
:106DD00008BFFFF778FF8E48884C0088B0F57A7FAF
:106DE00013DD2878012810D101F0B0FF0122022123
:106DF000844801F0AFFA874800210170A079401C57
:106E0000A071C0B20A28A8BFA171FFF75EFDE07AA9
:106E100068B1207B0A28BCBF401C2073207B0A2855
:106E200005DB7D48007802F0BCFB0020E072E179D0
:106E3000A07A012902D0012802D031BD0128FCD15D
:106E4000BDE83140FFF705BC10B56C4C60780128F7
:106E500012D102F0ADF9A08C401CA08480B23C2875
:106E60000ADB0020A08402F087F9A0783D28A1BFAA
:106E7000E0783D2800202070207B0A28B8BFFFF76B
:106E8000BFFB67480078012817D166480078FF28C3
:106E900013D065480178491CC9B2062908BF0021F2
:106EA00001700321007890FBF1F101EB4101401AE0
:106EB00006D1BDE8104001F0ABBD5B480021017078
:106EC00010BD0000289E002010B54C4CE079012830
:106ED0001CBF002000F00DFD012000F0DFFC00F0E1
:106EE000E3FC00F0F3FC02F0F6FDFEF776FD02F0A5
:106EF000FBFD02F029FE01F0AFFA002000F0FCF9E2
:106F000001F0AFFB01F0B4FC012001F0CFFC012047
:106F100001F0D2FC012001F0D4FC01F08BFD022035
:106F200000F01EFC042000F01BFC01F00FFFFFF737
:106F3000BBFA02F021FB0020A06210BD38B5FFF7BC
:106F40009EFA03F01EFA03F028FA344C2B4D012070
:106F500000F0CFFC03F054FAFFF7B6FFA88A01282F
:106F600013D10020A882287901280CD16879411C0E
:106F70006971042807DB0020687103F0F0FA002132
:106F8000202001F0B7FA02F080F8E88A012804BF57
:106F90000020E882288B012809D100202883FFF7F0
:106FA00011FFE87901281CBFA87A0128CFD0288CCE
:106FB000012806D1002028842078012818BF02F07B
:106FC000B3F8688C0128C9D100206884FFF73CFF22
:106FD000C4E700004C2001401C9D00204C9A00207A
:106FE000549A0020249A0020649B0020DC9D0020FD
:106FF000049C0020849D00203C9D0020589D002082
:1070000000440040006400405C9A0020C99D0020BC
:10701000EA650020519E0020E99D0020EA9D0020A5
:10702000C5650020C46500204E9E0020F0B50646D0
:107030000FF2BC000FF2BC0283B0354650F82500B9
:1070400052F825200C460121104303F0F1FD1EB932
:107050000121102003F02FFE0FF2AC00DFF88C604E
:1070600030F815200FF2980030F8151006EB850760
:10707000D2B27868FFF740F90FF2900030F815208F
:107080000FF2800030F81510B868D2B2FFF734F96B
:1070900000208DF8060000A901208DF807000220CD
:1070A0008DF804000FF2500030F815000090022017
:1070B0008DF805007868FEF7E5FE02208DF80400E3
:1070C00000A90FF2380030F815000090B868FEF7FC
:1070D000D9FE56F82500214600F01CFC56F8250084
:1070E000012100F0DEFC03B0F0BD0000B46500201B
:1070F0000100000001000000000200000004000088
:10710000090000000A00000007000000070050F816
:10711000041B61B150F8042BD30744BFA9F101034C
:107120009A18002342F8043B091FFAD1EFE7704791
:1071300000B50100DFF82C0283B001694FF4007242
:107140004FF6FF5308D019404161009201218DF89C
:1071500004108DF8051005E01940416100920021EE
:107160008DF8041000A9FEF78DFE03B000BD70B5C8
:1071700004460825DFF8EC61E4B2E0094FF4007141
:10718000304602D0FEF7DCFF01E0FFF705F84FF4D0
:1071900080713046FEF7D4FF64004FF480713046B2
:1071A000FEF7FAFF6D1EE7D14FF400713046FEF78F
:1071B000F3FF4FF480713046FEF7C2FF3046BDE862
:1071C00070404FF48071FEF7E7BF70B5DFF894515F
:1071D0004FF480712846FEF7DFFF4FF40071284618
:1071E000FEF7AEFF0020FFF7A3FF08264FF48071E3
:1071F0002846FEF7A5FF4FF400712846FEF7E3FE90
:1072000040EA4404E4B24FF480712846FEF7C4FF1C
:10721000761EEBD14FF400712846FEF7BDFF01202A
:10722000FFF786FF204670BD70B504460D464D4EF3
:107230004FF400713046FEF783FF0120FFF778FF1F
:107240004FF400713046FEF77BFF4FF480713046FB
:10725000FEF776FF4FF400713046FEF79DFF4FF4C6
:1072600080713046FEF798FFA020FFF780FF2004D2
:10727000000EFFF77CFFE0B29EE038B50446394DC2
:107280004FF400712846FEF75BFF0120FFF750FF27
:107290004FF400712846FEF753FF4FF480712846E3
:1072A000FEF74EFF4FF400712846FEF775FF4FF4CE
:1072B00080712846FEF770FFA020FFF758FF2004DA
:1072C000000EFFF754FFE0B2FFF751FF4FF40071DB
:1072D0002846FEF735FF4FF480712846FEF730FF51
:1072E0004FF400712846FEF757FF4FF4807128468F
:1072F000FEF752FFA120B2E038B50446194D4FF415
:1073000000712846FEF71CFF0120FFF711FF4FF424
:1073100000712846FEF714FF4FF480712846FEF7EF
:107320000FFF4FF400712846FEF736FF4FF48071CF
:107330002846FEF731FFD020FFF719FF0A20FFF79C
:1073400016FF2046FFF713FF4FF400712846FEF7A3
:1073500023FF4FF480712846FEF7F2FE2846BDE871
:1073600034403BE00004024070B504460D46014E37
:1073700002E000BF000402404FF400713046FEF707
:10738000DFFE0120FFF7D4FE4FF400713046FEF718
:10739000D7FE4FF480713046FEF7D2FE4FF40071F5
:1073A0003046FEF7F9FE4FF480713046FEF7F4FEEA
:1073B000D020FFF7DCFE2046FFF7D9FE2846FFF776
:1073C000D6FE4FF400713046FEF7E6FE4FF48071B2
:1073D0003046FEF7B5FE3046BDE870404FF4007110
:1073E000FEF7AEBE38B50446004D01E00004024091
:1073F0004FF400712846FEF7A3FE0120FFF798FE28
:107400004FF400712846FEF79BFE4FF4807128462A
:10741000FEF796FE4FF400712846FEF7BDFE4FF4CE
:1074200080712846FEF7B8FED020FFF7A0FE204668
:10743000FFF79DFE4FF400712846FEF781FE4FF4E2
:1074400080712846FEF77CFE4FF400712846FEF757
:10745000A3FE4FF480712846FEF79EFED120FFF771
:1074600086FEFFF7B2FE04464FF400712846FEF791
:1074700067FE4FF480712846FEF762FE4FF480717C
:107480002846FEF789FE4FF400712846FEF784FE79
:107490004FF480712846FEF753FE4FF400712846E2
:1074A000FEF74EFE204632BD64280CDA0A2190FB1E
:1074B000F1F10A0150FA82F001EB8102A0EB4201E6
:1074C000C9B2082050E7704701460D290DDA60B1B6
:1074D0000A2091FBF0F0020151FA82F100EB8002E8
:1074E000A1EB4201C9B207203EE7704701462029BF
:1074F0000DDA60B10A2091FBF0F0020151FA82F13D
:1075000000EB8002A1EB4201C9B206202CE77047D4
:1075100018280CDA0A2190FBF1F10A0150FA82F0E6
:1075200001EB8102A0EB4201C9B204201CE77047C5
:107530003C280CDA0A2190FBF1F10A0150FA82F0A2
:1075400001EB8102A0EB4201C9B203200CE77047B6
:107550003C280CDA0A2190FBF1F10A0150FA82F082
:1075600001EB8102A0EB4201C9B20220FCE67047A8
:1075700003B581B002210020FFF7F6FE9DF804005C
:10758000FFF792FF9DF80500FFF79EFF9DF80600AC
:10759000FFF7ACFF9DF80710082903DA11B10520A9
:1075A000FFF7E2FE9DF80800FFF7B2FF9DF8090023
:1075B000FFF7BEFF9DF80A00FFF7CAFF0021002079
:1075C000FFF7D2FE03B05DF804EB00210120CBE60B
:1075D00010B5044601210020FFF7C6FE0820FFF782
:1075E00001FF010901EB810200F00F0000EB4200F6
:1075F00020700720FFF7F6FEC0F3001101EB8102B7
:1076000000F00F0000EB420060700620FFF7EAFE7A
:10761000C0F3011101EB810200F00F0000EB42000A
:10762000A0700520FFF7DEFE00F00700E0700420E8
:10763000FFF7D8FEC0F3011101EB810200F00F004B
:1076400000EB420020710320FFF7CCFEC0F30211D3
:1076500001EB810200F00F0000EB4200607102209C
:10766000FFF7C0FEC0F3021101EB810200F00F0032
:1076700000EB4200A0710021BDE81040002073E63D
:1076800062B38B0708D0521E11F8013B00F8013B92
:1076900000F024808B07F6D1830740F0208000BFE4
:1076A000103A07D330B4B1E83810103AA0E83810D7
:1076B000F9D230BC530724BFB1E80810A0E8081085
:1076C00044BF51F8043B40F8043BD20724BF31F8D3
:1076D000022B20F8022B44BF0B7803707047083A46
:1076E00007D3B1E80810083A40F8043B40F804CB4F
:1076F000F7D25307E4E7000062F30F2262F31F4260
:10770000401810F0030308D0C91A1FD3DB0748BF85
:1077100000F8012D28BF20F8022D130030B41446C4
:107720001546103928BF20E93C00FAD8490728BF80
:1077300020E90C0048BF40F8042D890028BF20F83C
:10774000022D48BF00F8012D30BC7047C91818BF82
:1077500000F8012DCB0728BF00F8012D704700006D
:1077600030B585B0044600200290ADF80C00ADF8AD
:1077700010000C20ADF80E0001A90FF29800224D68
:1077800050F82400019055F8240000F0C3F855F893
:107790002400012100F085F955F82400012240F26F
:1077A000255100F015FA55F82400002240F2277107
:1077B00000F00EFA0FF2700030F814008DF800009F
:1077C00000208DF801008DF8020001208DF80300E3
:1077D00000A803F01DFB05B030BD10B504460B2218
:1077E0000B48FFF74DFF09480021C17001220B2112
:1077F000417040F22771044850F82400BDE8104061
:1078000000F0E6B9000000007C650020389E0020F2
:10781000F7980020000000000000000000C20100F6
:1078200000E1000000C2010000000000260000008E
:10783000340000000348016811B10168491E01606D
:1078400070470000409E002082B0002107E00099B0
:10785000491C009100990529F9D30199491C01910E
:107860000199814238BF0021F3D302B0704782B042
:107870000021019144F2682108E0009A521C009214
:10788000009A8A42F9D3019A521C0192019A8242CB
:1078900038BF0022F3D302B07047000002464FF415
:1078A00080511948FEF7A4BC10B5184C01220421E0
:1078B0002046FEF79DFC4FF47A70FFF7D8FF204674
:1078C000BDE8104000220421FEF792BC10B50E4C1A
:1078D00000224FF400412046FEF78AFC6420FFF7A7
:1078E000C6FF2046BDE8104001224FF40041FEF7DC
:1078F0007FBC024602210648FEF77ABC01210448FB
:10790000FEF761BB0000000000080240000C0240CE
:1079100000040240F0B50446DFF89472DFF8A86274
:1079200085B00D46BC421CBFDFF88802844213D0EC
:10793000DFF8840284421CBFDFF8800284420BD04F
:10794000DFF87C0284421CBFDFF87802844203D057
:10795000F1213046FEF7A7FD286818B1DFF86C1258
:10796000884203D3F2213046FEF79DFDA888002807
:1079700018BFB0F5805F03D0F3213046FEF793FDCA
:10798000E888002818BFB0F5805F09D0B0F5005F27
:1079900018BFB0F5405F03D0F4213046FEF783FDF9
:1079A000288900281CBFB0F5806FB0F5C06F03D0E8
:1079B000F5213046FEF777FD68894FF6F3710842EE
:1079C00000D118B9F6213046FEF76DFDA889F8B14F
:1079D000B0F5807F1CBFB0F5007FB0F5407F05D0CB
:1079E000F7213046FEF75FFDA88988B1BC421CBF75
:1079F000DFF8C00184420BD0DFF8BC0184421CBF19
:107A0000DFF8C001844203D0FC213046FEF74BFD75
:107A1000208A4CF6FF710840E988084320824EF620
:107A2000F311A0890840A988084329890843698976
:107A30000843A0814FF6FF41A08A0840A989084366
:107A4000A08200A803F0ADF8BC421BBFDFF87401B0
:107A5000844203980298296819225043A28912048B
:107A60004CBF49008900B0FBF1F16420B1FBF0F09C
:107A700000010209642303FB1211A289120406D536
:107A8000C9003231B1FBF3F101F0070105E0090152
:107A90003231B1FBF3F101F00F010843208105B051
:107AA000F0BD38B50446DFF808010D4684421CBF1E
:107AB000DFF80001844215D0DFF8FC0084421CBFCF
:107AC000DFF8F80084420DD0DFF8F40084421CBFD8
:107AD000DFF8F000844205D040F2A1110FF2E4205B
:107AE000FEF7E1FC5DB1012D05D00FF2D8204FF477
:107AF000D171FEF7D8FCA08940F4005003E0A089C2
:107B00004DF6FF710840A08131BD38B50446DFF85D
:107B1000A0000D4684421CBFDFF89800844215D0B7
:107B2000DFF8940084421CBFDFF8900084420DD03F
:107B3000DFF88C0084421CBFDFF88800844205D047
:107B400040F223210FF27C20FEF7ADFCB5F5007F5B
:107B500005DB0FF270204FF40971FEF7A4FCE80575
:107B6000C00DA08031BD10B50446DFF8440084424A
:107B70001CBFDFF84000844215D0DFF83C0084428F
:107B80001CBFDFF8380084420DD0DFF83400844297
:107B90001CBFDFF83000844205D040F233210FF2E1
:107BA0002420FEF780FCA088C005C00D10BD000099
:107BB000001001400044004000480040004C0040DC
:107BC0000050004000140140C47D0008E1707200C4
:107BD000F8B50546DFF8D4710E461446BD421CBF09
:107BE000DFF8CC01854215D0DFF8C80185421CBF03
:107BF000DFF8C40185420DD0DFF8C00185421CBF0B
:107C0000DFF8BC01854205D040F2C3410FF2B41049
:107C1000FEF749FC282E1CBF40F2277086421BD07D
:107C200040F2266086421CBF40F22550864213D0A7
:107C300040F2244086421CBF40F6460086420BD0EC
:107C400040F66A10864218BF602E05D040F2C4414B
:107C50000FF27010FEF727FC002C18BF012C05D086
:107C60000FF2601040F2C541FEF71DFC40F66A10AD
:107C7000864210D1BD421CBF4D4885420BD04D48B5
:107C800085421CBF4E48854205D040F2CA410FF2E2
:107C90003410FEF708FC3006012106F01F02400FE9
:107CA0009140012808BF05F10C0005D002280CBF47
:107CB00005F1100005F114000268002C14BF1143F7
:107CC00022EA01010160F1BDF8B504460026374FF4
:107CD0000D46BC421CBF3648844211D03548844210
:107CE0001CBF354884420BD0344884421CBF344802
:107CF000844205D040F256510FF2C800FEF7D3FB84
:107D0000282D1CBF40F227718D4234D040F22661ED
:107D10008D421CBF40F225518D422CD040F22441AF
:107D20008D421CBF40F646018D4224D040F66A11B8
:107D30008D420FD0B5F5587F1CBF40F225318D42E2
:107D400019D0B5F5187F18BFB5F5B07F13D040F244
:107D500057510CE0BC421CBF154884420BD015485B
:107D600084421CBF1648844205D040F25C510FF299
:107D70005400FEF798FB2806400F012105F01F0272
:107D800001FA02F2012808BFA08903D002280CBF23
:107D9000208AA08A10402A0A914022881140002897
:107DA0001CBF002901263046F2BD00000010014032
:107DB0000044004000480040004C0040005000409B
:107DC00000140140433A5C546F6F6C735C574C393C
:107DD000465C574C5F465F4D6F6E69746F725F41D2
:107DE00050505C4C69627261726965735C53544DAA
:107DF0003332463478785F537464506572697068C2
:107E00005F4472697665725C7372635C73746D3320
:107E100032663478785F75736172742E6300000087
:107E200080B5DFF8C415884214D0DFF8C015884249
:107E300004D0AB21DFF8B805FEF735FB01214FF088
:107E4000806002F07CFF00214FF08060BDE80440BC
:107E500002F075BF01214FF0007002F070FF0021A9
:107E60004FF00070F2E7F8B504460026DFF8780519
:107E7000DFF87C750D4684421CBFDFF87005844234
:107E800003D0CB213846FEF70EFBA879002818BF97
:107E9000012803D0CC213846FEF705FBE8790028FD
:107EA00018BF012803D0CD213846FEF7FCFA287A06
:107EB000002818BF012803D0CE213846FEF7F3FA78
:107EC000687A002818BF012803D0CF213846FEF772
:107ED000EAFAA87A002818BF012803D0D021384632
:107EE000FEF7E1FAE87A002818BF012803D0D12173
:107EF0003846FEF7D8FAA878002818BF012807D01E
:107F0000022818BF032803D0D2213846FEF7CBFA47
:107F1000E878002818BF012807D0022818BF0328D6
:107F200003D0D3213846FEF7BEFA2879102803DBA8
:107F3000D4213846FEF7B7FA6879082803DBD52143
:107F40003846FEF7B0FA288810B1B0F5806F03DD2F
:107F5000D6213846FEF7A7FA206820F002002060FC
:107F6000206840F0010020604FF6FF70014600E0FD
:107F7000491E6268D20701D40029F9D16168C90796
:107F800054D5A979012921680CBF41F0800121F065
:107F900080012160E979012921680CBF41F040018D
:107FA00021F040012160297A012921680CBF41F0AC
:107FB000200121F020012160697A012921680CBF8C
:107FC00041F0100121F010012160A97A01292168F6
:107FD0000CBF41F0080121F008012160E97A012974
:107FE00021680CBF41F0040121F004012160EA780E
:107FF000A978120642EA81712A7941EA02416A7936
:1080000041EA02512A88521E1143E1612168490860
:108010004900216000E0401E6168C90701D50028C1
:10802000F9D1606800F0010080F001063046F2BD31
:1080300070B50446A07A1C2805DB40F253110FF2FC
:10804000C030FEF730FAE07A002818BF012805D0CA
:108050004FF4AA710FF2A830FEF725FA207B002812
:1080600018BF012805D040F255110FF29430FEF7E9
:108070001AFA2089002818BF012805D04FF4AB71E7
:108080000FF27C30FEF70FFA607B002818BF012842
:1080900005D040F257110FF26830FEF704FAA17ACA
:1080A00001208840DFF84C130A6842F001020A60A0
:1080B000C243CB691340CB61237B9BB9CB68134090
:1080C000CB60E5886688DFF8303346EA0545A67A56
:1080D00043F83650A57A268803EBC503A58846EAFF
:1080E00005455D60237B012B13D1CB680343CB6037
:1080F00025886688DFF8003346EA0545A67A43F806
:108100003650A57AE68803EBC503A58846EA0545FF
:108110005D60E37A002B4B680CBF134003434B6058
:10812000238913B94B691A4003E0012B02D14A6934
:1081300002434A61627B012A02D1CA691043C861C5
:10814000086840084000086070BD00218171C1715D
:10815000017241728172C1728170C170032101711B
:108160000221417101210180704770B50546DFF899
:1081700078020C4685421CBFDFF88002854205D09C
:1081800040F246210FF27820FEF78DF9207A002880
:1081900018BF042805D040F247210FF26420FEF7F3
:1081A00082F9607A002818BF022805D04FF41271B6
:1081B0000FF24C20FEF777F9A07A092805DB40F290
:1081C00049210FF23C20FEF76EF9A86840011BD54B
:1081D000002605EB0615D5F8800100F00100C5F872
:1081E0008001207AE0B92068B0F5006F05D340F235
:1081F00063210FF20C20FEF756F9D5F880012168B3
:10820000627A42EA41511DE0A868000148BF012698
:10821000DFD4A868C00048BF0226DAD404263EE0B6
:108220006068B0F1005F05D340F269210FF2D01011
:10823000FEF739F9D5F880016168227A42EAC10176
:10824000627A11430843C5F88001A07A00F00F005C
:10825000A07205F5C07041680909090141604168D3
:10826000A27A11434160627BA17B120442EA016160
:10827000227B41EA0221E27A11438160627CA17C87
:10828000120442EA0161227C41EA0221E27B1143AD
:10829000C160D5F8800140F00100C5F8800130468A
:1082A00070BDF8B50446DFF840010D46164684421D
:1082B0001CBFDFF84801844205D040F2F2210FF2E2
:1082C0004010FEF7F0F82F0018BF012D05D00FF277
:1082D000301040F2F321FEF7E6F804EB0510D0F879
:1082E000B0113172317A4907D0F8B01159BF490D38
:1082F0003160C9087160D0F8B01101F002017172EB
:1083000000F5D870416801F00F01B1724168090AA7
:10831000F1748168F1728168090A31738168090C0E
:1083200071738168090EB173C168F173C168090A7C
:108330003174C168090C7174C068000EB07425B93D
:10834000E06840F02000E060F1BD206940F02000CE
:108350002061F1BD70B5044623480D46164684429F
:108360001CBFDFF89800844205D04FF4A2610FF2E1
:108370009000FEF798F8012D18BF022D24D0042D8F
:1083800018BF082D20D0102D18BF202D1CD0402D37
:1083900018BFB5F5807F17D0B5F5007F18BFB5F5CC
:1083A000806F11D0B5F5006F18BFB5F5004F0BD039
:1083B000B5F5803F18BFB5F5003F05D00FF240007E
:1083C00040F21151FEF76FF856B1012E05D040F280
:1083D00012510FF22C00FEF766F86069284301E0A5
:1083E0006069A843606170BD00640040006800409F
:1083F00000840008006600404066004000680040BD
:10840000433A5C546F6F6C735C574C39465C574C05
:108410005F465F4D6F6E69746F725F4150505C4C88
:1084200069627261726965735C53544D33324634CC
:1084300078785F5374645065726970685F447269DC
:108440007665725C7372635C73746D333266347814
:10845000785F63616E2E630010B584B042F21070D5
:108460000290A820ADF804000020ADF80C00ADF893
:10847000060001A91B4C204602F062FD01212046A6
:1084800002F00EFE01220121204602F067FF1E20AD
:108490008DF8000000208DF801008DF80200012009
:1084A0008DF8030000A802F0B3FC0F480021018002
:1084B00041808180C18004B00C484170017010BDC2
:1084C0004FF400610A48FDF73BBE074801210180D7
:1084D00070474FF400610648FDF75EBE0248002178
:1084E0000180704700080040309E0020BE9C0020A4
:1084F0000018024030B583B005460C460B2100A899
:1085000003F020F802208DF80000290A80208DF861
:1085100001008DF8054000A8C1708570290C01711B
:1085200003208DF80A006648007818B900A90420D5
:10853000FFF753F903B030BD00B5C1B002238DF889
:10854000003087238DF801300DF1010358709970C8
:1085500003208DF8FE00DA705948007818B900A998
:108560000420FFF73AF941B000BD2DE9F041554C28
:10857000207860B9A062002260680121FDF738FE12
:10858000A06801220221FDF733FE01221AE0012832
:108590000BD1606801220121FDF72AFEA0680022AC
:1085A0000221FDF725FE01220CE002280ED16068B1
:1085B00001220121FDF71CFEA06801220221FDF726
:1085C00017FE0022E0680421FDF712FE00250FF2DD
:1085D000001604F110074FF0060836F8021B57F892
:1085E000040BFDF7F0FC401E8041C00F690051FAFA
:1085F00080F5B8F10108F0D1A06A28B925B120783A
:10860000C00005FA00F0A0622078022820D1A06AFC
:1086100008B920631BE0E16A814216D1216B491C35
:108620002163032904D1284908600021FFF762FF74
:10863000206BB0F5967F0BD1A06A23490860FA2120
:1086400021630121FFF756FF02E000212163E06270
:108650002078401CC0B20328A8BF00202070BDE8CD
:10866000F08110B584B040F6C4100290A820ADF897
:1086700004000020ADF80C00ADF8060001A9134C71
:10868000204602F05DFC0121204602F009FD012296
:108690000121204602F062FE32208DF80000002009
:1086A0008DF801008DF8020001208DF8030000A86C
:1086B00002F0AEFB04480021016004B010BD0000D0
:1086C000384E002048650020489E0020000C0040E5
:1086D000000400080010002000400080F8B5704839
:1086E000007A4FF4800420B16E4D286840F4E00019
:1086F000286017266C4F6B4D2868204214BF01225A
:1087000000224FF400413846FDF772FD01224FF47C
:1087100080413846FDF76CFD0120FFF7A8F80022E4
:108720004FF480413846FDF763FD6408761EE3D1BF
:1087300001224FF400513846FDF75AFD0120FFF7A2
:1087400096F800224FF400513846FDF751FD012004
:10875000FFF78DF83846BDE8F84001224FF400518C
:10876000FDF746BD4E480021C160017801F00303CA
:108770005A1E9241D243D20FC260C1F3810202B1AC
:108780000222C368D218C260C1F3011303B10423EB
:108790009A18C260890918BF082189184278C160F7
:1087A00003231A4214BF102300235918C160C2F3D7
:1087B000810303B120235918C160C2F3011303B12F
:1087C00040235918C160920918BF8022511882783D
:1087D000C16003231A4214BF4FF480730023591859
:1087E000C160C2F381030BB14FF400735918C1602B
:1087F000C2F301130BB14FF480635918C1609209A1
:1088000018BF4FF400625118C278C16003231A42A6
:1088100014BF4FF4805300235918C160C2F3810381
:108820000BB14FF400535918C160C2F301130BB1DF
:108830004FF480435918C160920918BF4FF40042A9
:1088400051180279C16003231A4214BF4FF48033D8
:1088500000235918C160C2F381030BB14FF40033F8
:108860005918104BC1609209426319600272704737
:1088700010B50D4C01224FF480512046FDF7B8FC95
:108880000A20FEF7F4FF00224FF480512046FDF746
:10889000AFFC04486FF07F410160BDE810401DE768
:1088A000C09C0020809D00200004024002464FF43E
:1088B00000416A48FDF79CBC024610216848FDF75C
:1088C00097BC10B50446224680216548FDF790FC10
:1088D0006448047010BD0FF2A012624932F81020F3
:1088E00048704A80104610B586B07021ADF800106F
:1088F00002900121ADF802100421ADF8041002210C
:10890000ADF80C100021ADF80E104FF48071ADF8E9
:1089100010100021ADF8121000A9534C204602F0AF
:1089200015FC0121204602F0BBFB0121204602F08C
:10893000F1FC06B010BD30B589B01020ADF81400C0
:10894000FA210020ADF81600474C48480068B0FBFB
:10895000F1F0401E80B2069005A90020ADF81C0081
:108960008DF81E00204602F0EBFA7020ADF80000F2
:1089700041F27F350120ADF8020002950420ADF8E8
:10898000040000A90220ADF80C000020ADF80E0094
:108990004FF48070ADF810000020ADF812002046B2
:1089A00002F0D4FB0121204602F07AFB012120468F
:1089B00002F0B0FC4FF47A70FEF759FF2948062107
:1089C0004170458009B030BD38B5294C244D01288F
:1089D0000DD100224FF400712846FDF709FC0A2052
:1089E000FEF745FF01224FF4807120460CE0002283
:1089F0004FF480712046FDF7FBFB0A20FEF737FF9E
:108A000001224FF400712846BDE83840FDF7F0BB65
:108A100018480078FCF788B880B516490870FF2818
:108A200008BF002003D00121FCF758F90120BDE860
:108A30000240C9E780B540F6B830FEF718FF0020C5
:108A4000FFF7C2FFFFF777FF002280210448FDF700
:108A5000CFFB04480021017001BD00000018024056
:108A600000080240449E002000040140A065002050
:108A700000000240C4650020FE403E377E2DFE26E9
:108A80007F20FF197F13FF0C00000000F8B5344F62
:108A9000384602F05AFD0446381D02F056FD0546E0
:108AA00007F1080002F051FD064607F10C0002F044
:108AB0004CFD23782B492C4A002B40D12B6802FB1C
:108AC00003132B60082702FB03132B6002FB031325
:108AD0002B6002FB03132B6002FB03132B6002FBD2
:108AE00003132B6002FB03132B6002FB03132B60A9
:108AF0000346D5F800C002FB0C1CC5F800C043F8C3
:108B000004CB7F1ED5F800C002FB0C1CC5F800C0CA
:108B100043F804CBD5F800C002FB0C1CC5F800C01C
:108B200043F804CBD5F800C002FB0C1CC5F800C00C
:108B300043F804CBDDD1C36F3360012323702B686E
:108B400002FB03112960317801F01F0150F8212048
:108B500032602A6840F82120306880008008F2BD29
:108B60006C6400205FF36E3C0D66190030B4014662
:108B700000200023724A01F001049D56AC402043BE
:108B8000C9035B1C090C01F001049D56AC40204355
:108B900049085B1C01F001049D56AC402043490884
:108BA0005B1C01F001049D56AC40204349085B1C4E
:108BB000102BE0DB30BC704710B582B00C46FFF7DD
:108BC000D5FF604000905F48BDF8001001F00F0134
:108BD00030F82110ADF800109DF8021001F00F01DF
:108BE00000EB81004088ADF80200BDF8001048405D
:108BF00016BD81B00090C1F11000BDF8002002FA4E
:108C000001F302411A43ADF80020BDF8022042FAF8
:108C100001F102FA00F00843ADF80200009801B03B
:108C200070472DE9F84304460D469146CDB16D1EBF
:108C30002788B4F80280002631464846FFF7D9FF5E
:108C400001464046FFF7B8FF784080B2474680466D
:108C5000761C082EF0DB24F8027B24F8028B002D12
:108C6000E5D10020BDE8F2832DE9F04780460E46AD
:108C70009246DEB1761EB8F80050B8F80290082788
:108C80007F1E39465046FFF7B4FF2C460146A0B27E
:108C9000FFF792FF80EA090085B2A146012FEFDAC3
:108CA00028F8025B28F8029B002EE3D10020BDE8E3
:108CB000F08741EA00402449086070472DE9F041FF
:108CC0000F4614463D46AE1017F0030818BF761C39
:108CD0003A4601462046FEF7D3FCB8F1000F04D017
:108CE000381D07F00301471A3FB20020791B012904
:108CF00006DB421900231355401C00B28842F8DB02
:108D00001148026831462046FFF78BFF78B2BDE874
:108D1000F08138B50C46154603210C4202D04FF0C5
:108D2000FF3032BD224601462846FEF7A9FC064820
:108D30000268A1102846FFF797FF60B232BD00001D
:108D400010BD000834BC0008C065002030B5DFF855
:108D50008C4589B02046FFF763F8DFF88455284634
:108D6000FFF75EF801A8FFF7F0F90020ADF80A0060
:108D70000390ADF8060001A90D208DF8080005202C
:108D80008DF809000820ADF804002046FFF76BF8C5
:108D900001A92846FFF767F80020ADF81A00012066
:108DA0008DF81C00002004900590ADF818000120FB
:108DB0008DF81D0004A8FFF73BF914208DF8000082
:108DC00000208DF801008DF8020001208DF80300CD
:108DD00000A802F01DF809B030BD38B5DFF8044531
:108DE00000206074E0630621DFF8FC04A4630170D6
:108DF000082200214170FF2181702821017100208B
:108E000060820021DFF8E404A1820180DFF8E00441
:108E1000017004F14000FF2102F098FB0822FF21BD
:108E200004F1480002F092FB0822FF2104F118002F
:108E300002F08CFB0822FF2104F1500002F086FBB7
:108E40000822FF2104F1580002F080FB0822FF21D4
:108E500004F1600002F07AFB0822FF2104F1800097
:108E600002F074FB0822FF2104F1080002F06EFBFF
:108E7000002020730822FF2104F1980002F066FB15
:108E80000822FF2104F1A00002F060FB0822FF216C
:108E900004F1A80002F05AFB0822FF2104F1B000FF
:108EA00002F054FB0822FF2104F1B80002F04EFB4F
:108EB0000822FF2104F1C00002F048FB0822FF2134
:108EC00004F1C80002F042FB04F5A8750822FF2156
:108ED000284602F03BFB1022FF2104F1880002F03B
:108EE00035FB1522FF2104F1680002F02FFB082258
:108EF000FF2104F1D00002F029FB1522FF2104F12B
:108F0000D80002F023FB0822FF2104F1E00002F068
:108F10001DFB0D22FF2104F1E80002F017FB0822DF
:108F2000FF2104F1F80002F011FB0822FF2104F5F3
:108F3000807002F00BFB0822FF2104F5847002F020
:108F400005FB0822FF2104F5887002F0FFFA0822D1
:108F5000FF2104F58C7002F0F9FA0822FF2104F5D4
:108F6000907002F0F3FA0822FF2104F5947002F0E9
:108F7000EDFA0822FF2104F5987002F0E7FA0822C2
:108F8000FF2104F59C7002F0E1FA0822FF2104F5AC
:108F9000A07002F0DBFA0822FF2104F5A47002F0B1
:108FA000D5FA1622FF2104F1200002F0CFFA0822A0
:108FB000FF21284602F0CAFA0822FF21DFF8340315
:108FC00002F0C4FADFF83043A52202212046FEF762
:108FD00093FBA01CBDE83840F0220221FEF78CBBB9
:108FE00017B59DF802002F2813D0DFF81043207822
:108FF00000EB400304EB83000C2200A9801CFEF769
:109000003FFB2078401C2070C0B2FF2806D1002012
:10901000AFE001A80CC8DFF8E8120CC103B010BD26
:1090200010B1DFF8C432987011B1DFF8BC02C17022
:1090300012B1DFF8B4020270704700B5DFF8A81271
:109040000A784B781B0603EB82628B7802EB0342B3
:10905000CB78097985B002EB0322511801910822DF
:1090600004218DF8081000218DF8091008218DF8D1
:109070000A1001460DF10B00FEF702FB00A9DFF814
:109080005C02FFF772F805B000BD30B5DFF874423E
:10909000B4F86800401CA4F8680085B0C00741D44B
:1090A000DFF858526878297881423BD000EB4001C4
:1090B00005EB8100C2788178120402EB016102792C
:1090C00001EB0221427989180191082204218DF8CF
:1090D000081000218DF8091008218DF80A1000A948
:1090E0008379CB72401C491C521EF9D100A9DFF8CC
:1090F000EC01FFF73AF82070042809D06878401C8A
:109100006870C0B2FF280DD10020687005B030BD76
:1091100061780A191071481C6070C0B26528A4BF3C
:109120000020607005B030BD10B583B018208DF8F8
:10913000000001A9FF208DF801002F208DF802000A
:1091400028208DF80300DFF8B441DFF8B4010CC823
:109150000CC1207800EB400304EB83000C2200A933
:10916000801CFEF78DFA2078401CC0B2FF2808BF93
:109170000020207003B010BD00B583B00622FB2193
:10918000FF20FFF74DFF5748C17C01290ED0017D1C
:10919000491C0175C9B20B2908DA3C208DF8000082
:1091A000FF208DF8010000A8FFF747FF03B000BDC6
:1091B0004C48C17C012900D07047F0B5524C217851
:1091C000002940F08A80494A504D128801E0491C2C
:1091D000C9B2914280F281804E194F1996F85060C1
:1091E0007F78B7426FD005F15001681CFEF748FA4E
:1091F0002878FF280CBF0020401C2870287885F8AC
:10920000A00018B102281ED00BD337E00422691C3D
:1092100005F1A100FEF734FAFF220C2105F1A500AB
:1092200029E005F2A1060422314605F1A500FEF76A
:1092300027FA0422691C3046FEF722FAFF22082191
:1092400005F1A90017E005F2A5070422394605F14A
:10925000A900FEF715FA05F2A106042231463846A8
:10926000FEF70EFA0422691C3046FEF709FAFF22C7
:10927000042105F1AD00FEF73FFA1AE005F2A90658
:109280000422314605F1AD00FEF7FAF905F2A50713
:10929000042239463046FEF7F3F905F2A10604220E
:1092A00031463846FEF7ECF90422691C3046FEF7D9
:1092B000E7F995F8A000FB28A4BFFA2085F8A000E4
:1092C00001202070F0BD2A2E7FF481AF467D761CF0
:1092D0004675F6B2032EFFF67AAFF0BD006400408B
:1092E000006800400C9A0020109E00200E9E002076
:1092F000509E0020EC9D0020CC9D0020F08300209B
:10930000549B0020549C0020E89D0020649B00207A
:1093100038B5044600F0D9F8DFF8345400221021A3
:109320002846FCF765FFD82000F0A5F82002000EC3
:1093300000F0A1F82004000E00F09DF8E0B200F06B
:109340009AF8012210212846FCF752FFBDE831406F
:10935000CCE02DE9F84304460F46164600F0B5F878
:10936000DFF8EC93002210214846FCF741FF022071
:1093700000F081F83802000E00F07DF83804000E8D
:1093800000F079F8F8B200F076F82EB3012794F8DF
:1093900000800025761E002220214846FCF728FF89
:1093A000C5F1070007FA00F04146014214BF01224F
:1093B000002280214846FCF71BFF0122202148465D
:1093C000FCF716FF40214846FCF7FDFD6D1C082DFB
:1093D000E1DB641C002EDAD1012210214846FCF7A3
:1093E00007FFBDE8F14381E02DE9F84380460F46D1
:1093F0001646DFF85C93002210214846FCF7F8FE81
:10940000032000F038F83802000E00F034F8380479
:10941000000E00F030F8F8B200F02DF83EB301274E
:1094200000240025761E002220214846FCF7E0FE9D
:10943000C5F1070007FA00F010F0A50014BF0122E3
:10944000002280214846FCF7D3FE01222021484615
:10945000FCF7CEFE40214846FCF7B5FD6D1C40EA06
:109460004404082DDFDB08F8014B002ED8D1484614
:10947000BDE8F84336E02DE9F0410446002500261A
:109480000127DFF8CC82002220214046FCF7B0FE05
:10949000C6F1070007FA00F0044214BF01220022BF
:1094A00080214046FCF7A4FE012220214046FCF723
:1094B0009FFE40214046FCF786FD761C40EA4505AC
:1094C000082EE0DBE8B2BDE8F08110B5A04C002228
:1094D00010212046FCF78CFE0620FFF7CCFF20462B
:1094E000BDE8104001221021FCF782BEF8B5984C6F
:1094F000002210212046FCF77BFE0520FFF7BBFF72
:10950000012500260027002220212046FCF770FEBE
:10951000C7F1070005FA00F010F0A50014BF012202
:10952000002280212046FCF763FE012220212046F4
:10953000FCF75EFE40212046FCF745FD7F1C40EA1B
:109540004606082FDFDBF007DBD42046BDE8F840F5
:10955000C8E710B4002261B10FF2042310F8014BE8
:109560005440E4B233F8144084EA222292B2491EF5
:10957000F4D110BC1046704710B501221021744878
:10958000FCF736FE734C01224FF400612046FCF7D5
:109590002FFE2046BDE8104001224FF48061FCF709
:1095A00027BE10B5012804D038D303280ED017D316
:1095B00010BD694C207A30B94FF48030FFF7A8FE17
:1095C0000120207227E0BDE810404AE0624C207A7A
:1095D00018B90120207203201DE0BDE8104084E08E
:1095E0004FF47C10FFF794FE5C485B4CB0F8011020
:1095F0002171080A607106224FF47C112046FFF7A2
:10960000A8FE06224FF47C1104F10C00FFF7ECFEDB
:10961000002020720220BDE810400FE010BD00B510
:1096200083B002218DF8001000AA4C49B1F8013036
:10963000B1F801105370090A91700AE000B583B0C7
:1096400002218DF800108DF80200862103208DF88C
:1096500001108DF80A0000A90420FEF7BEF803B03F
:1096600000BD38B53D4C4FF48061E01CFFF771FF41
:10967000B4F80314884233D10620FFF7D0FFB4F8C2
:109680000100800200F580354FF480722946E01C0D
:10969000FFF75FFE4FF4807205F5807104F203104E
:1096A000FFF757FE4FF4807205F5007104F20320B6
:1096B000FFF74FFE4FF4807205F5407104F203305E
:1096C000FFF747FE244C4FF48062294604F1140052
:1096D000FFF78AFE207A022806D10020207231BDD1
:1096E0001520BDE832409AE731BD70B51B4C4FF4F0
:1096F0008061E01CFFF72DFF174DB4F8031468815B
:10970000884221D1B4F80100800200F58036FF22A2
:109710004FF4806105F1140001F022FF4FF48062E4
:10972000314605F11400FFF75FFE4FF48062E11C43
:1097300005F1140001F032FF30B9287A022804BF85
:1097400000202872062000E01520BDE8704066E782
:109750000000024000080240304E0020F09300203C
:109760000000C1C081C1400101C3C003800241C2E9
:1097700001C6C006800741C70005C1C581C44004B9
:1097800001CCC00C800D41CD000FC1CF81CE400E69
:10979000000AC1CA81CB400B01C9C009800841C879
:1097A00001D8C018801941D9001BC1DB81DA401AE9
:1097B000001EC1DE81DF401F01DDC01D801C41DCB9
:1097C0000014C1D481D5401501D7C017801641D6E9
:1097D00001D2C012801341D30011C1D181D04010F9
:1097E00001F0C030803141F10033C1F381F24032E9
:1097F0000036C1F681F7403701F5C035803441F4B9
:10980000003CC1FC81FD403D01FFC03F803E41FE68
:1098100001FAC03A803B41FB0039C1F981F8403878
:109820000028C1E881E9402901EBC02B802A41EAE8
:1098300001EEC02E802F41EF002DC1ED81EC402CB8
:1098400001E4C024802541E50027C1E781E64026E8
:109850000022C1E281E3402301E1C021802041E0F8
:1098600001A0C060806141A10063C1A381A24062E8
:109870000066C1A681A7406701A5C065806441A4B8
:10988000006CC1AC81AD406D01AFC06F806E41AE68
:1098900001AAC06A806B41AB0069C1A981A8406878
:1098A0000078C1B881B9407901BBC07B807A41BAE8
:1098B00001BEC07E807F41BF007DC1BD81BC407CB8
:1098C00001B4C074807541B50077C1B781B64076E8
:1098D0000072C1B281B3407301B1C071807041B0F8
:1098E0000050C190819140510193C05380524192E8
:1098F0000196C056805741970055C19581944054B8
:10990000019CC05C805D419D005FC19F819E405E67
:10991000005AC19A819B405B0199C0598058419877
:109920000188C04880494189004BC18B818A404AE7
:10993000004EC18E818F404F018DC04D804C418CB7
:109940000044C184818540450187C04780464186E7
:109950000182C042804341830041C18181804040F7
:1099600000B50100DFF8780183B001694FF40062AF
:109970004FF2FF7308D019404161009201218DF828
:1099800004108DF8051005E0194041610092002196
:109990008DF8041000A9FCF775FA03B000BD70B58E
:1099A00004460120FDF750FF0825DFF83461E4B2DA
:1099B000E0094FF40061304602D0FCF7C1FB01E042
:1099C000FCF7EAFB0120FDF73FFF4FF480613046D2
:1099D000FCF7B6FB0120FDF737FF64004FF4806110
:1099E0003046FCF7D9FB0120FDF72EFF6D1EDED1BE
:1099F0004FF400613046FCF7CFFB0120FDF724FF58
:109A00004FF480613046FCF79BFB0120FDF71CFF03
:109A10003046BDE870404FF48061FCF7BDBB70B5C7
:109A200004460D46DFF8B8604FF400613046FCF79D
:109A300087FB0120FFF794FF4FF400613046FCF7ED
:109A40007FFB4FF480613046FCF77AFB0120FDF785
:109A5000FBFE4FF400613046FCF79EFB0120FDF752
:109A6000F3FE4FF480613046FCF796FB8A20FFF747
:109A700096FFE0B2FFF793FF2846FFF790FF4FF401
:109A800000613046FCF788FB0120FDF7DDFE4FF456
:109A900080613046FCF754FB0120FDF7D5FE3046CF
:109AA000BDE870404FF40061FCF74ABB10B5841C60
:109AB00002E0FFF7B4FFA41C20786178FF2808BFFC
:109AC000FF29F6D10021FFF7AAFFBDE810404FF4AF
:109AD000FA70FDF7B9BE00BF0248E7E700000000DA
