:020000040800F2
:10400000A898002011C00008ADA60008AFA60008BF
:10401000B1A60008B3A60008B5A60008000000007D
:10402000000000000000000000000000B7A600082B
:10403000B9A6000800000000BBA60008BDA6000845
:1040400051C0000855C0000859C000085DC00008F4
:1040500061C0000865C0000869C000086DC00008A4
:1040600071C0000875C0000879C000087DC0000854
:1040700081C0000885C0000889C000088DC0000804
:1040800091C0000895C0000899C000089DC00008B4
:1040900011A70008A5C00008A9C00008ADC000080D
:1040A000B1C00008B5C00008B9C00008BDC0000814
:1040B000C1C00008C5C000087DA80008CDC0000828
:1040C000D1C00008D5C00008D9C00008DDC0000874
:1040D000E1C00008E5C00008E7A80008EDC000083E
:1040E000F1C00008F5C00008F9C00008FDC00008D4
:1040F00001C1000805C1000809C100080DC1000880
:1041000011C1000815C10008D3A800081DC100088E
:104110002DAC000825C1000829C100082DC10008E8
:1041200031C1000835C1000839C100083DC100088F
:1041300041C1000845C1000849C100084DC100083F
:1041400051C1000855C1000859C100085DC10008EF
:1041500061C1000865C1000869C100086DC100089F
:1041600071C1000875C1000879C100087DC100084F
:1041700081C1000885C1000889C100088DC10008FF
:1041800091C1000895C100081CB501F077FE0F230E
:104190000F220221032000F00DFA1F2001900023BE
:1041A0002D2000901A461146032001F04DFD1F20DE
:1041B000019000232D2000901A460121032001F0D8
:1041C00043FD1F20019000232D2000901A4602215C
:1041D000032001F039FD1F20019000232D200090C5
:1041E00003211A46084601F02FFD1F2000900022EF
:1041F0002D231146032001F0A6FDF02310220221F9
:10420000032000F0D7F9502000901022DFF8BC4ABC
:1042100004F108030221032000F06DFA20798009DF
:1042200028D12020009004F15803602202210320AD
:1042300000F061FA2020009004F17803802202212E
:10424000032000F058FA2020009004F17803A02207
:104250000221032000F04FFA2020009004F178039F
:10426000C0220221032000F046FA2020009004F131
:10427000780324E02020009004F1980360220221BA
:10428000032000F038FA20200090B8342346802222
:104290000221032000F02FFA202000902346A022C4
:1042A0000221032000F027FA202000902346C0229C
:1042B0000221032000F01FFA202000902346E02274
:1042C0000221032000F017FA13BD2DE9F041DFF8B9
:1042D000FC49DFF8FC89A0700E46207940F004000C
:1042E000207115464FF48051404601F055FFDFF82C
:1042F000E4794FF48041384601F022FF4FF4005139
:10430000384601F01DFF4FF40051404601F044FFD4
:104310004FF48061384601F03FFF4FF4805138463A
:1043200001F00EFF002000F0A0FB384601F0DAFE9D
:1043300000F47F4046EA0001384601F0B8FF4FF430
:104340008051404601F0FCFE4FF48051404601F0A0
:1043500023FF002000F089FB384601F0C3FE00F483
:104360007F4045EA0001384601F0A1FF4FF40051BB
:10437000384601F011FF4FF40051384601F0E0FEDD
:104380004FF48051404601F007FF4FF4804138461A
:1043900001F0D6FE4FF40051384601F0D1FE4FF443
:1043A0000051404601F0F8FE4FF48061384601F0BC
:1043B000C7FE4FF48051384601F0C2FE002000F0E5
:1043C00054FB384601F08EFE40F0FF01384601F004
:1043D0006EFF207900F0FB002071BDE8F0812DE92F
:1043E000F041DFF8E858DFF8E868A8700F46287950
:1043F00040F00400287114464FF48051304601F01B
:10440000CBFEDFF8D0884FF48041404601F098FEA3
:104410004FF40051404601F093FE4FF400513046F6
:1044200001F0BAFE4FF48061404601F0B5FE4FF452
:104430008051404601F084FE002000F016FB40460B
:1044400001F050FE00F47F4047EA0001404601F0D1
:104450002EFF4FF48051304601F072FE4FF4805130
:10446000304601F099FE2778002000F0FEFA404621
:1044700001F038FE00F47F4047EA0001404601F0B9
:1044800016FF4FF40051404601F086FE4FF40051F4
:10449000404601F055FE6778002000F0E6FA4046FD
:1044A00001F020FE00F47F4047EA0001404601F0A1
:1044B000FEFE4FF40051404601F06EFE4FF40051F5
:1044C000404601F03DFEA778002000F0CEFA4046BD
:1044D00001F008FE00F47F4047EA0001404601F089
:1044E000E6FE4FF40051404601F056FE4FF40051F5
:1044F000404601F025FEE778002000F0B6FA40467D
:1045000001F0F0FD00F47F4047EA0001404601F071
:10451000CEFE4FF40051404601F03EFE4FF40051F4
:10452000404601F00DFE2479002000F09EFA40463E
:1045300001F0D8FD00F47F4044EA0001404601F05C
:10454000B6FE4FF40051404601F026FE4FF40051F4
:10455000404601F0F5FD4FF48051304601F01CFE5D
:104560004FF48041404601F0EBFD4FF400514046CE
:1045700001F0E6FD4FF40051304601F00DFE4FF41E
:104580008061404601F0DCFD4FF48051404601F06F
:10459000D7FD002000F069FA404601F0A3FD40F08D
:1045A000FF01404601F083FE287900F0FB002871EE
:1045B000BDE8F0812DE9F843DFF81047DFF81087F8
:1045C000A0700F46207940F00400207191461E46ED
:1045D0004FF48051404601F0DFFDDFF8F8564FF40C
:1045E0008041284601F0ACFD4FF40051284601F00F
:1045F000A7FD4FF40051404601F0CEFD2FB94FF416
:104600008051284601F0C8FD13E0012F0AD14FF474
:104610008051284601F0C0FD4FF48061284601F02A
:104620008FFD0BE0022F09D14FF48051284601F095
:1046300087FD4FF48061284601F0AEFD002000F0B8
:1046400014FA284601F04EFD00F47F4049EA0001CB
:10465000284601F02CFE4FF48051404601F070FDD9
:104660004FF48051404601F097FD002000F0FDF925
:10467000284601F037FD00F47F4046EA0001284655
:1046800001F015FE4FF40051284601F085FD4FF46E
:104690000051284601F054FD4FF48051404601F08E
:1046A0007BFD4FF48041284601F04AFD4FF4005154
:1046B000284601F045FD4FF40051404601F06CFDE5
:1046C0004FF48061284601F03BFD4FF480512846AD
:1046D00001F036FD002000F0C8F9284601F002FD87
:1046E00040F0FF01284601F0E2FD207900F0FB00D8
:1046F0002071BDE8F1832DE9F843DFF8D055DFF8EC
:10470000D085A8700F46287940F00400287114461F
:104710001E464FF48051404601F03EFDDFF8B4954F
:104720004FF48041484601F00BFD4FF400514846DC
:1047300001F006FD4FF40051404601F02DFD2FB968
:104740004FF48051484601F027FD13E0012F0AD1B4
:104750004FF48051484601F01FFD4FF480614846F8
:1047600001F0EEFC0BE0022F09D14FF480514846D6
:1047700001F0E6FC4FF48061484601F00DFD002099
:1047800000F073F9484601F0ADFC00F47F4044EAC4
:104790000001484601F08BFD4FF48051404601F086
:1047A000CFFC4FF48051404601F0F6FC089CA4B2C7
:1047B000D4B116F8017B002000F057F9484601F00B
:1047C00091FC00F47F4047EA0001484601F06FFD8C
:1047D0004FF40051484601F0DFFC4FF400514846C9
:1047E00001F0AEFC641EE4D14FF48051404601F06C
:1047F000D3FC4FF48041484601F0A2FC4FF4005135
:10480000484601F09DFC4FF40051404601F0C4FCC5
:104810004FF48061484601F093FC4FF480514846C4
:1048200001F08EFC002000F020F9484601F05AFC0F
:1048300040F0FF01484601F03AFDFFE7287900F01B
:10484000FB002871BDE8F1832DE9F041DFF87C44DD
:10485000DFF87C74A0700E46207940F004002071CF
:1048600015464FF48051384601F096FCDFF8648419
:104870004FF48041404601F063FC4FF40051404644
:1048800001F05EFC4FF40051384601F085FC2EB972
:104890004FF48051404601F07FFC13E0012E0AD115
:1048A0004FF48051404601F077FC4FF48061404660
:1048B00001F046FC0BE0022E09D14FF48051404636
:1048C00001F03EFC4FF48061404601F065FC0020A1
:1048D00000F0CBF8404601F005FC00F47F4045EACB
:1048E0000001404601F0E3FC4FF48051384601F0EE
:1048F00027FC4FF48051384601F04EFC4FF48041C4
:10490000404601F049FC012000F0AFF8404601F0BC
:10491000BBFB05464FF48041404601F011FC4FF4CB
:104920008051384601F038FC4FF48041404601F098
:1049300007FC4FF40051404601F002FC4FF40051D7
:10494000384601F029FC4FF48061404601F0F8FB45
:104950004FF48051404601F0F3FB207900F0FB005A
:104960002071E8B2BDE8F081F8B5DFF86043DFF808
:104970006053A0704FF48051207940F00400207102
:10498000284601F009FCDFF84C634FF480413046C3
:1049900001F0D6FB4FF40051304601F0D1FB4FF44B
:1049A0000051284601F0F8FB4FF48061304601F0D9
:1049B000F3FB4FF48051304601F0C2FB002000F0C1
:1049C00054F8304601F08EFB00F47F4040F00A01BD
:1049D000304601F06CFC4FF48051284601F0B0FBEA
:1049E0004FF48051284601F0D7FB002000F03DF83D
:1049F000304601F077FB40F0FF01304601F057FCF4
:104A00004FF48041304601F0C7FB012000F02DF843
:104A1000304601F039FB07464FF48041304601F043
:104A20008FFB4FF48051284601F0B6FB4FF48041D4
:104A3000304601F085FB4FF40051304601F080FB19
:104A40004FF40051284601F0A7FB4FF48061304637
:104A500001F076FB4FF48051304601F071FB207974
:104A600000F0FB002071F8B2F2BD00B583B018B9B8
:104A7000FF200090012004E0012811D1FF200090C8
:104A800000208DF8040000A902208DF80500002008
:104A90008DF8060001208DF807008E4801F0F2F92C
:104AA00003B000BD1CB50020009000238A4C019487
:104AB00064224121032000F0B5FF0020009003464E
:104AC000019464221421032000F0ACFF0020009028
:104AD0000346019464226E21032000F0A3FF00200E
:104AE0000090034601942D221421032000F09AFF28
:104AF00000200090034601942D226E21032000F037
:104B000091FF0020009003460194A5221421032068
:104B100000F088FF0020009003460194A5226E213A
:104B2000032000F07FFF13BD2DE9FC410746002262
:104B300000210320FFF788FE0646102200210320F3
:104B4000FFF782FE0446202200210320FFF77CFEAF
:104B50000546302200210320FFF776FE8046FFF74E
:104B6000A1FF57B9802E16D1DFF8A00E01900023C7
:104B70000020009064224121A3E0012F02D1802C6B
:104B800009D1F1E7022F01D1802DF9E7032F0AD1D6
:104B9000B8F1800FE8D05048019000230020009029
:104BA000642241218DE0042F17D1802E14BF4A4882
:104BB000DFF8580E01900023002000906422142199
:104BC000032000F02FFF802C2BD1DFF8400E019046
:104BD000002300200090642272E0052F0FD1802E68
:104BE0002AD1DFF8280E01900023002000906422D3
:104BF0001421032000F016FF802D12D1E5E7062FC7
:104C000016D1802E23D1DFF8040E0190002300205E
:104C1000009064221421032000F004FFB8F1800FFB
:104C2000D3D02D480190002300200090642247E05B
:104C3000072F03D1802CD4D02748D4E7082F02D1E6
:104C4000802C04D1DFE7092F03D1802DDBD022484F
:104C5000DBE70A2F38D1802E14BF1F48DFF8AC0DD8
:104C600001900023002000902D221421032000F049
:104C7000D9FE802C14BF1848DFF8900D0190002356
:104C8000002000902D226E21032000F0CBFE802D0D
:104C900014BF1148DFF8740D01900023002000902C
:104CA000A5221421032000F0BDFEB8F1800F14BF2F
:104CB0000948DFF8580D0190002300200090A5223C
:104CC0006E21032000F0AEFEBDE8F3819463002066
:104CD000000C0240001802400000002000B583B024
:104CE000002861D1A1B11F20019000222D20009049
:104CF00000231146032000F0A7FFDFF8140D0190F8
:104D00000522002000900346A221032000F08AFE25
:104D10000123802200210320FFF74CFCFF23812286
:104D200000210320FFF746FCFF23822200210320FD
:104D3000FFF740FCFF23832200210320FFF73AFC0A
:104D4000FF23842200210320FFF734FC802310225C
:104D500001210320FFF72EFC01231822012103204B
:104D6000FFF728FC0223202201210320FFF722FC69
:104D70000323282201211846FFF71CFC00233022C0
:104D800001210320FFF716FCB0233122012103206B
:104D9000FFF710FC0023322201210320FFF70AFC59
:104DA0007823332200F010BE012861D1A1B11F2069
:104DB000019000222D20009000231146032000F0D6
:104DC00043FFDFF8500C01900522002000900346BD
:104DD000A221032000F026FE41239022002103207F
:104DE000FFF7E8FBFF23912200210320FFF7E2FBFE
:104DF000FF23922200210320FFF7DCFBFF239322F5
:104E000000210320FFF7D6FBFF239422002103207B
:104E1000FFF7D0FB0023102201210320FFF7CAFB7C
:104E20008123182201210320FFF7C4FB0223202243
:104E300001210320FFF7BEFB0323282201210320C9
:104E4000FFF7B8FB0023342201210320FFF7B2FB58
:104E5000B023352201210320FFF7ACFB00233622CB
:104E600001210320FFF7A6FB7823372200F0ACBD19
:104E7000022861D1A1B11F20019000222D200090B5
:104E800000231146032000F0DFFEDFF88C0B0190B9
:104E90000522002000900346A221032000F0C2FD5D
:104EA0008123A02200210320FFF784FBFF23A122FE
:104EB00000210320FFF77EFBFF23A2220021032015
:104EC000FFF778FBFF23A32200210320FFF772FBEB
:104ED000FF23A42200210320FFF76CFB00231022F4
:104EE00001210320FFF766FB012318220121032083
:104EF000FFF760FB8223202201210320FFF75AFBEA
:104F00000323282201211846FFF754FB00233822EF
:104F100001210320FFF74EFBB0233922012103209A
:104F2000FFF748FB00233A2201210320FFF742FB51
:104F300078233B2200F048BD03285AD1A1B11F209D
:104F4000019000222D20009000231146032000F044
:104F50007BFEDFF8C80A019005220020009003467E
:104F6000A221032000F05EFDC123B0220021032016
:104F7000FFF720FBFF23B12200210320FFF71AFBDC
:104F8000FF23B22200210320FFF714FBFF23B322EB
:104F900000210320FFF70EFBFF23B4220021032092
:104FA000FFF708FB0023102201210320FFF702FB7B
:104FB0000123182201210320FFF7FCFA02232022FB
:104FC00001210320FFF7F6FA832328220121032081
:104FD000FFF7F0FA00233C2201210320FFF7EAFA51
:104FE000B0233D2201210320FFF7E4FA002300F063
:104FF000E4BC042840F0A380F9B11F2001900022F6
:105000002D20009000231146032000F01DFEDFF844
:10501000000A019005220020009003464C21032045
:1050200000F000FDDFF8EC0901900522002000905F
:105030000346A221032000F0F5FC01238022002179
:105040000320FFF7B7FAFF23812200210320FFF797
:10505000B1FAFF23822200210320FFF7ABFA7F235E
:10506000832200210320FFF7A5FAFF2384220021D9
:105070000320FFF79FFA4123902200210320FFF72E
:1050800099FAFF23912200210320FFF793FAFF23CF
:10509000922200210320FFF78DFA7F239322002123
:1050A0000320FFF787FAFF23942200210320FFF754
:1050B00081FA8023102201210320FFF77BFA81234C
:1050C000182201210320FFF775FA02232022012173
:1050D0000320FFF76FFA0323282201210320FFF7A3
:1050E00069FA0023302201210320FFF763FA5823D5
:1050F000312201210320FFF75DFA00233222012132
:105100000320FFF757FA7823332201210320FFF70A
:1051100051FA5823342201210320FFF74BFAB02320
:10512000352201210320FFF745FA00233622012111
:105130000320FFF73FFA7823372200F045BC05280B
:1051400040F0A280F9B11F20019000222D20009094
:1051500000231146032000F077FDDFF8B40801902A
:1051600005220020009003464C21032000F05AFC49
:10517000DFF8A40801900522002000900346A22138
:10518000032000F04FFC0123802200210320FFF7C1
:1051900011FAFF23812200210320FFF70BFAFF23DE
:1051A000822200210320FFF705FA7F2383220021BA
:1051B0000320FFF7FFF9FF23842200210320FFF7DC
:1051C000F9F98123A02200210320FFF7F3F9FF233F
:1051D000A12200210320FFF7EDF9FF23A2220021E5
:1051E0000320FFF7E7F9FF23A32200210320FFF7A5
:1051F000E1F9FF23A42200210320FFF7DBF980233C
:10520000102201210320FFF7D5F9012318220121E3
:105210000320FFF7CFF98223202201210320FFF78B
:10522000C9F90323282201211846FFF7C3F90023F7
:10523000302201210320FFF7BDF95823312201213B
:105240000320FFF7B7F90023322201210320FFF7E3
:10525000B1F97823332201210320FFF7ABF958235A
:10526000382201210320FFF7A5F9B02339220121BB
:105270000320FFF79FF900233A2201210320FFF7C3
:1052800099F978233B229FE3062840F09B80F9B1EF
:105290001F20019000222D200090002311460320A2
:1052A00000F0D2FCDFF86807019005220020009092
:1052B00003464C21032000F0B5FBDFF860070190A6
:1052C0000522002000900346A221032000F0AAFB43
:1052D0000123802200210320FFF76CF9FF238122A4
:1052E00000210320FFF766F9FF238222002103201B
:1052F000FFF760F97F23832200210320FFF75AF98B
:10530000FF23842200210320FFF754F9C123B02298
:1053100000210320FFF74EF9FF23B12200210320D3
:10532000FFF748F9FF23B22200210320FFF742F9DB
:10533000FF23B32200210320FFF73CF9FF23B4220F
:1053400000210320FFF736F98023102201210320DA
:10535000FFF730F90123182201210320FFF72AF972
:105360000223202201210320FFF724F9832328228E
:1053700001210320FFF71EF9002330220121032021
:10538000FFF718F95823312201210320FFF712F902
:105390000023322201210320FFF70CF97823332266
:1053A00001210320FFF706F958233C2201210320A5
:1053B000FFF700F9B0233D2201210320FFF7FAF89F
:1053C0000023FAE2072840F0A280F9B11F200190E3
:1053D00000222D20009000231146032000F034FC11
:1053E000DFF83006019005220020009003464C2192
:1053F000032000F017FBDFF82006019005220020B3
:1054000000900346A221032000F00CFB41239022D0
:1054100000210320FFF7CEF8FF2391220021032073
:10542000FFF7C8F8FF23922200210320FFF7C2F8FC
:105430007F23932200210320FFF7BCF8FF2394224F
:1054400000210320FFF7B6F88123A02200210320CA
:10545000FFF7B0F8FF23A12200210320FFF7AAF8ED
:10546000FF23A22200210320FFF7A4F87F23A32219
:1054700000210320FFF79EF8FF23A4220021032030
:10548000FFF798F80023102201210320FFF792F87C
:105490008123182201210320FFF78CF88223202288
:1054A00001210320FFF786F803232822012103208E
:1054B000FFF780F80023342201210320FFF77AF858
:1054C0005823352201210320FFF774F800233622E8
:1054D00001210320FFF76EF87823372201210320F2
:1054E000FFF768F85823382201210320FFF762F8FC
:1054F000B023392201210320FFF75CF800233A2270
:1055000001210320FFF756F878233B225CE20828AC
:1055100040F09B80F9B11F20019000222D200090C7
:1055200000231146032000F08FFBDFF8E804019010
:1055300005220020009003464C21032000F072FA5F
:10554000DFF8D80401900522002000900346A22134
:10555000032000F067FA4123902200210320FFF787
:1055600029F8FF23912200210320FFF723F8FF23CE
:10557000922200210320FFF71DF87F2393220021B0
:105580000320FFF717F8FF23942200210320FFF7E1
:1055900011F8C123B02200210320FFF70BF8FF23ED
:1055A000B12200210320FFF705F8FF23B2220021DA
:1055B0000320FEF7FFFFFF23B32200210320FEF7A5
:1055C000F9FFFF23B42200210320FEF7F3FF00239D
:1055D000102201210320FEF7EDFF81231822012173
:1055E0000320FEF7E7FF0223202201210320FEF71C
:1055F000E1FF8323282201210320FEF7DBFF0023A4
:10560000342201210320FEF7D5FF58233522012142
:105610000320FEF7CFFF0023362201210320FEF7EF
:10562000C9FF7823372201210320FEF7C3FF582347
:105630003C2201210320FEF7BDFFB0233D220121C2
:105640000320FEF7B7FF0023B7E1092840F0998057
:10565000E9B11F20019000222D2000900023114667
:10566000032000F0F1FAEC480190052200200090A0
:1056700003464C21032000F0D5F9E84801900522AB
:10568000002000900346A221032000F0CBF98123E3
:10569000A02200210320FEF78DFFFF23A12200217D
:1056A0000320FEF787FFFF23A22200210320FEF73D
:1056B00081FF7F23A32200210320FEF77BFFFF232E
:1056C000A42200210320FEF775FFC123B022002190
:1056D0000320FEF76FFFFF23B12200210320FEF716
:1056E00069FFFF23B22200210320FEF763FFFF239F
:1056F000B32200210320FEF75DFFFF23B422002127
:105700000320FEF757FF0023102201210320FEF79C
:1057100051FF0123182201210320FEF74BFF8223B2
:10572000202201210320FEF745FF832328220121A7
:105730000320FEF73FFF0023382201210320FEF75C
:1057400039FF5823392201210320FEF733FF0023BC
:105750003A2201210320FEF72DFF78233B2201216D
:105760000320FEF727FF58233C2201210320FEF7E8
:1057700021FFB0233D2201210320FEF71BFF002360
:105780001BE10A2840F02781002931D01F20019019
:1057900000222D20009000231146032000F054FA2F
:1057A0009B48019005220020009003464C210320D5
:1057B00000F038F997480190052200200090034638
:1057C000A221032000F02EF9934801907D220020B1
:1057D000009003464C21032000F024F98F480190EB
:1057E0007D22002000900346A221032000F01AF938
:1057F0000123802200210320FEF7DCFE7F2381228B
:1058000000210320FEF7D6FEFF2382220021032081
:10581000FEF7D0FE7F23832200210320FEF7CAFE7D
:10582000FF23842200210320FEF7C4FE412390229F
:1058300000210320FEF7BEFE7F23912200210320DA
:10584000FEF7B8FEFF23922200210320FEF7B2FEEE
:105850007F23932200210320FEF7ACFEFF23942236
:1058600000210320FEF7A6FE8123A02200210320B1
:10587000FEF7A0FE7F23A12200210320FEF79AFE5F
:10588000FF23A22200210320FEF794FE7F23A32200
:1058900000210320FEF78EFEFF23A4220021032017
:1058A000FEF788FEC123B02200210320FEF782FE0E
:1058B0007F23B12200210320FEF77CFEFF23B222CA
:1058C00000210320FEF776FE7F23B3220021032070
:1058D000FEF770FEFF23B42200210320FEF76AFECC
:1058E0008023102201210320FEF764FE8123182269
:1058F00001210320FEF75EFE8223202201210320E6
:10590000FEF758FE8323282201210320FEF752FED2
:105910000023302201210320FEF74CFE58233122C0
:1059200001210320FEF746FE00233222012103203D
:10593000FEF740FE3C23332201210320FEF73AFE0E
:105940005823342201210320FEF734FEB0233522F0
:1059500001210320FEF72EFE002336220121032021
:10596000FEF728FE3C23372201210320FEF722FE0A
:105970000023382201210320FEF71CFE5823392280
:1059800001210320FEF716FE3C233A2201210320C9
:10599000FEF710FE78233B2201210320FEF70AFECA
:1059A00058233C2201210320FEF704FEB0233D22B0
:1059B00001210320FEF7FEFD3C233E2201210320AE
:1059C000FEF7F8FD78233F2203B05DF804EB0121D8
:1059D0000320FEF7EFBD03B000BD10B582B0FF207D
:1059E000009000220E4C234600210320FEF783FE88
:1059F000FF20009004F58073002201210320FEF7B0
:105A00007AFEBDE81340FEF7BFBB00001827002058
:105A100044520020BC55002034590020AC5C0020CA
:105A200024600020FFE72DE9FE4F8AB080461798DA
:105A3000179003F0070717990078497801EB0020C9
:105A400080B2049003F0C005179817998078C97840
:105A5000DDF810C001EB0020179909791FFA80F9D1
:105A600016980A4619FB0CFC90FBF2F31CFB01F1A3
:105A700011FB03F102FB130010FB091080B206902A
:105A8000002206214046FEF720FC00220821404665
:105A9000FEF71BFC1798007900FB09F080B2059017
:105AA0000020019004980128C0F2CB8000200390D0
:105AB000B80080308DF8010007AF4EE01798305CD9
:105AC00028438DF81C004FEAA40A179830180AF0F2
:105AD0000F0B41782943797007AA81782943B9705F
:105AE0000021C0782843F870ABF18000387140463F
:105AF000FEF775FCBBF10F0F02D0201D48451EDBE1
:105B00009DF828005044A0EB0B02D2B2052140467C
:105B1000FEF7DBFB9DF8000040EA0B1040F00A02A4
:105B200009214046FEF7D1FB4046FEF71DFF000667
:105B3000FAD49DF801200A214046FEF7C6FB201D3D
:105B400084B2361D4C45B9DB01980599801C80B2A2
:105B50000190039800EB410003900198049988425A
:105B60006FDA03A8068805980199801980B2099018
:105B70004910BDF82C0011FA80F00290C2B2072142
:105B80004046FEF7A2FB0024B9F1010FDCDB0698CA
:105B90003018401D86B20298001280008DF8000077
:105BA00041E01798305C28438DF81C004FEAA40AA6
:105BB000179830180AF00F0B41782943797007AA1B
:105BC00081782943B9700021C0782843F870ABF17F
:105BD000800038714046FEF702FCBBF10F0F02D087
:105BE000201D48451CDB9DF828005044A0EB0B020B
:105BF000D2B205214046FEF768FB9DF8000040EA5E
:105C00000B1209214046FEF760FB4046FEF7ACFE52
:105C10000006FAD49DF801200A214046FEF755FB04
:105C2000201D84B2361D4C45BBDB06980999081827
:105C3000401D86B202980012800000248DF80000FA
:105C400080E70DB0BDE8F08F2DE9F8430E46914690
:105C5000089C80461D46FF220021FEF736FBFF22EE
:105C600001214046FEF731FBFF2202214046FEF7AC
:105C70002CFBFF2203214046FEF727FBE80000EB48
:105C80004505EAB207214046FEF71FFB099880B29E
:105C9000410011FA85F101EBC000401E87B2FAB253
:105CA00008214046FEF711FB2904080E390A01EBD2
:105CB000800040F00202D2B209214046FEF705FB07
:105CC000A000C0B24FEA8907040900F00F0519D0FF
:105CD000FAB205210020FEF7F8FA200150FA87F207
:105CE000D2B206210020FEF7F0FAB00000F1C002A7
:105CF000D2B20A210020FEF7E8FA4046FEF734FE51
:105D00000006FAD4EDB1200150FA87F2D2B2052193
:105D10000020FEF7DAFA07EB04102818421ED2B270
:105D200006210020FEF7D1FAB00000F1C002D2B285
:105D30000A210020FEF7C9FA4046FEF715FE0006CC
:105D4000FAD4BDE8F1832DE9F0410E4617468046AE
:105D50001D46FF220021FEF7B8FAFF22012140462E
:105D6000FEF7B3FAFF2202214046FEF7AEFAFF2209
:105D700003214046FEF7A9FAF80000EB4707FAB204
:105D800007214046FEF7A1FA069880B2410011FAB9
:105D900087F101EBC000401E84B2E2B20821404608
:105DA000FEF793FA3F04380E210A01EB800040F021
:105DB0000202D2B209214046FEF787FA6800760057
:105DC000C0B2050900F00F0716D0F2B2052100207D
:105DD000FEF77BFA280150FA86F2D2B206210020A3
:105DE000FEF773FAE0220A210020FEF76EFA404621
:105DF000FEF7BAFD0006FAD4D7B1280150FA86F2B0
:105E0000D2B205210020FEF760FA06EB0510381823
:105E1000421ED2B206210020FEF757FAE0220A21E4
:105E20000020FEF752FA4046FEF79EFD0006FAD427
:105E3000BDE8F08138B50478012C1EDB451C15F84F
:105E4000013B0B2202210320FEF7B4FB15F8013BB6
:105E50000C2202210320FEF7ADFB15F8013B0D22B9
:105E600002210320FEF7A6FB15F8013B0E220221BA
:105E70000320FEF79FFB641EE1D131BD0048D9E746
:105E80006C6400202DE9F84304460026DFF8640521
:105E90000D4684421CBFDFF8600584421FD0DFF846
:105EA0005C0584421CBFDFF85805844217D0DFF838
:105EB000540584421CBFDFF8500584420FD0DFF840
:105EC0004C0584421FBFDFF848058442DFF84405D3
:105ED000844204D0C1210FF2405000F0E4FA286857
:105EE00020B90FF23450C22100F0DDFA28790028E1
:105EF00018BF012808D0022818BF032804D0C321E6
:105F00000FF2145000F0CFFAE87940B1012818BF21
:105F1000022804D00FF20050C42100F0C4FA01207E
:105F200000FA06F8286808EA0000404546D17700E4
:105F30000320B8406FEA0009206809EA00002060E9
:105F400020682979B940084320602879012818BFC2
:105F500002282AD16879002818BF012808D0022811
:105F600018BF032804D0D6210FF2AC4000F09BFAF2
:105F7000A06809EA0000A060A0686979B9400843F8
:105F8000A060A879002818BF012804D0DD210FF2F5
:105F9000884000F088FA606820EA08006060606865
:105FA000A979B14089B208436060E06809EA00005D
:105FB000E060E068E979B9400843E060761C102EA3
:105FC000ADD3BDE8F18370B504460026DFF82404A4
:105FD0000D4684421CBFDFF82004844220D0DFF845
:105FE0001C0484421CBFDFF81804844218D0DFF878
:105FF000140484421CBFDFF81004844210D0DFF880
:106000000C0484421FBFDFF808048442DFF8040454
:10601000844205D04FF49B710FF2FC3000F043FA3C
:10602000012D18BF022D29D0042D18BF082D25D011
:10603000102D18BF202D21D0402D18BF802D1DD030
:10604000B5F5807F18BFB5F5007F17D0B5F5806F27
:1060500018BFB5F5006F11D0B5F5805F18BFB5F565
:10606000005F0BD0B5F5804F18BFB5F5004F05D0D8
:106070000FF2A43040F2371100F015FA20692842DF
:1060800018BF0126304670BD10B50446DFF8640322
:1060900084421CBFDFF86003844220D0DFF85C0339
:1060A00084421CBFDFF85803844218D0DFF8540341
:1060B00084421CBFDFF85003844210D0DFF84C0349
:1060C00084421FBFDFF848038442DFF8480384425C
:1060D00005D04FF4A6710FF2403000F0E4F92069CA
:1060E00080B210BD10B50446DFF8080384421CBF1F
:1060F000DFF80403844220D0DFF8000384421CBF91
:10610000DFF8FC02844218D0DFF8F80284421CBF9A
:10611000DFF8F402844210D0DFF8F00284421FBF9F
:10612000DFF8EC028442DFF8EC02844205D040F252
:1061300073110FF2E42000F0B6F9606980B210BD6F
:1061400038B50446AB480D4684421CBFAA48844279
:1061500019D0AA4884421CBFA948844213D0A94838
:1061600084421CBFA84884420DD0A84884421FBF67
:10617000A7488442A748844205D040F285110FF217
:10618000982000F090F92DB90FF28C204FF4C371D4
:1061900000F089F9258331BD38B5044695480D4690
:1061A00084421CBF9448844219D0944884421CBF46
:1061B0009348844213D0934884421CBF924884423F
:1061C0000DD0924884421FBF914884429148844236
:1061D00005D04FF4CC710FF2402000F064F92DB9D6
:1061E0000FF2342040F2991100F05DF9658331BD62
:1061F00070B504467F480D46164684421CBF7E4853
:10620000844219D07D4884421CBF7D48844213D00B
:106210007C4884421CBF7C4884420DD07B48844229
:106220001FBF7B4884427B48844205D04FF4D6711F
:106230000FF2E41000F037F9012D18BF022D29D01C
:10624000042D18BF082D25D0102D18BF202D21D0CA
:10625000402D18BF802D1DD0B5F5807F18BFB5F536
:10626000007F17D0B5F5806F18BFB5F5006F11D05E
:10627000B5F5805F18BFB5F5005F0BD0B5F5804F61
:1062800018BFB5F5004F05D00FF28C1040F2AD11DC
:1062900000F009F94EB1012E05D04FF4D7710FF27D
:1062A000781000F000F9258370BD658370BD38B5A6
:1062B000044650480D4684421CBF4F48844219D0C2
:1062C0004E4884421CBF4E48844213D04D488442FD
:1062D0001CBF4D4884420DD04C4884421FBF4C48DF
:1062E00084424C48844205D040F2C3110FF228107A
:1062F00000F0D9F8656131BD70B506463D480D46E0
:10630000144686421CBF3C48864219D03B48864210
:106310001CBF3B48864213D03A4886421CBF3A48CD
:1063200086420DD0394886421FBF394886423948D7
:10633000864205D040F21D210FF2DC0000F0B3F8D8
:10634000002D18BF012D21D0022D18BF032D1DD007
:10635000042D18BF052D19D0062D18BF072D15D0F7
:10636000082D18BF092D11D00A2D18BF0B2D0DD0E7
:106370000C2D18BF0D2D09D00E2D18BF0F2D05D0D7
:106380000FF2940040F21E2100F08DF8002C18BF8F
:10639000092C1ED0012C18BF022C1AD0032C18BFB8
:1063A000042C16D0052C18BF062C12D0072C18BFB1
:1063B000082C0ED00A2C18BF0B2C0AD00C2C1CBF9A
:1063C0000D2C0F2C05D040F21F210FF24C0000F0D5
:1063D0006AF8E80806EB800005F007018900026A08
:1063E0000F238B409A43026204FA01F1026A1143BF
:1063F000016270BD0000024000040240000802403B
:10640000000C02400010024000140240001802403C
:10641000001C024000200240433A5C546F6F6C73D2
:106420005C574C39465C574C5F465F4D6F6E6974E4
:106430006F725F4150505C4C696272617269657342
:106440005C53544D3332463478785F5374645065EE
:10645000726970685F4472697665725C7372635CBE
:1064600073746D3332663478785F6770696F2E634A
:106470000000000080B500F0F5FC002002BD00B572
:1064800085B04FF4E130009000A900200190ADF8F4
:106490000800ADF80C000C20ADF80A00002000F058
:1064A000A3FD05B000BDFEE72DE9F041DFF89C5AE1
:1064B000DFF89C4A28682087002000F0BCFE0020FE
:1064C00000F0B9FE002000F0B6FE28682087002604
:1064D000A04606F1080000F0AEFE761C08F8010B9D
:1064E000182EF6DB08222146DFF8680A01F0A6F82C
:1064F000DFF8640A082204F1080101F09FF808227D
:1065000004F11001DFF8540A01F098F8002604F1B4
:10651000200806F1320000F08EFE761C08F8010B10
:10652000152EF6DBDFF8388A0026474606F16400B0
:1065300000F081FE761C07F8010B4F2EF6DBDFF82A
:10654000246AC82000F077FE3070C92000F073FE86
:106550007070CA2000F06FFEB070CB2000F06BFEB0
:10656000F070D22000F067FE3071D32000F063FE9F
:106570007071D42000F05FFEB071D52000F05BFE9A
:10658000F071DC2000F057FE3072DD2000F053FE89
:106590007072DE2000F04FFEB072DF2000F04BFE84
:1065A000F072FF22DFF8C0794D21781C01F082F8EB
:1065B00005224146384601F041F804223146781D53
:1065C00001F03CF80422311D07F1090001F036F812
:1065D000042206F1080107F10D0001F02FF82868E8
:1065E0002087208F2073000A6073BDE8F08110B50A
:1065F000DFF85449207E002850D1607E30B90F204A
:1066000001F0A9F801F09DFA607E29E0012806D189
:106610000F2001F0A0F801F0EDFA607E20E00228E2
:1066200021D10F2001F097F801F0F1FADFF83C19C1
:10663000607E0978884213D1DFF83409016821F0BF
:106640000201016000206076DFF81809007B012854
:1066500004BFA07E012821D1E07E3D2817DB18E091
:10666000401C607610BD032818D10F2001F073F88C
:1066700001F0E2FA00206076DFF8E808007B0128EC
:1066800004BFA07E012809D1E07E3D2801DA012067
:1066900003E0207F3D2801DA0220207610BD10B5EE
:1066A000DFF8A448607E38B90F2001F054F801F0FB
:1066B000DCFA607E401C16E0012818BF022813D1C6
:1066C0000F2001F048F8607E01F0E8FA607E401C7F
:1066D0006076C0B2032807DBDFF89408016821F078
:1066E000080101600020607610BD38B5DFF88448ED
:1066F000207808B901F0E2FADFF87C080078082871
:1067000018DA06229121FF2001F01BF9DFF86C084E
:1067100001F024F900202070DFF8640801780129D5
:1067200035D100210170DFF84808016821F480713B
:10673000016031BDDFF81058687E40B90F2001F0CC
:106740000AF801F000FB687E401C687631BD012824
:1067500018BF02281BD10F2000F0FDFF687E01F05A
:106760000CFB687E401C6876C0B203280FDBDFF8A4
:1067700010080178012907D100210170DFF8F00726
:10678000016821F48071016000206876207031BDBD
:1067900010B5DFF8B407017E01292AD1C17E3D2959
:1067A0001BDADFF8E0476188491C618089B26429FF
:1067B0000CDB207800281CBFBDE8104001F026B992
:1067C00001F0F4F82078401C207010BDDFF8A0170D
:1067D000097889073AD5002137E0DFF8941709785E
:1067E000890748BF002130D4017F3D292EDA0221DC
:1067F0002BE002292AD1017F3D291BDADFF88447EB
:10680000A188491CA18089B264290CDB607800282A
:106810001CBFBDE8104001F055B901F034F96078B3
:10682000401C607010BDDFF84817097889070DD546
:1068300000210AE0DFF838170978890748BF0021EE
:1068400003D4C17E3D2901DA0121017610BD38B59E
:10685000DFF800472178082000F0C4FC012000F098
:106860007AFF6178092000F0BDFC012000F073FF81
:10687000A1780A2000F0B6FC012000F06CFFE1785E
:106880000B2000F0AFFC012000F065FF21790C2007
:1068900000F0A8FC012000F05EFF61790D2000F0FF
:1068A000A1FC012000F057FFA1790E2000F09AFC16
:1068B000012000F050FFE1790F2000F093FC01204F
:1068C00000F049FFDFF890462178102000F08AFCA4
:1068D000012000F040FF6178112000F083FC0120CE
:1068E00000F039FFA178122000F07CFC012000F0BC
:1068F00032FFE178132000F075FC012000F02BFF3F
:106900002179142000F06EFC012000F024FF617951
:10691000152000F067FC012000F01DFFA179162072
:1069200000F060FC012000F016FFE179172000F074
:1069300059FC012000F00FFFDFF8204621781820D5
:1069400000F050FC012000F006FF6178192000F0F3
:1069500049FC012000F0FFFEA1781A2000F042FC63
:10696000012000F0F8FEE1781B2000F03BFC012044
:1069700000F0F1FE21791C2000F034FC012000F031
:10698000EAFE61791D2000F02DFC012000F0E3FEFD
:10699000A1791E2000F026FC012000F0DCFEE17948
:1069A0001F2000F01FFC012000F0D5FE0024DFF8BE
:1069B000D85515F8011B04F1320000F013FC01203A
:1069C00000F0C9FE641C152CF3DBDFF8945500249D
:1069D00015F8011B04F1640000F004FC012000F034
:1069E000BAFE641C4F2CF3DBDFF87845207B0128CE
:1069F00013D1DFF874550422691D204600F01EFEF5
:106A0000042205F10901201D00F018FE042205F101
:106A10000D0104F1080000F011FE2178C82000F0FB
:106A2000E1FB012000F097FE6178C92000F0DAFB5D
:106A3000012000F090FEA178CA2000F0D3FB0120D5
:106A400000F089FEE178CB2000F0CCFB012000F0C3
:106A500082FE2179D22000F0C5FB012000F07BFEF0
:106A60006179D32000F0BEFB012000F074FEA17913
:106A7000D42000F0B7FB012000F06DFEE179D520B5
:106A800000F0B0FB012000F066FE217ADC2000F06F
:106A9000A9FB012000F05FFE617ADD2000F0A2FB7F
:106AA000012000F058FEA17ADE2000F09BFB0120BF
:106AB00000F051FEE17ADF2000F094FBBDE83240A7
:106AC000012000F048BE10B501F058FA30B901209D
:106AD00001F04FFADFF87004002152E0DFF8AC4417
:106AE000207800285DD1FFF7B2FE0020607001F031
:106AF00045FA68B9002240F22771DFF8940401F0EA
:106B0000A3FBDFF890040022022101F05FFF32E0D6
:106B1000642000F020FE6078401C6070C0B20F2836
:106B2000E5DB02F00EF80021952002F051F8032079
:106B300000F011FE0021952002F04AF8032000F039
:106B40000AFE002240F22771DFF8440401F07CFBCA
:106B5000DFF840040022022101F038FF4FF4966074
:106B600000F0F9FD002002F04CF9012002F03FF99D
:106B700001F004FA38B9012001F0FBF9DFF8C8038D
:106B80000121C17710BD002002F02CF9002002F095
:106B900023F9002001F0D4F9BDE81040002001F0F5
:106BA000E8B910BD38B502F0F9FADFF8C453DFF8E0
:106BB00098432868002868D0C1040BD520F4805081
:106BC00028600622F721FF2000F0BBFEDFF8C80393
:106BD00000F0C4FE286881050BD520F40070286001
:106BE0000622FD21FF2000F0ACFEDFF8B00300F02C
:106BF000B5FE286841050BD520F480602860062288
:106C0000E421EF2000F09DFEDFF8940300F0A6FEE3
:106C10002868C1070BD5400840002860062245219E
:106C2000FF2000F08EFEDFF87C0300F097FE28685E
:106C300081060BD520F0200028600622A321FF202A
:106C400000F07FFEDFF8600300F088FE2868810412
:106C50000BD520F4005028600622AE21FF2000F062
:106C600070FEDFF8480300F079FE2868810702D53E
:106C7000FFF7BDFC19E0010702D5FFF710FD14E096
:106C8000C00502D5FFF731FD0FE0A07E01280CD131
:106C9000E07E3D2804DA207E38B90120207604E029
:106CA000207F3D28BCBF02202076A07E012804BFA3
:106CB000BDE83140FFF76CBD31BD7CB502F02AFA6A
:106CC0000622A021FF2000F03CFEB94D284600F02E
:106CD00045FE2878C021084219BF00F0C0014029B4
:106CE00040F0C00028702878B24CC10604D5A188B5
:106CF00011B900F0CF0028709D4E306841060AD5CA
:106D000020F0400030600622FB21FF2000F019FE39
:106D1000A94800F023FE3068000513D5062247215C
:106D2000EF2000F00EFEA54800F018FEA078401CF1
:106D3000A070C0B2032805DB0020A070306820F4EA
:106D4000006030602078401C2070C0B202280EDB4A
:106D5000002020700622A221FF2000F0F2FD984DB5
:106D6000284600F0FBFD287908B100202871306822
:106D7000754D01060DD520F08000306091480179F5
:106D8000407929716871D5E90001CDE9000100F071
:106D9000CDFB8D480088B0F57A7F1ADD8B480078EE
:106DA000012816D100F0EEFC01220221794801F001
:106DB0000DFE874800210170864801706078401CF4
:106DC0006070C0B20A2804DB61702879697901F02B
:106DD0002CFFFFF778FEE07828B17F48007802F0BA
:106DE00006FC0020E070E97F95F82000012902D020
:106DF000012802D073BD0128FCD1FFF728FD73BD27
:106E000080B5002001F0B5F8012001F099F801F0FB
:106E10009DF802F08CFEFEF7E0FD02F091FE02F01C
:106E2000BFFE01F055FE002000F044FA01F092FF91
:106E300002F070FA012001F0CFFF012001F0D2FF33
:106E400002F08EF8022002F0ADFE042002F0AAFE4D
:106E500000F098FCFFF728FB02F0B4FB614800212A
:106E6000016001BD70B5FFF70AFB03F020FB03F0E2
:106E70002AFB5B4C594D344E03F058FBFFF7C0FF23
:106E800010E02078401CC0B2062808BF0020207007
:106E90000321207890FBF1F101EB4101401A08BF7A
:106EA00002F04CF8308D012801BF00203085707F42
:106EB00001280CD1B07F411CB177042807DB0020EA
:106EC000B07703F0CCFB0021202001F081FE708D13
:106ED000012803D100207085FFF764FEB08D0128E2
:106EE0000AD10020B085FFF7E8FEF07F01281CBF23
:106EF00096F820000128BFD0F08E0128D2D10020C2
:106F0000F086B07E012812D100F06AFF308F401C5D
:106F1000308780B23C280ADB0020308700F044FF35
:106F2000F07E3D28A1BF307F3D28002030763046DE
:106F300000F02CFB30793074707970742878012857
:106F40009FD000202070ADE7AC8F00204C20014086
:106F5000EC8F0020488E0020508E0020408E0020B4
:106F6000808D002060900020188F0020888F0020E6
:106F7000908F0020398E0020388E0020288E00202F
:106F800046900020E68F00200C9000206D9000209D
:106F90000044004000640040A88E0020988E00202D
:106FA000608E0020688E0020788E0020808E002069
:106FB000708E002070900020888E0020A08E00200F
:106FC000208E0020908E00206065002045900020DB
:106FD0005865002057650020A490002034650020EB
:106FE000A29000209C900020F0B506460FF2BC0055
:106FF0000FF2BC0283B0354650F8250052F8252028
:107000000C460121104303F0B7FF1EB901211020E7
:1070100003F0F5FF0FF2AC00DFF88C6030F81520BC
:107020000FF2980030F8151006EB8507D2B2786899
:10703000FFF762F90FF2900030F815200FF2800090
:1070400030F81510B868D2B2FFF756F900208DF865
:10705000060000A901208DF8070002208DF8040029
:107060000FF2500030F81500009002208DF8050056
:107070007868FEF707FF02208DF8040000A90FF2E0
:10708000380030F815000090B868FEF7FBFE56F89F
:107090002500214600F07AFF56F82500012101F075
:1070A0003CF803B0F0BD000028650020010000009E
:1070B00001000000000200000004000009000000C0
:1070C0000A00000007000000070050F8041B61B12F
:1070D00050F8042BD30744BFA9F101039A180023E9
:1070E00042F8043B091FFAD1EFE7704700B50100F1
:1070F000DFF82C0283B001694FF400724FF6FF53A2
:1071000008D019404161009201218DF804108DF8DA
:10711000051005E019404161009200218DF804102E
:1071200000A9FEF7AFFE03B000BD70B50446082508
:10713000DFF8EC61E4B2E0094FF40071304602D0B0
:10714000FEF7FEFF01E0FFF727F84FF480713046AD
:10715000FEF7F6FF64004FF480713046FFF71CF82D
:107160006D1EE7D14FF400713046FFF715F84FF46C
:1071700080713046FEF7E4FF3046BDE870404FF4C2
:107180008071FFF709B870B5DFF894514FF4807142
:107190002846FFF701F84FF400712846FEF7D0FFAC
:1071A0000020FFF7A3FF08264FF480712846FEF762
:1071B000C7FF4FF400712846FEF705FF40EA44047C
:1071C000E4B24FF480712846FEF7E6FF761EEBD15D
:1071D0004FF400712846FEF7DFFF0120FFF786FF1E
:1071E000204670BD70B504460D464D4E4FF40071FB
:1071F0003046FEF7A5FF0120FFF778FF4FF400713E
:107200003046FEF79DFF4FF480713046FEF798FF41
:107210004FF400713046FEF7BFFF4FF480713046E7
:10722000FEF7BAFFA020FFF780FF2004000EFFF753
:107230007CFFE0B29EE038B50446394D4FF4007152
:107240002846FEF77DFF0120FFF750FF4FF4007145
:107250002846FEF775FF4FF480712846FEF770FF51
:107260004FF400712846FEF797FF4FF480712846CF
:10727000FEF792FFA020FFF758FF2004000EFFF753
:1072800054FFE0B2FFF751FF4FF400712846FEF7BC
:1072900057FF4FF480712846FEF752FF4FF40071FC
:1072A0002846FEF779FF4FF480712846FEF774FFF9
:1072B000A120B2E038B50446194D4FF400712846BC
:1072C000FEF73EFF0120FFF711FF4FF40071284643
:1072D000FEF736FF4FF480712846FEF731FF4FF47A
:1072E00000712846FEF758FF4FF480712846FEF7DC
:1072F00053FFD020FFF719FF0A20FFF716FF2046A3
:10730000FFF713FF4FF400712846FEF745FF4FF4D7
:1073100080712846FEF714FF2846BDE834403BE064
:107320000004024070B504460D46014E02E000BF65
:10733000000402404FF400713046FEF701FF0120C7
:10734000FFF7D4FE4FF400713046FEF7F9FE4FF41C
:1073500080713046FEF7F4FE4FF400713046FEF7C0
:107360001BFF4FF480713046FEF716FFD020FFF769
:10737000DCFE2046FFF7D9FE2846FFF7D6FE4FF485
:1073800000713046FEF708FF4FF480713046FEF77B
:10739000D7FE3046BDE870404FF40071FEF7D0BE16
:1073A00038B50446004D01E0000402404FF400717E
:1073B0002846FEF7C5FE0120FFF798FE4FF4007146
:1073C0002846FEF7BDFE4FF480712846FEF7B8FE52
:1073D0004FF400712846FEF7DFFE4FF48071284617
:1073E000FEF7DAFED020FFF7A0FE2046FFF79DFE55
:1073F0004FF400712846FEF7A3FE4FF48071284633
:10740000FEF79EFE4FF400712846FEF7C5FE4FF4CE
:1074100080712846FEF7C0FED120FFF786FEFFF7F9
:10742000B2FE04464FF400712846FEF789FE4FF481
:1074300080712846FEF784FE4FF480712846FEF7DF
:10744000ABFE4FF400712846FEF7A6FE4FF48071A4
:107450002846FEF775FE4FF400712846FEF770FED1
:10746000204632BD64280CDA0A2190FBF1F10A01B2
:1074700050FA82F001EB8102A0EB4201C9B2082070
:1074800050E7704701460D290DDA60B10A2091FBE3
:10749000F0F0020151FA82F100EB8002A1EB42010F
:1074A000C9B207203EE77047014620290DDA60B1D6
:1074B0000A2091FBF0F0020151FA82F100EB800208
:1074C000A1EB4201C9B206202CE7704718280CDA5C
:1074D0000A2190FBF1F10A0150FA82F001EB8102DE
:1074E000A0EB4201C9B204201CE770473C280CDA2B
:1074F0000A2190FBF1F10A0150FA82F001EB8102BE
:10750000A0EB4201C9B203200CE770473C280CDA1B
:107510000A2190FBF1F10A0150FA82F001EB81029D
:10752000A0EB4201C9B20220FCE6704703B581B06E
:1075300002210020FFF7F6FE9DF80400FFF792FFFE
:107540009DF80500FFF79EFF9DF80600FFF7ACFFD2
:107550009DF80710082903DA11B10520FFF7E2FEB4
:107560009DF80800FFF7B2FF9DF80900FFF7BEFF86
:107570009DF80A00FFF7CAFF00210020FFF7D2FEA6
:1075800003B05DF804EB00210120CBE610B5044602
:1075900001210020FFF7C6FE0820FFF701FF0109C7
:1075A00001EB810200F00F0000EB42002070072089
:1075B000FFF7F6FEC0F3001101EB810200F00F00AF
:1075C00000EB420060700620FFF7EAFEC0F30111F5
:1075D00001EB810200F00F0000EB4200A0700520DB
:1075E000FFF7DEFE00F00700E0700420FFF7D8FE92
:1075F000C0F3011101EB810200F00F0000EB42002B
:1076000020710320FFF7CCFEC0F3021101EB8102D1
:1076100000F00F0000EB420060710220FFF7C0FE97
:10762000C0F3021101EB810200F00F0000EB4200F9
:10763000A0710021BDE81040002073E662B38B0703
:1076400008D0521E11F8013B00F8013B00F02480E5
:107650008B07F6D1830740F0208000BF103A07D394
:1076600030B4B1E83810103AA0E83810F9D230BC84
:10767000530724BFB1E80810A0E8081044BF51F830
:10768000043B40F8043BD20724BF31F8022B20F81A
:10769000022B44BF0B7803707047083A07D3B1E858
:1076A0000810083A40F8043B40F804CBF7D25307DF
:1076B000E4E7000062F30F2262F31F42401810F06B
:1076C000030308D0C91A1FD3DB0748BF00F8012DF8
:1076D00028BF20F8022D130030B414461546103987
:1076E00028BF20E93C00FAD8490728BF20E90C0050
:1076F00048BF40F8042D890028BF20F8022D48BF5C
:1077000000F8012D30BC7047C91818BF00F8012DD2
:10771000CB0728BF00F8012D70470000034801681F
:1077200011B10168491E016070470000949000206B
:1077300082B0002107E00099491C009100990529B9
:10774000F9D30199491C01910199814238BF002167
:10775000F3D302B0704782B00021019144F2682156
:1077600008E0009A521C0092009A8A42F9D3019ACA
:10777000521C0192019A824238BF0022F3D302B018
:107780007047000030B5DFF8604789B0204600F050
:1077900083FEDFF85857284600F07EFE01A801F06E
:1077A00010F80020ADF80A000390ADF8060001A91A
:1077B0000D208DF8080005208DF809000820ADF88F
:1077C0000400204600F08BFE01A9284600F087FE49
:1077D0000020ADF81A0001208DF81C000020049054
:1077E0000590ADF8180001208DF81D0004A800F0E8
:1077F0005BFF14208DF8000000208DF801008DF84B
:10780000020001208DF8030000A803F0A5FC09B0D8
:1078100030BD30B5DFF8D846DFF8D85600206076A6
:10782000A862002106202870A18300206870FF2232
:10783000FF20A8702820287100206083DFF8B80698
:107840000180DFF8B806017005F12C00686208219C
:1078500004F1280003F018FDFF22082104F1300094
:1078600003F012FDFF22082104F1200003F00CFDBB
:10787000FF22082104F1380003F006FDFF22082151
:1078800004F1400003F000FDFF22082104F148004C
:1078900003F0FAFCFF22082104F1500003F0F4FC8D
:1078A000FF220821204603F0EFFC00202071FF2278
:1078B000082104F1580003F0E7FCFF22082104F13D
:1078C000600003F0E1FCFF22082104F1680003F0EE
:1078D000DBFCFF22082104F1700003F0D5FCFF223D
:1078E000082104F1780003F0CFFCFF22082104F105
:1078F000800003F0C9FCFF22082104F1880003F096
:10790000C3FCFF22102105F1340003F0BDFCFF226F
:10791000152105F1080003F0B7FCFF220821DFF86C
:10792000E005FFF7C7FEDFF8DC45A522022120466F
:10793000FFF7C0FEA01CBDE83040F0220221FFF797
:10794000B9BE10B1DFF8AC35987011B1DFF8A405FD
:10795000C17012B1DFF89C050270704700B5DFF806
:1079600094150A784B781B0603EB82628B7802EB46
:107970000342CB78097985B002EB032251180191BB
:10798000082204218DF8081000218DF80910082123
:107990008DF80A1001460DF10B0003F092FC00A9CE
:1079A000DFF8440500F01DFF05B000BD80B50722DB
:1079B000FF21EC20FFF7C5FFDFF83805416A2022E0
:1079C0000A700723DFF83015426A0988491CA2F8BB
:1079D000011089B291FBF3F1D170416ACA7880F845
:1079E0002020B1F8012092FBF3F3C3EBC303D21ABA
:1079F00006D0CA78521CCA70416AC97880F8201033
:107A0000FF22416A0A714FF60B7252E01CB5072241
:107A1000FF21EB20FFF795FFDFF8EC44DFF8EC14D3
:107A200020788DF800000722C0EBC0004018C11F6D
:107A30000DF1010003F045FC00A8FFF78FFF20784F
:107A4000401CC0B204281CDBDFF8C4040178491CC8
:107A500001700021DFF8BC0401800020DFF89414DD
:107A600091F82810890703D5DFF8AC14087008E0F6
:107A7000DFF8A81409783D2903DADFF89C14022204
:107A80000A70207013BD80B50722FF21EC20FFF79C
:107A900058FFDFF86004416A20220A701522416A0B
:107AA000A1F801200322CA70FF22416A0A714FF631
:107AB000C872416AA1F805202C300022CA71BDE8C5
:107AC00002404BE71CB50722FF21EB20FFF739FFEF
:107AD000DFF84C44DFF84C1420788DF800000722C2
:107AE000C0EBC0004018C11F0DF1010003F0E9FB1D
:107AF00000A8FFF733FFDFF8FC1320784A6A401C28
:107B00002070C0B2D27882421AD2DFF81004027814
:107B1000521C02700022DFF810042270028091F8DB
:107B20002800800703D5DFF8F003027013BDDFF8EB
:107B3000E00300783D2803DADFF8DC03012101705F
:107B400013BD70B50722FF21EC20FFF7FAFEDFF826
:107B5000A403416A20220A700721426AA2F8011098
:107B6000DFF8C813047B4B782A2C1ABF0824A2F82C
:107B700001405B1CDBB2032B0EDA012400F20D0581
:107B80002E782A2E1DBFB2F80160761CA2F8016083
:107B90005B1CDBB2032B01DB002311E06E78641C5D
:107BA0002A2E1DBFB2F80160761CA2F801605B1C92
:107BB000DBB2032BF0DA641CAD1CE4B20D2CDFDB6E
:107BC0004B70B2F801300F2BACBF03230223D370EC
:107BD000426AD3780B7080F82030FF2111714FF684
:107BE0004572416AA1F805202C300022CA71BDE817
:107BF0007040B3E600B583B00722FF21EB20FFF70A
:107C0000A0FE01208DF800000722C9490BE000B555
:107C100083B00722FF21EB20FFF793FE02208DF8AF
:107C200000000722C3490DF1010003F04AFB00A840
:107C3000FFF794FE03B000BD00B583B00722FF211B
:107C4000EB20FFF77EFEAB48816A21F002018162E2
:107C5000072203218DF8001007210170EB218170AC
:107C6000FF21C17000F11601DDE780B50722FF2179
:107C7000EC20FFF766FE9F48416A20220A700A2224
:107C8000416AA1F801200222CA70416ACA7880F8CC
:107C90002020FF220A714FF6A1720AE71CB50446A4
:107CA0000722FF21EB20FFF74CFEC4EBC4009149F3
:107CB0008DF80040401800F12D016CE010B58C4C9F
:107CC000002020762A220D2104F1080003F0DCFABE
:107CD000002004F1080100EBD07204EB6202801C6A
:107CE00092F8202002F00F0301F8013B120901F87D
:107CF000012B0C28EFDB217E002004F10802137811
:107D00000F2B19D030331370491C5378401CC0B26C
:107D10000F2B11D030335370491C9378401CC0B2E4
:107D20000F2B09D03033401C9370491CC0B202F2B3
:107D300003020C28E3DB02E000192A220272012070
:107D40002176607610BD80B50722FF21EC20FFF779
:107D5000F8FD6848416A20220A70654A416A127E2D
:107D6000A1F801200222CA70416ACA7880F8202056
:107D7000FF220A714FF691729BE61CB5044607225A
:107D8000FF21EB20FFF7DDFDC4EBC40058498DF85F
:107D900000404018411C07220DF1010003F091FA48
:107DA00000A8FFF7DBFD13BD00B583B00622FB2161
:107DB000FF20FFF7C6FD4E48C17E01290ED0017F8E
:107DC000491C0177C9B20B2908DA3C208DF8000064
:107DD000FF208DF8010000A8FFF7C0FD03B000BD33
:107DE0004348C17E012900D07047F0B5524C21783C
:107DF000002977D1404A514D128801E0491CC9B28F
:107E000091426FDA4E194F1996F850607F78B74259
:107E100060D005F15001681CFFF710FC2878FF289E
:107E20000CBF0020401C2870384E2878307018B1E4
:107E3000022819D009D32EE00422691C701CFFF718
:107E4000FDFBFF220C21701D22E00422711C701D1D
:107E5000FFF7F4FB0422691C701CFFF7EFFBFF2205
:107E6000082106F1090013E00422711D06F1090042
:107E7000FFF7E4FB0422711C701DFFF7DFFB0422F7
:107E8000691C701CFFF7DAFBFF22042106F10D00CC
:107E9000FFF710FC16E0042206F1090106F10D00BF
:107EA000FFF7CCFB0422711D06F10900FFF7C6FBAA
:107EB0000422711C701DFFF7C1FB0422691C701C99
:107EC000FFF7BCFB3078FB28A4BFFA2030700120FC
:107ED0002070F0BD2A2E91D1467F761C4677F6B2EF
:107EE000032E8BDBF0BD0000006400400068004002
:107EF000208E0020688F00205E65002054650020E1
:107F0000B08E0020B48F0020E68F0020188F002054
:107F1000C78F0020E88F0020C48F0020C88F00206A
:107F2000E78F00200C900020EA8F00204A9000206C
:107F3000708F0020778F00206C900020808D0020B3
:107F400002464FF480510F48FEF752B910B50D4C60
:107F500000224FF400412046FEF74AF96420FFF763
:107F6000FAFB2046BDE8104001224FF40041FEF725
:107F70003FB9024602210448FEF73AB901210248FE
:107F8000FEF721B80008024000040240F0B50446A4
:107F9000DFF89472DFF8A86285B00D46BC421CBFC2
:107FA000DFF88802844213D0DFF8840284421CBFC9
:107FB000DFF8800284420BD0DFF87C0284421CBFD1
:107FC000DFF87802844203D0F1213046FEF76BFAE5
:107FD000286818B1DFF86C12884203D3F2213046CA
:107FE000FEF761FAA888002818BFB0F5805F03D0BB
:107FF000F3213046FEF757FAE888002818BFB0F59D
:10800000805F09D0B0F5005F18BFB0F5405F03D0C6
:10801000F4213046FEF747FA288900281CBFB0F546
:10802000806FB0F5C06F03D0F5213046FEF73BFA04
:1080300068894FF6F371084200D118B9F62130462D
:10804000FEF731FAA889F8B1B0F5807F1CBFB0F512
:10805000007FB0F5407F05D0F7213046FEF723FAC8
:10806000A88988B1BC421CBFDFF8C00184420BD094
:10807000DFF8BC0184421CBFDFF8C001844203D09A
:10808000FC213046FEF70FFA208A4CF6FF710840BB
:10809000E988084320824EF6F311A0890840A98898
:1080A00008432989084369890843A0814FF6FF41A5
:1080B000A08A0840A9890843A08200A802F015FF01
:1080C000BC421BBFDFF87401844203980298296800
:1080D00019225043A28912044CBF49008900B0FB09
:1080E000F1F16420B1FBF0F000010209642303FB0D
:1080F0001211A289120406D5C9003231B1FBF3F185
:1081000001F0070105E009013231B1FBF3F101F0A3
:108110000F010843208105B0F0BD38B50446DFF8F3
:1081200008010D4684421CBFDFF80001844215D0CF
:10813000DFF8FC0084421CBFDFF8F80084420DD059
:10814000DFF8F40084421CBFDFF8F000844205D061
:1081500040F2A1110FF2E420FEF7A5F95DB1012D67
:1081600005D00FF2D8204FF4D171FEF79CF9A08909
:1081700040F4005003E0A0894DF6FF710840A08153
:1081800031BD38B50446DFF8A0000D4684421CBF5F
:10819000DFF89800844215D0DFF8940084421CBFB9
:1081A000DFF8900084420DD0DFF88C0084421CBFC1
:1081B000DFF88800844205D040F223210FF27C20B2
:1081C000FEF771F9B5F5007F05DB0FF270204FF473
:1081D0000971FEF768F9E805C00DA08031BD10B542
:1081E0000446DFF8440084421CBFDFF840008442AC
:1081F00015D0DFF83C0084421CBFDFF83800844211
:108200000DD0DFF8340084421CBFDFF83000844218
:1082100005D040F233210FF22420FEF744F9A08864
:10822000C005C00D10BD000000100140004400401A
:1082300000480040004C0040005000400014014045
:108240003C840008E1707200F8B50546DFF8D4718F
:108250000E461446BD421CBFDFF8CC01854215D046
:10826000DFF8C80185421CBFDFF8C40185420DD08C
:10827000DFF8C00185421CBFDFF8BC01854205D094
:1082800040F2C3410FF2B410FEF70DF9282E1CBFC7
:1082900040F2277086421BD040F2266086421CBF07
:1082A00040F22550864213D040F2244086421CBF43
:1082B00040F6460086420BD040F66A10864218BF50
:1082C000602E05D040F2C4410FF27010FEF7EBF8BB
:1082D000002C18BF012C05D00FF2601040F2C541F0
:1082E000FEF7E1F840F66A10864210D1BD421CBF8D
:1082F0004D4885420BD04D4885421CBF4E488542B3
:1083000005D040F2CA410FF23410FEF7CCF8300627
:10831000012106F01F02400F9140012808BF05F11E
:108320000C0005D002280CBF05F1100005F1140067
:108330000268002C14BF114322EA01010160F1BD63
:10834000F8B504460026374F0D46BC421CBF3648E0
:10835000844211D0354884421CBF354884420BD03A
:10836000344884421CBF3448844205D040F2565100
:108370000FF2C800FEF797F8282D1CBF40F22771B6
:108380008D4234D040F226618D421CBF40F225510F
:108390008D422CD040F224418D421CBF40F6460154
:1083A0008D4224D040F66A118D420FD0B5F5587F2A
:1083B0001CBF40F225318D4219D0B5F5187F18BF8A
:1083C000B5F5B07F13D040F257510CE0BC421CBF52
:1083D000154884420BD0154884421CBF164884427D
:1083E00005D040F25C510FF25400FEF75CF828060D
:1083F000400F012105F01F0201FA02F2012808BF17
:10840000A08903D002280CBF208AA08A10402A0A23
:1084100091402288114000281CBF002901263046C7
:10842000F2BD000000100140004400400048004040
:10843000004C00400050004000140140433A5C549E
:108440006F6F6C735C574C39465C574C5F465F4DA1
:108450006F6E69746F725F4150505C4C69627261FB
:10846000726965735C53544D3332463478785F5388
:1084700074645065726970685F4472697665725C95
:108480007372635C73746D3332663478785F7573BE
:108490006172742E6300000080B5DFF8C415884255
:1084A00014D0DFF8C015884204D0AB21DFF8B8053E
:1084B000FDF7F9FF01214FF0806002F0E4FD00219B
:1084C0004FF08060BDE8044002F0DDBD01214FF0B7
:1084D000007002F0D8FD00214FF00070F2E7F8B50F
:1084E00004460026DFF87805DFF87C750D468442E7
:1084F0001CBFDFF87005844203D0CB213846FDF75E
:10850000D2FFA879002818BF012803D0CC21384613
:10851000FDF7C9FFE879002818BF012803D0CD2155
:108520003846FDF7C0FF287A002818BF012803D07D
:10853000CE213846FDF7B7FF687A002818BF01281A
:1085400003D0CF213846FDF7AEFFA87A002818BF28
:10855000012803D0D0213846FDF7A5FFE87A00288E
:1085600018BF012803D0D1213846FDF79CFFA87819
:10857000002818BF012807D0022818BF032803D0FD
:10858000D2213846FDF78FFFE878002818BF012870
:1085900007D0022818BF032803D0D3213846FDF79F
:1085A00082FF2879102803DBD4213846FDF77BFFB2
:1085B0006879082803DBD5213846FDF774FF288841
:1085C00010B1B0F5806F03DDD6213846FDF76BFFA3
:1085D000206820F002002060206840F00100206048
:1085E0004FF6FF70014600E0491E6268D20701D4D1
:1085F0000029F9D16168C90754D5A97901292168F1
:108600000CBF41F0800121F080012160E97901294E
:1086100021680CBF41F0400121F040012160297A1E
:10862000012921680CBF41F0200121F020012160C7
:10863000697A012921680CBF41F0100121F0100175
:108640002160A97A012921680CBF41F0080121F0BD
:1086500008012160E97A012921680CBF41F0040179
:1086600021F004012160EA78A978120642EA8171BA
:108670002A7941EA02416A7941EA02512A88521E66
:108680001143E161216849084900216000E0401E72
:108690006168C90701D50028F9D1606800F00100C0
:1086A00080F001063046F2BD70B50446A07A1C2861
:1086B00005DB40F253110FF2C030FDF7F4FEE07A13
:1086C000002818BF012805D04FF4AA710FF2A83076
:1086D000FDF7E9FE207B002818BF012805D040F2F5
:1086E00055110FF29430FDF7DEFE2089002818BFE7
:1086F000012805D04FF4AB710FF27C30FDF7D3FEAB
:10870000607B002818BF012805D040F257110FF2F6
:108710006830FDF7C8FEA17A01208840DFF84C13CD
:108720000A6842F001020A60C243CB691340CB6180
:10873000237B9BB9CB681340CB60E5886688DFF864
:10874000303346EA0545A67A43F83650A57A26889E
:1087500003EBC503A58846EA05455D60237B012B35
:1087600013D1CB680343CB6025886688DFF80033DC
:1087700046EA0545A67A43F83650A57AE68803EB23
:10878000C503A58846EA05455D60E37A002B4B6882
:108790000CBF134003434B60238913B94B691A4044
:1087A00003E0012B02D14A6902434A61627B012A3C
:1087B00002D1CA691043C8610868400840000860D7
:1087C00070BD00218171C171017241728172C172EB
:1087D0008170C17003210171022141710121018069
:1087E000704770B50546DFF878020C4685421CBF1D
:1087F000DFF88002854205D040F246210FF2782052
:10880000FDF751FE207A002818BF042805D040F259
:1088100047210FF26420FDF746FE607A002818BF5A
:10882000022805D04FF412710FF24C20FDF73BFEE9
:10883000A07A092805DB40F249210FF23C20FDF720
:1088400032FEA86840011BD5002605EB0615D5F8B9
:10885000800100F00100C5F88001207AE0B92068AD
:10886000B0F5006F05D340F263210FF20C20FDF745
:108870001AFED5F880012168627A42EA41511DE072
:10888000A868000148BF0126DFD4A868C00048BF1F
:108890000226DAD404263EE06068B0F1005F05D31A
:1088A00040F269210FF2D010FDF7FDFDD5F88001EF
:1088B0006168227A42EAC101627A11430843C5F82D
:1088C0008001A07A00F00F00A07205F5C070416829
:1088D0000909090141604168A27A11434160627B44
:1088E000A17B120442EA0161227B41EA0221E27A81
:1088F00011438160627CA17C120442EA0161227C06
:1089000041EA0221E27B1143C160D5F8800140F0C9
:108910000100C5F88001304670BDF8B50446DFF8A7
:1089200040010D46164684421CBFDFF848018442D0
:1089300005D040F2F2210FF24010FDF7B4FD2F00F8
:1089400018BF012D05D00FF2301040F2F321FDF7D2
:10895000AAFD04EB0510D0F8B0113172317A490745
:10896000D0F8B01159BF490D3160C9087160D0F815
:10897000B01101F00201717200F5D870416801F088
:108980000F01B1724168090AF1748168F17281685E
:10899000090A31738168090C71738168090EB1731A
:1089A000C168F173C168090A3174C168090C717436
:1089B000C068000EB07425B9E06840F02000E060A7
:1089C000F1BD206940F020002061F1BD70B5044682
:1089D00023480D46164684421CBFDFF898008442A7
:1089E00005D04FF4A2610FF29000FDF75CFD012D60
:1089F00018BF022D24D0042D18BF082D20D0102D13
:108A000018BF202D1CD0402D18BFB5F5807F17D082
:108A1000B5F5007F18BFB5F5806F11D0B5F5006FC3
:108A200018BFB5F5004F0BD0B5F5803F18BFB5F5B1
:108A3000003F05D00FF2400040F21151FDF733FD29
:108A400056B1012E05D040F212510FF22C00FDF765
:108A50002AFD6069284301E06069A843606170BD38
:108A60000064004000680040788A0008006600400A
:108A70004066004000680040433A5C546F6F6C737E
:108A80005C574C39465C574C5F465F4D6F6E69745E
:108A90006F725F4150505C4C6962726172696573BC
:108AA0005C53544D3332463478785F537464506568
:108AB000726970685F4472697665725C7372635C38
:108AC00073746D3332663478785F63616E2E630041
:108AD00010B584B042F210700290A820ADF80400E6
:108AE0000020ADF80C00ADF8060001A9334C20467B
:108AF00002F0EEFB0121204602F09AFC0122012146
:108B0000204602F0F3FD1E208DF8000000208DF8B5
:108B100001008DF8020001208DF8030000A802F08A
:108B20001BFB27480021018041808180C18004B067
:108B300024484170017010BD4FF400612248FDF7D8
:108B4000FFBA4FF400612048FDF726BB30B51C4C3E
:108B500021880546C1B01B48A94202D0012100224C
:108B600008E0017821B1491C01700322002101E0D5
:108B70000122012141700270417801291CBF017856
:108B8000002913D10021417002208DF800004221FC
:108B900000A8417005F1100181700321C1700B48DC
:108BA000007818B900A9042001F039F8681E804146
:108BB000C043C00F208041B030BD0000000800401D
:108BC000749000202690002000180240384E0020AB
:108BD00080B549B1C021084203D0410601D4010645
:108BE00004D500F1400201E000F1600202208DF89E
:108BF00000004B2100A8417082700321D2B2C170E5
:108C0000482A02BF6B480088012806D16A480178CB
:108C100041F010010170FFF794FF6848007818B91F
:108C200000A9042000F0FBFF01BD00B5C1B040F079
:108C300080008DF80100022200A88DF800208170CC
:108C40000321C1705D48007818B900A9042000F024
:108C5000E6FF41B000BD2DE9F041594C207860B9E4
:108C6000A062002260680121FDF7C2FAA06801221B
:108C70000221FDF7BDFA01221AE001280BD160683C
:108C800001220121FDF7B4FAA06800220221FDF7BC
:108C9000AFFA01220CE002280ED160680122012106
:108CA000FDF7A6FAA06801220221FDF7A1FA002231
:108CB000E0680421FDF79CFA00250FF2101604F17C
:108CC00010074FF0060836F8021B57F8040BFDF7A3
:108CD0007AF9401E8041C00F690051FA80F5B8F161
:108CE0000108F0D1A06A20B91DB1207805EB8010F1
:108CF000A0622078022824D1A06A08B920631FE06E
:108D0000E16A81421AD1216B491C2163032905D1F3
:108D10002C4A107001211078FFF75AFF206BB0F534
:108D2000967F0ED1274AA06A1070FA20206310782F
:108D3000202806DA0021FFF74BFF02E00021216323
:108D4000E0622078401CC0B20328A8BF0020207039
:108D5000BDE8F08110B584B040F6C4100290A820A0
:108D6000ADF804000020ADF80C00ADF8060001A934
:108D7000154C204602F0ACFA0121204602F058FBC7
:108D800001220121204602F0B1FC32208DF80000C2
:108D900000208DF801008DF8020001208DF80300FD
:108DA00000A802F0D9F907480021017004B010BDF5
:108DB0000000000074900020708E0020384E0020CB
:108DC000BC640020A3900020000C004000040008B8
:108DD000001000200040008002464FF400416A4825
:108DE000FDF706BA024610216848FDF701BA10B532
:108DF0000446224680216548FDF7FAF9644804706C
:108E000010BD0FF2A012624932F8102048704A805B
:108E1000104610B586B07021ADF800100290012107
:108E2000ADF802100421ADF804100221ADF80C10C9
:108E30000021ADF80E104FF48071ADF81010002134
:108E4000ADF8121000A9534C204602F047FB012157
:108E5000204602F0EDFA0121204602F023FC06B084
:108E600010BD30B589B01020ADF81400FA210020F3
:108E7000ADF81600474C48480068B0FBF1F0401EC2
:108E800080B2069005A90020ADF81C008DF81E00E8
:108E9000204602F01DFA7020ADF8000041F27F3547
:108EA0000120ADF8020002950420ADF8040000A9ED
:108EB0000220ADF80C000020ADF80E004FF48070D9
:108EC000ADF810000020ADF81200204602F006FBBD
:108ED0000121204602F0ACFA0121204602F0E2FB1B
:108EE0004FF47A70FEF737FC29480621417045801F
:108EF00009B030BD38B5294C244D01280DD10022D0
:108F00004FF400712846FDF773F90A20FEF723FCA1
:108F100001224FF4807120460CE000224FF4807152
:108F20002046FDF765F90A20FEF715FC01224FF4F3
:108F300000712846BDE83840FDF75AB91848007856
:108F4000FBF7F2BD80B516490870FF2808BF002066
:108F500003D00121FBF7C2FE0120BDE80240C9E7B2
:108F600080B540F6B830FEF7F6FB0020FFF7C2FFF1
:108F7000FFF777FF002280210448FDF739F9044804
:108F80000021017001BD00000018024000080240ED
:108F90009890002000040140146500200000024069
:108FA000A1900020FE403E377E2DFE267F20FF1937
:108FB0007F13FF0C00000000DFF88C03407800F006
:108FC0000300032803DA002818BF012800D000207E
:108FD0007047DFF87403417801F003010329BEBF35
:108FE000C0788009032807DA002908BF002803D0C9
:108FF000012908BF012800D000207047DFF848038E
:109000004078C0F381010329BCBF8009032804DA3A
:1090100000290CBF0028012800D000207047DFF88D
:1090200028034078C0F381010329BCBF80090328CD
:1090300007DA002908BF002803D0012808BF01294A
:1090400000D000207047C0F38100032801DA012816
:1090500000D000207047BD480079C0F30110F4E74C
:10906000B948017901F0030103290CDA59B101294A
:1090700002D10172002104E0022906D1002101720F
:10908000012141727047002101817047AE4801798A
:10909000C1F38101032908DA11B90121002206E098
:1090A000012902D10021012201E000210022817268
:1090B000C2727047A648807800F00700072804DADB
:1090C00018B1042801DA0120704700207047A04839
:1090D0008078C0F3C200072804DA18B1042801DA46
:1090E000012070470020704797480179C1F30111B2
:1090F00003290CDA59B1012902D10173002104E0DE
:10910000022906D10021017301214173704700211A
:1091100081817047F8B58C48807B4FF4800420B182
:109120008C4D286840F4E000286017268A4F894D4E
:109130002868204214BF012200224FF40041384623
:10914000FDF756F801224FF480413846FDF750F8FC
:109150000120FEF700FB00224FF480413846FDF766
:1091600047F86408761EE3D101224FF400513846D7
:10917000FDF73EF80120FEF7EEFA00224FF4005111
:109180003846FDF735F80120FEF7E5FA3846BDE828
:10919000F84001224FF40051FDF72AB838B56A4C67
:1091A00004F13C0004F16401032250F8043C036024
:1091B00051F8043C0B6050F8083C40F8043C51F86E
:1091C000083C41F8043C50F80C3C40F8083C0C3892
:1091D00051F80C3C41F8083C0C39521EE5D10020F6
:1091E000A061FFF70BFF401E8041C043C00FA0618C
:1091F000FFF715FF00B10220A1694518A561FFF72F
:10920000DBFE00B104204519A561FFF7E2FE00B1C5
:1092100008204519A561FFF767FF207B00B11020EA
:109220004019617BA06101B120210D18A561FFF7F4
:109230002DFFE07A00B140204019A17AA06101B170
:1092400080210D18A561FFF70BFF207A08B14FF4BC
:1092500080704019617AA06109B14FF4007108185B
:10926000E178A061C1F38101032904DA012908BF73
:109270004FF4805100D0002108186179A06101F0FD
:109280000301032903DA11B14FF4005100E000217A
:109290000D18A561FFF7DFFE08B14FF480404019BB
:1092A000217CA061C1F38101032904DA012908BFEF
:1092B0004FF4802100D000210D18A561FFF7FAFEC0
:1092C00008B14FF480304519A561FFF700FF08B1E0
:1092D0004FF4003040196178A0618909032901DA4F
:1092E000012900D00021A26BE36B2164934204BFEB
:1092F000E3699A4203D1834204BF164A1060206E8C
:10930000626E824204BF626C904202D18A4208BF00
:10931000A17331BD10B5104C01224FF4805120468D
:10932000FCF766FF0A20FEF716FA00224FF4805180
:109330002046FCF75DFF07486FF07F410160BDE804
:109340001040E7E600000000B08E00207C90002076
:10935000849000209C9000200004024038B5044610
:1093600000F0D9F8DFF82054002210212846FCF73D
:109370003FFFD82000F0A5F82002000E00F0A1F871
:109380002004000E00F09DF8E0B200F09AF80122EF
:1093900010212846FCF72CFFBDE83140CCE02DE938
:1093A000F84304460F46164600F0B5F8DFF8D893A8
:1093B000002210214846FCF71BFF022000F081F834
:1093C0003802000E00F07DF83804000E00F079F845
:1093D000F8B200F076F82EB3012794F8008000254B
:1093E000761E002220214846FCF702FFC5F1070047
:1093F00007FA00F04146014214BF012200228021F9
:109400004846FCF7F5FE012220214846FCF7F0FE15
:1094100040214846FCF7D7FD6D1C082DE1DB641C9C
:10942000002EDAD1012210214846FCF7E1FEBDE80A
:10943000F14381E02DE9F84380460F461646DFF8F8
:109440004893002210214846FCF7D2FE032000F08A
:1094500038F83802000E00F034F83804000E00F03E
:1094600030F8F8B200F02DF83EB3012700240025B3
:10947000761E002220214846FCF7BAFEC5F10700FF
:1094800007FA00F010F0A50014BF0122002280218D
:109490004846FCF7ADFE012220214846FCF7A8FE15
:1094A00040214846FCF78FFD6D1C40EA4404082D1E
:1094B000DFDB08F8014B002ED8D14846BDE8F84361
:1094C00036E02DE9F0410446002500260127DFF8AB
:1094D000B882002220214046FCF78AFEC6F1070030
:1094E00007FA00F0044214BF012200228021404606
:1094F000FCF77EFE012220214046FCF779FE402148
:109500004046FCF760FD761C40EA4505082EE0DB8E
:10951000E8B2BDE8F08110B59B4C00221021204636
:10952000FCF766FE0620FFF7CCFF2046BDE81040A2
:1095300001221021FCF75CBEF8B5934C00221021EB
:109540002046FCF755FE0520FFF7BBFF012500264E
:109550000027002220212046FCF74AFEC7F1070021
:1095600005FA00F010F0A50014BF012200228021AE
:109570002046FCF73DFE012220212046FCF738FE64
:1095800040212046FCF71FFD7F1C40EA4606082FBD
:10959000DFDBF007DBD42046BDE8F840C8E710B4B5
:1095A000002261B10FF2102310F8014B5440E4B2D5
:1095B00033F8144084EA222292B2491EF4D110BC3E
:1095C0001046704710B5012210216F48FCF710FEBD
:1095D0006E4C01224FF400612046FCF709FE204644
:1095E000BDE8104001224FF48061FCF701BE10B5C8
:1095F000012804D038D303280ED017D310BD644CF3
:10960000207A30B94FF48030FFF7A8FE0120207295
:1096100027E0BDE810403FE05D4C207A18B90120FA
:10962000207203201DE0BDE8104079E04FF47C106B
:10963000FFF794FE5748564CB0F801102171080A04
:10964000607106224FF47C112046FFF7A8FE062227
:109650004FF47C1104F10C00FFF7ECFE00202072A7
:109660000220BDE8104011E010BD80B502218DF848
:10967000001000AA4749B1F80130B1F80110537049
:10968000090A91708DF8030000A990E080B50221CD
:109690008DF800104F2184E038B53E4C4FF48061C6
:1096A000E01CFFF77CFFB4F80314884233D1062096
:1096B000FFF7DBFFB4F80100800200F580354FF4BE
:1096C00080722946E01CFFF76AFE4FF4807205F5B0
:1096D000807104F20310FFF762FE4FF4807205F50B
:1096E000007104F20320FFF75AFE4FF4807205F573
:1096F000407104F20330FFF752FE254C4FF48062B4
:10970000294604F11400FFF795FE207A022806D1BD
:109710000020207231BD1520BDE83240A5E731BDE3
:1097200070B51C4C4FF48061E01CFFF738FF184DFA
:10973000B4F803146881884221D1B4F80100800292
:1097400000F58036FF224FF4806105F1140001F02E
:109750009BFD4FF48062314605F11400FFF76AFE6D
:109760004FF48062E11C05F1140002F0B3F830B947
:10977000287A022804BF00202872062000E0152065
:10978000BDE8704071E700000000024000080240A0
:10979000304E00207087002080B502218DF8001027
:1097A000F5218DF8011000A988700320C8700420ED
:1097B00000F035FA01BD00000000C1C081C14001C8
:1097C00001C3C003800241C201C6C006800741C771
:1097D0000005C1C581C4400401CCC00C800D41CD41
:1097E000000FC1CF81CE400E000AC1CA81CB400B11
:1097F00001C9C009800841C801D8C018801941D9E1
:10980000001BC1DB81DA401A001EC1DE81DF401F70
:1098100001DDC01D801C41DC0014C1D481D5401580
:1098200001D7C017801641D601D2C012801341D390
:109830000011C1D181D0401001F0C030803141F120
:109840000033C1F381F240320036C1F681F7403770
:1098500001F5C035803441F4003CC1FC81FD403D40
:1098600001FFC03F803E41FE01FAC03A803B41FB10
:109870000039C1F981F840380028C1E881E9402960
:1098800001EBC02B802A41EA01EEC02E802F41EF70
:10989000002DC1ED81EC402C01E4C024802541E580
:1098A0000027C1E781E640260022C1E281E3402390
:1098B00001E1C021802041E001A0C060806141A1A0
:1098C0000063C1A381A240620066C1A681A7406770
:1098D00001A5C065806441A4006CC1AC81AD406D40
:1098E00001AFC06F806E41AE01AAC06A806B41AB10
:1098F0000069C1A981A840680078C1B881B94079E0
:1099000001BBC07B807A41BA01BEC07E807F41BF6F
:10991000007DC1BD81BC407C01B4C074807541B57F
:109920000077C1B781B640760072C1B281B340738F
:1099300001B1C071807041B00050C190819140511F
:109940000193C053805241920196C056805741976F
:109950000055C19581944054019CC05C805D419D3F
:10996000005FC19F819E405E005AC19A819B405B0F
:109970000199C059805841980188C048804941895F
:10998000004BC18B818A404A004EC18E818F404F6F
:10999000018DC04D804C418C0044C184818540457F
:1099A0000187C047804641860182C042804341838F
:1099B0000041C1818180404000B50100DFF878019D
:1099C00083B001694FF400624FF2FF7308D0194071
:1099D0004161009201218DF804108DF8051005E019
:1099E00019404161009200218DF8041000A9FCF794
:1099F00049FA03B000BD70B504460120FDF798FE9A
:109A00000825DFF83461E4B2E0094FF40061304624
:109A100002D0FCF795FB01E0FCF7BEFB0120FDF74F
:109A200087FE4FF480613046FCF78AFB0120FDF78A
:109A30007FFE64004FF480613046FCF7ADFB0120EF
:109A4000FDF776FE6D1EDED14FF400613046FCF767
:109A5000A3FB0120FDF76CFE4FF480613046FCF75C
:109A60006FFB0120FDF764FE3046BDE870404FF407
:109A70008061FCF791BB70B504460D46DFF8B86015
:109A80004FF400613046FCF75BFB0120FFF794FFC9
:109A90004FF400613046FCF753FB4FF480613046D1
:109AA000FCF74EFB0120FDF743FE4FF4006130460A
:109AB000FCF772FB0120FDF73BFE4FF4806130465E
:109AC000FCF76AFB8A20FFF796FFE0B2FFF793FFEF
:109AD0002846FFF790FF4FF400613046FCF75CFB2F
