:020000040800F2
:10400000489F0020ADD000082BAD00082DAD000862
:104010002FAD000831AD000833AD000800000000EE
:1040200000000000000000000000000035AD0008A6
:1040300037AD00080000000039AD00083BAD0008B6
:10404000EDD00008F1D00008F5D00008F9D0000844
:10405000FDD0000801D1000805D1000809D10008F1
:104060000DD1000811D1000815D1000819D10008A0
:104070001DD1000821D1000825D1000829D1000850
:104080002DD1000831D1000835D1000839D1000800
:10409000A5AD000841D1000845D1000849D100086C
:1040A0004DD1000851D1000855D1000859D1000860
:1040B0005DD1000861D1000877AE000869D1000821
:1040C0006DD1000871D1000875D1000879D10008C0
:1040D0007DD1000881D10008E1AE000889D1000837
:1040E0008DD1000891D1000895D1000899D1000820
:1040F0009DD10008A1D10008A5D10008A9D10008D0
:10410000ADD10008B1D10008CDAE0008B9D100088A
:104110003FAF0008C1D10008C5D10008C9D10008CF
:10412000CDD10008D1D10008D5D10008D9D10008DF
:10413000DDD10008E1D10008E5D10008E9D100088F
:10414000EDD10008F1D10008F5D10008F9D100083F
:10415000FDD1000801D2000805D2000809D20008EC
:104160000DD2000811D2000815D2000819D200089B
:104170001DD2000821D2000825D2000829D200084B
:104180002DD2000831D200081CB501F077FE0F23B4
:104190000F220221032000F00DFA1F2001900023BE
:1041A0002D2000901A461146032001F04DFD1F20DE
:1041B000019000232D2000901A460121032001F0D8
:1041C00043FD1F20019000232D2000901A4602215C
:1041D000032001F039FD1F20019000232D200090C5
:1041E00003211A46084601F02FFD1F2000900022EF
:1041F0002D231146032001F0A6FDF02310220221F9
:10420000032000F0D7F9502000901022DFF8BC4ABC
:1042100004F108030221032000F06DFA20798009DF
:1042200028D12020009004F15803602202210320AD
:1042300000F061FA2020009004F17803802202212E
:10424000032000F058FA2020009004F17803A02207
:104250000221032000F04FFA2020009004F178039F
:10426000C0220221032000F046FA2020009004F131
:10427000780324E02020009004F1980360220221BA
:10428000032000F038FA20200090B8342346802222
:104290000221032000F02FFA202000902346A022C4
:1042A0000221032000F027FA202000902346C0229C
:1042B0000221032000F01FFA202000902346E02274
:1042C0000221032000F017FA13BD2DE9F041DFF8B9
:1042D000FC49DFF8FC89A0700E46207940F004000C
:1042E000207115464FF48051404601F055FFDFF82C
:1042F000E4794FF48041384601F022FF4FF4005139
:10430000384601F01DFF4FF40051404601F044FFD4
:104310004FF48061384601F03FFF4FF4805138463A
:1043200001F00EFF002000F0A0FB384601F0DAFE9D
:1043300000F47F4046EA0001384601F0B8FF4FF430
:104340008051404601F0FCFE4FF48051404601F0A0
:1043500023FF002000F089FB384601F0C3FE00F483
:104360007F4045EA0001384601F0A1FF4FF40051BB
:10437000384601F011FF4FF40051384601F0E0FEDD
:104380004FF48051404601F007FF4FF4804138461A
:1043900001F0D6FE4FF40051384601F0D1FE4FF443
:1043A0000051404601F0F8FE4FF48061384601F0BC
:1043B000C7FE4FF48051384601F0C2FE002000F0E5
:1043C00054FB384601F08EFE40F0FF01384601F004
:1043D0006EFF207900F0FB002071BDE8F0812DE92F
:1043E000F041DFF8E858DFF8E868A8700F46287950
:1043F00040F00400287114464FF48051304601F01B
:10440000CBFEDFF8D0884FF48041404601F098FEA3
:104410004FF40051404601F093FE4FF400513046F6
:1044200001F0BAFE4FF48061404601F0B5FE4FF452
:104430008051404601F084FE002000F016FB40460B
:1044400001F050FE00F47F4047EA0001404601F0D1
:104450002EFF4FF48051304601F072FE4FF4805130
:10446000304601F099FE2778002000F0FEFA404621
:1044700001F038FE00F47F4047EA0001404601F0B9
:1044800016FF4FF40051404601F086FE4FF40051F4
:10449000404601F055FE6778002000F0E6FA4046FD
:1044A00001F020FE00F47F4047EA0001404601F0A1
:1044B000FEFE4FF40051404601F06EFE4FF40051F5
:1044C000404601F03DFEA778002000F0CEFA4046BD
:1044D00001F008FE00F47F4047EA0001404601F089
:1044E000E6FE4FF40051404601F056FE4FF40051F5
:1044F000404601F025FEE778002000F0B6FA40467D
:1045000001F0F0FD00F47F4047EA0001404601F071
:10451000CEFE4FF40051404601F03EFE4FF40051F4
:10452000404601F00DFE2479002000F09EFA40463E
:1045300001F0D8FD00F47F4044EA0001404601F05C
:10454000B6FE4FF40051404601F026FE4FF40051F4
:10455000404601F0F5FD4FF48051304601F01CFE5D
:104560004FF48041404601F0EBFD4FF400514046CE
:1045700001F0E6FD4FF40051304601F00DFE4FF41E
:104580008061404601F0DCFD4FF48051404601F06F
:10459000D7FD002000F069FA404601F0A3FD40F08D
:1045A000FF01404601F083FE287900F0FB002871EE
:1045B000BDE8F0812DE9F843DFF81047DFF81087F8
:1045C000A0700F46207940F00400207191461E46ED
:1045D0004FF48051404601F0DFFDDFF8F8564FF40C
:1045E0008041284601F0ACFD4FF40051284601F00F
:1045F000A7FD4FF40051404601F0CEFD2FB94FF416
:104600008051284601F0C8FD13E0012F0AD14FF474
:104610008051284601F0C0FD4FF48061284601F02A
:104620008FFD0BE0022F09D14FF48051284601F095
:1046300087FD4FF48061284601F0AEFD002000F0B8
:1046400014FA284601F04EFD00F47F4049EA0001CB
:10465000284601F02CFE4FF48051404601F070FDD9
:104660004FF48051404601F097FD002000F0FDF925
:10467000284601F037FD00F47F4046EA0001284655
:1046800001F015FE4FF40051284601F085FD4FF46E
:104690000051284601F054FD4FF48051404601F08E
:1046A0007BFD4FF48041284601F04AFD4FF4005154
:1046B000284601F045FD4FF40051404601F06CFDE5
:1046C0004FF48061284601F03BFD4FF480512846AD
:1046D00001F036FD002000F0C8F9284601F002FD87
:1046E00040F0FF01284601F0E2FD207900F0FB00D8
:1046F0002071BDE8F1832DE9F843DFF8D055DFF8EC
:10470000D085A8700F46287940F00400287114461F
:104710001E464FF48051404601F03EFDDFF8B4954F
:104720004FF48041484601F00BFD4FF400514846DC
:1047300001F006FD4FF40051404601F02DFD2FB968
:104740004FF48051484601F027FD13E0012F0AD1B4
:104750004FF48051484601F01FFD4FF480614846F8
:1047600001F0EEFC0BE0022F09D14FF480514846D6
:1047700001F0E6FC4FF48061484601F00DFD002099
:1047800000F073F9484601F0ADFC00F47F4044EAC4
:104790000001484601F08BFD4FF48051404601F086
:1047A000CFFC4FF48051404601F0F6FC089CA4B2C7
:1047B000D4B116F8017B002000F057F9484601F00B
:1047C00091FC00F47F4047EA0001484601F06FFD8C
:1047D0004FF40051484601F0DFFC4FF400514846C9
:1047E00001F0AEFC641EE4D14FF48051404601F06C
:1047F000D3FC4FF48041484601F0A2FC4FF4005135
:10480000484601F09DFC4FF40051404601F0C4FCC5
:104810004FF48061484601F093FC4FF480514846C4
:1048200001F08EFC002000F020F9484601F05AFC0F
:1048300040F0FF01484601F03AFDFFE7287900F01B
:10484000FB002871BDE8F1832DE9F041DFF87C44DD
:10485000DFF87C74A0700E46207940F004002071CF
:1048600015464FF48051384601F096FCDFF8648419
:104870004FF48041404601F063FC4FF40051404644
:1048800001F05EFC4FF40051384601F085FC2EB972
:104890004FF48051404601F07FFC13E0012E0AD115
:1048A0004FF48051404601F077FC4FF48061404660
:1048B00001F046FC0BE0022E09D14FF48051404636
:1048C00001F03EFC4FF48061404601F065FC0020A1
:1048D00000F0CBF8404601F005FC00F47F4045EACB
:1048E0000001404601F0E3FC4FF48051384601F0EE
:1048F00027FC4FF48051384601F04EFC4FF48041C4
:10490000404601F049FC012000F0AFF8404601F0BC
:10491000BBFB05464FF48041404601F011FC4FF4CB
:104920008051384601F038FC4FF48041404601F098
:1049300007FC4FF40051404601F002FC4FF40051D7
:10494000384601F029FC4FF48061404601F0F8FB45
:104950004FF48051404601F0F3FB207900F0FB005A
:104960002071E8B2BDE8F081F8B5DFF86043DFF808
:104970006053A0704FF48051207940F00400207102
:10498000284601F009FCDFF84C634FF480413046C3
:1049900001F0D6FB4FF40051304601F0D1FB4FF44B
:1049A0000051284601F0F8FB4FF48061304601F0D9
:1049B000F3FB4FF48051304601F0C2FB002000F0C1
:1049C00054F8304601F08EFB00F47F4040F00A01BD
:1049D000304601F06CFC4FF48051284601F0B0FBEA
:1049E0004FF48051284601F0D7FB002000F03DF83D
:1049F000304601F077FB40F0FF01304601F057FCF4
:104A00004FF48041304601F0C7FB012000F02DF843
:104A1000304601F039FB07464FF48041304601F043
:104A20008FFB4FF48051284601F0B6FB4FF48041D4
:104A3000304601F085FB4FF40051304601F080FB19
:104A40004FF40051284601F0A7FB4FF48061304637
:104A500001F076FB4FF48051304601F071FB207974
:104A600000F0FB002071F8B2F2BD00B583B018B9B8
:104A7000FF200090012004E0012811D1FF200090C8
:104A800000208DF8040000A902208DF80500002008
:104A90008DF8060001208DF807008E4801F0F2F92C
:104AA00003B000BD1CB50020009000238A4C019487
:104AB00064224121032000F0B5FF0020009003464E
:104AC000019464221421032000F0ACFF0020009028
:104AD0000346019464226E21032000F0A3FF00200E
:104AE0000090034601942D221421032000F09AFF28
:104AF00000200090034601942D226E21032000F037
:104B000091FF0020009003460194A5221421032068
:104B100000F088FF0020009003460194A5226E213A
:104B2000032000F07FFF13BD2DE9FC410746002262
:104B300000210320FFF788FE0646102200210320F3
:104B4000FFF782FE0446202200210320FFF77CFEAF
:104B50000546302200210320FFF776FE8046FFF74E
:104B6000A1FF57B9802E16D1DFF8A00E01900023C7
:104B70000020009064224121A3E0012F02D1802C6B
:104B800009D1F1E7022F01D1802DF9E7032F0AD1D6
:104B9000B8F1800FE8D05048019000230020009029
:104BA000642241218DE0042F17D1802E14BF4A4882
:104BB000DFF8580E01900023002000906422142199
:104BC000032000F02FFF802C2BD1DFF8400E019046
:104BD000002300200090642272E0052F0FD1802E68
:104BE0002AD1DFF8280E01900023002000906422D3
:104BF0001421032000F016FF802D12D1E5E7062FC7
:104C000016D1802E23D1DFF8040E0190002300205E
:104C1000009064221421032000F004FFB8F1800FFB
:104C2000D3D02D480190002300200090642247E05B
:104C3000072F03D1802CD4D02748D4E7082F02D1E6
:104C4000802C04D1DFE7092F03D1802DDBD022484F
:104C5000DBE70A2F38D1802E14BF1F48DFF8AC0DD8
:104C600001900023002000902D221421032000F049
:104C7000D9FE802C14BF1848DFF8900D0190002356
:104C8000002000902D226E21032000F0CBFE802D0D
:104C900014BF1148DFF8740D01900023002000902C
:104CA000A5221421032000F0BDFEB8F1800F14BF2F
:104CB0000948DFF8580D0190002300200090A5223C
:104CC0006E21032000F0AEFEBDE8F381A067002056
:104CD000000C0240001802400000002000B583B024
:104CE000002861D1A1B11F20019000222D20009049
:104CF00000231146032000F0A7FFDFF8140D0190F8
:104D00000522002000900346A221032000F08AFE25
:104D10000123802200210320FFF74CFCFF23812286
:104D200000210320FFF746FCFF23822200210320FD
:104D3000FFF740FCFF23832200210320FFF73AFC0A
:104D4000FF23842200210320FFF734FC802310225C
:104D500001210320FFF72EFC01231822012103204B
:104D6000FFF728FC0223202201210320FFF722FC69
:104D70000323282201211846FFF71CFC00233022C0
:104D800001210320FFF716FCB0233122012103206B
:104D9000FFF710FC0023322201210320FFF70AFC59
:104DA0007823332200F010BE012861D1A1B11F2069
:104DB000019000222D20009000231146032000F0D6
:104DC00043FFDFF8500C01900522002000900346BD
:104DD000A221032000F026FE41239022002103207F
:104DE000FFF7E8FBFF23912200210320FFF7E2FBFE
:104DF000FF23922200210320FFF7DCFBFF239322F5
:104E000000210320FFF7D6FBFF239422002103207B
:104E1000FFF7D0FB0023102201210320FFF7CAFB7C
:104E20008123182201210320FFF7C4FB0223202243
:104E300001210320FFF7BEFB0323282201210320C9
:104E4000FFF7B8FB0023342201210320FFF7B2FB58
:104E5000B023352201210320FFF7ACFB00233622CB
:104E600001210320FFF7A6FB7823372200F0ACBD19
:104E7000022861D1A1B11F20019000222D200090B5
:104E800000231146032000F0DFFEDFF88C0B0190B9
:104E90000522002000900346A221032000F0C2FD5D
:104EA0008123A02200210320FFF784FBFF23A122FE
:104EB00000210320FFF77EFBFF23A2220021032015
:104EC000FFF778FBFF23A32200210320FFF772FBEB
:104ED000FF23A42200210320FFF76CFB00231022F4
:104EE00001210320FFF766FB012318220121032083
:104EF000FFF760FB8223202201210320FFF75AFBEA
:104F00000323282201211846FFF754FB00233822EF
:104F100001210320FFF74EFBB0233922012103209A
:104F2000FFF748FB00233A2201210320FFF742FB51
:104F300078233B2200F048BD03285AD1A1B11F209D
:104F4000019000222D20009000231146032000F044
:104F50007BFEDFF8C80A019005220020009003467E
:104F6000A221032000F05EFDC123B0220021032016
:104F7000FFF720FBFF23B12200210320FFF71AFBDC
:104F8000FF23B22200210320FFF714FBFF23B322EB
:104F900000210320FFF70EFBFF23B4220021032092
:104FA000FFF708FB0023102201210320FFF702FB7B
:104FB0000123182201210320FFF7FCFA02232022FB
:104FC00001210320FFF7F6FA832328220121032081
:104FD000FFF7F0FA00233C2201210320FFF7EAFA51
:104FE000B0233D2201210320FFF7E4FA002300F063
:104FF000E4BC042840F0A380F9B11F2001900022F6
:105000002D20009000231146032000F01DFEDFF844
:10501000000A019005220020009003464C21032045
:1050200000F000FDDFF8EC0901900522002000905F
:105030000346A221032000F0F5FC01238022002179
:105040000320FFF7B7FAFF23812200210320FFF797
:10505000B1FAFF23822200210320FFF7ABFA7F235E
:10506000832200210320FFF7A5FAFF2384220021D9
:105070000320FFF79FFA4123902200210320FFF72E
:1050800099FAFF23912200210320FFF793FAFF23CF
:10509000922200210320FFF78DFA7F239322002123
:1050A0000320FFF787FAFF23942200210320FFF754
:1050B00081FA8023102201210320FFF77BFA81234C
:1050C000182201210320FFF775FA02232022012173
:1050D0000320FFF76FFA0323282201210320FFF7A3
:1050E00069FA0023302201210320FFF763FA5823D5
:1050F000312201210320FFF75DFA00233222012132
:105100000320FFF757FA7823332201210320FFF70A
:1051100051FA5823342201210320FFF74BFAB02320
:10512000352201210320FFF745FA00233622012111
:105130000320FFF73FFA7823372200F045BC05280B
:1051400040F0A280F9B11F20019000222D20009094
:1051500000231146032000F077FDDFF8B40801902A
:1051600005220020009003464C21032000F05AFC49
:10517000DFF8A40801900522002000900346A22138
:10518000032000F04FFC0123802200210320FFF7C1
:1051900011FAFF23812200210320FFF70BFAFF23DE
:1051A000822200210320FFF705FA7F2383220021BA
:1051B0000320FFF7FFF9FF23842200210320FFF7DC
:1051C000F9F98123A02200210320FFF7F3F9FF233F
:1051D000A12200210320FFF7EDF9FF23A2220021E5
:1051E0000320FFF7E7F9FF23A32200210320FFF7A5
:1051F000E1F9FF23A42200210320FFF7DBF980233C
:10520000102201210320FFF7D5F9012318220121E3
:105210000320FFF7CFF98223202201210320FFF78B
:10522000C9F90323282201211846FFF7C3F90023F7
:10523000302201210320FFF7BDF95823312201213B
:105240000320FFF7B7F90023322201210320FFF7E3
:10525000B1F97823332201210320FFF7ABF958235A
:10526000382201210320FFF7A5F9B02339220121BB
:105270000320FFF79FF900233A2201210320FFF7C3
:1052800099F978233B229FE3062840F09B80F9B1EF
:105290001F20019000222D200090002311460320A2
:1052A00000F0D2FCDFF86807019005220020009092
:1052B00003464C21032000F0B5FBDFF860070190A6
:1052C0000522002000900346A221032000F0AAFB43
:1052D0000123802200210320FFF76CF9FF238122A4
:1052E00000210320FFF766F9FF238222002103201B
:1052F000FFF760F97F23832200210320FFF75AF98B
:10530000FF23842200210320FFF754F9C123B02298
:1053100000210320FFF74EF9FF23B12200210320D3
:10532000FFF748F9FF23B22200210320FFF742F9DB
:10533000FF23B32200210320FFF73CF9FF23B4220F
:1053400000210320FFF736F98023102201210320DA
:10535000FFF730F90123182201210320FFF72AF972
:105360000223202201210320FFF724F9832328228E
:1053700001210320FFF71EF9002330220121032021
:10538000FFF718F95823312201210320FFF712F902
:105390000023322201210320FFF70CF97823332266
:1053A00001210320FFF706F958233C2201210320A5
:1053B000FFF700F9B0233D2201210320FFF7FAF89F
:1053C0000023FAE2072840F0A280F9B11F200190E3
:1053D00000222D20009000231146032000F034FC11
:1053E000DFF83006019005220020009003464C2192
:1053F000032000F017FBDFF82006019005220020B3
:1054000000900346A221032000F00CFB41239022D0
:1054100000210320FFF7CEF8FF2391220021032073
:10542000FFF7C8F8FF23922200210320FFF7C2F8FC
:105430007F23932200210320FFF7BCF8FF2394224F
:1054400000210320FFF7B6F88123A02200210320CA
:10545000FFF7B0F8FF23A12200210320FFF7AAF8ED
:10546000FF23A22200210320FFF7A4F87F23A32219
:1054700000210320FFF79EF8FF23A4220021032030
:10548000FFF798F80023102201210320FFF792F87C
:105490008123182201210320FFF78CF88223202288
:1054A00001210320FFF786F803232822012103208E
:1054B000FFF780F80023342201210320FFF77AF858
:1054C0005823352201210320FFF774F800233622E8
:1054D00001210320FFF76EF87823372201210320F2
:1054E000FFF768F85823382201210320FFF762F8FC
:1054F000B023392201210320FFF75CF800233A2270
:1055000001210320FFF756F878233B225CE20828AC
:1055100040F09B80F9B11F20019000222D200090C7
:1055200000231146032000F08FFBDFF8E804019010
:1055300005220020009003464C21032000F072FA5F
:10554000DFF8D80401900522002000900346A22134
:10555000032000F067FA4123902200210320FFF787
:1055600029F8FF23912200210320FFF723F8FF23CE
:10557000922200210320FFF71DF87F2393220021B0
:105580000320FFF717F8FF23942200210320FFF7E1
:1055900011F8C123B02200210320FFF70BF8FF23ED
:1055A000B12200210320FFF705F8FF23B2220021DA
:1055B0000320FEF7FFFFFF23B32200210320FEF7A5
:1055C000F9FFFF23B42200210320FEF7F3FF00239D
:1055D000102201210320FEF7EDFF81231822012173
:1055E0000320FEF7E7FF0223202201210320FEF71C
:1055F000E1FF8323282201210320FEF7DBFF0023A4
:10560000342201210320FEF7D5FF58233522012142
:105610000320FEF7CFFF0023362201210320FEF7EF
:10562000C9FF7823372201210320FEF7C3FF582347
:105630003C2201210320FEF7BDFFB0233D220121C2
:105640000320FEF7B7FF0023B7E1092840F0998057
:10565000E9B11F20019000222D2000900023114667
:10566000032000F0F1FAEC480190052200200090A0
:1056700003464C21032000F0D5F9E84801900522AB
:10568000002000900346A221032000F0CBF98123E3
:10569000A02200210320FEF78DFFFF23A12200217D
:1056A0000320FEF787FFFF23A22200210320FEF73D
:1056B00081FF7F23A32200210320FEF77BFFFF232E
:1056C000A42200210320FEF775FFC123B022002190
:1056D0000320FEF76FFFFF23B12200210320FEF716
:1056E00069FFFF23B22200210320FEF763FFFF239F
:1056F000B32200210320FEF75DFFFF23B422002127
:105700000320FEF757FF0023102201210320FEF79C
:1057100051FF0123182201210320FEF74BFF8223B2
:10572000202201210320FEF745FF832328220121A7
:105730000320FEF73FFF0023382201210320FEF75C
:1057400039FF5823392201210320FEF733FF0023BC
:105750003A2201210320FEF72DFF78233B2201216D
:105760000320FEF727FF58233C2201210320FEF7E8
:1057700021FFB0233D2201210320FEF71BFF002360
:105780001BE10A2840F02781002931D01F20019019
:1057900000222D20009000231146032000F054FA2F
:1057A0009B48019005220020009003464C210320D5
:1057B00000F038F997480190052200200090034638
:1057C000A221032000F02EF9934801907D220020B1
:1057D000009003464C21032000F024F98F480190EB
:1057E0007D22002000900346A221032000F01AF938
:1057F0000123802200210320FEF7DCFE7F2381228B
:1058000000210320FEF7D6FEFF2382220021032081
:10581000FEF7D0FE7F23832200210320FEF7CAFE7D
:10582000FF23842200210320FEF7C4FE412390229F
:1058300000210320FEF7BEFE7F23912200210320DA
:10584000FEF7B8FEFF23922200210320FEF7B2FEEE
:105850007F23932200210320FEF7ACFEFF23942236
:1058600000210320FEF7A6FE8123A02200210320B1
:10587000FEF7A0FE7F23A12200210320FEF79AFE5F
:10588000FF23A22200210320FEF794FE7F23A32200
:1058900000210320FEF78EFEFF23A4220021032017
:1058A000FEF788FEC123B02200210320FEF782FE0E
:1058B0007F23B12200210320FEF77CFEFF23B222CA
:1058C00000210320FEF776FE7F23B3220021032070
:1058D000FEF770FEFF23B42200210320FEF76AFECC
:1058E0008023102201210320FEF764FE8123182269
:1058F00001210320FEF75EFE8223202201210320E6
:10590000FEF758FE8323282201210320FEF752FED2
:105910000023302201210320FEF74CFE58233122C0
:1059200001210320FEF746FE00233222012103203D
:10593000FEF740FE3C23332201210320FEF73AFE0E
:105940005823342201210320FEF734FEB0233522F0
:1059500001210320FEF72EFE002336220121032021
:10596000FEF728FE3C23372201210320FEF722FE0A
:105970000023382201210320FEF71CFE5823392280
:1059800001210320FEF716FE3C233A2201210320C9
:10599000FEF710FE78233B2201210320FEF70AFECA
:1059A00058233C2201210320FEF704FEB0233D22B0
:1059B00001210320FEF7FEFD3C233E2201210320AE
:1059C000FEF7F8FD78233F2203B05DF804EB0121D8
:1059D0000320FEF7EFBD03B000BD10B582B0FF207D
:1059E000009000220E4C234600210320FEF783FE88
:1059F000FF20009004F58073002201210320FEF7B0
:105A00007AFEBDE81340FEF7BFBB00001827002058
:105A100050560020C8590020405D0020B86000208A
:105A200030640020FFE72DE9FE4F8AB080461798CA
:105A3000179003F0070717990078497801EB0020C9
:105A400080B2049003F0C005179817998078C97840
:105A5000DDF810C001EB0020179909791FFA80F9D1
:105A600016980A4619FB0CFC90FBF2F31CFB01F1A3
:105A700011FB03F102FB130010FB091080B206902A
:105A8000002206214046FEF720FC00220821404665
:105A9000FEF71BFC1798007900FB09F080B2059017
:105AA0000020019004980128C0F2CB8000200390D0
:105AB000B80080308DF8010007AF4EE01798305CD9
:105AC00028438DF81C004FEAA40A179830180AF0F2
:105AD0000F0B41782943797007AA81782943B9705F
:105AE0000021C0782843F870ABF18000387140463F
:105AF000FEF775FCBBF10F0F02D0201D48451EDBE1
:105B00009DF828005044A0EB0B02D2B2052140467C
:105B1000FEF7DBFB9DF8000040EA0B1040F00A02A4
:105B200009214046FEF7D1FB4046FEF71DFF000667
:105B3000FAD49DF801200A214046FEF7C6FB201D3D
:105B400084B2361D4C45B9DB01980599801C80B2A2
:105B50000190039800EB410003900198049988425A
:105B60006FDA03A8068805980199801980B2099018
:105B70004910BDF82C0011FA80F00290C2B2072142
:105B80004046FEF7A2FB0024B9F1010FDCDB0698CA
:105B90003018401D86B20298001280008DF8000077
:105BA00041E01798305C28438DF81C004FEAA40AA6
:105BB000179830180AF00F0B41782943797007AA1B
:105BC00081782943B9700021C0782843F870ABF17F
:105BD000800038714046FEF702FCBBF10F0F02D087
:105BE000201D48451CDB9DF828005044A0EB0B020B
:105BF000D2B205214046FEF768FB9DF8000040EA5E
:105C00000B1209214046FEF760FB4046FEF7ACFE52
:105C10000006FAD49DF801200A214046FEF755FB04
:105C2000201D84B2361D4C45BBDB06980999081827
:105C3000401D86B202980012800000248DF80000FA
:105C400080E70DB0BDE8F08F2DE9F8430E46914690
:105C5000089C80461D46FF220021FEF736FBFF22EE
:105C600001214046FEF731FBFF2202214046FEF7AC
:105C70002CFBFF2203214046FEF727FBE80000EB48
:105C80004505EAB207214046FEF71FFB099880B29E
:105C9000410011FA85F101EBC000401E87B2FAB253
:105CA00008214046FEF711FB2904080E390A01EBD2
:105CB000800040F00202D2B209214046FEF705FB07
:105CC000A000C0B24FEA8907040900F00F0519D0FF
:105CD000FAB205210020FEF7F8FA200150FA87F207
:105CE000D2B206210020FEF7F0FAB00000F1C002A7
:105CF000D2B20A210020FEF7E8FA4046FEF734FE51
:105D00000006FAD4EDB1200150FA87F2D2B2052193
:105D10000020FEF7DAFA07EB04102818421ED2B270
:105D200006210020FEF7D1FAB00000F1C002D2B285
:105D30000A210020FEF7C9FA4046FEF715FE0006CC
:105D4000FAD4BDE8F1832DE9F0410E4617468046AE
:105D50001D46FF220021FEF7B8FAFF22012140462E
:105D6000FEF7B3FAFF2202214046FEF7AEFAFF2209
:105D700003214046FEF7A9FAF80000EB4707FAB204
:105D800007214046FEF7A1FA069880B2410011FAB9
:105D900087F101EBC000401E84B2E2B20821404608
:105DA000FEF793FA3F04380E210A01EB800040F021
:105DB0000202D2B209214046FEF787FA6800760057
:105DC000C0B2050900F00F0716D0F2B2052100207D
:105DD000FEF77BFA280150FA86F2D2B206210020A3
:105DE000FEF773FAE0220A210020FEF76EFA404621
:105DF000FEF7BAFD0006FAD4D7B1280150FA86F2B0
:105E0000D2B205210020FEF760FA06EB0510381823
:105E1000421ED2B206210020FEF757FAE0220A21E4
:105E20000020FEF752FA4046FEF79EFD0006FAD427
:105E3000BDE8F08138B50478012C1EDB451C15F84F
:105E4000013B0B2202210320FEF7B4FB15F8013BB6
:105E50000C2202210320FEF7ADFB15F8013B0D22B9
:105E600002210320FEF7A6FB15F8013B0E220221BA
:105E70000320FEF79FFB641EE1D131BD0048D9E746
:105E8000046900202DE9F84304460026DFF8640584
:105E90000D4684421CBFDFF8600584421FD0DFF846
:105EA0005C0584421CBFDFF85805844217D0DFF838
:105EB000540584421CBFDFF8500584420FD0DFF840
:105EC0004C0584421FBFDFF848058442DFF84405D3
:105ED000844204D0C1210FF2405000F0E4FA286857
:105EE00020B90FF23450C22100F0DDFA28790028E1
:105EF00018BF012808D0022818BF032804D0C321E6
:105F00000FF2145000F0CFFAE87940B1012818BF21
:105F1000022804D00FF20050C42100F0C4FA01207E
:105F200000FA06F8286808EA0000404546D17700E4
:105F30000320B8406FEA0009206809EA00002060E9
:105F400020682979B940084320602879012818BFC2
:105F500002282AD16879002818BF012808D0022811
:105F600018BF032804D0D6210FF2AC4000F09BFAF2
:105F7000A06809EA0000A060A0686979B9400843F8
:105F8000A060A879002818BF012804D0DD210FF2F5
:105F9000884000F088FA606820EA08006060606865
:105FA000A979B14089B208436060E06809EA00005D
:105FB000E060E068E979B9400843E060761C102EA3
:105FC000ADD3BDE8F18370B504460026DFF82404A4
:105FD0000D4684421CBFDFF82004844220D0DFF845
:105FE0001C0484421CBFDFF81804844218D0DFF878
:105FF000140484421CBFDFF81004844210D0DFF880
:106000000C0484421FBFDFF808048442DFF8040454
:10601000844205D04FF49B710FF2FC3000F043FA3C
:10602000012D18BF022D29D0042D18BF082D25D011
:10603000102D18BF202D21D0402D18BF802D1DD030
:10604000B5F5807F18BFB5F5007F17D0B5F5806F27
:1060500018BFB5F5006F11D0B5F5805F18BFB5F565
:10606000005F0BD0B5F5804F18BFB5F5004F05D0D8
:106070000FF2A43040F2371100F015FA20692842DF
:1060800018BF0126304670BD10B50446DFF8640322
:1060900084421CBFDFF86003844220D0DFF85C0339
:1060A00084421CBFDFF85803844218D0DFF8540341
:1060B00084421CBFDFF85003844210D0DFF84C0349
:1060C00084421FBFDFF848038442DFF8480384425C
:1060D00005D04FF4A6710FF2403000F0E4F92069CA
:1060E00080B210BD10B50446DFF8080384421CBF1F
:1060F000DFF80403844220D0DFF8000384421CBF91
:10610000DFF8FC02844218D0DFF8F80284421CBF9A
:10611000DFF8F402844210D0DFF8F00284421FBF9F
:10612000DFF8EC028442DFF8EC02844205D040F252
:1061300073110FF2E42000F0B6F9606980B210BD6F
:1061400038B50446AB480D4684421CBFAA48844279
:1061500019D0AA4884421CBFA948844213D0A94838
:1061600084421CBFA84884420DD0A84884421FBF67
:10617000A7488442A748844205D040F285110FF217
:10618000982000F090F92DB90FF28C204FF4C371D4
:1061900000F089F9258331BD38B5044695480D4690
:1061A00084421CBF9448844219D0944884421CBF46
:1061B0009348844213D0934884421CBF924884423F
:1061C0000DD0924884421FBF914884429148844236
:1061D00005D04FF4CC710FF2402000F064F92DB9D6
:1061E0000FF2342040F2991100F05DF9658331BD62
:1061F00070B504467F480D46164684421CBF7E4853
:10620000844219D07D4884421CBF7D48844213D00B
:106210007C4884421CBF7C4884420DD07B48844229
:106220001FBF7B4884427B48844205D04FF4D6711F
:106230000FF2E41000F037F9012D18BF022D29D01C
:10624000042D18BF082D25D0102D18BF202D21D0CA
:10625000402D18BF802D1DD0B5F5807F18BFB5F536
:10626000007F17D0B5F5806F18BFB5F5006F11D05E
:10627000B5F5805F18BFB5F5005F0BD0B5F5804F61
:1062800018BFB5F5004F05D00FF28C1040F2AD11DC
:1062900000F009F94EB1012E05D04FF4D7710FF27D
:1062A000781000F000F9258370BD658370BD38B5A6
:1062B000044650480D4684421CBF4F48844219D0C2
:1062C0004E4884421CBF4E48844213D04D488442FD
:1062D0001CBF4D4884420DD04C4884421FBF4C48DF
:1062E00084424C48844205D040F2C3110FF228107A
:1062F00000F0D9F8656131BD70B506463D480D46E0
:10630000144686421CBF3C48864219D03B48864210
:106310001CBF3B48864213D03A4886421CBF3A48CD
:1063200086420DD0394886421FBF394886423948D7
:10633000864205D040F21D210FF2DC0000F0B3F8D8
:10634000002D18BF012D21D0022D18BF032D1DD007
:10635000042D18BF052D19D0062D18BF072D15D0F7
:10636000082D18BF092D11D00A2D18BF0B2D0DD0E7
:106370000C2D18BF0D2D09D00E2D18BF0F2D05D0D7
:106380000FF2940040F21E2100F08DF8002C18BF8F
:10639000092C1ED0012C18BF022C1AD0032C18BFB8
:1063A000042C16D0052C18BF062C12D0072C18BFB1
:1063B000082C0ED00A2C18BF0B2C0AD00C2C1CBF9A
:1063C0000D2C0F2C05D040F21F210FF24C0000F0D5
:1063D0006AF8E80806EB800005F007018900026A08
:1063E0000F238B409A43026204FA01F1026A1143BF
:1063F000016270BD0000024000040240000802403B
:10640000000C02400010024000140240001802403C
:10641000001C024000200240433A5C546F6F6C73D2
:106420005C574C39465C574C5F465F4D6F6E6974E4
:106430006F725F4150505C4C696272617269657342
:106440005C53544D3332463478785F5374645065EE
:10645000726970685F4472697665725C7372635CBE
:1064600073746D3332663478785F6770696F2E634A
:106470000000000080B500F0B5FB002002BD00B5B3
:1064800085B04FF4E130009000A900200190ADF8F4
:106490000800ADF80C000C20ADF80A00002000F058
:1064A00031FC05B000BDFEE7DFF8140801214162B0
:1064B000FF21C17300218174018241724181818178
:1064C0008173704710B5DFF8904684B0204600F025
:1064D000EBFE02208DF80000832100A84170217896
:1064E00081706178C170A1780171E1784171217981
:1064F000817100A960798DF80700A0798DF80800F6
:10650000FF208DF8090003208DF80A00042000F018
:10651000E4FF04B010BD0146002000F0F1BCF8B566
:10652000DFF8A04701F05FF830B1207900286AD188
:10653000607101F058F828B9012001F04FF80020EF
:10654000E070F1BD642001F076F86079401C607164
:10655000C0B20F28EDDB01F0C2F80021F52001F0F8
:10656000CFF8032001F067F80021F52001F0C8F80A
:10657000032001F060F8DFF8505740F22776002240
:106580003146284601F06EFBDFF8407700220221F9
:10659000384601F029FF00206062A0620021DFF888
:1065A0003007017001F0A2FF4FF4966001F043F84C
:1065B000002002F0A8F8012002F09BF8002002F071
:1065C00093F800F0D5FF002000F0BCFF4FF47A7084
:1065D00001F031F801F007F880B9012000F0FEFF6A
:1065E0000120E07000223146284601F03BFB38468E
:1065F000BDE8F8400022022101F0F6BEBDE8F240FD
:10660000002000F0EBBFF1BDDFF8B4168A7CFF215B
:1066100001F098B8002818BF022806D1DFF8A016AC
:106620000A7D60F301020A757047DFF89416087D51
:1066300040F0030008757047DFF88416042804DA78
:106640000A7D60F385020A757047087D40F03C00C2
:1066500008757047DFF86806018CB1F57B4FA8BF5D
:106660004FF6FF71C182704710B568B902F024F986
:106670004FF6FF2190FBF1F14FF6FF2202FB1100D4
:10668000DFF83C16088410BD01280DD102F014F982
:106690006FF0A061B0FBF1F16FF0A06202FB11009E
:1066A000DFF81C16C86110BD022817D102F004F9EA
:1066B0004FF6FF21DFF8084690FBF1F14FF6FF227D
:1066C00002FB1100208402F0F7F86FF0A061B0FB2C
:1066D000F1F16FF0A06202FB1100E06110BD10B596
:1066E00084B00020FFF796FF0320FFF7A5FF0220EC
:1066F000FFF7BAFFFFF7AEFFDFF8C445E06910F11E
:10670000A06F28BF4FF0FF30A06148F2870148F228
:10671000850002F0E4F9042300AA042104F1180022
:1067200002F0E2F90098A0610A2000F084FF04F171
:1067300014000CC802A918200CC18DF80400FF2019
:106740008DF80500E7208DF8060028208DF8070059
:1067500001A807C802F06AFB04B010BD30B5DFF82D
:106760006045E56985B00020FFF754FF0020FFF782
:1067700063FF0020FFF778FFFFF76CFFA9B2280C3A
:1067800002F0ADF9042300AA042104F1180002F07C
:10679000ABF90098A0610A2000F04DFF04F114004D
:1067A0000CC802A918200CC12CE030B5DFF8104548
:1067B000E56985B00020FFF72DFF012008E030B526
:1067C000DFF8FC44E56985B00020FFF723FF0220D5
:1067D000FFF732FF0020FFF747FFFFF73BFFA9B2AB
:1067E000280C02F07CF9042300AA042104F118000B
:1067F00002F07AF90098A06102A904F114000CC813
:106800000CC118208DF80400FF208DF80500E7204A
:106810008DF8060028208DF8070001A807C802F0AF
:1068200005FB05B030BD20B5DFF89454E86981B2AE
:1068300084B0000C02F053F9082300AA082128466E
:1068400002F07DF900A806C806C5083D287D297814
:1068500000F0030201F003039A4202BFC0F3830079
:10686000C1F38301884202BFE88A6988884203D164
:106870002979080904B020BDFF2004B020BD1CB553
:10688000DFF83C44E06981B2000C02F028F90823EB
:1068900000AA0821204602F052F900A806C806C442
:1068A000083C207D217800F0030201F003039A42A6
:1068B00002BFC1F38301C0F38300884202BFE08AB4
:1068C000628890422DD1207900F00F03012B21D155
:1068D0000009022804D00DD3042806D021D309E0F2
:1068E000607900F00F0203211FE0607900F00F02D1
:1068F00005211AE0012908D1607900F00F02012A70
:1069000013D0022A10D102210FE0A07C48B1401E12
:10691000A07406E0022B607900F00F0204D106217A
:1069200003E0607900F00F020421FF2000F00AFF6D
:1069300013BD38B5DFF88843E17B002001291EBF75
:10694000616AB1F5803FB1F5801F51D0012905D1B1
:1069500041F201006062FFF7C2FE49E0102905D153
:1069600041F210006062FFF7F9FE41E0CA053FD531
:1069700021F480716162C90748BF0320FFF753FF0C
:10698000D0B9606AC10702D5002020722EE0C0068F
:106990002ED500202072FF210120E073607900F0E5
:1069A0000F024FF480306062A274A520207400F0C2
:1069B000C9FE012060721BE0207A401C2072C0B228
:1069C00014280CDB0120E0734FF480106062FE207D
:1069D000A27C2074FF21BDE8384000F0B3BE606A9D
:1069E000C10748BF012002D4C00601D51020606253
:1069F000DFF8E052A878012818BF02280FD101283B
:106A000002D1FFF7D2FE03E0022808BFFFF7D7FE4E
:106A10000120607400206062FF20A87031BD607C9E
:106A2000012804BF606AB0F5807F04D10020607443
:106A3000BDE8314023E731BD10B5A14CA07A18B9AB
:106A4000FF20A07202F020FBE07A012803D1FF2092
:106A5000E07202F041FB207B012805D1FF2020736A
:106A600002F076FB00206072607B012804BFBDE865
:106A70001040FFF719BD10BD10B501F037FD914C66
:106A8000A07A012808BFFFF754FF8D48407A0128FB
:106A900008BFFFF7D1FF607A1E2803DA401C60723E
:106AA000012003E004BF401C6072002001F021FEC1
:106AB00089480088B0F57A7F14DD8848007801287D
:106AC00010D102F059F801220221804801F08CFC1B
:106AD000834800210170A078401CA070C0B20A2831
:106AE000A8BFA170208CC82802DA401C208404E0D2
:106AF00004BF401C2084FFF712FDE07978B1207AB2
:106B00000A28BCBF401C2072207A0A2807DB75487F
:106B100001787548007802F0E4FC0020E071A0796B
:106B2000012808D0E07A012805D17048007801F0EA
:106B30008BFE0020E07210BD704A1278002A08BF58
:106B4000FEF7CCB803F082B86C490978002908BF79
:106B5000FDF7EABF03F068B81497002010B5594C50
:106B6000E07801281CBF002000F038FD012000F073
:106B7000E9FC00F0EBFC03F0FFF803F00FFE00F07F
:106B80001AFD03F09FF800F06DFD002000F020FAE0
:106B900000F08FFE01F081FD002001F09FFD01203B
:106BA00001F0A2FD012001F0A4FD01F059FE5449BD
:106BB000022000F00EFC042000F0CEFB01F0DCFF10
:106BC000002000F0C6F9A07202F076FC002060629E
:106BD000012202213D4801F007FCBDE8104003F00E
:106BE00075BE00002DE9F041FFF749FC424C3F4DD6
:106BF000404EDFF8FC80334F03F067FD03F072FD79
:106C000003F0A8FDFFF7AAFF10E02078401CC0B2F7
:106C1000062808BF002020700321207890FBF1F1A6
:106C200001EB4101401A08BF01F00AFE388A012831
:106C300015D100203882387801280CD17878411C91
:106C40007970042807DB0020787004F04FF80021E9
:106C5000202000F055FD02F03AF902F007F9788A99
:106C6000012804BF00207882B88A012809D10020B9
:106C7000B882FFF701FFF87801281CBFB879012816
:106C8000BAD0B88B012807D10020B88398F800004B
:106C9000012818BF02F0D1F9F88B0128C6D10020D5
:106CA000F883387A0A28B8BFFFF70CFC307801283F
:106CB00002D12878FF28A8D100202070B6E7000074
:106CC000A496002078960020004400400064004014
:106CD000E89500205C940020028F0020459700205A
:106CE00046970020FA8E0020F98E0020D4690020FB
:106CF000FB8E0020D5690020F79600202C970020FD
:106D0000CC960020F0B506460FF2BC000FF2BC0294
:106D100083B0354650F8250052F825200C46012155
:106D2000104304F01FFB1EB90121102004F05DFB8D
:106D30000FF2AC00DFF88C6030F815200FF29800ED
:106D400030F8151006EB8507D2B27868FFF7D4FA51
:106D50000FF2900030F815200FF2800030F8151077
:106D6000B868D2B2FFF7C8FA00208DF8060000A973
:106D700001208DF8070002208DF804000FF250006A
:106D800030F81500009002208DF805007868FFF7B4
:106D900079F802208DF8040000A90FF2380030F8CD
:106DA00015000090B868FFF76DF856F825002146E9
:106DB00000F0BCFD56F82500012100F07EFE03B076
:106DC000F0BD0000C46900200100000001000000C7
:106DD0000002000000040000090000000A0000009A
:106DE00007000000070050F8041B61B150F8042BA5
:106DF000D30744BFA9F101039A18002342F8043BCA
:106E0000091FFAD1EFE7704700B50100DFF82C0247
:106E100083B001694FF400724FF6FF5308D0194058
:106E20004161009201218DF804108DF8051005E0F4
:106E300019404161009200218DF8041000A9FFF76C
:106E400021F803B000BD70B504460825DFF8EC61F9
:106E5000E4B2E0094FF40071304602D0FFF770F958
:106E600001E0FFF799F94FF480713046FFF768F9B8
:106E700064004FF480713046FFF78EF96D1EE7D144
:106E80004FF400713046FFF787F94FF480713046B8
:106E9000FFF756F93046BDE870404FF48071FFF7B8
:106EA0007BB970B5DFF894514FF480712846FFF735
:106EB00073F94FF400712846FFF742F90020FFF7FD
:106EC000A3FF08264FF480712846FFF739F94FF4E5
:106ED00000712846FFF777F840EA4404E4B24FF423
:106EE00080712846FFF758F9761EEBD14FF40071F8
:106EF0002846FFF751F90120FFF786FF204670BDB5
:106F000070B504460D464D4E4FF400713046FFF704
:106F100017F90120FFF778FF4FF400713046FFF7B3
:106F20000FF94FF480713046FFF70AF94FF4007102
:106F30003046FFF731F94FF480713046FFF72CF9F6
:106F4000A020FFF780FF2004000EFFF77CFFE0B2D7
:106F50009EE038B50446394D4FF400712846FFF7DE
:106F6000EFF80120FFF750FF4FF400712846FFF7BC
:106F7000E7F84FF480712846FFF7E2F84FF400710C
:106F80002846FFF709F94FF480712846FFF704F906
:106F9000A020FFF758FF2004000EFFF754FFE0B2D7
:106FA000FFF751FF4FF400712846FFF7C9F84FF47F
:106FB00080712846FFF7C4F84FF400712846FFF7A8
:106FC000EBF84FF480712846FFF7E6F8A120B2E015
:106FD00038B50446194D4FF400712846FFF7B0F854
:106FE0000120FFF711FF4FF400712846FFF7A8F8C2
:106FF0004FF480712846FFF7A3F84FF4007128463C
:10700000FFF7CAF84FF480712846FFF7C5F8D02083
:10701000FFF719FF0A20FFF716FF2046FFF713FFBF
:107020004FF400712846FFF7B7F84FF480712846F7
:10703000FFF786F82846BDE834403BE000040240F4
:1070400070B504460D46014E02E000BF0004024048
:107050004FF400713046FFF773F80120FFF7D4FEBC
:107060004FF400713046FFF76BF84FF480713046F3
:10707000FFF766F84FF400713046FFF78DF84FF4D4
:1070800080713046FFF788F8D020FFF7DCFE2046FD
:10709000FFF7D9FE2846FFF7D6FE4FF400713046C1
:1070A000FFF77AF84FF480713046FFF749F8304621
:1070B000BDE870404FF40071FFF742B838B50446A0
:1070C000004D01E0000402404FF400712846FFF734
:1070D00037F80120FFF798FE4FF400712846FFF7BC
:1070E0002FF84FF480712846FFF72AF84FF400710B
:1070F0002846FFF751F84FF480712846FFF74CF807
:10710000D020FFF7A0FE2046FFF79DFE4FF4007150
:107110002846FFF715F84FF480712846FFF710F85E
:107120004FF400712846FFF737F84FF48071284676
:10713000FFF732F8D120FFF786FEFFF7B2FE0446D4
:107140004FF400712846FEF7FBFF4FF4807128468C
:10715000FEF7F6FF4FF480712846FFF71DF84FF455
:1071600000712846FFF718F84FF480712846FEF7A3
:10717000E7FF4FF400712846FEF7E2FF204632BDDC
:1071800064280CDA0A2190FBF1F10A0150FA82F02E
:1071900001EB8102A0EB4201C9B2082050E7704721
:1071A00001460D290DDA60B10A2091FBF0F00201D1
:1071B00051FA82F100EB8002A1EB4201C9B2072033
:1071C0003EE77047014620290DDA60B10A2091FBA5
:1071D000F0F0020151FA82F100EB8002A1EB4201D2
:1071E000C9B206202CE7704718280CDA0A2190FB58
:1071F000F1F10A0150FA82F001EB8102A0EB4201A9
:10720000C9B204201CE770473C280CDA0A2190FB25
:10721000F1F10A0150FA82F001EB8102A0EB420188
:10722000C9B203200CE770473C280CDA0A2190FB16
:10723000F1F10A0150FA82F001EB8102A0EB420168
:10724000C9B20220FCE6704703B581B002210020DC
:10725000FFF7F6FE9DF80400FFF792FF9DF805008A
:10726000FFF79EFF9DF80600FFF7ACFF9DF80710A3
:10727000082903DA11B10520FFF7E2FE9DF80800A6
:10728000FFF7B2FF9DF80900FFF7BEFF9DF80A0067
:10729000FFF7CAFF00210020FFF7D2FE03B05DF820
:1072A00004EB00210120CBE610B5044601210020AB
:1072B000FFF7C6FE0820FFF701FF010901EB81027D
:1072C00000F00F0000EB420020700720FFF7F6FEF1
:1072D000C0F3001101EB810200F00F0000EB42004F
:1072E00060700620FFF7EAFEC0F3011101EB810296
:1072F00000F00F0000EB4200A0700520FFF7DEFE5B
:1073000000F00700E0700420FFF7D8FEC0F3011181
:1073100001EB810200F00F0000EB4200207103201E
:10732000FFF7CCFEC0F3021101EB810200F00F0069
:1073300000EB420060710220FFF7C0FEC0F30211B3
:1073400001EB810200F00F0000EB4200A071002170
:10735000BDE81040002073E630B585B0044600203B
:107360000290ADF80C00ADF810000C20ADF80E0046
:1073700001A90FF2B010644D50F82400019055F8A7
:10738000240000F0D3FA55F82400012100F095FB09
:1073900055F82400012240F2255100F063FC55F815
:1073A0002400002240F2277100F05CFC0FF28810EC
:1073B00030F814008DF8000000208DF801008DF8E1
:1073C000020001208DF8030000A804F0DFF805B0EA
:1073D00030BD70B504464D4D94B00E46284604F0BD
:1073E0006DF94FF000600590079605A94848069092
:1073F000402008901120099000200A904FF48060EE
:107400000B90042010900320119000200C900D9000
:1074100012900E904FF440300F90002013902846A9
:1074200004F029FA00221021284604F06BFC002009
:107430000290ADF80C00ADF810000C20ADF80E0075
:1074400001A90FF2E000304D50F82400019055F8EA
:10745000240000F06BFA2F480122802100F0C0FBCD
:1074600055F82400012240F2255100F0FBFB0FF2F9
:10747000C80030F814008DF8000000208DF80100DD
:107480008DF8020001208DF8030000A804F07EF8BA
:1074900055F82400012100F010FB14B070BDF8B5C0
:1074A00004460D46194F16460021384604F00DFBE0
:1074B00032462946204604F0E3FC7E60012138462E
:1074C00004F003FB384604F05BFB0028FAD1384691
:1074D000BDE8F440104904F0B7BB10B504460B22D8
:1074E0000F4804F0CDFC0D480021C17001220B2192
:1074F000417040F22771044850F82400BDE8104064
:1075000000F0B0BB000000008C690020A0600240C9
:107510000444004000440040000020202497002044
:1075200007930020000000000000000000C20100DE
:1075300000E1000000C20100000000002600000081
:107540003400000002464FF4805131E010B5284C61
:10755000012204212046FEF74BFE4FF47A7000F022
:107560006AF82046BDE8104000220421FEF740BE24
:1075700038B5204C01224FF480412046FEF738FEFA
:107580001B4D012204212846FEF732FE4FF47A708B
:1075900000F051F8002204212846FEF729FE20467B
:1075A000BDE83840FFE700224FF48041FEF720BEDF
:1075B0001048FEF71DBE10B50E4C00224FF40041DE
:1075C0002046FEF715FE642000F035F82046BDE8A1
:1075D000104001224FF40041FEF70ABE024602218C
:1075E0000548FEF705BE01210348FEF7ECBC00008C
:1075F000000C0240000802400004024003480168F9
:1076000011B10168491E01607047000038970020E1
:1076100082B0002107E00099491C009100990529DA
:10762000F9D30199491C01910199814238BF002188
:10763000F3D302B0704782B00021019144F2682177
:1076400008E0009A521C0092009A8A42F9D3019AEB
:10765000521C0192019A824238BF0022F3D302B039
:107660007047000010B584B042F210700290A8205C
:10767000ADF804000020ADF80C00ADF8060001A93B
:107680001B4C204604F038FC0121204604F0E4FCA9
:1076900001220121204604F03DFE1E208DF800004D
:1076A00000208DF801008DF8020001208DF8030004
:1076B00000A803F06BFF0F4800210180418081800A
:1076C000C18004B00C484170017010BD4FF40061DE
:1076D0000A48FEF735BD07480121018070474FF485
:1076E00000610648FEF758BD02480021018070473E
:1076F000000800401C970020DE9500200018024082
:1077000030B583B005460C460B2100A804F0F6FE08
:1077100002208DF80000290A80208DF801008DF8E4
:10772000054000A8C1708570290C017103208DF8F7
:107730000A007748007818B900A90420FFF7CDFEA9
:1077400003B030BD00B583B002238DF8003087232D
:107750008DF8013000AB9870D97003208DF80A00C5
:107760001A716B48007818B900A90420FFF7B5FE1C
:1077700003B000BD2DE9F041664C207860B9A062ED
:10778000002260680121FEF733FDA068012202217A
:10779000FEF72EFD01221AE001280BD160680122BC
:1077A0000121FEF725FDA06800220221FEF720FD41
:1077B00001220CE002280ED1606801220121FEF7AF
:1077C00017FDA06801220221FEF712FD0022E068E9
:1077D0000421FEF70DFD00250FF2441604F11007F9
:1077E0004FF0060836F8021B57F8040BFEF7EBFBC8
:1077F000401E8041C00F690051FA80F5B8F10108C0
:10780000F0D1A06A28B925B12078C00005FA00F0AF
:10781000A062606B32283CBF401C60632078022865
:107820003ED1A06A70B93C4D286830B10020206379
:10783000E06228600021FFF763FF00202063E06220
:1078400028602DE0E16A814227D1216B491C216328
:10785000032909D1304D616B2860322904D30021FE
:10786000FFF74EFF00206063E06A216BB0F5003F38
:1078700002D1642914D102E0B1F5967F10D13239DA
:107880002163A06A244D616B2860322908D301214D
:10789000FFF736FF0020606302E000212163E06211
:1078A0002078401CC0B20328A8BF00202070BDE88B
:1078B000F08110B584B040F6C4100290A820ADF855
:1078C00004000020ADF80C00ADF8060001A9134C2F
:1078D000204604F011FB0121204604F0BDFB0122EB
:1078E0000121204604F016FD32208DF80000002012
:1078F0008DF801008DF8020001208DF8030000A82A
:1079000003F044FE04480021016004B010BD0000F3
:10791000404E00205469002040970020000C004099
:10792000000400080010002000400080F0B504466C
:10793000DFF89472DFF8246385B00D46BC421CBFAB
:10794000DFF88802844213D0DFF8840284421CBF2F
:10795000DFF8800284420BD0DFF87C0284421CBF37
:10796000DFF87802844203D0F1213046FEF79BFD18
:10797000286818B1DFF8E812884203D3F2213046B4
:10798000FEF791FDA888002818BFB0F5805F03D0EE
:10799000F3213046FEF787FDE888002818BFB0F5D0
:1079A000805F09D0B0F5005F18BFB0F5405F03D02D
:1079B000F4213046FEF777FD288900281CBFB0F57A
:1079C000806FB0F5C06F03D0F5213046FEF76BFD38
:1079D00068894FF6F371084200D118B9F621304694
:1079E000FEF761FDA889F8B1B0F5807F1CBFB0F546
:1079F000007FB0F5407F05D0F7213046FEF753FDFC
:107A0000A88988B1BC421CBFDFF8C00184420BD0FA
:107A1000DFF8BC0184421CBFDFF8C001844203D000
:107A2000FC213046FEF73FFD208A4CF6FF710840EE
:107A3000E988084320824EF6F311A0890840A988FE
:107A400008432989084369890843A0814FF6FF410B
:107A5000A08A0840A9890843A08200A803F03BFC43
:107A6000BC421BBFDFF87401844203980298296866
:107A700019225043A28912044CBF49008900B0FB6F
:107A8000F1F16420B1FBF0F000010209642303FB73
:107A90001211A289120406D5C9003231B1FBF3F1EB
:107AA00001F0070105E009013231B1FBF3F101F00A
:107AB0000F010843208105B0F0BD38B50446DFF85A
:107AC00008010D4684421CBFDFF80001844215D036
:107AD000DFF8FC0084421CBFDFF8F80084420DD0C0
:107AE000DFF8F40084421CBFDFF8F000844205D0C8
:107AF00040F2A1110FF26030FEF7D5FC5DB1012D0F
:107B000005D00FF254304FF4D171FEF7CCFCA089B0
:107B100040F4005003E0A0894DF6FF710840A081B9
:107B200031BD38B50446DFF8A0000D4684421CBFC5
:107B3000DFF89800844215D0DFF8940084421CBF1F
:107B4000DFF8900084420DD0DFF88C0084421CBF27
:107B5000DFF88800844205D040F223210FF2F8209C
:107B6000FEF7A1FCB5F5007F05DB0FF2EC204FF42A
:107B70000971FEF798FCE805C00DA08031BD10B575
:107B80000446DFF8440084421CBFDFF84000844212
:107B900015D0DFF83C0084421CBFDFF83800844277
:107BA0000DD0DFF8340084421CBFDFF8300084427F
:107BB00005D040F233210FF2A020FEF774FCA0881C
:107BC000C005C00D10BD0000001001400044004081
:107BD00000480040004C00400050004000140140AC
:107BE00070B50446DFF858020D46164684421CBFA5
:107BF000DFF85002844215D0DFF84C0284421CBFEB
:107C0000DFF8480284420DD0DFF8440284421CBFF2
:107C1000DFF84002844205D040F241410FF23820A3
:107C2000FEF741FC4FF63F70054200D12DB940F2FE
:107C300042410FF22420FEF736FC56B1012E05D04A
:107C40000FF2142040F24341FEF72DFCA08A284396
:107C500001E0A08AA843A08270BD0000587E000801
:107C6000E1707200F8B50546DFF8D4710E4614468F
:107C7000BD421CBFDFF8CC01854215D0DFF8C8013A
:107C800085421CBFDFF8C40185420DD0DFF8C0017A
:107C900085421CBFDFF8BC01854205D040F2C341DC
:107CA0000FF2B410FEF7FFFB282E1CBF40F2277026
:107CB00086421BD040F2266086421CBF40F225500F
:107CC000864213D040F2244086421CBF40F6460054
:107CD00086420BD040F66A10864218BF602E05D04F
:107CE00040F2C4410FF27010FEF7DDFB002C18BF0C
:107CF000012C05D00FF2601040F2C541FEF7D3FB16
:107D000040F66A10864210D1BD421CBF4D488542E4
:107D10000BD04D4885421CBF4E48854205D040F2ED
:107D2000CA410FF23410FEF7BEFB3006012106F007
:107D30001F02400F9140012808BF05F10C0005D03B
:107D400002280CBF05F1100005F114000268002C98
:107D500014BF114322EA01010160F1BDF8B50446E8
:107D60000026374F0D46BC421CBF3648844211D016
:107D7000354884421CBF354884420BD03448844285
:107D80001CBF3448844205D040F256510FF2C8005F
:107D9000FEF789FB282D1CBF40F227718D4234D09D
:107DA00040F226618D421CBF40F225518D422CD0FD
:107DB00040F224418D421CBF40F646018D4224D042
:107DC00040F66A118D420FD0B5F5587F1CBF40F2C6
:107DD00025318D4219D0B5F5187F18BFB5F5B07FA4
:107DE00013D040F257510CE0BC421CBF15488442EE
:107DF0000BD0154884421CBF1648844205D040F27F
:107E00005C510FF25400FEF74EFB2806400F012193
:107E100005F01F0201FA02F2012808BFA08903D071
:107E200002280CBF208AA08A10402A0A914022888A
:107E3000114000281CBF002901263046F2BD000079
:107E4000001001400044004000480040004C004049
:107E50000050004000140140433A5C546F6F6C7353
:107E60005C574C39465C574C5F465F4D6F6E69748A
:107E70006F725F4150505C4C6962726172696573E8
:107E80005C53544D3332463478785F537464506594
:107E9000726970685F4472697665725C7372635C64
:107EA00073746D3332663478785F75736172742ED3
:107EB0006300000080B5DFF8C415884214D0DFF8F5
:107EC000C015884204D0AB21DFF8B805FEF7EBFA05
:107ED00001214FF0806003F0CCFA00214FF0806068
:107EE000BDE8044003F0C5BA01214FF0007003F073
:107EF000C0FA00214FF00070F2E7F8B50446002602
:107F0000DFF87805DFF87C750D4684421CBFDFF88A
:107F10007005844203D0CB213846FEF7C4FAA87915
:107F2000002818BF012803D0CC213846FEF7BBFA41
:107F3000E879002818BF012803D0CD213846FEF784
:107F4000B2FA287A002818BF012803D0CE2138467B
:107F5000FEF7A9FA687A002818BF012803D0CF21BC
:107F60003846FEF7A0FAA87A002818BF012803D0E7
:107F7000D0213846FEF797FAE87A002818BF012882
:107F800003D0D1213846FEF78EFAA878002818BF12
:107F9000012807D0022818BF032803D0D221384671
:107FA000FEF781FAE878002818BF012807D00228D8
:107FB00018BF032803D0D3213846FEF774FA287976
:107FC000102803DBD4213846FEF76DFA68790828BB
:107FD00003DBD5213846FEF766FA288810B1B0F5E4
:107FE000806F03DDD6213846FEF75DFA206820F069
:107FF00002002060206840F0010020604FF6FF7012
:10800000014600E0491E6268D20701D40029F9D177
:108010006168C90754D5A979012921680CBF41F0CD
:10802000800121F080012160E979012921680CBFDC
:1080300041F0400121F040012160297A01292168A5
:108040000CBF41F0200121F020012160697A012953
:1080500021680CBF41F0100121F010012160A97AC4
:10806000012921680CBF41F0080121F008012160BD
:10807000E97A012921680CBF41F0040121F00401D3
:108080002160EA78A978120642EA81712A7941EAE8
:1080900002416A7941EA02512A88521E1143E16184
:1080A000216849084900216000E0401E6168C90755
:1080B00001D50028F9D1606800F0010080F00106C8
:1080C0003046F2BD70B50446A07A1C2805DB40F2AC
:1080D00053110FF2C030FEF7E6F9E07A002818BF1E
:1080E000012805D04FF4AA710FF2A830FEF7DBF992
:1080F000207B002818BF012805D040F255110FF24F
:108100009430FEF7D0F92089002818BF012805D047
:108110004FF4AB710FF27C30FEF7C5F9607B00289D
:1081200018BF012805D040F257110FF26830FEF752
:10813000BAF9A17A01208840DFF84C130A6842F0AE
:1081400001020A60C243CB691340CB61237B9BB918
:10815000CB681340CB60E5886688DFF8303346EAA9
:108160000545A67A43F83650A57A268803EBC50361
:10817000A58846EA05455D60237B012B13D1CB68BA
:108180000343CB6025886688DFF8003346EA05455F
:10819000A67A43F83650A57AE68803EBC503A5888E
:1081A00046EA05455D60E37A002B4B680CBF13403F
:1081B00003434B60238913B94B691A4003E0012B39
:1081C00002D14A6902434A61627B012A02D1CA692B
:1081D0001043C861086840084000086070BD002175
:1081E0008171C171017241728172C1728170C170FD
:1081F000032101710221417101210180704770B595
:108200000546DFF878020C4685421CBFDFF8800285
:10821000854205D040F246210FF27820FEF743F95F
:10822000207A002818BF042805D040F247210FF219
:108230006420FEF738F9607A002818BF022805D0BC
:108240004FF412710FF24C20FEF72DF9A07A092895
:1082500005DB40F249210FF23C20FEF724F9A86823
:1082600040011BD5002605EB0615D5F8800100F06E
:108270000100C5F88001207AE0B92068B0F5006FF0
:1082800005D340F263210FF20C20FEF70CF9D5F86C
:1082900080012168627A42EA41511DE0A86800012C
:1082A00048BF0126DFD4A868C00048BF0226DAD440
:1082B00004263EE06068B0F1005F05D340F269211A
:1082C0000FF2D010FEF7EFF8D5F880016168227A3E
:1082D00042EAC101627A11430843C5F88001A07ADD
:1082E00000F00F00A07205F5C0704168090909018E
:1082F00041604168A27A11434160627BA17B120414
:1083000042EA0161227B41EA0221E27A1143816063
:10831000627CA17C120442EA0161227C41EA0221D2
:10832000E27B1143C160D5F8800140F00100C5F83F
:108330008001304670BDF8B50446DFF840010D46B7
:10834000164684421CBFDFF84801844205D040F243
:10835000F2210FF24010FEF7A6F82F0018BF012DF2
:1083600005D00FF2301040F2F321FEF79CF804EB39
:108370000510D0F8B0113172317A4907D0F8B01138
:1083800059BF490D3160C9087160D0F8B01101F0D2
:108390000201717200F5D870416801F00F01B172ED
:1083A0004168090AF1748168F1728168090A3173C0
:1083B0008168090C71738168090EB173C168F1732A
:1083C000C168090A3174C168090C7174C068000E73
:1083D000B07425B9E06840F02000E060F1BD20698C
:1083E00040F020002061F1BD70B5044623480D46E1
:1083F000164684421CBFDFF89800844205D04FF433
:10840000A2610FF29000FEF74EF8012D18BF022D69
:1084100024D0042D18BF082D20D0102D18BF202DDA
:108420001CD0402D18BFB5F5807F17D0B5F5007F63
:1084300018BFB5F5806F11D0B5F5006F18BFB5F551
:10844000004F0BD0B5F5803F18BFB5F5003F05D004
:108450000FF2400040F21151FEF725F856B1012EFF
:1084600005D040F212510FF22C00FEF71CF86069A3
:10847000284301E06069A843606170BD006400406A
:108480000068004094840008006600404066004098
:1084900000680040433A5C546F6F6C735C574C3912
:1084A000465C574C5F465F4D6F6E69746F725F41FB
:1084B00050505C4C69627261726965735C53544DD3
:1084C0003332463478785F537464506572697068EB
:1084D0005F4472697665725C7372635C73746D334A
:1084E00032663478785F63616E2E6300F8B5774842
:1084F000774D007A4FF4800418B1286840F4E0000A
:108500002860744928680A68904238D008601726A5
:10851000714F2868204214BF012200224FF400410D
:108520003846FDF765FE01224FF480413846FDF7DD
:108530005FFE0120FFF77FF800224FF480413846AC
:10854000FDF756FE6408761EE3D101224FF4005178
:108550003846FDF74DFE0120FFF76DF800224FF47D
:1085600000513846FDF744FE0120FFF764F8384615
:10857000BDE8F84001224FF40051FDF739BEF1BDCE
:1085800052480021C160017801F003035A1E924154
:10859000D243D20FC260C1F3810202B10222C3688A
:1085A000D218C260C1F3011303B104239A18C26048
:1085B000890918BF082189184278C16003231A422B
:1085C00014BF102300235918C160C2F3810303B103
:1085D00020235918C160C2F3011303B14023591875
:1085E000C160920918BF802251188278C1600323AC
:1085F0001A4214BF4FF4807300235918C160C2F3AC
:1086000081030BB14FF400735918C160C2F3011319
:108610000BB14FF480635918C160920918BF4FF431
:1086200000625118C278C16003231A4214BF4FF48C
:10863000805300235918C160C2F381030BB14FF47A
:1086400000535918C160C2F301130BB14FF48043BA
:108650005918C160920918BF4FF4004251180279AD
:10866000C16003231A4214BF4FF48033002359180A
:10867000C160C2F381030BB14FF400335918C160DC
:10868000C2F301130BB14FF480235918104BC16092
:108690009209426319600272704710B50E4C0122B4
:1086A0004FF480512046FDF7A3FD0A20FEF7C3FFDB
:1086B00000224FF480512046FDF79AFD04486FF0E8
:1086C0007F410160BDE8104010E70000E095002008
:1086D0009C960020A09600200004024002464FF421
:1086E00000416948FDF784BD024610216748FDF747
:1086F0007FBD10B50446224680216448FDF778FD11
:108700006348047010BD0FF29C12614932F81020CA
:1087100048704A80104610B586B07021ADF8001040
:1087200002900121ADF802100421ADF804100221DD
:10873000ADF80C100021ADF80E104FF48071ADF8BB
:1087400010100021ADF8121000A9524C204603F081
:10875000D9FC0121204603F07FFC0121204603F0D3
:10876000B5FD06B010BD30B589B01020ADF81400CD
:10877000FA210020ADF81600464C47480068B0FBCF
:10878000F1F0401E80B2069005A90020ADF81C0053
:108790008DF81E00204603F0AFFB7020ADF80000FE
:1087A00041F27F350120ADF8020002950420ADF8BA
:1087B000040000A90220ADF80C000020ADF80E0066
:1087C0004FF48070ADF810000020ADF81200204684
:1087D00003F098FC0121204603F03EFC01212046D5
:1087E00003F074FD4FF47A70FEF725FF2848062148
:1087F0004170458009B030BD38B5284C234D012863
:108800000DD100224FF400712846FDF7F1FC0A203B
:10881000FEF711FF01224FF4807120460CE0002288
:108820004FF480712046FDF7E3FC0A20FEF703FFBA
:1088300001224FF400712846BDE83840FDF7D8BC4E
:1088400017480078FEF780B980B5FF2808BF0020E0
:1088500003D00121FEF770F90120BDE80240CBE70B
:1088600080B540F6B830FEF7E6FE0020FFF7C4FF03
:10887000FFF779FF002280210448FDF7B9FC044886
:108880000021017001BD00000018024000080240F4
:108890003C97002000040140B06900200000024025
:1088A000D4690020FE403E377E2DFE267F20FF1932
:1088B0007F13FF0C00000000F8B5344F384603F07A
:1088C00020FE0446381D03F01CFE054607F1080093
:1088D00003F017FE064607F10C0003F012FE2378A2
:1088E0002B492C4A002B40D12B6802FB03132B6031
:1088F000082702FB03132B6002FB03132B6002FB10
:1089000003132B6002FB03132B6002FB03132B608A
:1089100002FB03132B6002FB03132B600346D5F805
:1089200000C002FB0C1CC5F800C043F804CB7F1E3E
:10893000D5F800C002FB0C1CC5F800C043F804CBFE
:10894000D5F800C002FB0C1CC5F800C043F804CBEE
:10895000D5F800C002FB0C1CC5F800C043F804CBDE
:10896000DDD1C36F3360012323702B6802FB031139
:108970002960317801F01F0150F8212032602A6807
:1089800040F82120306880008008F2BD786800201F
:108990005FF36E3C0D66190030B4014600200023E1
:1089A000724A01F001049D56AC402043C9035B1C90
:1089B000090C01F001049D56AC40204349085B1CA2
:1089C00001F001049D56AC40204349085B1C01F0B6
:1089D00001049D56AC40204349085B1C102BE0DB92
:1089E00030BC704710B582B00C46FFF7D5FF604031
:1089F00000905F48BDF8001001F00F0130F8211021
:108A0000ADF800109DF8021001F00F0100EB81009D
:108A10004088ADF80200BDF80010484016BD81B096
:108A20000090C1F11000BDF8002002FA01F30241EC
:108A30001A43ADF80020BDF8022042FA01F102FA13
:108A400000F00843ADF80200009801B070472DE92E
:108A5000F84304460D469146CDB16D1E2788B4F803
:108A60000280002631464846FFF7D9FF01464046BE
:108A7000FFF7B8FF784080B247468046761C082E44
:108A8000F0DB24F8027B24F8028B002DE5D10020D6
:108A9000BDE8F2832DE9F04780460E469246DEB1EE
:108AA000761EB8F80050B8F8029008277F1E3946A5
:108AB0005046FFF7B4FF2C460146A0B2FFF792FFE5
:108AC00080EA090085B2A146012FEFDA28F8025B9F
:108AD00028F8029B002EE3D10020BDE8F08741EA90
:108AE00000402449086070472DE9F0410F461446C4
:108AF0003D46AE1017F0030818BF761C3A460146F3
:108B0000204603F0BDF9B8F1000F04D0381D07F07E
:108B10000301471A3FB20020791B012906DB4219E5
:108B200000231355401C00B28842F8DB114802684C
:108B300031462046FFF78BFF78B2BDE8F08138B5AB
:108B40000C46154603210C4202D04FF0FF3032BDD7
:108B500022460146284603F093F906480268A11010
:108B60002846FFF797FF60B232BD00009CD0000896
:108B7000C0CF0008D069002030B5DFF880468BB048
:108B80002046FFF797F9DFF878562846FFF792F965
:108B900001A8FFF724FB0020ADF80A000390ADF810
:108BA000060001A90D208DF8080005208DF80900A8
:108BB0000420ADF804002046FFF79FF90020ADF82F
:108BC00016000690ADF8120004A90D208DF81400CF
:108BD00005208DF815000820ADF810002846FFF795
:108BE0008CF90020ADF8260001208DF82800002027
:108BF00007900890ADF8240001208DF8290007A8FF
:108C0000FFF760FA14208DF8000000208DF80100B5
:108C10008DF8020001208DF8030000A802F0B6FCD8
:108C20000BB030BD38B5DFF8DC4500202074E061C2
:108C30000021062020706182002060702175FF20D5
:108C4000A07008222820207100206074DFF8B80589
:108C50000180DFF8B805017004F12000A061FF2158
:108C600004F1280003F04EFC0822FF2104F130003B
:108C700003F048FC0822FF2104F1380003F042FC15
:108C80000822FF2104F1400003F03CFC0822FF21F0
:108C900004F1480003F036FC0822FF2104F15000E3
:108CA00003F030FC0822FF2104F1700003F02AFCDD
:108CB0000822FF2104F1080003F024FC00202073A7
:108CC0000822FF2104F1880003F01CFC0822FF2188
:108CD00004F1900003F016FC0822FF2104F1980033
:108CE00003F010FC0822FF2104F1A00003F00AFCAD
:108CF0000822FF2104F1A80003F004FC0822FF2150
:108D000004F1B00003F0FEFB0822FF2104F1B800DB
:108D100003F0F8FB04F5A8750822FF21284603F0AC
:108D2000F1FB1022FF2104F1780003F0EBFB152288
:108D3000FF2104F1580003F0E5FB0822FF2104F1B4
:108D4000C00003F0DFFB1522FF2104F1C80003F08F
:108D5000D9FB0822FF2104F1D00003F0D3FB0D2240
:108D6000FF2104F1D80003F0CDFB0822FF2104F11C
:108D7000E80003F0C7FB0822FF2104F1F00003F034
:108D8000C1FB0822FF2104F1F80003F0BBFB08221D
:108D9000FF2104F5807003F0B5FB0822FF2104F5E4
:108DA000847003F0AFFB0822FF2104F5887003F004
:108DB000A9FB0822FF2104F58C7003F0A3FB082215
:108DC000FF2104F5907003F09DFBFF22082104F5BC
:108DD000947003F0A1FBFF22082104F5987003F0C2
:108DE0009BFBFF220821DFF8280403F095FBFF22FC
:108DF000162104F59C7003F08FFBFF220821284602
:108E000003F08AFBFF220821DFF8080403F0A2FB2D
:108E1000DFF80444A5220221204603F09BFBA01C9E
:108E2000BDE83840F022022103F094BB17B59DF84D
:108E30000200DFF8E8432F2811D0207800EB400330
:108E400004EB83000C2200A9801C03F019F82078A1
:108E5000401C2070C0B2FF2806D1002011E101A8FB
:108E60000CC804F6F8310CC103B010BDDFF8B00334
:108E70000188491C0180052289B291FBF2F202EBC4
:108E80008202891A00D0704710B50180DFF8944340
:108E900060782178814219D000EB00100019811C04
:108EA0001122DFF88403FEF7FAFADFF88003D0E935
:108EB0000023521C43F10003C0E900236078401CEA
:108EC0006070C0B2FF2804BF0020607010BD30B5D4
:108ED000D74CB4F86800401CA4F8680085B0C007FF
:108EE0003FD4CE4D6878297881423AD000EB4001DA
:108EF00005EB8100C2788178120402EB01610279EE
:108F000001EB0221427989180191082204218DF890
:108F1000081000218DF8091008218DF80A1000A909
:108F20008379CB72401C491C521EF9D100A9B34869
:108F3000FFF765F92070042809D06878401C687034
:108F4000C0B2FF280DD10020687005B030BD617837
:108F50000A191071481C6070C0B26528A4BF0020B7
:108F6000607005B030BD0FB410B5AE4C207800EB8A
:108F70000010001902218170F521207800EB00100B
:108F800000190822C1700821207800EB0010001998
:108F900001710021207800EB0010001941740321B9
:108FA000207800EB0010001981742078039900EB01
:108FB00000100019C0F805100DF11301207800EB26
:108FC00000100019093002F05BFF9A4920780978F7
:108FD000012928D100EB00110919974AD1F8051091
:108FE000914210D100EB00121219537A162B03D1C3
:108FF000924A0123137006E0182B04D1927A904B09
:1090000002F001021A708F4A91420CD100EB00115C
:109010000919497A112908BF8B4902D0132902D1B5
:109020008A4901220A70401C2070C0B2FF2804BF88
:109030000020207010BC5DF814FB10B583B0182020
:109040008DF80000FF208DF801002F208DF8020020
:1090500028208DF8030001A9704C04F6F8300CC8E4
:109060000CC1207800EB400304EB83000C2200A924
:10907000801C02F005FF2078401CC0B2FF2808BF0A
:109080000020207003B010BD10B583B018208DF8FB
:109090000000FF22EF208DF80100082147208DF805
:1090A000020028208DF8030001A803F035FA1520EE
:1090B0008DF804000C22594C207800EB400304EB9F
:1090C000830000A9801C02F0DBFE2078401CC0B2A7
:1090D000FF2808BF0020D4E710B585B01C208DF80C
:1090E00008000D21EC208DF80900082247208DF89A
:1090F0000A0028208DF80B0010208DF8000000A831
:109100004170002181700221C170FF210171002096
:109110008DF8050000A9EF208DF8060000208DF8DD
:10912000070003A802F0ACFE3C4C207800EB4003A3
:1091300004EB83000C2202A9801C02F0A1FE20781F
:10914000401CC0B2FF2808BF0020207005B010BD31
:1091500070B585B01C208DF8080000ACEB208DF8B0
:109160000900FF2647208DF80A00E67028208DF8B8
:109170000B00267101208DF80000667117206070C9
:10918000A671F820A070E671082200A903A802F0D9
:1091900077FE224D287800EB400305EB83000C227C
:1091A00002A9801C02F06CFE2878401CC0B2FF2887
:1091B00008BF00202870667002208DF80000A6709D
:1091C000E67026716671A671E671082200A903A8EF
:1091D00002F056FE287800EB400305EB83000C22DA
:1091E00002A9801C02F04CFE2878401CC0B2FF2867
:1091F00008BF0020287005B070BD0000006400406A
:10920000006800401C940020E29600204497002053
:10921000C486002008970020F8960020CC7A002011
:1092200076960020D8690020CC9600203097002048
:1092300074950020AD9600204728EF18AF960020C7
:10924000B29600204728EC1CB0960020B196002072
:1092500038B5044600F0D9F8DFF8CC5400221021CC
:109260002846FCF7C5FFD82000F0A5F82002000E24
:1092700000F0A1F82004000E00F09DF8E0B200F02C
:109280009AF8012210212846FCF7B2FFBDE83140D0
:10929000CCE02DE9F84304460F46164600F0B5F839
:1092A000DFF88494002210214846FCF7A1FF022039
:1092B00000F081F83802000E00F07DF83804000E4E
:1092C00000F079F8F8B200F076F82EB3012794F8A0
:1092D00000800025761E002220214846FCF788FFEA
:1092E000C5F1070007FA00F04146014214BF012210
:1092F000002280214846FCF77BFF012220214846BE
:10930000FCF776FF40214846FCF75DFE6D1C082DFA
:10931000E1DB641C002EDAD1012210214846FCF763
:1093200067FFBDE8F14381E02DE9F84380460F4631
:109330001646DFF8F493002210214846FCF758FF48
:10934000032000F038F83802000E00F034F838043A
:10935000000E00F030F8F8B200F02DF83EB301270F
:1093600000240025761E002220214846FCF740FFFD
:10937000C5F1070007FA00F010F0A50014BF0122A4
:10938000002280214846FCF733FF01222021484675
:10939000FCF72EFF40214846FCF715FE6D1C40EA05
:1093A0004404082DDFDB08F8014B002ED8D14846D5
:1093B000BDE8F84336E02DE9F041044600250026DB
:1093C0000127DFF86483002220214046FCF710FFCC
:1093D000C6F1070007FA00F0044214BF0122002280
:1093E00080214046FCF704FF012220214046FCF783
:1093F000FFFE40214046FCF7E6FD761C40EA4505AD
:10940000082EE0DBE8B2BDE8F08110B5C64C0022C2
:1094100010212046FCF7ECFE0620FFF7CCFF20468B
:10942000BDE8104001221021FCF7E2BEF8B5BE4CA9
:10943000002210212046FCF7DBFE0520FFF7BBFFD2
:10944000012500260027002220212046FCF7D0FE1F
:10945000C7F1070005FA00F010F0A50014BF0122C3
:10946000002280212046FCF7C3FE01222021204655
:10947000FCF7BEFE40212046FCF7A5FD7F1C40EA1C
:109480004606082FDFDBF007DBD42046BDE8F840B6
:10949000C8E710B4002261B10FF29C2310F8014B11
:1094A0005440E4B233F8144084EA222292B2491EB6
:1094B000F4D110BC1046704710B5012210219A4813
:1094C000FCF796FE994C01224FF400612046FCF710
:1094D0008FFE2046BDE8104001224FF48061FCF76A
:1094E00087BE10B5012944D1012805D0C0F08A807B
:1094F000032812D01CD310BD8D4C207C30B94FF402
:109500002020FFF7A5FE0120207478E08948B0F8FC
:109510000100800200F5202042E08548007C002800
:1095200044D08448B0F80100800200F5202048E0D3
:109530004FF47410FFF78CFE4FF47810FFF788FE9D
:109540007C487B4CB0F801102173080A6073062236
:109550004FF4741104F10800FFF79BFE06224FF44C
:10956000781104F10800FFF794FE06224FF47811F9
:109570003EE0012804D045D3032814D024D310BDE5
:109580006B4C207C30B94FF48030FFF761FE012036
:10959000207434E06748B0F80100800200F58030A4
:1095A000BDE8104051E06248007C20B960480121CC
:1095B0000174032023E05F48B0F80100800200F549
:1095C0008030BDE8104080E04FF47C10FFF740FE93
:1095D0005848574CB0F801102171080A60710622F2
:1095E0004FF47C112046FFF754FE06224FF47C1105
:1095F00004F11400FFF798FE002020740220BDE85B
:1096000010400FE010BD00B583B002218DF80010AE
:1096100000AA4849B1F80130B1F801105370090AA5
:1096200091700AE000B583B002218DF800108DF82A
:109630000200862103208DF801108DF80A0000A990
:109640000420FDF74AFF03B000BD38B50446394D8C
:109650004FF48061E81CFFF71CFFB5F80314884243
:109660002ED10620FFF7CFFF4FF480722146E81C71
:10967000FFF70FFE4FF4807204F5807105F20310BE
:10968000FFF707FE4FF4807204F5007105F2032026
:10969000FFF7FFFD4FF4807204F5407105F20330CF
:1096A000FFF7F7FD224D4FF48062214605F11C00C3
:1096B000FFF73AFE287C022806D10020287431BD2D
:1096C0001520BDE832409EE731BD70B50446194D06
:1096D0004FF48061E81CFFF7DCFE154EB5F803146B
:1096E000708288421CD1FF224FF4806106F11C0079
:1096F00002F012FF4FF48062214606F11C00FFF7D2
:1097000013FE4FF48062E91C06F11C0002F056FFC4
:1097100030B9307C022804BF00203074062000E0FD
:109720001520BDE870406EE70000024000080240CE
:10973000304E0020D48A00200000C1C081C1400109
:1097400001C3C003800241C201C6C006800741C7F1
:109750000005C1C581C4400401CCC00C800D41CDC1
:10976000000FC1CF81CE400E000AC1CA81CB400B91
:1097700001C9C009800841C801D8C018801941D961
:10978000001BC1DB81DA401A001EC1DE81DF401FF1
:1097900001DDC01D801C41DC0014C1D481D5401501
:1097A00001D7C017801641D601D2C012801341D311
:1097B0000011C1D181D0401001F0C030803141F1A1
:1097C0000033C1F381F240320036C1F681F74037F1
:1097D00001F5C035803441F4003CC1FC81FD403DC1
:1097E00001FFC03F803E41FE01FAC03A803B41FB91
:1097F0000039C1F981F840380028C1E881E94029E1
:1098000001EBC02B802A41EA01EEC02E802F41EFF0
:10981000002DC1ED81EC402C01E4C024802541E500
:109820000027C1E781E640260022C1E281E3402310
:1098300001E1C021802041E001A0C060806141A120
:109840000063C1A381A240620066C1A681A74067F0
:1098500001A5C065806441A4006CC1AC81AD406DC0
:1098600001AFC06F806E41AE01AAC06A806B41AB90
:109870000069C1A981A840680078C1B881B9407960
:1098800001BBC07B807A41BA01BEC07E807F41BFF0
:10989000007DC1BD81BC407C01B4C074807541B500
:1098A0000077C1B781B640760072C1B281B3407310
:1098B00001B1C071807041B00050C19081914051A0
:1098C0000193C053805241920196C05680574197F0
:1098D0000055C19581944054019CC05C805D419DC0
:1098E000005FC19F819E405E005AC19A819B405B90
:1098F0000199C059805841980188C04880494189E0
:10990000004BC18B818A404A004EC18E818F404FEF
:10991000018DC04D804C418C0044C18481854045FF
:109920000187C047804641860182C042804341830F
:109930000041C1818180404000B50100DFF8A003F3
:1099400083B001694FF400624FF2FF7308D01940F1
:109950004161009201218DF804108DF8051005E099
:1099600019404161009200218DF8041000A9FCF714
:1099700089FA03B000BD70B504460120FDF748FE2A
:109980000825D74EE4B2E0094FF40061304602D01A
:10999000FCF7D6FB01E0FCF7FFFB0120FDF738FEEA
:1099A0004FF480613046FCF7CBFB0120FDF730FE21
:1099B00064004FF480613046FCF7EEFB0120FDF7B8
:1099C00027FE6D1EDED14FF400613046FCF7E4FB4C
:1099D0000120FDF71DFE4FF480613046FCF7B0FB1F
:1099E0000120FDF715FE3046BDE870404FF4806160
:1099F000FCF7D2BB70B504460D46B94E4FF400617A
:109A00003046FCF79DFB0120FFF796FF4FF4006105
:109A10003046FCF795FB4FF480613046FCF790FB35
:109A20000120FDF7F5FD4FF400613046FCF7B4FB73
:109A30000120FDF7EDFD4FF480613046FCF7ACFBF3
:109A40008A20FFF798FFE0B2FFF795FF2846FFF75F
:109A500092FF4FF400613046FCF79EFB0120FDF7BA
:109A6000D7FD4FF480613046FCF76AFB0120FDF71B
:109A7000CFFD3046BDE870404FF40061FCF760BB9D
:109A800070B50120FDF7C4FD954D4FF48061284667
:109A9000FCF782FB0120FDF7BBFD4FF40061284677
:109AA000FCF74EFB0020FFF747FF08264FF48061CC
:109AB0002846FCF745FB0120FDF7AAFD0120FDF734
:109AC000A7FD4FF400612846FCF77DFA40EA440404
:109AD000E4B24FF480612846FCF75EFB0120FDF7FD
