:020000040800F2
:10400000A098002015C0000861A6000863A600085B
:1040100065A6000867A6000869A600080000000061
:104020000000000000000000000000006BA6000877
:104030006DA60008000000006FA6000871A6000829
:1040400055C0000859C000085DC0000861C00008E4
:1040500065C0000869C000086DC0000871C0000894
:1040600075C0000879C000087DC0000881C0000844
:1040700085C0000889C000088DC0000891C00008F4
:1040800095C0000899C000089DC00008A1C00008A4
:10409000C5A60008A9C00008ADC00008B1C000084E
:1040A000B5C00008B9C00008BDC00008C1C0000804
:1040B000C5C00008C9C0000829A80008D1C0000870
:1040C000D5C00008D9C00008DDC00008E1C0000864
:1040D000E5C00008E9C0000893A80008F1C0000886
:1040E000F5C00008F9C00008FDC0000801C10008C3
:1040F00005C1000809C100080DC1000811C1000870
:1041000015C1000819C100087FA8000821C10008D6
:10411000BBAB000829C100082DC1000831C100084F
:1041200035C1000839C100083DC1000841C100087F
:1041300045C1000849C100084DC1000851C100082F
:1041400055C1000859C100085DC1000861C10008DF
:1041500065C1000869C100086DC1000871C100088F
:1041600075C1000879C100087DC1000881C100083F
:1041700085C1000889C100088DC1000891C10008EF
:1041800095C1000899C100081CB501F039FE0F2344
:104190000F220221032000F00DFA1F2001900023BE
:1041A0002D2000901A461146032001F00FFD1F201C
:1041B000019000232D2000901A460121032001F0D8
:1041C00005FD1F20019000232D2000901A4602219A
:1041D000032001F0FBFC1F20019000232D20009004
:1041E00003211A46084601F0F1FC1F20009000222E
:1041F0002D231146032001F068FDF0231022022137
:10420000032000F0D7F9502000901022DFF8404A38
:1042100004F108030221032000F06DFA20798009DF
:1042200028D12020009004F15803602202210320AD
:1042300000F061FA2020009004F17803802202212E
:10424000032000F058FA2020009004F17803A02207
:104250000221032000F04FFA2020009004F178039F
:10426000C0220221032000F046FA2020009004F131
:10427000780324E02020009004F1980360220221BA
:10428000032000F038FA20200090B8342346802222
:104290000221032000F02FFA202000902346A022C4
:1042A0000221032000F027FA202000902346C0229C
:1042B0000221032000F01FFA202000902346E02274
:1042C0000221032000F017FA13BD2DE9F041DFF8B9
:1042D0008049DFF88089A0700E46207940F0040004
:1042E000207115464FF48051404601F017FFDFF86A
:1042F00068794FF48041384601F0E4FE4FF40051F4
:10430000384601F0DFFE4FF40051404601F006FF51
:104310004FF48061384601F001FF4FF48051384678
:1043200001F0D0FE002000F09DFB384601F09CFE1D
:1043300000F47F4046EA0001384601F07AFF4FF46E
:104340008051404601F0BEFE4FF48051404601F0DE
:10435000E5FE002000F086FB384601F085FE00F403
:104360007F4045EA0001384601F063FF4FF40051F9
:10437000384601F0D3FE4FF40051384601F0A2FE5A
:104380004FF48051404601F0C9FE4FF48041384659
:1043900001F098FE4FF40051384601F093FE4FF4BF
:1043A0000051404601F0BAFE4FF48061384601F0FA
:1043B00089FE4FF48051384601F084FE002000F061
:1043C00051FB384601F050FE40F0FF01384601F045
:1043D00030FF207900F0FB002071BDE8F0812DE96D
:1043E000F041DFF86C58DFF86C68A8700F46287948
:1043F00040F00400287114464FF48051304601F01B
:104400008DFEDFF854884FF48041404601F05AFE9B
:104410004FF40051404601F055FE4FF40051304634
:1044200001F07CFE4FF48061404601F077FE4FF4CE
:104430008051404601F046FE002000F013FB40464C
:1044400001F012FE00F47F4047EA0001404601F00F
:10445000F0FE4FF48051304601F034FE4FF48051AD
:10446000304601F05BFE2778002000F0FBFA404662
:1044700001F0FAFD00F47F4047EA0001404601F0F8
:10448000D8FE4FF40051404601F048FE4FF4005171
:10449000404601F017FE6778002000F0E3FA40463E
:1044A00001F0E2FD00F47F4047EA0001404601F0E0
:1044B000C0FE4FF40051404601F030FE4FF4005171
:1044C000404601F0FFFDA778002000F0CBFA4046FF
:1044D00001F0CAFD00F47F4047EA0001404601F0C8
:1044E000A8FE4FF40051404601F018FE4FF4005171
:1044F000404601F0E7FDE778002000F0B3FA4046BF
:1045000001F0B2FD00F47F4047EA0001404601F0AF
:1045100090FE4FF40051404601F000FE4FF4005170
:10452000404601F0CFFD2479002000F09BFA404680
:1045300001F09AFD00F47F4044EA0001404601F09A
:1045400078FE4FF40051404601F0E8FD4FF4005171
:10455000404601F0B7FD4FF48051304601F0DEFDDA
:104560004FF48041404601F0ADFD4FF4005140460C
:1045700001F0A8FD4FF40051304601F0CFFD4FF49B
:104580008061404601F09EFD4FF48051404601F0AD
:1045900099FD002000F066FA404601F065FD40F00C
:1045A000FF01404601F045FE287900F0FB0028712C
:1045B000BDE8F0812DE9F843DFF89446DFF89486F2
:1045C000A0700F46207940F00400207191461E46ED
:1045D0004FF48051404601F0A1FDDFF87C564FF4C6
:1045E0008041284601F06EFD4FF40051284601F04D
:1045F00069FD4FF40051404601F090FD2FB94FF492
:104600008051284601F08AFD13E0012F0AD14FF4B2
:104610008051284601F082FD4FF48061284601F068
:1046200051FD0BE0022F09D14FF48051284601F0D3
:1046300049FD4FF48061284601F070FD002000F034
:1046400011FA284601F010FD00F47F4049EA00010C
:10465000284601F0EEFD4FF48051404601F032FD56
:104660004FF48051404601F059FD002000F0FAF966
:10467000284601F0F9FC00F47F4046EA0001284694
:1046800001F0D7FD4FF40051284601F047FD4FF4EB
:104690000051284601F016FD4FF48051404601F0CC
:1046A0003DFD4FF48041284601F00CFD4FF40051D0
:1046B000284601F007FD4FF40051404601F02EFD61
:1046C0004FF48061284601F0FDFC4FF480512846EC
:1046D00001F0F8FC002000F0C5F9284601F0C4FC08
:1046E00040F0FF01284601F0A4FD207900F0FB0016
:1046F0002071BDE8F1832DE9F843DFF85455DFF868
:104700005485A8700F46287940F00400287114469B
:104710001E464FF48051404601F000FDDFF8389509
:104720004FF48041484601F0CDFC4FF4005148461B
:1047300001F0C8FC4FF40051404601F0EFFC2FB9E6
:104740004FF48051484601F0E9FC13E0012F0AD1F3
:104750004FF48051484601F0E1FC4FF48061484637
:1047600001F0B0FC0BE0022F09D14FF48051484614
:1047700001F0A8FC4FF48061484601F0CFFC002016
:1047800000F070F9484601F06FFC00F47F4044EA05
:104790000001484601F04DFD4FF48051404601F0C4
:1047A00091FC4FF48051404601F0B8FC089CA4B243
:1047B000D4B116F8017B002000F054F9484601F00E
:1047C00053FC00F47F4047EA0001484601F031FD08
:1047D0004FF40051484601F0A1FC4FF40051484607
:1047E00001F070FC641EE4D14FF48051404601F0AA
:1047F00095FC4FF48041484601F064FC4FF40051B1
:10480000484601F05FFC4FF40051404601F086FC41
:104810004FF48061484601F055FC4FF48051484602
:1048200001F050FC002000F01DF9484601F01CFC8E
:1048300040F0FF01484601F0FCFCFFE7287900F05A
:10484000FB002871BDE8F1832DE9F041DFF8004459
:10485000DFF80074A0700E46207940F0040020714B
:1048600015464FF48051384601F058FCDFF8E883D4
:104870004FF48041404601F025FC4FF40051404682
:1048800001F020FC4FF40051384601F047FC2EB9EE
:104890004FF48051404601F041FC13E0012E0AD153
:1048A0004FF48051404601F039FC4FF4806140469E
:1048B00001F008FC0BE0022E09D14FF48051404674
:1048C00001F000FC4FF48061404601F027FC00201D
:1048D00000F0C8F8404601F0C7FB00F47F4045EA0D
:1048E0000001404601F0A5FC4FF48051384601F02C
:1048F000E9FB4FF48051384601F010FC4FF4804141
:10490000404601F00BFC012000F0ACF8404601F0FD
:104910007DFB05464FF48041404601F0D3FB4FF448
:104920008051384601F0FAFB4FF48041404601F0D7
:10493000C9FB4FF40051404601F0C4FB4FF4005155
:10494000384601F0EBFB4FF48061404601F0BAFBC2
:104950004FF48051404601F0B5FB207900F0FB0098
:104960002071E8B2BDE8F081F8B5B94CB94DA0703E
:104970004FF48051207940F004002071284601F066
:10498000CDFBB54E4FF48041304601F09BFB4FF418
:104990000051304601F096FB4FF40051284601F0DB
:1049A000BDFB4FF48061304601F0B8FB4FF48051FD
:1049B000304601F087FB002000F054F8304601F04B
:1049C00053FB00F47F4040F00A01304601F031FC17
:1049D0004FF48051284601F075FB4FF48051284672
:1049E00001F09CFB002000F03DF8304601F03CFB5C
:1049F00040F0FF01304601F01CFC4FF4804130468E
:104A000001F08CFB012000F02DF8304601F0FEFA99
:104A100007464FF48041304601F054FB4FF480517B
:104A2000284601F07BFB4FF48041304601F04AFB01
:104A30004FF40051304601F045FB4FF40051284639
:104A400001F06CFB4FF48061304601F03BFB4FF40A
:104A50008051304601F036FB207900F0FB002071D8
:104A6000F8B2F2BD00B583B018B9FF200090012064
:104A700004E0012811D1FF20009000208DF80400EF
:104A800000A902208DF8050000208DF80600012005
:104A90008DF80700704801F0B7F903B000BD2DE9AB
:104AA000FC410746002200210320FFF7CDFE064609
:104AB000102200210320FFF7C7FE04462022002118
:104AC0000320FFF7C1FE0546302200210320FFF737
:104AD000BBFE804657B9802E16D1DFF8B00E01908C
:104AE00000230020009064224121ACE0012F02D17C
:104AF000802C09D1F1E7022F01D1802DF9E7032F96
:104B00000BD1B8F1800FE8D0DFF8840E01900023BC
:104B1000002000906422412195E0042F18D1802EBE
:104B200014BFDFF86C0EDFF8640E01900023002044
:104B3000009064221421032000F036FF802C2BD13A
:104B4000DFF8480E0190002300200090642279E0F5
:104B5000052F0FD1802E2BD1DFF8300E01900023CE
:104B60000020009064221421032000F01DFF802DFE
:104B700012D1E5E7062F17D1802E25D1DFF80C0ED4
:104B8000019000230020009064221421032000F0F3
:104B90000BFFB8F1800FD3D0DFF8F40D01900023A4
:104BA0000020009064224DE0072F04D1802CD3D048
:104BB000DFF8DC0DD2E7082F02D1802C04D1DDE72D
:104BC000092F04D1802DD9D0DFF8C40DD8E70A2FE2
:104BD0003CD1802E14BFDFF8B80DDFF8B00D019086
:104BE0000023002000902D221421032000F0DCFE81
:104BF000802C14BFDFF8980DDFF8900D0190002392
:104C0000002000902D226E21032000F0CDFE802D8B
:104C100014BFDFF87C0DDFF8740D01900023002035
:104C20000090A5221421032000F0BEFEB8F1800FF1
:104C300014BFDFF85C0DDFF8540D01900023002055
:104C40000090A5226E21032000F0AEFEBDE8F381A6
:104C500094630020000C02400018024000B583B0AD
:104C6000002861D1A1B11F20019000222D200090C9
:104C700000231146032000F0A9FFDFF8180D019072
:104C80000522002000900346A221032000F08CFEA4
:104C90000123802200210320FFF78CFCFF238122C7
:104CA00000210320FFF786FCFF238222002103203E
:104CB000FFF780FCFF23832200210320FFF77AFC0B
:104CC000FF23842200210320FFF774FC802310229D
:104CD00001210320FFF76EFC01231822012103208C
:104CE000FFF768FC0223202201210320FFF762FC6A
:104CF0000323282201211846FFF75CFC0023302201
:104D000001210320FFF756FCB023312201210320AB
:104D1000FFF750FC0023322201210320FFF74AFC59
:104D20007823332200F010BE012861D1A1B11F20E9
:104D3000019000222D20009000231146032000F056
:104D400045FFDFF8540C0190052200200090034637
:104D5000A221032000F028FE4123902200210320FD
:104D6000FFF728FCFF23912200210320FFF722FCFC
:104D7000FF23922200210320FFF71CFCFF23932234
:104D800000210320FFF716FCFF23942200210320BB
:104D9000FFF710FC0023102201210320FFF70AFC7B
:104DA0008123182201210320FFF704FC0223202283
:104DB00001210320FFF7FEFB03232822012103200A
:104DC000FFF7F8FB0023342201210320FFF7F2FB59
:104DD000B023352201210320FFF7ECFB002336220C
:104DE00001210320FFF7E6FB7823372200F0ACBD5A
:104DF000022861D1A1B11F20019000222D20009036
:104E000000231146032000F0E1FEDFF8900B019033
:104E10000522002000900346A221032000F0C4FDDB
:104E20008123A02200210320FFF7C4FBFF23A1223E
:104E300000210320FFF7BEFBFF23A2220021032055
:104E4000FFF7B8FBFF23A32200210320FFF7B2FBEB
:104E5000FF23A42200210320FFF7ACFB0023102234
:104E600001210320FFF7A6FB0123182201210320C3
:104E7000FFF7A0FB8223202201210320FFF79AFBEA
:104E80000323282201211846FFF794FB0023382230
:104E900001210320FFF78EFBB023392201210320DB
:104EA000FFF788FB00233A2201210320FFF782FB52
:104EB00078233B2200F048BD03285AD1A1B11F201E
:104EC000019000222D20009000231146032000F0C5
:104ED0007DFEDFF8CC0A01900522002000900346F9
:104EE000A221032000F060FDC123B0220021032095
:104EF000FFF760FBFF23B12200210320FFF75AFBDD
:104F0000FF23B22200210320FFF754FBFF23B3222B
:104F100000210320FFF74EFBFF23B42200210320D2
:104F2000FFF748FB0023102201210320FFF742FB7B
:104F30000123182201210320FFF73CFB022320223A
:104F400001210320FFF736FB8323282201210320C0
:104F5000FFF730FB00233C2201210320FFF72AFB4F
:104F6000B0233D2201210320FFF724FB002300F0A2
:104F7000E4BC042840F0A380F9B11F200190002276
:104F80002D20009000231146032000F01FFEDFF8C3
:104F9000040A019005220020009003464C210320C2
:104FA00000F002FDDFF8F0090190052200200090DA
:104FB0000346A221032000F0F7FC012380220021F8
:104FC0000320FFF7F7FAFF23812200210320FFF7D8
:104FD000F1FAFF23822200210320FFF7EBFA7F235F
:104FE000832200210320FFF7E5FAFF23842200211A
:104FF0000320FFF7DFFA4123902200210320FFF76F
:10500000D9FAFF23912200210320FFF7D3FAFF23CF
:10501000922200210320FFF7CDFA7F239322002163
:105020000320FFF7C7FAFF23942200210320FFF794
:10503000C1FA8023102201210320FFF7BBFA81234C
:10504000182201210320FFF7B5FA022320220121B3
:105050000320FFF7AFFA0323282201210320FFF7E3
:10506000A9FA0023302201210320FFF7A3FA5823D5
:10507000312201210320FFF79DFA00233222012172
:105080000320FFF797FA7823332201210320FFF74B
:1050900091FA5823342201210320FFF78BFAB02321
:1050A000352201210320FFF785FA00233622012152
:1050B0000320FFF77FFA7823372200F045BC05284C
:1050C00040F0A280F9B11F20019000222D20009015
:1050D00000231146032000F079FDDFF8B8080190A5
:1050E00005220020009003464C21032000F05CFCC8
:1050F000DFF8A80801900522002000900346A221B5
:10510000032000F051FC0123802200210320FFF73F
:1051100051FAFF23812200210320FFF74BFAFF23DE
:10512000822200210320FFF745FA7F2383220021FA
:105130000320FFF73FFAFF23842200210320FFF71B
:1051400039FA8123A02200210320FFF733FAFF233D
:10515000A12200210320FFF72DFAFF23A222002124
:105160000320FFF727FAFF23A32200210320FFF7E4
:1051700021FAFF23A42200210320FFF71BFA80233A
:10518000102201210320FFF715FA01231822012123
:105190000320FFF70FFA8223202201210320FFF7CB
:1051A00009FA0323282201211846FFF703FA0023F6
:1051B000302201210320FFF7FDF95823312201217C
:1051C0000320FFF7F7F90023322201210320FFF724
:1051D000F1F97823332201210320FFF7EBF958235B
:1051E000382201210320FFF7E5F9B02339220121FC
:1051F0000320FFF7DFF900233A2201210320FFF704
:10520000D9F978233B229FE3062840F09B80F9B12F
:105210001F20019000222D20009000231146032022
:1052200000F0D4FCDFF86C0701900522002000900C
:1052300003464C21032000F0B7FBDFF86407019020
:105240000522002000900346A221032000F0ACFBC1
:105250000123802200210320FFF7ACF9FF238122E4
:1052600000210320FFF7A6F9FF238222002103205B
:10527000FFF7A0F97F23832200210320FFF79AF98B
:10528000FF23842200210320FFF794F9C123B022D9
:1052900000210320FFF78EF9FF23B1220021032014
:1052A000FFF788F9FF23B22200210320FFF782F9DC
:1052B000FF23B32200210320FFF77CF9FF23B42250
:1052C00000210320FFF776F980231022012103201B
:1052D000FFF770F90123182201210320FFF76AF973
:1052E0000223202201210320FFF764F983232822CF
:1052F00001210320FFF75EF9002330220121032062
:10530000FFF758F95823312201210320FFF752F902
:105310000023322201210320FFF74CF978233322A6
:1053200001210320FFF746F958233C2201210320E5
:10533000FFF740F9B0233D2201210320FFF73AF99E
:105340000023FAE2072840F0A280F9B11F20019063
:1053500000222D20009000231146032000F036FC8F
:10536000DFF83406019005220020009003464C210E
:10537000032000F019FBDFF824060190052200202D
:1053800000900346A221032000F00EFB412390224F
:1053900000210320FFF70EF9FF23912200210320B3
:1053A000FFF708F9FF23922200210320FFF702F9FB
:1053B0007F23932200210320FFF7FCF8FF23942290
:1053C00000210320FFF7F6F88123A022002103200B
:1053D000FFF7F0F8FF23A12200210320FFF7EAF8EE
:1053E000FF23A22200210320FFF7E4F87F23A3225A
:1053F00000210320FFF7DEF8FF23A4220021032071
:10540000FFF7D8F80023102201210320FFF7D2F87C
:105410008123182201210320FFF7CCF882232022C8
:1054200001210320FFF7C6F80323282201210320CE
:10543000FFF7C0F80023342201210320FFF7BAF858
:105440005823352201210320FFF7B4F80023362228
:1054500001210320FFF7AEF8782337220121032032
:10546000FFF7A8F85823382201210320FFF7A2F8FC
:10547000B023392201210320FFF79CF800233A22B0
:1054800001210320FFF796F878233B225CE20828ED
:1054900040F09B80F9B11F20019000222D20009048
:1054A00000231146032000F091FBDFF8EC0401908B
:1054B00005220020009003464C21032000F074FADE
:1054C000DFF8DC0401900522002000900346A221B1
:1054D000032000F069FA4123902200210320FFF706
:1054E00069F8FF23912200210320FFF763F8FF23CF
:1054F000922200210320FFF75DF87F2393220021F1
:105500000320FFF757F8FF23942200210320FFF721
:1055100051F8C123B02200210320FFF74BF8FF23ED
:10552000B12200210320FFF745F8FF23B22200211A
:105530000320FFF73FF8FF23B32200210320FFF7EA
:1055400039F8FF23B42200210320FFF733F80023AA
:10555000102201210320FFF72DF8812318220121B9
:105560000320FFF727F80223202201210320FFF761
:1055700021F88323282201210320FFF71BF80023B1
:10558000342201210320FFF715F858233522012189
:105590000320FFF70FF80023362201210320FFF735
:1055A00009F87823372201210320FFF703F8582355
:1055B0003C2201210320FEF7FDFFB0233D22012103
:1055C0000320FEF7F7FF0023B7E1092840F0998098
:1055D000E9B11F20019000222D20009000231146E8
:1055E000032000F0F3FAED4801900522002000901E
:1055F00003464C21032000F0D7F9E9480190052229
:10560000002000900346A221032000F0CDF9812361
:10561000A02200210320FEF7CDFFFF23A1220021BD
:105620000320FEF7C7FFFF23A22200210320FEF77D
:10563000C1FF7F23A32200210320FEF7BBFFFF232E
:10564000A42200210320FEF7B5FFC123B0220021D0
:105650000320FEF7AFFFFF23B12200210320FEF756
:10566000A9FFFF23B22200210320FEF7A3FFFF239F
:10567000B32200210320FEF79DFFFF23B422002167
:105680000320FEF797FF0023102201210320FEF7DD
:1056900091FF0123182201210320FEF78BFF8223B3
:1056A000202201210320FEF785FF832328220121E8
:1056B0000320FEF77FFF0023382201210320FEF79D
:1056C00079FF5823392201210320FEF773FF0023BD
:1056D0003A2201210320FEF76DFF78233B220121AE
:1056E0000320FEF767FF58233C2201210320FEF729
:1056F00061FFB0233D2201210320FEF75BFF002361
:105700001BE10A2840F02781002931D01F20019099
:1057100000222D20009000231146032000F056FAAD
:105720009C48019005220020009003464C21032054
:1057300000F03AF9984801900522002000900346B5
:10574000A221032000F030F9944801907D2200202E
:10575000009003464C21032000F026F99048019068
:105760007D22002000900346A221032000F01CF9B6
:105770000123802200210320FEF71CFF7F238122CA
:1057800000210320FEF716FFFF23822200210320C1
:10579000FEF710FF7F23832200210320FEF70AFF7C
:1057A000FF23842200210320FEF704FF41239022DF
:1057B00000210320FEF7FEFE7F239122002103201B
:1057C000FEF7F8FEFF23922200210320FEF7F2FEEF
:1057D0007F23932200210320FEF7ECFEFF23942277
:1057E00000210320FEF7E6FE8123A02200210320F2
:1057F000FEF7E0FE7F23A12200210320FEF7DAFE60
:10580000FF23A22200210320FEF7D4FE7F23A32240
:1058100000210320FEF7CEFEFF23A4220021032057
:10582000FEF7C8FEC123B02200210320FEF7C2FE0E
:105830007F23B12200210320FEF7BCFEFF23B2220A
:1058400000210320FEF7B6FE7F23B32200210320B0
:10585000FEF7B0FEFF23B42200210320FEF7AAFECC
:105860008023102201210320FEF7A4FE81231822A9
:1058700001210320FEF79EFE822320220121032026
:10588000FEF798FE8323282201210320FEF792FED3
:105890000023302201210320FEF78CFE5823312201
:1058A00001210320FEF786FE00233222012103207E
:1058B000FEF780FE3C23332201210320FEF77AFE0F
:1058C0005823342201210320FEF774FEB023352231
:1058D00001210320FEF76EFE002336220121032062
:1058E000FEF768FE3C23372201210320FEF762FE0B
:1058F0000023382201210320FEF75CFE58233922C1
:1059000001210320FEF756FE3C233A220121032009
:10591000FEF750FE78233B2201210320FEF74AFECA
:1059200058233C2201210320FEF744FEB0233D22F0
:1059300001210320FEF73EFE3C233E2201210320ED
:10594000FEF738FE78233F2203B05DF804EB012117
:105950000320FEF72FBE03B000BD10B582B0FF20BC
:10596000009000220F4C234600210320FEF7C3FEC7
:10597000FF20009004F58073002201210320FEF730
:10598000BAFEBDE81340FEF7FFBB00001827002059
:105990000000002044520020BC5500203459002053
:1059A000AC5C002024600020FFE72DE9FE4F8AB0A8
:1059B00080461798179003F00707179900784978E1
:1059C00001EB002080B2049003F0C00517981799EE
:1059D0008078C978DDF810C001EB002017990979AB
:1059E0001FFA80F916980A4619FB0CFC90FBF2F39B
:1059F0001CFB01F111FB03F102FB130010FB09106A
:105A000080B20690002206214046FEF75EFC00228E
:105A100008214046FEF759FC1798007900FB09F071
:105A200080B205900020019004980128C0F2CB803C
:105A300000200390B80080308DF8010007AF4EE0E1
:105A40001798305C28438DF81C004FEAA40A179879
:105A500030180AF00F0B41782943797007AA817832
:105A60002943B9700021C0782843F870ABF1800059
:105A700038714046FEF7B3FCBBF10F0F02D0201D7A
:105A800048451EDB9DF828005044A0EB0B02D2B223
:105A900005214046FEF719FC9DF8000040EA0B1076
:105AA00040F00A0209214046FEF70FFC4046FEF78F
:105AB0005BFF0006FAD49DF801200A214046FEF75C
:105AC00004FC201D84B2361D4C45B9DB01980599B4
:105AD000801C80B20190039800EB41000390019874
:105AE000049988426FDA03A80688059801998019FD
:105AF00080B209904910BDF82C0011FA80F0029094
:105B0000C2B207214046FEF7E0FB0024B9F1010FC5
:105B1000DCDB06983018401D86B202980012800027
:105B20008DF8000041E01798305C28438DF81C0088
:105B30004FEAA40A179830180AF00F0B417829434E
:105B4000797007AA81782943B9700021C078284369
:105B5000F870ABF1800038714046FEF740FCBBF1B5
:105B60000F0F02D0201D48451CDB9DF82800504433
:105B7000A0EB0B02D2B205214046FEF7A6FB9DF832
:105B8000000040EA0B1209214046FEF79EFB40460A
:105B9000FEF7EAFE0006FAD49DF801200A214046ED
:105BA000FEF793FB201D84B2361D4C45BBDB0698E7
:105BB00009990818401D86B202980012800000243E
:105BC0008DF8000080E70DB0BDE8F08F2DE9F843B7
:105BD0000E469146089C80461D46FF220021FEF796
:105BE00074FBFF2201214046FEF76FFBFF220221DA
:105BF0004046FEF76AFBFF2203214046FEF765FBA5
:105C0000E80000EB4505EAB207214046FEF75DFBE0
:105C1000099880B2410011FA85F101EBC000401EE5
:105C200087B2FAB208214046FEF74FFB2904080E5E
:105C3000390A01EB800040F00202D2B2092140464D
:105C4000FEF743FBA000C0B24FEA8907040900F049
:105C50000F0519D0FAB205210020FEF736FB20010E
:105C600050FA87F2D2B206210020FEF72EFBB000D8
:105C700000F1C002D2B20A210020FEF726FB404606
:105C8000FEF772FE0006FAD4EDB1200150FA87F259
:105C9000D2B205210020FEF718FB07EB04102818EC
:105CA000421ED2B206210020FEF70FFBB00000F129
:105CB000C002D2B20A210020FEF707FB4046FEF7E1
:105CC00053FE0006FAD4BDE8F1832DE9F0410E46FB
:105CD000174680461D46FF220021FEF7F6FAFF22F6
:105CE00001214046FEF7F1FAFF2202214046FEF76D
:105CF000ECFAFF2203214046FEF7E7FAF80000EB3A
:105D00004707FAB207214046FEF7DFFA069880B24D
:105D1000410011FA87F101EBC000401E84B2E2B2EB
:105D200008214046FEF7D1FA3F04380E210A01EB64
:105D3000800040F00202D2B209214046FEF7C5FAC7
:105D400068007600C0B2050900F00F0716D0F2B265
:105D500005210020FEF7B9FA280150FA86F2D2B2E6
:105D600006210020FEF7B1FAE0220A210020FEF70A
:105D7000ACFA4046FEF7F8FD0006FAD4D7B1280188
:105D800050FA86F2D2B205210020FEF79EFA06EB09
:105D900005103818421ED2B206210020FEF795FAEF
:105DA000E0220A210020FEF790FA4046FEF7DCFDD3
:105DB0000006FAD4BDE8F08138B50478012C1EDB6A
:105DC000451C15F8013B0B2202210320FEF7F2FBD4
:105DD00015F8013B0C2202210320FEF7EBFB15F81E
:105DE000013B0D2202210320FEF7E4FB15F8013BE5
:105DF0000E2202210320FEF7DDFB641EE1D131BD3E
:105E00000048D9E76C6400202DE9F84304460026D9
:105E1000DFF864050D4684421CBFDFF8600584424C
:105E20001FD0DFF85C0584421CBFDFF858058442B0
:105E300017D0DFF8540584421CBFDFF850058442B8
:105E40000FD0DFF84C0584421FBFDFF848058442BD
:105E5000DFF84405844204D0C1210FF2405000F025
:105E6000F2FA286820B90FF23450C22100F0EBFAA0
:105E70002879002818BF012808D0022818BF032855
:105E800004D0C3210FF2145000F0DDFAE87940B1DC
:105E9000012818BF022804D00FF20050C42100F0DE
:105EA000D2FA012000FA06F8286808EA0000404506
:105EB00046D177000320B8406FEA0009206809EA5C
:105EC0000000206020682979B940084320602879C3
:105ED000012818BF02282AD16879002818BF012894
:105EE00008D0022818BF032804D0D6210FF2AC40F6
:105EF00000F0A9FAA06809EA0000A060A06869792A
:105F0000B9400843A060A879002818BF012804D030
:105F1000DD210FF2884000F096FA606820EA080060
:105F200060606068A979B14089B208436060E06848
:105F300009EA0000E060E068E979B9400843E06000
:105F4000761C102EADD3BDE8F18370B50446002653
:105F5000DFF824040D4684421CBFDFF8200484428D
:105F600020D0DFF81C0484421CBFDFF818048442F0
:105F700018D0DFF8140484421CBFDFF810048442F8
:105F800010D0DFF80C0484421FBFDFF808048442FD
:105F9000DFF80404844205D04FF49B710FF2FC300B
:105FA00000F051FA012D18BF022D29D0042D18BF81
:105FB000082D25D0102D18BF202D21D0402D18BF21
:105FC000802D1DD0B5F5807F18BFB5F5007F17D0A7
:105FD000B5F5806F18BFB5F5006F11D0B5F5805FCE
:105FE00018BFB5F5005F0BD0B5F5804F18BFB5F5FC
:105FF000004F05D00FF2A43040F2371100F023FA21
:106000002069284218BF0126304670BD10B50446ED
:10601000DFF8640384421CBFDFF86003844220D0B1
:10602000DFF85C0384421CBFDFF85803844218D0B9
:10603000DFF8540384421CBFDFF85003844210D0C1
:10604000DFF84C0384421FBFDFF848038442DFF8C7
:106050004803844205D04FF4A6710FF2403000F09F
:10606000F2F9206980B210BD10B50446DFF80803CC
:1060700084421CBFDFF80403844220D0DFF8000311
:1060800084421CBFDFF8FC02844218D0DFF8F8021B
:1060900084421CBFDFF8F402844210D0DFF8F00223
:1060A00084421FBFDFF8EC028442DFF8EC02844236
:1060B00005D040F273110FF2E42000F0C4F96069DA
:1060C00080B210BD38B50446AB480D4684421CBFB3
:1060D000AA48844219D0AA4884421CBFA9488442D5
:1060E00013D0A94884421CBFA84884420DD0A848B8
:1060F00084421FBFA7488442A748844205D040F28B
:1061000085110FF2982000F09EF92DB90FF28C2026
:106110004FF4C37100F097F9258331BD38B50446BB
:1061200095480D4684421CBF9448844219D0944837
:1061300084421CBF9348844213D0934884421CBFBE
:10614000924884420DD0924884421FBF91488442B5
:106150009148844205D04FF4CC710FF2402000F0FA
:1061600072F92DB90FF2342040F2991100F06BF959
:10617000658331BD70B504467F480D46164684429E
:106180001CBF7E48844219D07D4884421CBF7D4894
:10619000844213D07C4884421CBF7C4884420DD08A
:1061A0007B4884421FBF7B4884427B48844205D0A1
:1061B0004FF4D6710FF2E41000F045F9012D18BF2D
:1061C000022D29D0042D18BF082D25D0102D18BF61
:1061D000202D21D0402D18BF802D1DD0B5F5807FFA
:1061E00018BFB5F5007F17D0B5F5806F18BFB5F5AE
:1061F000006F11D0B5F5805F18BFB5F5005F0BD00B
:10620000B5F5804F18BFB5F5004F05D00FF28C10D3
:1062100040F2AD1100F017F94EB1012E05D04FF448
:10622000D7710FF2781000F00EF9258370BD6583E9
:1062300070BD38B5044650480D4684421CBF4F48D7
:10624000844219D04E4884421CBF4E48844213D029
:106250004D4884421CBF4D4884420DD04C48844276
:106260001FBF4C4884424C48844205D040F2C311C1
:106270000FF2281000F0E7F8656131BD70B50646F1
:106280003D480D46144686421CBF3C48864219D004
:106290003B4886421CBF3B48864213D03A48864260
:1062A0001CBF3A4886420DD0394886421FBF394844
:1062B00086423948864205D040F21D210FF2DC00AB
:1062C00000F0C1F8002D18BF012D21D0022D18BFFC
:1062D000032D1DD0042D18BF052D19D0062D18BF74
:1062E000072D15D0082D18BF092D11D00A2D18BF64
:1062F0000B2D0DD00C2D18BF0D2D09D00E2D18BF54
:106300000F2D05D00FF2940040F21E2100F09BF8F3
:10631000002C18BF092C1ED0012C18BF022C1AD03B
:10632000032C18BF042C16D0052C18BF062C12D035
:10633000072C18BF082C0ED00A2C18BF0B2C0AD023
:106340000C2C1CBF0D2C0F2C05D040F21F210FF27E
:106350004C0000F078F8E80806EB800005F0070133
:106360008900026A0F238B409A43026204FA01F10A
:10637000026A1143016270BD000002400004024045
:1063800000080240000C02400010024000140240CD
:1063900000180240001C024000200240433A5C54B6
:1063A0006F6F6C735C574C39465C574C3946204DC7
:1063B0004F4E49544F52202D2053544D33325F419C
:1063C0005050202D2053545F557064617465202D0A
:1063D0002043414E20546573745C4C696272617253
:1063E0006965735C53544D3332463478785F537427
:1063F000645065726970685F4472697665725C7337
:1064000072635C73746D3332663478785F67706979
:106410006F2E630080B500F0E6FC002002BD00B5E1
:1064200085B04FF4E130009000A900200190ADF854
:106430000800ADF80C000C20ADF80A00002000F0B8
:1064400093FD05B000BDFEE72DE9F041DFF8805A6D
:10645000DFF8804A28682087002000F0ACFE00208A
:1064600000F0A9FE002000F0A6FE28682087002684
:10647000A04606F1080000F09EFE761C08F8010B0D
:10648000182EF6DB08222146DFF84C0A01F096F8B8
:10649000DFF8480A082204F1080101F08FF8082209
:1064A00004F11001DFF8380A01F088F8002604F141
:1064B000200806F1320000F07EFE761C08F8010B81
:1064C000152EF6DBDFF81C8A0026474606F164002D
:1064D00000F071FE761C07F8010B4F2EF6DBDFF89B
:1064E000086AC82000F067FE3070C92000F063FE23
:1064F0007070CA2000F05FFEB070CB2000F05BFE31
:10650000F070D22000F057FE3071D32000F053FE1F
:106510007071D42000F04FFEB071D52000F04BFE1A
:10652000F071DC2000F047FE3072DD2000F043FE09
:106530007072DE2000F03FFEB072DF2000F03BFE04
:10654000F072FF22DFF8A4794D21781C01F072F877
:1065500005224146384601F031F804223146781DC3
:1065600001F02CF80422311D07F1090001F026F892
:10657000042206F1080107F10D0001F01FF8286858
:106580002087208F2073000A6073BDE8F08110B56A
:10659000DFF83849207E002850D1607E30B90F20C6
:1065A00001F099F801F087FA607E29E0012806D110
:1065B0000F2001F090F801F0D7FA607E20E0022869
:1065C00021D10F2001F087F801F0DBFADFF8201964
:1065D000607E0978884213D1DFF81809016821F03C
:1065E0000201016000206076DFF8FC08007B0128D2
:1065F00004BFA07E012821D1E07E3D2817DB18E0F2
:10660000401C607610BD032818D10F2001F063F8FC
:1066100001F0CCFA00206076DFF8CC08007B01287E
:1066200004BFA07E012809D1E07E3D2801DA0120C7
:1066300003E0207F3D2801DA0220207610BD10B54E
:10664000DFF88848607E38B90F2001F044F801F087
:10665000C6FA607E401C16E0012818BF022813D13C
:106660000F2001F038F8607E01F0D2FA607E401C05
:106670006076C0B2032807DBDFF87808016821F0F4
:10668000080101600020607610BD38B5DFF8684869
:10669000207808B901F0CCFADFF860080078082803
:1066A00018DA06229121FF2001F005F9DFF85008E1
:1066B00001F00EF900202070DFF848080178012968
:1066C00035D100210170DFF82C08016821F48071B8
:1066D000016031BDDFF8F457687E40B90F2000F04B
:1066E000FAFF01F0EAFA687E401C687631BD0128A5
:1066F00018BF02281BD10F2000F0EDFF687E01F0CB
:10670000F6FA687E401C6876C0B203280FDBDFF81B
:10671000F4070178012907D100210170DFF8D407BF
:10672000016821F48071016000206876207031BD1D
:1067300010B5DFF89807017E01292AD1C17E3D29D5
:106740001BDADFF8C4476188491C618089B264297B
:106750000CDB207800281CBFBDE8104001F010B908
:1067600001F0DEF82078401C207010BDDFF884179F
:10677000097889073AD5002137E0DFF878170978DA
:10678000890748BF002130D4017F3D292EDA02213C
:106790002BE002292AD1017F3D291BDADFF8684767
:1067A000A188491CA18089B264290CDB607800288B
:1067B0001CBFBDE8104001F03FB901F01EF9607840
:1067C000401C607010BDDFF82C17097889070DD5C3
:1067D00000210AE0DFF81C170978890748BF00216B
:1067E00003D4C17E3D2901DA0121017610BD38B5FF
:1067F000DFF8E4462178082000F0B4FC012000F026
:106800006AFF6178092000F0ADFC012000F063FF11
:10681000A1780A2000F0A6FC012000F05CFFE178DE
:106820000B2000F09FFC012000F055FF21790C2087
:1068300000F098FC012000F04EFF61790D2000F07F
:1068400091FC012000F047FFA1790E2000F08AFCA6
:10685000012000F040FFE1790F2000F083FC0120CF
:1068600000F039FFDFF874462178102000F07AFC40
:10687000012000F030FF6178112000F073FC01204E
:1068800000F029FFA178122000F06CFC012000F03C
:1068900022FFE178132000F065FC012000F01BFFCF
:1068A0002179142000F05EFC012000F014FF6179D2
:1068B000152000F057FC012000F00DFFA1791620F3
:1068C00000F050FC012000F006FFE179172000F0F5
:1068D00049FC012000F0FFFEDFF804462178182073
:1068E00000F040FC012000F0F6FE6178192000F075
:1068F00039FC012000F0EFFEA1781A2000F032FCF4
:10690000012000F0E8FEE1781B2000F02BFC0120C4
:1069100000F0E1FE21791C2000F024FC012000F0B1
:10692000DAFE61791D2000F01DFC012000F0D3FE8D
:10693000A1791E2000F016FC012000F0CCFEE179C8
:106940001F2000F00FFC012000F0C5FE0024DFF83E
:10695000BC5515F8011B04F1320000F003FC0120C6
:1069600000F0B9FE641C152CF3DBDFF87855002429
:1069700015F8011B04F1640000F0F4FB012000F0A5
:10698000AAFE641C4F2CF3DBDFF85C45207B01285A
:1069900013D1DFF858550422691D204600F00EFE81
:1069A000042205F10901201D00F008FE042205F172
:1069B0000D0104F1080000F001FE2178C82000F06C
:1069C000D1FB012000F087FE6178C92000F0CAFBEE
:1069D000012000F080FEA178CA2000F0C3FB012056
:1069E00000F079FEE178CB2000F0BCFB012000F044
:1069F00072FE2179D22000F0B5FB012000F06BFE81
:106A00006179D32000F0AEFB012000F064FEA17993
:106A1000D42000F0A7FB012000F05DFEE179D52035
:106A200000F0A0FB012000F056FE217ADC2000F0EF
:106A300099FB012000F04FFE617ADD2000F092FB0F
:106A4000012000F048FEA17ADE2000F08BFB01203F
:106A500000F041FEE17ADF2000F084FBBDE8324027
:106A6000012000F038BE10B501F042FA30B9012023
:106A700001F039FADFF85404002152E0DFF89044C5
:106A8000207800285DD1FFF7B2FE0020607001F091
:106A90002FFA68B9002240F22771DFF8780401F07C
:106AA0008DFBDFF874040022022101F059FF32E06F
:106AB000642000F010FE6078401C6070C0B20F28A7
:106AC000E5DB02F018F80021952002F05BF80320C6
:106AD00000F001FE0021952002F054F8032000F0A0
:106AE000FAFD002240F22771DFF8280401F066FB6E
:106AF000DFF824040022022101F032FF4FF49660F7
:106B000000F0E9FD002002F056F9012002F049F9F9
:106B100001F0EEF938B9012001F0E5F9DFF8AC0336
:106B20000121C17710BD002002F036F9002002F0EB
:106B30002DF9002001F0BEF9BDE81040002001F061
:106B4000D2B910BD38B502F003FBDFF8A853DFF867
:106B50007C432868002859D0C1040BD520F480500C
:106B600028600622F721FF2000F0A5FEDFF8AC0325
:106B700000F0AEFE286881050BD520F40070286077
:106B80000622FD21FF2000F096FEDFF8940300F0BE
:106B90009FFE286841050BD520F4806028600622FE
:106BA000E421EF2000F087FEDFF8780300F090FE8C
:106BB0002868C1070BD540084000286006224521FF
:106BC000FF2000F078FEDFF8600300F081FE286807
:106BD00081060BD520F0200028600622A321FF208B
:106BE00000F069FEDFF8440300F072FE28688107B8
:106BF00002D5FFF7CCFC19E0010702D5FFF71FFD16
:106C000014E0C00502D5FFF740FD0FE0A07E01288B
:106C10000CD1E07E3D2804DA207E38B901202076B0
:106C200004E0207F3D28BCBF02202076A07E012802
:106C300004BFBDE83140FFF77BBD31BD7CB502F03C
:106C400043FA0622A021FF2000F035FEB84D284669
:106C500000F03EFE2878C021084219BF00F0C001B4
:106C6000402940F0C00028702878B24CC10604D5F5
:106C7000A18811B900F0CF0028709E4E30684106FF
:106C80000AD520F0400030600622FB21FF2000F0F2
:106C900012FEA94800F01CFE3068000513D506223C
:106CA0004721EF2000F007FEA44800F011FEA07875
:106CB000401CA070C0B2032805DB0020A070306823
:106CC00020F4006030602078401C2070C0B20228A0
:106CD0000EDB002020700622A221FF2000F0EBFD39
:106CE000974D284600F0F4FD287908B1002028715E
:106CF0003068764D01060DD520F080003060914857
:106D00000179407929716871D5E90001CDE9000167
:106D100000F0CCFB8C480088B0F57A7F1ADD8B48F8
:106D20000078012816D100F0EDFC012202217A48FA
:106D300001F016FE864800210170864801706078D7
:106D4000401C6070C0B20A2804DB61702879697940
:106D500001F045FFFFF787FEE07828B17E48007814
:106D600002F01FFC0020E070E97F95F82000012967
:106D700002D0012802D073BD0128FCD1FFF737FDF6
:106D800073BD80B5002001F0AEF8012001F092F84B
:106D900001F096F802F0A5FEFEF7DFFD02F0AAFE74
:106DA00002F0D8FE01F06EFE002000F043FA01F080
:106DB000ABFF02F089FA012001F0E8FF012001F0A9
:106DC000EBFF02F0A7F8022002F0C6FE042002F05A
:106DD000C3FE00F097FCFFF737FB02F0CDFB6148E4
:106DE0000021016001BD70B5FFF719FB03F039FB0D
:106DF00003F043FB5A4C594D344E03F071FBFFF73F
:106E0000C0FF10E02078401CC0B2062808BF002058
:106E100020700321207890FBF1F101EB4101401A31
:106E200008BF02F065F8308D012801BF00203085D1
:106E3000707F01280CD1B07F411CB177042807DB9B
:106E40000020B07703F0E5FB0021202001F09AFE3E
:106E5000708D012803D100207085FFF773FEB08D7F
:106E600001280AD10020B085FFF7E8FEF07F012855
:106E70001CBF96F820000128BFD0F08E0128D2D187
:106E80000020F086B07E012812D100F063FF308F21
:106E9000401C308780B23C280ADB0020308700F09D
:106EA0003DFFF07E3D28A1BF307F3D280020307699
:106EB000304600F02BFB307930747079707428788C
:106EC00001289FD000202070ADE70000A48F002093
:106ED0004C200140E48F0020488E0020508E00207E
:106EE000408E0020808D002058900020108F0020C0
:106EF000808F0020888F0020398E0020388E00205F
:106F0000288E00203E900020DE8F0020049000207C
:106F1000659000200044004000640040A08E0020E6
:106F2000908E0020608E0020688E0020788E0020D9
:106F3000708E002068900020808E0020988E0020A7
:106F4000208E0020888E0020606500203D9000206B
:106F500058650020576500209C9000203465002073
:106F60009A90002094900020F0B506460FF2BC00E5
:106F70000FF2BC0283B0354650F8250052F82520A8
:106F80000C460121104303F0BBFF1EB90121102064
:106F900003F0F9FF0FF2AC00DFF88C6030F8152039
:106FA0000FF2980030F8151006EB8507D2B278681A
:106FB000FFF764F90FF2900030F815200FF280000F
:106FC00030F81510B868D2B2FFF758F900208DF8E4
:106FD000060000A901208DF8070002208DF80400AA
:106FE0000FF2500030F81500009002208DF80500D7
:106FF0007868FEF709FF02208DF8040000A90FF25F
:10700000380030F815000090B868FEF7FDFE56F81D
:107010002500214600F074FF56F82500012101F0FB
:1070200036F803B0F0BD0000286500200100000024
:107030000100000000020000000400000900000040
:107040000A00000007000000070050F8041B61B1AF
:1070500050F8042BD30744BFA9F101039A18002369
:1070600042F8043B091FFAD1EFE7704700B5010071
:10707000DFF82C0283B001694FF400724FF6FF5322
:1070800008D019404161009201218DF804108DF85B
:10709000051005E019404161009200218DF80410AF
:1070A00000A9FEF7B1FE03B000BD70B50446082587
:1070B000DFF8EC61E4B2E0094FF40071304602D031
:1070C000FFF700F801E0FFF729F84FF48071304630
:1070D000FEF7F8FF64004FF480713046FFF71EF8AA
:1070E0006D1EE7D14FF400713046FFF717F84FF4EB
:1070F00080713046FEF7E6FF3046BDE870404FF441
:107100008071FFF70BB870B5DFF894514FF48071C0
:107110002846FFF703F84FF400712846FEF7D2FF28
:107120000020FFF7A3FF08264FF480712846FEF7E2
:10713000C9FF4FF400712846FEF707FF40EA4404F8
:10714000E4B24FF480712846FEF7E8FF761EEBD1DB
:107150004FF400712846FEF7E1FF0120FFF786FF9C
:10716000204670BD70B504460D464D4E4FF400717B
:107170003046FEF7A7FF0120FFF778FF4FF40071BC
:107180003046FEF79FFF4FF480713046FEF79AFFBE
:107190004FF400713046FEF7C1FF4FF48071304666
:1071A000FEF7BCFFA020FFF780FF2004000EFFF7D2
:1071B0007CFFE0B29EE038B50446394D4FF40071D3
:1071C0002846FEF77FFF0120FFF750FF4FF40071C4
:1071D0002846FEF777FF4FF480712846FEF772FFCE
:1071E0004FF400712846FEF799FF4FF4807128464E
:1071F000FEF794FFA020FFF758FF2004000EFFF7D2
:1072000054FFE0B2FFF751FF4FF400712846FEF73C
:1072100059FF4FF480712846FEF754FF4FF4007178
:107220002846FEF77BFF4FF480712846FEF776FF75
:10723000A120B2E038B50446194D4FF4007128463C
:10724000FEF740FF0120FFF711FF4FF400712846C1
:10725000FEF738FF4FF480712846FEF733FF4FF4F6
:1072600000712846FEF75AFF4FF480712846FEF75A
:1072700055FFD020FFF719FF0A20FFF716FF204621
:10728000FFF713FF4FF400712846FEF747FF4FF456
:1072900080712846FEF716FF2846BDE834403BE0E3
:1072A0000004024070B504460D46014E02E000BFE6
:1072B000000402404FF400713046FEF703FF012046
:1072C000FFF7D4FE4FF400713046FEF7FBFE4FF49B
:1072D00080713046FEF7F6FE4FF400713046FEF73F
:1072E0001DFF4FF480713046FEF718FFD020FFF7E6
:1072F000DCFE2046FFF7D9FE2846FFF7D6FE4FF406
:1073000000713046FEF70AFF4FF480713046FEF7F9
:10731000D9FE3046BDE870404FF40071FEF7D2BE92
:1073200038B50446004D01E0000402404FF40071FE
:107330002846FEF7C7FE0120FFF798FE4FF40071C4
:107340002846FEF7BFFE4FF480712846FEF7BAFECE
:107350004FF400712846FEF7E1FE4FF48071284695
:10736000FEF7DCFED020FFF7A0FE2046FFF79DFED3
:107370004FF400712846FEF7A5FE4FF480712846B1
:10738000FEF7A0FE4FF400712846FEF7C7FE4FF44B
:1073900080712846FEF7C2FED120FFF786FEFFF778
:1073A000B2FE04464FF400712846FEF78BFE4FF400
:1073B00080712846FEF786FE4FF480712846FEF75E
:1073C000ADFE4FF400712846FEF7A8FE4FF4807121
:1073D0002846FEF777FE4FF400712846FEF772FE4E
:1073E000204632BD64280CDA0A2190FBF1F10A0133
:1073F00050FA82F001EB8102A0EB4201C9B20820F1
:1074000050E7704701460D290DDA60B10A2091FB63
:10741000F0F0020151FA82F100EB8002A1EB42018F
:10742000C9B207203EE77047014620290DDA60B156
:107430000A2091FBF0F0020151FA82F100EB800288
:10744000A1EB4201C9B206202CE7704718280CDADC
:107450000A2190FBF1F10A0150FA82F001EB81025E
:10746000A0EB4201C9B204201CE770473C280CDAAB
:107470000A2190FBF1F10A0150FA82F001EB81023E
:10748000A0EB4201C9B203200CE770473C280CDA9C
:107490000A2190FBF1F10A0150FA82F001EB81021E
:1074A000A0EB4201C9B20220FCE6704703B581B0EF
:1074B00002210020FFF7F6FE9DF80400FFF792FF7F
:1074C0009DF80500FFF79EFF9DF80600FFF7ACFF53
:1074D0009DF80710082903DA11B10520FFF7E2FE35
:1074E0009DF80800FFF7B2FF9DF80900FFF7BEFF07
:1074F0009DF80A00FFF7CAFF00210020FFF7D2FE27
:1075000003B05DF804EB00210120CBE610B5044682
:1075100001210020FFF7C6FE0820FFF701FF010947
:1075200001EB810200F00F0000EB42002070072009
:10753000FFF7F6FEC0F3001101EB810200F00F002F
:1075400000EB420060700620FFF7EAFEC0F3011175
:1075500001EB810200F00F0000EB4200A07005205B
:10756000FFF7DEFE00F00700E0700420FFF7D8FE12
:10757000C0F3011101EB810200F00F0000EB4200AB
:1075800020710320FFF7CCFEC0F3021101EB810252
:1075900000F00F0000EB420060710220FFF7C0FE18
:1075A000C0F3021101EB810200F00F0000EB42007A
:1075B000A0710021BDE81040002073E662B38B0784
:1075C00008D0521E11F8013B00F8013B00F0248066
:1075D0008B07F6D1830740F0208000BF103A07D315
:1075E00030B4B1E83810103AA0E83810F9D230BC05
:1075F000530724BFB1E80810A0E8081044BF51F8B1
:10760000043B40F8043BD20724BF31F8022B20F89A
:10761000022B44BF0B7803707047083A07D3B1E8D8
:107620000810083A40F8043B40F804CBF7D253075F
:10763000E4E7000062F30F2262F31F42401810F0EB
:10764000030308D0C91A1FD3DB0748BF00F8012D78
:1076500028BF20F8022D130030B414461546103907
:1076600028BF20E93C00FAD8490728BF20E90C00D0
:1076700048BF40F8042D890028BF20F8022D48BFDC
:1076800000F8012D30BC7047C91818BF00F8012D53
:10769000CB0728BF00F8012D7047000003480168A0
:1076A00011B10168491E0160704700008C900020F4
:1076B00082B0002107E00099491C0091009905293A
:1076C000F9D30199491C01910199814238BF0021E8
:1076D000F3D302B0704782B00021019144F26821D7
:1076E00008E0009A521C0092009A8A42F9D3019A4B
:1076F000521C0192019A824238BF0022F3D302B099
:107700007047000030B5DFF8544789B0204600F0DC
:107710008DFEDFF84C57284600F088FE01A801F0E6
:107720001AF80020ADF80A000390ADF8060001A990
:107730000D208DF8080005208DF809000820ADF80F
:107740000400204600F095FE01A9284600F091FEB5
:107750000020ADF81A0001208DF81C0000200490D4
:107760000590ADF8180001208DF81D0004A800F068
:1077700065FF14208DF8000000208DF801008DF8C1
:10778000020001208DF8030000A803F0B9FC09B045
:1077900030BD30B5DFF8CC46DFF8CC56002060763F
:1077A000A862002106202870A18300206870FF22B3
:1077B000FF20A8702820287100206083DFF8AC0625
:1077C0000180DFF8AC06017005F12C006862082129
:1077D00004F1280003F03CFDFF22082104F13000F1
:1077E00003F036FDFF22082104F1200003F030FDF4
:1077F000FF22082104F1380003F02AFDFF220821AE
:1078000004F1400003F024FDFF22082104F14800A8
:1078100003F01EFDFF22082104F1500003F018FDC3
:10782000FF220821204603F013FD00202071FF22D3
:10783000082104F1580003F00BFDFF22082104F198
:10784000600003F005FDFF22082104F1680003F049
:10785000FFFCFF22082104F1700003F0F9FCFF2275
:10786000082104F1780003F0F3FCFF22082104F161
:10787000800003F0EDFCFF22102105F1340003F03D
:10788000E7FCFF22152105F1080003F0E1FCFF22CF
:107890000821DFF8E005FFF7CDFEDFF8DC45A52283
:1078A00002212046FFF7C6FEA01CBDE83040F022B2
:1078B0000221FFF7BFBE10B1DFF8AC35987011B1EF
:1078C000DFF8A405C17012B1DFF89C0502707047A3
:1078D00000B5DFF894150A784B781B0603EB82623B
:1078E0008B7802EB0342CB78097985B002EB032257
:1078F00051180191082204218DF8081000218DF8FB
:10790000091008218DF80A1001460DF10B0003F053
:10791000BCFC00A9DFF8440500F02DFF05B000BD58
:1079200080B50722FF21EC20FFF7C5FFDFF83805FF
:10793000416A20220A700723DFF83015426A09885D
:10794000491CA2F8011089B291FBF3F1D170416A90
:10795000CA7880F82020B1F8012092FBF3F3C3EB42
:10796000C303D21A06D0CA78521CCA70416AC978B9
:1079700080F82010FF22416A0A714FF60B7252E024
:107980001CB50722FF21EB20FFF795FFDFF8EC4441
:10799000DFF8EC1420788DF800000722C0EBC0005F
:1079A0004018C11F0DF1010003F06FFC00A8FFF7A4
:1079B0008FFF2078401CC0B204281CDBDFF8C40411
:1079C0000178491C01700021DFF8BC04018000200F
:1079D000DFF8941491F82810890703D5DFF8AC1468
:1079E000087008E0DFF8A81409783D2903DADFF809
:1079F0009C1402220A70207013BD80B50722FF215B
:107A0000EC20FFF758FFDFF86004416A20220A707B
:107A10001522416AA1F801200322CA70FF22416A9F
:107A20000A714FF6C872416AA1F805202C30002275
:107A3000CA71BDE802404BE71CB50722FF21EB20CD
:107A4000FFF739FFDFF84C44DFF84C1420788DF84D
:107A500000000722C0EBC0004018C11F0DF101005B
:107A600003F013FC00A8FFF733FFDFF8FC132078C6
:107A70004A6A401C2070C0B2D27882421AD2DFF823
:107A800010040278521C02700022DFF810042270E9
:107A9000028091F82800800703D5DFF8F003027018
:107AA00013BDDFF8E00300783D2803DADFF8DC03DC
:107AB0000121017013BD70B50722FF21EC20FFF7F3
:107AC000FAFEDFF8A403416A20220A700721426A05
:107AD000A2F80110DFF8C813047B4B782A2C1ABFD8
:107AE0000824A2F801405B1CDBB2032B0EDA012450
:107AF00000F20D052E782A2E1DBFB2F80160761C0B
:107B0000A2F801605B1CDBB2032B01DB002311E058
:107B10006E78641C2A2E1DBFB2F80160761CA2F894
:107B200001605B1CDBB2032BF0DA641CAD1CE4B219
:107B30000D2CDFDB4B70B2F801300F2BACBF0323F1
:107B40000223D370426AD3780B7080F82030FF2173
:107B500011714FF64572416AA1F805202C300022C0
:107B6000CA71BDE87040B3E600B583B00722FF21BB
:107B7000EB20FFF7A0FE01208DF800000722C94985
:107B80000BE000B583B00722FF21EB20FFF793FE47
:107B900002208DF800000722C3490DF1010003F017
:107BA00074FB00A8FFF794FE03B000BD00B583B0DE
:107BB0000722FF21EB20FFF77EFEAB48816A21F010
:107BC00002018162072203218DF800100721017054
:107BD000EB218170FF21C17000F11601DDE780B556
:107BE0000722FF21EC20FFF766FE9F48416A202212
:107BF0000A700A22416AA1F801200222CA70416A71
:107C0000CA7880F82020FF220A714FF6A1720AE795
:107C10001CB504460722FF21EB20FFF74CFEC4EB06
:107C2000C40091498DF80040401800F12D016CE02E
:107C300010B58C4C002020762A220D2104F108007A
:107C400003F006FB002004F1080100EBD07204EB06
:107C50006202801C92F8202002F00F0301F8013B21
:107C6000120901F8012B0C28EFDB217E002004F122
:107C7000080213780F2B19D030331370491C537836
:107C8000401CC0B20F2B11D030335370491C937875
:107C9000401CC0B20F2B09D03033401C9370491CDC
:107CA000C0B202F203020C28E3DB02E000192A2230
:107CB000027201202176607610BD80B50722FF2177
:107CC000EC20FFF7F8FD6848416A20220A70654AF7
:107CD000416A127EA1F801200222CA70416ACA7864
:107CE00080F82020FF220A714FF691729BE61CB5A6
:107CF00004460722FF21EB20FFF7DDFDC4EBC400A3
:107D000058498DF800404018411C07220DF1010030
:107D100003F0BBFA00A8FFF7DBFD13BD00B583B08D
:107D20000622FB21FF20FFF7C6FD4E48C17E012938
:107D30000ED0017F491C0177C9B20B2908DA3C201B
:107D40008DF80000FF208DF8010000A8FFF7C0FDAE
:107D500003B000BD4348C17E012900D07047F0B593
:107D6000524C2178002977D1404A514D128801E0C8
:107D7000491CC9B291426FDA4E194F1996F85060FA
:107D80007F78B74260D005F15001681CFFF716FC00
:107D90002878FF280CBF0020401C2870384E287817
:107DA000307018B1022819D009D32EE00422691CC2
:107DB000701CFFF703FCFF220C21701D22E004223F
:107DC000711C701DFFF7FAFB0422691C701CFFF781
:107DD000F5FBFF22082106F1090013E00422711DC2
:107DE00006F10900FFF7EAFB0422711C701DFFF782
:107DF000E5FB0422691C701CFFF7E0FBFF22042155
:107E000006F10D00FFF716FC16E0042206F1090149
:107E100006F10D00FFF7D2FB0422711D06F10900E7
:107E2000FFF7CCFB0422711C701DFFF7C7FB042277
:107E3000691C701CFFF7C2FB3078FB28A4BFFA2036
:107E4000307001202070F0BD2A2E91D1467F761C23
:107E50004677F6B2032E8BDBF0BD000000640040D5
:107E600000680040208E0020608F00205E650020AA
:107E700054650020A88E0020AC8F0020DE8F0020EB
:107E8000108F0020BF8F0020E08F0020BC8F0020CB
:107E9000C08F0020DF8F002004900020E28F0020A0
:107EA00042900020688F00206F8F00206490002097
:107EB000808D002002464FF480510F48FEF75AB9DA
:107EC00010B50D4C00224FF400412046FEF752F948
:107ED0006420FFF700FC2046BDE8104001224FF46B
:107EE0000041FEF747B9024602210448FEF742B9B5
:107EF00001210248FEF729B80008024000040240B0
:107F0000F0B50446DFF89472DFF8A86285B00D463C
:107F1000BC421CBFDFF88802844213D0DFF8840221
:107F200084421CBFDFF8800284420BD0DFF87C0261
:107F300084421CBFDFF87802844203D0F12130462E
:107F4000FEF781FA286818B1DFF86C12884203D373
:107F5000F2213046FEF777FAA888002818BFB0F55E
:107F6000805F03D0F3213046FEF76DFAE8880028E1
:107F700018BFB0F5805F09D0B0F5005F18BFB0F54D
:107F8000405F03D0F4213046FEF75DFA28890028CF
:107F90001CBFB0F5806FB0F5C06F03D0F52130463F
:107FA000FEF751FA68894FF6F371084200D118B90B
:107FB000F6213046FEF747FAA889F8B1B0F5807F80
:107FC0001CBFB0F5007FB0F5407F05D0F7213046EB
:107FD000FEF739FAA88988B1BC421CBFDFF8C0019E
:107FE00084420BD0DFF8BC0184421CBFDFF8C00123
:107FF000844203D0FC213046FEF725FA208A4CF655
:10800000FF710840E988084320824EF6F311A089E9
:108010000840A98808432989084369890843A08141
:108020004FF6FF41A08A0840A9890843A08200A812
:1080300002F01FFFBC421BBFDFF8740184420398AB
:108040000298296819225043A28912044CBF4900A2
:108050008900B0FBF1F16420B1FBF0F000010209EE
:10806000642303FB1211A289120406D5C900323120
:10807000B1FBF3F101F0070105E009013231B1FB79
:10808000F3F101F00F010843208105B0F0BD38B5D0
:108090000446DFF808010D4684421CBFDFF80001EA
:1080A000844215D0DFF8FC0084421CBFDFF8F800E2
:1080B00084420DD0DFF8F40084421CBFDFF8F000EA
:1080C000844205D040F2A1110FF2E420FEF7BBF983
:1080D0005DB1012D05D00FF2D8204FF4D171FEF71C
:1080E000B2F9A08940F4005003E0A0894DF6FF7179
:1080F0000840A08131BD38B50446DFF8A0000D4628
:1081000084421CBFDFF89800844215D0DFF8940049
:1081100084421CBFDFF8900084420DD0DFF88C0051
:1081200084421CBFDFF88800844205D040F223213E
:108130000FF27C20FEF787F9B5F5007F05DB0FF223
:1081400070204FF40971FEF77EF9E805C00DA0809C
:1081500031BD10B50446DFF8440084421CBFDFF88F
:108160004000844215D0DFF83C0084421CBFDFF899
:10817000380084420DD0DFF8340084421CBFDFF8A1
:108180003000844205D040F233210FF22420FEF764
:108190005AF9A088C005C00D10BD000000100140B4
:1081A0000044004000480040004C004000500040A7
:1081B00000140140B0830008E1707200F8B5054674
:1081C000DFF8D4710E461446BD421CBFDFF8CC0167
:1081D000854215D0DFF8C80185421CBFDFF8C40115
:1081E00085420DD0DFF8C00185421CBFDFF8BC011D
:1081F000854205D040F2C3410FF2B410FEF723F9D7
:10820000282E1CBF40F2277086421BD040F2266009
:1082100086421CBF40F22550864213D040F22440D3
:1082200086421CBF40F6460086420BD040F66A10DC
:10823000864218BF602E05D040F2C4410FF2701084
:10824000FEF701F9002C18BF012C05D00FF26010C9
:1082500040F2C541FEF7F7F840F66A10864210D1A9
:10826000BD421CBF4D4885420BD04D4885421CBFC6
:108270004E48854205D040F2CA410FF23410FEF755
:10828000E2F83006012106F01F02400F914001285C
:1082900008BF05F10C0005D002280CBF05F1100045
:1082A00005F114000268002C14BF114322EA0101F9
:1082B0000160F1BDF8B504460026374F0D46BC42BB
:1082C0001CBF3648844211D0354884421CBF354813
:1082D00084420BD0344884421CBF3448844205D0C9
:1082E00040F256510FF2C800FEF7ADF8282D1CBF22
:1082F00040F227718D4234D040F226618D421CBF7E
:1083000040F225518D422CD040F224418D421CBFB9
:1083100040F646018D4224D040F66A118D420FD0BE
:10832000B5F5587F1CBF40F225318D4219D0B5F507
:10833000187F18BFB5F5B07F13D040F257510CE04D
:10834000BC421CBF154884420BD0154884421CBF58
:108350001648844205D040F25C510FF25400FEF7FB
:1083600072F82806400F012105F01F0201FA02F2FF
:10837000012808BFA08903D002280CBF208AA08A48
:1083800010402A0A91402288114000281CBF002971
:1083900001263046F2BD00000010014000440040BC
:1083A00000480040004C00400050004000140140D4
:1083B000433A5C546F6F6C735C574C39465C574C56
:1083C0003946204D4F4E49544F52202D2053544D85
:1083D00033325F415050202D2053545F55706461FB
:1083E0007465202D2043414E20546573745C4C69A4
:1083F000627261726965735C53544D3332463478EE
:10840000785F5374645065726970685F447269760E
:1084100065725C7372635C73746D33326634787842
:108420005F75736172742E630000000080B5DFF821
:10843000C415884214D0DFF8C015884204D0AB219F
:10844000DFF8B805FDF7FFFF01214FF0806002F073
:10845000DEFD00214FF08060BDE8044002F0D7BD92
:1084600001214FF0007002F0D2FD00214FF00070AA
:10847000F2E7F8B504460026DFF87805DFF87C75EA
:108480000D4684421CBFDFF87005844203D0CB2127
:108490003846FDF7D8FFA879002818BF012803D077
:1084A000CC213846FDF7CFFFE879002818BF012816
:1084B00003D0CD213846FDF7C6FF287A002818BF23
:1084C000012803D0CE213846FDF7BDFF687A002889
:1084D00018BF012803D0CF213846FDF7B4FFA87A92
:1084E000002818BF012803D0D0213846FDF7ABFF84
:1084F000E87A002818BF012803D0D1213846FDF7BB
:10850000A2FFA878002818BF012807D0022818BFAA
:10851000032803D0D2213846FDF795FFE8780028DC
:1085200018BF012807D0022818BF032803D0D32181
:108530003846FDF788FF2879102803DBD421384618
:10854000FDF781FF6879082803DBD5213846FDF760
:108550007AFF288810B1B0F5806F03DDD621384648
:10856000FDF771FF206820F002002060206840F0D5
:10857000010020604FF6FF70014600E0491E62686E
:10858000D20701D40029F9D16168C90754D5A97966
:10859000012921680CBF41F0800121F08001216098
:1085A000E979012921680CBF41F0400121F0400127
:1085B0002160297A012921680CBF41F0200121F0B6
:1085C00020012160697A012921680CBF41F0100166
:1085D00021F010012160A97A012921680CBF41F026
:1085E000080121F008012160E97A012921680CBF06
:1085F00041F0040121F004012160EA78A978120613
:1086000042EA81712A7941EA02416A7941EA0251DA
:108610002A88521E1143E1612168490849002160FE
:1086200000E0401E6168C90701D50028F9D16068E3
:1086300000F0010080F001063046F2BD70B504463E
:10864000A07A1C2805DB40F253110FF2C030FDF771
:10865000FAFEE07A002818BF012805D04FF4AA716D
:108660000FF2A830FDF7EFFE207B002818BF01288D
:1086700005D040F255110FF29430FDF7E4FE208949
:10868000002818BF012805D04FF4AB710FF27C30E1
:10869000FDF7D9FE607B002818BF012805D040F205
:1086A00057110FF26830FDF7CEFEA17A0120884005
:1086B000DFF84C130A6842F001020A60C243CB693A
:1086C0001340CB61237B9BB9CB681340CB60E5881B
:1086D0006688DFF8303346EA0545A67A43F8365017
:1086E000A57A268803EBC503A58846EA05455D60A3
:1086F000237B012B13D1CB680343CB60258866888D
:10870000DFF8003346EA0545A67A43F83650A57AE5
:10871000E68803EBC503A58846EA05455D60E37A74
:10872000002B4B680CBF134003434B60238913B9E4
:108730004B691A4003E0012B02D14A6902434A61A6
:10874000627B012A02D1CA691043C86108684008E7
:108750004000086070BD00218171C17101724172D9
:108760008172C1728170C170032101710221417156
:1087700001210180704770B50546DFF878020C468C
:1087800085421CBFDFF88002854205D040F24621B9
:108790000FF27820FDF757FE207A002818BF042832
:1087A00005D040F247210FF26420FDF74CFE607ABD
:1087B000002818BF022805D04FF412710FF24C2088
:1087C000FDF741FEA07A092805DB40F249210FF2AE
:1087D0003C20FDF738FEA86840011BD5002605EBBC
:1087E0000615D5F8800100F00100C5F88001207A57
:1087F000E0B92068B0F5006F05D340F263210FF2B5
:108800000C20FDF720FED5F880012168627A42EA4B
:1088100041511DE0A868000148BF0126DFD4A868C7
:10882000C00048BF0226DAD404263EE06068B0F1FA
:10883000005F05D340F269210FF2D010FDF703FE6F
:10884000D5F880016168227A42EAC101627A114357
:108850000843C5F88001A07A00F00F00A07205F56A
:10886000C07041680909090141604168A27A114359
:108870004160627BA17B120442EA0161227B41EAF2
:108880000221E27A11438160627CA17C120442EAF7
:108890000161227C41EA0221E27B1143C160D5F8EB
:1088A000800140F00100C5F88001304670BDF8B588
:1088B0000446DFF840010D46164684421CBFDFF82F
:1088C0004801844205D040F2F2210FF24010FDF73A
:1088D000BAFD2F0018BF012D05D00FF2301040F265
:1088E000F321FDF7B0FD04EB0510D0F8B0113172A3
:1088F000317A4907D0F8B01159BF490D3160C90824
:108900007160D0F8B01101F00201717200F5D870F9
:10891000416801F00F01B1724168090AF174816880
:10892000F1728168090A31738168090C7173816879
:10893000090EB173C168F173C168090A3174C16865
:10894000090C7174C068000EB07425B9E06840F07D
:108950002000E060F1BD206940F020002061F1BD01
:1089600070B5044623480D46164684421CBFDFF806
:108970009800844205D04FF4A2610FF29000FDF7F9
:1089800062FD012D18BF022D24D0042D18BF082D23
:1089900020D0102D18BF202D1CD0402D18BFB5F5AC
:1089A000807F17D0B5F5007F18BFB5F5806F11D067
:1089B000B5F5006F18BFB5F5004F0BD0B5F5803F8A
:1089C00018BFB5F5003F05D00FF2400040F211513D
:1089D000FDF739FD56B1012E05D040F212510FF2CC
:1089E0002C00FDF730FD6069284301E06069A84371
:1089F000606170BD00640040006800400C8A00089F
:108A0000006600404066004000680040433A5C5405
:108A10006F6F6C735C574C39465C574C3946204D30
:108A20004F4E49544F52202D2053544D33325F4105
:108A30005050202D2053545F557064617465202D73
:108A40002043414E20546573745C4C6962726172BC
:108A50006965735C53544D3332463478785F537490
:108A6000645065726970685F4472697665725C73A0
:108A700072635C73746D3332663478785F63616EF1
:108A80002E63000010B584B042F210700290A8204E
:108A9000ADF804000020ADF80C00ADF8060001A907
:108AA000334C204602F0F8FB0121204602F0A4FCE2
:108AB00001220121204602F0FDFD1E208DF800005C
:108AC00000208DF801008DF8020001208DF80300D0
:108AD00000A802F015FB2748002101804180818019
:108AE000C18004B024484170017010BD4FF4006192
:108AF0002248FDF7E7BA4FF400612048FDF70EBBAE
:108B000030B51C4C21880546C1B01B48A94202D093
:108B10000121002208E0017821B1491C01700322E3
:108B2000002101E0012201214170027041780129F8
:108B30001CBF0178002913D10021417002208DF85B
:108B40000000422100A8417005F11001817003214D
:108B5000C1700B48007818B900A9042001F039F859
:108B6000681E8041C043C00F208041B030BD00006E
:108B7000000800406C9000201E9000200018024069
:108B8000384E002080B549B1C021084203D04106CB
:108B900001D4010604D500F1400201E000F16002B9
:108BA00002208DF800004B2100A841708270032143
:108BB000D2B2C170482A02BF6B480088012806D192
:108BC0006A48017841F010010170FFF794FF68488E
:108BD000007818B900A9042000F0FBFF01BD00B522
:108BE000C1B040F080008DF80100022200A88DF88D
:108BF000002081700321C1705D48007818B900A978
:108C0000042000F0E6FF41B000BD2DE9F041594CD1
:108C1000207860B9A062002260680121FDF7AAFAFD
:108C2000A06801220221FDF7A5FA01221AE001281D
:108C30000BD1606801220121FDF79CFAA068002297
:108C40000221FDF797FA01220CE002280ED160689C
:108C500001220121FDF78EFAA06801220221FDF711
:108C600089FA0022E0680421FDF784FA00250FF25A
:108C7000101604F110074FF0060836F8021B57F8DB
:108C8000040BFDF762F9401E8041C00F690051FAE4
:108C900080F5B8F10108F0D1A06A20B91DB12078A3
:108CA00005EB8010A0622078022824D1A06A08B9C0
:108CB00020631FE0E16A81421AD1216B491C2163C4
:108CC000032905D12C4A107001211078FFF75AFFB3
:108CD000206BB0F5967F0ED1274AA06A1070FA205B
:108CE00020631078202806DA0021FFF74BFF02E00E
:108CF00000212163E0622078401CC0B20328A8BF95
:108D000000202070BDE8F08110B584B040F6C4109A
:108D10000290A820ADF804000020ADF80C00ADF8DA
:108D2000060001A9154C204602F0B6FA01212046A2
:108D300002F062FB01220121204602F0BBFC32203E
:108D40008DF8000000208DF801008DF80200012050
:108D50008DF8030000A802F0D3F907480021017044
:108D600004B010BD000000006C900020708E002048
:108D7000384E0020BC6400209B900020000C004076
:108D800000040008001000200040008002464FF45C
:108D900000416A48FDF7EEB9024610216848FDF728
:108DA000E9B910B50446224680216548FDF7E2F98D
:108DB0006448047010BD0FF2A012624932F810200E
:108DC00048704A80104610B586B07021ADF800108A
:108DD00002900121ADF802100421ADF80410022127
:108DE000ADF80C100021ADF80E104FF48071ADF805
:108DF00010100021ADF8121000A9534C204602F0CB
:108E000051FB0121204602F0F7FA0121204602F031
:108E10002DFC06B010BD30B589B01020ADF814009F
:108E2000FA210020ADF81600474C48480068B0FB16
:108E3000F1F0401E80B2069005A90020ADF81C009C
:108E40008DF81E00204602F027FA7020ADF80000D1
:108E500041F27F350120ADF8020002950420ADF803
:108E6000040000A90220ADF80C000020ADF80E00AF
:108E70004FF48070ADF810000020ADF812002046CD
:108E800002F010FB0121204602F0B6FA0121204633
:108E900002F0ECFB4FF47A70FEF71DFC2948062126
:108EA0004170458009B030BD38B5294C244D0128AA
:108EB0000DD100224FF400712846FDF75BF90A201E
:108EC000FEF709FC01224FF4807120460CE00022DD
:108ED0004FF480712046FDF74DF90A20FEF7FBFBA9
:108EE00001224FF400712846BDE83840FDF742B931
:108EF00018480078FBF7D3BD80B516490870FF28E5
:108F000008BF002003D00121FBF7A8FE0120BDE827
:108F10000240C9E780B540F6B830FEF7DCFB002020
:108F2000FFF7C2FFFFF777FF002280210448FDF71B
:108F300021F904480021017001BD00000018024021
:108F400000080240909000200004014014650020B9
:108F50000000024099900020FE403E377E2DFE2604
:108F60007F20FF197F13FF0C00000000DFF88C0347
:108F7000407800F00300032803DA002818BF012816
:108F800000D000207047DFF87403417801F003013E
:108F90000329BEBFC0788009032807DA002908BF6B
:108FA000002803D0012908BF012800D00020704705
:108FB000DFF848034078C0F381010329BCBF800972
:108FC000032804DA00290CBF0028012800D0002063
:108FD0007047DFF828034078C0F381010329BCBF44
:108FE0008009032807DA002908BF002803D00128D8
:108FF00008BF012900D000207047C0F3810003287A
:1090000001DA012800D000207047BD480079C0F384
:109010000110F4E7B948017901F0030103290CDAE2
:1090200059B1012902D10172002104E0022906D1BF
:1090300000210172012141727047002101817047B6
:10904000AE480179C1F38101032908DA11B9012180
:10905000002206E0012902D10021012201E00021C5
:1090600000228172C2727047A648807800F0070023
:10907000072804DA18B1042801DA0120704700201B
:109080007047A0488078C0F3C200072804DA18B1FE
:10909000042801DA012070470020704797480179C1
:1090A000C1F3011103290CDA59B1012902D101736D
:1090B000002104E0022906D100210173012141733E
:1090C0007047002181817047F8B58C48807B4FF450
:1090D000800420B18C4D286840F4E00028601726F9
:1090E0008A4F894D2868204214BF012200224FF484
:1090F00000413846FDF73EF801224FF480413846E2
:10910000FDF738F80120FEF7E6FA00224FF480411F
:109110003846FDF72FF86408761EE3D101224FF49C
:1091200000513846FDF726F80120FEF7D4FA002258
:109130004FF400513846FDF71DF80120FEF7CBFA39
:109140003846BDE8F84001224FF40051FDF712B84F
:1091500038B56A4C04F13C0004F16401032250F874
:10916000043C036051F8043C0B6050F8083C40F8A4
:10917000043C51F8083C41F8043C50F80C3C40F8E1
:10918000083C0C3851F80C3C41F8083C0C39521E94
:10919000E5D10020A061FFF70BFF401E8041C043D6
:1091A000C00FA061FFF715FF00B10220A1694518AB
:1091B000A561FFF7DBFE00B104204519A561FFF7AB
:1091C000E2FE00B108204519A561FFF767FF207B8B
:1091D00000B110204019617BA06101B120210D1860
:1091E000A561FFF72DFFE07A00B140204019A17A78
:1091F000A06101B180210D18A561FFF70BFF207A56
:1092000008B14FF480704019617AA06109B14FF440
:1092100000710818E178A061C1F38101032904DA23
:10922000012908BF4FF4805100D00021081861794E
:10923000A06101F00301032903DA11B14FF40051D9
:1092400000E000210D18A561FFF7DFFE08B14FF423
:1092500080404019217CA061C1F38101032904DA17
:10926000012908BF4FF4802100D000210D18A5610D
:10927000FFF7FAFE08B14FF480304519A561FFF7FA
:1092800000FF08B14FF4003040196178A0618909EE
:10929000032901DA012900D00021A26BE36B2164CC
:1092A000934204BFE3699A4203D1834204BF164A42
:1092B0001060206E626E824204BF626C904202D1E6
:1092C0008A4208BFA17331BD10B5104C01224FF482
:1092D00080512046FCF74EFF0A20FEF7FCF90022E1
:1092E0004FF480512046FCF745FF07486FF07F415F
:1092F0000160BDE81040E7E600000000A88E0020F5
:10930000749000207C900020949000200004024083
:1093100038B5044600F0D9F8DFF8205400221021B7
:109320002846FCF727FFD82000F0A5F82002000E01
:1093300000F0A1F82004000E00F09DF8E0B200F06B
:109340009AF8012210212846FCF714FFBDE83140AD
:10935000CCE02DE9F84304460F46164600F0B5F878
:10936000DFF8D893002210214846FCF703FF0220C3
:1093700000F081F83802000E00F07DF83804000E8D
:1093800000F079F8F8B200F076F82EB3012794F8DF
:1093900000800025761E002220214846FCF7EAFEC8
:1093A000C5F1070007FA00F04146014214BF01224F
:1093B000002280214846FCF7DDFE0122202148469C
:1093C000FCF7D8FE40214846FCF7BFFD6D1C082D78
:1093D000E1DB641C002EDAD1012210214846FCF7A3
:1093E000C9FEBDE8F14381E02DE9F84380460F4610
:1093F0001646DFF84893002210214846FCF7BAFED3
:10940000032000F038F83802000E00F034F8380479
:10941000000E00F030F8F8B200F02DF83EB301274E
:1094200000240025761E002220214846FCF7A2FEDB
:10943000C5F1070007FA00F010F0A50014BF0122E3
:10944000002280214846FCF795FE01222021484653
:10945000FCF790FE40214846FCF777FD6D1C40EA82
:109460004404082DDFDB08F8014B002ED8D1484614
:10947000BDE8F84336E02DE9F0410446002500261A
:109480000127DFF8B882002220214046FCF772FE57
:10949000C6F1070007FA00F0044214BF01220022BF
:1094A00080214046FCF766FE012220214046FCF761
:1094B00061FE40214046FCF748FD761C40EA450528
:1094C000082EE0DBE8B2BDE8F08110B59B4C00222D
:1094D00010212046FCF74EFE0620FFF7CCFF204669
:1094E000BDE8104001221021FCF744BEF8B5934CB2
:1094F000002210212046FCF73DFE0520FFF7BBFFB0
:10950000012500260027002220212046FCF732FEFC
:10951000C7F1070005FA00F010F0A50014BF012202
:10952000002280212046FCF725FE01222021204632
:10953000FCF720FE40212046FCF707FD7F1C40EA97
:109540004606082FDFDBF007DBD42046BDE8F840F5
:10955000C8E710B4002261B10FF2102310F8014BDC
:109560005440E4B233F8144084EA222292B2491EF5
:10957000F4D110BC1046704710B5012210216F487D
:10958000FCF7F8FD6E4C01224FF400612046FCF719
:10959000F1FD2046BDE8104001224FF48061FCF748
:1095A000E9BD10B5012804D038D303280ED017D355
:1095B00010BD644C207A30B94FF48030FFF7A8FE1C
:1095C0000120207227E0BDE810403FE05D4C207A8A
:1095D00018B90120207203201DE0BDE8104079E099
:1095E0004FF47C10FFF794FE5748564CB0F801102A
:1095F0002171080A607106224FF47C112046FFF7A2
:10960000A8FE06224FF47C1104F10C00FFF7ECFEDB
:10961000002020720220BDE8104011E010BD80B58E
:1096200002218DF8001000AA4749B1F80130B1F8C5
:1096300001105370090A91708DF8030000A990E0A1
:1096400080B502218DF800104F2184E038B53E4CE2
:109650004FF48061E01CFFF77CFFB4F803148842EC
:1096600033D10620FFF7DBFFB4F80100800200F5DC
:1096700080354FF480722946E01CFFF76AFE4FF4F4
:10968000807205F5807104F20310FFF762FE4FF45B
:10969000807205F5007104F20320FFF75AFE4FF4C3
:1096A000807205F5407104F20330FFF752FE254C3D
:1096B0004FF48062294604F11400FFF795FE207AEA
:1096C000022806D10020207231BD1520BDE83240AD
:1096D000A5E731BD70B51C4C4FF48061E01CFFF76D
:1096E00038FF184DB4F803146881884221D1B4F8CA
:1096F0000100800200F58036FF224FF4806105F101
:10970000140001F0A5FD4FF48062314605F114000C
:10971000FFF76AFE4FF48062E11C05F1140002F0CD
:10972000CDF830B9287A022804BF0020287206201C
:1097300000E01520BDE8704071E700000000024025
:1097400000080240304E00207087002080B50221C2
:109750008DF80010F5218DF8011000A98870032004
:10976000C870042000F035FA01BD00000000C1C03F
:1097700081C1400101C3C003800241C201C6C006CD
:10978000800741C70005C1C581C4400401CCC00C9D
:10979000800D41CD000FC1CF81CE400E000AC1CA5D
:1097A00081CB400B01C9C009800841C801D8C0184D
:1097B000801941D9001BC1DB81DA401A001EC1DECD
:1097C00081DF401F01DDC01D801C41DC0014C1D4BD
:1097D00081D5401501D7C017801641D601D2C012DD
:1097E000801341D30011C1D181D0401001F0C030AD
:1097F000803141F10033C1F381F240320036C1F6CD
:1098000081F7403701F5C035803441F4003CC1FC9C
:1098100081FD403D01FFC03F803E41FE01FAC03A5C
:10982000803B41FB0039C1F981F840380028C1E88C
:1098300081E9402901EBC02B802A41EA01EEC02ECC
:10984000802F41EF002DC1ED81EC402C01E4C024BC
:10985000802541E50027C1E781E640260022C1E2DC
:1098600081E3402301E1C021802041E001A0C060EC
:10987000806141A10063C1A381A240620066C1A6CC
:1098800081A7406701A5C065806441A4006CC1AC9C
:1098900081AD406D01AFC06F806E41AE01AAC06A5C
:1098A000806B41AB0069C1A981A840680078C1B84C
:1098B00081B9407901BBC07B807A41BA01BEC07ECC
:1098C000807F41BF007DC1BD81BC407C01B4C074BC
:1098D000807541B50077C1B781B640760072C1B2DC
:1098E00081B3407301B1C071807041B00050C1902C
:1098F000819140510193C053805241920196C056CC
:10990000805741970055C19581944054019CC05C9B
:10991000805D419D005FC19F819E405E005AC19A5B
:10992000819B405B0199C059805841980188C0488B
:1099300080494189004BC18B818A404A004EC18ECB
:10994000818F404F018DC04D804C418C0044C184BB
:10995000818540450187C047804641860182C042DB
:10996000804341830041C1818180404000B50100B6
:10997000DFF8780183B001694FF400624FF2FF73A2
:1099800008D019404161009201218DF804108DF832
:10999000051005E019404161009200218DF8041086
:1099A00000A9FCF731FA03B000BD70B504460120F0
:1099B000FDF77EFE0825DFF83461E4B2E0094FF4DC
:1099C0000061304602D0FCF77DFB01E0FCF7A6FB0E
:1099D0000120FDF76DFE4FF480613046FCF772FB0D
:1099E0000120FDF765FE64004FF480613046FCF70E
:1099F00095FB0120FDF75CFE6D1EDED14FF400618A
:109A00003046FCF78BFB0120FDF752FE4FF48061DE
:109A10003046FCF757FB0120FDF74AFE3046BDE813
:109A200070404FF48061FCF779BB70B504460D4679
:109A3000DFF8B8604FF400613046FCF743FB0120CB
:109A4000FFF794FF4FF400613046FCF73BFB4FF407
:109A500080613046FCF736FB0120FDF729FE4FF40C
:109A600000613046FCF75AFB0120FDF721FE4FF460
:109A700080613046FCF752FB8A20FFF796FFE0B288
:109A8000FFF793FF2846FFF790FF4FF40061304641
:109A9000FCF744FB0120FDF70BFE4FF480613046DC
:109AA000FCF710FB0120FDF703FE3046BDE87040D7
:109AB0004FF40061FCF706BB10B5841C02E0FFF711
:109AC000B4FFA41C20786178FF2808BFFF29F6D1D5
:109AD0000021FFF7AAFFBDE810404FF4FA70FDF730
