:020000040800F2
:104000004899002035BF000809A400080BA4000847
:104010000DA400080FA4000811A40008000000006F
:1040200000000000000000000000000013A40008D1
:1040300015A400080000000017A4000819A4000837
:1040400075BF000879BF00087DBF000881BF000868
:1040500085BF000889BF00088DBF000891BF000818
:1040600095BF000899BF00089DBF0008A1BF0008C8
:10407000A5BF0008A9BF0008ADBF0008B1BF000878
:10408000B5BF0008B9BF0008BDBF0008C1BF000828
:1040900083A40008C9BF0008CDBF0008D1BF000835
:1040A000D5BF0008D9BF0008DDBF0008E1BF000888
:1040B000E5BF0008E9BF0008EFA60008F1BF00084F
:1040C000F5BF0008F9BF0008FDBF000801C00008E7
:1040D00005C0000809C0000859A7000811C0000861
:1040E00015C0000819C000081DC0000821C0000844
:1040F00025C0000829C000082DC0000831C00008F4
:1041000035C0000839C0000845A7000841C00008B4
:10411000A5AA000849C000084DC0000851C0000809
:1041200055C0000859C000085DC0000861C0000803
:1041300065C0000869C000086DC0000871C00008B3
:1041400075C0000879C000087DC0000881C0000863
:1041500085C0000889C000088DC0000891C0000813
:1041600095C0000899C000089DC00008A1C00008C3
:10417000A5C00008A9C00008ADC00008B1C0000873
:10418000B5C00008B9C000081CB501F077FE0F23C8
:104190000F220221032000F00DFA1F2001900023BE
:1041A0002D2000901A461146032001F04DFD1F20DE
:1041B000019000232D2000901A460121032001F0D8
:1041C00043FD1F20019000232D2000901A4602215C
:1041D000032001F039FD1F20019000232D200090C5
:1041E00003211A46084601F02FFD1F2000900022EF
:1041F0002D231146032001F0A6FDF02310220221F9
:10420000032000F0D7F9502000901022DFF8BC4ABC
:1042100004F108030221032000F06DFA20798009DF
:1042200028D12020009004F15803602202210320AD
:1042300000F061FA2020009004F17803802202212E
:10424000032000F058FA2020009004F17803A02207
:104250000221032000F04FFA2020009004F178039F
:10426000C0220221032000F046FA2020009004F131
:10427000780324E02020009004F1980360220221BA
:10428000032000F038FA20200090B8342346802222
:104290000221032000F02FFA202000902346A022C4
:1042A0000221032000F027FA202000902346C0229C
:1042B0000221032000F01FFA202000902346E02274
:1042C0000221032000F017FA13BD2DE9F041DFF8B9
:1042D000FC49DFF8FC89A0700E46207940F004000C
:1042E000207115464FF48051404601F055FFDFF82C
:1042F000E4794FF48041384601F022FF4FF4005139
:10430000384601F01DFF4FF40051404601F044FFD4
:104310004FF48061384601F03FFF4FF4805138463A
:1043200001F00EFF002000F0A0FB384601F0DAFE9D
:1043300000F47F4046EA0001384601F0B8FF4FF430
:104340008051404601F0FCFE4FF48051404601F0A0
:1043500023FF002000F089FB384601F0C3FE00F483
:104360007F4045EA0001384601F0A1FF4FF40051BB
:10437000384601F011FF4FF40051384601F0E0FEDD
:104380004FF48051404601F007FF4FF4804138461A
:1043900001F0D6FE4FF40051384601F0D1FE4FF443
:1043A0000051404601F0F8FE4FF48061384601F0BC
:1043B000C7FE4FF48051384601F0C2FE002000F0E5
:1043C00054FB384601F08EFE40F0FF01384601F004
:1043D0006EFF207900F0FB002071BDE8F0812DE92F
:1043E000F041DFF8E858DFF8E868A8700F46287950
:1043F00040F00400287114464FF48051304601F01B
:10440000CBFEDFF8D0884FF48041404601F098FEA3
:104410004FF40051404601F093FE4FF400513046F6
:1044200001F0BAFE4FF48061404601F0B5FE4FF452
:104430008051404601F084FE002000F016FB40460B
:1044400001F050FE00F47F4047EA0001404601F0D1
:104450002EFF4FF48051304601F072FE4FF4805130
:10446000304601F099FE2778002000F0FEFA404621
:1044700001F038FE00F47F4047EA0001404601F0B9
:1044800016FF4FF40051404601F086FE4FF40051F4
:10449000404601F055FE6778002000F0E6FA4046FD
:1044A00001F020FE00F47F4047EA0001404601F0A1
:1044B000FEFE4FF40051404601F06EFE4FF40051F5
:1044C000404601F03DFEA778002000F0CEFA4046BD
:1044D00001F008FE00F47F4047EA0001404601F089
:1044E000E6FE4FF40051404601F056FE4FF40051F5
:1044F000404601F025FEE778002000F0B6FA40467D
:1045000001F0F0FD00F47F4047EA0001404601F071
:10451000CEFE4FF40051404601F03EFE4FF40051F4
:10452000404601F00DFE2479002000F09EFA40463E
:1045300001F0D8FD00F47F4044EA0001404601F05C
:10454000B6FE4FF40051404601F026FE4FF40051F4
:10455000404601F0F5FD4FF48051304601F01CFE5D
:104560004FF48041404601F0EBFD4FF400514046CE
:1045700001F0E6FD4FF40051304601F00DFE4FF41E
:104580008061404601F0DCFD4FF48051404601F06F
:10459000D7FD002000F069FA404601F0A3FD40F08D
:1045A000FF01404601F083FE287900F0FB002871EE
:1045B000BDE8F0812DE9F843DFF81047DFF81087F8
:1045C000A0700F46207940F00400207191461E46ED
:1045D0004FF48051404601F0DFFDDFF8F8564FF40C
:1045E0008041284601F0ACFD4FF40051284601F00F
:1045F000A7FD4FF40051404601F0CEFD2FB94FF416
:104600008051284601F0C8FD13E0012F0AD14FF474
:104610008051284601F0C0FD4FF48061284601F02A
:104620008FFD0BE0022F09D14FF48051284601F095
:1046300087FD4FF48061284601F0AEFD002000F0B8
:1046400014FA284601F04EFD00F47F4049EA0001CB
:10465000284601F02CFE4FF48051404601F070FDD9
:104660004FF48051404601F097FD002000F0FDF925
:10467000284601F037FD00F47F4046EA0001284655
:1046800001F015FE4FF40051284601F085FD4FF46E
:104690000051284601F054FD4FF48051404601F08E
:1046A0007BFD4FF48041284601F04AFD4FF4005154
:1046B000284601F045FD4FF40051404601F06CFDE5
:1046C0004FF48061284601F03BFD4FF480512846AD
:1046D00001F036FD002000F0C8F9284601F002FD87
:1046E00040F0FF01284601F0E2FD207900F0FB00D8
:1046F0002071BDE8F1832DE9F843DFF8D055DFF8EC
:10470000D085A8700F46287940F00400287114461F
:104710001E464FF48051404601F03EFDDFF8B4954F
:104720004FF48041484601F00BFD4FF400514846DC
:1047300001F006FD4FF40051404601F02DFD2FB968
:104740004FF48051484601F027FD13E0012F0AD1B4
:104750004FF48051484601F01FFD4FF480614846F8
:1047600001F0EEFC0BE0022F09D14FF480514846D6
:1047700001F0E6FC4FF48061484601F00DFD002099
:1047800000F073F9484601F0ADFC00F47F4044EAC4
:104790000001484601F08BFD4FF48051404601F086
:1047A000CFFC4FF48051404601F0F6FC089CA4B2C7
:1047B000D4B116F8017B002000F057F9484601F00B
:1047C00091FC00F47F4047EA0001484601F06FFD8C
:1047D0004FF40051484601F0DFFC4FF400514846C9
:1047E00001F0AEFC641EE4D14FF48051404601F06C
:1047F000D3FC4FF48041484601F0A2FC4FF4005135
:10480000484601F09DFC4FF40051404601F0C4FCC5
:104810004FF48061484601F093FC4FF480514846C4
:1048200001F08EFC002000F020F9484601F05AFC0F
:1048300040F0FF01484601F03AFDFFE7287900F01B
:10484000FB002871BDE8F1832DE9F041DFF87C44DD
:10485000DFF87C74A0700E46207940F004002071CF
:1048600015464FF48051384601F096FCDFF8648419
:104870004FF48041404601F063FC4FF40051404644
:1048800001F05EFC4FF40051384601F085FC2EB972
:104890004FF48051404601F07FFC13E0012E0AD115
:1048A0004FF48051404601F077FC4FF48061404660
:1048B00001F046FC0BE0022E09D14FF48051404636
:1048C00001F03EFC4FF48061404601F065FC0020A1
:1048D00000F0CBF8404601F005FC00F47F4045EACB
:1048E0000001404601F0E3FC4FF48051384601F0EE
:1048F00027FC4FF48051384601F04EFC4FF48041C4
:10490000404601F049FC012000F0AFF8404601F0BC
:10491000BBFB05464FF48041404601F011FC4FF4CB
:104920008051384601F038FC4FF48041404601F098
:1049300007FC4FF40051404601F002FC4FF40051D7
:10494000384601F029FC4FF48061404601F0F8FB45
:104950004FF48051404601F0F3FB207900F0FB005A
:104960002071E8B2BDE8F081F8B5DFF86043DFF808
:104970006053A0704FF48051207940F00400207102
:10498000284601F009FCDFF84C634FF480413046C3
:1049900001F0D6FB4FF40051304601F0D1FB4FF44B
:1049A0000051284601F0F8FB4FF48061304601F0D9
:1049B000F3FB4FF48051304601F0C2FB002000F0C1
:1049C00054F8304601F08EFB00F47F4040F00A01BD
:1049D000304601F06CFC4FF48051284601F0B0FBEA
:1049E0004FF48051284601F0D7FB002000F03DF83D
:1049F000304601F077FB40F0FF01304601F057FCF4
:104A00004FF48041304601F0C7FB012000F02DF843
:104A1000304601F039FB07464FF48041304601F043
:104A20008FFB4FF48051284601F0B6FB4FF48041D4
:104A3000304601F085FB4FF40051304601F080FB19
:104A40004FF40051284601F0A7FB4FF48061304637
:104A500001F076FB4FF48051304601F071FB207974
:104A600000F0FB002071F8B2F2BD00B583B018B9B8
:104A7000FF200090012004E0012811D1FF200090C8
:104A800000208DF8040000A902208DF80500002008
:104A90008DF8060001208DF807008E4801F0F2F92C
:104AA00003B000BD1CB50020009000238A4C019487
:104AB00064224121032000F0B5FF0020009003464E
:104AC000019464221421032000F0ACFF0020009028
:104AD0000346019464226E21032000F0A3FF00200E
:104AE0000090034601942D221421032000F09AFF28
:104AF00000200090034601942D226E21032000F037
:104B000091FF0020009003460194A5221421032068
:104B100000F088FF0020009003460194A5226E213A
:104B2000032000F07FFF13BD2DE9FC410746002262
:104B300000210320FFF788FE0646102200210320F3
:104B4000FFF782FE0446202200210320FFF77CFEAF
:104B50000546302200210320FFF776FE8046FFF74E
:104B6000A1FF57B9802E16D1DFF8A00E01900023C7
:104B70000020009064224121A3E0012F02D1802C6B
:104B800009D1F1E7022F01D1802DF9E7032F0AD1D6
:104B9000B8F1800FE8D05048019000230020009029
:104BA000642241218DE0042F17D1802E14BF4A4882
:104BB000DFF8580E01900023002000906422142199
:104BC000032000F02FFF802C2BD1DFF8400E019046
:104BD000002300200090642272E0052F0FD1802E68
:104BE0002AD1DFF8280E01900023002000906422D3
:104BF0001421032000F016FF802D12D1E5E7062FC7
:104C000016D1802E23D1DFF8040E0190002300205E
:104C1000009064221421032000F004FFB8F1800FFB
:104C2000D3D02D480190002300200090642247E05B
:104C3000072F03D1802CD4D02748D4E7082F02D1E6
:104C4000802C04D1DFE7092F03D1802DDBD022484F
:104C5000DBE70A2F38D1802E14BF1F48DFF8AC0DD8
:104C600001900023002000902D221421032000F049
:104C7000D9FE802C14BF1848DFF8900D0190002356
:104C8000002000902D226E21032000F0CBFE802D0D
:104C900014BF1148DFF8740D01900023002000902C
:104CA000A5221421032000F0BDFEB8F1800F14BF2F
:104CB0000948DFF8580D0190002300200090A5223C
:104CC0006E21032000F0AEFEBDE8F3819463002066
:104CD000000C0240001802400000002000B583B024
:104CE000002861D1A1B11F20019000222D20009049
:104CF00000231146032000F0A7FFDFF8140D0190F8
:104D00000522002000900346A221032000F08AFE25
:104D10000123802200210320FFF74CFCFF23812286
:104D200000210320FFF746FCFF23822200210320FD
:104D3000FFF740FCFF23832200210320FFF73AFC0A
:104D4000FF23842200210320FFF734FC802310225C
:104D500001210320FFF72EFC01231822012103204B
:104D6000FFF728FC0223202201210320FFF722FC69
:104D70000323282201211846FFF71CFC00233022C0
:104D800001210320FFF716FCB0233122012103206B
:104D9000FFF710FC0023322201210320FFF70AFC59
:104DA0007823332200F010BE012861D1A1B11F2069
:104DB000019000222D20009000231146032000F0D6
:104DC00043FFDFF8500C01900522002000900346BD
:104DD000A221032000F026FE41239022002103207F
:104DE000FFF7E8FBFF23912200210320FFF7E2FBFE
:104DF000FF23922200210320FFF7DCFBFF239322F5
:104E000000210320FFF7D6FBFF239422002103207B
:104E1000FFF7D0FB0023102201210320FFF7CAFB7C
:104E20008123182201210320FFF7C4FB0223202243
:104E300001210320FFF7BEFB0323282201210320C9
:104E4000FFF7B8FB0023342201210320FFF7B2FB58
:104E5000B023352201210320FFF7ACFB00233622CB
:104E600001210320FFF7A6FB7823372200F0ACBD19
:104E7000022861D1A1B11F20019000222D200090B5
:104E800000231146032000F0DFFEDFF88C0B0190B9
:104E90000522002000900346A221032000F0C2FD5D
:104EA0008123A02200210320FFF784FBFF23A122FE
:104EB00000210320FFF77EFBFF23A2220021032015
:104EC000FFF778FBFF23A32200210320FFF772FBEB
:104ED000FF23A42200210320FFF76CFB00231022F4
:104EE00001210320FFF766FB012318220121032083
:104EF000FFF760FB8223202201210320FFF75AFBEA
:104F00000323282201211846FFF754FB00233822EF
:104F100001210320FFF74EFBB0233922012103209A
:104F2000FFF748FB00233A2201210320FFF742FB51
:104F300078233B2200F048BD03285AD1A1B11F209D
:104F4000019000222D20009000231146032000F044
:104F50007BFEDFF8C80A019005220020009003467E
:104F6000A221032000F05EFDC123B0220021032016
:104F7000FFF720FBFF23B12200210320FFF71AFBDC
:104F8000FF23B22200210320FFF714FBFF23B322EB
:104F900000210320FFF70EFBFF23B4220021032092
:104FA000FFF708FB0023102201210320FFF702FB7B
:104FB0000123182201210320FFF7FCFA02232022FB
:104FC00001210320FFF7F6FA832328220121032081
:104FD000FFF7F0FA00233C2201210320FFF7EAFA51
:104FE000B0233D2201210320FFF7E4FA002300F063
:104FF000E4BC042840F0A380F9B11F2001900022F6
:105000002D20009000231146032000F01DFEDFF844
:10501000000A019005220020009003464C21032045
:1050200000F000FDDFF8EC0901900522002000905F
:105030000346A221032000F0F5FC01238022002179
:105040000320FFF7B7FAFF23812200210320FFF797
:10505000B1FAFF23822200210320FFF7ABFA7F235E
:10506000832200210320FFF7A5FAFF2384220021D9
:105070000320FFF79FFA4123902200210320FFF72E
:1050800099FAFF23912200210320FFF793FAFF23CF
:10509000922200210320FFF78DFA7F239322002123
:1050A0000320FFF787FAFF23942200210320FFF754
:1050B00081FA8023102201210320FFF77BFA81234C
:1050C000182201210320FFF775FA02232022012173
:1050D0000320FFF76FFA0323282201210320FFF7A3
:1050E00069FA0023302201210320FFF763FA5823D5
:1050F000312201210320FFF75DFA00233222012132
:105100000320FFF757FA7823332201210320FFF70A
:1051100051FA5823342201210320FFF74BFAB02320
:10512000352201210320FFF745FA00233622012111
:105130000320FFF73FFA7823372200F045BC05280B
:1051400040F0A280F9B11F20019000222D20009094
:1051500000231146032000F077FDDFF8B40801902A
:1051600005220020009003464C21032000F05AFC49
:10517000DFF8A40801900522002000900346A22138
:10518000032000F04FFC0123802200210320FFF7C1
:1051900011FAFF23812200210320FFF70BFAFF23DE
:1051A000822200210320FFF705FA7F2383220021BA
:1051B0000320FFF7FFF9FF23842200210320FFF7DC
:1051C000F9F98123A02200210320FFF7F3F9FF233F
:1051D000A12200210320FFF7EDF9FF23A2220021E5
:1051E0000320FFF7E7F9FF23A32200210320FFF7A5
:1051F000E1F9FF23A42200210320FFF7DBF980233C
:10520000102201210320FFF7D5F9012318220121E3
:105210000320FFF7CFF98223202201210320FFF78B
:10522000C9F90323282201211846FFF7C3F90023F7
:10523000302201210320FFF7BDF95823312201213B
:105240000320FFF7B7F90023322201210320FFF7E3
:10525000B1F97823332201210320FFF7ABF958235A
:10526000382201210320FFF7A5F9B02339220121BB
:105270000320FFF79FF900233A2201210320FFF7C3
:1052800099F978233B229FE3062840F09B80F9B1EF
:105290001F20019000222D200090002311460320A2
:1052A00000F0D2FCDFF86807019005220020009092
:1052B00003464C21032000F0B5FBDFF860070190A6
:1052C0000522002000900346A221032000F0AAFB43
:1052D0000123802200210320FFF76CF9FF238122A4
:1052E00000210320FFF766F9FF238222002103201B
:1052F000FFF760F97F23832200210320FFF75AF98B
:10530000FF23842200210320FFF754F9C123B02298
:1053100000210320FFF74EF9FF23B12200210320D3
:10532000FFF748F9FF23B22200210320FFF742F9DB
:10533000FF23B32200210320FFF73CF9FF23B4220F
:1053400000210320FFF736F98023102201210320DA
:10535000FFF730F90123182201210320FFF72AF972
:105360000223202201210320FFF724F9832328228E
:1053700001210320FFF71EF9002330220121032021
:10538000FFF718F95823312201210320FFF712F902
:105390000023322201210320FFF70CF97823332266
:1053A00001210320FFF706F958233C2201210320A5
:1053B000FFF700F9B0233D2201210320FFF7FAF89F
:1053C0000023FAE2072840F0A280F9B11F200190E3
:1053D00000222D20009000231146032000F034FC11
:1053E000DFF83006019005220020009003464C2192
:1053F000032000F017FBDFF82006019005220020B3
:1054000000900346A221032000F00CFB41239022D0
:1054100000210320FFF7CEF8FF2391220021032073
:10542000FFF7C8F8FF23922200210320FFF7C2F8FC
:105430007F23932200210320FFF7BCF8FF2394224F
:1054400000210320FFF7B6F88123A02200210320CA
:10545000FFF7B0F8FF23A12200210320FFF7AAF8ED
:10546000FF23A22200210320FFF7A4F87F23A32219
:1054700000210320FFF79EF8FF23A4220021032030
:10548000FFF798F80023102201210320FFF792F87C
:105490008123182201210320FFF78CF88223202288
:1054A00001210320FFF786F803232822012103208E
:1054B000FFF780F80023342201210320FFF77AF858
:1054C0005823352201210320FFF774F800233622E8
:1054D00001210320FFF76EF87823372201210320F2
:1054E000FFF768F85823382201210320FFF762F8FC
:1054F000B023392201210320FFF75CF800233A2270
:1055000001210320FFF756F878233B225CE20828AC
:1055100040F09B80F9B11F20019000222D200090C7
:1055200000231146032000F08FFBDFF8E804019010
:1055300005220020009003464C21032000F072FA5F
:10554000DFF8D80401900522002000900346A22134
:10555000032000F067FA4123902200210320FFF787
:1055600029F8FF23912200210320FFF723F8FF23CE
:10557000922200210320FFF71DF87F2393220021B0
:105580000320FFF717F8FF23942200210320FFF7E1
:1055900011F8C123B02200210320FFF70BF8FF23ED
:1055A000B12200210320FFF705F8FF23B2220021DA
:1055B0000320FEF7FFFFFF23B32200210320FEF7A5
:1055C000F9FFFF23B42200210320FEF7F3FF00239D
:1055D000102201210320FEF7EDFF81231822012173
:1055E0000320FEF7E7FF0223202201210320FEF71C
:1055F000E1FF8323282201210320FEF7DBFF0023A4
:10560000342201210320FEF7D5FF58233522012142
:105610000320FEF7CFFF0023362201210320FEF7EF
:10562000C9FF7823372201210320FEF7C3FF582347
:105630003C2201210320FEF7BDFFB0233D220121C2
:105640000320FEF7B7FF0023B7E1092840F0998057
:10565000E9B11F20019000222D2000900023114667
:10566000032000F0F1FAEC480190052200200090A0
:1056700003464C21032000F0D5F9E84801900522AB
:10568000002000900346A221032000F0CBF98123E3
:10569000A02200210320FEF78DFFFF23A12200217D
:1056A0000320FEF787FFFF23A22200210320FEF73D
:1056B00081FF7F23A32200210320FEF77BFFFF232E
:1056C000A42200210320FEF775FFC123B022002190
:1056D0000320FEF76FFFFF23B12200210320FEF716
:1056E00069FFFF23B22200210320FEF763FFFF239F
:1056F000B32200210320FEF75DFFFF23B422002127
:105700000320FEF757FF0023102201210320FEF79C
:1057100051FF0123182201210320FEF74BFF8223B2
:10572000202201210320FEF745FF832328220121A7
:105730000320FEF73FFF0023382201210320FEF75C
:1057400039FF5823392201210320FEF733FF0023BC
:105750003A2201210320FEF72DFF78233B2201216D
:105760000320FEF727FF58233C2201210320FEF7E8
:1057700021FFB0233D2201210320FEF71BFF002360
:105780001BE10A2840F02781002931D01F20019019
:1057900000222D20009000231146032000F054FA2F
:1057A0009B48019005220020009003464C210320D5
:1057B00000F038F997480190052200200090034638
:1057C000A221032000F02EF9934801907D220020B1
:1057D000009003464C21032000F024F98F480190EB
:1057E0007D22002000900346A221032000F01AF938
:1057F0000123802200210320FEF7DCFE7F2381228B
:1058000000210320FEF7D6FEFF2382220021032081
:10581000FEF7D0FE7F23832200210320FEF7CAFE7D
:10582000FF23842200210320FEF7C4FE412390229F
:1058300000210320FEF7BEFE7F23912200210320DA
:10584000FEF7B8FEFF23922200210320FEF7B2FEEE
:105850007F23932200210320FEF7ACFEFF23942236
:1058600000210320FEF7A6FE8123A02200210320B1
:10587000FEF7A0FE7F23A12200210320FEF79AFE5F
:10588000FF23A22200210320FEF794FE7F23A32200
:1058900000210320FEF78EFEFF23A4220021032017
:1058A000FEF788FEC123B02200210320FEF782FE0E
:1058B0007F23B12200210320FEF77CFEFF23B222CA
:1058C00000210320FEF776FE7F23B3220021032070
:1058D000FEF770FEFF23B42200210320FEF76AFECC
:1058E0008023102201210320FEF764FE8123182269
:1058F00001210320FEF75EFE8223202201210320E6
:10590000FEF758FE8323282201210320FEF752FED2
:105910000023302201210320FEF74CFE58233122C0
:1059200001210320FEF746FE00233222012103203D
:10593000FEF740FE3C23332201210320FEF73AFE0E
:105940005823342201210320FEF734FEB0233522F0
:1059500001210320FEF72EFE002336220121032021
:10596000FEF728FE3C23372201210320FEF722FE0A
:105970000023382201210320FEF71CFE5823392280
:1059800001210320FEF716FE3C233A2201210320C9
:10599000FEF710FE78233B2201210320FEF70AFECA
:1059A00058233C2201210320FEF704FEB0233D22B0
:1059B00001210320FEF7FEFD3C233E2201210320AE
:1059C000FEF7F8FD78233F2203B05DF804EB0121D8
:1059D0000320FEF7EFBD03B000BD10B582B0FF207D
:1059E000009000220E4C234600210320FEF783FE88
:1059F000FF20009004F58073002201210320FEF7B0
:105A00007AFEBDE81340FEF7BFBB00001827002058
:105A100044520020BC55002034590020AC5C0020CA
:105A200024600020FFE72DE9FE4F8AB080461798DA
:105A3000179003F0070717990078497801EB0020C9
:105A400080B2049003F0C005179817998078C97840
:105A5000DDF810C001EB0020179909791FFA80F9D1
:105A600016980A4619FB0CFC90FBF2F31CFB01F1A3
:105A700011FB03F102FB130010FB091080B206902A
:105A8000002206214046FEF720FC00220821404665
:105A9000FEF71BFC1798007900FB09F080B2059017
:105AA0000020019004980128C0F2CB8000200390D0
:105AB000B80080308DF8010007AF4EE01798305CD9
:105AC00028438DF81C004FEAA40A179830180AF0F2
:105AD0000F0B41782943797007AA81782943B9705F
:105AE0000021C0782843F870ABF18000387140463F
:105AF000FEF775FCBBF10F0F02D0201D48451EDBE1
:105B00009DF828005044A0EB0B02D2B2052140467C
:105B1000FEF7DBFB9DF8000040EA0B1040F00A02A4
:105B200009214046FEF7D1FB4046FEF71DFF000667
:105B3000FAD49DF801200A214046FEF7C6FB201D3D
:105B400084B2361D4C45B9DB01980599801C80B2A2
:105B50000190039800EB410003900198049988425A
:105B60006FDA03A8068805980199801980B2099018
:105B70004910BDF82C0011FA80F00290C2B2072142
:105B80004046FEF7A2FB0024B9F1010FDCDB0698CA
:105B90003018401D86B20298001280008DF8000077
:105BA00041E01798305C28438DF81C004FEAA40AA6
:105BB000179830180AF00F0B41782943797007AA1B
:105BC00081782943B9700021C0782843F870ABF17F
:105BD000800038714046FEF702FCBBF10F0F02D087
:105BE000201D48451CDB9DF828005044A0EB0B020B
:105BF000D2B205214046FEF768FB9DF8000040EA5E
:105C00000B1209214046FEF760FB4046FEF7ACFE52
:105C10000006FAD49DF801200A214046FEF755FB04
:105C2000201D84B2361D4C45BBDB06980999081827
:105C3000401D86B202980012800000248DF80000FA
:105C400080E70DB0BDE8F08F2DE9F8430E46914690
:105C5000089C80461D46FF220021FEF736FBFF22EE
:105C600001214046FEF731FBFF2202214046FEF7AC
:105C70002CFBFF2203214046FEF727FBE80000EB48
:105C80004505EAB207214046FEF71FFB099880B29E
:105C9000410011FA85F101EBC000401E87B2FAB253
:105CA00008214046FEF711FB2904080E390A01EBD2
:105CB000800040F00202D2B209214046FEF705FB07
:105CC000A000C0B24FEA8907040900F00F0519D0FF
:105CD000FAB205210020FEF7F8FA200150FA87F207
:105CE000D2B206210020FEF7F0FAB00000F1C002A7
:105CF000D2B20A210020FEF7E8FA4046FEF734FE51
:105D00000006FAD4EDB1200150FA87F2D2B2052193
:105D10000020FEF7DAFA07EB04102818421ED2B270
:105D200006210020FEF7D1FAB00000F1C002D2B285
:105D30000A210020FEF7C9FA4046FEF715FE0006CC
:105D4000FAD4BDE8F1832DE9F0410E4617468046AE
:105D50001D46FF220021FEF7B8FAFF22012140462E
:105D6000FEF7B3FAFF2202214046FEF7AEFAFF2209
:105D700003214046FEF7A9FAF80000EB4707FAB204
:105D800007214046FEF7A1FA069880B2410011FAB9
:105D900087F101EBC000401E84B2E2B20821404608
:105DA000FEF793FA3F04380E210A01EB800040F021
:105DB0000202D2B209214046FEF787FA6800760057
:105DC000C0B2050900F00F0716D0F2B2052100207D
:105DD000FEF77BFA280150FA86F2D2B206210020A3
:105DE000FEF773FAE0220A210020FEF76EFA404621
:105DF000FEF7BAFD0006FAD4D7B1280150FA86F2B0
:105E0000D2B205210020FEF760FA06EB0510381823
:105E1000421ED2B206210020FEF757FAE0220A21E4
:105E20000020FEF752FA4046FEF79EFD0006FAD427
:105E3000BDE8F08138B50478012C1EDB451C15F84F
:105E4000013B0B2202210320FEF7B4FB15F8013BB6
:105E50000C2202210320FEF7ADFB15F8013B0D22B9
:105E600002210320FEF7A6FB15F8013B0E220221BA
:105E70000320FEF79FFB641EE1D131BD0048D9E746
:105E80006C6400202DE9F84304460026DFF8640521
:105E90000D4684421CBFDFF8600584421FD0DFF846
:105EA0005C0584421CBFDFF85805844217D0DFF838
:105EB000540584421CBFDFF8500584420FD0DFF840
:105EC0004C0584421FBFDFF848058442DFF84405D3
:105ED000844204D0C1210FF2405000F0E4FA286857
:105EE00020B90FF23450C22100F0DDFA28790028E1
:105EF00018BF012808D0022818BF032804D0C321E6
:105F00000FF2145000F0CFFAE87940B1012818BF21
:105F1000022804D00FF20050C42100F0C4FA01207E
:105F200000FA06F8286808EA0000404546D17700E4
:105F30000320B8406FEA0009206809EA00002060E9
:105F400020682979B940084320602879012818BFC2
:105F500002282AD16879002818BF012808D0022811
:105F600018BF032804D0D6210FF2AC4000F09BFAF2
:105F7000A06809EA0000A060A0686979B9400843F8
:105F8000A060A879002818BF012804D0DD210FF2F5
:105F9000884000F088FA606820EA08006060606865
:105FA000A979B14089B208436060E06809EA00005D
:105FB000E060E068E979B9400843E060761C102EA3
:105FC000ADD3BDE8F18370B504460026DFF82404A4
:105FD0000D4684421CBFDFF82004844220D0DFF845
:105FE0001C0484421CBFDFF81804844218D0DFF878
:105FF000140484421CBFDFF81004844210D0DFF880
:106000000C0484421FBFDFF808048442DFF8040454
:10601000844205D04FF49B710FF2FC3000F043FA3C
:10602000012D18BF022D29D0042D18BF082D25D011
:10603000102D18BF202D21D0402D18BF802D1DD030
:10604000B5F5807F18BFB5F5007F17D0B5F5806F27
:1060500018BFB5F5006F11D0B5F5805F18BFB5F565
:10606000005F0BD0B5F5804F18BFB5F5004F05D0D8
:106070000FF2A43040F2371100F015FA20692842DF
:1060800018BF0126304670BD10B50446DFF8640322
:1060900084421CBFDFF86003844220D0DFF85C0339
:1060A00084421CBFDFF85803844218D0DFF8540341
:1060B00084421CBFDFF85003844210D0DFF84C0349
:1060C00084421FBFDFF848038442DFF8480384425C
:1060D00005D04FF4A6710FF2403000F0E4F92069CA
:1060E00080B210BD10B50446DFF8080384421CBF1F
:1060F000DFF80403844220D0DFF8000384421CBF91
:10610000DFF8FC02844218D0DFF8F80284421CBF9A
:10611000DFF8F402844210D0DFF8F00284421FBF9F
:10612000DFF8EC028442DFF8EC02844205D040F252
:1061300073110FF2E42000F0B6F9606980B210BD6F
:1061400038B50446AB480D4684421CBFAA48844279
:1061500019D0AA4884421CBFA948844213D0A94838
:1061600084421CBFA84884420DD0A84884421FBF67
:10617000A7488442A748844205D040F285110FF217
:10618000982000F090F92DB90FF28C204FF4C371D4
:1061900000F089F9258331BD38B5044695480D4690
:1061A00084421CBF9448844219D0944884421CBF46
:1061B0009348844213D0934884421CBF924884423F
:1061C0000DD0924884421FBF914884429148844236
:1061D00005D04FF4CC710FF2402000F064F92DB9D6
:1061E0000FF2342040F2991100F05DF9658331BD62
:1061F00070B504467F480D46164684421CBF7E4853
:10620000844219D07D4884421CBF7D48844213D00B
:106210007C4884421CBF7C4884420DD07B48844229
:106220001FBF7B4884427B48844205D04FF4D6711F
:106230000FF2E41000F037F9012D18BF022D29D01C
:10624000042D18BF082D25D0102D18BF202D21D0CA
:10625000402D18BF802D1DD0B5F5807F18BFB5F536
:10626000007F17D0B5F5806F18BFB5F5006F11D05E
:10627000B5F5805F18BFB5F5005F0BD0B5F5804F61
:1062800018BFB5F5004F05D00FF28C1040F2AD11DC
:1062900000F009F94EB1012E05D04FF4D7710FF27D
:1062A000781000F000F9258370BD658370BD38B5A6
:1062B000044650480D4684421CBF4F48844219D0C2
:1062C0004E4884421CBF4E48844213D04D488442FD
:1062D0001CBF4D4884420DD04C4884421FBF4C48DF
:1062E00084424C48844205D040F2C3110FF228107A
:1062F00000F0D9F8656131BD70B506463D480D46E0
:10630000144686421CBF3C48864219D03B48864210
:106310001CBF3B48864213D03A4886421CBF3A48CD
:1063200086420DD0394886421FBF394886423948D7
:10633000864205D040F21D210FF2DC0000F0B3F8D8
:10634000002D18BF012D21D0022D18BF032D1DD007
:10635000042D18BF052D19D0062D18BF072D15D0F7
:10636000082D18BF092D11D00A2D18BF0B2D0DD0E7
:106370000C2D18BF0D2D09D00E2D18BF0F2D05D0D7
:106380000FF2940040F21E2100F08DF8002C18BF8F
:10639000092C1ED0012C18BF022C1AD0032C18BFB8
:1063A000042C16D0052C18BF062C12D0072C18BFB1
:1063B000082C0ED00A2C18BF0B2C0AD00C2C1CBF9A
:1063C0000D2C0F2C05D040F21F210FF24C0000F0D5
:1063D0006AF8E80806EB800005F007018900026A08
:1063E0000F238B409A43026204FA01F1026A1143BF
:1063F000016270BD0000024000040240000802403B
:10640000000C02400010024000140240001802403C
:10641000001C024000200240433A5C546F6F6C73D2
:106420005C574C39465C574C5F465F4D6F6E6974E4
:106430006F725F4150505C4C696272617269657342
:106440005C53544D3332463478785F5374645065EE
:10645000726970685F4472697665725C7372635CBE
:1064600073746D3332663478785F6770696F2E634A
:106470000000000080B500F037FC002002BD00B530
:1064800085B04FF4E130009000A900200190ADF8F4
:106490000800ADF80C000C20ADF80A00002000F058
:1064A000F3FC05B000BDFEE72DE9F041DFF84459EB
:1064B000DFF8444928682087002000F00CFE002007
:1064C00000F009FE002000F006FE28682087002664
:1064D000A04606F1080000F0FEFD761C08F8010B4E
:1064E000182EF6DB08222146DFF8100900F0F6FF2F
:1064F000DFF80C09082204F1080100F0EFFF082280
:1065000004F11001DFF8FC0800F0E8FF002604F1B8
:10651000200806F1320000F0DEFD761C08F8010BC1
:10652000152EF6DBDFF8E0880026474606F164000A
:1065300000F0D1FD761C07F8010B4F2EF6DBDFF8DB
:10654000CC68C82000F0C7FD3070C92000F0C3FD42
:106550007070CA2000F0BFFDB070CB2000F0BBFD12
:10656000F070D22000F0B7FD3071D32000F0B3FD01
:106570007071D42000F0AFFDB071D52000F0ABFDFC
:10658000F071DC2000F0A7FD3072DD2000F0A3FDEB
:106590007072DE2000F09FFDB072DF2000F09BFDE6
:1065A000F072FF22DFF868784D21781C00F0D2FFEE
:1065B00005224146384600F091FF04223146781DFD
:1065C00000F08CFF0422311D07F1090000F086FF66
:1065D000042206F1080107F10D0000F07FFF286892
:1065E0002087208F2073000A6073BDE8F08110B50A
:1065F000DFF82048607801280AD10F2000F0FBFF67
:1066000001F08FF92078401C20700020607010BDD0
:10661000022813D10F2000F0EEFF207801F0A1F93D
:106620002078401C2070C0B2032807DBDFF8E807A1
:10663000016821F0080101600020207010BD10B534
:10664000DFF8D047207838B90F2000F0D4FF01F0F0
:10665000A0F92078401C15E00F2000F0CCFF207836
:1066600001F0D1F92078DFF8B4170978401C2070C8
:10667000C0B2814207D2DFF8A007016821F40041CF
:1066800001600020207010BD38B5DFF87047217818
:10669000082000F0F7FC012000F0ADFF6178092030
:1066A00000F0F0FC012000F0A6FFA1780A2000F025
:1066B000E9FC012000F09FFFE1780B2000F0E2FCF4
:1066C000012000F098FF21790C2000F0DBFC012074
:1066D00000F091FF61790D2000F0D4FC012000F062
:1066E0008AFFA1790E2000F0CDFC012000F083FF8D
:1066F000E1790F2000F0C6FC012000F07CFFDFF8FC
:1067000000472178102000F0BDFC012000F073FF4D
:106710006178112000F0B6FC012000F06CFFA17838
:10672000122000F0AFFC012000F065FFE17813209B
:1067300000F0A8FC012000F05EFF2179142000F099
:10674000A1FC012000F057FF6179152000F09AFCB0
:10675000012000F050FFA179162000F093FC0120E9
:1067600000F049FFE179172000F08CFC012000F0D7
:1067700042FFDFF890462178182000F083FC0120CA
:1067800000F039FF6178192000F07CFC012000F056
:1067900032FFA1781A2000F075FC012000F02BFFD9
:1067A000E1781B2000F06EFC012000F024FF21792D
:1067B0001C2000F067FC012000F01DFF61791D2006
:1067C00000F060FC012000F016FFA1791E2000F00F
:1067D00059FC012000F00FFFE1791F2000F052FC6E
:1067E000012000F008FF0024DFF8345615F8011BE3
:1067F00004F1320000F046FC012000F0FCFE641CB5
:10680000152CF3DBDFF80056002415F8011B04F10A
:10681000640000F037FC012000F0EDFE641C4F2CFA
:10682000F3DBDFF8E845207B012813D1DFF8E055E2
:106830000422691D204600F051FE042205F10901E1
:10684000201D00F04BFE042205F10D0104F10800AB
:1068500000F044FE2178C82000F014FC012000F074
:10686000CAFE6178C92000F00DFC012000F0C3FED3
:10687000A178CA2000F006FC012000F0BCFEE178FF
:10688000CB2000F0FFFB012000F0B5FE2179D220E3
:1068900000F0F8FB012000F0AEFE6179D32000F09B
:1068A000F1FB012000F0A7FEA179D42000F0EAFB63
:1068B000012000F0A0FEE179D52000F0E3FB0120EB
:1068C00000F099FE217ADC2000F0DCFB012000F0D2
:1068D00092FE617ADD2000F0D5FB012000F08BFEF6
:1068E000A17ADE2000F0CEFB012000F084FEE17AE8
:1068F000DF2000F0C7FBBDE83240012000F07BBE86
:1069000010B501F0B1F930B9012001F0A8F9DFF8B4
:10691000E004002174E0DFF80C452078002876D1EF
:10692000FFF7B2FE0020607001F09EF998B90022D6
:1069300040F22771DFF8F00401F0FEFADFF8EC0412
:106940000022022101F0BAFE012001F088F9DFF8EF
:10695000A004002154E0642000F04DFE6078401C4B
:106960006070C0B20F28DFDB01F063FF00219520CB
:1069700001F0A6FF032000F03EFE0021952001F06B
:106980009FFF032000F037FE002240F22771DFF85E
:10699000980401F0D1FADFF894040022022101F0FA
:1069A0008DFE0020606002F051F94FF4966000F017
:1069B00022FE002002F091FA012002F084FA002069
:1069C00002F07CFA002002F073FA002001F01CF9BA
:1069D000642000F010FE012001F016F901F01AF910
:1069E000002001F011F94FF47A7000F004FE01F07C
:1069F0003BF938B9012001F032F90121DFF8F00349
:106A0000817710BDBDE81040002001F028B910BD0D
:106A100030B583B002F05EF9DFF8FC43206800284F
:106A200000F0EF80C1070BD540084000206006222F
:106A30004721EF2000F040FFDFF8F40300F049FFAA
:106A4000206881070BD520F0020020600622472134
:106A5000EF2000F031FFDFF8DC0300F03AFF2068A0
:106A600041070BD520F00400206006224721EF20CB
:106A700000F022FFDFF8C00300F02BFF20780007B2
:106A800048BFFFF7B4FD2068C1060BD520F0100009
:106A9000206006224721EF2000F00EFFDFF89C0364
:106AA00000F017FF206881060BD520F02000206041
:106AB00006224721EF2000F0FFFEDFF8840300F0FC
:106AC00008FF206841060BD520F040002060062218
:106AD0004721EF2000F0F0FEDFF8680300F0F9FE38
:106AE000206801060BD520F0800020600622472197
:106AF000EF2000F0E1FEDFF8500300F0EAFE20682E
:106B0000C1050BD520F48070206006224721EF20BC
:106B100000F0D2FEDFF8340300F0DBFE20688105D0
:106B20001BD520F40070206006224721EF2000F0E2
:106B3000C3FEDFF81C53284600F0CBFEA878FF28E0
:106B40000BD0AB490871E8784871D1E90023CDE951
:106B50000023DDE9000100F039FC2068410513D570
:106B600020F48060206006224721EF2000F0A4FE80
:106B7000B84D284600F0ADFE06223421EF2000F08B
:106B80009BFE284600F0A5FE206801050AD520F4EA
:106B90000060206006224721EF2000F08DFEAE4805
:106BA00000F097FE2068C1040AD520F480502060D0
:106BB00006224721EF2000F07FFEA84800F089FE62
:106BC000206881040AD520F4005020600622E421C8
:106BD000EF2000F071FEA24800F07BFE2068000468
:106BE00048BFFFF72CFD2068C1030AD520F4803090
:106BF00020600622F721FF2000F05EFE994800F099
:106C000068FE03B030BD38B502F020F89648784CE5
:106C10000088B0F57A7F19DD94480078012815D1F5
:106C200000F000FD01220221804801F047FD90485C
:106C3000904D002101702878401C2870C0B20A28AD
:106C400004DB29702079617901F067FEFFF758FEB7
:106C5000884D687828B18848007802F062FB0020EF
:106C60006870A17FE07F012902D0012802D031BDE8
:106C70000128FCD1BDE8314006E580B5002000F0D8
:106C8000EEFF012000F0C0FF00F0C4FF00F0D4FFD1
:106C900002F0E7FDFEF7A1FE02F0ECFD02F01AFEA5
:106CA00001F08EFD002000F055FA01F0CBFE02F05D
:106CB000DBF8012002F0FCF8012002F0FFF80120CF
:106CC00002F001F902F0B8F9022002F005FE0420FA
:106CD00002F002FE00F0A6FCFFF7E6FB02F00CFB60
:106CE00050480021416001BDF8B5FFF7C8FB03F033
:106CF00078FA03F082FA634C614D604E3C4F0120FC
:106D000000F0ADFF03F0ACFAFFF7B7FF10E020781A
:106D1000401CC0B2062808BF002020700321207844
:106D200090FBF1F101EB4101401A08BF02F072F94A
:106D3000B88C012801BF0020B884387F01280CD10D
:106D4000787F411C7977042807DB0020787703F0EF
:106D500034FB0021202001F0B3FDF88C012803D181
:106D60000020F884FFF754FE388D012809D1002057
:106D70003885FFF748FFB87F01281CBFF87F01283E
:106D8000BDD0388E012809D10020388606222F2157
:106D9000FF2000F091FD304600F09BFD788E012829
:106DA000C6D100207886787E012812D100F081FEBD
:106DB000B88E401CB88680B23C280ADB0020B8861A
:106DC00000F05BFEB87E3D28A1BFF87E3D28002084
:106DD0003876384600F02AFB387938747879787438
:106DE0002878012893D000202070A1E7000000003F
:106DF000789000204C2001403C900020C08D002065
:106E0000C88D0020988D0020D88E0020E4900020AE
:106E1000788F0020AE900020BC8D0020968D002041
:106E20005C9000201C910020004400400064004061
:106E3000508E0020588E0020608E0020788E00201A
:106E4000808E0020888E0020908E0020988E00205A
:106E5000A08E0020A88E0020B08E0020B88E0020CA
:106E6000C08E0020D08E00205E650020CD900020D6
:106E700057650020F190002047910020C88E002027
:106E80003465002040910020F0B506460FF2BC00AA
:106E90000FF2BC0283B0354650F8250052F8252089
:106EA0000C460121104303F0EFFF1EB90121102011
:106EB00004F02DF80FF2AC00DFF88C6030F81520EC
:106EC0000FF2980030F8151006EB8507D2B27868FB
:106ED000FFF712FA0FF2900030F815200FF2800041
:106EE00030F81510B868D2B2FFF706FA00208DF816
:106EF000060000A901208DF8070002208DF804008B
:106F00000FF2500030F81500009002208DF80500B7
:106F10007868FEF7B7FF02208DF8040000A90FF291
:106F2000380030F815000090B868FEF7ABFF56F84F
:106F30002500214600F0A2FE56F82500012100F0B0
:106F400064FF03B0F0BD00002865002001000000D0
:106F50000100000000020000000400000900000021
:106F60000A00000007000000070050F8041B61B190
:106F700050F8042BD30744BFA9F101039A1800234A
:106F800042F8043B091FFAD1EFE7704700B5010052
:106F9000DFF82C0283B001694FF400724FF6FF5303
:106FA00008D019404161009201218DF804108DF83C
:106FB000051005E019404161009200218DF8041090
:106FC00000A9FEF75FFF03B000BD70B504460825B9
:106FD000DFF8EC61E4B2E0094FF40071304602D012
:106FE000FFF7AEF801E0FFF7D7F84FF480713046B5
:106FF000FFF7A6F864004FF480713046FFF7CCF835
:107000006D1EE7D14FF400713046FFF7C5F84FF41D
:1070100080713046FFF794F83046BDE870404FF479
:107020008071FFF7B9B870B5DFF894514FF48071F3
:107030002846FFF7B1F84FF400712846FFF780F8B3
:107040000020FFF7A3FF08264FF480712846FFF7C2
:1070500077F84FF400712846FEF7B5FF40EA440484
:10706000E4B24FF480712846FFF796F8761EEBD114
:107070004FF400712846FFF78FF80120FFF786FFD5
:10708000204670BD70B504460D464D4E4FF400715C
:107090003046FFF755F80120FFF778FF4FF40071F5
:1070A0003046FFF74DF84FF480713046FFF748F84F
:1070B0004FF400713046FFF76FF84FF4807130469F
:1070C000FFF76AF8A020FFF780FF2004000EFFF70B
:1070D0007CFFE0B29EE038B50446394D4FF40071B4
:1070E0002846FFF72DF80120FFF750FF4FF40071FD
:1070F0002846FFF725F84FF480712846FFF720F85F
:107100004FF400712846FFF747F84FF48071284686
:10711000FFF742F8A020FFF758FF2004000EFFF70A
:1071200054FFE0B2FFF751FF4FF400712846FFF71C
:1071300007F84FF480712846FFF702F84FF400710A
:107140002846FFF729F84FF480712846FFF724F806
:10715000A120B2E038B50446194D4FF4007128461D
:10716000FEF7EEFF0120FFF711FF4FF400712846F4
:10717000FEF7E6FF4FF480712846FEF7E1FF4FF47B
:1071800000712846FFF708F84FF480712846FFF792
:1071900003F8D020FFF719FF0A20FFF716FF20465B
:1071A000FFF713FF4FF400712846FEF7F5FF4FF489
:1071B00080712846FEF7C4FF2846BDE834403BE016
:1071C0000004024070B504460D46014E02E000BFC7
:1071D000000402404FF400713046FEF7B1FF012079
:1071E000FFF7D4FE4FF400713046FEF7A9FF4FF4CD
:1071F00080713046FEF7A4FF4FF400713046FEF771
:10720000CBFF4FF480713046FEF7C6FFD020FFF76A
:10721000DCFE2046FFF7D9FE2846FFF7D6FE4FF4E6
:1072200000713046FEF7B8FF4FF480713046FEF72C
:1072300087FF3046BDE870404FF40071FEF780BF15
:1072400038B50446004D01E0000402404FF40071DF
:107250002846FEF775FF0120FFF798FE4FF40071F6
:107260002846FEF76DFF4FF480712846FEF768FF51
:107270004FF400712846FEF78FFF4FF480712846C7
:10728000FEF78AFFD020FFF7A0FE2046FFF79DFE05
:107290004FF400712846FEF753FF4FF480712846E3
:1072A000FEF74EFF4FF400712846FEF775FF4FF4CE
:1072B00080712846FEF770FFD120FFF786FEFFF7AA
:1072C000B2FE04464FF400712846FEF739FF4FF432
:1072D00080712846FEF734FF4FF480712846FEF790
:1072E0005BFF4FF400712846FEF756FF4FF48071A4
:1072F0002846FEF725FF4FF400712846FEF720FFD1
:10730000204632BD64280CDA0A2190FBF1F10A0113
:1073100050FA82F001EB8102A0EB4201C9B20820D1
:1073200050E7704701460D290DDA60B10A2091FB44
:10733000F0F0020151FA82F100EB8002A1EB420170
:10734000C9B207203EE77047014620290DDA60B137
:107350000A2091FBF0F0020151FA82F100EB800269
:10736000A1EB4201C9B206202CE7704718280CDABD
:107370000A2190FBF1F10A0150FA82F001EB81023F
:10738000A0EB4201C9B204201CE770473C280CDA8C
:107390000A2190FBF1F10A0150FA82F001EB81021F
:1073A000A0EB4201C9B203200CE770473C280CDA7D
:1073B0000A2190FBF1F10A0150FA82F001EB8102FF
:1073C000A0EB4201C9B20220FCE6704703B581B0D0
:1073D00002210020FFF7F6FE9DF80400FFF792FF60
:1073E0009DF80500FFF79EFF9DF80600FFF7ACFF34
:1073F0009DF80710082903DA11B10520FFF7E2FE16
:107400009DF80800FFF7B2FF9DF80900FFF7BEFFE7
:107410009DF80A00FFF7CAFF00210020FFF7D2FE07
:1074200003B05DF804EB00210120CBE610B5044663
:1074300001210020FFF7C6FE0820FFF701FF010928
:1074400001EB810200F00F0000EB420020700720EA
:10745000FFF7F6FEC0F3001101EB810200F00F0010
:1074600000EB420060700620FFF7EAFEC0F3011156
:1074700001EB810200F00F0000EB4200A07005203C
:10748000FFF7DEFE00F00700E0700420FFF7D8FEF3
:10749000C0F3011101EB810200F00F0000EB42008C
:1074A00020710320FFF7CCFEC0F3021101EB810233
:1074B00000F00F0000EB420060710220FFF7C0FEF9
:1074C000C0F3021101EB810200F00F0000EB42005B
:1074D000A0710021BDE81040002073E662B38B0765
:1074E00008D0521E11F8013B00F8013B00F0248047
:1074F0008B07F6D1830740F0208000BF103A07D3F6
:1075000030B4B1E83810103AA0E83810F9D230BCE5
:10751000530724BFB1E80810A0E8081044BF51F891
:10752000043B40F8043BD20724BF31F8022B20F87B
:10753000022B44BF0B7803707047083A07D3B1E8B9
:107540000810083A40F8043B40F804CBF7D2530740
:10755000E4E7000062F30F2262F31F42401810F0CC
:10756000030308D0C91A1FD3DB0748BF00F8012D59
:1075700028BF20F8022D130030B4144615461039E8
:1075800028BF20E93C00FAD8490728BF20E90C00B1
:1075900048BF40F8042D890028BF20F8022D48BFBD
:1075A00000F8012D30BC7047C91818BF00F8012D34
:1075B000CB0728BF00F8012D704700000348016881
:1075C00011B10168491E016070470000349100202C
:1075D00082B0002107E00099491C0091009905291B
:1075E000F9D30199491C01910199814238BF0021C9
:1075F000F3D302B0704782B00021019144F26821B8
:1076000008E0009A521C0092009A8A42F9D3019A2B
:10761000521C0192019A824238BF0022F3D302B079
:107620007047000030B5DFF8B84589B0204600F05B
:10763000ABFDDFF8B055284600F0A6FD01A800F02C
:1076400038FF0020ADF80A000390ADF8060001A94C
:107650000D208DF8080005208DF809000820ADF8F0
:107660000400204600F0B3FD01A9284600F0AFFD5C
:107670000020ADF81A0001208DF81C0000200490B5
:107680000590ADF8180001208DF81D0004A800F049
:1076900083FE14208DF8000000208DF801008DF885
:1076A000020001208DF8030000A803F0DDFC09B002
:1076B00030BD38B5DFF8304500206074E063062146
:1076C000DFF82805A4630170082200214170FF2122
:1076D000817028210171002060820021DFF81005EF
:1076E000A1820180DFF80C05017004F14000FF2148
:1076F00003F052FD0822FF2104F1480003F04CFD85
:107700000822FF2104F1180003F046FD0822FF21A2
:1077100004F1500003F040FD0822FF2104F158005D
:1077200003F03AFD0822FF2104F1600003F034FD6C
:107730000822FF2104F1800003F02EFD0822FF2122
:1077400004F1080003F028FD002020730822FF2127
:1077500004F1980003F020FD0822FF2104F1A000AD
:1077600003F01AFD0822FF2104F1A80003F014FD24
:107770000822FF2104F1B00003F00EFD0822FF21D2
:1077800004F1B80003F008FD0822FF2104F1C00055
:1077900003F002FD0822FF2104F1C80003F0FCFC05
:1077A00004F5A8750822FF21284603F0F5FC1022F5
:1077B000FF2104F1880003F0EFFC1522FF2104F102
:1077C000680003F0E9FC0822FF2104F1D00003F077
:1077D000E3FC1522FF2104F1D80003F0DDFC0822B0
:1077E000FF2104F1E00003F0D7FC0D22FF2104F19A
:1077F000E80003F0D1FC0822FF2104F1F80003F0B7
:10780000CBFC0822FF2104F5807003F0C5FC0822A0
:10781000FF2104F5847003F0BFFC0822FF2104F56A
:10782000887003F0B9FC0822FF2104F58C7003F086
:10783000B3FC0822FF2104F5907003F0ADFC082290
:10784000FF2104F5947003F0A7FC0822FF2104F542
:10785000987003F0A1FC0822FF2104F59C7003F04E
:107860009BFC0822FF2104F5A07003F095FC082280
:10787000FF2104F5A47003F08FFC1622FF2104F110
:10788000200003F089FC0822FF21284603F084FC35
:107890000822FF21DFF8600303F07EFCDFF85C4381
:1078A000A52202212046FFF755FEA01CBDE8384066
:1078B000F0220221FFF74EBE10B1DFF8303398708E
:1078C00011B1DFF82803C17012B1DFF82003027094
:1078D000704700B5DFF814130A784B781B0603EBEA
:1078E00082628B7802EB0342CB78097985B002EB98
:1078F000032251180191082204218DF8081000215B
:107900008DF8091008218DF80A1001460DF10B00C1
:10791000FFF7E4FD00A9DFF8C80200F0DAFD05B0CA
:1079200000BD80B507224721EC20FFF7C5FFDFF837
:10793000B802816B10220A700D22816BA1F8012020
:107940000222CA70816BCA788275FF220A714FF4D5
:107950006F42816BA1F805200022CA71BDE8024088
:10796000B7E71CB5044607224721EB20FFF7A4FF29
:10797000C4EBC4009C498DF80040401800F1E101BF
:1079800007220DF10100FFF7A9FD00A8FFF7A1FFF5
:1079900013BD38B5944C0025002004F1200111F8E6
:1079A000012B2A2A1EBF6D1C11F8012B2A2A03D095
:1079B0006D1C801C1628F2DB0722FF21EC20FFF74C
:1079C0007BFFA06B20210170681CA16BA1F8010056
:1079D000072280B290FBF2F2C2EBC203C01A0EBFC4
:1079E000CA70501CC870A06BC178A175FF210171CD
:1079F0004FF69171A06BA0F805100021C1712046CF
:107A0000BDE8324065E71CB504460722FF21EB20A4
:107A1000FFF752FFC4EBC40073498DF800404018D3
:107A200000F11901ACE710B504460722EC20FFF77E
:107A300043FF6D4811210170E1784170012181708F
:107A4000FF21C1700FE010B504460722EC20FFF7BC
:107A500033FF65481321017061784170A17881700E
:107A6000E178C1702179017161794171A1798171E8
:107A7000E179C171BDE810402BE700B583B0062263
:107A8000FB21FF20FFF718FF5748C17C01290ED0CA
:107A9000017D491C0175C9B20B2908DA3C208DF81B
:107AA0000000FF208DF8010000A8FFF712FF03B0CF
:107AB00000BD4D48C17C012900D07047F0B5504C45
:107AC0002178002940F08A80494A4E4D128801E011
:107AD000491CC9B2914280F281804E194F1996F823
:107AE00050607F78B7426FD005F15001681CFFF7F6
:107AF000F5FC2878FF280CBF0020401C287028784F
:107B000085F8A00018B102281ED00BD337E004225C
:107B1000691C05F1A100FFF7E1FCFF220C2105F132
:107B2000A50029E005F2A1060422314605F1A500D1
:107B3000FFF7D4FC0422691C3046FFF7CFFCFF227C
:107B4000082105F1A90017E005F2A507042239462E
:107B500005F1A900FFF7C2FC05F2A1060422314697
:107B60003846FFF7BBFC0422691C3046FFF7B6FC21
:107B7000FF22042105F1AD00FFF7ECFC1AE005F24D
:107B8000A9060422314605F1AD00FFF7A7FC05F276
:107B9000A507042239463046FFF7A0FC05F2A106EE
:107BA000042231463846FFF799FC0422691C30460E
:107BB000FFF794FC95F8A000FB28A4BFFA2085F8F5
:107BC000A00001202070F0BD2A2E7FF481AF467DF9
:107BD000761C4675F6B2032EFFF67AAFF0BD0000B4
:107BE0000064004000680040808D0020F490002078
:107BF0005C65002054650020D08F0020809000201C
:107C0000F0900020D88E002002464FF48051184892
:107C1000FEF7EEBA10B5174C012204212046FEF7FC
:107C2000E7FA4FF47A70FFF7E6FC2046BDE8104013
:107C300000220421FEF7DCBA10B50D4C00224FF4EF
:107C400000412046FEF7D4FA6420FFF7D4FC20461A
:107C5000BDE8104001224FF40041FEF7C9BA0246C8
:107C600002210548FEF7C4BA01210348FEF7ABB96B
:107C700000080240000C024000040240F0B5044637
:107C8000DFF89472DFF8A86285B00D46BC421CBFD5
:107C9000DFF88802844213D0DFF8840284421CBFDC
:107CA000DFF8800284420BD0DFF87C0284421CBFE4
:107CB000DFF87802844203D0F1213046FEF7F3FB6F
:107CC000286818B1DFF86C12884203D3F2213046DD
:107CD000FEF7E9FBA888002818BFB0F5805F03D045
:107CE000F3213046FEF7DFFBE888002818BFB0F527
:107CF000805F09D0B0F5005F18BFB0F5405F03D0DA
:107D0000F4213046FEF7CFFB288900281CBFB0F5D0
:107D1000806FB0F5C06F03D0F5213046FEF7C3FB8E
:107D200068894FF6F371084200D118B9F621304640
:107D3000FEF7B9FBA889F8B1B0F5807F1CBFB0F59C
:107D4000007FB0F5407F05D0F7213046FEF7ABFB52
:107D5000A88988B1BC421CBFDFF8C00184420BD0A7
:107D6000DFF8BC0184421CBFDFF8C001844203D0AD
:107D7000FC213046FEF797FB208A4CF6FF71084045
:107D8000E988084320824EF6F311A0890840A988AB
:107D900008432989084369890843A0814FF6FF41B8
:107DA000A08A0840A9890843A08200A803F025F80A
:107DB000BC421BBFDFF87401844203980298296813
:107DC00019225043A28912044CBF49008900B0FB1C
:107DD000F1F16420B1FBF0F000010209642303FB20
:107DE0001211A289120406D5C9003231B1FBF3F198
:107DF00001F0070105E009013231B1FBF3F101F0B7
:107E00000F010843208105B0F0BD38B50446DFF806
:107E100008010D4684421CBFDFF80001844215D0E2
:107E2000DFF8FC0084421CBFDFF8F80084420DD06C
:107E3000DFF8F40084421CBFDFF8F000844205D074
:107E400040F2A1110FF2E420FEF72DFB5DB1012DF0
:107E500005D00FF2D8204FF4D171FEF724FBA08992
:107E600040F4005003E0A0894DF6FF710840A08166
:107E700031BD38B50446DFF8A0000D4684421CBF72
:107E8000DFF89800844215D0DFF8940084421CBFCC
:107E9000DFF8900084420DD0DFF88C0084421CBFD4
:107EA000DFF88800844205D040F223210FF27C20C5
:107EB000FEF7F9FAB5F5007F05DB0FF270204FF4FD
:107EC0000971FEF7F0FAE805C00DA08031BD10B5CC
:107ED0000446DFF8440084421CBFDFF840008442BF
:107EE00015D0DFF83C0084421CBFDFF83800844224
:107EF0000DD0DFF8340084421CBFDFF8300084422C
:107F000005D040F233210FF22420FEF7CCFAA088EE
:107F1000C005C00D10BD000000100140004400402D
:107F200000480040004C0040005000400014014058
:107F30002C810008E1707200F8B50546DFF8D471B5
:107F40000E461446BD421CBFDFF8CC01854215D059
:107F5000DFF8C80185421CBFDFF8C40185420DD09F
:107F6000DFF8C00185421CBFDFF8BC01854205D0A7
:107F700040F2C3410FF2B410FEF795FA282E1CBF51
:107F800040F2277086421BD040F2266086421CBF1A
:107F900040F22550864213D040F2244086421CBF56
:107FA00040F6460086420BD040F66A10864218BF63
:107FB000602E05D040F2C4410FF27010FEF773FA44
:107FC000002C18BF012C05D00FF2601040F2C54103
:107FD000FEF769FA40F66A10864210D1BD421CBF16
:107FE0004D4885420BD04D4885421CBF4E488542C6
:107FF00005D040F2CA410FF23410FEF754FA3006B1
:10800000012106F01F02400F9140012808BF05F131
:108010000C0005D002280CBF05F1100005F114007A
:108020000268002C14BF114322EA01010160F1BD76
:10803000F8B504460026374F0D46BC421CBF3648F3
:10804000844211D0354884421CBF354884420BD04D
:10805000344884421CBF3448844205D040F2565113
:108060000FF2C800FEF71FFA282D1CBF40F227713F
:108070008D4234D040F226618D421CBF40F2255122
:108080008D422CD040F224418D421CBF40F6460167
:108090008D4224D040F66A118D420FD0B5F5587F3D
:1080A0001CBF40F225318D4219D0B5F5187F18BF9D
:1080B000B5F5B07F13D040F257510CE0BC421CBF65
:1080C000154884420BD0154884421CBF1648844290
:1080D00005D040F25C510FF25400FEF7E4F9280697
:1080E000400F012105F01F0201FA02F2012808BF2A
:1080F000A08903D002280CBF208AA08A10402A0A37
:1081000091402288114000281CBF002901263046DA
:10811000F2BD000000100140004400400048004053
:10812000004C00400050004000140140433A5C54B1
:108130006F6F6C735C574C39465C574C5F465F4DB4
:108140006F6E69746F725F4150505C4C696272610E
:10815000726965735C53544D3332463478785F539B
:1081600074645065726970685F4472697665725CA8
:108170007372635C73746D3332663478785F7573D1
:108180006172742E6300000080B5DFF8C415884268
:1081900014D0DFF8C015884204D0AB21DFF8B80551
:1081A000FEF781F901214FF0806002F0F4FE00211A
:1081B0004FF08060BDE8044002F0EDBE01214FF0B9
:1081C000007002F0E8FE00214FF00070F2E7F8B511
:1081D00004460026DFF87805DFF87C750D468442FA
:1081E0001CBFDFF87005844203D0CB213846FEF770
:1081F0005AF9A879002818BF012803D0CC213846A5
:10820000FEF751F9E879002818BF012803D0CD21E5
:108210003846FEF748F9287A002818BF012803D00D
:10822000CE213846FEF73FF9687A002818BF0128AA
:1082300003D0CF213846FEF736F9A87A002818BFB8
:10824000012803D0D0213846FEF72DF9E87A00281E
:1082500018BF012803D0D1213846FEF724F9A878A9
:10826000002818BF012807D0022818BF032803D010
:10827000D2213846FEF717F9E878002818BF012800
:1082800007D0022818BF032803D0D3213846FEF7B1
:108290000AF92879102803DBD4213846FEF703F9C0
:1082A0006879082803DBD5213846FEF7FCF82888D2
:1082B00010B1B0F5806F03DDD6213846FEF7F3F834
:1082C000206820F002002060206840F0010020605B
:1082D0004FF6FF70014600E0491E6268D20701D4E4
:1082E0000029F9D16168C90754D5A9790129216804
:1082F0000CBF41F0800121F080012160E979012962
:1083000021680CBF41F0400121F040012160297A31
:10831000012921680CBF41F0200121F020012160DA
:10832000697A012921680CBF41F0100121F0100188
:108330002160A97A012921680CBF41F0080121F0D0
:1083400008012160E97A012921680CBF41F004018C
:1083500021F004012160EA78A978120642EA8171CD
:108360002A7941EA02416A7941EA02512A88521E79
:108370001143E161216849084900216000E0401E85
:108380006168C90701D50028F9D1606800F00100D3
:1083900080F001063046F2BD70B50446A07A1C2874
:1083A00005DB40F253110FF2C030FEF77CF8E07AA3
:1083B000002818BF012805D04FF4AA710FF2A83089
:1083C000FEF771F8207B002818BF012805D040F285
:1083D00055110FF29430FEF766F82089002818BF77
:1083E000012805D04FF4AB710FF27C30FEF75BF83B
:1083F000607B002818BF012805D040F257110FF20A
:108400006830FEF750F8A17A01208840DFF84C135D
:108410000A6842F001020A60C243CB691340CB6193
:10842000237B9BB9CB681340CB60E5886688DFF877
:10843000303346EA0545A67A43F83650A57A2688B1
:1084400003EBC503A58846EA05455D60237B012B48
:1084500013D1CB680343CB6025886688DFF80033EF
:1084600046EA0545A67A43F83650A57AE68803EB36
:10847000C503A58846EA05455D60E37A002B4B6895
:108480000CBF134003434B60238913B94B691A4057
:1084900003E0012B02D14A6902434A61627B012A4F
:1084A00002D1CA691043C8610868400840000860EA
:1084B00070BD00218171C171017241728172C172FE
:1084C0008170C1700321017102214171012101807C
:1084D000704770B50546DFF878020C4685421CBF30
:1084E000DFF88002854205D040F246210FF2782065
:1084F000FDF7D9FF207A002818BF042805D040F2E4
:1085000047210FF26420FDF7CEFF607A002818BFE4
:10851000022805D04FF412710FF24C20FDF7C3FF73
:10852000A07A092805DB40F249210FF23C20FDF733
:10853000BAFFA86840011BD5002605EB0615D5F843
:10854000800100F00100C5F88001207AE0B92068C0
:10855000B0F5006F05D340F263210FF20C20FDF758
:10856000A2FFD5F880012168627A42EA41511DE0FC
:10857000A868000148BF0126DFD4A868C00048BF32
:108580000226DAD404263EE06068B0F1005F05D32D
:1085900040F269210FF2D010FDF785FFD5F8800178
:1085A0006168227A42EAC101627A11430843C5F840
:1085B0008001A07A00F00F00A07205F5C07041683C
:1085C0000909090141604168A27A11434160627B57
:1085D000A17B120442EA0161227B41EA0221E27A94
:1085E00011438160627CA17C120442EA0161227C19
:1085F00041EA0221E27B1143C160D5F8800140F0DD
:108600000100C5F88001304670BDF8B50446DFF8BA
:1086100040010D46164684421CBFDFF848018442E3
:1086200005D040F2F2210FF24010FDF73CFF2F0081
:1086300018BF012D05D00FF2301040F2F321FDF7E5
:1086400032FF04EB0510D0F8B0113172317A4907CE
:10865000D0F8B01159BF490D3160C9087160D0F828
:10866000B01101F00201717200F5D870416801F09B
:108670000F01B1724168090AF1748168F172816871
:10868000090A31738168090C71738168090EB1732D
:10869000C168F173C168090A3174C168090C717449
:1086A000C068000EB07425B9E06840F02000E060BA
:1086B000F1BD206940F020002061F1BD70B5044695
:1086C00023480D46164684421CBFDFF898008442BA
:1086D00005D04FF4A2610FF29000FDF7E4FE012DEA
:1086E00018BF022D24D0042D18BF082D20D0102D26
:1086F00018BF202D1CD0402D18BFB5F5807F17D096
:10870000B5F5007F18BFB5F5806F11D0B5F5006FD6
:1087100018BFB5F5004F0BD0B5F5803F18BFB5F5C4
:10872000003F05D00FF2400040F21151FDF7BBFEB3
:1087300056B1012E05D040F212510FF22C00FDF778
:10874000B2FE6069284301E06069A843606170BDC2
:108750000064004000680040688700080066004030
:108760004066004000680040433A5C546F6F6C7391
:108770005C574C39465C574C5F465F4D6F6E697471
:108780006F725F4150505C4C6962726172696573CF
:108790005C53544D3332463478785F53746450657B
:1087A000726970685F4472697665725C7372635C4B
:1087B00073746D3332663478785F63616E2E630054
:1087C00010B584B042F210700290A820ADF80400F9
:1087D0000020ADF80C00ADF8060001A9334C20468E
:1087E00002F0E4FC0121204602F090FD012201216B
:1087F000204602F0E9FE1E208DF8000000208DF8D2
:1088000001008DF8020001208DF8030000A802F09D
:108810002BFC27480021018041808180C18004B069
:1088200024484170017010BD4FF400612248FDF7EB
:1088300087BC4FF400612048FDF7AEBC30B51C4C3E
:1088400021880546C1B01B48A94202D0012100225F
:1088500008E0017821B1491C01700322002101E0E8
:108860000122012141700270417801291CBF017869
:10887000002913D10021417002208DF8000042210F
:1088800000A8417005F1100181700321C1700B48EF
:10889000007818B900A9042001F05BF8681E804137
:1088A000C043C00F208041B030BD00000008004030
:1088B0000C9100207690002000180240384E0020D5
:1088C00080B549B1C021084203D0410601D4010658
:1088D00004D500F1400201E000F1600202208DF8B1
:1088E00000004B2100A8417082700321D2B2C170F8
:1088F000482A02BF6B480088012806D16A480178DF
:1089000041F010010170FFF794FF6848007818B932
:1089100000A9042001F01DF801BD00B5C1B040F070
:1089200080008DF80100022200A88DF800208170DF
:108930000321C1705D48007818B900A9042001F036
:1089400008F841B000BD2DE9F041594C207860B9DC
:10895000A062002260680121FDF74AFCA0680122A4
:108960000221FDF745FC01221AE001280BD16068C5
:1089700001220121FDF73CFCA06800220221FDF745
:1089800037FC01220CE002280ED16068012201218F
:10899000FDF72EFCA06801220221FDF729FC002230
:1089A000E0680421FDF724FC00250FF2101604F105
:1089B00010074FF0060836F8021B57F8040BFDF7B6
:1089C00002FB401E8041C00F690051FA80F5B8F1EA
:1089D0000108F0D1A06A20B91DB1207805EB801004
:1089E000A0622078022824D1A06A08B920631FE081
:1089F000E16A81421AD1216B491C2163032905D107
:108A00002C4A107001211078FFF75AFF206BB0F547
:108A1000967F0ED1274AA06A1070FA202063107842
:108A2000202806DA0021FFF74BFF02E00021216336
:108A3000E0622078401CC0B20328A8BF002020704C
:108A4000BDE8F08110B584B040F6C4100290A820B3
:108A5000ADF804000020ADF80C00ADF8060001A947
:108A6000154C204602F0A2FB0121204602F04EFCEC
:108A700001220121204602F0A7FD32208DF80000DE
:108A800000208DF801008DF8020001208DF8030010
:108A900000A802F0E9FA07480021017004B010BDF7
:108AA000000000000C910020008E0020384E0020B5
:108AB000BC64002041910020000C0040000400082C
:108AC0000010002000400080DFF8D003407A00F062
:108AD0000300032803DA002818BF012800D0002073
:108AE0007047DFF8B803417A01F003010329BEBFE4
:108AF000C07A8009032807DA002908BF002803D0BC
:108B0000012908BF012800D000207047DFF88C033E
:108B1000407AC0F381010329BCBF8009032804DA2D
:108B200000290CBF0028012800D000207047DFF882
:108B30006C03407AC0F381010329BCBF800903287C
:108B400007DA002908BF002803D0012808BF01293F
:108B500000D000207047C0F38100032801DA01280B
:108B600000D000207047DFF834030079C0F3011013
:108B7000F3E7CA48017B01F0030103290CDA59B17C
:108B8000012902D10174002104E0022906D100214B
:108B90000174012141747047002101827047BF4870
:108BA000017BC1F38101032908DA11B901210022F7
:108BB00006E0012902D10021012201E0002100226A
:108BC0008174C2747047B648407800F007000728E7
:108BD00004DA18B1042801DA012070470020704738
:108BE000AF484078C0F3C200072804DA18B104285F
:108BF00001DA0120704700207047A848C179C1F30D
:108C00000112032A03DA012A18BF0022027589091A
:108C1000032903DA012918BF002141757047A148D3
:108C20000078C0F3011004280FDA012804D19B4812
:108C300001218175002107E0002818BF032804D115
:108C40009648002181750121C1757047F8B5934898
:108C5000007E4FF4800420B1934D286840F4E0007A
:108C600028601726914F904D2868204214BF01229A
:108C700000224FF400413846FDF7BAFA01224FF4C2
:108C800080413846FDF7B4FA0120FEF7B4FC00221B
:108C90004FF480413846FDF7ABFA6408761EE3D105
:108CA00001224FF400513846FDF7A2FA0120FEF7E9
:108CB000A2FC00224FF400513846FDF799FA01203A
:108CC000FEF799FC3846BDE8F84001224FF4005108
:108CD000FDF78EBA38B5714C04F1480004F170010B
:108CE000032250F8043C036051F8043C0B6050F838
:108CF000083C40F8043C51F8083C41F8043C50F86A
:108D00000C3C40F8083C0C3851F80C3C41F8083C4D
:108D10000C39521EE5D100206062FFF7F7FE401EBD
:108D20008041C043C00F6062FFF701FF00B1022025
:108D3000616A45186562FFF7C7FE00B10420451956
:108D40006562FFF7CEFE00B1082045196562FFF7A6
:108D500054FF207D00B110204019617D606201B197
:108D600020210D186562FFF71AFFE07C00B140205A
:108D70004019A17C606201B180210D186562FFF786
:108D8000F8FE207C08B14FF480704019617C60626D
:108D900009B14FF400710D186562FFF740FFA07D27
:108DA00008B14FF480604019E17D606209B14FF471
:108DB00000610818E17A6062C1F38101032904DAD5
:108DC000012908BF4FF4805100D000210818617BB1
:108DD000606201F00301032903DA11B14FF400517D
:108DE00000E000210D186562FFF7BDFE08B14FF4E9
:108DF00080404019217F6062C1F38101032904DAB8
:108E0000012908BF4FF4003100D000210D18656220
:108E1000FFF7D9FE08B14FF4004045196562FFF72E
:108E2000DFFE08B14FF480304019617A6062890931
:108E3000032901DA012900D00021626CA36CE164EE
:108E4000934204BFA36A9A4203D1834204BF164AE5
:108E50001060E06E226F824204BF226D904202D108
:108E60008A4208BF217631BD10B5104C01224FF463
:108E700080512046FDF7BCF90A20FEF7BCFB00221A
:108E80004FF480512046FDF7B3F907486FF07F415A
:108E90000160BDE81040D9E600000000C88F002046
:108EA000FC9000200491002020910020000402404A
:108EB00002464FF400416A48FDF79AB90246102174
:108EC0006848FDF795B910B50446224680216548EB
:108ED000FDF78EF96448047010BD0FF2A0126249CC
:108EE00032F8102048704A80104610B586B07021C4
:108EF000ADF8001002900121ADF802100421ADF888
:108F000004100221ADF80C100021ADF80E104FF442
:108F10008071ADF810100021ADF8121000A9534C6B
:108F2000204602F049FA0121204602F0EFF9012122
:108F3000204602F025FB06B010BD30B589B01020E8
:108F4000ADF81400FA210020ADF81600474C48484F
:108F50000068B0FBF1F0401E80B2069005A9002029
:108F6000ADF81C008DF81E00204602F01FF970209D
:108F7000ADF8000041F27F350120ADF80200029506
:108F80000420ADF8040000A90220ADF80C00002078
:108F9000ADF80E004FF48070ADF810000020ADF871
:108FA0001200204602F008FA0121204602F0AEF934
:108FB0000121204602F0E4FA4FF47A70FEF71BFB21
:108FC000294806214170458009B030BD38B5294C8B
:108FD000244D01280DD100224FF400712846FDF7E1
:108FE00007F90A20FEF707FB01224FF480712046A3
:108FF0000CE000224FF480712046FDF7F9F80A20BA
:10900000FEF7F9FA01224FF400712846BDE8384016
:10901000FDF7EEB818480078FBF786BD80B5164915
:109020000870FF2808BF002003D00121FBF756FE7F
:109030000120BDE80240C9E780B540F6B830FEF730
:10904000DAFA0020FFF7C2FFFFF777FF0022802146
:109050000448FDF7CDF804480021017001BD00006F
:10906000001802400008024038910020000401402E
:1090700014650020000002403F910020FE403E3772
:109080007E2DFE267F20FF197F13FF0C00000000BD
:1090900038B5044600F0D9F8DFF82054002210213A
:1090A0002846FDF7A5F8D82000F0A5F82002000E0C
:1090B00000F0A1F82004000E00F09DF8E0B200F0EE
:1090C0009AF8012210212846FDF792F8BDE83140B8
:1090D000CCE02DE9F84304460F46164600F0B5F8FB
:1090E000DFF8D893002210214846FDF781F80220CE
:1090F00000F081F83802000E00F07DF83804000E10
:1091000000F079F8F8B200F076F82EB3012794F861
:1091100000800025761E002220214846FDF768F8D1
:10912000C5F1070007FA00F04146014214BF0122D1
:10913000002280214846FDF75BF8012220214846A5
:10914000FDF756F840214846FCF73DFF6D1C082D01
:10915000E1DB641C002EDAD1012210214846FDF724
:1091600047F8BDE8F14381E02DE9F84380460F461A
:109170001646DFF84893002210214846FDF738F8DC
:10918000032000F038F83802000E00F034F83804FC
:10919000000E00F030F8F8B200F02DF83EB30127D1
:1091A00000240025761E002220214846FDF720F8E5
:1091B000C5F1070007FA00F010F0A50014BF012266
:1091C000002280214846FDF713F80122202148465D
:1091D000FDF70EF840214846FCF7F5FE6D1C40EA0D
:1091E0004404082DDFDB08F8014B002ED8D1484697
:1091F000BDE8F84336E02DE9F0410446002500269D
:109200000127DFF8B882002220214046FCF7F0FF5A
:10921000C6F1070007FA00F0044214BF0122002241
:1092200080214046FCF7E4FF012220214046FCF764
:10923000DFFF40214046FCF7C6FE761C40EA4505AC
:10924000082EE0DBE8B2BDE8F08110B59B4C0022AF
:1092500010212046FCF7CCFF0620FFF7CCFF20466C
:10926000BDE8104001221021FCF7C2BFF8B5934CB5
:10927000002210212046FCF7BBFF0520FFF7BBFFB3
:10928000012500260027002220212046FCF7B0FF00
:10929000C7F1070005FA00F010F0A50014BF012285
:1092A000002280212046FCF7A3FF01222021204636
:1092B000FCF79EFF40212046FCF785FE7F1C40EA1C
:1092C0004606082FDFDBF007DBD42046BDE8F84078
:1092D000C8E710B4002261B10FF2102310F8014B5F
:1092E0005440E4B233F8144084EA222292B2491E78
:1092F000F4D110BC1046704710B5012210216F4800
:10930000FCF776FF6E4C01224FF400612046FCF71B
:109310006FFF2046BDE8104001224FF48061FCF74A
:1093200067BF10B5012804D038D303280ED017D357
:1093300010BD644C207A30B94FF48030FFF7A8FE9E
:109340000120207227E0BDE810403FE05D4C207A0C
:1093500018B90120207203201DE0BDE8104079E01B
:109360004FF47C10FFF794FE5748564CB0F80110AC
:109370002171080A607106224FF47C112046FFF724
:10938000A8FE06224FF47C1104F10C00FFF7ECFE5E
:10939000002020720220BDE8104011E010BD80B511
:1093A00002218DF8001000AA4749B1F80130B1F848
:1093B00001105370090A91708DF8030000A990E024
:1093C00080B502218DF800104F2184E038B53E4C65
:1093D0004FF48061E01CFFF77CFFB4F8031488426F
:1093E00033D10620FFF7DBFFB4F80100800200F55F
:1093F00080354FF480722946E01CFFF76AFE4FF477
:10940000807205F5807104F20310FFF762FE4FF4DD
:10941000807205F5007104F20320FFF75AFE4FF445
:10942000807205F5407104F20330FFF752FE254CBF
:109430004FF48062294604F11400FFF795FE207A6C
:10944000022806D10020207231BD1520BDE832402F
:10945000A5E731BD70B51C4C4FF48061E01CFFF7EF
:1094600038FF184DB4F803146881884221D1B4F84C
:109470000100800200F58036FF224FF4806105F183
:10948000140002F095F94FF48062314605F11400A2
:10949000FFF76AFE4FF48062E11C05F1140002F050
:1094A000A5F930B9287A022804BF002028720620C6
:1094B00000E01520BDE8704071E7000000000240A8
:1094C00000080240304E00207087002080B5022145
:1094D0008DF80010F5218DF8011000A98870032087
:1094E000C870042000F035FA01BD00000000C1C0C2
:1094F00081C1400101C3C003800241C201C6C00650
:10950000800741C70005C1C581C4400401CCC00C1F
:10951000800D41CD000FC1CF81CE400E000AC1CADF
:1095200081CB400B01C9C009800841C801D8C018CF
:10953000801941D9001BC1DB81DA401A001EC1DE4F
:1095400081DF401F01DDC01D801C41DC0014C1D43F
:1095500081D5401501D7C017801641D601D2C0125F
:10956000801341D30011C1D181D0401001F0C0302F
:10957000803141F10033C1F381F240320036C1F64F
:1095800081F7403701F5C035803441F4003CC1FC1F
:1095900081FD403D01FFC03F803E41FE01FAC03ADF
:1095A000803B41FB0039C1F981F840380028C1E80F
:1095B00081E9402901EBC02B802A41EA01EEC02E4F
:1095C000802F41EF002DC1ED81EC402C01E4C0243F
:1095D000802541E50027C1E781E640260022C1E25F
:1095E00081E3402301E1C021802041E001A0C0606F
:1095F000806141A10063C1A381A240620066C1A64F
:1096000081A7406701A5C065806441A4006CC1AC1E
:1096100081AD406D01AFC06F806E41AE01AAC06ADE
:10962000806B41AB0069C1A981A840680078C1B8CE
:1096300081B9407901BBC07B807A41BA01BEC07E4E
:10964000807F41BF007DC1BD81BC407C01B4C0743E
:10965000807541B50077C1B781B640760072C1B25E
:1096600081B3407301B1C071807041B00050C190AE
:10967000819140510193C053805241920196C0564E
:10968000805741970055C19581944054019CC05C1E
:10969000805D419D005FC19F819E405E005AC19ADE
:1096A000819B405B0199C059805841980188C0480E
:1096B00080494189004BC18B818A404A004EC18E4E
:1096C000818F404F018DC04D804C418C0044C1843E
:1096D000818540450187C047804641860182C0425E
:1096E000804341830041C1818180404000B5010039
:1096F000DFF8780183B001694FF400624FF2FF7325
:1097000008D019404161009201218DF804108DF8B4
:10971000051005E019404161009200218DF8041008
:1097200000A9FCF7AFFB03B000BD70B504460120F3
:10973000FDF74EFF0825DFF83461E4B2E0094FF48D
:109740000061304602D0FCF7FBFC01E0FCF724FD91
:109750000120FDF73DFF4FF480613046FCF7F0FC3F
:109760000120FDF735FF64004FF480613046FCF7BF
:1097700013FD0120FDF72CFF6D1EDED14FF40061BB
:109780003046FCF709FD0120FDF722FF4FF4806110
:109790003046FCF7D5FC0120FDF71AFF3046BDE846
:1097A00070404FF48061FCF7F7BC70B504460D467D
:1097B000DFF8B8604FF400613046FCF7C1FC0120CF
:1097C000FFF794FF4FF400613046FCF7B9FC4FF40B
:1097D00080613046FCF7B4FC0120FDF7F9FE4FF440
:1097E00000613046FCF7D8FC0120FDF7F1FE4FF494
:1097F00080613046FCF7D0FC8A20FFF796FFE0B28C
:10980000FFF793FF2846FFF790FF4FF400613046C3
:10981000FCF7C2FC0120FDF7DBFE4FF4806130460F
:10982000FCF78EFC0120FDF7D3FE3046BDE870400A
:109830004FF40061FCF784BC10B5841C02E0FFF714
:10984000B4FFA41C20786178FF2808BFFF29F6D157
:109850000021FFF7AAFFBDE810404FF4FA70FDF7B2
:10986000B7BE00BF0248E7E7000000000004024066
:109870002462002000B597B00320009000200190E2
:109880000620029000200390049005904FF00050B5
:1098900006900020079002200890042009901020D4
:1098A0000A9000200B900C900D900E900F904FF4AA
:1098B00080501090002011901290139000A81490E6
:1098C000159007A801F0C4FF0121002002F023F940
:1098D00017B000BD7047000030B585B004460020C9
:1098E0000290ADF80C00ADF810000C20ADF80E00A1
:1098F00001A90FF29800224D50F82400019055F86C
:109900002400FEF7BBF955F824000121FEF77DFA8B
:1099100055F82400012240F22551FEF70DFB55F8C1
:109920002400002240F22771FEF706FB0FF27000C0
:1099300030F814008DF8000000208DF801008DF83B
:10994000020001208DF8030000A801F08DFB05B096
:1099500030BD10B5044604220B48FDF7BFFD094891
:109960000021C17001220421417040F22771044896
:1099700050F82400BDE81040FEF7DEBA00000000F9
:10998000F064002014910020778C0020000000007B
:109990000000000000C2010000E1000000C2010060
:1099A00000000000260000003400000000B585B073
:1099B00000A801F022FA01984FF47A71B0FBF1F09F
:1099C000B0F1807F65D20002DFF8C418000A401EA3
:1099D0004860F022DFF8BC08027000208860072091
:1099E0000860012001F0FAF90121012001F04CFA90
:1099F0000121022001F048FA0121042001F044FA7B
:109A00000121082001F040FA0121102001F03CFA68
:109A10000121202001F038FA0121402001F034FA20
:109A20000121084601F052FA0121042001F06FFAE9
:109A30000121082001F06BFA01214FF4804001F070
:109A400066FA01214FF4003001F061FA01214FF470
:109A5000002001F05CFA01214FF0007001F057FA8C
:109A600001214FF0806001F052FA0121022001F043
:109A700070FA0121102001F06CFA01214FF480509E
:109A800001F067FA01214FF4804001F062FA05B05D
:109A900000BDFEE72DE9FC414FF4C05000900220CC
:109AA0008DF8040000208DF8060001208DF80700D5
:109AB00002208DF8050000A9DFF8DC874046FCF79E
:109AC000E1F909220C214046FCF716FC09220B2182
:109AD0004046FCF711FC6020009002208DF8040045
