:020000040800F2
:1040000068080020ED630008996200089B620008C0
:104010009D6200089F620008A16200080000000085
:10402000000000000000000000000000A362000883
:10403000A562000800000000A7620008A96200084D
:104040002D640008316400083564000839640008F4
:104050003D640008416400084564000849640008A4
:104060004D64000851640008556400085964000854
:104070005D64000861640008656400086964000804
:104080006D640008716400087564000879640008B4
:104090007D64000881640008856400088964000864
:1040A0008D64000891640008956400089964000814
:1040B0009D640008A1640008FB620008A964000870
:1040C000AD640008B1640008B5640008B964000874
:1040D000BD640008C1640008C5640008C964000824
:1040E000CD640008D1640008D5640008D9640008D4
:1040F000DD640008E1640008E5640008E964000884
:10410000ED640008F1640008F5640008F964000833
:10411000FD640008016500080565000809650008E0
:104120000D6500081165000815650008196500088F
:104130001D6500082165000825650008296500083F
:104140002D650008316500083565000839650008EF
:104150003D6500084165000845650008496500089F
:104160004D6500085165000855650008596500084F
:104170005D650008616500086565000869650008FF
:104180006D6500087165000800B585B000A800F0F5
:10419000FAFC01984FF47A71B0FBF1F0B0F1807F36
:1041A00061D20002DFF89019000A401E4860F02238
:1041B000DFF888090270002088600720086001206D
:1041C00000F0D2FC0121012000F024FD0121022099
:1041D00000F020FD0121042000F01CFD0121082039
:1041E00000F018FD0121102000F014FD0121202015
:1041F00000F010FD0121402000F00CFD01210846D7
:1042000000F02AFD0121042000F047FD01214FF4B8
:10421000804000F042FD01214FF4003000F03DFDF0
:1042200001214FF4002000F038FD01214FF0007013
:1042300000F033FD01214FF0806000F02EFD0121E0
:10424000022000F04CFD0121102000F048FD01216A
:104250004FF4805000F043FD01214FF4804000F006
:104260003EFD05B000BDFEE72DE9F04F83B04FF4F1
:10427000C050009002208DF8040000208DF8060048
:1042800001208DF8070002208DF8050000A9DFF855
:10429000B068304600F09EFD09220C21304600F047
:1042A000F1FE09220B21304600F0ECFE6020009068
:1042B00002208DF8040000208DF8060001208DF802
:1042C000070002208DF8050000A9DFF87888404635
:1042D00000F080FD09220621404600F0D3FE0922AD
:1042E0000521404600F0CEFE0C20009000A90220DF
:1042F0008DF8040000208DF8060001208DF80700DD
:1043000002208DF80500304600F064FD07220221EE
:10431000304600F0B7FE07220321304600F0B2FE1F
:104320000320009000A902208DF8040000208DF8E1
:10433000060001208DF8070002208DF805003046A8
:1043400000F048FD07220021304600F09BFE0722C6
:104350000121304600F096FE01208DF804004FF454
:10436000805500208DF80600009501208DF807008B
:1043700002208DF8050000A9DFF8CC97484600F030
:1043800029FD0420009001208DF8040000208DF804
:10439000060001208DF8070002208DF8050000A915
:1043A000DFF8A8A7504600F015FDF020009000A906
:1043B00002208DF8040000208DF8060001208DF801
:1043C000070002208DF80500304600F003FD0522AD
:1043D0000421304600F056FE05220521304600F04B
:1043E00051FE05220621304600F04CFE0522072131
:1043F000304600F047FE4FF44064009401208DF8F1
:10440000040000A900208DF8060001208DF80700A7
:1044100002208DF80500484600F0DCFC00940120E5
:104420008DF8040000A900208DF8060001208DF809
:10443000070002208DF80500404600F0CBFC4FF449
:104440007040009000A902208DF8040000208DF833
:10445000060001208DF8070002208DF80500404677
:1044600000F0B8FC05220C21404600F00BFE0522AE
:104470000D21404600F006FE05220E21404600F0C8
:1044800001FE05220F21404600F0FCFD08200090AF
:1044900000A903208DF8040000208DF8070048468D
:1044A00000F098FC4FF4F860009000208DF80400B4
:1044B0008DF8060001208DF8070002208DF8050018
:1044C00000A9DFF88C46204600F084FC0120009013
:1044D00000A900208DF804008DF8060001208DF859
:1044E000070002208DF80500404600F073FC022012
:1044F000009000A901208DF8040000208DF806002E
:1045000001208DF8070002208DF80500404600F0DC
:1045100061FC1020009000A901208DF8040000200B
:104520008DF8060001208DF8070002208DF80500A7
:10453000484600F04FFC2020009000A900208DF894
:1045400004008DF8060001208DF8070002208DF888
:104550000500484600F03EFC4020009000A90220E3
:104560008DF8040000208DF8060001208DF807006A
:1045700003208DF80500484600F02CFC032206219C
:10458000484600F07FFD8020009000A901208DF8B2
:10459000040000208DF8060001208DF8070002209D
:1045A0008DF80500484600F015FC4FF4807000902F
:1045B00000A901208DF8040000208DF806000120DC
:1045C0008DF8070002208DF80500304600F002FC4F
:1045D0004FF40076009601208DF8040000A9002019
:1045E0008DF8060001208DF8070002208DF80500E7
:1045F000484600F0EFFB4FF40067009701208DF86C
:10460000040000208DF8060001208DF8070002202C
:104610008DF8050000A9DFF83CB5584600F0DAFB3C
:104620004FF40040009000A901208DF80400002004
:104630008DF8060001208DF8070002208DF8050096
:10464000584600F0C7FB4FF44070009000A90120CD
:104650008DF8040000208DF8060001208DF8070079
:1046600002208DF80500404600F0B4FB4FF4E070E6
:10467000009000A901208DF8040000208DF80600AC
:1046800001208DF8070002208DF80500584600F043
:10469000A1FB4FF4C040009000A901208DF8040058
:1046A00000208DF8060001208DF8070002208DF80B
:1046B0000500484600F08EFB009701208DF80400AD
:1046C00000A900208DF8060001208DF807000220C7
:1046D0008DF80500204600F07DFB4CF20370009041
:1046E00000A902208DF8040000208DF807000220A8
:1046F0008DF80500504600F06DFB0C220A21504653
:1047000000F0C0FC0C220921504600F0BBFC0C223A
:104710000821504600F0B6FC0C220121504600F062
:10472000B1FC0C220021504600F0ACFC0C220F2101
:10473000504600F0A7FC0C220E21504600F0A2FCCF
:104740004FF68070009000A9DFF80C74384600F036
:1047500041FB0C220F21384600F094FC0C220E2164
:10476000384600F08FFC0C220D21384600F08AFC00
:104770000C221146384600F085FC0C220B213846ED
:1047800000F080FC0C220A21384600F07BFC0C2251
:104790000921384600F076FC0C220821384600F04A
:1047A00071FC0C220721384600F06CFC4FF23F00F0
:1047B000009000A9204600F00DFB0C220F2120469E
:1047C00000F060FC0C220E21204600F05BFC0C2265
:1047D0000D21204600F056FC0C221146204600F028
:1047E00051FC0C220521204600F04CFC0C22042137
:1047F000204600F047FC0C220321204600F042FC3A
:104800000C220221204600F03DFC0C220121204612
:1048100000F038FC0C220021204600F033FC46F268
:104820003F00009000A9584600F0D4FA0C220E2157
:10483000584600F027FC0C220D21584600F022FCBF
:104840000C220521584600F01DFC0C22042158467C
:1048500000F018FC0C220321584600F013FC0C2237
:104860000221584600F00EFC0C220121584600F0AF
:1048700009FC0C220021584600F004FC4FF4605063
:10488000009000A9504600F0A5FA0C220D215046D8
:1048900000F0F8FB0C221146504600F0F3FB0C220E
:1048A0000B21504600F0EEFB7C20009000A938461A
:1048B00000F090FA0C220221384600F0E3FB0C22B3
:1048C0000621384600F0DEFB0C220521384600F0B8
:1048D000D9FB0C220421384600F0D4FB0C22032122
:1048E000384600F0CFFB7820009000A9504600F039
:1048F00071FA0C220421504600F0C4FB0C22052161
:10490000504600F0BFFB0C220621504600F0BAFBD7
:104910000C220321504600F0B5FB0320009000A9B3
:10492000384600F057FA0C220021384600F0AAFB66
:104930000C220121384600F0A5FB8020009000A940
:10494000504600F047FA0C220721504600F09AFB2F
:10495000009600A9584600F03DFA0C22092158465D
:1049600000F090FB4FF48060009000A9584600F0E2
:1049700031FA0C220A21584600F084FB009500A968
:10498000584600F027FA0C221146584600F07AFBF0
:1049900000F003F803B0BDE8F08F30B583B0042019
:1049A000009001208DF8040000208DF80600012001
:1049B0008DF8070002208DF8050000A9624C204602
:1049C00000F008FA4FF48070009000A901208DF8E3
:1049D000040000208DF8060001208DF80700022059
:1049E0008DF80500204600F0F5F9802000900120A8
:1049F0008DF8040000208DF8060001208DF80700D6
:104A000002208DF8050000A94E4D284600F0E2F97D
:104A10004FF40040009000A901208DF80400002010
:104A20008DF8060001208DF8070002208DF80500A2
:104A3000204600F0CFF90421204600F098FA4FF408
:104A40008071204600F093FA4FF40041204600F0B8
:104A50008EFA8021284600F08AFA03B030BD80B576
:104A6000FFF792FB4FF480414FF0006000F022FC12
:104A7000BDE80140FFF7F8BB38B50221314800F02E
:104A800076FA314C1021204600F071FA8021204640
:104A900000F06DFA2F4D4FF40061284600F067FAE0
:104AA0004FF40041284600F062FA4FF4805120464E
:104AB00000F05DFA0421254800F059FA4FF4007126
:104AC000204600F028FA4FF480711D4800F04FFA9C
:104AD0001F48BDE834404FF4006100F048BA00B50B
:104AE00014211E4800F04CFC1248072100F062FC23
:104AF00008211B4800F05EFC1A485DF804EB042115
:104B000000F058BC80B501224FF480510E4800F0EF
:104B10005AFA00F052FC00F051FC002000F0E1FCD9
:104B2000012000F01BFD012000F01EFDBDE801404A
:104B300000F086BD4800002010E000E023ED00E01A
:104B4000000002400004024000080240000C024045
:104B500000140240001802400010024034000020FF
:104B6000500000205C00002010B5040018BF012C8C
:104B700005D040F20F210FF2DC1000F096FDDFF8B7
:104B8000A801046010BDDFF89C114A6802F00C0215
:104B9000042A02D0082A03D01CE0DFF890211BE091
:104BA0000A680B68C2F3805203F03F03002A14BF67
:104BB000DFF87821DFF87821B2FBF3F20B68C3F35A
:104BC00088135A430B68C3F301435B1C5B00B2FBC1
:104BD000F3F201E0DFF8582102604B68DFF854215E
:104BE000D0F800C0C3F303139B5C2CFA03F34360BB
:104BF0004B68D0F804C0C3F382239B5C2CFA03F308
:104C0000836049684368C1F34231895C23FA01F14A
:104C1000C160704738B50446DFF81C010D460442F8
:104C200000D12CB940F246410FF2281000F03DFDB2
:104C300065B1012D05D00FF21C104FF4896100F011
:104C400034FDDFF8F8000168214303E0DFF8EC00F1
:104C50000168A143016031BD38B5044660080D46C6
:104C6000400000D12CB940F281410FF2E80000F081
:104C70001CFD65B1012D05D00FF2D80040F2824134
:104C800000F013FDDFF8B8000168214303E0DFF80E
:104C9000B0000168A143016031BD38B50446DFF8BA
:104CA000A4000D46044200D12CB940F2B3410FF2EA
:104CB000A40000F0FAFC65B1012D05D00FF29400BC
:104CC00040F2B44100F0F1FCDFF87C0001682143C0
:104CD00003E0DFF874000168A143016031BD38B51D
:104CE0000446DFF868000D46044200D12CB940F2BA
:104CF000DB410FF2600000F0D8FC65B1012D05D05A
:104D00000FF2500040F2DC4100F0CFFCDFF8400031
:104D10000168214303E0DFF838000168A143016026
:104D200031BD0000043802404C00474240787D010C
:104D30000024F4001400002000EE8B813038024083
:104D400038380240003601C940380240CCA0F8FF94
:104D500044380240433A5C546F6F6C735C49415273
:104D60002053797374656D735C456D626564646529
:104D70006420576F726B62656E636820362E355CF7
:104D8000576F726B53706163655C574C39465F4D6A
:104D90006F6E69746F725F4150505C4C69627261F2
:104DA000726965735C53544D3332463478785F537F
:104DB00074645065726970685F4472697665725C8C
:104DC0007372635C73746D3332663478785F7263C8
:104DD000632E63002DE9F84304460026DFF8A003A4
:104DE0000D4684421CBFDFF89C0384421FD0DFF8CD
:104DF000980384421CBFDFF89403844217D0DFF885
:104E0000900384421CBFDFF88C0384420FD0DFF88C
:104E1000880384421FBFDFF884038442DFF88003E5
:104E2000844204D0C1210FF27C3000F03EFC28689F
:104E300020B90FF27030C22100F037FC2879002829
:104E400018BF012808D0022818BF032804D0C321A6
:104E50000FF2503000F029FCE87940B1012818BF6A
:104E6000022804D00FF23C30C42100F01EFC0120C7
:104E700000FA06F8286808EA0000404546D17700A5
:104E80000320B8406FEA0009206809EA00002060AA
:104E900020682979B940084320602879012818BF83
:104EA00002282AD16879002818BF012808D00228D2
:104EB00018BF032804D0D6210FF2E82000F0F5FB3C
:104EC000A06809EA0000A060A0686979B9400843B9
:104ED000A060A879002818BF012804D0DD210FF2B6
:104EE000C42000F0E2FB606820EA080060606068AF
:104EF000A979B14089B208436060E06809EA00001E
:104F0000E060E068E979B9400843E060761C102E63
:104F1000ADD3BDE8F18338B5044699480D468442C7
:104F20001CBF9848844219D0974884421CBF9748B8
:104F3000844213D0964884421CBF964884420DD0C8
:104F4000954884421FBF954884429548844205D0C5
:104F500040F285110FF24C2000F0A7FB2DB90FF2A3
:104F600044204FF4C37100F0A0FB258331BD38B558
:104F7000044683480D4684421CBF8248844219D0AF
:104F8000814884421CBF8148844213D080488442B7
:104F90001CBF804884420DD07F4884421FBF7F4899
:104FA00084427F48844205D04FF4CC710FF2F41054
:104FB00000F07BFB2DB90FF2EC1040F2991100F0DC
:104FC00074FB658331BD70B504466D480D461646C9
:104FD00084421CBF6B48844219D06B4884421CBF7A
:104FE0006A48844213D06A4884421CBF694884429C
:104FF0000DD0694884421FBF684884426848844293
:1050000005D04FF4D6710FF29C1000F04EFB012D2D
:1050100018BF022D29D0042D18BF082D25D0102D22
:1050200018BF202D21D0402D18BF802D1DD0B5F5E3
:10503000807F18BFB5F5007F17D0B5F5806F18BF1A
:10504000B5F5006F11D0B5F5805F18BFB5F5005FFD
:105050000BD0B5F5804F18BFB5F5004F05D00FF256
:10506000441040F2AD1100F020FB4EB1012E05D0EE
:105070004FF4D7710FF22C1000F017FB258370BD91
:10508000658370BD70B506463D480D4614468642A0
:105090001CBF3C48864219D03B4886421CBF3B4857
:1050A000864213D03A4886421CBF3A4886420DD009
:1050B000394886421FBF394886423948864205D062
:1050C00040F21D210FF2DC0000F0EFFA002D18BFB6
:1050D000012D21D0022D18BF032D1DD0042D18BF86
:1050E000052D19D0062D18BF072D15D0082D18BF76
:1050F000092D11D00A2D18BF0B2D0DD00C2D18BF66
:105100000D2D09D00E2D18BF0F2D05D00FF29400D4
:1051100040F21E2100F0C9FA002C18BF092C1ED045
:10512000012C18BF022C1AD0032C18BF042C16D047
:10513000052C18BF062C12D0072C18BF082C0ED037
:105140000A2C18BF0B2C0AD00C2C1CBF0D2C0F2CBA
:1051500005D040F21F210FF24C0000F0A6FAE8083B
:1051600006EB800005F007018900026A0F238B40DF
:105170009A43026204FA01F1026A1143016270BDAE
:10518000000002400004024000080240000C0240FF
:10519000001002400014024000180240001C0240AF
:1051A00000200240433A5C546F6F6C735C4941527B
:1051B0002053797374656D735C456D6265646465D5
:1051C0006420576F726B62656E636820362E355CA3
:1051D000576F726B53706163655C574C39465F4D16
:1051E0006F6E69746F725F4150505C4C696272619E
:1051F000726965735C53544D3332463478785F532B
:1052000074645065726970685F4472697665725C37
:105210007372635C73746D3332663478785F677071
:10522000696F2E630000000070B50446E078002826
:1052300018BF012804D08D210FF2CC0000F035FA00
:105240006078102804DB8E210FF2BC0000F02DFAEC
:10525000A078102804DB8F210FF2AC0000F025FAB3
:105260002278E37811460120E3B1204A126863787E
:1052700002F4E062C2F5E062120AC2F10405AB403A
:10528000A5780F2626FA02F22A401A43184B12017B
:10529000CA542178174B4A0901F01F01884043F88E
:1052A000220070BD02F01F02134B4909904043F8E1
:1052B000210070BD38B504460D46B4F1005F18BF3B
:1052C000B4F1006F04D0B7210FF23C0000F0EDF90B
:1052D0000A48854204D3B8210FF22C0000F0E5F90A
:1052E0000748084928402043086031BD0CED00E024
:1052F00000E400E000E100E080E100E0FFFF0F00DB
:1053000080FFFF1F08ED00E0433A5C546F6F6C7341
:105310005C4941522053797374656D735C456D62CD
:10532000656464656420576F726B62656E636820A4
:10533000362E355C576F726B53706163655C574CEA
:1053400039465F4D6F6E69746F725F4150505C4CAF
:1053500069627261726965735C53544D33324634CD
:1053600078785F5374645065726970685F447269DD
:105370007665725C7372635C6D6973632E630000A3
:10538000002200F093B910B450F8041B81B10268F8
:105390001218001D50F8043BDC0744BFA9F10104BA
:1053A000E31852F8044B43F8044B091FF9D1EBE71B
:1053B00010BC7047002200F0A3B9704710B584B04C
:1053C00042F210700290A820ADF804000020ADF861
:1053D0000C00ADF8060001A9174C204600F0C0F9FA
:1053E0000121204600F06CFA01220121204600F044
:1053F000C5FB1E208DF8000000208DF801008DF8FF
:10540000020001208DF8030000A8FFF70DFF0B48F4
:105410000021018041808180C18004B00848417032
:10542000017010BD4FF400610648FFF774BD4FF4E2
:1054300000610448FFF79BBD0008004050000020B9
:10544000600000200018024000B50100DFF80001F4
:1054500083B001694FF400724FF6FF5308D0194032
:105460004161009201218DF804108DF8051005E0CE
:1054700019404161009200218DF8041000A9FFF746
:10548000A9FC03B000BD70B504460825DFF8C06074
:10549000E4B2E0094FF40071304602D0FFF73BFD63
:1054A00001E0FFF764FD4FF480713046FFF733FDF4
:1054B00064004FF480713046FFF759FD6D1EE7D14F
:1054C0004FF400713046FFF752FD4FF480713046C3
:1054D000FFF721FD3046BDE870404FF48071FFF7C3
:1054E00046BD38B504461A4D4FF400712846FFF703
:1054F00012FD0120FFF7A8FF4FF400712846FFF7C7
:105500000AFD4FF480712846FFF705FD4FF4007146
:105510002846FFF72CFD4FF480712846FFF727FD42
:10552000D020FFF7B0FF0A20FFF7ADFF2046FFF7BE
:10553000AAFF4FF400712846FFF719FD4FF4807160
:105540002846FFF7E8FC2846BDE8344002E00000AA
:10555000000402404FF40071FFF7DDBC02464FF437
:1055600000413F48FFF72FBD024610213D48FFF79D
:105570002ABD30B589B01020ADF81400FA21002002
:10558000ADF81600394C3A480068B0FBF1F0401E07
:1055900080B2069005A90020ADF81C008DF81E0011
:1055A000204600F0DDF87020ADF8000041F27F35B4
:1055B0000120ADF8020002950420ADF8040000A916
:1055C0000220ADF80C000020ADF80E004FF4807002
:1055D000ADF810000020ADF81200204600F0C6F92A
:1055E0000121204600F06CF90121204600F0A2FACA
:1055F0004FF47A7000F0D4FB1B48062141704580BF
:1056000009B030BD38B51B4C164D01280AD1002217
:105610004FF400712846FFF7D6FC01224FF4807149
:10562000204609E000224FF480712046FFF7CBFCB2
:1056300001224FF400712846BDE83840FFF7C3BC93
:1056400080B5002280210748FFF7BDFC06480021F5
:105650000170FFF78EFF0120BDE80240D2E7000095
:1056600000180240000802405C00002000040140D5
:10567000100000200000024080B500F0A7FB0020D1
:1056800002BD00B585B04FF4E130009000A90020C4
:105690000190ADF80800ADF80C000C20ADF80A0040
:1056A000002000F0C1FB05B000BDFEE700B500BF63
:1056B000130096469446103928BFA0E80C50FAD83B
:1056C0005FEA417C28BF0CC048BF40F8042BC907E3
:1056D00028BF20F8022B48BF00F8012B00BD50F86E
:1056E000041B61B150F8042BD30744BFA9F1010397
:1056F0009A18002342F8043B091FFAD1EFE77047DC
:10570000401810F0030308D0C91A1FD3DB0748BFA5
:1057100000F8012D28BF20F8022D130030B41446E4
:105720001546103928BF20E93C00FAD8490728BFA0
:1057300020E90C0048BF40F8042D890028BF20F85C
:10574000022D48BF00F8012D30BC7047C91818BFA2
:1057500000F8012DCB0728BF00F8012D704700008D
:1057600070B50446DFF824610D46B44218BFB4F1A9
:10577000804F35D0DFF8180184421CBFDFF81401D8
:1057800084422DD0DFF8100184421CBFDFF80C01E9
:10579000844225D0DFF8080184421CBFDFF80401F1
:1057A00084421DD0DFF8000184421CBFDFF8FC00FA
:1057B000844215D0DFF8F80084421CBFDFF8F40003
:1057C00084420DD0DFF8F00084421CBFDFF8EC000B
:1057D000844205D040F22511DFF88C01FFF765FF08
:1057E0006888002818BF10280AD020281CBF40282D
:1057F000602805D04FF49371DFF86C01FFF755FF77
:10580000288900281CBFB0F5807FB0F5007F05D047
:1058100040F22711DFF85001FFF747FF2088B4421C
:105820001CBFDFF880108C420ED0B4F1804F1CBF3B
:10583000DFF85C108C4207D0DFF858108C421CBF98
:10584000DFF854108C4204D14FF68F7108406988FC
:105850000843DFF848108C421CBFDFF844108C422C
:1058600004D04FF6FF410840298908432080B44204
:105870006868E0622888208519BFDFF82800844224
:10588000A87A20860120A08270BD0000000001409F
:105890000004004000080040000C004000100040E0
:1058A0000014004000040140004001400044014059
:1058B0000048014000180040001C0040002000404B
:1058C00038B50446DFF834020D46844218BFB4F1FF
:1058D000804F35D0DFF8280284421CBFDFF8240255
:1058E00084422DD0DFF8200284421CBFDFF83C0246
:1058F000844225D0DFF8380284421CBFDFF80C0256
:1059000084421DD0DFF8080284421CBFDFF8040285
:10591000844215D0DFF8000284421CBFDFF8FC018E
:1059200084420DD0DFF8F80184421CBFDFF8F40197
:10593000844205D040F25321DFF8EC01FFF7B5FEB9
:105940005DB1012D05D0DFF8E0014FF41571FFF7CF
:10595000ACFE208840F0010003E020884FF6FE7185
:105960000840208031BD00000C5D00082DE9F8439F
:105970000446DFF888910D464C4518BFB4F1804FBE
:105980002DD0DFF87C0184421CBFDFF8780184420F
:1059900025D0DFF8740184421CBFDFF87001844217
:1059A0001DD0DFF86C0184421CBFDFF8680184421F
:1059B00015D0DFF8640184421CBFDFF86001844227
:1059C0000DD0DFF85C0184421CBFDFF8580184422F
:1059D00005D04FF42971DFF85001FFF766FE2888E3
:1059E000002818BF10280DD0202818BF302809D053
:1059F000602818BF702805D040F2A521DFF82801E3
:105A0000FFF753FE6888002818BF012805D040F230
:105A1000A621DFF81401FFF748FEA889002818BF67
:105A2000022805D040F2A721DFF8FC00FFF73DFE79
:105A3000208C4FF6FE71084020844FF68C72208C2B
:105A4000A788218B11402A8842EA01084FF6FD7190
:105A50000840A9890843698841EA00064C451CBFF3
:105A6000DFF8A800844240D1A888002818BF042885
:105A700005D04FF43171DFF8B000FFF716FEE8896A
:105A8000002818BF082805D040F2C521DFF898008B
:105A9000FFF70BFE688AB0F5007F18BF002805D01D
:105AA00040F2C621DFF88000FFF7FFFD288AB0F53D
:105AB000807F18BF002805D040F2C721DFF86800BA
:105AC000FFF7F3FDE9894FF6F770304008434FF6D2
:105AD000FB710840A98841EA00064FF6FF40298A79
:105AE00038400843698A41EA0007A780A4F8188073
:105AF000A8686063FFE72684BDE8F18300000140E9
:105B00000004004000080040000C00400004014078
:105B1000004001400044014000480140001800409E
:105B2000001C0040002000400C5D000800100040F8
:105B30000014004038B5044639480D4684421CBF65
:105B40003B48844205D040F6D801DFF88401FFF7D6
:105B5000ACFD65B1012D05D0DFF8740140F6D90127
:105B6000FFF7A3FDB4F8440040F4004003E0B4F8AC
:105B700044004004400CA4F8440031BD70B5044614
:105B800027480D461646844218BFB4F1804F2BD0EB
:105B9000244884421CBF2448844225D023488442A0
:105BA0001CBFDFF8300184421ED0DFF82C01844294
:105BB0001CBF1F48844217D01E4884421CBF1E4889
:105BC000844211D01D4884421CBF1D4884420BD022
:105BD0001C4884421CBF1C48844205D040F6431137
:105BE000DFF80C01FFF761FD4FF47F40054200D163
:105BF0002DB940F64411DFF8F800FFF756FD56B115
:105C0000012E05D0DFF8E80040F64511FFF74DFD05
:105C1000A089284301E0A089A843A08170BD0000AD
:105C2000000001400004004000080040000C00405B
:105C30000004014000400140004401400048014090
:105C400000180040001C00400020004038B5044609
:105C5000DFF888000D46844218BFB4F1804F34D07D
:105C6000DFF87C0084421CBFDFF8780084422CD02F
:105C7000DFF8740084421CBFDFF85800844224D04F
:105C8000DFF8540084421CBFDFF8600084421CD05F
:105C9000DFF8600084421CBFDFF85C00844214D04F
:105CA000DFF8580084421CBFDFF8540084420CD057
:105CB000DFF8500084421CBFDFF84C00844204D05F
:105CC00040F6F9110248FFF7F0FCE843208231BDAD
:105CD0000C5D00080010004000140040000001406E
:105CE0000004004000080040000C00400004014097
:105CF0000C5D0008004001400044014000480140A4
:105D000000180040001C004000200040433A5C5452
:105D10006F6F6C735C4941522053797374656D7376
:105D20005C456D62656464656420576F726B626583
:105D30006E636820362E355C576F726B53706163EB
:105D4000655C574C39465F4D6F6E69746F725F4189
:105D500050505C4C69627261726965735C53544D5A
:105D60003332463478785F53746450657269706872
:105D70005F4472697665725C7372635C73746D33D1
:105D800032663478785F74696D2E63000348016869
:105D900011B10168491E01607047000058000020E1
:105DA00082B00021019144F2682108E0009A521C5F
:105DB0000092009A8A42F9D3019A521C0192019AE8
:105DC000824238BF0022F3D302B0704710B5FFF70C
:105DD00058FCFEF744FEFEF74FFEFEF780FEFEF78E
:105DE00091FE104C03E0FFF71DFB0120207020897D
:105DF000012804BF002020816089012804BF002001
:105E00006081A089012804BF0020A081E08A0128C8
:105E1000EDD10020E08220780028E4D0FFF707FBD6
:105E20000020E3E730000020F0B506460FF2BC008A
:105E30000FF2BC0283B0354650F8250052F82520F9
:105E40000C4601211043FEF7E5FE1EB9012110208A
:105E5000FEF723FF0FF2AC00DFF88C6030F815205E
:105E60000FF2980030F8151006EB8507D2B278686B
:105E7000FFF708F90FF2900030F815200FF28000BC
:105E800030F81510B868D2B2FFF7FCF800208DF892
:105E9000060000A901208DF8070002208DF80400FB
:105EA0000FF2500030F81500009002208DF8050028
:105EB0007868FEF78FFF02208DF8040000A90FF22A
:105EC000380030F815000090B868FEF783FF56F8E8
:105ED0002500214600F01AF856F82500012100F0AF
:105EE000DCF803B0F0BD0000240000200100000039
:105EF0000100000000020000000400000900000092
:105F00000A0000000700000007000000F0B504468A
:105F1000DFF8F071DFF8046285B00D46BC421CBFAB
:105F2000DFF8E401844213D0DFF8E00184421CBFB3
:105F3000DFF8DC0184420BD0DFF8D80184421CBFBB
:105F4000DFF8D401844203D0F1213046FFF7ADFBE6
:105F5000286818B1DFF8C811884203D3F22130460F
:105F6000FFF7A3FBA888002818BFB0F5805F03D017
:105F7000F3213046FFF799FBE888002818BFB0F5F9
:105F8000805F09D0B0F5005F18BFB0F5405F03D067
:105F9000F4213046FFF789FB288900281CBFB0F5A3
:105FA000806FB0F5C06F03D0F5213046FFF77DFB61
:105FB00068894FF6F371084200D118B9F6213046CE
:105FC000FFF773FBA889F8B1B0F5807F1CBFB0F56F
:105FD000007FB0F5407F05D0F7213046FFF765FB25
:105FE000A88988B1BC421CBFDFF81C0184420BD0D9
:105FF000DFF8180184421CBFDFF81C01844203D083
:10600000FC213046FFF751FB208A4CF6FF71084017
:10601000E988084320824EF6F311A0890840A98838
:1060200008432989084369890843A0814FF6FF4145
:10603000A08A0840A9890843A08200A8FEF7A3FD12
:10604000BC421BBFDFF8D000844203980298296845
:1060500019225043A28912044CBF49008900B0FBA9
:10606000F1F16420B1FBF0F000010209642303FBAD
:106070001211A289120406D5C9003231B1FBF3F125
:1060800001F0070105E009013231B1FBF3F101F044
:106090000F010843208105B0F0BD38B50446DFF894
:1060A00064000D4684421CBFDFF85C00844215D0BA
:1060B000DFF8580084421CBFDFF8540084420DD042
:1060C000DFF8500084421CBFDFF84C00844205D04A
:1060D00040F2A1110FF24C00FFF7E7FA5DB1012D7C
:1060E00005D00FF240004FF4D171FFF7DEFAA0891E
:1060F00040F4005003E0A0894DF6FF710840A081F4
:1061000031BD000000100140004400400048004044
:10611000004C004000500040001401402461000881
:10612000E1707200433A5C546F6F6C735C4941528A
:106130002053797374656D735C456D626564646545
:106140006420576F726B62656E636820362E355C13
:10615000576F726B53706163655C574C39465F4D86
:106160006F6E69746F725F4150505C4C696272610E
:10617000726965735C53544D3332463478785F539B
:1061800074645065726970685F4472697665725CA8
:106190007372635C73746D3332663478785F7573D1
:1061A0006172742E630000003248334A82B0016885
:1061B00041F4700101603148016841F00101016062
:1061C000002181600168114001602D494160016832
:1061D00021F4802101600021C160019100910168DA
:1061E00041F480310160016801F4003100910199AE
:1061F000491C0191009919B90199B1F5A06FF2D12B
:106200000168490C01F001010091009901292CD18C
:10621000016C41F0805101641A490A6842F48042DD
:106220000A6081688160816841F400418160816811
:1062300041F4A051816014494160016841F08071CE
:10624000016001688901FCD540F205620F490A60CE
:106250008168890889008160816841F0020181605C
:10626000816801F00C010829FAD109480949016047
:1062700002B0704788ED00E0FFFFF6FE00380240F4
:10628000103000240070004019544007003C0240C8
:1062900008ED00E0004000087047FEE7FEE7FEE77B
:1062A000FEE770477047704780B5FFF76FFD2248E3
:1062B000016801228280491C0A22B1FBF2F202EB42
:1062C0008203B1EB430216D10122C280642364220F
:1062D000B1FBF2F203FB12126AB9012202814FF400
:1062E0007A734FF47A72B1FBF2F203FB121212B915
:1062F000012141820021016001BD10B501210F483B
:10630000FFF7A4FC0E4C2088022808D1A0886288E0
:10631000411C9042A18004D30020208010BD0128A0
:1063200003D1BDE81040FFF77DB8FFF780F80020EB
:1063300020806080A08010BD340000200008004054
:106340005000002010B5074979441831064C7C44B0
:10635000163404E00A68081D511888470146A14216
:10636000F8D110BD080000002800000073F3FFFF03
:106370003400000030000020000000000BF0FFFFA0
:1063800030000000F00100000000002000000000CC
:106390004EF68851CEF20001086840F470000860A3
:1063A0004FF00070E1EE100A7047000000F009F8AD
:1063B000002801D0FFF7C6FF0020FFF75DF900F0CD
:1063C00002F80120704700F001B800000746384687
:1063D00000F002F8FBE7000080B5C046C046024A64
:1063E00011001820ABBEFBE72600020001488047E1
:1063F00001480047A9610008FD630008C046C04687
:10640000FFF7C6FFFFF7D2FFFFF746BFFFF745BF15
:10641000FFF744BFFFF743BFFFF742BFFFF741BF9E
:10642000FFF740BFFFF73FBFFFF73EBFFFF7FEBFDD
:10643000FFF7FEBFFFF7FEBFFFF7FEBFFFF7FEBF90
:10644000FFF7FEBFFFF7FEBFFFF7FEBFFFF7FEBF80
:10645000FFF7FEBFFFF7FEBFFFF7FEBFFFF7FEBF70
:10646000FFF7FEBFFFF7FEBFFFF7FEBFFFF7FEBF60
:10647000FFF7FEBFFFF7FEBFFFF7FEBFFFF7FEBF50
:10648000FFF7FEBFFFF7FEBFFFF7FEBFFFF7FEBF40
:10649000FFF7FEBFFFF7FEBFFFF7FEBFFFF7FEBF30
:1064A000FFF7FEBFFFF729BFFFF7FEBFFFF7FEBFF5
:1064B000FFF7FEBFFFF7FEBFFFF7FEBFFFF7FEBF10
:1064C000FFF7FEBFFFF7FEBFFFF7FEBFFFF7FEBF00
:1064D000FFF7FEBFFFF7FEBFFFF7FEBFFFF7FEBFF0
:1064E000FFF7FEBFFFF7FEBFFFF7FEBFFFF7FEBFE0
:1064F000FFF7FEBFFFF7FEBFFFF7FEBFFFF7FEBFD0
:10650000FFF7FEBFFFF7FEBFFFF7FEBFFFF7FEBFBF
:10651000FFF7FEBFFFF7FEBFFFF7FEBFFFF7FEBFAF
:10652000FFF7FEBFFFF7FEBFFFF7FEBFFFF7FEBF9F
:10653000FFF7FEBFFFF7FEBFFFF7FEBFFFF7FEBF8F
:10654000FFF7FEBFFFF7FEBFFFF7FEBFFFF7FEBF7F
:10655000FFF7FEBFFFF7FEBFFFF7FEBFFFF7FEBF6F
:10656000FFF7FEBFFFF7FEBFFFF7FEBFFFF7FEBF5F
:10657000FFF7FEBF0000000000000000010203045E
:1065800006070809007A030A00000000010203045C
:106590000102030406070809001001400000024040
:0465A00000000240B5
:04000005080063FD8F
:00000001FF
