:020000040800F2
:10400000683D0020B1A70008F7930008F993000865
:10401000FB930008FD930008FF93000800000000D8
:1040200000000000000000000000000001940008F3
:10403000039400080000000005940008079400089D
:10404000F1A70008F5A70008F9A70008FDA70008D8
:1040500001A8000805A8000809A800080DA8000884
:1040600011A8000815A8000819A800081DA8000834
:1040700021A8000825A8000829A800082DA80008E4
:1040800031A8000835A8000839A800083DA8000894
:104090005B94000845A8000849A800084DA800083E
:1040A00051A8000855A8000859A800085DA80008F4
:1040B00061A8000865A80008959500086DA800088B
:1040C00071A8000875A8000879A800087DA8000854
:1040D00081A8000885A80008EB9500088DA80008B5
:1040E00091A8000895A8000899A800089DA80008B4
:1040F000A1A80008A5A80008A9A80008ADA8000864
:10410000B1A80008B5A80008D7950008BDA8000808
:1041100067980008C5A80008C9A80008CDA800082D
:10412000D1A80008D5A80008D9A80008DDA8000873
:10413000E1A80008E5A80008E9A80008EDA8000823
:10414000F1A80008F5A80008F9A80008FDA80008D3
:1041500001A9000805A9000809A900080DA900087F
:1041600011A9000815A9000819A900081DA900082F
:1041700021A9000825A9000829A900082DA90008DF
:1041800031A9000835A900081CB501F037FA0F2342
:104190000F220221032000F00DFA1F2001900023BE
:1041A0002D2000901A461146032001F00DF91F2022
:1041B000019000232D2000901A460121032001F0D8
:1041C00003F91F20019000232D2000901A460221A0
:1041D000032001F0F9F81F20019000232D2000900A
:1041E00003211A46084601F0EFF81F200090002234
:1041F0002D231146032001F066F9F023102202213D
:10420000032000F0D7F9502000901022DFF870470B
:1042100004F108030221032000F06DFA20798009DF
:1042200028D12020009004F15803602202210320AD
:1042300000F061FA2020009004F17803802202212E
:10424000032000F058FA2020009004F17803A02207
:104250000221032000F04FFA2020009004F178039F
:10426000C0220221032000F046FA2020009004F131
:10427000780324E02020009004F1980360220221BA
:10428000032000F038FA20200090B8342346802222
:104290000221032000F02FFA202000902346A022C4
:1042A0000221032000F027FA202000902346C0229C
:1042B0000221032000F01FFA202000902346E02274
:1042C0000221032000F017FA13BD2DE9F041DFF8B9
:1042D000B046DFF8B086A0700E46207940F00400AA
:1042E000207115464FF48051404601F015FBDFF870
:1042F00098764FF48041384601F0E2FA4FF40051CD
:10430000384601F0DDFA4FF40051404601F004FB5D
:104310004FF48061384601F0FFFA4FF4805138467F
:1043200001F0CEFA002000F00DFB384601F09AFAB9
:1043300000F47F4046EA0001384601F078FB4FF474
:104340008051404601F0BCFA4FF48051404601F0E4
:10435000E3FA002000F0F6FA384601F083FA00F4A0
:104360007F4045EA0001384601F061FB4FF40051FF
:10437000384601F0D1FA4FF40051384601F0A0FA66
:104380004FF48051404601F0C7FA4FF4804138465F
:1043900001F096FA4FF40051384601F091FA4FF4CB
:1043A0000051404601F0B8FA4FF48061384601F000
:1043B00087FA4FF48051384601F082FA002000F06D
:1043C000C1FA384601F04EFA40F0FF01384601F0DC
:1043D0002EFB207900F0FB002071BDE8F0812DE973
:1043E000F041DFF89C55DFF89C65A8700F462879EE
:1043F00040F00400287114464FF48051304601F01B
:104400008BFADFF884854FF48041404601F058FA7A
:104410004FF40051404601F053FA4FF4005130463A
:1044200001F07AFA4FF48061404601F075FA4FF4DA
:104430008051404601F044FA002000F083FA4046E3
:1044400001F010FA00F47F4047EA0001404601F015
:10445000EEFA4FF48051304601F032FA4FF48051B9
:10446000304601F059FA2778002000F06BFA4046F8
:1044700001F0F8F900F47F4047EA0001404601F0FE
:10448000D6FA4FF40051404601F046FA4FF400517D
:10449000404601F015FA6778002000F053FA4046D4
:1044A00001F0E0F900F47F4047EA0001404601F0E6
:1044B000BEFA4FF40051404601F02EFA4FF400517D
:1044C000404601F0FDF9A778002000F03BFA404695
:1044D00001F0C8F900F47F4047EA0001404601F0CE
:1044E000A6FA4FF40051404601F016FA4FF400517D
:1044F000404601F0E5F9E778002000F023FA404655
:1045000001F0B0F900F47F4047EA0001404601F0B5
:104510008EFA4FF40051404601F0FEF94FF400517D
:10452000404601F0CDF92479002000F00BFA404616
:1045300001F098F900F47F4044EA0001404601F0A0
:1045400076FA4FF40051404601F0E6F94FF400517D
:10455000404601F0B5F94FF48051304601F0DCF9E6
:104560004FF48041404601F0ABF94FF40051404612
:1045700001F0A6F94FF40051304601F0CDF94FF4A7
:104580008061404601F09CF94FF48051404601F0B3
:1045900097F9002000F0D6F9404601F063F940F0A9
:1045A000FF01404601F043FA287900F0FB00287132
:1045B000BDE8F0812DE9F843DFF8C443DFF8C48398
:1045C000A0700F46207940F00400207191461E46ED
:1045D0004FF48051404601F09FF9DFF8AC534FF49F
:1045E0008041284601F06CF94FF40051284601F053
:1045F00067F94FF40051404601F08EF92FB94FF49E
:104600008051284601F088F913E0012F0AD14FF4B8
:104610008051284601F080F94FF48061284601F06E
:104620004FF90BE0022F09D14FF48051284601F0D9
:1046300047F94FF48061284601F06EF9002000F040
:1046400081F9284601F00EF900F47F4049EA0001A3
:10465000284601F0ECF94FF48051404601F030F962
:104660004FF48051404601F057F9002000F06AF9FC
:10467000284601F0F7F800F47F4046EA000128469A
:1046800001F0D5F94FF40051284601F045F94FF4F7
:104690000051284601F014F94FF48051404601F0D2
:1046A0003BF94FF48041284601F00AF94FF40051DC
:1046B000284601F005F94FF40051404601F02CF96D
:1046C0004FF48061284601F0FBF84FF480512846F2
:1046D00001F0F6F8002000F035F9284601F0C2F8A4
:1046E00040F0FF01284601F0A2F9207900F0FB001C
:1046F0002071BDE8F1832DE9F843DFF88452DFF83B
:104700008482A8700F46287940F00400287114466E
:104710001E464FF48051404601F0FEF8DFF86892E3
:104720004FF48041484601F0CBF84FF40051484621
:1047300001F0C6F84FF40051404601F0EDF82FB9F2
:104740004FF48051484601F0E7F813E0012F0AD1F9
:104750004FF48051484601F0DFF84FF4806148463D
:1047600001F0AEF80BE0022F09D14FF4805148461A
:1047700001F0A6F84FF48061484601F0CDF8002022
:1047800000F0E0F8484601F06DF800F47F4044EA9C
:104790000001484601F04BF94FF48051404601F0CA
:1047A0008FF84FF48051404601F0B6F8089CA4B24F
:1047B000D4B116F8017B002000F0C4F8484601F09F
:1047C00051F800F47F4047EA0001484601F02FF914
:1047D0004FF40051484601F09FF84FF4005148460D
:1047E00001F06EF8641EE4D14FF48051404601F0B0
:1047F00093F84FF48041484601F062F84FF40051BD
:10480000484601F05DF84FF40051404601F084F84D
:104810004FF48061484601F053F84FF48051484608
:1048200001F04EF8002000F08DF8484601F01AF82B
:1048300040F0FF01484601F0FAF8FFE7287900F060
:10484000FB002871BDE8F183F8B54D4C4D4DA070CB
:104850004FF48051207940F004002071284601F087
:104860005BF8494E4FF48041304601F029F84FF48F
:104870000051304601F024F84FF40051284601F071
:104880004BF84FF48061304601F046F84FF4805108
:10489000304601F015F8002000F054F8304600F0E2
:1048A000E1FF00F47F4040F00A01304601F0BFF81C
:1048B0004FF48051284601F003F84FF48051284608
:1048C00001F02AF8002000F03DF8304600F0CAFF61
:1048D00040F0FF01304601F0AAF84FF48041304625
:1048E00001F01AF8012000F02DF8304600F08CFF9E
:1048F00007464FF48041304600F0E2FF4FF480510C
:10490000284601F009F84FF48041304600F0D8FF06
:104910004FF40051304600F0D3FF4FF400512846C9
:1049200000F0FAFF4FF48061304600F0C9FF4FF409
:104930008051304600F0C4FF207900F0FB00207168
:10494000F8B2F2BD00B583B018B9FF200090012085
:1049500004E0012811D1FF20009000208DF8040010
:1049600000A902208DF8050000208DF80600012026
:104970008DF80700044800F045FE03B000BD0000BC
:1049800050110020000C02400018024000B583B016
:10499000002840F01E81002935D01F200190002200
:1049A0002D20009000231146032000F00DFDDFF8BC
:1049B000E007019005220020009003464C210320CF
:1049C00000F0F0FBDFF8CC070190052200200090FA
:1049D0000346A221032000F0E5FBDFF8BC070190AD
:1049E0007D220020009003464C21032000F0DAFBDA
:1049F000DFF8A80701907D22002000900346A22145
:104A0000032000F0CFFB0123802200210320FFF7C9
:104A1000D1FD7F23812200210320FFF7CBFDFF235F
:104A2000822200210320FFF7C5FD7F23832200217E
:104A30000320FFF7BFFDFF23842200210320FFF79F
:104A4000B9FD4123902200210320FFF7B3FD7F230E
:104A5000912200210320FFF7ADFDFF2392220021C8
:104A60000320FFF7A7FD7F23932200210320FFF7F8
:104A7000A1FDFF23942200210320FFF79BFD81234A
:104A8000A02200210320FFF795FD7F23A122002112
:104A90000320FFF78FFDFF23A22200210320FFF751
:104AA00089FD7F23A32200210320FFF783FDFF233D
:104AB000A42200210320FFF77DFDC123B0220021A5
:104AC0000320FFF777FD7F23B12200210320FFF7AA
:104AD00071FDFF23B22200210320FFF76BFD7F232E
:104AE000B32200210320FFF765FDFF23B42200213C
:104AF0000320FFF75FFD8023102201210320FFF731
:104B000059FD8123182201210320FFF753FD822341
:104B1000202201210320FFF74DFD832328220121BC
:104B20000320FFF747FD0023302201210320FFF778
:104B300041FD5823312201210320FFF73BFD0023D3
:104B4000322201210320FFF735FD3C2333220121CE
:104B50000320FFF72FFD5823342201210320FFF704
:104B600029FDB023352201210320FFF723FD002377
:104B7000362201210320FFF71DFD3C2337220121AE
:104B80000320FFF717FD0023382201210320FFF740
:104B900011FD5823392201210320FFF70BFD3C238F
:104BA0003A2201210320FFF705FD78233B22012152
:104BB0000320FFF7FFFC58233C2201210320FFF7CD
:104BC000F9FCB0233D2201210320FFF7F3FC3C2335
:104BD000B6E2012840F0A280F9B11F200190002226
:104BE0002D20009000231146032000F0EDFBDFF89C
:104BF000A005019005220020009003464C210320CF
:104C000000F0D0FADFF88C0501900522002000901A
:104C10000346A221032000F0C5FA012380220021CF
:104C20000320FFF7C7FCFF23812200210320FFF7A9
:104C3000C1FCFF23822200210320FFF7BBFC7F235E
:104C4000832200210320FFF7B5FCFF2384220021EB
:104C50000320FFF7AFFC4123902200210320FFF740
:104C6000A9FCFF23912200210320FFF7A3FCFF23CF
:104C7000922200210320FFF79DFC7F239322002135
:104C80000320FFF797FCFF23942200210320FFF766
:104C900091FC8023102201210320FFF78BFC81234C
:104CA000182201210320FFF785FC02232022012185
:104CB0000320FFF77FFC0323282201210320FFF7B5
:104CC00079FC0023302201210320FFF773FC5823D5
:104CD000312201210320FFF76DFC00233222012144
:104CE0000320FFF767FC7823332201210320FFF71D
:104CF00061FC5823342201210320FFF75BFCB02321
:104D0000352201210320FFF755FC00233622012123
:104D10000320FFF74FFC7823372218E2022840F0E7
:104D20008F80F9B11F20019000222D2000900023D8
:104D30001146032000F048FBDFF85C0401900522D7
:104D40000020009003464C21032000F02BFADFF8EE
:104D50004C0401900522002000900346A22103206C
:104D600000F020FA8123A02200210320FFF722FC7B
:104D7000FF23A12200210320FFF71CFCFF23A22216
:104D800000210320FFF716FC7F23A322002103202C
:104D9000FFF710FCFF23A42200210320FFF70AFCE9
:104DA000C123B02200210320FFF704FCFF23B1221E
:104DB00000210320FFF7FEFBFF23B2220021032086
:104DC000FFF7F8FB7F23B32200210320FFF7F2FB5C
:104DD000FF23B42200210320FFF7ECFB0023102265
:104DE00001210320FFF7E6FB012318220121032004
:104DF000FFF7E0FB8223202201210320FFF7DAFBEB
:104E00008323282201210320FFF7D4FB002338222B
:104E100001210320FFF7CEFB582339220121032073
:104E2000FFF7C8FB00233A2201210320FFF7C2FB52
:104E300078233B2201210320FFF7BCFB582373E1B9
:104E400003285FD199B11F20019000222D200090EE
:104E500000231146032000F0B7FACD480190052247
:104E6000002000900346A221032000F09BF90123BB
:104E7000802200210320FFF79DFBFF2381220021D8
:104E80000320FFF797FBFF23822200210320FFF777
:104E900091FBFF23832200210320FFF78BFBFF23DD
:104EA000842200210320FFF785FB802310220121AB
:104EB0000320FFF77FFB0123182201210320FFF7C6
:104EC00079FB0223202201210320FFF773FB032338
:104ED000282201211846FFF76DFB00233022012113
:104EE0000320FFF767FBB023312201210320FFF7E6
:104EF00061FB0023322201210320FFF75BFB7823B3
:104F0000332224E104285FD199B11F2001900022AF
:104F10002D20009000231146032000F055FA9D48F3
:104F200001900522002000900346A221032000F0FA
:104F300039F94123902200210320FFF73BFBFF2397
:104F4000912200210320FFF735FBFF23922200214D
:104F50000320FFF72FFBFF23932200210320FFF7FD
:104F600029FBFF23942200210320FFF723FB0023CA
:104F7000102201210320FFF71DFB812318220121AC
:104F80000320FFF717FB0223202201210320FFF754
:104F900011FB0323282201210320FFF70BFB002331
:104FA000342201210320FFF705FBB0233522012124
:104FB0000320FFF7FFFA0023362201210320FFF729
:104FC000F9FA78233722C2E005285FD199B11F2072
:104FD000019000222D20009000231146032000F0B4
:104FE000F3F96D4801900522002000900346A221AC
:104FF000032000F0D7F88123A02200210320FFF72F
:10500000D9FAFF23A12200210320FFF7D3FAFF23BF
:10501000A22200210320FFF7CDFAFF23A3220021C3
:105020000320FFF7C7FAFF23A42200210320FFF784
:10503000C1FA0023102201210320FFF7BBFA01234C
:10504000182201210320FFF7B5FA82232022012133
:105050000320FFF7AFFA0323282201211846FFF7A8
:10506000A9FA0023382201210320FFF7A3FAB02375
:10507000392201210320FFF79DFA00233A22012162
:105080000320FFF797FA78233B2260E0062865D1DA
:1050900099B11F20019000222D200090002311467D
:1050A000032000F091F93D48019005220020009076
:1050B0000346A221032000F075F8C123B02200218D
:1050C0000320FFF777FAFF23B12200210320FFF727
:1050D00071FAFF23B22200210320FFF76BFAFF23AE
:1050E000B32200210320FFF765FAFF23B422002139
:1050F0000320FFF75FFA0023102201210320FFF7AE
:1051000059FA0123182201210320FFF753FA022341
:10511000202201210320FFF74DFA832328220121B9
:105120000320FFF747FA00233C2201210320FFF769
:1051300041FAB0233D2201210320FFF73BFA00236F
:105140003E2201210320FFF735FA78233F2203B0E6
:105150005DF804EB01210320FFF72CBA03B000BD7A
:1051600010B582B0FF20009000220D4C2346002194
:105170000320FFF7C0FAFF20009004F5807300229F
:1051800001210320FFF7B7FABDE81340FEF7FCBF8B
:105190000000002078030020F0060020680A0020AC
:1051A000E00D0020FFE72DE9FE4F8AB080461798FA
:1051B000179003F0070717990078497801EB002052
:1051C00080B2049003F0C005179817998078C978C9
:1051D000DDF810C001EB0020179909791FFA80F95A
:1051E00016980A4619FB0CFC90FBF2F31CFB01F12C
:1051F00011FB03F102FB130010FB091080B20690B3
:10520000002206214046FFF760F8002208214046B0
:10521000FFF75BF81798007900FB09F080B2059062
:105220000020019004980128C0F2CB800020039058
:10523000B80080308DF8010007AF4EE01798305C61
:1052400028438DF81C004FEAA40A179830180AF07A
:105250000F0B41782943797007AA81782943B970E7
:105260000021C0782843F870ABF1800038714046C7
:10527000FFF7B5F8BBF10F0F02D0201D48451EDB2C
:105280009DF828005044A0EB0B02D2B20521404605
:10529000FFF71BF89DF8000040EA0B1040F00A02EF
:1052A00009214046FFF711F84046FFF7CDFA000606
:1052B000FAD49DF801200A214046FFF706F8201D88
:1052C00084B2361D4C45B9DB01980599801C80B22B
:1052D0000190039800EB41000390019804998842E3
:1052E0006FDA03A8068805980199801980B20990A1
:1052F0004910BDF82C0011FA80F00290C2B20721CB
:105300004046FEF7E2FF0024B9F1010FDCDB06980E
:105310003018401D86B20298001280008DF80000FF
:1053200041E01798305C28438DF81C004FEAA40A2E
:10533000179830180AF00F0B41782943797007AAA3
:1053400081782943B9700021C0782843F870ABF107
:10535000800038714046FFF742F8BBF10F0F02D0D2
:10536000201D48451CDB9DF828005044A0EB0B0293
:10537000D2B205214046FEF7A8FF9DF8000040EAA2
:105380000B1209214046FEF7A0FF4046FFF75CFAEA
:105390000006FAD49DF801200A214046FEF795FF49
:1053A000201D84B2361D4C45BBDB069809990818B0
:1053B000401D86B202980012800000248DF8000083
:1053C00080E70DB0BDE8F08F2DE9F8430E46914619
:1053D000089C80461D46FF220021FEF776FFFF2233
:1053E00001214046FEF771FFFF2202214046FEF7F1
:1053F0006CFFFF2203214046FEF767FFE80000EB49
:105400004505EAB207214046FEF75FFF099880B2E2
:10541000410011FA85F101EBC000401E87B2FAB2DB
:1054200008214046FEF751FF2904080E390A01EB16
:10543000800040F00202D2B209214046FEF745FF4B
:10544000A000C0B24FEA8907040900F00F0519D087
:10545000FAB205210020FEF738FF200150FA87F24A
:10546000D2B206210020FEF730FFB00000F1C002EA
:10547000D2B20A210020FEF728FF4046FFF7E4F9E8
:105480000006FAD4EDB1200150FA87F2D2B205211C
:105490000020FEF71AFF07EB04102818421ED2B2B4
:1054A00006210020FEF711FFB00000F1C002D2B2C9
:1054B0000A210020FEF709FF4046FFF7C5F9000664
:1054C000FAD4BDE8F1832DE9F0410E461746804637
:1054D0001D46FF220021FEF7F8FEFF220121404673
:1054E000FEF7F3FEFF2202214046FEF7EEFEFF220A
:1054F00003214046FEF7E9FEF80000EB4707FAB249
:1055000007214046FEF7E1FE069880B2410011FAFD
:1055100087F101EBC000401E84B2E2B20821404690
:10552000FEF7D3FE3F04380E210A01EB800040F065
:105530000202D2B209214046FEF7C7FE680076009B
:10554000C0B2050900F00F0716D0F2B20521002005
:10555000FEF7BBFE280150FA86F2D2B206210020E7
:10556000FEF7B3FEE0220A210020FEF7AEFE404621
:10557000FFF76AF90006FAD4D7B1280150FA86F28B
:10558000D2B205210020FEF7A0FE06EB0510381868
:10559000421ED2B206210020FEF797FEE0220A2129
:1055A0000020FEF792FE4046FFF74EF90006FAD4BF
:1055B000BDE8F08138B50478012C1EDB451C15F8D8
:1055C000013B0B2202210320FEF7F4FF15F8013BFB
:1055D0000C2202210320FEF7EDFF15F8013B0D22FE
:1055E00002210320FEF7E6FF15F8013B0E220221FF
:1055F0000320FEF7DFFF641EE1D131BD0048D9E78B
:10560000841200202DE9F84304460026DFF86405E3
:105610000D4684421CBFDFF8600584421FD0DFF8CE
:105620005C0584421CBFDFF85805844217D0DFF8C0
:10563000540584421CBFDFF8500584420FD0DFF8C8
:105640004C0584421FBFDFF848058442DFF844055B
:10565000844204D0C1210FF2405000F0F0FA2868D3
:1056600020B90FF23450C22100F0E9FA287900285D
:1056700018BF012808D0022818BF032804D0C3216E
:105680000FF2145000F0DBFAE87940B1012818BF9E
:10569000022804D00FF20050C42100F0D0FA0120FB
:1056A00000FA06F8286808EA0000404546D177006D
:1056B0000320B8406FEA0009206809EA0000206072
:1056C00020682979B940084320602879012818BF4B
:1056D00002282AD16879002818BF012808D002289A
:1056E00018BF032804D0D6210FF2AC4000F0A7FA6F
:1056F000A06809EA0000A060A0686979B940084381
:10570000A060A879002818BF012804D0DD210FF27D
:10571000884000F094FA606820EA080060606068E1
:10572000A979B14089B208436060E06809EA0000E5
:10573000E060E068E979B9400843E060761C102E2B
:10574000ADD3BDE8F18370B504460026DFF824042C
:105750000D4684421CBFDFF82004844220D0DFF8CD
:105760001C0484421CBFDFF81804844218D0DFF800
:10577000140484421CBFDFF81004844210D0DFF808
:105780000C0484421FBFDFF808048442DFF80404DD
:10579000844205D04FF49B710FF2FC3000F04FFAB9
:1057A000012D18BF022D29D0042D18BF082D25D09A
:1057B000102D18BF202D21D0402D18BF802D1DD0B9
:1057C000B5F5807F18BFB5F5007F17D0B5F5806FB0
:1057D00018BFB5F5006F11D0B5F5805F18BFB5F5EE
:1057E000005F0BD0B5F5804F18BFB5F5004F05D061
:1057F0000FF2A43040F2371100F021FA206928425C
:1058000018BF0126304670BD10B50446DFF86403AA
:1058100084421CBFDFF86003844220D0DFF85C03C1
:1058200084421CBFDFF85803844218D0DFF85403C9
:1058300084421CBFDFF85003844210D0DFF84C03D1
:1058400084421FBFDFF848038442DFF848038442E4
:1058500005D04FF4A6710FF2403000F0F0F9206946
:1058600080B210BD10B50446DFF8080384421CBFA7
:10587000DFF80403844220D0DFF8000384421CBF19
:10588000DFF8FC02844218D0DFF8F80284421CBF23
:10589000DFF8F402844210D0DFF8F00284421FBF28
:1058A000DFF8EC028442DFF8EC02844205D040F2DB
:1058B00073110FF2E42000F0C2F9606980B210BDEC
:1058C00038B50446AB480D4684421CBFAA48844202
:1058D00019D0AA4884421CBFA948844213D0A948C1
:1058E00084421CBFA84884420DD0A84884421FBFF0
:1058F000A7488442A748844205D040F285110FF2A0
:10590000982000F09CF92DB90FF28C204FF4C37150
:1059100000F095F9258331BD38B5044695480D460C
:1059200084421CBF9448844219D0944884421CBFCE
:105930009348844213D0934884421CBF92488442C7
:105940000DD0924884421FBF9148844291488442BE
:1059500005D04FF4CC710FF2402000F070F92DB952
:105960000FF2342040F2991100F069F9658331BDDE
:1059700070B504467F480D46164684421CBF7E48DB
:10598000844219D07D4884421CBF7D48844213D094
:105990007C4884421CBF7C4884420DD07B488442B2
:1059A0001FBF7B4884427B48844205D04FF4D671A8
:1059B0000FF2E41000F043F9012D18BF022D29D099
:1059C000042D18BF082D25D0102D18BF202D21D053
:1059D000402D18BF802D1DD0B5F5807F18BFB5F5BF
:1059E000007F17D0B5F5806F18BFB5F5006F11D0E7
:1059F000B5F5805F18BFB5F5005F0BD0B5F5804FEA
:105A000018BFB5F5004F05D00FF28C1040F2AD1164
:105A100000F015F94EB1012E05D04FF4D7710FF2F9
:105A2000781000F00CF9258370BD658370BD38B522
:105A3000044650480D4684421CBF4F48844219D04A
:105A40004E4884421CBF4E48844213D04D48844285
:105A50001CBF4D4884420DD04C4884421FBF4C4867
:105A600084424C48844205D040F2C3110FF2281002
:105A700000F0E5F8656131BD70B506463D480D465C
:105A8000144686421CBF3C48864219D03B48864299
:105A90001CBF3B48864213D03A4886421CBF3A4856
:105AA00086420DD0394886421FBF39488642394860
:105AB000864205D040F21D210FF2DC0000F0BFF855
:105AC000002D18BF012D21D0022D18BF032D1DD090
:105AD000042D18BF052D19D0062D18BF072D15D080
:105AE000082D18BF092D11D00A2D18BF0B2D0DD070
:105AF0000C2D18BF0D2D09D00E2D18BF0F2D05D060
:105B00000FF2940040F21E2100F099F8002C18BF0B
:105B1000092C1ED0012C18BF022C1AD0032C18BF40
:105B2000042C16D0052C18BF062C12D0072C18BF39
:105B3000082C0ED00A2C18BF0B2C0AD00C2C1CBF22
:105B40000D2C0F2C05D040F21F210FF24C0000F05D
:105B500076F8E80806EB800005F007018900026A84
:105B60000F238B409A43026204FA01F1026A114347
:105B7000016270BD000002400004024000080240C3
:105B8000000C0240001002400014024000180240C5
:105B9000001C024000200240433A5C546F6F6C735B
:105BA0005C4941522053797374656D735C576F7211
:105BB0006B73706163655C574C3946204D6F6E693D
:105BC000746F72202D2053544D33325F4150505C1E
:105BD0004C69627261726965735C53544D3332462D
:105BE0003478785F5374645065726970685F44728A
:105BF000697665725C7372635C73746D333266349C
:105C000078785F6770696F2E6300000080B500F0E0
:105C1000A2FC002002BD00B585B04FF4E130009039
:105C200000A900200190ADF80800ADF80C000C2090
:105C3000ADF80A00002000F021FD05B000BDFEE730
:105C40002DE9F041DFF8BC59DFF8BC49286820870E
:105C5000002000F03AFE002000F037FE002000F0A7
:105C600034FE286820870026A04606F1080000F0D0
:105C70002CFE761C08F8010B182EF6DB08222146B4
:105C8000DFF8880901F024F8DFF88409082204F11C
:105C9000080101F01DF8082204F11001DFF8740971
:105CA00001F016F8002604F1200806F1320000F099
:105CB0000CFE761C08F8010B152EF6DBDFF8588970
:105CC0000026474606F1640000F0FFFD761C07F849
:105CD000010B4F2EF6DBDFF84469C82000F0F5FD1C
:105CE0003070C92000F0F1FD7070CA2000F0EDFDA9
:105CF000B070CB2000F0E9FDF070D22000F0E5FD9F
:105D00003071D32000F0E1FD7071D42000F0DDFD92
:105D1000B071D52000F0D9FDF071DC2000F0D5FD88
:105D20003072DD2000F0D1FD7072DE2000F0CDFD7C
:105D3000B072DF2000F0C9FDF072FF22DFF8E078DA
:105D40004D21781C01F000F805224146384600F04C
:105D5000BFFF04223146781D00F0BAFF0422311D36
:105D600007F1090000F0B4FF042206F1080107F171
:105D70000D0000F0ADFF28682087208F2073000AF7
:105D80006073BDE8F08110B5DFF87448207A002810
:105D90004CD1607A30B90F2001F027F801F0F7F903
:105DA000607A27E0012806D10F2001F01EF801F0EB
:105DB00047FA607A1EE002281FD10F2001F015F883
:105DC00001F04BFADFF85C18607A0978884211D14B
:105DD000DFF85408016821F00201016000206072C0
:105DE000A07A012804BFE07A01281FD1207B3D283A
:105DF00015DB16E0401C607210BD032816D10F2081
:105E000000F0F3FF01F03EFA00206072A07A012852
:105E100004BFE07A012809D1207B3D2801DA012066
:105E200003E0607B3D2801DA0220207210BD10B52E
:105E3000DFF8CC47607A38B90F2000F0D6FF01F0C8
:105E40003AFA607A401C16E0012818BF022813D1E4
:105E50000F2000F0CAFF607A01F046FA607A401C19
:105E60006072C0B2032807DBDFF8BC07016821F0CD
:105E7000080101600020607210BD38B5DFF8AC4742
:105E8000207808B901F045FADFF8A407007808285F
:105E900018DA06229121FF2001F079F8DFF8940743
:105EA00001F082F800202070DFF88C0701780129CA
:105EB00035D100210170DFF87007016821F480718D
:105EC000016031BDDFF83857687A40B90F2000F023
:105ED0008CFF01F05EFA687A401C687231BD0128BF
:105EE00018BF02281BD10F2000F07FFF687A01F055
:105EF0006AFA687A401C6872C0B203280FDBDFF8C8
:105F000038070178012907D100210170DFF818074F
:105F1000016821F48071016000206872207031BD39
:105F200010B5DFF8DC46207A012828D1207B3D28F7
:105F300019DAA08D401CA08580B264280CDB207C7F
:105F400000281CBFBDE8104001F086B801F054F8ED
:105F5000207C401C207410BDDFF8CC060078800740
:105F600038D5002035E0DFF8C0060078800748BF4C
:105F700000202ED4607B3D282CDA022029E0022864
:105F800028D1607B3D2819DAE08D401CE08580B285
:105F900064280CDB607C00281CBFBDE8104001F0C9
:105FA000B7B801F096F8607C401C607410BDDFF853
:105FB0007806007880070DD500200AE0DFF8680633
:105FC0000078800748BF002003D4207B3D2801DAF9
:105FD0000120207210BD38B5DFF830462178082046
:105FE00000F04AFC012000F000FF6178092000F079
:105FF00043FC012000F0F9FEA1780A2000F03CFCEF
:10600000012000F0F2FEE1780B2000F035FC0120C9
:1060100000F0EBFE21790C2000F02EFC012000F0B6
:10602000E4FE61790D2000F027FC012000F0DDFE88
:10603000A1790E2000F020FC012000F0D6FEE179CD
:106040000F2000F019FC012000F0CFFEDFF8C04562
:106050002178102000F010FC012000F0C6FE6178CD
:10606000112000F009FC012000F0BFFEA1781220F1
:1060700000F002FC012000F0B8FEE178132000F0EF
:10608000FBFB012000F0B1FE2179142000F0F4FBAD
:10609000012000F0AAFE6179152000F0EDFB01203F
:1060A00000F0A3FEA179162000F0E6FB012000F02D
:1060B0009CFEE179172000F0DFFB012000F095FE47
:1060C000DFF850452178182000F0D6FB012000F0C1
:1060D0008CFE6178192000F0CFFB012000F085FED6
:1060E000A1781A2000F0C8FB012000F07EFEE178C4
:1060F0001B2000F0C1FB012000F077FE21791C205D
:1061000000F0BAFB012000F070FE61791D2000F064
:10611000B3FB012000F069FEA1791E2000F0ACFB6A
:10612000012000F062FEE1791F2000F0A5FB0120B4
:1061300000F05BFE0024DFF8045515F8011B04F1A4
:10614000320000F099FB012000F04FFE641C152C7A
:10615000F3DBDFF8C454002415F8011B04F16400DC
:1061600000F08AFB012000F040FE641C4F2CF3DBA2
:10617000DFF88C04DFF8A444807A012813D1DFF81B
:10618000A0540422691D204600F0A2FD042205F15E
:106190000901201D00F09CFD042205F10D0104F110
:1061A000080000F095FD2178C82000F065FB012073
:1061B00000F01BFE6178C92000F05EFB012000F0BA
:1061C00014FEA178CA2000F057FB012000F00DFE5C
:1061D000E178CB2000F050FB012000F006FE217991
:1061E000D22000F049FB012000F0FFFD6179D320AF
:1061F00000F042FB012000F0F8FDA179D42000F06E
:106200003BFB012000F0F1FDE179D52000F034FBEB
:10621000012000F0EAFD217ADC2000F02DFB0120B6
:1062200000F0E3FD617ADD2000F026FB012000F0A4
:10623000DCFDA17ADE2000F01FFB012000F0D5FD7F
:10624000E17ADF2000F018FBBDE83240012000F0C9
:10625000CCBD10B5DFF8A84301F0B2F920B9012098
:1062600001F0A9F900204EE0607D00285BD1FFF726
:10627000B2FE0020A07501F0A3F968B9002240F237
:106280002771DFF8BC0301F001FBDFF8B80300223F
:10629000022101F0C9FE32E0642000F0A6FDA07DDD
:1062A000401CA075C0B20F28E5DB01F091FF002172
:1062B000212001F0D3FF032000F097FD00212120D1
:1062C00001F0CCFF032000F090FD002240F2277186
:1062D000DFF86C0301F0DAFADFF86803002202212C
:1062E00001F0A2FE4FF4966000F07FFD002002F066
:1062F000CCF8012002F0BFF801F062F928B90120C2
:1063000001F059F90120207510BD002002F0AEF80F
:10631000002002F0A5F8002001F034F9BDE810409B
:10632000002001F048B910BD38B502F0C3F902F001
:1063300085F9BD4DB24C2868002846D081050AD5A4
:1063400020F4007028600622FD21FF2000F01FFECF
:10635000BD4800F029FE286841050AD520F4806078
:10636000286006222E21EF2000F011FEB74800F031
:106370001BFE2868C1070AD5400840002860062295
:106380004521FF2000F003FEB14800F00DFE286813
:1063900081060AD520F0200028600622A321FF20D4
:1063A00000F0F5FDAB4800F0FFFD2868810702D53D
:1063B000FFF7E9FC19E0010702D5FFF738FD14E00B
:1063C000C00502D5FFF759FD0FE0E07A01280CD196
:1063D000207B3D2804DA207A38B90120207204E0BD
:1063E000607B3D28BCBF02202072E07A012804BFF8
:1063F000BDE83140FFF794BD31BD7CB50622A02138
:10640000FF2000F0C4FD944D284600F0CDFD287813
:10641000C021084219BF00F0C001402940F0C0006F
:1064200028702878764CC10604D5A18E11B900F0E9
:10643000CF0028707C4D286841060AD520F0400026
:1064400028600622FB21FF2000F0A1FD834800F018
:10645000ABFDA07C401CA074C0B202280EDB002063
:10646000A0740622A221FF2000F091FD7C4E304650
:1064700000F09AFD307908B10020307128680106DB
:106480000DD520F080002860764801784078217191
:106490006071D4E90001CDE9000100F091FB724880
:1064A0000088B0F57A7F1ADD70480078012816D18F
:1064B00000F0B2FC01220221624801F0B5FD6C48F7
:1064C000002101706B480170E07C401CE074C0B298
:1064D0000A2804DBE1742079617901F0EEFEFFF710
:1064E000B8FE217DE07D012902D0012802D073BDD4
:1064F0000128FCD1FFF76FFD73BD80B5002001F0CE
:106500005AF8012001F03EF801F042F802F011FAC9
:10651000FEF726FE02F016FA01F016FE002000F04B
:1065200013FA01F05DFF02F02AF9012001F098FF53
:10653000012001F09BFF02F056F8022002F004FA5D
:10654000042002F001FA00F067FCFFF779FB4A48EB
:106550000021016001BD10B5FFF75DFB02F07CFE7C
:1065600002F086FE264C02F0B6FEFFF7C6FFA08BB7
:10657000012801BF0020A083A07B012808D1E07B77
:10658000411CE1731A2803DB0020E07302F00CFFCA
:10659000E08B012803D10020E083FFF7C5FE208CAB
:1065A000012809D100202084FFF727FF207D012842
:1065B0001CBFE07D0128D6D0608D0128D7D10020F6
:1065C0006085E07A012812D100F030FF208E401C57
:1065D000208680B23C280ADB0020208600F00AFFDB
:1065E000207B3D28A1BF607B3D28002020722046F3
:1065F00000F016FB6179207901F05FFEB7E700003B
:10660000943400204C200140D0340020B0330020CE
:10661000B8330020A8330020E832002044350020A1
:10662000003400207034002078340020A133002092
:10663000A0330020903300202A350020F0340020C1
:106640000044004000640040F8330020C8330020BC
:10665000D0330020E0330020D8330020E83300207E
:1066600088330020F0330020D81200202935002084
:10667000D0120020CF12002060350020F0B5064671
:106680000FF2BC000FF2BC0283B0354650F8250073
:1066900052F825200C460121104303F007FA1EB9D9
:1066A0000121102003F045FA0FF2AC00DFF88C60F6
:1066B00030F815200FF2980030F8151006EB85071A
:1066C000D2B27868FFF7D8F90FF2900030F81520B1
:1066D0000FF2800030F81510B868D2B2FFF7CCF98D
:1066E00000208DF8060000A901208DF80700022087
:1066F0008DF804000FF2500030F8150000900220D1
:106700008DF805007868FEF77DFF02208DF8040003
:1067100000A90FF2380030F815000090B868FEF7B5
:1067200071FF56F82500214600F052FF56F825006B
:10673000012101F014F803B0F0BD0000A412002004
:106740000100000001000000000200000004000041
:10675000090000000A00000007000000070050F8D0
:10676000041B61B150F8042BD30744BFA9F1010306
:106770009A18002342F8043B091FFAD1EFE770474B
:1067800000B50100DFF82C0283B001694FF40072FC
:106790004FF6FF5308D019404161009201218DF856
:1067A00004108DF8051005E01940416100920021A8
:1067B0008DF8041000A9FEF725FF03B000BD70B5E9
:1067C00004460825DFF8EC61E4B2E0094FF40071FB
:1067D000304602D0FFF774F801E0FFF79DF84FF460
:1067E00080713046FFF76CF864004FF480713046DA
:1067F000FFF792F86D1EE7D14FF400713046FFF7B6
:106800008BF84FF480713046FFF75AF83046BDE8F8
:1068100070404FF48071FFF77FB870B5DFF8945186
:106820004FF480712846FFF777F84FF4007128463F
:10683000FFF746F80020FFF7A3FF08264FF480710A
:106840002846FFF73DF84FF400712846FEF77BFF1E
:1068500040EA4404E4B24FF480712846FFF75CF844
:10686000761EEBD14FF400712846FFF755F8012052
:10687000FFF786FF204670BD70B504460D464D4EAD
:106880004FF400713046FFF71BF80120FFF778FF47
:106890004FF400713046FFF713F84FF48071304623
:1068A000FFF70EF84FF400713046FFF735F84FF45C
:1068B00080713046FFF730F8A020FFF780FF2004FA
:1068C000000EFFF77CFFE0B29EE038B50446394D7C
:1068D0004FF400712846FEF7F3FF0120FFF750FF49
:1068E0004FF400712846FEF7EBFF4FF48071284605
:1068F000FEF7E6FF4FF400712846FFF70DF84FF45E
:1069000080712846FFF708F8A020FFF758FF200401
:10691000000EFFF754FFE0B2FFF751FF4FF4007194
:106920002846FEF7CDFF4FF480712846FEF7C8FFDA
:106930004FF400712846FEF7EFFF4FF480712846B0
:10694000FEF7EAFFA120B2E038B50446194D4FF436
:1069500000712846FEF7B4FF0120FFF711FF4FF446
:1069600000712846FEF7ACFF4FF480712846FEF711
:10697000A7FF4FF400712846FEF7CEFF4FF4807159
:106980002846FEF7C9FFD020FFF719FF0A20FFF7BE
:1069900016FF2046FFF713FF4FF400712846FEF75D
:1069A000BBFF4FF480712846FEF78AFF2846BDE8FA
:1069B00034403BE00004024070B504460D46014EF1
:1069C00002E000BF000402404FF400713046FEF7C1
:1069D00077FF0120FFF7D4FE4FF400713046FEF739
:1069E0006FFF4FF480713046FEF76AFF4FF400717D
:1069F0003046FEF791FF4FF480713046FEF78CFF72
:106A0000D020FFF7DCFE2046FFF7D9FE2846FFF72F
:106A1000D6FE4FF400713046FEF77EFF4FF48071D2
:106A20003046FEF74DFF3046BDE870404FF4007130
:106A3000FEF746BF38B50446004D01E000040240B1
:106A40004FF400712846FEF73BFF0120FFF798FE48
:106A50004FF400712846FEF733FF4FF4807128464B
:106A6000FEF72EFF4FF400712846FEF755FF4FF456
:106A700080712846FEF750FFD020FFF7A0FE204689
:106A8000FFF79DFE4FF400712846FEF719FF4FF403
:106A900080712846FEF714FF4FF400712846FEF778
:106AA0003BFF4FF480712846FEF736FFD120FFF7F9
:106AB00086FEFFF7B2FE04464FF400712846FEF74B
:106AC000FFFE4FF480712846FEF7FAFE4FF4807106
:106AD0002846FEF721FF4FF400712846FEF71CFF01
:106AE0004FF480712846FEF7EBFE4FF40071284604
:106AF000FEF7E6FE204632BD64280CDA0A2190FB40
:106B0000F1F10A0150FA82F001EB8102A0EB42019F
:106B1000C9B2082050E7704701460D290DDA60B16F
:106B20000A2091FBF0F0020151FA82F100EB8002A1
:106B3000A1EB4201C9B207203EE770470146202978
:106B40000DDA60B10A2091FBF0F0020151FA82F1F6
:106B500000EB8002A1EB4201C9B206202CE770478E
:106B600018280CDA0A2190FBF1F10A0150FA82F0A0
:106B700001EB8102A0EB4201C9B204201CE770477F
:106B80003C280CDA0A2190FBF1F10A0150FA82F05C
:106B900001EB8102A0EB4201C9B203200CE7704770
:106BA0003C280CDA0A2190FBF1F10A0150FA82F03C
:106BB00001EB8102A0EB4201C9B20220FCE6704762
:106BC00003B581B002210020FFF7F6FE9DF8040016
:106BD000FFF792FF9DF80500FFF79EFF9DF8060066
:106BE000FFF7ACFF9DF80710082903DA11B1052063
:106BF000FFF7E2FE9DF80800FFF7B2FF9DF80900DD
:106C0000FFF7BEFF9DF80A00FFF7CAFF0021002032
:106C1000FFF7D2FE03B05DF804EB00210120CBE6C4
:106C200010B5044601210020FFF7C6FE0820FFF73B
:106C300001FF010901EB810200F00F0000EB4200AF
:106C400020700720FFF7F6FEC0F3001101EB810270
:106C500000F00F0000EB420060700620FFF7EAFE34
:106C6000C0F3011101EB810200F00F0000EB4200C4
:106C7000A0700520FFF7DEFE00F00700E0700420A2
:106C8000FFF7D8FEC0F3011101EB810200F00F0005
:106C900000EB420020710320FFF7CCFEC0F302118D
:106CA00001EB810200F00F0000EB42006071022056
:106CB000FFF7C0FEC0F3021101EB810200F00F00EC
:106CC00000EB4200A0710021BDE81040002073E6F7
:106CD00062B38B0708D0521E11F8013B00F8013B4C
:106CE00000F024808B07F6D1830740F0208000BF9E
:106CF000103A07D330B4B1E83810103AA0E8381091
:106D0000F9D230BC530724BFB1E80810A0E808103E
:106D100044BF51F8043B40F8043BD20724BF31F88C
:106D2000022B20F8022B44BF0B7803707047083AFF
:106D300007D3B1E80810083A40F8043B40F804CB08
:106D4000F7D25307E4E7000062F30F2262F31F4219
:106D5000401810F0030308D0C91A1FD3DB0748BF3F
:106D600000F8012D28BF20F8022D130030B414467E
:106D70001546103928BF20E93C00FAD8490728BF3A
:106D800020E90C0048BF40F8042D890028BF20F8F6
:106D9000022D48BF00F8012D30BC7047C91818BF3C
:106DA00000F8012DCB0728BF00F8012D7047000027
:106DB0000348016811B10168491E01607047000075
:106DC0005835002082B0002107E00099491C00914D
:106DD00000990529F9D30199491C01910199814232
:106DE00038BF0021F3D302B0704782B00021019177
:106DF00044F2682108E0009A521C0092009A8A42EC
:106E0000F9D3019A521C0192019A824238BF0022A2
:106E1000F3D302B07047000030B5DFF8184789B0EF
:106E2000204600F067FEDFF81057284600F062FEAB
:106E300001A800F0F4FF0020ADF80A000390ADF8BF
:106E4000060001A90D208DF8080005208DF8090025
:106E50000820ADF80400204600F06FFE01A9284686
:106E600000F06BFE0020ADF81A0001208DF81C0028
:106E7000002004900590ADF8180001208DF81D0049
:106E800004A800F03FFF14208DF8000000208DF8CA
:106E900001008DF8020001208DF8030000A802F027
:106EA00003FF09B030BD30B5DFF89046DFF89056EB
:106EB00000206076A862002106202870A1830020AF
:106EC0006870FF22FF20A8702820287100206083AE
:106ED000DFF870060180DFF87006017005F12C0004
:106EE0006862082104F1280002F082FFFF220821D5
:106EF00004F1300002F07CFFFF22082104F12000A1
:106F000002F076FFFF22082104F1380002F070FF42
:106F1000FF22082104F1400002F06AFFFF2208214D
:106F200004F1480002F064FFFF22082104F1500040
:106F300002F05EFFFF220821204602F059FF0020E8
:106F40002071FF22082104F1580002F051FFFF22B6
:106F5000082104F1600002F04BFFFF22082104F138
:106F6000680002F045FFFF22082104F1700002F0E2
:106F70003FFFFF22102105F1340002F039FF05F137
:106F80000800BDE83040FF22152102F031BF10B1EA
:106F9000DFF8AC35987011B1DFF8A405C17012B1FB
:106FA000DFF89C050270704700B5DFF894150A7889
:106FB0004B781B0603EB82628B7802EB0342CB78A3
:106FC000097985B002EB03225118019108220421AE
:106FD0008DF8081000218DF8091008218DF80A108D
:106FE00001460DF10B0002F020FF00A9DFF8440577
:106FF00000F025FF05B000BD80B50722FF21EC2081
:10700000FFF7C5FFDFF83805416A20220A70072321
:10701000DFF83015426A0988491CA2F8011089B2CC
:1070200091FBF3F1D170416ACA7880F82020B1F861
:10703000012092FBF3F3C3EBC303D21A06D0CA7844
:10704000521CCA70416AC97880F82010FF22416A38
:107050000A714FF60B7252E01CB50722FF21EB209C
:10706000FFF795FFDFF8E444DFF8E41420788DF8AB
:1070700000000722C0EBC0004018C11F0DF1010045
:1070800002F0D3FE00A8FFF78FFF2078401CC0B2AB
:1070900004281CDBDFF8BC040178491C01700021C6
:1070A000DFF8B40401800020DFF8941491F8281070
:1070B000890703D5DFF8A414087008E0DFF8A014EE
:1070C00009783D2903DADFF8941402220A7020704F
:1070D00013BD80B50722FF21EC20FFF758FFDFF832
:1070E0006004416A20220A701522416AA1F8012039
:1070F0000322CA70FF22416A0A714FF6C872416AC0
:10710000A1F805202C300022CA71BDE802404BE7EF
:107110001CB50722FF21EB20FFF739FFDFF84444BD
:10712000DFF8441420788DF800000722C0EBC0007F
:107130004018C11F0DF1010002F077FE00A8FFF713
:1071400033FFDFF8FC1320784A6A401C2070C0B27D
:10715000D27882421AD2DFF808040278521C0270F8
:107160000022DFF808042270028091F828008007CE
:1071700003D5DFF8E803027013BDDFF8D803007809
:107180003D2803DADFF8D4030121017013BD70B587
:107190000722FF21EC20FFF7FAFEDFF8A403416A83
:1071A00020220A700721426AA2F80110DFF8C013FA
:1071B000047B4B782A2C1ABF0824A2F801405B1CE0
:1071C000DBB2032B0EDA012400F20D052E782A2EF5
:1071D0001DBFB2F80160761CA2F801605B1CDBB237
:1071E000032B01DB002311E06E78641C2A2E1DBFE7
:1071F000B2F80160761CA2F801605B1CDBB2032BC5
:10720000F0DA641CAD1CE4B20D2CDFDB4B70B2F87D
:1072100001300F2BACBF03230223D370426AD37813
:107220000B7080F82030FF2111714FF64572416AD2
:10723000A1F805202C300022CA71BDE87040B3E6E9
:1072400000B583B00722FF21EB20FFF7A0FE01204D
:107250008DF800000722C7490BE000B583B0072274
:10726000FF21EB20FFF793FE02208DF8000007229C
:10727000C1490DF1010002F0D8FD00A8FFF794FE0E
:1072800003B000BD00B583B00722FF21EB20FFF75C
:107290007EFEAB48816A21F0020181620722032150
:1072A0008DF8001007210170EB218170FF21C17062
:1072B00000F11601DDE780B50722FF21EC20FFF782
:1072C00066FE9F48416A20220A700A22416AA1F89C
:1072D00001200222CA70416ACA7880F82020FF2269
:1072E0000A714FF6A1720AE71CB504460722FF2176
:1072F000EB20FFF74CFEC4EBC40091498DF8004031
:10730000401800F12D0107220DF1010002F08DFD62
:107310006CE010B5894C002020762A220D2104F162
:10732000080002F065FD002004F1080100EBD072B6
:1073300004EB6202801C92F8202002F00F0301F897
:10734000013B120901F8012B0C28EFDB217E002004
:1073500004F1080212F8013B0F2B13D012F8013B85
:10736000491C401CC0B20F2B0CD012F8013B491C29
:10737000401CC0B20F2B05D0401C491CC0B20C28C9
:10738000E8DB02E000192A220272012021766076F1
:1073900010BD80B50722FF21EC20FFF7F8FD6848FB
:1073A000416A20220A70654A416A127EA1F80120D2
:1073B0000222CA70416ACA7880F82020FF220A712E
:1073C0004FF691729BE61CB504460722FF21EB2085
:1073D000FFF7DDFDC4EBC40058498DF800404018AC
:1073E000411C07220DF10100FFF772FC00A8FFF716
:1073F000DBFD13BD00B583B00622FB21FF20FFF7A4
:10740000C6FD4E48C17E01290ED0017F491C01777F
:10741000C9B20B2908DA3C208DF80000FF208DF856
:10742000010000A8FFF7C0FD03B000BD4348C17EC6
:10743000012900D07047F0B5504C2178002977D150
:10744000404A4F4D128801E0491CC9B291426FDA9F
:107450004E194F1996F850607F78B74260D005F109
:107460005001681CFFF734FC2878FF280CBF00206F
:10747000401C2870364E2878307018B1022819D078
:1074800009D32EE00422691C701CFFF721FCFF22A7
:107490000C21701D22E00422711C701DFFF718FCE6
:1074A0000422691C701CFFF713FCFF22082106F15F
:1074B000090013E00422711D06F10900FFF708FC22
:1074C0000422711C701DFFF703FC0422691C701C50
:1074D000FFF7FEFBFF22042106F10D00FFF734FC4D
:1074E00016E0042206F1090106F10D00FFF7F0FB9A
:1074F0000422711D06F10900FFF7EAFB0422711C4A
:10750000701DFFF7E5FB0422691C701CFFF7E0FB10
:107510003078FB28A4BFFA20307001202070F0BD25
:107520002A2E91D1467F761C4677F6B2032E8BDB4E
:10753000F0BD000000640040006800408833002077
:1075400050340020D6120020CC120020A434002099
:1075500000340020A0340020C03400209C340020DF
:10756000A1340020A5340020F0340020C2340020D3
:107570002E350020583400205F3400209E34002037
:10758000E832002002464FF480510F48FEF7F0B970
:1075900010B50D4C00224FF400412046FEF7E8F9EB
:1075A0006420FFF722FC2046BDE8104001224FF482
:1075B0000041FEF7DDB9024602210448FEF7D8B9C2
:1075C00001210248FEF7BFB8000802400004024053
:1075D000F0B50446DFF89472DFF8A86285B00D4676
:1075E000BC421CBFDFF88802844213D0DFF884025B
:1075F00084421CBFDFF8800284420BD0DFF87C029B
:1076000084421CBFDFF87802844203D0F121304667
:10761000FEF715FB286818B1DFF86C12884203D317
:10762000F2213046FEF70BFBA888002818BFB0F502
:10763000805F03D0F3213046FEF701FBE888002885
:1076400018BFB0F5805F09D0B0F5005F18BFB0F586
:10765000405F03D0F4213046FEF7F1FA2889002874
:107660001CBFB0F5806FB0F5C06F03D0F521304678
:10767000FEF7E5FA68894FF6F371084200D118B9B0
:10768000F6213046FEF7DBFAA889F8B1B0F5807F25
:107690001CBFB0F5007FB0F5407F05D0F721304624
:1076A000FEF7CDFAA88988B1BC421CBFDFF8C00143
:1076B00084420BD0DFF8BC0184421CBFDFF8C0015C
:1076C000844203D0FC213046FEF7B9FA208A4CF6FA
:1076D000FF710840E988084320824EF6F311A08923
:1076E0000840A98808432989084369890843A0817B
:1076F0004FF6FF41A08A0840A9890843A08200A84C
:1077000002F08DF9BC421BBFDFF87401844203987C
:107710000298296819225043A28912044CBF4900DB
:107720008900B0FBF1F16420B1FBF0F00001020927
:10773000642303FB1211A289120406D5C900323159
:10774000B1FBF3F101F0070105E009013231B1FBB2
:10775000F3F101F00F010843208105B0F0BD38B509
:107760000446DFF808010D4684421CBFDFF8000123
:10777000844215D0DFF8FC0084421CBFDFF8F8001B
:1077800084420DD0DFF8F40084421CBFDFF8F00023
:10779000844205D040F2A1110FF2E420FEF74FFA27
:1077A0005DB1012D05D00FF2D8204FF4D171FEF755
:1077B00046FAA08940F4005003E0A0894DF6FF711D
:1077C0000840A08131BD38B50446DFF8A0000D4661
:1077D00084421CBFDFF89800844215D0DFF8940083
:1077E00084421CBFDFF8900084420DD0DFF88C008B
:1077F00084421CBFDFF88800844205D040F2232178
:107800000FF27C20FEF71BFAB5F5007F05DB0FF2C7
:1078100070204FF40971FEF712FAE805C00DA08040
:1078200031BD10B50446DFF8440084421CBFDFF8C8
:107830004000844215D0DFF83C0084421CBFDFF8D2
:10784000380084420DD0DFF8340084421CBFDFF8DA
:107850003000844205D040F233210FF22420FEF79D
:10786000EEF9A088C005C00D10BD00000010014059
:107870000044004000480040004C004000500040E0
:1078800000140140807A0008E1707200F8B50546E6
:10789000DFF8D4710E461446BD421CBFDFF8CC01A0
:1078A000854215D0DFF8C80185421CBFDFF8C4014E
:1078B00085420DD0DFF8C00185421CBFDFF8BC0156
:1078C000854205D040F2C3410FF2B410FEF7B7F97C
:1078D000282E1CBF40F2277086421BD040F2266043
:1078E00086421CBF40F22550864213D040F224400D
:1078F00086421CBF40F6460086420BD040F66A1016
:10790000864218BF602E05D040F2C4410FF27010BD
:10791000FEF795F9002C18BF012C05D00FF260106E
:1079200040F2C541FEF78BF940F66A10864210D14D
:10793000BD421CBF4D4885420BD04D4885421CBFFF
:107940004E48854205D040F2CA410FF23410FEF78E
:1079500076F93006012106F01F02400F9140012800
:1079600008BF05F10C0005D002280CBF05F110007E
:1079700005F114000268002C14BF114322EA010132
:107980000160F1BDF8B504460026374F0D46BC42F4
:107990001CBF3648844211D0354884421CBF35484C
:1079A00084420BD0344884421CBF3448844205D002
:1079B00040F256510FF2C800FEF741F9282D1CBFC6
:1079C00040F227718D4234D040F226618D421CBFB7
:1079D00040F225518D422CD040F224418D421CBFF3
:1079E00040F646018D4224D040F66A118D420FD0F8
:1079F000B5F5587F1CBF40F225318D4219D0B5F541
:107A0000187F18BFB5F5B07F13D040F257510CE086
:107A1000BC421CBF154884420BD0154884421CBF91
:107A20001648844205D040F25C510FF25400FEF734
:107A300006F92806400F012105F01F0201FA02F2A3
:107A4000012808BFA08903D002280CBF208AA08A81
:107A500010402A0A91402288114000281CBF0029AA
:107A600001263046F2BD00000010014000440040F5
:107A700000480040004C004000500040001401400D
:107A8000433A5C546F6F6C735C4941522053797375
:107A900074656D735C576F726B73706163655C576F
:107AA0004C3946204D6F6E69746F72202D205354EF
:107AB0004D33325F4150505C4C696272617269654E
:107AC000735C53544D3332463478785F537464504A
:107AD00065726970685F4472697665725C7372631F
:107AE0005C73746D3332663478785F757361727469
:107AF0002E63000080B5DFF8C415884214D0DFF88B
:107B0000C015884204D0AB21DFF8B805FEF797F81E
:107B100001214FF0806002F050F800214FF08060AA
:107B2000BDE8044002F049B801214FF0007002F0B6
:107B300044F800214FF00070F2E7F8B50446002643
:107B4000DFF87805DFF87C750D4684421CBFDFF84E
:107B50007005844203D0CB213846FEF770F8A8792F
:107B6000002818BF012803D0CC213846FEF767F85B
:107B7000E879002818BF012803D0CD213846FEF748
:107B80005EF8287A002818BF012803D0CE21384695
:107B9000FEF755F8687A002818BF012803D0CF21D6
:107BA0003846FEF74CF8A87A002818BF012803D001
:107BB000D0213846FEF743F8E87A002818BF01289C
:107BC00003D0D1213846FEF73AF8A878002818BF2C
:107BD000012807D0022818BF032803D0D221384635
:107BE000FEF72DF8E878002818BF012807D00228F2
:107BF00018BF032803D0D3213846FEF720F8287990
:107C0000102803DBD4213846FEF719F868790828D4
:107C100003DBD5213846FEF712F8288810B1B0F5FD
:107C2000806F03DDD6213846FEF709F8206820F082
:107C300002002060206840F0010020604FF6FF70D5
:107C4000014600E0491E6268D20701D40029F9D13B
:107C50006168C90754D5A979012921680CBF41F091
:107C6000800121F080012160E979012921680CBFA0
:107C700041F0400121F040012160297A0129216869
:107C80000CBF41F0200121F020012160697A012917
:107C900021680CBF41F0100121F010012160A97A88
:107CA000012921680CBF41F0080121F00801216081
:107CB000E97A012921680CBF41F0040121F0040197
:107CC0002160EA78A978120642EA81712A7941EAAC
:107CD00002416A7941EA02512A88521E1143E16148
:107CE000216849084900216000E0401E6168C90719
:107CF00001D50028F9D1606800F0010080F001068C
:107D00003046F2BD70B50446A07A1C2805DB40F26F
:107D100053110FF2C030FDF792FFE07A002818BF30
:107D2000012805D04FF4AA710FF2A830FDF787FFA4
:107D3000207B002818BF012805D040F255110FF212
:107D40009430FDF77CFF2089002818BF012805D05A
:107D50004FF4AB710FF27C30FDF771FF607B0028B0
:107D600018BF012805D040F257110FF26830FDF717
:107D700066FFA17A01208840DFF84C130A6842F0C0
:107D800001020A60C243CB691340CB61237B9BB9DC
:107D9000CB681340CB60E5886688DFF8303346EA6D
:107DA0000545A67A43F83650A57A268803EBC50325
:107DB000A58846EA05455D60237B012B13D1CB687E
:107DC0000343CB6025886688DFF8003346EA054523
:107DD000A67A43F83650A57AE68803EBC503A58852
:107DE00046EA05455D60E37A002B4B680CBF134003
:107DF00003434B60238913B94B691A4003E0012BFD
:107E000002D14A6902434A61627B012A02D1CA69EE
:107E10001043C861086840084000086070BD002138
:107E20008171C171017241728172C1728170C170C0
:107E3000032101710221417101210180704770B558
:107E40000546DFF878020C4685421CBFDFF8800249
:107E5000854205D040F246210FF27820FDF7EFFE73
:107E6000207A002818BF042805D040F247210FF2DD
:107E70006420FDF7E4FE607A002818BF022805D0D0
:107E80004FF412710FF24C20FDF7D9FEA07A0928A9
:107E900005DB40F249210FF23C20FDF7D0FEA86837
:107EA00040011BD5002605EB0615D5F8800100F032
:107EB0000100C5F88001207AE0B92068B0F5006FB4
:107EC00005D340F263210FF20C20FDF7B8FED5F880
:107ED00080012168627A42EA41511DE0A8680001F0
:107EE00048BF0126DFD4A868C00048BF0226DAD404
:107EF00004263EE06068B0F1005F05D340F26921DE
:107F00000FF2D010FDF79BFED5F880016168227A50
:107F100042EAC101627A11430843C5F88001A07AA0
:107F200000F00F00A07205F5C07041680909090151
:107F300041604168A27A11434160627BA17B1204D7
:107F400042EA0161227B41EA0221E27A1143816027
:107F5000627CA17C120442EA0161227C41EA022196
:107F6000E27B1143C160D5F8800140F00100C5F803
:107F70008001304670BDF8B50446DFF840010D467B
:107F8000164684421CBFDFF84801844205D040F207
:107F9000F2210FF24010FDF752FE2F0018BF012D05
:107FA00005D00FF2301040F2F321FDF748FE04EB4C
:107FB0000510D0F8B0113172317A4907D0F8B011FC
:107FC00059BF490D3160C9087160D0F8B01101F096
:107FD0000201717200F5D870416801F00F01B172B1
:107FE0004168090AF1748168F1728168090A317384
:107FF0008168090C71738168090EB173C168F173EE
:10800000C168090A3174C168090C7174C068000E36
:10801000B07425B9E06840F02000E060F1BD20694F
:1080200040F020002061F1BD70B5044623480D46A4
:10803000164684421CBFDFF89800844205D04FF4F6
:10804000A2610FF29000FDF7FAFD012D18BF022D7D
:1080500024D0042D18BF082D20D0102D18BF202D9E
:108060001CD0402D18BFB5F5807F17D0B5F5007F27
:1080700018BFB5F5806F11D0B5F5006F18BFB5F515
:10808000004F0BD0B5F5803F18BFB5F5003F05D0C8
:108090000FF2400040F21151FDF7D1FD56B1012E13
:1080A00005D040F212510FF22C00FDF7C8FD6069B7
:1080B000284301E06069A843606170BD006400402E
:1080C00000680040D4800008006600404066004020
:1080D00000680040433A5C546F6F6C735C494152D6
:1080E0002053797374656D735C576F726B73706135
:1080F00063655C574C3946204D6F6E69746F722012
:108100002D2053544D33325F4150505C4C696272A4
:1081100061726965735C53544D3332463478785FCD
:108120005374645065726970685F447269766572F1
:108130005C7372635C73746D3332663478785F633A
:10814000616E2E630000000010B584B041F28830EB
:108150000290A820ADF804000020ADF80C00ADF8A6
:10816000060001A9394C204601F066FE0121204697
:1081700001F012FF01220121204602F06BF81E20BF
:108180008DF8000000208DF801008DF8020001201C
:108190008DF8030000A801F087FD2D480021018023
:1081A00041808180C18004B02A484170017010BDB7
:1081B0002749022248800A800020888070474FF4B7
:1081C00000612548FDF77CBB2148012101807047F3
:1081D0004FF400612048FDF79FBB1D48002101803E
:1081E000704730B51A4C21880546C1B01948A942DC
:1081F00002D00121002208E0017821B1491C017060
:108200000322002101E00122012141700270417826
:1082100001291CBF0178002910D1002141700220E2
:108220008DF80000422100A8417005F11001817015
:108230000321C170042000A900F0C3FB681E804127
:10824000C043C00F208041B030BD00000008004096
:10825000C83400200A3500200018024080B549B11A
:10826000C021084203D0410601D4010604D500F123
:10827000400201E000F1600202208DF800004B2175
:1082800000A8417082700321D2B2C170482A0BD17C
:108290006B48008801280BD16A48017841F0100131
:1082A0000170FFF795FF03E0812A08BF00F08AF90B
:1082B00000A9042000F085FB01BD00B5C1B040F06D
:1082C00080008DF80100022200A88DF80020817046
:1082D0000321C170042000A900F073FB41B000BD70
:1082E0002DE9F041584C6068217819B9A16200224B
:1082F000012115E0012904D10122FDF739FB0022FB
:1083000011E002290AD101220121FDF731FBA06809
:1083100001220221FDF72CFB002209E001220121AC
:10832000FDF726FB0122A0680221FDF721FB0122B7
:10833000E0680421FDF71CFB00250FF2181604F17C
:1083400010074FF0060836F8021B57F8040BFDF72C
:10835000FAF9401E8041C00F690051FA80F5B8F16A
:108360000108F0D1A06A20B91DB1207805EB80107A
:10837000A062207805282AD1A06A08B9206325E0E8
:10838000E16A814220D1216B491C2163042908D173
:108390002E4D28700A20FFF70BFF28780121FFF7E8
:1083A0005DFF206B642812D1284DA06A28705F20E1
:1083B0002063287820280ADA0A20FFF7F9FE2878B7
:1083C0000021FFF74BFF02E000212163E0622078EB
:1083D000401CC0B20628A8BF00202070BDE8F08174
:1083E00010B584B040F6C4100290A820ADF8040087
:1083F0000020ADF80C00ADF8060001A9144C204691
:1084000001F01AFD0121204601F0C6FD01220121E3
:10841000204601F01FFF32208DF8000000208DF86B
:1084200001008DF8020001208DF8030000A801F082
:108430003BFC06480021017004B010BD00000000A4
:10844000C8340020D83300202812002067350020CF
:10845000000C0040000400080010002000400080D4
:1084600002464FF400416948FDF782BA02461021E6
:108470006748FDF77DBA10B504462246802164485E
:10848000FDF776FA6348047010BD0FF29C12614943
:1084900032F8102048704A80104610B586B070211E
:1084A000ADF8001002900121ADF802100421ADF8E2
:1084B00004100221ADF80C100021ADF80E104FF49D
:1084C0008071ADF810100021ADF8121000A9524CC7
:1084D000204601F0B7FD0121204601F05DFD01219C
:1084E000204601F093FE06B010BD30B589B01020D3
:1084F000ADF81400FA210020ADF81600464C4748AC
:108500000068B0FBF1F0401E80B2069005A9002083
:10851000ADF81C008DF81E00204601F08DFC702087
:10852000ADF8000041F27F350120ADF80200029560
:108530000420ADF8040000A90220ADF80C000020D2
:10854000ADF80E004FF48070ADF810000020ADF8CB
:108550001200204601F076FD0121204601F01CFDAD
:108560000121204601F052FE4FF47A70FEF73DFCE7
:10857000284806214170458009B030BD38B5284CE7
:10858000234D01280DD100224FF400712846FDF73C
:10859000EFF90A20FEF729FC01224FF480712046F2
:1085A0000CE000224FF480712046FDF7E1F90A202B
:1085B000FEF71BFC01224FF400712846BDE838404D
:1085C000FDF7D6B980B517490878072806DA421CA6
:1085D0000A700021FCF7DAF9012001E000200870A0
:1085E000BDE80240CAE780B540F2DC50FEF7FDFB73
:1085F0000020FFF7C3FFFFF778FF00228021044827
:10860000FDF7B6F903480021017001BD00180240D2
:10861000000802405C350020000401408012002068
:108620000000024066350020FE403E377E2DFE26CB
:108630007F20FF197F13FF0C00000000F8B54FF4F6
:1086400080041725594E5A4F3868204214BF012222
:1086500000224FF400413046FDF78AF901224FF421
:1086600080413046FDF784F90120FEF7BEFB002271
:108670004FF480413046FDF77BF964086D1EE3D16D
:1086800001224FF400513046FDF772F90120FEF748
:10869000ACFB00224FF400513046FDF769F9012090
:1086A000FEF7A3FB3046BDE8F84001224FF400512D
:1086B000FDF75EB93F490878401E05285ED8DFE81F
:1086C00000F003132333414F39480268497822F000
:1086D000C0020260012908BF42F040014DD00229CA
:1086E0004CD142F0800148E031480268497822F4D8
:1086F00040720260012908BF42F480713DD0022916
:108700003CD142F4007138E029480268497822F4EB
:1087100040620260012908BF42F480612DD0022925
:108720002CD142F4006128E0497821B92048016841
:1087300021F4805121E0012920D11D48016841F434
:1087400080511AE0497821B91948016821F4005193
:1087500013E0012912D11648016841F400510CE0E0
:10876000497821B91248016821F4804105E00129C6
:1087700004D10F48016841F480410160704710B591
:108780000A4C01224FF480512046FDF7F1F80A20EF
:10879000FEF72BFB00224FF480512046FDF7E8F84E
:1087A000034805490160BDE8104047E70004024066
:1087B0006035002064350020C07F700000B50100E6
:1087C000DFF8780183B001694FF400624FF2FF7364
:1087D00008D019404161009201218DF804108DF8F4
:1087E000051005E019404161009200218DF8041048
:1087F00000A9FCF707FF03B000BD70B504460120D7
:10880000FEF7E0FA0825DFF83461E4B2E0094FF43E
:108810000061304602D0FDF753F801E0FDF77CF827
:108820000120FEF7CFFA4FF480613046FDF748F89B
:108830000120FEF7C7FA64004FF480613046FDF76F
:108840006BF80120FEF7BEFA6D1EDED14FF4006119
:108850003046FDF761F80120FEF7B4FA4FF480616D
:108860003046FDF72DF80120FEF7ACFA3046BDE8A2
:1088700070404FF48061FDF74FB870B504460D4667
:10888000DFF8B8604FF400613046FDF719F80120B9
:10889000FFF794FF4FF400613046FDF711F84FF4F5
:1088A00080613046FDF70CF80120FEF78BFA4FF49B
:1088B00000613046FDF730F80120FEF783FA4FF4EF
:1088C00080613046FDF728F88A20FFF796FFE0B276
:1088D000FFF793FF2846FFF790FF4FF40061304603
:1088E000FDF71AF80120FEF76DFA4FF4806130466B
:1088F000FCF7E6FF0120FEF765FA3046BDE8704060
:108900004FF40061FCF7DCBF10B5841C02E0FFF7F8
:10891000B4FFA41C20786178FF2808BFFF29F6D196
:108920000021FFF7AAFFBDE810404FF4FA70FEF7F0
:1089300049BA00BF0248E7E7000000000004024017
:10894000E00F00207047000030B585B004460020DD
:108950000290ADF80C00ADF810000C20ADF80E0040
:1089600001A90FF29800224D50F82400019055F80B
:108970002400FEF72DFE55F824000121FEF7EFFE3E
:1089800055F82400012240F22551FEF77FFF55F8EB
:108990002400002240F22771FEF778FF0FF27000EA
:1089A00030F814008DF8000000208DF801008DF8DB
:1089B000020001208DF8030000A801F075F905B050
:1089C00030BD10B5044604220B48FEF781F9094872
:1089D0000021C17001220421417040F22771044836
:1089E00050F82400BDE81040FEF750BF0000000022
:1089F0005C12002050350020DF3100200000000014
:108A00000000000000C2010000E1000000C20100FF
:108A100000000000260000003400000000B585B012
:108A200000A800F0FCFF01984FF47A71B0FBF1F060
:108A3000B0F1807F65D20002DFF8C818000A401E3E
:108A40004860F022DFF8C00802700020886007202C
:108A50000860012000F0D4FF0121012001F026F878
:108A60000121022001F022F80121042001F01EF86A
:108A70000121082001F01AF80121102001F016F858
:108A80000121202001F012F80121402001F00EF810
:108A90000121084601F02CF80121042001F049F8D9
:108AA0000121082001F045F801214FF4804001F038
:108AB00040F801214FF4003001F03BF801214FF460
:108AC000002001F036F801214FF0007001F031F87C
:108AD00001214FF0806001F02CF80121022001F00B
:108AE0004AF80121102001F046F801214FF480508E
:108AF00001F041F801214FF4804001F03CF805B04D
:108B000000BDFEE72DE9FC414FF4C050009002206B
:108B10008DF8040000208DF8060001208DF8070074
:108B200002208DF8050000A9DFF8E0874046FCF739
:108B300069FD09220C214046FCF79EFF09220B210A
:108B40004046FCF799FF6020009002208DF8040059
:108B500000208DF8060001208DF8070002208DF816
:108B6000050000A9DFF8A8472046FCF74BFD0922C5
:108B700006212046FCF780FF092205212046FCF74C
:108B80007BFF0C20009000A902208DF8040000203B
:108B90008DF8060001208DF8070002208DF80500F1
:108BA0004046FCF72FFD072202214046FCF764FFF8
:108BB000072203214046FCF75FFF4FF44067009710
:108BC00001208DF8040000A900208DF80600012086
:108BD0008DF8070002208DF805002046FCF712FDF5
:108BE0000320009000A902208DF8040000208DF8D9
:108BF000060001208DF8070002208DF80500404690
:108C0000FCF700FD082200214046FCF735FF082252
:108C100001214046FCF730FF4FF4805000900120C6
:108C20008DF8040000208DF8060001208DF8070063
:108C300002208DF8050000A9DFF8D8562846FCF779
:108C4000E1FC0420009001208DF8040000208DF844
:108C5000060001208DF8070002208DF8050000A90C
:108C6000DFF8B4663046FCF7CDFCF020009000A998
:108C700002208DF8040000208DF8060001208DF8F8
:108C8000070002208DF805004046FCF7BBFC0522DA
:108C900004214046FCF7F0FE052205214046FCF782
:108CA000EBFE052206214046FCF7E6FE05220721E1
:108CB0004046FCF7E1FE009701208DF8040000A972
:108CC00000208DF8060001208DF8070002208DF8A5
:108CD00005002846FCF796FC4FF47040009000A970
:108CE00001208DF8040000208DF8060001208DF889
:108CF000070002208DF805002046FCF783FC0820C1
:108D0000009000A903208DF804000020ADF80600B3
:108D100002208DF805002846FCF774FC072000901F
:108D200001208DF8040000208DF8060001208DF848
:108D3000070002208DF8050000A9DFF8E07538462D
:108D4000FCF760FC4FF47C40009000A900208DF8F7
:108D500004008DF8060001208DF8070002208DF830
:108D600005003846FCF74EFC0120009000A90020C9
:108D70008DF804008DF8060001208DF80700022010
:108D80008DF805002046FCF73DFC0220009000A96C
:108D900001208DF8040000208DF8060001208DF8D8
:108DA000070002208DF805002046FCF72BFC102060
:108DB000009000A901208DF8040000208DF8060025
:108DC00001208DF8070002208DF805002846FCF7E9
:108DD00019FC2020009000A900208DF804008DF8D7
:108DE000060001208DF8070002208DF805002846B6
:108DF000FCF708FC4020009000A902208DF8040038
:108E000000208DF8060001208DF8070003208DF862
:108E100005002846FCF7F6FB032206212846FCF74E
:108E20002BFE8020009000A901208DF80400002076
:108E30008DF8060001208DF8070002208DF805004E
:108E40002846FCF7DFFB4FF48070009000A901205A
:108E50008DF8040000208DF8060001208DF8070031
:108E600002208DF805004046FCF7CCFB4FF4007063
:108E7000009000A901208DF8040000208DF8060064
:108E800001208DF8070002208DF805002846FCF728
:108E9000B9FB4FF40060009001208DF80400002021
:108EA0008DF8060001208DF8070002208DF80500DE
:108EB00000A9DFF86C844046FCF7A4FB4FF40047A0
:108EC000009701208DF8040000A900208DF806000D
:108ED00001208DF8070002208DF805004046FCF7C0
:108EE00091FB4FF44070009000A901208DF8040020
:108EF00000208DF8060001208DF8070002208DF873
:108F000005002046FCF77EFB4FF46050009000A95E
:108F100001208DF8040000208DF8060001208DF856
:108F2000070002208DF805003046FCF76BFBFF20A0
:108F3000009000A901208DF8040000208DF80600A3
:108F400001208DF8070002208DF805004046FCF74F
:108F500059FB4FF4E840009000A901208DF804006F
:108F600000208DF8060001208DF8070002208DF802
:108F700005004046FCF746FB4FF40050009000A966
:108F800000208DF804008DF8060001208DF8070000
:108F900002208DF805002846FCF734FB00970120DD
:108FA0008DF8040000A900208DF8060001208DF83E
:108FB000070002208DF805002846FCF723FB4CF241
:108FC0000370009000A902208DF8040000208DF8A5
:108FD000070002208DF805003046FCF713FB0C2239
:108FE0000A213046FCF748FD0C2209213046FCF7E7
:108FF00043FD0C2208213046FCF73EFD0C220121E6
:109000003046FCF739FD0C2200213046FCF734FDD8
:109010000C220F213046FCF72FFD0C220E2130468A
:10902000FCF72AFD4FF68070009000A9BD4D284640
:10903000FCF7E8FA0C220F212846FCF71DFD0C2254
:109040000E212846FCF718FD0C220D212846FCF7BE
:1090500013FD0C2211462846FCF70EFD0C220B21B5
:109060002846FCF709FD0C220A212846FCF704FDDE
:109070000C2209212846FCF7FFFC0C220821284677
:10908000FCF7FAFC0C2207212846FCF7F5FC7820B7
:10909000009000A93046FCF7B5FA0C2204213046B6
:1090A000FCF7EAFC0C2205213046FCF7E5FC0C221B
:1090B00006213046FCF7E0FC0C2203213046FCF789
:1090C000DBFC0320009000A92846FCF79BFA0C2249
:1090D00000212846FCF7D0FC0C2201212846FCF791
:1090E000CBFC802000900C2207212046FCF7C4FC1A
:1090F00000A92046FCF786FA8020009000A930469F
:10910000FCF780FA0C2207213046FCF7B5FC00F092
:1091100002F8BDE8F381F0B583B044F20710009087
:1091200001208DF8040000208DF8060001208DF844
:10913000070002208DF8050000A9764C2046FCF7B8
:1091400061FA4FF47E70009001208DF80400002039
:109150008DF8060001208DF8070002208DF805002B
:1091600000A96E4D2846FCF74DFA4FF44070009070
:1091700001208DF8040000208DF8060001208DF8F4
:10918000070002208DF8050000A9654E3046FCF767
:1091900039FA3C20009001208DF8040000208DF861
:1091A000060001208DF8070002208DF8050000A9B7
:1091B0005C4F3846FCF726FA01212046FCF7ACFB51
:1091C00002212046FCF7A8FB04212046FCF7A4FB63
:1091D0004FF480712046FCF79FFB4FF480412046FE
:1091E000FCF79AFB08212846FCF796FB102128463D
:1091F000FCF792FB20212846FCF78EFB40212846F5
:10920000FCF78AFB80212846FCF786FB4FF480712F
:109210002846FCF781FB4FF400712846FCF77CFBE5
:109220004FF480713046FCF777FB4FF40071304605
:10923000FCF772FB04213846FCF76EFB0821384628
:10924000FCF76AFB10213846FCF766FB2021384604
:10925000FCF762FB03B0F0BD80B5FFF7DFFB4FF416
:1092600080414FF0006000F065FDBDE8014049E439
:1092700038B502212648FCF74FFB264C102120462A
:10928000FCF74AFB80212046FCF746FB244D4FF4B7
:1092900000612846FCF740FB4FF400412846FCF7EC
:1092A0003BFB4FF480512046FCF736FB04211A4863
:1092B000FCF732FB4FF400712046FCF701FB4FF442
:1092C00080711248FCF728FB2046BDE834404FF47B
:1092D0000041FCF721BB80B51421134801F0BCF814
:1092E0001248072101F0BCF80821114801F0B8F834
:1092F0001048042101F0B4F800F01EF8BDE8014068
:10930000FDF7D1BD10E000E023ED00E000000240D9
:109310000004024000080240000C02400014024019
:109320000018024000100240AC34002094340020A9
:10933000C83400205C350020DFF8340602210170BB
:10934000F5214170082181700021C173032101744E
:10935000002141848184C16241770185704738B51D
:10936000DFF80C46608C41F6FF518842A4BF002014
:109370006084608CDFF8FC5500190422291D303010
:1093800000F053FD608C001D6084082280B200193B
:1093900005F10B01303000F048FD608C083060842E
:1093A0000122BDE8384020E010B5DFF8C445DFF801
:1093B000C815A07F022805DA0822E01C00F035FD60
:1093C000E1200EE0042806DA08220831E01C00F053
:1093D0002CFDE12005E008221031E01C00F025FD05
:1093E000E220E0730122BDE8104040F22771DFF86F
:1093F0008C05FEF74BBA7047FEE7FEE7FEE7FEE797
:1094000070477047704780B5FDF7D2FCDFF87005F4
:10941000016801228280491C0A22B1FBF2F202EBB0
:109420008203B1EB430216D10122C280642364227D
:10943000B1FBF2F203FB12126AB9012202814FF46E
:109440007A734FF47A72B1FBF2F203FB121212B983
:10945000012141820021016001BD38B5DFF81445CA
:10946000DFF8200522460021FEF785FDDFF80055D4
:1094700060682876000AE875287E472818BF1728F4
:1094800005D01D281CBFE428DD2840F08280287FFD
:10949000401CC0B23228A1BF0020698C41F6FF52A7
:1094A0009142A8BF688428776068C0F30740FE280F
:1094B00018BFFF2826D1E87DFB2809D1DFF8C804B2
:1094C00000210170DFF8C4040180DFF8C40458E013
:1094D00099280FD0AA2858D1E07AC0F3810085F8E6
:1094E0002000E87F01281BBF95F8200001280120FB
:1094F000002004E0A07CC0F30110E877F1E7FEF75C
:1095000070FE42E0EB2812BFEC28E97DFF293ED136
:10951000EC2818D1E07A202839D1607C217C41EAFE
:1095200000204FF63C71E862884207D1A07B217B86
:10953000A884607B41EA0020E88431BD0020E87304
:10954000BDE831400BE7E96A09B3EB281FD14FF6BC
:109550003C70814217D1E07ADFF83834C0EBC000AC
:10956000C018072204F10C01C01F00F05EFCE07A75
:10957000A98C88420BD10020A884E8620121DFF881
:109580001804017003E00020E873FFF7E8FE0020F4
:10959000288531BD10B50121DFF8000400F0C2FEBE
:1095A000DFF8FC432088022808D1A0886288411C8B
:1095B0009042A18004D30020208010BD012803D157
:1095C000BDE81040FEF7FBBDFEF702FE0020208044
:1095D0006080A08010BD80B50121DFF8C80300F0D5
:1095E000A1FEBDE80140FEF77BBEF8B5DFF88C4375
:1095F00040F225512046FEF7C5F9002800F0DF8033
:109600002046FEF70EF9DFF8A053297F48550800E1
:1096100004D0012908D019290CD0CEE028780228DE
:1096200040F0CD800120C9E06878F52814BF002003
:109630000220C3E000202877687E032840F0BF8026
:10964000E878012822D02E2829D0452830D0462875
:1096500037D0A0283ED0A1285FD0A22866D0A3286A
:109660006DD0C82877D0C92879D0CA287BD0CD281A
:109670006ED0D22800F08080FB2800F08180FC288A
:1096800000F08780FD2800F08D8098E0C748012118
:109690000170002068770021B54881778FE00822AB
:1096A000C348016841F480610160291DC14881E01F
:1096B000BF48016841F0010101600822291DBE4830
:1096C00078E0BB48016841F0020101601522291DC4
:1096D000BA486FE0BA4E307800F0C000C02805D11B
:1096E0000822291D3046FDF7F3FA0AE00722691D1A
:1096F000701CFDF7EDFA2979307801F03F0108433D
:109700003070C021287908421CBF00F0C0004028FA
:1097100055D10822291D30464CE0A548016841F08A
:10972000080101600E22291DA64843E0A6480179E0
:10973000002919BF0422291D0822291D3AE09C484E
:10974000016841F0200101600822291D9F4831E095
:109750000120A87733E00822291D9D482AE09D4872
:109760000822291D26E09248016841F480710160B9
:109770000822291D98481DE098480822291D19E053
:109780008B48016841F0400101600822291D94487E
:1097900010E08748016841F0800101600822291D1E
:1097A000904807E08248016841F400710160082296
:1097B000291D8D48FDF78CFA01E0481C287740F2FE
:1097C000277631462046FEF7DDF800284AD020886B
:1097D000000647D5744D288C41F6FF518842A4BF3E
:1097E00000202884624F787F48B9687F38B1288C80
:1097F000C01900F130010C22F81CFDF769FA787FDE
:10980000411C7977C15D2046FDF7DDFF787F112887
:1098100028DB687F08BBB87F062813DB0020787739
:10982000F87300210120687701226048017020460A
:109830003146FEF72BF8BDE8F840012202215148DD
:10984000FEF7F2BB401CB877314600207877002243
:109850002046BDE8F840FEF719B800207877288C3C
:109860000C302884F1BD70B5604C40F22551204683
:10987000FEF788F8002856D02046FDF7D2FF5C4D51
:109880005C4E6979891981F802026879010004D077
:10989000012808D0032814D043E096F802020228D9
:1098A00041D101203EE006F2022040784B281CBF47
:1098B0004C28422801D1022034E04D2833D1022027
:1098C00030E00020687106F20220C178032922D11D
:1098D000417842290AD04C2902D04D2911D01AE0F2
:1098E0008078092817DAFEF7D0FD14E08078112877
:1098F00002D1FEF769FC0EE010280CD1FEF76DFCDA
:1099000009E080783C4A0109117000F00F003B49E2
:109910000870FEF7CFFE042106F2022000F0A0FD41
:1099200001E0401C687140F2277631462046FEF780
:1099300029F8D8B12E4DE878411CE9702D4940181E
:1099400090F8FF102046FDF73EFF68780428A4BF7A
:1099500004206870E8786978884207D1002231468F
:109960002046FDF793FF00206870E87070BD00008E
:10997000B012002030350020D034002000440040D8
:10998000AC34002000640040A1340020C234002028
:10999000A534002038330020A33300200008004005
:1099A000C8340020000C00400C350020A2340020F8
:1099B00078340020C8330020D033002058340020F1
:1099C000D83300208434002088330020E033002086
:1099D000B0330020B8330020A8330020C03300206B
:1099E000E8330020F0330020F8330020004C004022
:1099F00050350020E030002064350020653500201F
:109A000010B5040018BF012C05D040F20F210FF251
:109A10002420FCF714F9DFF8EC01046010BDDFF836
:109A2000E0114A6802F00C02042A02D0082A03D08E
:109A30001CE0DFF8D4211BE00A680B68C2F38052F7
:109A400003F03F03002A14BFDFF8BC21DFF8BC217C
:109A5000B2FBF3F20B68C3F388135A430B68C3F3EA
:109A600001435B1C5B00B2FBF3F201E0DFF89C21D9
:109A700002604B68DFF89821D0F800C0C3F30313ED
:109A80009B5C2CFA03F343604B68D0F804C0C3F32B
:109A900082239B5C2CFA03F3836049684368C1F31B
:109AA0004231895C23FA01F1C160704738B5044640
:109AB000DFF860010D46044200D12CB940F2464166
:109AC0000FF27010FCF7BBF865B1012D05D00FF255
:109AD00064104FF48961FCF7B2F8DFF83C010168CB
