:020000040800F2
:10400000C01701203D1001089DEB00089FEB000840
:10401000A1EB0008A3EB0008A5EB000800000000DE
:10402000000000000000000000000000A7EB0008F6
:10403000A9EB000800000000ABEB0008ADEB0008A6
:104040007D10010881100108851001088910010800
:104050008D100108911001089510010899100108B0
:104060009D100108A1100108A5100108A910010860
:10407000AD100108B1100108B5100108B910010810
:10408000BD100108C1100108C5100108C9100108C0
:1040900041EC0008D1100108D5100108D910010821
:1040A000DD100108E1100108E5100108E910010820
:1040B000ED100108F11001087BED0008F91001086E
:1040C000FD1001080111010805110108091101087D
:1040D0000D11010811110108E5ED00081911010881
:1040E0001D110108211101082511010829110108DC
:1040F0002D1101083111010835110108391101088C
:104100003D11010841110108D1ED000849110108D4
:1041100043EE000851110108551101085911010819
:104120005D1101086111010865110108691101089B
:104130006D1101087111010875110108791101084B
:104140007D110108811101088511010889110108FB
:104150008D110108911101089511010899110108AB
:104160009D110108A1110108A5110108A91101085B
:10417000AD110108B1110108B5110108B91101080B
:10418000BD110108C111010880B50021FF2003F015
:1041900038F903F00AFA0221942003F032F9BDE85D
:1041A00004400021942003F02CB980B50021FF20A9
:1041B00003F027F90021942003F023F980219520B2
:1041C00003F01FF91C21962003F01BF943219720CF
:1041D00003F017F90621982003F013F90021942029
:1041E00003F00FF98021952003F00BF91D21962093
:1041F00003F007F94821972003F003F906219820DE
:1042000003F0FFF80021942003F0FBF880219520B3
:1042100003F0F7F81E21962003F0F3F8312102F0A5
:104220006DBF80B50021FF2003F0EBF80021942042
:1042300003F0E7F88021952003F0E3F81C21962095
:1042400003F0DFF84321972003F0DBF806219820E4
:1042500003F0D7F80021942003F0D3F880219520B3
:1042600003F0CFF81D21962003F0CBF848219720CA
:1042700003F0C7F80621982003F0C3F8002194202A
:1042800003F0BFF88021952003F0BBF81E21962093
:1042900003F0B7F8322102F031BF80B50021FF20D2
:1042A00003F0AFF80021942003F0ABF880219520B3
:1042B00003F0A7F81C21962003F0A3F843219720D0
:1042C00003F09FF80621982003F09BF8002194202A
:1042D00003F097F88021952003F093F81D21962094
:1042E00003F08FF84821972003F08BF806219820DF
:1042F00003F087F80021942003F083F880219520B3
:1043000003F07FF81E21962003F07BF8332102F0A2
:10431000F5BE80B50021FF2003F073F80021942042
:1043200003F06FF88021952003F06BF81C21962094
:1043300003F067F84321972003F063F806219820E3
:1043400003F05FF80021942003F05BF880219520B2
:1043500003F057F81D21962003F053F848219720C9
:1043600003F04FF80621982003F04BF80021942029
:1043700003F047F88021952003F043F81E21962092
:1043800003F03FF8342102F0B9BE80B50021FF20D0
:1043900003F037F80021942003F033F880219520B2
:1043A00003F02FF81C21962003F02BF820219720F2
:1043B00003F027F80621982003F023F80021942029
:1043C00003F01FF88021952003F01BF81D21962093
:1043D00003F017F82021972003F013F80621982006
:1043E00003F00FF80021942003F00BF880219520B2
:1043F00003F007F81E21962003F003F820219720F0
:1044000002F0FFFFBDE80440082102F07DBE80B548
:104410000021FF2002F0F5FF0021942002F0F1FFBF
:104420008021952002F0EDFFD821962002F0E9FFCF
:104430004E21972002F0E5FF0621982002F0E1FFCF
:104440000021942002F0DDFF8021952002F0D9FFA9
:10445000D921962002F0D5FF4F21972002F0D1FFFD
:104460000621982002F0CDFF0021942002F0C9FF20
:104470008021952002F0C5FFDA21962002F0C1FFCD
:104480002021972002F0BDFF0621982002F0B9FFFD
:104490000021942002F0B5FF8021952002F0B1FFA9
:1044A000DB21962002F0ADFF5321972002F0A9FFF7
:1044B0000621982002F0A5FF0021942002F0A1FF20
:1044C0008021952002F09DFFDC21962002F099FFCB
:1044D0004921972002F095FF0621982002F091FFD4
:1044E0000021942002F08DFF8021952002F089FFA9
:1044F000DD21962002F085FF4721972002F081FF01
:104500000621982002F07DFF0021942002F079FF1F
:104510008021952002F075FFDE21962002F071FFC8
:104520004E21972002F06DFF0621982002F069FFCE
:104530000021942002F065FF8021952002F061FFA8
:10454000DF21962002F05DFF4121972002F059FF04
:104550000621982002F055FF0021942002F051FF1F
:104560008021952002F04DFFE021962002F049FFC6
:104570004C2102F0C3BD80B5DFF8980A007878B905
:10458000DFF8940A007820B900F0BCF800F0DAF8FF
:1045900003E000F0F7F800F015F9BDE801404EE146
:1045A000BDE8014080B50021FF2002F02AFF002174
:1045B000942002F026FF8021952002F022FFD821CE
:1045C000962002F01EFF2021972002F01AFF0621FC
:1045D000982002F016FF0021942002F012FF8021A3
:1045E000952002F00EFFD921962002F00AFF20212B
:1045F000972002F006FF0621982002F002FF00211A
:10460000942002F0FEFE8021952002F0FAFEDA21CD
:10461000962002F0F6FE2021972002F0F2FE0621FD
:10462000982002F0EEFE0021942002F0EAFE8021A4
:10463000952002F0E6FEDB21962002F0E2FE20212A
:10464000972002F0DEFE0621982002F0DAFE00211B
:10465000942002F0D6FE8021952002F0D2FEDC21CB
:10466000962002F0CEFE2021972002F0CAFE0621FD
:10467000982002F0C6FE0021942002F0C2FE8021A4
:10468000952002F0BEFEDD21962002F0BAFE202128
:10469000972002F0B6FE0621982002F0B2FE00211B
:1046A000942002F0AEFE8021952002F0AAFEDE21C9
:1046B000962002F0A6FE2021972002F0A2FE0621FD
:1046C000982002F09EFE0021942002F09AFE8021A4
:1046D000952002F096FEDF21962002F092FE202126
:1046E000972002F08EFE0621982002F08AFE00211B
:1046F000942002F086FE8021952002F082FEE021C7
:1047000002F0F8BC10B50021FF2002F07AFE002470
:104710008021942002F075FE8021952002F071FE28
:10472000A4F12901C9B2962002F06BFEB4219720B2
:1047300002F067FE0221982002F063FE641C0B2C3D
:10474000E6DB10BD10B50021FF2002F05AFE002468
:104750008021942002F055FE8121952002F051FE27
:1047600004F15901C9B2962002F04BFEB421972002
:1047700002F047FE0421982002F043FE641C162C30
:10478000E6DB10BD10B50021FF2002F03AFE002448
:104790000021942002F035FE8021952002F031FEA8
:1047A000A4F12901C9B2962002F02BFE2021972006
:1047B00002F027FE0221982002F023FE641C0B2C3D
:1047C000E6DB10BD10B50021FF2002F01AFE002428
:1047D0000021942002F015FE8121952002F011FEA7
:1047E00004F15901C9B2962002F00BFE2021972056
:1047F00002F007FE0421982002F003FE641C162C30
:10480000E6DB10BD80B5FFF7C0FD00F00BF902F04C
:1048100082FB01F027FB00F0A0F900F05FFE00F042
:10482000FDFB01F0BFF801F080FC01F0E3FD01F0B9
:1048300049FF02F0AAF8BDE8014002F009BA80B5CC
:10484000DFF8D4070078002849D18021942002F0B5
:10485000D8FD8021952002F0D4FD0121962002F0A0
:10486000D0FDB621972002F0CCFD0221982002F065
:10487000C8FD8021942002F0C4FD8021952002F023
:10488000C0FD0221962002F0BCFDB721972002F066
:10489000B8FD0221982002F0B4FD8021942002F09E
:1048A000B0FD8021952002F0ACFD2321962002F07E
:1048B000A8FDB821972002F0A4FD0221982002F063
:1048C000A0FD8021942002F09CFD8021952002F023
:1048D00098FD2421962002F094FDB92148E0802122
:1048E000942002F08EFD8021952002F08AFD0121A6
:1048F000962002F086FDBA21972002F082FD022167
:10490000982002F07EFD8021942002F07AFD802123
:10491000952002F076FD0221962002F072FDBB2167
:10492000972002F06EFD0221982002F06AFD80219E
:10493000942002F066FD8021952002F062FD232183
:10494000962002F05EFDBC21972002F05AFD022164
:10495000982002F056FD8021942002F052FD802123
:10496000952002F04EFD2421962002F04AFDBD2143
:10497000972002F046FDBDE80440022102F0C4BBCE
:1049800080B50021942002F03CFD8021952002F0AA
:1049900038FD0121962002F034FD2021972002F0FD
:1049A00030FD0221982002F02CFD0021942002F01D
:1049B00028FD8021952002F024FD0221962002F09E
:1049C00020FD2021972002F01CFD0221982002F0FA
:1049D00018FD0021942002F014FD8021952002F0A2
:1049E00010FD2321962002F00CFD2021972002F0DB
:1049F00008FD0221982002F004FD0021942002F01D
:104A000000FD8021952002F0FCFC2421962002F07C
:104A1000F8FC2021972002F0F4FCBDE804400221BC
:104A200002F072BB80B5DFF8B00A0078002849D1E7
:104A30008021942002F0E5FC8021952002F0E1FC29
:104A40000121962002F0DDFC0021972002F0D9FC24
:104A50000621982002F0D5FC8021942002F0D1FCA0
:104A60008021952002F0CDFC0221962002F0C9FCA5
:104A70000121972002F0C5FC0621982002F0C1FC1C
:104A80008021942002F0BDFC8021952002F0B9FC29
:104A90002321962002F0B5FC0221972002F0B1FC00
:104AA0000621982002F0ADFC8021942002F0A9FCA0
:104AB0008021952002F0A5FC2421962002F0A1FC83
:104AC000032148E00021942002F09BFC80219520E6
:104AD00002F097FC0121962002F093FC2021972000
:104AE00002F08FFC0621982002F08BFC002194201C
:104AF00002F087FC8021952002F083FC02219620A1
:104B000002F07FFC2021972002F07BFC06219820F8
:104B100002F077FC0021942002F073FC80219520A4
:104B200002F06FFC2321962002F06BFC20219720DD
:104B300002F067FC0621982002F063FC002194201B
:104B400002F05FFC8021952002F05BFC242196207E
:104B500002F057FC202102F0D1BA80B5DFF87809C5
:104B60000078002840F0DD81DFF82C1EDFF82C0EE5
:104B700009780078042940F0EA80012875D1802165
:104B8000942002F03EFC8021952002F03AFC1E2188
:104B9000962002F036FC7821972002F032FC0421A6
:104BA000982002F02EFC8021942002F02AFC802123
:104BB000952002F026FC1F21962002F022FC79218C
:104BC000972002F01EFC0421982002F01AFC80219C
:104BD000942002F016FC8021952002F012FC202186
:104BE000962002F00EFC7A21972002F00AFC0421A4
:104BF000982002F006FC8021942002F002FC802123
:104C0000952002F0FEFB4021962002F0FAFB7B216A
:104C1000972002F0F6FB0421982002F0F2FB80219D
:104C2000942002F0EEFB8021952002F0EAFB412166
:104C3000962002F0E6FB7C21972002F0E2FB0421A3
:104C4000982002F0DEFB8021942002F0DAFB802124
:104C5000952002F0D6FB4221962002F0D2FB7D2166
:104C6000972002F0CEFB0421D0E18021942002F0B5
:104C7000C8FB8021952002F0C4FB1E21962002F083
:104C8000C0FB7821972002F0BCFB0621982002F09F
:104C9000B8FB8021942002F0B4FB8021952002F023
:104CA000B0FB1F21962002F0ACFB7921972002F087
:104CB000A8FB0621982002F0A4FB8021942002F09A
:104CC000A0FB8021952002F09CFB2021962002F081
:104CD00098FB7A21972002F094FB0621982002F09D
:104CE00090FB8021942002F08CFB8021952002F023
:104CF00088FB4021962002F084FB7B21972002F064
:104D000080FB0621982002F07CFB8021942002F099
:104D100078FB8021952002F074FB4121962002F05F
:104D200070FB7C21972002F06CFB0621982002F09A
:104D300068FB8021942002F064FB8021952002F022
:104D400060FB4221962002F05CFB7D215AE10128A4
:104D500075D18021942002F054FB8021952002F02F
:104D600050FB1E21962002F04CFB0C21972002F0F4
:104D700048FB0421982002F044FB8021942002F09B
:104D800040FB8021952002F03CFB1F21962002F081
:104D900038FB0D21972002F034FB0421982002F00B
:104DA00030FB8021942002F02CFB8021952002F022
:104DB00028FB2021962002F024FB0E21972002F0F0
:104DC00020FB0421982002F01CFB8021942002F09B
:104DD00018FB8021952002F014FB4021962002F060
:104DE00010FB0F21972002F00CFB0421982002F009
:104DF00008FB8021942002F004FB8021952002F022
:104E000000FB4121962002F0FCFA1021972002F0CD
:104E1000F8FA0421982002F0F4FA8021942002F09C
:104E2000F0FA8021952002F0ECFA4221962002F05F
:104E3000E8FA1121972002F0E4FA0421E6E080214B
:104E4000942002F0DEFA8021952002F0DAFA1E2189
:104E5000962002F0D6FA0C21972002F0D2FA062111
:104E6000982002F0CEFA8021942002F0CAFA802124
:104E7000952002F0C6FA1F21962002F0C2FA0D21F9
:104E8000972002F0BEFA0621982002F0BAFA80219B
:104E9000942002F0B6FA8021952002F0B2FA202187
:104EA000962002F0AEFA0E21972002F0AAFA06210F
:104EB000982002F0A6FA8021942002F0A2FA802124
:104EC000952002F09EFA4021962002F09AFA0F21D6
:104ED000972002F096FA0621982002F092FA80219B
:104EE000942002F08EFA8021952002F08AFA412166
:104EF000962002F086FA1021972002F082FA06210D
:104F0000982002F07EFA8021942002F07AFA802123
:104F1000952002F076FA4221962002F072FA1121D1
:104F200070E00021942002F06CFA8021952002F0BC
:104F300068FA1E21962002F064FA2021972002F0E0
:104F400060FA0621982002F05CFA0021942002F019
:104F500058FA8021952002F054FA1F21962002F081
:104F600050FA2021972002F04CFA0621982002F0F6
:104F700048FA0021942002F044FA8021952002F0A2
:104F800040FA2021962002F03CFA2021972002F0DE
:104F900038FA0621982002F034FA0021942002F019
:104FA00030FA8021952002F02CFA4021962002F060
:104FB00028FA2021972002F024FA0621982002F0F6
:104FC00020FA0021942002F01CFA8021952002F0A2
:104FD00018FA4121962002F014FA2021972002F0BD
:104FE00010FA0621982002F00CFA0021942002F019
:104FF00008FA8021952002F004FA4221962002F05E
:1050000000FA2021972002F0FCF90621BDE80440B7
:1050100002F07AB8B70F0120B40F012080B5DFF895
:10502000B8040078002840F0DD81DFF86C19DFF863
:10503000300E09780078052940F0EA80012875D102
:105040008021942002F0DDF98021952002F0D9F929
:105050008421962002F0D5F98421972002F0D1F91D
:105060000421982002F0CDF98021942002F0C9F9A2
:105070008021952002F0C5F98521962002F0C1F922
:105080008521972002F0BDF90421982002F0B9F99A
:105090008021942002F0B5F98021952002F0B1F929
:1050A0008621962002F0ADF98621972002F0A9F919
:1050B0000421982002F0A5F98021942002F0A1F9A2
:1050C0008021952002F09DF9A621962002F099F901
:1050D0008721972002F095F90421982002F091F998
:1050E0008021942002F08DF98021952002F089F929
:1050F000A721962002F085F98821972002F081F9F6
:105100000421982002F07DF98021942002F079F9A1
:105110008021952002F075F9A821962002F071F9FE
:105120008921972002F06DF90421D0E1802194209B
:1051300002F067F98021952002F063F9842196201E
:1051400002F05FF98421972002F05BF90621982094
:1051500002F057F98021942002F053F98021952024
:1051600002F04FF98521962002F04BF98521972016
:1051700002F047F90621982002F043F9802194209B
:1051800002F03FF98021952002F03BF9862196201C
:1051900002F037F98621972002F033F90621982092
:1051A00002F02FF98021942002F02BF98021952024
:1051B00002F027F9A621962002F023F987219720F3
:1051C00002F01FF90621982002F01BF9802194209B
:1051D00002F017F98021952002F013F9A7219620FB
:1051E00002F00FF98821972002F00BF90621982090
:1051F00002F007F98021942002F003F98021952024
:1052000002F0FFF8A821962002F0FBF889215AE16C
:10521000012875D18021942002F0F3F88021952097
:1052200002F0EFF88421962002F0EBF81821972085
:1052300002F0E7F80421982002F0E3F8802194209E
:1052400002F0DFF88021952002F0DBF8852196201E
:1052500002F0D7F81921972002F0D3F80421982002
:1052600002F0CFF88021942002F0CBF88021952025
:1052700002F0C7F88621962002F0C3F81A21972081
:1052800002F0BFF80421982002F0BBF8802194209E
:1052900002F0B7F88021952002F0B3F8A6219620FD
:1052A00002F0AFF81B21972002F0ABF80421982000
:1052B00002F0A7F88021942002F0A3F88021952025
:1052C00002F09FF8A721962002F09BF81C2197205E
:1052D00002F097F80421982002F093F8802194209E
:1052E00002F08FF88021952002F08BF8A8219620FB
:1052F00002F087F81D21972002F083F80421E6E0F0
:105300008021942002F07DF88021952002F079F828
:105310008421962002F075F81821972002F071F888
:105320000621982002F06DF88021942002F069F89F
:105330008021952002F065F88521962002F061F821
:105340001921972002F05DF80621982002F059F803
:105350008021942002F055F88021952002F051F828
:105360008621962002F04DF81A21972002F049F884
:105370000621982002F045F88021942002F041F89F
:105380008021952002F03DF8A621962002F039F800
:105390001B21972002F035F80621982002F031F801
:1053A0008021942002F02DF88021952002F029F828
:1053B000A721962002F025F81C21972002F021F861
:1053C0000621982002F01DF88021942002F019F89F
:1053D0008021952002F015F8A821962002F011F8FE
:1053E0001D2170E00021942002F00BF8802195200F
:1053F00002F007F88421962002F003F8202197207C
:1054000001F0FFFF0621982001F0FBFF002194200E
:1054100001F0F7FF8021952001F0F3FF8521962010
:1054200001F0EFFF2021972001F0EBFF06219820EB
:1054300001F0E7FF0021942001F0E3FF8021952097
:1054400001F0DFFF8621962001F0DBFF202197206D
:1054500001F0D7FF0621982001F0D3FF002194200E
:1054600001F0CFFF8021952001F0CBFFA6219620EF
:1054700001F0C7FF2021972001F0C3FF06219820EB
:1054800001F0BFFF0021942001F0BBFF8021952097
:1054900001F0B7FFA721962001F0B3FF202197204C
:1054A00001F0AFFF0621982001F0ABFF002194200E
:1054B00001F0A7FF8021952001F0A3FFA8219620ED
:1054C00001F09FFF2021972001F09BFF0621BDE8FE
:1054D000044001F019BE00001AE2002080B5DFF898
:1054E000C0040078002840F0DD81DFF8AC14DFF85C
:1054F000000F09780078062940F0EA80012875D16C
:105500008021942001F07DFF8021952001F079FF1A
:10551000EA21962001F075FF7E21972001F071FFAE
:105520000421982001F06DFF8021942001F069FF93
:105530008021952001F065FFEB21962001F061FFAD
:105540007F21972001F05DFF0421982001F059FF91
:105550008021942001F055FF8021952001F051FF1A
:10556000EC21962001F04DFF8021972001F049FFAA
:105570000421982001F045FF8021942001F041FF93
:105580008121952001F03DFF0C21962001F039FF8B
:105590008121972001F035FF0421982001F031FF8F
:1055A0008021942001F02DFF8121952001F029FF19
:1055B0000D21962001F025FF8221972001F021FF87
:1055C0000421982001F01DFF8021942001F019FF93
:1055D0008121952001F015FF0E21962001F011FF89
:1055E0008321972001F00DFF0421D0E18021942038
:1055F00001F007FF8021952001F003FFEA219620AA
:1056000001F0FFFE7E21972001F0FBFE062198208D
:1056100001F0F7FE8021942001F0F3FE8021952017
:1056200001F0EFFEEB21962001F0EBFE7F219720A9
:1056300001F0E7FE0621982001F0E3FE802194208E
:1056400001F0DFFE8021952001F0DBFEEC219620A9
:1056500001F0D7FE8021972001F0D3FE062198208B
:1056600001F0CFFE8021942001F0CBFE8121952016
:1056700001F0C7FE0C21962001F0C3FE8121972086
:1056800001F0BFFE0621982001F0BBFE802194208E
:1056900001F0B7FE8121952001F0B3FE0D21962087
:1056A00001F0AFFE8221972001F0ABFE0621982089
:1056B00001F0A7FE8021942001F0A3FE8121952016
:1056C00001F09FFE0E21962001F09BFE83215AE1FE
:1056D000012875D18021942001F093FE802195202E
:1056E00001F08FFEEA21962001F08BFE1221972017
:1056F00001F087FE0421982001F083FE8021942090
:1057000001F07FFE8021952001F07BFEEB219620A9
:1057100001F077FE1321972001F073FE04219820F9
:1057200001F06FFE8021942001F06BFE8021952016
:1057300001F067FEEC21962001F063FE1421972012
:1057400001F05FFE0421982001F05BFE802194208F
:1057500001F057FE8121952001F053FE0C21962087
:1057600001F04FFE1521972001F04BFE04219820F7
:1057700001F047FE8021942001F043FE8121952015
:1057800001F03FFE0D21962001F03BFE16219720EF
:1057900001F037FE0421982001F033FE802194208F
:1057A00001F02FFE8121952001F02BFE0E21962085
:1057B00001F027FE1721972001F023FE0421E6E0E7
:1057C0008021942001F01DFE8021952001F019FE1A
:1057D000EA21962001F015FE1221972001F011FE1A
:1057E0000621982001F00DFE8021942001F009FE91
:1057F0008021952001F005FEEB21962001F001FEAD
:105800001321972001F0FDFD0621982001F0F9FDFC
:105810008021942001F0F5FD8021952001F0F1FD1B
:10582000EC21962001F0EDFD1421972001F0E9FD17
:105830000621982001F0E5FD8021942001F0E1FD92
:105840008121952001F0DDFD0C21962001F0D9FD8C
:105850001521972001F0D5FD0621982001F0D1FDFA
:105860008021942001F0CDFD8121952001F0C9FD1A
:105870000D21962001F0C5FD1621972001F0C1FDF4
:105880000621982001F0BDFD8021942001F0B9FD92
:105890008121952001F0B5FD0E21962001F0B1FD8A
:1058A000172170E00021942001F0ABFD80219520AC
:1058B00001F0A7FDEA21962001F0A3FD2021972009
:1058C00001F09FFD0621982001F09BFD002194200E
:1058D00001F097FD8021952001F093FDEB219620AA
:1058E00001F08FFD2021972001F08BFD06219820EB
:1058F00001F087FD0021942001F083FD8021952097
:1059000001F07FFDEC21962001F07BFD2021972006
:1059100001F077FD0621982001F073FD002194200D
:1059200001F06FFD8121952001F06BFD0C21962087
:1059300001F067FD2021972001F063FD06219820EA
:1059400001F05FFD0021942001F05BFD8121952095
:1059500001F057FD0D21962001F053FD20219720E5
:1059600001F04FFD0621982001F04BFD002194200D
:1059700001F047FD8121952001F043FD0E21962085
:1059800001F03FFD2021972001F03BFD0621BDE8FD
:10599000044001F0B9BB000018E200201BE2002027
:1059A0001AE2002080B5DFF8100D0078002840F0E2
:1059B000DD81DFF8081DDFF8080D09780078072978
:1059C00040F0EA80012875D18021942001F019FD72
:1059D0008121952001F015FD5021962001F011FD47
:1059E0008A21972001F00DFD0421982001F009FD86
:1059F0008021942001F005FD8121952001F001FD19
:105A00005121962001F0FDFC8B21972001F0F9FC3B
:105A10000421982001F0F5FC8021942001F0F1FC94
:105A20008121952001F0EDFC5221962001F0E9FC46
:105A30008C21972001F0E5FC0421982001F0E1FC85
:105A40008021942001F0DDFC8121952001F0D9FC1A
:105A50007221962001F0D5FC8D21972001F0D1FC18
:105A60000421982001F0CDFC8021942001F0C9FC94
:105A70008121952001F0C5FC7321962001F0C1FC25
:105A80008E21972001F0BDFC0421982001F0B9FC83
:105A90008021942001F0B5FC8121952001F0B1FC1A
:105AA0007421962001F0ADFC8F21972001F0A9FC14
:105AB0000421D0E18021942001F0A3FC81219520D4
:105AC00001F09FFC5021962001F09BFC8A21972039
:105AD00001F097FC0621982001F093FC802194208E
:105AE00001F08FFC8121952001F08BFC5121962043
:105AF00001F087FC8B21972001F083FC0621982080
:105B000001F07FFC8021942001F07BFC8121952015
:105B100001F077FC5221962001F073FC8C21972034
:105B200001F06FFC0621982001F06BFC802194208D
:105B300001F067FC8121952001F063FC7221962021
:105B400001F05FFC8D21972001F05BFC062198207D
:105B500001F057FC8021942001F053FC8121952015
:105B600001F04FFC7321962001F04BFC8E21972011
:105B700001F047FC0621982001F043FC802194208D
:105B800001F03FFC8121952001F03BFC742196201F
:105B900001F037FC8F215AE1012875D18021942032
:105BA00001F02FFC8121952001F02BFC5021962043
:105BB00001F027FC1E21972001F023FC04219820EE
:105BC00001F01FFC8021942001F01BFC8121952015
:105BD00001F017FC5121962001F013FC1F219720A2
:105BE00001F00FFC0421982001F00BFC802194208F
:105BF00001F007FC8121952001F003FC5221962041
:105C000001F0FFFB2021972001F0FBFB04219820ED
:105C100001F0F7FB8021942001F0F3FB8121952016
:105C200001F0EFFB7221962001F0EBFB2121972080
:105C300001F0E7FB0421982001F0E3FB8021942090
:105C400001F0DFFB8121952001F0DBFB7321962021
:105C500001F0D7FB2221972001F0D3FB04219820EB
:105C600001F0CFFB8021942001F0CBFB8121952016
:105C700001F0C7FB7421962001F0C3FB232197207C
:105C800001F0BFFB0421E6E08021942001F0B9FB84
:105C90008121952001F0B5FB5021962001F0B1FB48
:105CA0001E21972001F0ADFB0621982001F0A9FBF1
:105CB0008021942001F0A5FB8121952001F0A1FB1A
:105CC0005121962001F09DFB1F21972001F099FBA7
:105CD0000621982001F095FB8021942001F091FB92
:105CE0008121952001F08DFB5221962001F089FB46
:105CF0002021972001F085FB0621982001F081FBEF
:105D00008021942001F07DFB8121952001F079FB19
:105D10007221962001F075FB2121972001F071FB83
:105D20000621982001F06DFB8021942001F069FB91
:105D30008121952001F065FB7321962001F061FB24
:105D40002221972001F05DFB0621982001F059FBEC
:105D50008021942001F055FB8121952001F051FB19
:105D60007421962001F04DFB232170E00021942046
:105D700001F047FB8121952001F043FB5021962043
:105D800001F03FFB2021972001F03BFB06219820EA
:105D900001F037FB0021942001F033FB8121952095
:105DA00001F02FFB5121962001F02BFB20219720A1
:105DB00001F027FB0621982001F023FB002194200D
:105DC00001F01FFB8121952001F01BFB5221962041
:105DD00001F017FB2021972001F013FB06219820EA
:105DE00001F00FFB0021942001F00BFB8121952095
:105DF00001F007FB7221962001F003FB2021972080
:105E000001F0FFFA0621982001F0FBFA002194200E
:105E100001F0F7FA8121952001F0F3FA7321962021
:105E200001F0EFFA2021972001F0EBFA06219820EB
:105E300001F0E7FA0021942001F0E3FA8121952096
:105E400001F0DFFA7421962001F0DBFA202197207F
:105E500001F0D7FA0621BDE8044001F055B9000071
:105E60001CE2002080B5DFF850080078002840F0E0
:105E7000E980DFF848080078032871D18021942058
:105E800001F0BFFA8121952001F0BBFA9421962000
:105E900001F0B7FA9021972001F0B3FA062198207B
:105EA00001F0AFFA8021942001F0ABFA8121952016
:105EB00001F0A7FA9521962001F0A3FA91219720ED
:105EC00001F09FFA0621982001F09BFA802194208E
:105ED00001F097FA8121952001F093FA96219620FE
:105EE00001F08FFA9221972001F08BFA0621982079
:105EF00001F087FA8021942001F083FA8121952016
:105F000001F07FFAB621962001F07BFA93219720C9
:105F100001F077FA0621982001F073FA802194208D
:105F200001F06FFA8121952001F06BFAB7219620DC
:105F300001F067FA9421972001F063FA0621982076
:105F400001F05FFA8021942001F05BFA8121952015
:105F500001F057FAB821962001F053FA9521E2E0BA
:105F60008021942001F04DFA8121952001F049FA19
:105F70009421962001F045FA2421972001F041FA5E
:105F80000621982001F03DFA8021942001F039FA91
:105F90008121952001F035FA9521962001F031FA02
:105FA0002521972001F02DFA0621982001F029FAE9
:105FB0008021942001F025FA8121952001F021FA19
:105FC0009621962001F01DFA2621972001F019FA5A
:105FD0000621982001F015FA8021942001F011FA91
:105FE0008121952001F00DFAB621962001F009FAE1
:105FF0002721972001F005FA0621982001F001FAE7
:106000008021942001F0FDF98121952001F0F9F91A
:10601000B721962001F0F5F92821972001F0F1F938
:106020000621982001F0EDF98021942001F0E9F992
:106030008121952001F0E5F9B821962001F0E1F9E0
:10604000292170E00021942001F0DBF981219520C5
:1060500001F0D7F99421962001F0D3F9202197205F
:1060600001F0CFF90621982001F0CBF9002194200E
:1060700001F0C7F98121952001F0C3F995219620FF
:1060800001F0BFF92021972001F0BBF906219820EB
:1060900001F0B7F90021942001F0B3F98121952096
:1060A00001F0AFF99621962001F0ABF9202197205D
:1060B00001F0A7F90621982001F0A3F9002194200E
:1060C00001F09FF98121952001F09BF9B6219620DE
:1060D00001F097F92021972001F093F906219820EB
:1060E00001F08FF90021942001F08BF98121952096
:1060F00001F087F9B721962001F083F9202197203C
:1061000001F07FF90621982001F07BF9002194200D
:1061100001F077F98121952001F073F9B8219620DB
:1061200001F06FF9202100F0E9BF80B5DFF88805A4
:106130000078002840F0E980DFF88005007800282A
:1061400071D18021942001F05CF98121952001F02A
:1061500058F97621962001F054F99621972001F004
:1061600050F90621982001F04CF98021942001F08B
:1061700048F98121952001F044F97721962001F01A
:1061800040F99721972001F03CF90621982001F071
:1061900038F98021942001F034F98121952001F013
:1061A00030F97821962001F02CF99821972001F000
:1061B00028F90621982001F024F98021942001F08B
:1061C00020F98121952001F01CF99821962001F0F9
:1061D00018F99921972001F014F90621982001F06F
:1061E00010F98021942001F00CF98121952001F013
:1061F00008F99921962001F004F99A21972001F0DD
:1062000000F90621982001F0FCF88021942001F08B
:10621000F8F88121952001F0F4F89A21962001F0F8
:10622000F0F89B21E2E08021942001F0EAF881213E
:10623000952001F0E6F87621962001F0E2F872212F
:10624000972001F0DEF80621982001F0DAF880218D
:10625000942001F0D6F88121952001F0D2F8772121
:10626000962001F0CEF87321972001F0CAF806219C
:10627000982001F0C6F88021942001F0C2F8812115
:10628000952001F0BEF87821962001F0BAF874212B
:10629000972001F0B6F80621982001F0B2F880218D
:1062A000942001F0AEF88121952001F0AAF8982100
:1062B000962001F0A6F87521972001F0A2F806219A
:1062C000982001F09EF88021942001F09AF8812115
:1062D000952001F096F89921962001F092F8762108
:1062E000972001F08EF80621982001F08AF880218D
:1062F000942001F086F88121952001F082F89A21FE
:10630000962001F07EF8772170E00021942001F0C2
:1063100078F88121952001F074F87621962001F01B
:1063200070F82021972001F06CF80621982001F0E8
:1063300068F80021942001F064F88121952001F093
:1063400060F87721962001F05CF82021972001F079
:1063500058F80621982001F054F80021942001F00B
:1063600050F88121952001F04CF87821962001F019
:1063700048F82021972001F044F80621982001F0E8
:1063800040F80021942001F03CF88121952001F093
:1063900038F89821962001F034F82021972001F058
:1063A00030F80621982001F02CF80021942001F00B
:1063B00028F88121952001F024F89921962001F0F8
:1063C00020F82021972001F01CF80621982001F0E8
:1063D00018F80021942001F014F88121952001F093
:1063E00010F89A21962001F00CF8202100F086BECA
:1063F0001DE2002080B5B0480078002840F0E88019
:10640000AE480078012871D18021942000F0F9FF76
:106410008121952000F0F5FF7C21962000F0F1FF0E
:106420009C21972000F0EDFF0621982000F0E9FF65
:106430008021942000F0E5FF8121952000F0E1FF0C
:106440007D21962000F0DDFF9D21972000F0D9FFEF
:106450000621982000F0D5FF8021942000F0D1FF84
:106460008121952000F0CDFF7E21962000F0C9FF0C
:106470009E21972000F0C5FF0621982000F0C1FF63
:106480008021942000F0BDFF8121952000F0B9FF0C
:106490009E21962000F0B5FF9F21972000F0B1FFCC
:1064A0000621982000F0ADFF8021942000F0A9FF84
:1064B0008121952000F0A5FF9F21962000F0A1FFEB
:1064C000A021972000F09DFF0621982000F099FF61
:1064D0008021942000F095FF8121952000F091FF0C
:1064E000A021962000F08DFFA121E2E080219420E0
:1064F00000F087FF8121952000F083FF7C2196200A
:1065000000F07FFF6621972000F07BFF0621982096
:1065100000F077FF8021942000F073FF8121952007
:1065200000F06FFF7D21962000F06BFF6721972020
:1065300000F067FF0621982000F063FF802194207F
:1065400000F05FFF8121952000F05BFF7E21962007
:1065500000F057FF6821972000F053FF0621982094
:1065600000F04FFF8021942000F04BFF8121952007
:1065700000F047FF9E21962000F043FF69219720FD
:1065800000F03FFF0621982000F03BFF802194207F
:1065900000F037FF8121952000F033FF9F219620E6
:1065A00000F02FFF6A21972000F02BFF0621982092
:1065B00000F027FF8021942000F023FF8121952007
:1065C00000F01FFFA021962000F01BFF6B2170E060
:1065D0000021942000F015FF8121952000F011FF8B
:1065E0007C21962000F00DFF2021972000F009FF6C
:1065F0000621982000F005FF0021942000F001FF03
:106600008121952000F0FDFE7D21962000F0F9FE0D
:106610002021972000F0F5FE0621982000F0F1FEE1
:106620000021942000F0EDFE8121952000F0E9FE8C
:106630007E21962000F0E5FE2021972000F0E1FE6B
:106640000621982000F0DDFE0021942000F0D9FE04
:106650008121952000F0D5FE9E21962000F0D1FEEC
:106660002021972000F0CDFE0621982000F0C9FEE1
:106670000021942000F0C5FE8121952000F0C1FE8C
:106680009F21962000F0BDFE2021972000F0B9FE4A
:106690000621982000F0B5FE0021942000F0B1FE04
:1066A0008121952000F0ADFEA021962000F0A9FEEA
:1066B000202100F023BD00001AE2002018E2002093
:1066C0001EE2002080B5DFF8200A0078002840F0A4
:1066D000E980DFF8180A0078022871D1802194201F
:1066E00000F08FFE8121952000F08BFE8221962004
:1066F00000F087FEA221972000F083FE062198205B
:1067000000F07FFE8021942000F07BFE8121952007
:1067100000F077FE8321962000F073FEA3219720DE
:1067200000F06FFE0621982000F06BFE802194207F
:1067300000F067FE8121952000F063FE8421962001
:1067400000F05FFEA421972000F05BFE0621982058
:1067500000F057FE8021942000F053FE8121952007
:1067600000F04FFEA421962000F04BFEA5219720BB
:1067700000F047FE0621982000F043FE802194207F
:1067800000F03FFE8121952000F03BFEA5219620E0
:1067900000F037FEA621972000F033FE0621982056
:1067A00000F02FFE8021942000F02BFE8121952007
:1067B00000F027FEA621962000F023FEA721E2E0AC
:1067C0008021942000F01DFE8121952000F019FE0B
:1067D0008221962000F015FE5A21972000F011FE2C
:1067E0000621982000F00DFE8021942000F009FE83
:1067F0008121952000F005FE8321962000F001FE06
:106800005B21972000F0FDFD0621982000F0F9FDA6
:106810008021942000F0F5FD8121952000F0F1FD0C
:106820008421962000F0EDFD5C21972000F0E9FD29
:106830000621982000F0E5FD8021942000F0E1FD84
:106840008121952000F0DDFDA421962000F0D9FDE6
:106850005D21972000F0D5FD0621982000F0D1FDA4
:106860008021942000F0CDFD8121952000F0C9FD0C
:10687000A521962000F0C5FD5E21972000F0C1FD06
:106880000621982000F0BDFD8021942000F0B9FD84
:106890008121952000F0B5FDA621962000F0B1FDE4
:1068A0005F2170E00021942000F0ABFD8121952054
:1068B00000F0A7FD8221962000F0A3FD2021972063
:1068C00000F09FFD0621982000F09BFD0021942000
:1068D00000F097FD8121952000F093FD8321962003
:1068E00000F08FFD2021972000F08BFD06219820DD
:1068F00000F087FD0021942000F083FD8121952088
:1069000000F07FFD8421962000F07BFD2021972060
:1069100000F077FD0621982000F073FD00219420FF
:1069200000F06FFD8121952000F06BFDA4219620E1
:1069300000F067FD2021972000F063FD06219820DC
:1069400000F05FFD0021942000F05BFD8121952087
:1069500000F057FDA521962000F053FD202197203F
:1069600000F04FFD0621982000F04BFD00219420FF
:1069700000F047FD8121952000F043FDA6219620DF
:1069800000F03FFD202100F0B9BB80B5DFF85807CB
:106990000078002840F0E980DFF8500700780828E8
:1069A00071D18021942000F02CFD8121952000F0F0
:1069B00028FD8821962000F024FDA821972000F0D2
:1069C00020FD0621982000F01CFD8021942000F07D
:1069D00018FD8121952000F014FD8921962000F0FA
:1069E00010FDA921972000F00CFD0621982000F051
:1069F00008FD8021942000F004FD8121952000F005
:106A000000FD8A21962000F0FCFCAA21972000F0CE
:106A1000F8FC0621982000F0F4FC8021942000F07E
:106A2000F0FC8121952000F0ECFCAA21962000F0DA
:106A3000E8FCAB21972000F0E4FC0621982000F050
:106A4000E0FC8021942000F0DCFC8121952000F006
:106A5000D8FCAB21962000F0D4FCAC21972000F0AC
:106A6000D0FC0621982000F0CCFC8021942000F07E
:106A7000C8FC8121952000F0C4FCAC21962000F0D8
:106A8000C0FCAD21E2E08021942000F0BAFC81211D
:106A9000952000F0B6FC8821962000F0B2FC602121
:106AA000972000F0AEFC0621982000F0AAFC80217F
:106AB000942000F0A6FC8121952000F0A2FC892101
:106AC000962000F09EFC6121972000F09AFC0621A0
:106AD000982000F096FC8021942000F092FC812107
:106AE000952000F08EFC8A21962000F08AFC62211D
:106AF000972000F086FC0621982000F082FC80217F
:106B0000942000F07EFC8121952000F07AFCAA21DF
:106B1000962000F076FC6321972000F072FC06219D
:106B2000982000F06EFC8021942000F06AFC812106
:106B3000952000F066FCAB21962000F062FC6421F9
:106B4000972000F05EFC0621982000F05AFC80217E
:106B5000942000F056FC8121952000F052FCAC21DD
:106B6000962000F04EFC652170E00021942000F09A
:106B700048FC8121952000F044FC8821962000F0FB
:106B800040FC2021972000F03CFC0621982000F0DA
:106B900038FC0021942000F034FC8121952000F085
:106BA00030FC8921962000F02CFC2021972000F059
:106BB00028FC0621982000F024FC0021942000F0FD
:106BC00020FC8121952000F01CFC8A21962000F0F9
:106BD00018FC2021972000F014FC0621982000F0DA
:106BE00010FC0021942000F00CFC8121952000F085
:106BF00008FCAA21962000F004FC2021972000F038
:106C000000FC0621982000F0FCFB0021942000F0FD
:106C1000F8FB8121952000F0F4FBAB21962000F0D9
:106C2000F0FB2021972000F0ECFB0621982000F0DB
:106C3000E8FB0021942000F0E4FB8121952000F086
:106C4000E0FBAC21962000F0DCFB202100F056BADE
:106C500080B5DFF894040078002840F0E980DFF880
:106C60008C040078092871D18021942000F0C9FBA0
:106C70008121952000F0C5FB8E21962000F0C1FBFC
:106C8000AE21972000F0BDFB0621982000F0B9FB53
:106C90008021942000F0B5FB8121952000F0B1FB0C
:106CA0008F21962000F0ADFBAF21972000F0A9FBCB
:106CB0000621982000F0A5FB8021942000F0A1FB84
:106CC0008121952000F09DFB9021962000F099FBFA
:106CD000B021972000F095FB0621982000F091FB51
:106CE0008021942000F08DFB8121952000F089FB0C
:106CF000B021962000F085FBB121972000F081FBA8
:106D00000621982000F07DFB8021942000F079FB83
:106D10008121952000F075FBB121962000F071FBD8
:106D2000B221972000F06DFB0621982000F069FB4E
:106D30008021942000F065FB8121952000F061FB0B
:106D4000B221962000F05DFBB321E2E08021942087
:106D500000F057FB8121952000F053FB8E219620F7
:106D600000F04FFB6C21972000F04BFB0621982090
:106D700000F047FB8021942000F043FB8121952007
:106D800000F03FFB8F21962000F03BFB6D21972008
:106D900000F037FB0621982000F033FB802194207F
:106DA00000F02FFB8121952000F02BFB90219620F5
:106DB00000F027FB6E21972000F023FB062198208E
:106DC00000F01FFB8021942000F01BFB8121952007
:106DD00000F017FBB021962000F013FB6F219720E5
:106DE00000F00FFB0621982000F00BFB802194207F
:106DF00000F007FB8121952000F003FBB1219620D4
:106E000000F0FFFA7021972000F0FBFA062198208D
:106E100000F0F7FA8021942000F0F3FA8121952008
:106E200000F0EFFAB221962000F0EBFA712170E049
:106E30000021942000F0E5FA8121952000F0E1FA8C
:106E40008E21962000F0DDFA2021972000F0D9FA5B
:106E50000621982000F0D5FA0021942000F0D1FA04
:106E60008121952000F0CDFA8F21962000F0C9FAFB
:106E70002021972000F0C5FA0621982000F0C1FAE1
:106E80000021942000F0BDFA8121952000F0B9FA8C
:106E90009021962000F0B5FA2021972000F0B1FA59
:106EA0000621982000F0ADFA0021942000F0A9FA04
:106EB0008121952000F0A5FAB021962000F0A1FADA
:106EC0002021972000F09DFA0621982000F099FAE1
:106ED0000021942000F095FA8121952000F091FA8C
:106EE000B121962000F08DFA2021972000F089FA38
:106EF0000621982000F085FA0021942000F081FA04
:106F00008121952000F07DFAB221962000F079FAD7
:106F1000202100F0F3B880B573480078002840F0D5
:106F2000988073480078002849D18021942000F08F
:106F300068FA8021952000F064FA0421962000F080
:106F400060FA0821972000F05CFA0621982000F0F2
:106F500058FA8021942000F054FA8021952000F006
:106F600050FA0521962000F04CFA0921972000F0F4
:106F700048FA0621982000F044FA8021942000F07D
:106F800040FA8021952000F03CFA2621962000F05E
:106F900038FA0A21972000F034FA0621982000F0F0
:106FA00030FA8021942000F02CFA8021952000F006
:106FB00028FA2721962000F024FA0B2192E0802164
:106FC000942000F01EFA8021952000F01AFA042186
:106FD000962000F016FA0421972000F012FA0621FC
:106FE000982000F00EFA8021942000F00AFA802107
:106FF000952000F006FA0521962000F002FA0521FE
:10700000972000F0FEF90621982000F0FAF980217F
:10701000942000F0F6F98021952000F0F2F9262165
:10702000962000F0EEF90621972000F0EAF90621FB
:10703000982000F0E6F98021942000F0E2F9802108
:10704000952000F0DEF92721962000F0DAF90721DB
:1070500048E00021942000F0D4F98021952000F030
:10706000D0F90421962000F0CCF92021972000F0DF
:10707000C8F90621982000F0C4F90021942000F0FE
:10708000C0F98021952000F0BCF90521962000F080
:10709000B8F92021972000F0B4F90621982000F0DB
:1070A000B0F90021942000F0ACF98021952000F087
:1070B000A8F92621962000F0A4F92021972000F0BD
:1070C000A0F90621982000F09CF90021942000F0FE
:1070D00098F98021952000F094F92721962000F05E
:1070E00090F9202100F00AB81AE2002018E20020EE
:1070F00017E20020962000F084F92021972000F06C
:1071000080F9BDE804400621982000F07AB950F8D3
:10711000041B61B150F8042BD30744BFA9F101034C
:107120009A18002342F8043B091FFAD1EFE7704791
:1071300000B50100DFF80C0583B001694FF400626F
:107140004FF2FF7308D019404161009201218DF880
:1071500004108DF8051005E01940416100920021EE
:107160008DF8041000A900F079FA03B000BD70B5E5
:107170000446012000F088FD0825DFF8C864E4B269
:10718000E0094FF40061304602D000F0C5FB01E099
:1071900000F0EEFB012000F077FD4FF480613046F7
:1071A00000F0BAFB012000F06FFD64004FF4806135
:1071B000304600F0DDFB012000F066FD6D1EDED1E3
:1071C0004FF40061304600F0D3FB012000F05CFD7D
:1071D0004FF48061304600F09FFB012000F054FD29
:1071E0003046BDE870404FF4806100F0C1BB70B51F
:1071F00004460D46DFF84C644FF40061304600F061
:107200008BFB0120FFF794FF4FF40061304600F044
:1072100083FB4FF48061304600F07EFB012000F0DC
:1072200033FD4FF40061304600F0A2FB012000F076
:107230002BFD4FF48061304600F09AFB8A20FFF767
:1072400096FFE0B2FFF793FF2846FFF790FF4FF459
:107250000061304600F08CFB012000F015FD4FF47A
:107260008061304600F058FB012000F00DFD3046F3
:10727000BDE870404FF4006100F04EBB70B50120D6
:1072800000F002FDDFF8BC534FF48061284600F0A7
:107290006FFB012000F0F8FC4FF40061284600F07D
:1072A0003BFB0020FFF744FF08264FF4806128468F
:1072B00000F032FB012000F0E7FC012000F0E4FCCC
:1072C0004FF40061284600F06AFA40EA4404E4B250
:1072D0004FF48061284600F04BFB012000F0D4FC05
:1072E000012000F0D1FC761EDFD18021284600F07D
:1072F0003FFB0120FFF71CFF204670BD38B5044658
:10730000D04D4FF40061284600F006FB0120FFF746
:107310000FFF4FF40061284600F0FEFA4FF4806141
:10732000284600F0F9FA012000F0AEFC4FF40061AD
:10733000284600F01DFB012000F0A6FC4FF4806100
:10734000284600F015FB8A20FFF711FFE0B2FFF797
:107350000EFF012000F098FC012000F095FC4FF496
:107360000061284600F0D8FA012000F08DFC4FF4AF
:107370008061284600F0D0FA012000F085FC4FF42F
:107380000061284600F0F4FA012000F07DFC4FF483
:107390008061284600F0ECFA8B20FFF7E8FEFFF74B
:1073A0006DFF04464FF40061284600F0B5FA012055
:1073B00000F06AFC4FF48061284600F0ADFA01202D
:1073C00000F062FC4FF48061284600F0D1FA012001
:1073D00000F05AFC4FF40061284600F0C9FA012081
:1073E00000F052FC4FF48061284600F095FA01202D
:1073F00000F04AFC4FF40061284600F08DFA204668
:1074000032BD80B5FFF7F3FEBDE802404FF4FA70DD
:1074100000F03ABC10B5841C02E0FFF7E8FEA41CA3
:1074200020786178FF2808BFFF29F6D1BDE8104019
:107430000021E6E780B50021FF20FFF7E2FF0120F1
:10744000FFF75CFF80490A7800F080039A4212D06F
:1074500000F080000870C0090CD07C48007828B982
:10746000FDF7B0F9FDF78EF9FDF78AFABDE80140A6
:10747000FCF7CDBF7DE001BD10B504467348007830
:1074800018B9FDF77FF9FDF79DF96F480F210170DD
:10749000002C3ED0012C12D10121FF20FFF7B1FFBB
:1074A000E921F320FFF7ADFF0021FF20FFF7A9FF3F
:1074B00044210220FFF7A5FFFCF7B3FE3BE0022CBE
:1074C00012D10121FF20FFF79CFFE921F320FFF7F4
:1074D00098FF0021FF20FFF794FF48210220FFF7CB
:1074E00090FFFCF7DAFE26E0032C12D10121FF20E9
:1074F000FFF787FFE921F320FFF783FF0021FF203B
:10750000FFF77FFF40210220FFF77BFFFCF701FF21
:1075100011E00121FF20FFF774FFE921F320FFF7BD
:1075200070FF0021FF20FFF76CFF4C210220FFF7C6
:1075300068FFFCF73AFEC82000F099FB0121FF200C
:10754000FFF75FFFBDE810401921F32059E780B530
:107550000021FF20FFF74BFE4FF4FA7000F094FB80
:107560000120FFF7CBFEC0091CBFBDE80140FCF7BE
:107570004EBFBDE80140FCF7FEBF80B50021FF20F3
:10758000FFF735FE4FF4FA7000F07EFB4C2102202D
:10759000FFF72DFE4FF4FA7000F076FBFDF732F99D
:1075A000BDE80240C82000F062BBF8B5FF219B2077
:1075B000FFF71DFE4FF4FA7000F066FB0024244D27
:1075C0009420FFF79BFE40F001019420FFF70FFE8F
:1075D0004FF4FA7000F058FB21469920FFF707FEA0
:1075E0004FF4FA7000F050FB2E461B2716F8011BD3
:1075F0009A20FFF7FCFD4FF4FA7000F045FB7F1E68
:10760000F4D19420FFF77AFE00F0FE019420FFF7FA
:10761000EEFD4FF4FA7000F037FB641C05F2A20592
:10762000E22CCDDBF1BD80B50B48007828B900F025
:1076300010FCBDE8014002F03EB80648BDE802403B
:10764000E8E60000000402401FE20020B70F01201E
:107650000000002088CA0020A00F01202DE9F84377
:1076600004460026DFF864050D4684421CBFDFF89F
:10767000600584421FD0DFF85C0584421CBFDFF840
:107680005805844217D0DFF8540584421CBFDFF848
:10769000500584420FD0DFF84C0584421FBFDFF84D
:1076A00048058442DFF84405844204D0C1210FF22A
:1076B000405002F03EF8286820B90FF23450C22141
:1076C00002F037F82879002818BF012808D00228CE
:1076D00018BF032804D0C3210FF2145002F029F878
:1076E000E87940B1012818BF022804D00FF20050F9
:1076F000C42102F01EF8012000FA06F8286808EA02
:107700000000404546D177000320B8406FEA0009E9
:10771000206809EA0000206020682979B940084300
:1077200020602879012818BF02282AD1687900280A
:1077300018BF012808D0022818BF032804D0D6217A
:107740000FF2AC4001F0F5FFA06809EA0000A0606C
:10775000A0686979B9400843A060A879002818BFDB
:10776000012804D0DD210FF2884001F0E2FF6068BB
:1077700020EA080060606068A979B14089B20843D6
:107780006060E06809EA0000E060E068E979B9401B
:107790000843E060761C102EADD3BDE8F18370B5D0
:1077A00004460026DFF824040D4684421CBFDFF89F
:1077B0002004844220D0DFF81C0484421CBFDFF880
:1077C0001804844218D0DFF8140484421CBFDFF888
:1077D0001004844210D0DFF80C0484421FBFDFF88D
:1077E00008048442DFF80404844205D04FF49B71FE
:1077F0000FF2FC3001F09DFF012D18BF022D29D0A2
:10780000042D18BF082D25D0102D18BF202D21D0F4
:10781000402D18BF802D1DD0B5F5807F18BFB5F560
:10782000007F17D0B5F5806F18BFB5F5006F11D088
:10783000B5F5805F18BFB5F5005F0BD0B5F5804F8B
:1078400018BFB5F5004F05D00FF2A43040F2371144
:1078500001F06FFF2069284218BF0126304670BD35
:1078600010B50446DFF8640384421CBFDFF86003F0
:10787000844220D0DFF85C0384421CBFDFF8580349
:10788000844218D0DFF8540384421CBFDFF8500351
:10789000844210D0DFF84C0384421FBFDFF8480356
:1078A0008442DFF84803844205D04FF4A6710FF2FA
:1078B000403001F03EFF206980B210BD10B5044693
:1078C000DFF8080384421CBFDFF80403844220D0A1
:1078D000DFF8000384421CBFDFF8FC02844218D0AA
:1078E000DFF8F80284421CBFDFF8F402844210D0B3
:1078F000DFF8F00284421FBFDFF8EC028442DFF8B9
:10790000EC02844205D040F273110FF2E42001F042
:1079100010FF606980B210BD38B50446AB480D4613
:1079200084421CBFAA48844219D0AA4884421CBF82
:10793000A948844213D0A94884421CBFA848844265
:107940000DD0A84884421FBFA7488442A74884425C
:1079500005D040F285110FF2982001F0EAFE2DB912
:107960000FF28C204FF4C37101F0E3FE258331BD8B
:1079700038B5044695480D4684421CBF944884425D
:1079800019D0944884421CBF9348844213D0934832
:1079900084421CBF924884420DD0924884421FBF4B
:1079A000914884429148844205D04FF4CC710FF243
:1079B000402001F0BEFE2DB90FF2342040F29911A3
:1079C00001F0B7FE658331BD70B504467F480D46B2
:1079D000164684421CBF7E48844219D07D488442AA
:1079E0001CBF7D48844213D07C4884421CBF7C4825
:1079F00084420DD07B4884421FBF7B4884427B4831
:107A0000844205D04FF4D6710FF2E41001F091FEDC
:107A1000012D18BF022D29D0042D18BF082D25D007
:107A2000102D18BF202D21D0402D18BF802D1DD026
:107A3000B5F5807F18BFB5F5007F17D0B5F5806F1D
:107A400018BFB5F5006F11D0B5F5805F18BFB5F55B
:107A5000005F0BD0B5F5804F18BFB5F5004F05D0CE
:107A60000FF28C1040F2AD1101F063FE4EB1012E09
:107A700005D04FF4D7710FF2781001F05AFE25832C
:107A800070BD658370BD38B5044650480D468442CC
:107A90001CBF4F48844219D04E4884421CBF4E48F8
:107AA000844213D04D4884421CBF4D4884420DD0BF
:107AB0004C4884421FBF4C4884424C48844205D005
:107AC00040F2C3110FF2281001F033FE656131BDA1
:107AD00070B506463D480D46144686421CBF3C48DC
:107AE000864219D03B4886421CBF3B48864213D091
:107AF0003A4886421CBF3A4886420DD039488642F1
:107B00001FBF394886423948864205D040F21D21C0
:107B10000FF2DC0001F00DFE002D18BF012D21D069
:107B2000022D18BF032D1DD0042D18BF052D19D00F
:107B3000062D18BF072D15D0082D18BF092D11D0FF
:107B40000A2D18BF0B2D0DD00C2D18BF0D2D09D0EF
:107B50000E2D18BF0F2D05D00FF2940040F21E21FC
:107B600001F0E7FD002C18BF092C1ED0012C18BF16
:107B7000022C1AD0032C18BF042C16D0052C18BFC9
:107B8000062C12D0072C18BF082C0ED00A2C18BFB8
:107B90000B2C0AD00C2C1CBF0D2C0F2C05D040F246
:107BA0001F210FF24C0001F0C4FDE80806EB800035
:107BB00005F007018900026A0F238B409A43026295
:107BC00004FA01F1026A1143016270BD0000024033
:107BD0000004024000080240000C02400010024075
:107BE0000014024000180240001C02400020024025
:107BF000443A5C4749545C574C465F4D4F4E49549C
:107C00004F525C4543535F4D5331325F30325F57C3
:107C10004C465F4D4F4E49544F525F53544D333293
:107C20005F4150505C4C69627261726965735C536C
:107C3000544D3332463478785F53746450657269BA
:107C400070685F4472697665725C7372635C7374AA
:107C50006D3332663478785F6770696F2E63000029
:107C60000848016811B10168491E0160704700BFF2
:107C700001B404480099016001680029FCD101B0F9
:107C800070470000A40F012082B0002107E0009996
:107C9000491C009100990529F9D30199491C0191CA
:107CA0000199814238BF0021F3D302B0704782B0FE
:107CB0000021019144F2682108E0009A521C0092D0
:107CC000009A8A42F9D3019A521C0192019A824287
:107CD00038BF0022F3D302B07047000000B50100A6
:107CE000DFF8780183B001694FF400624FF2FF734F
:107CF00008D019404161009201218DF804108DF8DF
:107D0000051005E019404161009200218DF8041032
:107D100000A9FFF7A3FC03B000BD70B50446012025
:107D2000FFF7B2FF0825DFF83461E4B2E0094FF451
:107D30000061304602D0FFF7EFFD01E0FFF718FECB
:107D40000120FFF7A1FF4FF480613046FFF7E4FD0B
:107D50000120FFF799FF64004FF480613046FFF780
:107D600007FE0120FFF790FF6D1EDED14FF400618A
:107D70003046FFF7FDFD0120FFF786FF4FF48061DD
:107D80003046FFF7C9FD0120FFF77EFF3046BDE812
:107D900070404FF48061FFF7EBBD70B504460D46AF
:107DA000DFF8B8604FF400613046FFF7B5FD012001
:107DB000FFF794FF4FF400613046FFF7ADFD4FF43D
:107DC00080613046FFF7A8FD0120FFF75DFF4FF40B
:107DD00000613046FFF7CCFD0120FFF755FF4FF45F
:107DE00080613046FFF7C4FD8A20FFF796FFE0B2BE
:107DF000FFF793FF2846FFF790FF4FF400613046EE
:107E0000FFF7B6FD0120FFF73FFF4FF480613046DA
:107E1000FFF782FD0120FFF737FF3046BDE87040D5
:107E20004FF40061FFF778BD10B5841C02E0FFF746
:107E3000B4FFA41C20786178FF2808BFFF29F6D181
:107E40000021FFF7AAFFBDE810404FF4FA70FFF7DA
:107E50001BBF00BF0248E7E700000000000402402B
:107E60006CDE00201CB501F091FE0F230F220221D1
:107E7000032000F00DFA1F20019000232D20009018
:107E80001A461146032001F067FD1F2001900023D0
:107E90002D2000901A460121032001F05DFD1F20D6
:107EA000019000232D2000901A460221032001F0AA
:107EB00053FD1F20019000232D20009003211A461E
:107EC000084601F049FD1F20009000222D23114695
:107ED000032001F0C0FDF02310220221032000F056
:107EE000D7F9502000901022DFF8BC4A04F10803B3
:107EF0000221032000F06DFA2079800928D120208A
:107F0000009004F1580360220221032000F061FA7E
:107F10002020009004F1780380220221032000F049
:107F200058FA2020009004F17803A02202210320B7
:107F300000F04FFA2020009004F17803C0220221C3
:107F4000032000F046FA2020009004F1780324E09A
:107F50002020009004F1980360220221032000F009
:107F600038FA20200090B8342346802202210320D2
:107F700000F02FFA202000902346A02202210320A7
:107F800000F027FA202000902346C022022103207F
:107F900000F01FFA202000902346E0220221032057
:107FA00000F017FA13BD2DE9F041DFF8FC49DFF8C6
:107FB000FC89A0700E46207940F00400207115461F
:107FC0004FF480514046FFF7D3FCDFF8E4794FF4DB
:107FD00080413846FFF7A0FC4FF400513846FFF7C8
:107FE0009BFC4FF400514046FFF7C2FC4FF4806108
:107FF0003846FFF7BDFC4FF480513846FFF78CFC44
:10800000002000F0A0FB3846FFF758FC00F47F404A
:1080100046EA00013846FFF736FD4FF480514046EE
:10802000FFF77AFC4FF480514046FFF7A1FC002097
:1080300000F089FB3846FFF741FC00F47F4045EA39
:1080400000013846FFF71FFD4FF400513846FFF797
:108050008FFC4FF400513846FFF75EFC4FF480511F
:108060004046FFF785FC4FF480413846FFF754FC4B
:108070004FF400513846FFF74FFC4FF40051404693
:10808000FFF776FC4FF480613846FFF745FC4FF46C
:1080900080513846FFF740FC002000F054FB384682
:1080A000FFF70CFC40F0FF013846FFF7ECFC2079AD
:1080B00000F0FB002071BDE8F0812DE9F041DFF810
:1080C000E858DFF8E868A8700F46287940F0040007
:1080D000287114464FF480513046FFF749FCDFF811
:1080E000D0884FF480414046FFF716FC4FF4005112
:1080F0004046FFF711FC4FF400513046FFF738FCC3
:108100004FF480614046FFF733FC4FF48051404606
:10811000FFF702FC002000F016FB4046FFF7CEFB05
:1081200000F47F4047EA00014046FFF7ACFC4FF403
:1081300080513046FFF7F0FB4FF480513046FFF797
:1081400017FC2778002000F0FEFA4046FFF7B6FB48
:1081500000F47F4047EA00014046FFF794FC4FF4EB
:1081600000514046FFF704FC4FF400514046FFF732
:10817000D3FB6778002000F0E6FA4046FFF79EFB4D
:1081800000F47F4047EA00014046FFF77CFC4FF4D3
:1081900000514046FFF7ECFB4FF400514046FFF71B
:1081A000BBFBA778002000F0CEFA4046FFF786FB25
:1081B00000F47F4047EA00014046FFF764FC4FF4BB
:1081C00000514046FFF7D4FB4FF400514046FFF703
:1081D000A3FBE778002000F0B6FA4046FFF76EFBFD
:1081E00000F47F4047EA00014046FFF74CFC4FF4A3
:1081F00000514046FFF7BCFB4FF400514046FFF7EB
:108200008BFB2479002000F09EFA4046FFF756FBD6
:1082100000F47F4044EA00014046FFF734FC4FF48D
:1082200000514046FFF7A4FB4FF400514046FFF7D2
:1082300073FB4FF480513046FFF79AFB4FF48041B7
:108240004046FFF769FB4FF400514046FFF764FBDF
:108250004FF400513046FFF78BFB4FF480614046EE
:10826000FFF75AFB4FF480514046FFF755FB0020C3
:1082700000F069FA4046FFF721FB40F0FF0140465D
:10828000FFF701FC287900F0FB002871BDE8F081C0
:108290002DE9F843DFF81047DFF81087A0700F468C
:1082A000207940F00400207191461E464FF4805121
:1082B0004046FFF75DFBDFF8F8564FF48041284653
:1082C000FFF72AFB4FF400512846FFF725FB4FF438
:1082D00000514046FFF74CFB2FB94FF48051284620
:1082E000FFF746FB13E0012F0AD14FF480512846D7
:1082F000FFF73EFB4FF480612846FFF70DFB0BE0D4
:10830000022F09D14FF480512846FFF705FB4FF4A7
:1083100080612846FFF72CFB002000F014FA284665
:10832000FFF7CCFA00F47F4049EA00012846FFF746
:10833000AAFB4FF480514046FFF7EEFA4FF480510C
:108340004046FFF715FB002000F0FDF92846FFF737
:10835000B5FA00F47F4046EA00012846FFF793FB98
:108360004FF400512846FFF703FB4FF40051284615
:10837000FFF7D2FA4FF480514046FFF7F9FA4FF475
:1083800080412846FFF7C8FA4FF400512846FFF70E
:10839000C3FA4FF400514046FFF7EAFA4FF4806108
:1083A0002846FFF7B9FA4FF480512846FFF7B4FA90
:1083B000002000F0C8F92846FFF780FA40F0FF01DE
:1083C0002846FFF760FB207900F0FB002071BDE834
:1083D000F1832DE9F843DFF8D055DFF8D085A87098
:1083E0000F46287940F00400287114461E464FF4C9
:1083F00080514046FFF7BCFADFF8B4954FF4804156
:108400004846FFF789FA4FF400514846FFF784FACF
:108410004FF400514046FFF7ABFA2FB94FF48051AB
:108420004846FFF7A5FA13E0012F0AD14FF4805117
:108430004846FFF79DFA4FF480614846FFF76CFA13
:108440000BE0022F09D14FF480514846FFF764FA40
:108450004FF480614846FFF78BFA002000F073F973
:108460004846FFF72BFA00F47F4044EA00014846F3
:10847000FFF709FB4FF480514046FFF74DFA4FF4E8
:1084800080514046FFF774FA089CA4B2D4B116F8A4
:10849000017B002000F057F94846FFF70FFA00F47F
:1084A0007F4047EA00014846FFF7EDFA4FF40051DC
:1084B0004846FFF75DFA4FF400514846FFF72CFAA3
:1084C000641EE4D14FF480514046FFF751FA4FF457
:1084D00080414846FFF720FA4FF400514846FFF725
:1084E0001BFA4FF400514046FFF742FA4FF4806107
:1084F0004846FFF711FA4FF480514846FFF70CFA4F
:10850000002000F020F94846FFF7D8F940F0FF01BD
:108510004846FFF7B8FAFFE7287900F0FB0028711A
:10852000BDE8F1832DE9F041DFF87C44DFF87C748D
:10853000A0700E46207940F00400207115464FF4DB
:1085400080513846FFF714FADFF864844FF4804115
:108550004046FFF7E1F94FF400514046FFF7DCF9E0
:108560004FF400513846FFF703FA2EB94FF480510B
:108570004046FFF7FDF913E0012E0AD14FF4805178
:108580004046FFF7F5F94FF480614046FFF7C4F924
:108590000BE0022E09D14FF480514046FFF7BCF9A1
:1085A0004FF480614046FFF7E3F9002000F0CBF87C
:1085B0004046FFF783F900F47F4045EA000140465A
:1085C000FFF761FA4FF480513846FFF7A5F94FF4F1
:1085D00080513846FFF7CCF94FF480414046FFF711
:1085E000C7F9012000F0AFF84046FFF739F905461A
:1085F0004FF480414046FFF78FF94FF480513846E1
:10860000FFF7B6F94FF480414046FFF785F94FF484
:1086100000514046FFF780F94FF400513846FFF70C
:10862000A7F94FF480614046FFF776F94FF4805187
:108630004046FFF771F9207900F0FB002071E8B2A5
:10864000BDE8F081F8B5DFF86043DFF86053A07053
:108650004FF48051207940F0040020712846FFF744
:1086600087F9DFF84C634FF480413046FFF754F947
:108670004FF400513046FFF74FF94FF400512846B0
:10868000FFF776F94FF480613046FFF771F94FF448
:1086900080513046FFF740F9002000F054F8304692
:1086A000FFF70CF900F47F4040F00A013046FFF775
:1086B000EAF94FF480512846FFF72EF94FF4805124
:1086C0002846FFF755F9002000F03DF83046FFF747
:1086D000F5F840F0FF013046FFF7D5F94FF480413F
:1086E0003046FFF745F9012000F02DF83046FFF73E
:1086F000B7F807464FF480413046FFF70DF94FF4C5
:1087000080512846FFF734F94FF480413046FFF797
:1087100003F94FF400513046FFF7FEF84FF40051D3
:108720002846FFF725F94FF480613046FFF7F4F84B
:108730004FF480513046FFF7EFF8207900F0FB004E
:108740002071F8B2F2BD00B583B018B9FF200090D7
:10875000012004E0012811D1FF20009000208DF8B5
:10876000040000A902208DF8050000208DF8060005
:1087700001208DF807008E48FEF770FF03B000BDA2
:108780001CB50020009000238A4C019464224121F2
:10879000032000F0CFFF00200090034601946422E4
:1087A0001421032000F0C6FF00200090034601942E
:1087B00064226E21032000F0BDFF002000900346DC
:1087C00001942D221421032000F0B4FF002000901A
:1087D000034601942D226E21032000F0ABFF002000
:1087E000009003460194A5221421032000F0A2FF6B
:1087F0000020009003460194A5226E21032000F082
:1088000099FF13BD2DE9FC410746002200210320FA
:10881000FFF788FE0646102200210320FFF782FEA4
:108820000446202200210320FFF77CFE054630226B
:1088300000210320FFF776FE8046FFF7A1FF57B91E
:10884000802E16D1DFF8A00E0190002300200090AA
:1088500064224121A3E0012F02D1802C09D1F1E74C
:10886000022F01D1802DF9E7032F0AD1B8F1800F33
:10887000E8D050480190002300200090642241215C
:108880008DE0042F17D1802E14BF4A48DFF8580E10
:10889000019000230020009064221421032000F0A6
:1088A00049FF802C2BD1DFF8400E019000230020DF
:1088B0000090642272E0052F0FD1802E2AD1DFF8BC
:1088C000280E019000230020009064221421032030
:1088D00000F030FF802D12D1E5E7062F16D1802E53
:1088E00023D1DFF8040E01900023002000906422C1
:1088F0001421032000F01EFFB8F1800FD3D02D48C3
:108900000190002300200090642247E0072F03D14C
:10891000802CD4D02748D4E7082F02D1802C04D152
:10892000DFE7092F03D1802DDBD02248DBE70A2FB8
:1089300038D1802E14BF1F48DFF8AC0D0190002302
:10894000002000902D221421032000F0F3FE802C43
:1089500014BF1848DFF8900D01900023002000900C
:108960002D226E21032000F0E5FE802D14BF11485A
:10897000DFF8740D0190002300200090A52214213F
:10898000032000F0D7FEB8F1800F14BF0948DFF8CC
:10899000580D0190002300200090A5226E21032095
:1089A00000F0C8FEBDE8F381DCDF0020000C0240CF
:1089B000001802403C78002000B583B0002861D147
:1089C000A1B11F20019000222D200090002311460C
:1089D000032000F0C1FFDFF8140D019005220020F4
:1089E00000900346A221032000F0A4FE0123802270
:1089F00000210320FFF74CFCFF23812200210320EC
:108A0000FFF746FCFF23822200210320FFF740FCF2
:108A1000FF23832200210320FFF73AFCFF23842257
:108A200000210320FFF734FC8023102201210320C2
:108A3000FFF72EFC0123182201210320FFF728FC59
:108A40000223202201210320FFF722FC03232822F6
:108A500001211846FFF71CFC0023302201210320CE
:108A6000FFF716FCB023312201210320FFF710FC91
:108A70000023322201210320FFF70AFC782333224E
:108A800000F010BE012861D1A1B11F200190002289
:108A90002D20009000231146032000F05DFFDFF839
:108AA000500C01900522002000900346A2210320D3
:108AB00000F040FE4123902200210320FFF7E8FB55
:108AC000FF23912200210320FFF7E2FBFF239222E4
:108AD00000210320FFF7DCFBFF239322002103206A
:108AE000FFF7D6FBFF23942200210320FFF7D0FBE2
:108AF0000023102201210320FFF7CAFB8123182243
:108B000001210320FFF7C4FB0223202201210320BF
:108B1000FFF7BEFB0323282201210320FFF7B8FB48
:108B20000023342201210320FFF7B2FBB0233522BA
:108B300001210320FFF7ACFB002336220121032093
:108B4000FFF7A6FB7823372200F0ACBD022861D1E5
:108B5000A1B11F20019000222D200090002311467A
:108B6000032000F0F9FEDFF88C0B019005220020B5
:108B700000900346A221032000F0DCFD8123A02207
:108B800000210320FFF784FBFF23A1220021032003
:108B9000FFF77EFBFF23A22200210320FFF778FBD3
:108BA000FF23A32200210320FFF772FBFF23A4224F
:108BB00000210320FFF76CFB00231022012103207A
:108BC000FFF766FB0123182201210320FFF760FB5A
:108BD0008223202201210320FFF75AFB03232822AE
:108BE00001211846FFF754FB0023382201210320FE
:108BF000FFF74EFBB023392201210320FFF748FB8A
:108C000000233A2201210320FFF742FB78233B2275
:108C100000F048BD03285AD1A1B11F2001900022C5
:108C20002D20009000231146032000F095FEDFF870
:108C3000C80A01900522002000900346A2210320CB
:108C400000F078FDC123B02200210320FFF720FBB4
:108C5000FF23B12200210320FFF71AFBFF23B222DA
:108C600000210320FFF714FBFF23B3220021032080
:108C7000FFF70EFBFF23B42200210320FFF708FBC0
:108C80000023102201210320FFF702FB01231822F9
:108C900001210320FFF7FCFA0223202201210320F7
:108CA000FFF7F6FA8323282201210320FFF7F0FAC9
:108CB00000233C2201210320FFF7EAFAB0233D22E2
:108CC00001210320FFF7E4FA002300F0E4BC0428AC
:108CD00040F0A380F9B11F20019000222D200090C8
:108CE00000231146032000F037FEDFF8000A019050
:108CF00005220020009003464C21032000F01AFDBD
:108D0000DFF8EC0901900522002000900346A22123
:108D1000032000F00FFD0123802200210320FFF734
:108D2000B7FAFF23812200210320FFF7B1FAFF23C6
:108D3000822200210320FFF7ABFA7F238322002148
:108D40000320FFF7A5FAFF23842200210320FFF769
:108D50009FFA4123902200210320FFF799FAFF2375
:108D6000912200210320FFF793FAFF239222002192
:108D70000320FFF78DFA7F23932200210320FFF7C2
:108D800087FAFF23942200210320FFF781FA802332
:108D9000102201210320FFF77BFA812318220121F1
:108DA0000320FFF775FA0223202201210320FFF799
:108DB0006FFA0323282201210320FFF769FA002319
:108DC000302201210320FFF763FA582331220121C9
:108DD0000320FFF75DFA0023322201210320FFF771
:108DE00057FA7823332201210320FFF751FA582341
:108DF000342201210320FFF74BFAB0233522012151
:108E00000320FFF745FA0023362201210320FFF754
:108E10003FFA7823372200F045BC052840F0A280B5
:108E2000F9B11F20019000222D200090002311464F
:108E3000032000F091FDDFF8B40801900522002026
:108E4000009003464C21032000F074FCDFF8A408D6
:108E500001900522002000900346A221032000F08B
:108E600069FC0123802200210320FFF711FAFF2370
:108E7000812200210320FFF70BFAFF238222002129
:108E80000320FFF705FA7F23832200210320FFF749
:108E9000FFF9FF23842200210320FFF7F9F9812342
:108EA000A02200210320FFF7F3F9FF23A1220021D4
:108EB0000320FFF7EDF9FF23A22200210320FFF793
:108EC000E7F9FF23A32200210320FFF7E1F9FF23A5
:108ED000A42200210320FFF7DBF9802310220121C7
:108EE0000320FFF7D5F90123182201210320FFF702
:108EF000CFF98223202201210320FFF7C9F90323A0
:108F0000282201211846FFF7C3F90023302201214E
:108F10000320FFF7BDF95823312201210320FFF779
:108F2000B7F90023322201210320FFF7B1F978239A
:108F3000332201210320FFF7ABF958233822012106
:108F40000320FFF7A5F9B023392201210320FFF701
:108F50009FF900233A2201210320FFF799F9782392
:108F60003B229FE3062840F09B80F9B11F2001902F
:108F700000222D20009000231146032000F0ECFC7D
:108F8000DFF86807019005220020009003464C217D
:108F9000032000F0CFFBDFF86007019005220020DE
:108FA00000900346A221032000F0C4FB012380228D
:108FB00000210320FFF76CF9FF2381220021032009
:108FC000FFF766F9FF23822200210320FFF760F9F3
:108FD0007F23832200210320FFF75AF9FF238422F5
:108FE00000210320FFF754F9C123B0220021032000
:108FF000FFF74EF9FF23B12200210320FFF748F9C4
:10900000FF23B22200210320FFF742F9FF23B322FE
:1090100000210320FFF73CF9FF23B42200210320A5
:10902000FFF736F98023102201210320FFF730F9E2
:109030000123182201210320FFF72AF9022320220D
:1090400001210320FFF724F9832328220121032093
:10905000FFF71EF90023302201210320FFF718F942
:109060005823312201210320FFF712F90023322275
:1090700001210320FFF70CF978233322012103207B
:10908000FFF706F958233C2201210320FFF700F9DE
:10909000B0233D2201210320FFF7FAF80023FAE272
:1090A000072840F0A280F9B11F20019000222D2056
:1090B000009000231146032000F04EFCDFF830063C
:1090C000019005220020009003464C21032000F06F
:1090D00031FBDFF8200601900522002000900346B6
:1090E000A221032000F026FB41239022002103202F
:1090F000FFF7CEF8FF23912200210320FFF7C8F8E5
:10910000FF23922200210320FFF7C2F87F2393223E
:1091100000210320FFF7BCF8FF2394220021032045
:10912000FFF7B6F88123A02200210320FFF7B0F853
:10913000FF23A12200210320FFF7AAF8FF23A22288
:1091400000210320FFF7A4F87F23A322002103209E
:10915000FFF79EF8FF23A42200210320FFF798F8D1
:109160000023102201210320FFF792F88123182207
:1091700001210320FFF78CF8822320220121032004
:10918000FFF786F80323282201210320FFF780F848
:109190000023342201210320FFF77AF858233522D7
:1091A00001210320FFF774F8002336220121032058
:1091B000FFF76EF87823372201210320FFF768F8C4
:1091C0005823382201210320FFF762F8B023392207
:1091D00001210320FFF75CF800233A22012103203C
:1091E000FFF756F878233B225CE2082840F09B808A
:1091F000F9B11F20019000222D200090002311467C
:10920000032000F0A9FBDFF8E8040190052200200C
:10921000009003464C21032000F08CFADFF8D804BC
:1092200001900522002000900346A221032000F0B7
:1092300081FA4123902200210320FFF729F8FF2320
:10924000912200210320FFF723F8FF23922200211F
:109250000320FFF71DF87F23932200210320FFF74F
:1092600017F8FF23942200210320FFF711F8C123F0
:10927000B02200210320FFF70BF8FF23B1220021C9
:109280000320FFF705F8FF23B22200210320FEF799
:10929000FFFFFF23B32200210320FEF7F9FFFF2386
:1092A000B42200210320FEF7F3FF00231022012146
:1092B0000320FEF7EDFF8123182201210320FEF792
:1092C000E7FF0223202201210320FEF7E1FF832391
:1092D000282201210320FEF7DBFF00233422012195
:1092E0000320FEF7D5FF5823352201210320FEF786
:1092F000CFFF0023362201210320FEF7C9FF782388
:10930000372201210320FEF7C3FF58233C2201210D
:109310000320FEF7BDFFB0233D2201210320FEF70D
:10932000B7FF0023B7E1092840F09980E9B11F2079
:10933000019000222D20009000231146032000F010
:109340000BFBEC48019005220020009003464C21C5
:10935000032000F0EFF9E84801900522002000907A
:109360000346A221032000F0E5F98123A022002179
:109370000320FEF78DFFFF23A12200210320FEF72B
:1093800087FFFF23A22200210320FEF781FF7F2316
:10939000A32200210320FEF77BFFFF23A42200214C
:1093A0000320FEF775FFC123B02200210320FEF742
:1093B0006FFFFF23B12200210320FEF769FFFF2387
:1093C000B22200210320FEF763FFFF23B322002116
:1093D0000320FEF75DFFFF23B42200210320FEF7E8
:1093E00057FF0023102201210320FEF751FF012324
:1093F000182201210320FEF74BFF822320220121A6
:109400000320FEF745FF8323282201210320FEF7D6
:109410003FFF0023382201210320FEF739FF5823A4
:10942000392201210320FEF733FF00233A220121D4
:109430000320FEF72DFF78233B2201210320FEF7B6
:1094400027FF58233C2201210320FEF721FFB023F0
:109450003D2201210320FEF71BFF00231BE10A2808
:1094600040F02781002931D01F20019000222D20BB
:10947000009000231146032000F06EFA9B480190F3
:1094800005220020009003464C21032000F052F9F1
:10949000974801900522002000900346A221032056
:1094A00000F048F9934801907D2200200090034687
:1094B0004C21032000F03EF98F4801907D220020CE
:1094C00000900346A221032000F034F901238022FA
:1094D00000210320FEF7DCFE7F23812200210320F0
:1094E000FEF7D6FEFF23822200210320FEF7D0FEE6
:1094F0007F23832200210320FEF7CAFEFF2384225C
:1095000000210320FEF7C4FE412390220021032006
:10951000FEF7BEFE7F23912200210320FEF7B8FE56
:10952000FF23922200210320FEF7B2FE7F23932225
:1095300000210320FEF7ACFEFF239422002103202C
:10954000FEF7A6FE8123A02200210320FEF7A0FE45
:109550007F23A12200210320FEF79AFEFF23A222EF
:1095600000210320FEF794FE7F23A3220021032085
:10957000FEF78EFEFF23A42200210320FEF788FEC3
:10958000C123B02200210320FEF782FE7F23B122F7
:1095900000210320FEF77CFEFF23B22200210320DE
:1095A000FEF776FE7F23B32200210320FEF770FE34
:1095B000FF23B42200210320FEF76AFE802310223D
:1095C00001210320FEF764FE8123182201210320DC
:1095D000FEF75EFE8223202201210320FEF758FEC3
:1095E0008323282201210320FEF752FE002330228C
:1095F00001210320FEF74CFE5823312201210320D4
:10960000FEF746FE0023322201210320FEF740FE32
:109610003C23332201210320FEF73AFE5823342253
:1096200001210320FEF734FEB0233522012103205F
:10963000FEF72EFE0023362201210320FEF728FE2E
:109640003C23372201210320FEF722FE002338228B
:1096500001210320FEF71CFE58233922012103209B
:10966000FEF716FE3C233A2201210320FEF710FEEE
:1096700078233B2201210320FEF70AFE58233C22D7
:1096800001210320FEF704FEB0233D220121032027
:10969000FEF7FEFD3C233E2201210320FEF7F8FDEC
:1096A00078233F2203B05DF804EB01210320FEF78D
:1096B000EFBD03B000BD10B582B0FF2000900022C6
:1096C0000E4C234600210320FEF783FEFF2000906E
:1096D00004F58073002201210320FEF77AFEBDE825
:1096E0001340FEF7BFBB0000549F00208CCE00202B
:1096F00004D200207CD50020F4D800206CDC0020AF
:1097000080B500F0FEFF002002BD00B585B04FF42B
:10971000E130009000A900200190ADF80800ADF8FC
:109720000C000C20ADF80A00002001F093F805B001
:1097300000BDFEE7FFE72DE9FE4F8AB0804617988F
:10974000179003F0070717990078497801EB00207C
:1097500080B2049003F0C005179817998078C978F3
:10976000DDF810C001EB0020179909791FFA80F984
:1097700016980A4619FB0CFC90FBF2F31CFB01F156
:1097800011FB03F102FB130010FB091080B20690DD
:10979000002206214046FEF706FC00220821404632
:1097A000FEF701FC1798007900FB09F080B20590E4
:1097B0000020019004980128C0F2CB800020039083
:1097C000B80080308DF8010007AF4EE01798305C8C
:1097D00028438DF81C004FEAA40A179830180AF0A5
:1097E0000F0B41782943797007AA81782943B97012
:1097F0000021C0782843F870ABF1800038714046F2
:10980000FEF75BFCBBF10F0F02D0201D48451EDBAD
:109810009DF828005044A0EB0B02D2B2052140462F
:10982000FEF7C1FB9DF8000040EA0B1040F00A0271
:1098300009214046FEF7B7FB4046FEF703FF00064E
:10984000FAD49DF801200A214046FEF7ACFB201D0A
:1098500084B2361D4C45B9DB01980599801C80B255
:109860000190039800EB410003900198049988420D
:109870006FDA03A8068805980199801980B20990CB
:109880004910BDF82C0011FA80F00290C2B20721F5
:109890004046FEF788FB0024B9F1010FDCDB069897
:1098A0003018401D86B20298001280008DF800002A
:1098B00041E01798305C28438DF81C004FEAA40A59
:1098C000179830180AF00F0B41782943797007AACE
:1098D00081782943B9700021C0782843F870ABF132
:1098E000800038714046FEF7E8FBBBF10F0F02D055
:1098F000201D48451CDB9DF828005044A0EB0B02BE
:10990000D2B205214046FEF74EFB9DF8000040EA2A
:109910000B1209214046FEF746FB4046FEF792FE39
:109920000006FAD49DF801200A214046FEF73BFBD1
:10993000201D84B2361D4C45BBDB069809990818DA
:10994000401D86B202980012800000248DF80000AD
:1099500080E70DB0BDE8F08F2DE9F8430E46914643
:10996000089C80461D46FF220021FEF71CFBFF22BB
:1099700001214046FEF717FBFF2202214046FEF779
:1099800012FBFF2203214046FEF70DFBE80000EB2F
:109990004505EAB207214046FEF705FB099880B26B
:1099A000410011FA85F101EBC000401E87B2FAB206
:1099B00008214046FEF7F7FA2904080E390A01EBA0
:1099C000800040F00202D2B209214046FEF7EBFAD5
:1099D000A000C0B24FEA8907040900F00F0519D0B2
:1099E000FAB205210020FEF7DEFA200150FA87F2D4
:1099F000D2B206210020FEF7D6FAB00000F1C00274
:109A0000D2B20A210020FEF7CEFA4046FEF71AFE37
:109A10000006FAD4EDB1200150FA87F2D2B2052146
:109A20000020FEF7C0FA07EB04102818421ED2B23D
:109A300006210020FEF7B7FAB00000F1C002D2B252
:109A40000A210020FEF7AFFA4046FEF7FBFD0006B4
:109A5000FAD4BDE8F1832DE9F0410E461746804661
:109A60001D46FF220021FEF79EFAFF2201214046FB
:109A7000FEF799FAFF2202214046FEF794FAFF22F0
:109A800003214046FEF78FFAF80000EB4707FAB2D1
:109A900007214046FEF787FA069880B2410011FA86
:109AA00087F101EBC000401E84B2E2B208214046BB
:109AB000FEF779FA3F04380E210A01EB800040F0EE
:109AC0000202D2B209214046FEF76DFA6800760024
:109AD000C0B2050900F00F0716D0F2B20521002030
