:020000040800F2
:1040000060FE0020A5DC00087DB700087FB700082F
:1040100081B7000883B7000885B7000800000000DA
:1040200000000000000000000000000087B700084A
:1040300089B70008000000008BB700088DB70008A2
:10404000E5DC0008E9DC0008EDDC0008F1DC000834
:10405000F5DC0008F9DC0008FDDC000801DD0008E3
:1040600005DD000809DD00080DDD000811DD000890
:1040700015DD000819DD00081DDD000821DD000840
:1040800025DD000829DD00082DDD000831DD0008F0
:1040900021B8000839DD00083DDD000841DD0008D9
:1040A00045DD000849DD00084DDD000851DD000850
:1040B00055DD000859DD000853B9000861DD00082E
:1040C00065DD000869DD00086DDD000871DD0008B0
:1040D00075DD000879DD0008BDB9000881DD000844
:1040E00085DD000889DD00088DDD000891DD000810
:1040F00095DD000899DD00089DDD0008A1DD0008C0
:10410000A5DD0008A9DD0008A9B90008B1DD000897
:104110001BBA0008B9DD0008BDDD0008C1DD0008DC
:10412000C5DD0008C9DD0008CDDD0008D1DD0008CF
:10413000D5DD0008D9DD0008DDDD0008E1DD00087F
:10414000E5DD0008E9DD0008EDDD0008F1DD00082F
:10415000F5DD0008F9DD0008FDDD000801DE0008DE
:1041600005DE000809DE00080DDE000811DE00088B
:1041700015DE000819DE00081DDE000821DE00083B
:1041800025DE000829DE00081CB501F077FE0F23AC
:104190000F220221032000F00DFA1F2001900023BE
:1041A0002D2000901A461146032001F04DFD1F20DE
:1041B000019000232D2000901A460121032001F0D8
:1041C00043FD1F20019000232D2000901A4602215C
:1041D000032001F039FD1F20019000232D200090C5
:1041E00003211A46084601F02FFD1F2000900022EF
:1041F0002D231146032001F0A6FDF02310220221F9
:10420000032000F0D7F9502000901022DFF8BC4ABC
:1042100004F108030221032000F06DFA20798009DF
:1042200028D12020009004F15803602202210320AD
:1042300000F061FA2020009004F17803802202212E
:10424000032000F058FA2020009004F17803A02207
:104250000221032000F04FFA2020009004F178039F
:10426000C0220221032000F046FA2020009004F131
:10427000780324E02020009004F1980360220221BA
:10428000032000F038FA20200090B8342346802222
:104290000221032000F02FFA202000902346A022C4
:1042A0000221032000F027FA202000902346C0229C
:1042B0000221032000F01FFA202000902346E02274
:1042C0000221032000F017FA13BD2DE9F041DFF8B9
:1042D000FC49DFF8FC89A0700E46207940F004000C
:1042E000207115464FF48051404601F055FFDFF82C
:1042F000E4794FF48041384601F022FF4FF4005139
:10430000384601F01DFF4FF40051404601F044FFD4
:104310004FF48061384601F03FFF4FF4805138463A
:1043200001F00EFF002000F0A0FB384601F0DAFE9D
:1043300000F47F4046EA0001384601F0B8FF4FF430
:104340008051404601F0FCFE4FF48051404601F0A0
:1043500023FF002000F089FB384601F0C3FE00F483
:104360007F4045EA0001384601F0A1FF4FF40051BB
:10437000384601F011FF4FF40051384601F0E0FEDD
:104380004FF48051404601F007FF4FF4804138461A
:1043900001F0D6FE4FF40051384601F0D1FE4FF443
:1043A0000051404601F0F8FE4FF48061384601F0BC
:1043B000C7FE4FF48051384601F0C2FE002000F0E5
:1043C00054FB384601F08EFE40F0FF01384601F004
:1043D0006EFF207900F0FB002071BDE8F0812DE92F
:1043E000F041DFF8E858DFF8E868A8700F46287950
:1043F00040F00400287114464FF48051304601F01B
:10440000CBFEDFF8D0884FF48041404601F098FEA3
:104410004FF40051404601F093FE4FF400513046F6
:1044200001F0BAFE4FF48061404601F0B5FE4FF452
:104430008051404601F084FE002000F016FB40460B
:1044400001F050FE00F47F4047EA0001404601F0D1
:104450002EFF4FF48051304601F072FE4FF4805130
:10446000304601F099FE2778002000F0FEFA404621
:1044700001F038FE00F47F4047EA0001404601F0B9
:1044800016FF4FF40051404601F086FE4FF40051F4
:10449000404601F055FE6778002000F0E6FA4046FD
:1044A00001F020FE00F47F4047EA0001404601F0A1
:1044B000FEFE4FF40051404601F06EFE4FF40051F5
:1044C000404601F03DFEA778002000F0CEFA4046BD
:1044D00001F008FE00F47F4047EA0001404601F089
:1044E000E6FE4FF40051404601F056FE4FF40051F5
:1044F000404601F025FEE778002000F0B6FA40467D
:1045000001F0F0FD00F47F4047EA0001404601F071
:10451000CEFE4FF40051404601F03EFE4FF40051F4
:10452000404601F00DFE2479002000F09EFA40463E
:1045300001F0D8FD00F47F4044EA0001404601F05C
:10454000B6FE4FF40051404601F026FE4FF40051F4
:10455000404601F0F5FD4FF48051304601F01CFE5D
:104560004FF48041404601F0EBFD4FF400514046CE
:1045700001F0E6FD4FF40051304601F00DFE4FF41E
:104580008061404601F0DCFD4FF48051404601F06F
:10459000D7FD002000F069FA404601F0A3FD40F08D
:1045A000FF01404601F083FE287900F0FB002871EE
:1045B000BDE8F0812DE9F843DFF81047DFF81087F8
:1045C000A0700F46207940F00400207191461E46ED
:1045D0004FF48051404601F0DFFDDFF8F8564FF40C
:1045E0008041284601F0ACFD4FF40051284601F00F
:1045F000A7FD4FF40051404601F0CEFD2FB94FF416
:104600008051284601F0C8FD13E0012F0AD14FF474
:104610008051284601F0C0FD4FF48061284601F02A
:104620008FFD0BE0022F09D14FF48051284601F095
:1046300087FD4FF48061284601F0AEFD002000F0B8
:1046400014FA284601F04EFD00F47F4049EA0001CB
:10465000284601F02CFE4FF48051404601F070FDD9
:104660004FF48051404601F097FD002000F0FDF925
:10467000284601F037FD00F47F4046EA0001284655
:1046800001F015FE4FF40051284601F085FD4FF46E
:104690000051284601F054FD4FF48051404601F08E
:1046A0007BFD4FF48041284601F04AFD4FF4005154
:1046B000284601F045FD4FF40051404601F06CFDE5
:1046C0004FF48061284601F03BFD4FF480512846AD
:1046D00001F036FD002000F0C8F9284601F002FD87
:1046E00040F0FF01284601F0E2FD207900F0FB00D8
:1046F0002071BDE8F1832DE9F843DFF8D055DFF8EC
:10470000D085A8700F46287940F00400287114461F
:104710001E464FF48051404601F03EFDDFF8B4954F
:104720004FF48041484601F00BFD4FF400514846DC
:1047300001F006FD4FF40051404601F02DFD2FB968
:104740004FF48051484601F027FD13E0012F0AD1B4
:104750004FF48051484601F01FFD4FF480614846F8
:1047600001F0EEFC0BE0022F09D14FF480514846D6
:1047700001F0E6FC4FF48061484601F00DFD002099
:1047800000F073F9484601F0ADFC00F47F4044EAC4
:104790000001484601F08BFD4FF48051404601F086
:1047A000CFFC4FF48051404601F0F6FC089CA4B2C7
:1047B000D4B116F8017B002000F057F9484601F00B
:1047C00091FC00F47F4047EA0001484601F06FFD8C
:1047D0004FF40051484601F0DFFC4FF400514846C9
:1047E00001F0AEFC641EE4D14FF48051404601F06C
:1047F000D3FC4FF48041484601F0A2FC4FF4005135
:10480000484601F09DFC4FF40051404601F0C4FCC5
:104810004FF48061484601F093FC4FF480514846C4
:1048200001F08EFC002000F020F9484601F05AFC0F
:1048300040F0FF01484601F03AFDFFE7287900F01B
:10484000FB002871BDE8F1832DE9F041DFF87C44DD
:10485000DFF87C74A0700E46207940F004002071CF
:1048600015464FF48051384601F096FCDFF8648419
:104870004FF48041404601F063FC4FF40051404644
:1048800001F05EFC4FF40051384601F085FC2EB972
:104890004FF48051404601F07FFC13E0012E0AD115
:1048A0004FF48051404601F077FC4FF48061404660
:1048B00001F046FC0BE0022E09D14FF48051404636
:1048C00001F03EFC4FF48061404601F065FC0020A1
:1048D00000F0CBF8404601F005FC00F47F4045EACB
:1048E0000001404601F0E3FC4FF48051384601F0EE
:1048F00027FC4FF48051384601F04EFC4FF48041C4
:10490000404601F049FC012000F0AFF8404601F0BC
:10491000BBFB05464FF48041404601F011FC4FF4CB
:104920008051384601F038FC4FF48041404601F098
:1049300007FC4FF40051404601F002FC4FF40051D7
:10494000384601F029FC4FF48061404601F0F8FB45
:104950004FF48051404601F0F3FB207900F0FB005A
:104960002071E8B2BDE8F081F8B5DFF86043DFF808
:104970006053A0704FF48051207940F00400207102
:10498000284601F009FCDFF84C634FF480413046C3
:1049900001F0D6FB4FF40051304601F0D1FB4FF44B
:1049A0000051284601F0F8FB4FF48061304601F0D9
:1049B000F3FB4FF48051304601F0C2FB002000F0C1
:1049C00054F8304601F08EFB00F47F4040F00A01BD
:1049D000304601F06CFC4FF48051284601F0B0FBEA
:1049E0004FF48051284601F0D7FB002000F03DF83D
:1049F000304601F077FB40F0FF01304601F057FCF4
:104A00004FF48041304601F0C7FB012000F02DF843
:104A1000304601F039FB07464FF48041304601F043
:104A20008FFB4FF48051284601F0B6FB4FF48041D4
:104A3000304601F085FB4FF40051304601F080FB19
:104A40004FF40051284601F0A7FB4FF48061304637
:104A500001F076FB4FF48051304601F071FB207974
:104A600000F0FB002071F8B2F2BD00B583B018B9B8
:104A7000FF200090012004E0012811D1FF200090C8
:104A800000208DF8040000A902208DF80500002008
:104A90008DF8060001208DF807008E4801F0F2F92C
:104AA00003B000BD1CB50020009000238A4C019487
:104AB00064224121032000F0B5FF0020009003464E
:104AC000019464221421032000F0ACFF0020009028
:104AD0000346019464226E21032000F0A3FF00200E
:104AE0000090034601942D221421032000F09AFF28
:104AF00000200090034601942D226E21032000F037
:104B000091FF0020009003460194A5221421032068
:104B100000F088FF0020009003460194A5226E213A
:104B2000032000F07FFF13BD2DE9FC410746002262
:104B300000210320FFF788FE0646102200210320F3
:104B4000FFF782FE0446202200210320FFF77CFEAF
:104B50000546302200210320FFF776FE8046FFF74E
:104B6000A1FF57B9802E16D1DFF8A00E01900023C7
:104B70000020009064224121A3E0012F02D1802C6B
:104B800009D1F1E7022F01D1802DF9E7032F0AD1D6
:104B9000B8F1800FE8D05048019000230020009029
:104BA000642241218DE0042F17D1802E14BF4A4882
:104BB000DFF8580E01900023002000906422142199
:104BC000032000F02FFF802C2BD1DFF8400E019046
:104BD000002300200090642272E0052F0FD1802E68
:104BE0002AD1DFF8280E01900023002000906422D3
:104BF0001421032000F016FF802D12D1E5E7062FC7
:104C000016D1802E23D1DFF8040E0190002300205E
:104C1000009064221421032000F004FFB8F1800FFB
:104C2000D3D02D480190002300200090642247E05B
:104C3000072F03D1802CD4D02748D4E7082F02D1E6
:104C4000802C04D1DFE7092F03D1802DDBD022484F
:104C5000DBE70A2F38D1802E14BF1F48DFF8AC0DD8
:104C600001900023002000902D221421032000F049
:104C7000D9FE802C14BF1848DFF8900D0190002356
:104C8000002000902D226E21032000F0CBFE802D0D
:104C900014BF1148DFF8740D01900023002000902C
:104CA000A5221421032000F0BDFEB8F1800F14BF2F
:104CB0000948DFF8580D0190002300200090A5223C
:104CC0006E21032000F0AEFEBDE8F3818CC600200B
:104CD000000C024000180240EC5E002000B583B0DA
:104CE000002861D1A1B11F20019000222D20009049
:104CF00000231146032000F0A7FFDFF8140D0190F8
:104D00000522002000900346A221032000F08AFE25
:104D10000123802200210320FFF74CFCFF23812286
:104D200000210320FFF746FCFF23822200210320FD
:104D3000FFF740FCFF23832200210320FFF73AFC0A
:104D4000FF23842200210320FFF734FC802310225C
:104D500001210320FFF72EFC01231822012103204B
:104D6000FFF728FC0223202201210320FFF722FC69
:104D70000323282201211846FFF71CFC00233022C0
:104D800001210320FFF716FCB0233122012103206B
:104D9000FFF710FC0023322201210320FFF70AFC59
:104DA0007823332200F010BE012861D1A1B11F2069
:104DB000019000222D20009000231146032000F0D6
:104DC00043FFDFF8500C01900522002000900346BD
:104DD000A221032000F026FE41239022002103207F
:104DE000FFF7E8FBFF23912200210320FFF7E2FBFE
:104DF000FF23922200210320FFF7DCFBFF239322F5
:104E000000210320FFF7D6FBFF239422002103207B
:104E1000FFF7D0FB0023102201210320FFF7CAFB7C
:104E20008123182201210320FFF7C4FB0223202243
:104E300001210320FFF7BEFB0323282201210320C9
:104E4000FFF7B8FB0023342201210320FFF7B2FB58
:104E5000B023352201210320FFF7ACFB00233622CB
:104E600001210320FFF7A6FB7823372200F0ACBD19
:104E7000022861D1A1B11F20019000222D200090B5
:104E800000231146032000F0DFFEDFF88C0B0190B9
:104E90000522002000900346A221032000F0C2FD5D
:104EA0008123A02200210320FFF784FBFF23A122FE
:104EB00000210320FFF77EFBFF23A2220021032015
:104EC000FFF778FBFF23A32200210320FFF772FBEB
:104ED000FF23A42200210320FFF76CFB00231022F4
:104EE00001210320FFF766FB012318220121032083
:104EF000FFF760FB8223202201210320FFF75AFBEA
:104F00000323282201211846FFF754FB00233822EF
:104F100001210320FFF74EFBB0233922012103209A
:104F2000FFF748FB00233A2201210320FFF742FB51
:104F300078233B2200F048BD03285AD1A1B11F209D
:104F4000019000222D20009000231146032000F044
:104F50007BFEDFF8C80A019005220020009003467E
:104F6000A221032000F05EFDC123B0220021032016
:104F7000FFF720FBFF23B12200210320FFF71AFBDC
:104F8000FF23B22200210320FFF714FBFF23B322EB
:104F900000210320FFF70EFBFF23B4220021032092
:104FA000FFF708FB0023102201210320FFF702FB7B
:104FB0000123182201210320FFF7FCFA02232022FB
:104FC00001210320FFF7F6FA832328220121032081
:104FD000FFF7F0FA00233C2201210320FFF7EAFA51
:104FE000B0233D2201210320FFF7E4FA002300F063
:104FF000E4BC042840F0A380F9B11F2001900022F6
:105000002D20009000231146032000F01DFEDFF844
:10501000000A019005220020009003464C21032045
:1050200000F000FDDFF8EC0901900522002000905F
:105030000346A221032000F0F5FC01238022002179
:105040000320FFF7B7FAFF23812200210320FFF797
:10505000B1FAFF23822200210320FFF7ABFA7F235E
:10506000832200210320FFF7A5FAFF2384220021D9
:105070000320FFF79FFA4123902200210320FFF72E
:1050800099FAFF23912200210320FFF793FAFF23CF
:10509000922200210320FFF78DFA7F239322002123
:1050A0000320FFF787FAFF23942200210320FFF754
:1050B00081FA8023102201210320FFF77BFA81234C
:1050C000182201210320FFF775FA02232022012173
:1050D0000320FFF76FFA0323282201210320FFF7A3
:1050E00069FA0023302201210320FFF763FA5823D5
:1050F000312201210320FFF75DFA00233222012132
:105100000320FFF757FA7823332201210320FFF70A
:1051100051FA5823342201210320FFF74BFAB02320
:10512000352201210320FFF745FA00233622012111
:105130000320FFF73FFA7823372200F045BC05280B
:1051400040F0A280F9B11F20019000222D20009094
:1051500000231146032000F077FDDFF8B40801902A
:1051600005220020009003464C21032000F05AFC49
:10517000DFF8A40801900522002000900346A22138
:10518000032000F04FFC0123802200210320FFF7C1
:1051900011FAFF23812200210320FFF70BFAFF23DE
:1051A000822200210320FFF705FA7F2383220021BA
:1051B0000320FFF7FFF9FF23842200210320FFF7DC
:1051C000F9F98123A02200210320FFF7F3F9FF233F
:1051D000A12200210320FFF7EDF9FF23A2220021E5
:1051E0000320FFF7E7F9FF23A32200210320FFF7A5
:1051F000E1F9FF23A42200210320FFF7DBF980233C
:10520000102201210320FFF7D5F9012318220121E3
:105210000320FFF7CFF98223202201210320FFF78B
:10522000C9F90323282201211846FFF7C3F90023F7
:10523000302201210320FFF7BDF95823312201213B
:105240000320FFF7B7F90023322201210320FFF7E3
:10525000B1F97823332201210320FFF7ABF958235A
:10526000382201210320FFF7A5F9B02339220121BB
:105270000320FFF79FF900233A2201210320FFF7C3
:1052800099F978233B229FE3062840F09B80F9B1EF
:105290001F20019000222D200090002311460320A2
:1052A00000F0D2FCDFF86807019005220020009092
:1052B00003464C21032000F0B5FBDFF860070190A6
:1052C0000522002000900346A221032000F0AAFB43
:1052D0000123802200210320FFF76CF9FF238122A4
:1052E00000210320FFF766F9FF238222002103201B
:1052F000FFF760F97F23832200210320FFF75AF98B
:10530000FF23842200210320FFF754F9C123B02298
:1053100000210320FFF74EF9FF23B12200210320D3
:10532000FFF748F9FF23B22200210320FFF742F9DB
:10533000FF23B32200210320FFF73CF9FF23B4220F
:1053400000210320FFF736F98023102201210320DA
:10535000FFF730F90123182201210320FFF72AF972
:105360000223202201210320FFF724F9832328228E
:1053700001210320FFF71EF9002330220121032021
:10538000FFF718F95823312201210320FFF712F902
:105390000023322201210320FFF70CF97823332266
:1053A00001210320FFF706F958233C2201210320A5
:1053B000FFF700F9B0233D2201210320FFF7FAF89F
:1053C0000023FAE2072840F0A280F9B11F200190E3
:1053D00000222D20009000231146032000F034FC11
:1053E000DFF83006019005220020009003464C2192
:1053F000032000F017FBDFF82006019005220020B3
:1054000000900346A221032000F00CFB41239022D0
:1054100000210320FFF7CEF8FF2391220021032073
:10542000FFF7C8F8FF23922200210320FFF7C2F8FC
:105430007F23932200210320FFF7BCF8FF2394224F
:1054400000210320FFF7B6F88123A02200210320CA
:10545000FFF7B0F8FF23A12200210320FFF7AAF8ED
:10546000FF23A22200210320FFF7A4F87F23A32219
:1054700000210320FFF79EF8FF23A4220021032030
:10548000FFF798F80023102201210320FFF792F87C
:105490008123182201210320FFF78CF88223202288
:1054A00001210320FFF786F803232822012103208E
:1054B000FFF780F80023342201210320FFF77AF858
:1054C0005823352201210320FFF774F800233622E8
:1054D00001210320FFF76EF87823372201210320F2
:1054E000FFF768F85823382201210320FFF762F8FC
:1054F000B023392201210320FFF75CF800233A2270
:1055000001210320FFF756F878233B225CE20828AC
:1055100040F09B80F9B11F20019000222D200090C7
:1055200000231146032000F08FFBDFF8E804019010
:1055300005220020009003464C21032000F072FA5F
:10554000DFF8D80401900522002000900346A22134
:10555000032000F067FA4123902200210320FFF787
:1055600029F8FF23912200210320FFF723F8FF23CE
:10557000922200210320FFF71DF87F2393220021B0
:105580000320FFF717F8FF23942200210320FFF7E1
:1055900011F8C123B02200210320FFF70BF8FF23ED
:1055A000B12200210320FFF705F8FF23B2220021DA
:1055B0000320FEF7FFFFFF23B32200210320FEF7A5
:1055C000F9FFFF23B42200210320FEF7F3FF00239D
:1055D000102201210320FEF7EDFF81231822012173
:1055E0000320FEF7E7FF0223202201210320FEF71C
:1055F000E1FF8323282201210320FEF7DBFF0023A4
:10560000342201210320FEF7D5FF58233522012142
:105610000320FEF7CFFF0023362201210320FEF7EF
:10562000C9FF7823372201210320FEF7C3FF582347
:105630003C2201210320FEF7BDFFB0233D220121C2
:105640000320FEF7B7FF0023B7E1092840F0998057
:10565000E9B11F20019000222D2000900023114667
:10566000032000F0F1FAEC480190052200200090A0
:1056700003464C21032000F0D5F9E84801900522AB
:10568000002000900346A221032000F0CBF98123E3
:10569000A02200210320FEF78DFFFF23A12200217D
:1056A0000320FEF787FFFF23A22200210320FEF73D
:1056B00081FF7F23A32200210320FEF77BFFFF232E
:1056C000A42200210320FEF775FFC123B022002190
:1056D0000320FEF76FFFFF23B12200210320FEF716
:1056E00069FFFF23B22200210320FEF763FFFF239F
:1056F000B32200210320FEF75DFFFF23B422002127
:105700000320FEF757FF0023102201210320FEF79C
:1057100051FF0123182201210320FEF74BFF8223B2
:10572000202201210320FEF745FF832328220121A7
:105730000320FEF73FFF0023382201210320FEF75C
:1057400039FF5823392201210320FEF733FF0023BC
:105750003A2201210320FEF72DFF78233B2201216D
:105760000320FEF727FF58233C2201210320FEF7E8
:1057700021FFB0233D2201210320FEF71BFF002360
:105780001BE10A2840F02781002931D01F20019019
:1057900000222D20009000231146032000F054FA2F
:1057A0009B48019005220020009003464C210320D5
:1057B00000F038F997480190052200200090034638
:1057C000A221032000F02EF9934801907D220020B1
:1057D000009003464C21032000F024F98F480190EB
:1057E0007D22002000900346A221032000F01AF938
:1057F0000123802200210320FEF7DCFE7F2381228B
:1058000000210320FEF7D6FEFF2382220021032081
:10581000FEF7D0FE7F23832200210320FEF7CAFE7D
:10582000FF23842200210320FEF7C4FE412390229F
:1058300000210320FEF7BEFE7F23912200210320DA
:10584000FEF7B8FEFF23922200210320FEF7B2FEEE
:105850007F23932200210320FEF7ACFEFF23942236
:1058600000210320FEF7A6FE8123A02200210320B1
:10587000FEF7A0FE7F23A12200210320FEF79AFE5F
:10588000FF23A22200210320FEF794FE7F23A32200
:1058900000210320FEF78EFEFF23A4220021032017
:1058A000FEF788FEC123B02200210320FEF782FE0E
:1058B0007F23B12200210320FEF77CFEFF23B222CA
:1058C00000210320FEF776FE7F23B3220021032070
:1058D000FEF770FEFF23B42200210320FEF76AFECC
:1058E0008023102201210320FEF764FE8123182269
:1058F00001210320FEF75EFE8223202201210320E6
:10590000FEF758FE8323282201210320FEF752FED2
:105910000023302201210320FEF74CFE58233122C0
:1059200001210320FEF746FE00233222012103203D
:10593000FEF740FE3C23332201210320FEF73AFE0E
:105940005823342201210320FEF734FEB0233522F0
:1059500001210320FEF72EFE002336220121032021
:10596000FEF728FE3C23372201210320FEF722FE0A
:105970000023382201210320FEF71CFE5823392280
:1059800001210320FEF716FE3C233A2201210320C9
:10599000FEF710FE78233B2201210320FEF70AFECA
:1059A00058233C2201210320FEF704FEB0233D22B0
:1059B00001210320FEF7FEFD3C233E2201210320AE
:1059C000FEF7F8FD78233F2203B05DF804EB0121D8
:1059D0000320FEF7EFBD03B000BD10B582B0FF207D
:1059E000009000220E4C234600210320FEF783FE88
:1059F000FF20009004F58073002201210320FEF7B0
:105A00007AFEBDE81340FEF7BFBB0000048600200D
:105A10003CB50020B4B800202CBC0020A4BF00205E
:105A20001CC30020FFE72DE9FE4F8AB0804617987F
:105A3000179003F0070717990078497801EB0020C9
:105A400080B2049003F0C005179817998078C97840
:105A5000DDF810C001EB0020179909791FFA80F9D1
:105A600016980A4619FB0CFC90FBF2F31CFB01F1A3
:105A700011FB03F102FB130010FB091080B206902A
:105A8000002206214046FEF720FC00220821404665
:105A9000FEF71BFC1798007900FB09F080B2059017
:105AA0000020019004980128C0F2CB8000200390D0
:105AB000B80080308DF8010007AF4EE01798305CD9
:105AC00028438DF81C004FEAA40A179830180AF0F2
:105AD0000F0B41782943797007AA81782943B9705F
:105AE0000021C0782843F870ABF18000387140463F
:105AF000FEF775FCBBF10F0F02D0201D48451EDBE1
:105B00009DF828005044A0EB0B02D2B2052140467C
:105B1000FEF7DBFB9DF8000040EA0B1040F00A02A4
:105B200009214046FEF7D1FB4046FEF71DFF000667
:105B3000FAD49DF801200A214046FEF7C6FB201D3D
:105B400084B2361D4C45B9DB01980599801C80B2A2
:105B50000190039800EB410003900198049988425A
:105B60006FDA03A8068805980199801980B2099018
:105B70004910BDF82C0011FA80F00290C2B2072142
:105B80004046FEF7A2FB0024B9F1010FDCDB0698CA
:105B90003018401D86B20298001280008DF8000077
:105BA00041E01798305C28438DF81C004FEAA40AA6
:105BB000179830180AF00F0B41782943797007AA1B
:105BC00081782943B9700021C0782843F870ABF17F
:105BD000800038714046FEF702FCBBF10F0F02D087
:105BE000201D48451CDB9DF828005044A0EB0B020B
:105BF000D2B205214046FEF768FB9DF8000040EA5E
:105C00000B1209214046FEF760FB4046FEF7ACFE52
:105C10000006FAD49DF801200A214046FEF755FB04
:105C2000201D84B2361D4C45BBDB06980999081827
:105C3000401D86B202980012800000248DF80000FA
:105C400080E70DB0BDE8F08F2DE9F8430E46914690
:105C5000089C80461D46FF220021FEF736FBFF22EE
:105C600001214046FEF731FBFF2202214046FEF7AC
:105C70002CFBFF2203214046FEF727FBE80000EB48
:105C80004505EAB207214046FEF71FFB099880B29E
:105C9000410011FA85F101EBC000401E87B2FAB253
:105CA00008214046FEF711FB2904080E390A01EBD2
:105CB000800040F00202D2B209214046FEF705FB07
:105CC000A000C0B24FEA8907040900F00F0519D0FF
:105CD000FAB205210020FEF7F8FA200150FA87F207
:105CE000D2B206210020FEF7F0FAB00000F1C002A7
:105CF000D2B20A210020FEF7E8FA4046FEF734FE51
:105D00000006FAD4EDB1200150FA87F2D2B2052193
:105D10000020FEF7DAFA07EB04102818421ED2B270
:105D200006210020FEF7D1FAB00000F1C002D2B285
:105D30000A210020FEF7C9FA4046FEF715FE0006CC
:105D4000FAD4BDE8F1832DE9F0410E4617468046AE
:105D50001D46FF220021FEF7B8FAFF22012140462E
:105D6000FEF7B3FAFF2202214046FEF7AEFAFF2209
:105D700003214046FEF7A9FAF80000EB4707FAB204
:105D800007214046FEF7A1FA069880B2410011FAB9
:105D900087F101EBC000401E84B2E2B20821404608
:105DA000FEF793FA3F04380E210A01EB800040F021
:105DB0000202D2B209214046FEF787FA6800760057
:105DC000C0B2050900F00F0716D0F2B2052100207D
:105DD000FEF77BFA280150FA86F2D2B206210020A3
:105DE000FEF773FAE0220A210020FEF76EFA404621
:105DF000FEF7BAFD0006FAD4D7B1280150FA86F2B0
:105E0000D2B205210020FEF760FA06EB0510381823
:105E1000421ED2B206210020FEF757FAE0220A21E4
:105E20000020FEF752FA4046FEF79EFD0006FAD427
:105E3000BDE8F08138B50478012C1EDB451C15F84F
:105E4000013B0B2202210320FEF7B4FB15F8013BB6
:105E50000C2202210320FEF7ADFB15F8013B0D22B9
:105E600002210320FEF7A6FB15F8013B0E220221BA
:105E70000320FEF79FFB641EE1D131BD0048D9E746
:105E8000F0C700202DE9F84304460026DFF864053A
:105E90000D4684421CBFDFF8600584421FD0DFF846
:105EA0005C0584421CBFDFF85805844217D0DFF838
:105EB000540584421CBFDFF8500584420FD0DFF840
:105EC0004C0584421FBFDFF848058442DFF84405D3
:105ED000844204D0C1210FF2405000F0E8FA286853
:105EE00020B90FF23450C22100F0E1FA28790028DD
:105EF00018BF012808D0022818BF032804D0C321E6
:105F00000FF2145000F0D3FAE87940B1012818BF1D
:105F1000022804D00FF20050C42100F0C8FA01207A
:105F200000FA06F8286808EA0000404546D17700E4
:105F30000320B8406FEA0009206809EA00002060E9
:105F400020682979B940084320602879012818BFC2
:105F500002282AD16879002818BF012808D0022811
:105F600018BF032804D0D6210FF2AC4000F09FFAEE
:105F7000A06809EA0000A060A0686979B9400843F8
:105F8000A060A879002818BF012804D0DD210FF2F5
:105F9000884000F08CFA606820EA08006060606861
:105FA000A979B14089B208436060E06809EA00005D
:105FB000E060E068E979B9400843E060761C102EA3
:105FC000ADD3BDE8F18370B504460026DFF82404A4
:105FD0000D4684421CBFDFF82004844220D0DFF845
:105FE0001C0484421CBFDFF81804844218D0DFF878
:105FF000140484421CBFDFF81004844210D0DFF880
:106000000C0484421FBFDFF808048442DFF8040454
:10601000844205D04FF49B710FF2FC3000F047FA38
:10602000012D18BF022D29D0042D18BF082D25D011
:10603000102D18BF202D21D0402D18BF802D1DD030
:10604000B5F5807F18BFB5F5007F17D0B5F5806F27
:1060500018BFB5F5006F11D0B5F5805F18BFB5F565
:10606000005F0BD0B5F5804F18BFB5F5004F05D0D8
:106070000FF2A43040F2371100F019FA20692842DB
:1060800018BF0126304670BD10B50446DFF8640322
:1060900084421CBFDFF86003844220D0DFF85C0339
:1060A00084421CBFDFF85803844218D0DFF8540341
:1060B00084421CBFDFF85003844210D0DFF84C0349
:1060C00084421FBFDFF848038442DFF8480384425C
:1060D00005D04FF4A6710FF2403000F0E8F92069C6
:1060E00080B210BD10B50446DFF8080384421CBF1F
:1060F000DFF80403844220D0DFF8000384421CBF91
:10610000DFF8FC02844218D0DFF8F80284421CBF9A
:10611000DFF8F402844210D0DFF8F00284421FBF9F
:10612000DFF8EC028442DFF8EC02844205D040F252
:1061300073110FF2E42000F0BAF9606980B210BD6B
:1061400038B50446AB480D4684421CBFAA48844279
:1061500019D0AA4884421CBFA948844213D0A94838
:1061600084421CBFA84884420DD0A84884421FBF67
:10617000A7488442A748844205D040F285110FF217
:10618000982000F094F92DB90FF28C204FF4C371D0
:1061900000F08DF9258331BD38B5044695480D468C
:1061A00084421CBF9448844219D0944884421CBF46
:1061B0009348844213D0934884421CBF924884423F
:1061C0000DD0924884421FBF914884429148844236
:1061D00005D04FF4CC710FF2402000F068F92DB9D2
:1061E0000FF2342040F2991100F061F9658331BD5E
:1061F00070B504467F480D46164684421CBF7E4853
:10620000844219D07D4884421CBF7D48844213D00B
:106210007C4884421CBF7C4884420DD07B48844229
:106220001FBF7B4884427B48844205D04FF4D6711F
:106230000FF2E41000F03BF9012D18BF022D29D018
:10624000042D18BF082D25D0102D18BF202D21D0CA
:10625000402D18BF802D1DD0B5F5807F18BFB5F536
:10626000007F17D0B5F5806F18BFB5F5006F11D05E
:10627000B5F5805F18BFB5F5005F0BD0B5F5804F61
:1062800018BFB5F5004F05D00FF28C1040F2AD11DC
:1062900000F00DF94EB1012E05D04FF4D7710FF279
:1062A000781000F004F9258370BD658370BD38B5A2
:1062B000044650480D4684421CBF4F48844219D0C2
:1062C0004E4884421CBF4E48844213D04D488442FD
:1062D0001CBF4D4884420DD04C4884421FBF4C48DF
:1062E00084424C48844205D040F2C3110FF228107A
:1062F00000F0DDF8656131BD70B506463D480D46DC
:10630000144686421CBF3C48864219D03B48864210
:106310001CBF3B48864213D03A4886421CBF3A48CD
:1063200086420DD0394886421FBF394886423948D7
:10633000864205D040F21D210FF2DC0000F0B7F8D4
:10634000002D18BF012D21D0022D18BF032D1DD007
:10635000042D18BF052D19D0062D18BF072D15D0F7
:10636000082D18BF092D11D00A2D18BF0B2D0DD0E7
:106370000C2D18BF0D2D09D00E2D18BF0F2D05D0D7
:106380000FF2940040F21E2100F091F8002C18BF8B
:10639000092C1ED0012C18BF022C1AD0032C18BFB8
:1063A000042C16D0052C18BF062C12D0072C18BFB1
:1063B000082C0ED00A2C18BF0B2C0AD00C2C1CBF9A
:1063C0000D2C0F2C05D040F21F210FF24C0000F0D5
:1063D0006EF8E80806EB800005F007018900026A04
:1063E0000F238B409A43026204FA01F1026A1143BF
:1063F000016270BD0000024000040240000802403B
:10640000000C02400010024000140240001802403C
:10641000001C024000200240433A5C546F6F6C73D2
:106420005C574C39465C574C3946204D6F6E697449
:106430006F72202D2053544D33325F4150505C4CCD
:1064400069627261726965735C53544D33324634CC
:1064500078785F5374645065726970685F447269DC
:106460007665725C7372635C73746D333266347814
:10647000785F6770696F2E630000000080B500F0E0
:1064800040FD002002BD00B585B04FF4E130009022
:1064900000A900200190ADF80800ADF80C000C2018
:1064A000ADF80A00002000F0CFFD05B000BDFEE70A
:1064B000DFF85C08DFF8A42841685160116006E04D
:1064C0004FF00060DFF890284168D1639163006865
:1064D00080F308880846004700B5DFF884080021EB
:1064E000017083B0012141708170C1700C21017174
:1064F000002141718171D0E90023CDE90023DDE95C
:10650000000100F090FF03B000BDF0B58DB0DFF8E2
:10651000540802A9016000A9416004A9816006A98C
:10652000C16000219DF8080000F0FC008DF8080013
:1065300000F0F3008DF8080000F00F0040F030008C
:106540008DF8080002A8417081700721C1700021F8
:106550000171417901F0F00141F0010141713121F6
:106560004171422181712421C17108219DF80000EF
:1065700000F0FC008DF8000000F0F3008DF8000042
:1065800000F0CF008DF8000000F03F008DF8000013
:1065900000A8417010218170C17801F0F001C17034
:1065A0000021C17041609DF8100000F0F0008DF8EE
:1065B000100080208DF8100004A8417801F0F0014F
:1065C000417050214170817801F0F00141F00501E6
:1065D000817055218170C17801F0F00141F008010E
:1065E000C1702821C170017901F0F00141F007016B
:1065F000017127210171FF214171002006900021C6
:1066000006A841608160C160016100208DF82C0006
:1066100001F009F90021084601F005F900210846BA
:1066200001F001F9002402AD00AE04AF15F8011B22
:1066300004F1080001F0F7F8052001F062FA16F8FD
:10664000011B04F1100001F0EEF8052001F059FAE9
:1066500017F8011B04F1180001F0E5F8052001F01E
:1066600050FA641C082CE1DB002406AD15F8011B70
:1066700004F1320001F0D7F8052001F042FA641C61
:10668000152CF3DB0024FF2104F1640001F0CBF8AA
:10669000052001F036FA641C4F2CF4DB0024FF21A6
:1066A00004F1C80001F0BFF8052001F02AFA641CCB
:1066B0001E2CF4DB0024FF2104F1E60001F0B3F806
:1066C000052001F01EFA641C1D2CF4DBFFF704FF0B
:1066D0000DB0F0BDDFF8240901214163FF21C17134
:1066E000002141728172017241708170C17001712B
:1066F00041718171704710B5DFF8644684B020465F
:1067000000F0E1FE02208DF80000832100A8417016
:10671000217881706178C170A1780171E17841714F
:106720002179817100A960798DF80700A0798DF831
:106730000800FF208DF8090003208DF80A000420CE
:1067400001F0B7FA04B010BD0146002001F06BB8AB
:1067500080B58DF80000002001F0E8FA0122002148
:1067600000A801F019FB01BD0146012001F05BB852
:10677000012001F086B8F8B5DFF8DC4501F0B7FE7E
:1067800038B1E07B002840F08280207401F0AFFE39
:1067900028B9012001F0A6FE0020A073F1BD6420FD
:1067A00001F0AFF9207C401C2074C0B20F28EDDB53
:1067B00001F0E5FE0021F52001F0F2FE642001F079
:1067C000A0F90021F52001F0EBFEDFF8345840F28B
:1067D000277600223146284602F0DEF9DFF82478D9
:1067E00000220221384602F09DFD01F0CDFE00207E
:1067F00020630021DFF81008017002F019FE4FF449
:10680000966001F07EF9002002F01FFF012002F0E7
:1068100012FF002002F00AFF01F02EFE002001F01E
:1068200015FE4FF47A7001F06CF901F060FE18BBB0
:10683000012001F057FEDFF8D407017801290FD1BC
:1068400061740022002101702846314602F0A4F94B
:1068500000220221384602F065FDFFF731FE0BE011
:1068600000223146284602F097F9002202213846DC
:1068700002F058FDFFF71CFE002001F033FE00205F
:1068800001F030FEBDE8F240002001F02BBEF1BD6A
:1068900080B5FF210091FF23DFF860178A7A19463F
:1068A000FFE701F0C5FE01BD80B5DFF864170A7986
:1068B00049791309009302F00F0301F00F0201461A
:1068C000FF20EEE7002818BF022806D1DFF84017A6
:1068D0000A7A60F301020A727047DFF83417087A07
:1068E00040F0030008727047DFF82417042804DA28
:1068F0000A7A60F385020A727047087A40F03C0019
:106900000872704700B9704710B501280DD102F028
:1069100075FF6FF0A061B0FBF1F16FF0A06202FBB8
:106920001100DFF8EC16086110BD022817D102F043
:1069300065FF4FF6FF21DFF8D84690FBF1F14FF6E7
:10694000FF2202FB1100A08202F058FF6FF0A0614D
:10695000B0FBF1F16FF0A06202FB1100206110BDED
:1069600010B584B00020FFF7ADFF0320FFF7BCFF98
:106970000220FFF7C7FFDFF89846A08AB0F57B4FEB
:10698000A8BF4FF6FF706081206910F1A06F28BF8B
:106990004FF0FF30E06048F2870148F2850003F0D5
:1069A00040F8042300AA042104F10C0003F03EF88F
:1069B0000098E0600A2001F0A4F804F108000CC877
:1069C00002A918200CC18DF80400FF208DF80500E5
:1069D000E7208DF8060028208DF8070001A807C8D9
:1069E00003F0CAF904B010BD30B5DFF824462569BC
:1069F00085B00020FFF766FF0020FFF775FF00203D
:106A0000FFF780FFA08AB0F57B4FA8BF4FF6FF705D
:106A10006081A9B2280C03F004F8042300AA042121
:106A200004F10C0003F002F80098E0600A2001F085
:106A300068F804F108000CC802A918200CC13CE059
:106A400030B5DFF8CC45256985B00020FFF73AFF67
:106A50000120FFF749FF0020FFF754FFA08AB0F59F
:106A60007B4FA8BF4FF6FF7013E030B5DFF8A045AD
:106A7000256985B00020FFF725FF0220FFF734FFCE
:106A80000020FFF73FFFA08AB0F57B4FA8BF4FF66D
:106A9000FF706081A9B2280C02F0C3FF042300AA92
:106AA000042104F10C0002F0C1FF0098E06002A98B
:106AB00004F108000CC80CC118208DF80400FF2058
:106AC0008DF80500E7208DF8060028208DF80700D6
:106AD00001A807C803F050F905B030BD20B5DFF8B4
:106AE0003055286981B284B0000C02F09AFF082367
:106AF00000AA0821284602F0C4FF00A806C806C55F
:106B0000083D287A297800F0030201F003039A4235
:106B100002BFC0F38300C1F38301884202BF6889CA
:106B20006988884203D12979080904B020BDFF2073
:106B300004B020BD1CB5DFF8D844206981B2000C38
:106B400002F06FFF082300AA0821204602F099FFF7
:106B500000A806C806C4083C207A217800F0030289
:106B600001F003039A4202BFC1F38301C0F3830023
:106B7000884202BF6089628890422BD1207900F060
:106B80000F02012A22D10009012823D009D30328AA
:106B900020D002D3042802D003E003201BE005200C
:106BA00019E0012916D1607900F00F00012818BF03
:106BB000022810D0032808BF07200CD0042808BFE3
:106BC000082008D0052805D1092004E0022A08BFC2
:106BD000062000D00420FFF767FE13BD38B55E4CD9
:106BE000E179002001291EBF616BB1F5803FB1F54D
:106BF000801F68D0012905D141F201006063FFF7D1
:106C0000AFFE60E0102905D141F210006063FFF78C
:106C1000EBFE58E0CA0556D521F480716163C907BF
:106C200048BF0320FFF75AFF70BB606BC10710D548
:106C300000202070FF23102060630421DFF8D003C0
:106C4000407900F00F02FF20A272009001F0F0FCEA
:106C500039E0C00637D500202070FF230120E07105
:106C6000DFF8AC03407900F00F024FF4803060632E
:106C7000A272A5202072FF2000900146A52001F0FD
:106C8000D7FC012060701EE02078401C2070C0B24C
:106C900014280FDB0120E0714FF480106063FE20A8
:106CA0002072FF2000900146A27AFF23FE2001F00F
:106CB000BFFC31BD606BC10748BF012002D4C006D4
:106CC00001D510206063DFF84C53A878012818BF65
:106CD00002280FD1012802D1FFF7B2FE03E00228FB
:106CE00008BFFFF7C2FE0120607200206063FF2032
:106CF000A87031BD607A012804BF606BB0F5807F59
:106D000004D100206072BDE8314013E731BD0000BE
:106D10000040000810B5DFF8E442A07818B9FF2061
:106D2000A07003F059F9E078012803D1FF20E0704A
:106D300003F07AF92079012805D1FF20207103F0B2
:106D4000EAF9002060706079012804BFBDE81040B6
:106D5000FFF7C0BC10BD000030F5002034F6002065
:106D60001CF60020F0F5002010B502F061FBA34CEA
:106D7000607D012808BFFFF731FF6078012808BF58
:106D8000FFF7C8FF207D1E2803DA401C2075012074
:106D900003E004BF401C2075002002F04CFC9E481C
:106DA0000088B0F57A7F14DD9C480078012810D166
:106DB00002F084FE01220221924802F0B3FA9848C0
:106DC00000210170607B401C6073C0B20A28A8BF1C
:106DD0006173A08DC82802DA401CA08504E004BFBE
:106DE000401CA085FFF7C7FCA07C78B1E07C0A2896
:106DF000BCBF401CE074E07C0A2807DB89480178AE
:106E00008948007801F0F0F80020A074607C012827
:106E10000ED0A07D012807D10020A07583480078FE
:106E200002F0B4FC02F0AEFCBDE8104003F038B94B
:106E300010BD824A1278002A08BFFDF74FBF03F049
:106E40007BBB7E490978002908BFFDF76DBE03F0C2
:106E500061BB38B5694CA07B01281CBF002001F044
:106E600041FB012001F0F2FA01F0F4FA03F08CFC8E
:106E700004F0BDF901F023FB03F014FC01F042FB28
:106E80006E4D2878022803DA002000F039FD04E076
:106E9000002240216A48FFF7ABF901F0A4FC02F0A0
:106EA0009EFB002002F0BCFB012002F0BFFB012092
:106EB00002F0C1FB02F076FC6249022000F075FE90
:106EC000042000F035FE02F0F9FD2878022807DBE7
:106ED0000122002100A800F0AAFF9DF8000002E0B6
:106EE000002000F0CEFC607501F069F800202063FE
:106EF00001220221434802F015FA04F00FFA31BDD5
:106F000000002DE9F843FFF7BEFA4FF000664A4C47
:106F1000464DDFF82081DFF81891384F04F0FEF875
:106F200004F009F904F03FF9FFF793FF10E020782F
:106F3000401CC0B2062808BF002020700321207822
:106F400090FBF1F101EB4101401A08BF02F01AFC7D
:106F5000B88B012815D10020B883F87A01280CD10C
:106F6000387B411C3973042807DB0020387304F098
:106F7000DEFB0021202001F013FB02F04EFF02F0A7
:106F80001BFFF88B012804BF0020F883388C0128F0
:106F900013D100203884FFF7E7FEB97B787C012904
:106FA00018BF012809D10028B8D07068F863B86309
:106FB000306880F30888B86B8047388D012807D186
:106FC0000020388599F80000012818BF02F0DDFF85
:106FD000788D0128BCD100207885F87C0A28B8BFBC
:106FE000FFF789FB98F80000012802D12878FF28D4
:106FF0009DD100202070ABE70000000030F500209C
:107000000044004000640040DCF400202DAD00206E
:10701000ACF5002050F30020F4ED002059F60020DC
:107020005AF60020EAED0020E9ED0020C4C8002057
:10703000EBED0020C5C80020EFF500203CF6002055
:1070400000180240C4F50020F0B506460FF2BC005F
:107050000FF2BC0283B0354650F8250052F82520C7
:107060000C460121104304F065FF1EB901211020D8
:1070700004F0A3FF0FF2AC00DFF88C6030F81520AD
:107080000FF2980030F8151006EB8507D2B2786839
:10709000FFF732F90FF2900030F815200FF2800060
:1070A00030F81510B868D2B2FFF726F900208DF835
:1070B000060000A901208DF8070002208DF80400C9
:1070C0000FF2500030F81500009002208DF80500F6
:1070D0007868FEF7D7FE02208DF8040000A90FF2B1
:1070E000380030F815000090B868FEF7CBFE56F86F
:1070F0002500214601F0B4FB56F82500012101F0DE
:1071000076FC03B0F0BD0000B4C800200100000010
:10711000010000000002000000040000090000005F
:107120000A00000007000000070050F8041B61B1CE
:1071300050F8042BD30744BFA9F101039A18002388
:1071400042F8043B091FFAD1EFE7704700B583B05E
:1071500001004FF40072DFF8F404009206D0012120
:107160008DF8041002218DF8051001E08DF804104F
:1071700000A9FEF787FE03B000BD10B564281BDA36
:107180000A2190FBF1F10A0150FA82F001EB810231
:10719000A0EB4204DFF8B8040078022806DB00F018
:1071A000CDF9A22000F056FA092038E0E1B2BDE89E
:1071B0001040082000F0DEBB10BD80B5DFF8900461
:1071C0000078022803DB092000F095FA02E008208D
:1071D00000F00EFC0109C2E001460D2900DB7047FA
:1071E00010B5D8B10A2091FBF0F0020151FA82F1FA
:1071F00000EB8002DFF858040078A1EB420402287B
:1072000006DB00F09BF9A22000F024FA082006E03B
:10721000E1B2BDE81040072000F0ACBB10BD00F0AB
:1072200019FAE0B200F016FABDE81040AFE180B5FF
:10723000DFF81C040078022803DB082000F05BFA6A
:1072400002E0072000F0D4FBC0F3001187E0014604
:10725000202900DB704710B5D8B10A2091FBF0F06F
:10726000020151FA82F100EB8002DFF8E4030078BA
:10727000A1EB4204022806DB00F060F9A22000F036
:10728000E9F90620CBE7E1B2BDE81040062000F0A6
:1072900071BB10BD80B5DFF8B8030078022803DBAE
:1072A000062000F028FA02E0062000F0A1FB54E0DE
:1072B00010B50446DFF898030078022809DB00F0D7
:1072C0003DF9A22000F0C6F9072000F0C3F92046DE
:1072D000A8E7082C06DA2CB12146BDE810400520AD
:1072E00000F048BB10BD80B5D9480078022803DB08
:1072F000072000F000FA02E0052000F079FB00F022
:10730000070002BD10B518281ADA0A2190FBF1F126
:107310000A0150FA82F001EB8102A0EB4204CC4852
:107320000078022806DB00F009F9A22000F092F9AB
:10733000052074E7E1B2BDE81040042000F01ABB5C
:1073400010BD80B5C2480078022803DB052000F09C
:10735000D2F902E0042000F04BFBC0F3011101EB75
:10736000810200F00F0000EB4200C0B202BD10B578
:107370003C281ADA0A2190FBF1F10A0150FA82F056
:1073800001EB8102A0EB4204B1480078022806DB41
:1073900000F0D4F8A22000F05DF904203FE7E1B24C
:1073A000BDE81040032000F0E5BA10BD80B5A84844
:1073B0000078022803DB042000F09DF902E003209E
:1073C00000F016FBC0F30211C9E710B53C281ADA29
:1073D0000A2190FBF1F10A0150FA82F001EB8102DF
:1073E000A0EB42049A480078022806DB00F0A6F8D9
:1073F000A22000F02FF9032011E7E1B2BDE8104010
:10740000022000F0B7BA10BD80B59148007802287C
:1074100003DB032000F06FF902E0022000F0E8FA3D
:10742000C0F302119BE72DE9F3438948007881B04E
:107430009DF80A409DF809509DF808609DF8077076
:107440009DF806809DF80590022817DB9DF8040042
:10745000FFF793FE4846FFF7BFFE4046FFF7F7FEF3
:107460003846FFF725FF3046FFF74CFF2846FFF769
:107470007EFF204603B0BDE8F043A6E702210020CE
:1074800000F078FA9DF80400FFF777FE4846FFF712
:10749000A3FE4046FFF7DBFE3846FFF709FF304604
:1074A000FFF730FF2846FFF762FF2046FFF78DFF0A
:1074B0000021002000F05EFA03B0BDE8F043002197
:1074C000012000F057BA10B5044661480078022840
:1074D00015DBFFF772FE2070FFF7A9FE6070FFF763
:1074E000D9FEA070FFF7FFFEE070FFF72AFF2071C2
:1074F000FFF75CFF6071FFF787FFA07110BD0121EE
:10750000002000F037FAFFF758FE2070FFF78FFEDB
:107510006070FFF7BFFEA070FFF7E5FEE070FFF7B9
:1075200010FF2071FFF742FF6071FFF76DFFA07140
:107530000021BDE81040002000F01CBA10B5012069
:10754000FFF704FE414C01224FF400712046FEF784
:107550004FFE01224FF400712046FEF749FE012242
:107560004FF480712046FEF743FE00F0DFF8002262
:107570004FF400712046FEF73BFE00F0D7F820469E
:10758000BDE8104000224FF48071FEF731BE10B507
:107590000120FFF7DBFD2D4C00224FF40071204647
:1075A000FEF726FE00F0C2F801224FF4807120465B
:1075B000FEF71EFE00F0BAF82046BDE8104001229A
:1075C0004FF40071FEF714BE10B504460120FFF71A
:1075D000BDFD621E9241D2431C4CD20F4FF400718C
:1075E0002046FEF705FE00F0A1F801224FF480715D
:1075F0002046FEF7FDFD00F099F800224FF480715F
:107600002046FEF7F5FDBDE8104000F08FB838B514
:107610000020FFF79BFD0D4C01224FF480712046A6
:10762000FEF7E6FD00F082F84FF400712046FEF709
:10763000CAFC054600F07AF800224FF4807120461B
:10764000FEF7D6FD00F072F8284632BD0004024075
:107650003CF6002070B5044600250126C5F1070060
:1076600006FA00F000EA0401481E8041C043C00F42
:10767000FFF7AAFF6D1C082DF0DBBDE87040C6E7E0
:107680002DE9F843FFF7C3FF0646FFF7C0FF0746A3
:10769000FFF7BDFF8046FFF7BAFF8146FFF7B7FF50
:1076A0000446FFF7B4FF0546FFF7B1FF47EA46017E
:1076B00048EA410149EA410144EA410145EA410100
:1076C00040EA4104FFF7A3FF40EA4400C0B2BDE82E
:1076D000F28338B504460D46FFF730FFA220FFF7CE
:1076E000B9FF2046FFF7B6FF2846FFE7FFF7B2FFD6
:1076F000BDE831404BE710B50446FFF71FFFA2205D
:10770000FFF7A8FF2046FFF7A5FFFFF740FFFFF7B1
:1077100015FFA320FFF79EFFFFF7B2FF04460120ED
:10772000FFF752FFFFF733FF204610BD704700B54B
:107730000100DFF8380283B001694FF400724FF6A0
:10774000FF5308D019404161009201218DF80410C7
:107750008DF8051005E019404161009200218DF877
:10776000041000A9FEF78EFB03B000BD70B50446FF
:107770000825DFF8F861E4B2E0094FF40071304603
:1077800002D0FEF7DDFC01E0FEF706FD4FF480714C
:107790003046FEF7D5FC64004FF480713046FEF7AA
:1077A000FBFC6D1EE7D14FF400713046FEF7F4FC90
:1077B0004FF480713046FEF7C3FC3046BDE87040A0
:1077C0004FF48071FEF7E8BC70B5DFF8A0514FF4BC
:1077D00080712846FEF7E0FC4FF400712846FEF762
:1077E000AFFC0020FFF7A3FF08264FF48071284666
:1077F000FEF7A6FC4FF400712846FEF7E4FB40EAD2
:107800004404E4B24FF480712846FEF7C5FC761EAE
:10781000EBD14FF400712846FEF7BEFC0120FFF7C4
:1078200086FF204670BD70B50446514800780D466D
:10783000022825DA4D4E4FF400713046FEF780FCE9
:107840000120FFF774FF4FF400713046FEF778FC1B
:107850004FF480713046FEF773FC4FF400713046F0
:10786000FEF79AFC4FF480713046FEF795FCA0209D
:10787000FFF77CFF2004000EFFF778FFE0B2A1E0E5
:1078800070BD38B50446394D4FF400712846FEF7F7
:1078900057FC0120FFF74BFF4FF400712846FEF71D
:1078A0004FFC4FF480712846FEF74AFC4FF40071FC
:1078B0002846FEF771FC4FF480712846FEF76CFCF9
:1078C000A020FFF753FF2004000EFFF74FFFE0B2A8
:1078D000FFF74CFF4FF400712846FEF731FC4FF4E0
:1078E00080712846FEF72CFC4FF400712846FEF705
:1078F00053FC4FF480712846FEF74EFCA120B4E003
:1079000038B50446194D4FF400712846FEF718FCAF
:107910000120FFF70CFF4FF400712846FEF710FC22
:107920004FF480712846FEF70BFC4FF40071284697
:10793000FEF732FC4FF480712846FEF72DFCD02074
:10794000FFF714FF0A20FFF711FF2046FFF70EFF95
:107950004FF400712846FEF71FFC4FF48071284653
:10796000FEF7EEFB2846BDE834403DE0000402404F
:107970003CF6002070B504460D46014E02E000BF03
:10798000000402404FF400713046FEF7D9FB01209D
:10799000FFF7CDFE4FF400713046FEF7D1FB4FF4F8
:1079A00080713046FEF7CCFB4FF400713046FEF795
:1079B000F3FB4FF480713046FEF7EEFBD020FFF76B
:1079C000D5FE2046FFF7D2FE2846FFF7CFFE4FF444
:1079D00000713046FEF7E0FB4FF480713046FEF751
:1079E000AFFB3046BDE870404FF40071FEF7A8BB16
:1079F00038B50446004D01E0000402404FF4007128
:107A00002846FEF79DFB0120FFF791FE4FF4007121
:107A10002846FEF795FB4FF480712846FEF790FB51
:107A20004FF400712846FEF7B7FB4FF480712846EB
:107A3000FEF7B2FBD020FFF799FE2046FFF796FE37
:107A40004FF400712846FEF77BFB4FF48071284607
:107A5000FEF776FB4FF400712846FEF79DFB4FF4CE
:107A600080712846FEF798FBD120FFF77FFEFFF7D5
:107A7000ABFE04464FF400712846FEF761FB4FF45D
:107A800080712846FEF75CFB4FF480712846FEF7B4
:107A900083FB4FF400712846FEF77EFB4FF48071A4
:107AA0002846FEF74DFB4FF400712846FEF748FBD1
:107AB000204632BD0848016811B10168491E0160C5
:107AC000704700BF01B404480099016001680029B3
:107AD000FCD101B07047000048F6002082B00021C0
:107AE00007E00099491C009100990529F9D30199F3
:107AF000491C01910199814238BF0021F3D302B0A2
:107B0000704782B00021019144F2682108E0009A98
:107B1000521C0092009A8A42F9D3019A521C019297
:107B2000019A824238BF0022F3D302B070470000AE
:107B300030B585B0044600200290ADF80C00ADF8D9
:107B400010000C20ADF80E0001A90FF2C010684D16
:107B500050F82400019055F8240000F081FE55F8FB
:107B60002400012100F043FF55F82400012240F2D7
:107B7000255101F011F855F82400002240F2277138
:107B800001F00AF80FF2981030F814008DF8000098
:107B900000208DF801008DF8020001208DF803000F
:107BA00000A804F0DFFA05B030BD70B50446514DB1
:107BB00094B00E46284604F071FB4FF0006005902B
:107BC000079605A94C48069040200890112009907E
:107BD00000200A904FF480600B9004201090032046
:107BE000119000200C900D9012900E904FF44030A8
:107BF0000F9000201390284604F02DFC0022102145
:107C0000284604F06FFE00200290ADF80C00ADF89D
:107C100010000C20ADF80E0001A90FF2F000344D59
:107C200050F82400019055F8240000F019FE334864
:107C30000122802100F06EFF55F82400012240F25D
:107C4000255100F0A9FF0FF2D80030F814008DF88C
:107C5000000000208DF801008DF8020001208DF851
:107C6000030000A804F07EFA55F82400012100F07A
:107C7000BEFE14B070BDF8B504460D461D4F164645
:107C80000021384604F011FD32462946204604F012
:107C9000EBFE7E600121384604F007FD384604F013
:107CA0005FFD0028FAD13846BDE8F440144904F0DD
:107CB000BBBD38B5134D0446288840F2FF229042E0
:107CC000A4BF0020288028880F4B0B22C01804F086
:107CD000CBFE28880B3028800122054850F824006C
:107CE000BDE8384040F2277100F056BF00000000A8
:107CF0007CC80020A06002400444004000440040D2
:107D000000002020EEED0020FCED0020000000002F
:107D10000000000000C2010000E1000000C20100FC
:107D200000000000260000003400000038B50446C2
:107D300000F0EEF8DFF80455002210212846FEF787
:107D400057FAD82000F0BAF82002000E00F0B6F87A
:107D50002004000E00F0B2F8E0B200F0AFF801220B
:107D600010212846FEF744FABDE83140E1E010B5A5
:107D700000F0CEF8DFF8C444002210212046FEF7C0
:107D800037FAC72000F09AF8012210212046FEF7AA
:107D90002FFABDE81040CCE02DE9F84304460F4629
:107DA000164600F0B5F8DFF89494002210214846FA
:107DB000FEF71EFA022000F081F83802000E00F0F3
:107DC0007DF83804000E00F079F8F8B200F076F88B
:107DD0002EB3012794F800800025761E0022202172
:107DE0004846FEF705FAC5F1070007FA00F04146DC
:107DF000014214BF0122002280214846FEF7F8F913
:107E0000012220214846FEF7F3F940214846FEF7BB
:107E1000DAF86D1C082DE1DB641C002EDAD101229A
:107E200010214846FEF7E4F9BDE8F14381E02DE971
:107E3000F84380460F461646DFF8009400221021D2
:107E40004846FEF7D5F9032000F038F83802000E56
:107E500000F034F83804000E00F030F8F8B200F00A
:107E60002DF83EB3012700240025761E0022202194
:107E70004846FEF7BDF9C5F1070007FA00F010F01B
:107E8000A50014BF0122002280214846FEF7B0F968
:107E9000012220214846FEF7ABF940214846FEF773
:107EA00092F86D1C40EA4404082DDFDB08F8014B12
:107EB000002ED8D14846BDE8F84336E02DE9F04120
:107EC0000446002500260127DFF8708300222021C8
:107ED0004046FEF78DF9C6F1070007FA00F00442AC
:107EE00014BF0122002280214046FEF781F90122C1
:107EF00020214046FEF77CF940214046FEF763F81A
:107F0000761C40EA4505082EE0DBE8B2BDE8F081CA
:107F100010B5CA4C002210212046FEF769F9062050
:107F2000FFF7CCFF2046BDE8104001221021FEF7EC
:107F30005FB9F8B5C14C002210212046FEF758F970
:107F40000520FFF7BBFF0125002600270022202186
:107F50002046FEF74DF9C7F1070005FA00F010F0D2
:107F6000A50014BF0122002280212046FEF740F91F
:107F7000012220212046FEF73BF940212046FEF752
:107F800022F87F1C40EA4606082FDFDBF007DBD42F
:107F90002046BDE8F840C8E710B4002261B10FF2F6
:107FA000AC2310F8014B5440E4B233F8144084EA97
:107FB000222292B2491EF4D110BC1046704710B56F
:107FC000012210219D48FEF713F99D4C01224FF428
:107FD00000612046FEF70CF92046BDE81040012262
:107FE0004FF48061FEF704B910B501294BD1012887
:107FF00005D0C0F09780032812D01CD310BD914C3F
:10800000207C30B94FF42020FFF790FE012020742F
:108010005DE08D48B0F80100800200F520204CE0C2
:108020008848007C00284ED08748B0F801008002C4
:1080300000F5202054E04FF47410FFF777FE4FF462
:108040007810FFF773FE80487E4CB0F80110217362
:10805000080A607306224FF4741104F10800FFF758
:108060009BFE06224FF4781104F10800FFF794FEFE
:1080700006224FF4781104F11400FFF7D8FE002017
:108080002074022023E0012804D04BD3032817D00A
:1080900029D310BD6B4C207C48B94FF48030FFF7DA
:1080A00045FE0120207400F04DF8002039E06648BC
:1080B000B0F80100800200F58030BDE8104054E0C7
:1080C0006048007C30B95F48012101740320BDE89D
:1080D000104037E05C48B0F80100800200F58030C5
:1080E000BDE810407AE04FF47C10FFF71FFE5648C1
:1080F000544CB0F801102171080A607106224FF447
:108100007C112046FFF748FE06224FF47C1104F153
:108110001400FFF78CFE00202074022000F012F8FB
:108120000120607410BD00B583B002218DF80010ED
:1081300000AA4549B1F80130B1F801105370090A9D
:1081400091700AE000B583B002218DF800108DF81F
:108150000200862103208DF801108DF80A0000A985
:108160000420FFF7A6FD03B000BD38B50446364D28
:108170004FF48061E81CFFF70FFFB5F80314884245
:1081800027D10620FFF7CFFF4FF480722146E81C6D
:10819000FFF702FE4FF4807204F5807105F20310C0
:1081A000FFF7FAFD4FF4807204F5007105F2032029
:1081B000FFF7F2FD4FF4807204F5407105F20330D1
:1081C000FFF7EAFD1F48017C022906D10021017456
:1081D00031BD1520BDE83240A5E731BD70B504467C
:1081E000194D4FF48061E81CFFF7D6FE154EB5F827
:1081F0000314708288421CD1FF224FF4806106F183
:108200001C0004F06DFC4FF48062214606F11C0056
:10821000FFF70DFE4FF48062E91C06F11C0004F02C
:108220007DFC30B9307C022804BF00203074062069
:1082300000E01520BDE8704075E700000000024036
:10824000000802401CAD0020C4E900200000C1C0AD
:1082500081C1400101C3C003800241C201C6C00602
:10826000800741C70005C1C581C4400401CCC00CD2
:10827000800D41CD000FC1CF81CE400E000AC1CA92
:1082800081CB400B01C9C009800841C801D8C01882
:10829000801941D9001BC1DB81DA401A001EC1DE02
:1082A00081DF401F01DDC01D801C41DC0014C1D4F2
:1082B00081D5401501D7C017801641D601D2C01212
:1082C000801341D30011C1D181D0401001F0C030E2
:1082D000803141F10033C1F381F240320036C1F602
:1082E00081F7403701F5C035803441F4003CC1FCD2
:1082F00081FD403D01FFC03F803E41FE01FAC03A92
:10830000803B41FB0039C1F981F840380028C1E8C1
:1083100081E9402901EBC02B802A41EA01EEC02E01
:10832000802F41EF002DC1ED81EC402C01E4C024F1
:10833000802541E50027C1E781E640260022C1E211
:1083400081E3402301E1C021802041E001A0C06021
:10835000806141A10063C1A381A240620066C1A601
:1083600081A7406701A5C065806441A4006CC1ACD1
:1083700081AD406D01AFC06F806E41AE01AAC06A91
:10838000806B41AB0069C1A981A840680078C1B881
:1083900081B9407901BBC07B807A41BA01BEC07E01
:1083A000807F41BF007DC1BD81BC407C01B4C074F1
:1083B000807541B50077C1B781B640760072C1B211
:1083C00081B3407301B1C071807041B00050C19061
:1083D000819140510193C053805241920196C05601
:1083E000805741970055C19581944054019CC05CD1
:1083F000805D419D005FC19F819E405E005AC19A91
:10840000819B405B0199C059805841980188C048C0
:1084100080494189004BC18B818A404A004EC18E00
:10842000818F404F018DC04D804C418C0044C184F0
:10843000818540450187C047804641860182C04210
:10844000804341830041C1818180404002464FF416
:10845000805131E010B5284C012204212046FDF75F
:10846000C7FE4FF47A70FFF74CFB2046BDE8104082
:1084700000220421FDF7BCBE38B5204C01224FF488
:1084800080412046FDF7B4FE1B4D01220421284601
:10849000FDF7AEFE4FF47A70FFF733FB00220421A4
:1084A0002846FDF7A5FE2046BDE83840FFE700223C
:1084B0004FF48041FDF79CBE1048FDF799BE10B502
:1084C0000E4C00224FF400412046FDF791FE64203F
:1084D000FFF717FB2046BDE8104001224FF4004192
:1084E000FDF786BE024602210548FDF781BE012147
:1084F0000348FDF768BD0000000C02400008024080
:108500000004024010B584B042F210700290A8201E
:10851000ADF804000020ADF80C00ADF8060001A98C
:108520001B4C204604F02CFB0121204604F0D8FB14
:1085300001220121204604F031FD1E208DF80000AB
:1085400000208DF801008DF8020001208DF8030055
:1085500000A803F007FE0F480021018041808180C0
:10856000C18004B00C484170017010BD4FF400612F
:108570000A48FDF7E5BD07480121018070474FF427
:1085800000610648FDF708BE0248002101807047DF
:108590000008004024F60020D2F400200018024019
:1085A00030B583B004460D460B2100A804F0EEFD63
:1085B00002208DF80000210A80208DF801008DF83E
:1085C000055000A8C1708470210C017103208DF842
:1085D0000A00204600F003F89A4800783EE09A49E5
:1085E00001224A7000F01F000022002320FA03FC41
:1085F0005FEACC7C17D513B942F0010213E0012BDE
:1086000008BF42F010020DD0022B08BF42F0020258
:1086100008D0032B08BF42F0040203D0042B02D180
:1086200042F00802D2B25B1C052BDFDB8A70704778
:1086300030B583B002258DF8005087258DF80150A4
:1086400000ADA87003208DF80A00E9702A718DF83A
:1086500005307C48069C00788DF8064018B900A9C2
:108660000420FFF726FB03B030BD2DE9F041764C26
:10867000207860B9A062002260680121FDF7B8FD92
:10868000A06801220221FDF7B3FD01221AE00128B2
:108690000BD1606801220121FDF7AAFDA06800222C
:1086A0000221FDF7A5FD01220CE002280ED1606831
:1086B00001220121FDF79CFDA06801220221FDF7A6
:1086C00097FD0022E0680421FDF792FD00250FF2DE
:1086D000841604F110074FF0060836F8021B57F80D
:1086E000040BFDF770FC401E8041C00F690051FA79
:1086F00080F5B8F10108F0D1A06A28B925B1207839
:10870000C00005FA00F0A062606B32283CBF401C3C
:108710006063207802285DD1A06AD0B94B4D2868EB
:1087200088B100202063E0622860A06BB0F5003FB4
:1087300005D10021FFF734FF0020A06303E00021F2
:108740000020FFF72DFF00202063E06228606070AA
:1087500040E0E16A81423AD1216B491C216303293F
:108760000ED13A4D616B2860322909D3B0F5003F34
:1087700003D00021FFF714FF00E0A0630020606336
:10878000E16A206BB1F5003F10D1642822D132217B
:108790002163A06A2D4D616B286032291AD3012113
:1087A000FFF7FEFE00206063A06313E0B0F5967F44
:1087B00010D1FA212163A06A244D616B286032290F
:1087C00008D30121FFF7ECFE0020606302E00021E6
:1087D0002163E0622078401CC0B20328A8BF0020BB
:1087E0002070BDE8F08110B584B040F6C41002904E
:1087F000A820ADF804000020ADF80C00ADF806008C
:1088000001A9134C204604F0BBF90121204604F0D5
:1088100067FA01220121204604F0C0FB32208DF8C6
:10882000000000208DF801008DF8020001208DF875
:10883000030000A803F096FC04480021016004B086
:1088400010BD00002CAD002040C8002050F60020D4
:10885000000C0040000400080010002000400080D0
:10886000F0B50446DFF89472DFF8246385B00D4656
:10887000BC421CBFDFF88802844213D0DFF88402B8
:1088800084421CBFDFF8800284420BD0DFF87C02F8
:1088900084421CBFDFF87802844203D0F1213046C5
:1088A000FDF705FE286818B1DFF8E812884203D307
:1088B000F2213046FDF7FBFDA888002818BFB0F56F
:1088C000805F03D0F3213046FDF7F1FDE8880028F2
:1088D00018BFB0F5805F09D0B0F5005F18BFB0F5E4
:1088E000405F03D0F4213046FDF7E1FD28890028E0
:1088F0001CBFB0F5806FB0F5C06F03D0F5213046D6
:10890000FDF7D5FD68894FF6F371084200D118B91B
:10891000F6213046FDF7CBFDA889F8B1B0F5807F90
:108920001CBFB0F5007FB0F5407F05D0F721304681
:10893000FDF7BDFDA88988B1BC421CBFDFF8C001AE
:1089400084420BD0DFF8BC0184421CBFDFF8C001B9
:10895000844203D0FC213046FDF7A9FD208A4CF665
:10896000FF710840E988084320824EF6F311A08980
:108970000840A98808432989084369890843A081D8
:108980004FF6FF41A08A0840A9890843A08200A8A9
:1089900003F089FABC421BBFDFF8740184420398DC
:1089A0000298296819225043A28912044CBF490039
:1089B0008900B0FBF1F16420B1FBF0F00001020985
:1089C000642303FB1211A289120406D5C9003231B7
:1089D000B1FBF3F101F0070105E009013231B1FB10
:1089E000F3F101F00F010843208105B0F0BD38B567
:1089F0000446DFF808010D4684421CBFDFF8000181
:108A0000844215D0DFF8FC0084421CBFDFF8F80078
:108A100084420DD0DFF8F40084421CBFDFF8F00080
:108A2000844205D040F2A1110FF26030FDF73FFD06
:108A30005DB1012D05D00FF254304FF4D171FDF727
:108A400036FDA08940F4005003E0A0894DF6FF7187
:108A50000840A08131BD38B50446DFF8A0000D46BE
:108A600084421CBFDFF89800844215D0DFF89400E0
:108A700084421CBFDFF8900084420DD0DFF88C00E8
:108A800084421CBFDFF88800844205D040F22321D5
:108A90000FF2F820FDF70BFDB5F5007F05DB0FF2B7
:108AA000EC204FF40971FDF702FDE805C00DA08030
:108AB00031BD10B50446DFF8440084421CBFDFF826
:108AC0004000844215D0DFF83C0084421CBFDFF830
:108AD000380084420DD0DFF8340084421CBFDFF838
:108AE0003000844205D040F233210FF2A020FDF780
:108AF000DEFCA088C005C00D10BD000000100140C4
:108B00000044004000480040004C0040005000403D
:108B10000014014070B50446DFF858020D461646B1
:108B200084421CBFDFF85002844215D0DFF84C02AB
:108B300084421CBFDFF8480284420DD0DFF84402B3
:108B400084421CBFDFF84002844205D040F241411C
:108B50000FF23820FDF7ABFC4FF63F70054200D115
:108B60002DB940F242410FF22420FDF7A0FC56B18E
:108B7000012E05D00FF2142040F24341FDF797FC7F
:108B8000A08A284301E0A08AA843A08270BD00000B
:108B90008C8D0008E1707200F8B50546DFF8D471DD
:108BA0000E461446BD421CBFDFF8CC01854215D0ED
:108BB000DFF8C80185421CBFDFF8C40185420DD033
:108BC000DFF8C00185421CBFDFF8BC01854205D03B
:108BD00040F2C3410FF2B410FDF769FC282E1CBF10
:108BE00040F2277086421BD040F2266086421CBFAE
:108BF00040F22550864213D040F2244086421CBFEA
:108C000040F6460086420BD040F66A10864218BFF6
:108C1000602E05D040F2C4410FF27010FDF747FC02
:108C2000002C18BF012C05D00FF2601040F2C54196
:108C3000FDF73DFC40F66A10864210D1BD421CBFD4
:108C40004D4885420BD04D4885421CBF4E48854259
:108C500005D040F2CA410FF23410FDF728FC30066F
:108C6000012106F01F02400F9140012808BF05F1C5
:108C70000C0005D002280CBF05F1100005F114000E
:108C80000268002C14BF114322EA01010160F1BD0A
:108C9000F8B504460026374F0D46BC421CBF364887
:108CA000844211D0354884421CBF354884420BD0E1
:108CB000344884421CBF3448844205D040F25651A7
:108CC0000FF2C800FDF7F3FB282D1CBF40F22771FF
:108CD0008D4234D040F226618D421CBF40F22551B6
:108CE0008D422CD040F224418D421CBF40F64601FB
:108CF0008D4224D040F66A118D420FD0B5F5587FD1
:108D00001CBF40F225318D4219D0B5F5187F18BF30
:108D1000B5F5B07F13D040F257510CE0BC421CBFF8
:108D2000154884420BD0154884421CBF1648844223
:108D300005D040F25C510FF25400FDF7B8FB280655
:108D4000400F012105F01F0201FA02F2012808BFBD
:108D5000A08903D002280CBF208AA08A10402A0ACA
:108D600091402288114000281CBF0029012630466E
:108D7000F2BD0000001001400044004000480040E7
:108D8000004C00400050004000140140433A5C5445
:108D90006F6F6C735C574C39465C574C3946204DAD
:108DA0006F6E69746F72202D2053544D33325F41C2
:108DB00050505C4C69627261726965735C53544DCA
:108DC0003332463478785F537464506572697068E2
:108DD0005F4472697665725C7372635C73746D3341
:108DE00032663478785F75736172742E63000000A8
:108DF00080B5DFF8C415884214D0DFF8C01588426A
:108E000004D0AB21DFF8B805FDF751FB01214FF08D
:108E1000806003F016F900214FF08060BDE8044047
:108E200003F00FB901214FF0007003F00AF900219F
:108E30004FF00070F2E7F8B504460026DFF8780539
:108E4000DFF87C750D4684421CBFDFF87005844254
:108E500003D0CB213846FDF72AFBA879002818BF9C
:108E6000012803D0CC213846FDF721FBE879002802
:108E700018BF012803D0CD213846FDF718FB287A0A
:108E8000002818BF012803D0CE213846FDF70FFB7C
:108E9000687A002818BF012803D0CF213846FDF793
:108EA00006FBA87A002818BF012803D0D021384635
:108EB000FDF7FDFAE87A002818BF012803D0D12178
:108EC0003846FDF7F4FAA878002818BF012807D023
:108ED000022818BF032803D0D2213846FDF7E7FA4D
:108EE000E878002818BF012807D0022818BF0328F7
:108EF00003D0D3213846FDF7DAFA2879102803DBAE
:108F0000D4213846FDF7D3FA6879082803DBD52148
:108F10003846FDF7CCFA288810B1B0F5806F03DD34
:108F2000D6213846FDF7C3FA206820F00200206001
:108F3000206840F0010020604FF6FF70014600E01D
:108F4000491E6268D20701D40029F9D16168C907B6
:108F500054D5A979012921680CBF41F0800121F085
:108F600080012160E979012921680CBF41F04001AD
:108F700021F040012160297A012921680CBF41F0CC
:108F8000200121F020012160697A012921680CBFAC
:108F900041F0100121F010012160A97A0129216816
:108FA0000CBF41F0080121F008012160E97A012994
:108FB00021680CBF41F0040121F004012160EA782E
:108FC000A978120642EA81712A7941EA02416A7956
:108FD00041EA02512A88521E1143E1612168490881
:108FE0004900216000E0401E6168C90701D50028E2
:108FF000F9D1606800F0010080F001063046F2BD52
:1090000070B50446A07A1C2805DB40F253110FF21C
:10901000C030FDF74CFAE07A002818BF012805D0CF
:109020004FF4AA710FF2A830FDF741FA207B002817
:1090300018BF012805D040F255110FF29430FDF70A
:1090400036FA2089002818BF012805D04FF4AB71EB
:109050000FF27C30FDF72BFA607B002818BF012847
:1090600005D040F257110FF26830FDF720FAA17ACF
:1090700001208840DFF84C130A6842F001020A60C0
:10908000C243CB691340CB61237B9BB9CB681340B0
:10909000CB60E5886688DFF8303346EA0545A67A76
:1090A00043F83650A57A268803EBC503A58846EA1F
:1090B00005455D60237B012B13D1CB680343CB6057
:1090C00025886688DFF8003346EA0545A67A43F826
:1090D0003650A57AE68803EBC503A58846EA054520
:1090E0005D60E37A002B4B680CBF134003434B6079
:1090F000238913B94B691A4003E0012B02D14A6955
:1091000002434A61627B012A02D1CA691043C861E5
:10911000086840084000086070BD00218171C1717D
:10912000017241728172C1728170C170032101713B
:109130000221417101210180704770B50546DFF8B9
:1091400078020C4685421CBFDFF88002854205D0BC
:1091500040F246210FF27820FDF7A9F9207A002885
:1091600018BF042805D040F247210FF26420FDF714
:109170009EF9607A002818BF022805D04FF41271BA
:109180000FF24C20FDF793F9A07A092805DB40F295
:1091900049210FF23C20FDF78AF9A86840011BD550
:1091A000002605EB0615D5F8800100F00100C5F892
:1091B0008001207AE0B92068B0F5006F05D340F255
:1091C00063210FF20C20FDF772F9D5F880012168B8
:1091D000627A42EA41511DE0A868000148BF0126B9
:1091E000DFD4A868C00048BF0226DAD404263EE0D7
:1091F0006068B0F1005F05D340F269210FF2D01032
:10920000FDF755F9D5F880016168227A42EAC1017B
:10921000627A11430843C5F88001A07A00F00F007C
:10922000A07205F5C07041680909090141604168F3
:10923000A27A11434160627BA17B120442EA016180
:10924000227B41EA0221E27A11438160627CA17CA7
:10925000120442EA0161227C41EA0221E27B1143CD
:10926000C160D5F8800140F00100C5F880013046AA
:1092700070BDF8B50446DFF840010D46164684423D
:109280001CBFDFF84801844205D040F2F2210FF202
:109290004010FDF70CF92F0018BF012D05D00FF27B
:1092A000301040F2F321FDF702F904EB0510D0F87D
:1092B000B0113172317A4907D0F8B01159BF490D58
:1092C0003160C9087160D0F8B01101F0020171720B
:1092D00000F5D870416801F00F01B1724168090AC8
:1092E000F1748168F1728168090A31738168090C2F
:1092F00071738168090EB173C168F173C168090A9D
:109300003174C168090C7174C068000EB07425B95D
:10931000E06840F02000E060F1BD206940F02000EE
:109320002061F1BD70B5044623480D4616468442BF
:109330001CBFDFF89800844205D04FF4A2610FF201
:109340009000FDF7B4F8012D18BF022D24D0042D94
:1093500018BF082D20D0102D18BF202D1CD0402D57
:1093600018BFB5F5807F17D0B5F5007F18BFB5F5EC
:10937000806F11D0B5F5006F18BFB5F5004F0BD059
:10938000B5F5803F18BFB5F5003F05D00FF240009E
:1093900040F21151FDF78BF856B1012E05D040F285
:1093A00012510FF22C00FDF782F86069284301E0AA
:1093B0006069A843606170BD0064004000680040BF
:1093C000D0930008006600404066004000680040FE
:1093D000433A5C546F6F6C735C574C39465C574C26
:1093E0003946204D6F6E69746F72202D2053544D95
:1093F00033325F4150505C4C6962726172696573CF
:109400005C53544D3332463478785F5374645065FE
:10941000726970685F4472697665725C7372635CCE
:1094200073746D3332663478785F63616E2E6300D7
:10943000F8B57748774D007A4FF4800418B1286862
:1094400040F4E0002860744928680A68904238D0E7
:1094500008601726714F2868204214BF012200229D
:109460004FF400413846FCF7C3FE01224FF480411F
:109470003846FCF7BDFE0120FEF743FB00224FF407
:1094800080413846FCF7B4FE6408761EE3D1012221
:109490004FF400513846FCF7ABFE0120FEF731FBDC
:1094A00000224FF400513846FCF7A2FE0120FEF7DF
:1094B00028FB3846BDE8F84001224FF40051FCF784
:1094C00097BEF1BD52480021C160017801F003034D
:1094D0005A1E9241D243D20FC260C1F3810202B13F
:1094E0000222C368D218C260C1F3011303B104237E
:1094F0009A18C260890918BF082189184278C1608A
:1095000003231A4214BF102300235918C160C2F369
:10951000810303B120235918C160C2F3011303B1C1
:1095200040235918C160920918BF802251188278CF
:10953000C16003231A4214BF4FF4807300235918EB
:10954000C160C2F381030BB14FF400735918C160BD
:10955000C2F301130BB14FF480635918C160920933
:1095600018BF4FF400625118C278C16003231A4239
:1095700014BF4FF4805300235918C160C2F3810314
:109580000BB14FF400535918C160C2F301130BB172
:109590004FF480435918C160920918BF4FF400423C
:1095A00051180279C16003231A4214BF4FF480336B
:1095B00000235918C160C2F381030BB14FF400338B
:1095C0005918C160C2F301130BB14FF4802359182D
:1095D000104BC1609209426319600272704710B566
:1095E0000E4C01224FF480512046FCF701FE0A2068
:1095F000FEF787FA00224FF480512046FCF7F8FD71
:1096000004486FF07F410160BDE8104010E70000A2
:10961000D4F4002060F5002054F60020000402403D
:1096200002464FF400416948FCF7E2BD02461021B2
:109630006748FCF7DDBD10B504462246802164482A
:10964000FCF7D6FD6348047010BD0FF29C1261490F
:1096500032F8102048704A80104610B586B070214C
:10966000ADF8001002900121ADF802100421ADF810
:1096700004100221ADF80C100021ADF80E104FF4CB
:109680008071ADF810100021ADF8121000A9524CF5
:10969000204603F07BFB0121204603F021FB012142
:1096A000204603F057FC06B010BD30B589B010203D
:1096B000ADF81400FA210020ADF81600464C4748DA
:1096C0000068B0FBF1F0401E80B2069005A90020B2
:1096D000ADF81C008DF81E00204603F051FA7020F2
:1096E000ADF8000041F27F350120ADF8020002958F
:1096F0000420ADF8040000A90220ADF80C00002001
:10970000ADF80E004FF48070ADF810000020ADF8F9
:109710001200204603F03AFB0121204603F0E0FA54
:109720000121204603F016FC4FF47A70FEF7E9F9A8
:10973000284806214170458009B030BD38B5284C15
:10974000234D01280DD100224FF400712846FCF76B
:109750004FFD0A20FEF7D5F901224FF48071204613
:109760000CE000224FF480712046FCF741FD0A20F6
:10977000FEF7C7F901224FF400712846BDE83840D2
:10978000FCF736BD17480078FDF75BBB80B5FF28B6
:1097900008BF002003D00121FDF74BFB0120BDE8ED
:1097A0000240CBE780B540F6B830FEF7AAF90020BA
:1097B000FFF7C4FFFFF779FF002280210448FCF780
:1097C00017FD04480021017001BD0000001802408F
:1097D000000802404CF6002000040140A0C8002010
:1097E00000000240C4C80020FE403E377E2DFE2609
:1097F0007F20FF197F13FF0C00000000F8B5344FE5
:10980000384603F0C6FC0446381D03F0C2FC05468A
:1098100007F1080003F0BDFC064607F10C0003F059
:10982000B8FC23782B492C4A002B40D12B6802FB33
:1098300003132B60082702FB03132B6002FB0313A7
:109840002B6002FB03132B6002FB03132B6002FB54
:1098500003132B6002FB03132B6002FB03132B602B
:109860000346D5F800C002FB0C1CC5F800C043F845
:1098700004CB7F1ED5F800C002FB0C1CC5F800C04D
:1098800043F804CBD5F800C002FB0C1CC5F800C09F
:1098900043F804CBD5F800C002FB0C1CC5F800C08F
:1098A00043F804CBDDD1C36F3360012323702B68F1
:1098B00002FB03112960317801F01F0150F82120CB
:1098C00032602A6840F82120306880008008F2BDAC
:1098D00064C700205FF36E3C0D66190030B401468A
:1098E00000200023724A01F001049D56AC40204341
:1098F000C9035B1C090C01F001049D56AC402043D8
:1099000049085B1C01F001049D56AC402043490806
:109910005B1C01F001049D56AC40204349085B1CD0
:10992000102BE0DB30BC704710B582B00C46FFF75F
:10993000D5FF604000905F48BDF8001001F00F01B6
:1099400030F82110ADF800109DF8021001F00F0161
:1099500000EB81004088ADF80200BDF800104840DF
:1099600016BD81B00090C1F11000BDF8002002FAD0
:1099700001F302411A43ADF80020BDF8022042FA7B
:1099800001F102FA00F00843ADF80200009801B0BE
:1099900070472DE9F84304460D469146CDB16D1E42
:1099A0002788B4F80280002631464846FFF7D9FFE1
:1099B00001464046FFF7B8FF784080B247468046F0
:1099C000761C082EF0DB24F8027B24F8028B002D95
:1099D000E5D10020BDE8F2832DE9F04780460E4630
:1099E0009246DEB1761EB8F80050B8F8029008270B
:1099F0007F1E39465046FFF7B4FF2C460146A0B201
:109A0000FFF792FF80EA090085B2A146012FEFDA45
:109A100028F8025B28F8029B002EE3D10020BDE865
:109A2000F08741EA00402449086070472DE9F04181
:109A30000F4614463D46AE1017F0030818BF761CBB
:109A40003A460146204603F00FF8B8F1000F04D063
:109A5000381D07F00301471A3FB20020791B012986
:109A600006DB421900231355401C00B28842F8DB84
:109A70001148026831462046FFF78BFF78B2BDE8F7
:109A8000F08138B50C46154603210C4202D04FF048
:109A9000FF3032BD22460146284602F0E5FF064867
:109AA0000268A1102846FFF797FF60B232BD0000A0
:109AB00094DC0008B8DB0008C0C8002030B5DFF82F
:109AC00004478BB02046FFF793F9DFF8FC56284691
:109AD000FFF78EF901A8FFF720FB00208DF80A00A0
