:020000040800F2
:1040000060FE0020B5E200082DBD00082FBD0008AD
:1040100031BD000833BD000835BD000800000000B8
:1040200000000000000000000000000037BD000894
:1040300039BD0008000000003BBD00083DBD000880
:10404000F5E20008F9E20008FDE2000801E30008DB
:1040500005E3000809E300080DE3000811E3000888
:1040600015E3000819E300081DE3000821E3000838
:1040700025E3000829E300082DE3000831E30008E8
:1040800035E3000839E300083DE3000841E3000898
:10409000D1BD000849E300084DE3000851E30008E2
:1040A00055E3000859E300085DE3000861E30008F8
:1040B00065E3000869E3000803BF000871E3000836
:1040C00075E3000879E300087DE3000881E3000858
:1040D00085E3000889E300086DBF000891E300084C
:1040E00095E3000899E300089DE30008A1E30008B8
:1040F000A5E30008A9E30008ADE30008B1E3000868
:10410000B5E30008B9E3000859BF0008C1E300089F
:10411000CBBF0008C9E30008CDE30008D1E30008E5
:10412000D5E30008D9E30008DDE30008E1E3000877
:10413000E5E30008E9E30008EDE30008F1E3000827
:10414000F5E30008F9E30008FDE3000801E40008D6
:1041500005E4000809E400080DE4000811E4000883
:1041600015E4000819E400081DE4000821E4000833
:1041700025E4000829E400082DE4000831E40008E3
:1041800035E4000839E400081CB501F077FE0F2380
:104190000F220221032000F00DFA1F2001900023BE
:1041A0002D2000901A461146032001F04DFD1F20DE
:1041B000019000232D2000901A460121032001F0D8
:1041C00043FD1F20019000232D2000901A4602215C
:1041D000032001F039FD1F20019000232D200090C5
:1041E00003211A46084601F02FFD1F2000900022EF
:1041F0002D231146032001F0A6FDF02310220221F9
:10420000032000F0D7F9502000901022DFF8BC4ABC
:1042100004F108030221032000F06DFA20798009DF
:1042200028D12020009004F15803602202210320AD
:1042300000F061FA2020009004F17803802202212E
:10424000032000F058FA2020009004F17803A02207
:104250000221032000F04FFA2020009004F178039F
:10426000C0220221032000F046FA2020009004F131
:10427000780324E02020009004F1980360220221BA
:10428000032000F038FA20200090B8342346802222
:104290000221032000F02FFA202000902346A022C4
:1042A0000221032000F027FA202000902346C0229C
:1042B0000221032000F01FFA202000902346E02274
:1042C0000221032000F017FA13BD2DE9F041DFF8B9
:1042D000FC49DFF8FC89A0700E46207940F004000C
:1042E000207115464FF48051404601F055FFDFF82C
:1042F000E4794FF48041384601F022FF4FF4005139
:10430000384601F01DFF4FF40051404601F044FFD4
:104310004FF48061384601F03FFF4FF4805138463A
:1043200001F00EFF002000F0A0FB384601F0DAFE9D
:1043300000F47F4046EA0001384601F0B8FF4FF430
:104340008051404601F0FCFE4FF48051404601F0A0
:1043500023FF002000F089FB384601F0C3FE00F483
:104360007F4045EA0001384601F0A1FF4FF40051BB
:10437000384601F011FF4FF40051384601F0E0FEDD
:104380004FF48051404601F007FF4FF4804138461A
:1043900001F0D6FE4FF40051384601F0D1FE4FF443
:1043A0000051404601F0F8FE4FF48061384601F0BC
:1043B000C7FE4FF48051384601F0C2FE002000F0E5
:1043C00054FB384601F08EFE40F0FF01384601F004
:1043D0006EFF207900F0FB002071BDE8F0812DE92F
:1043E000F041DFF8E858DFF8E868A8700F46287950
:1043F00040F00400287114464FF48051304601F01B
:10440000CBFEDFF8D0884FF48041404601F098FEA3
:104410004FF40051404601F093FE4FF400513046F6
:1044200001F0BAFE4FF48061404601F0B5FE4FF452
:104430008051404601F084FE002000F016FB40460B
:1044400001F050FE00F47F4047EA0001404601F0D1
:104450002EFF4FF48051304601F072FE4FF4805130
:10446000304601F099FE2778002000F0FEFA404621
:1044700001F038FE00F47F4047EA0001404601F0B9
:1044800016FF4FF40051404601F086FE4FF40051F4
:10449000404601F055FE6778002000F0E6FA4046FD
:1044A00001F020FE00F47F4047EA0001404601F0A1
:1044B000FEFE4FF40051404601F06EFE4FF40051F5
:1044C000404601F03DFEA778002000F0CEFA4046BD
:1044D00001F008FE00F47F4047EA0001404601F089
:1044E000E6FE4FF40051404601F056FE4FF40051F5
:1044F000404601F025FEE778002000F0B6FA40467D
:1045000001F0F0FD00F47F4047EA0001404601F071
:10451000CEFE4FF40051404601F03EFE4FF40051F4
:10452000404601F00DFE2479002000F09EFA40463E
:1045300001F0D8FD00F47F4044EA0001404601F05C
:10454000B6FE4FF40051404601F026FE4FF40051F4
:10455000404601F0F5FD4FF48051304601F01CFE5D
:104560004FF48041404601F0EBFD4FF400514046CE
:1045700001F0E6FD4FF40051304601F00DFE4FF41E
:104580008061404601F0DCFD4FF48051404601F06F
:10459000D7FD002000F069FA404601F0A3FD40F08D
:1045A000FF01404601F083FE287900F0FB002871EE
:1045B000BDE8F0812DE9F843DFF81047DFF81087F8
:1045C000A0700F46207940F00400207191461E46ED
:1045D0004FF48051404601F0DFFDDFF8F8564FF40C
:1045E0008041284601F0ACFD4FF40051284601F00F
:1045F000A7FD4FF40051404601F0CEFD2FB94FF416
:104600008051284601F0C8FD13E0012F0AD14FF474
:104610008051284601F0C0FD4FF48061284601F02A
:104620008FFD0BE0022F09D14FF48051284601F095
:1046300087FD4FF48061284601F0AEFD002000F0B8
:1046400014FA284601F04EFD00F47F4049EA0001CB
:10465000284601F02CFE4FF48051404601F070FDD9
:104660004FF48051404601F097FD002000F0FDF925
:10467000284601F037FD00F47F4046EA0001284655
:1046800001F015FE4FF40051284601F085FD4FF46E
:104690000051284601F054FD4FF48051404601F08E
:1046A0007BFD4FF48041284601F04AFD4FF4005154
:1046B000284601F045FD4FF40051404601F06CFDE5
:1046C0004FF48061284601F03BFD4FF480512846AD
:1046D00001F036FD002000F0C8F9284601F002FD87
:1046E00040F0FF01284601F0E2FD207900F0FB00D8
:1046F0002071BDE8F1832DE9F843DFF8D055DFF8EC
:10470000D085A8700F46287940F00400287114461F
:104710001E464FF48051404601F03EFDDFF8B4954F
:104720004FF48041484601F00BFD4FF400514846DC
:1047300001F006FD4FF40051404601F02DFD2FB968
:104740004FF48051484601F027FD13E0012F0AD1B4
:104750004FF48051484601F01FFD4FF480614846F8
:1047600001F0EEFC0BE0022F09D14FF480514846D6
:1047700001F0E6FC4FF48061484601F00DFD002099
:1047800000F073F9484601F0ADFC00F47F4044EAC4
:104790000001484601F08BFD4FF48051404601F086
:1047A000CFFC4FF48051404601F0F6FC089CA4B2C7
:1047B000D4B116F8017B002000F057F9484601F00B
:1047C00091FC00F47F4047EA0001484601F06FFD8C
:1047D0004FF40051484601F0DFFC4FF400514846C9
:1047E00001F0AEFC641EE4D14FF48051404601F06C
:1047F000D3FC4FF48041484601F0A2FC4FF4005135
:10480000484601F09DFC4FF40051404601F0C4FCC5
:104810004FF48061484601F093FC4FF480514846C4
:1048200001F08EFC002000F020F9484601F05AFC0F
:1048300040F0FF01484601F03AFDFFE7287900F01B
:10484000FB002871BDE8F1832DE9F041DFF87C44DD
:10485000DFF87C74A0700E46207940F004002071CF
:1048600015464FF48051384601F096FCDFF8648419
:104870004FF48041404601F063FC4FF40051404644
:1048800001F05EFC4FF40051384601F085FC2EB972
:104890004FF48051404601F07FFC13E0012E0AD115
:1048A0004FF48051404601F077FC4FF48061404660
:1048B00001F046FC0BE0022E09D14FF48051404636
:1048C00001F03EFC4FF48061404601F065FC0020A1
:1048D00000F0CBF8404601F005FC00F47F4045EACB
:1048E0000001404601F0E3FC4FF48051384601F0EE
:1048F00027FC4FF48051384601F04EFC4FF48041C4
:10490000404601F049FC012000F0AFF8404601F0BC
:10491000BBFB05464FF48041404601F011FC4FF4CB
:104920008051384601F038FC4FF48041404601F098
:1049300007FC4FF40051404601F002FC4FF40051D7
:10494000384601F029FC4FF48061404601F0F8FB45
:104950004FF48051404601F0F3FB207900F0FB005A
:104960002071E8B2BDE8F081F8B5DFF86043DFF808
:104970006053A0704FF48051207940F00400207102
:10498000284601F009FCDFF84C634FF480413046C3
:1049900001F0D6FB4FF40051304601F0D1FB4FF44B
:1049A0000051284601F0F8FB4FF48061304601F0D9
:1049B000F3FB4FF48051304601F0C2FB002000F0C1
:1049C00054F8304601F08EFB00F47F4040F00A01BD
:1049D000304601F06CFC4FF48051284601F0B0FBEA
:1049E0004FF48051284601F0D7FB002000F03DF83D
:1049F000304601F077FB40F0FF01304601F057FCF4
:104A00004FF48041304601F0C7FB012000F02DF843
:104A1000304601F039FB07464FF48041304601F043
:104A20008FFB4FF48051284601F0B6FB4FF48041D4
:104A3000304601F085FB4FF40051304601F080FB19
:104A40004FF40051284601F0A7FB4FF48061304637
:104A500001F076FB4FF48051304601F071FB207974
:104A600000F0FB002071F8B2F2BD00B583B018B9B8
:104A7000FF200090012004E0012811D1FF200090C8
:104A800000208DF8040000A902208DF80500002008
:104A90008DF8060001208DF807008E4801F0F2F92C
:104AA00003B000BD1CB50020009000238A4C019487
:104AB00064224121032000F0B5FF0020009003464E
:104AC000019464221421032000F0ACFF0020009028
:104AD0000346019464226E21032000F0A3FF00200E
:104AE0000090034601942D221421032000F09AFF28
:104AF00000200090034601942D226E21032000F037
:104B000091FF0020009003460194A5221421032068
:104B100000F088FF0020009003460194A5226E213A
:104B2000032000F07FFF13BD2DE9FC410746002262
:104B300000210320FFF788FE0646102200210320F3
:104B4000FFF782FE0446202200210320FFF77CFEAF
:104B50000546302200210320FFF776FE8046FFF74E
:104B6000A1FF57B9802E16D1DFF8A00E01900023C7
:104B70000020009064224121A3E0012F02D1802C6B
:104B800009D1F1E7022F01D1802DF9E7032F0AD1D6
:104B9000B8F1800FE8D05048019000230020009029
:104BA000642241218DE0042F17D1802E14BF4A4882
:104BB000DFF8580E01900023002000906422142199
:104BC000032000F02FFF802C2BD1DFF8400E019046
:104BD000002300200090642272E0052F0FD1802E68
:104BE0002AD1DFF8280E01900023002000906422D3
:104BF0001421032000F016FF802D12D1E5E7062FC7
:104C000016D1802E23D1DFF8040E0190002300205E
:104C1000009064221421032000F004FFB8F1800FFB
:104C2000D3D02D480190002300200090642247E05B
:104C3000072F03D1802CD4D02748D4E7082F02D1E6
:104C4000802C04D1DFE7092F03D1802DDBD022484F
:104C5000DBE70A2F38D1802E14BF1F48DFF8AC0DD8
:104C600001900023002000902D221421032000F049
:104C7000D9FE802C14BF1848DFF8900D0190002356
:104C8000002000902D226E21032000F0CBFE802D0D
:104C900014BF1148DFF8740D01900023002000902C
:104CA000A5221421032000F0BDFEB8F1800F14BF2F
:104CB0000948DFF8580D0190002300200090A5223C
:104CC0006E21032000F0AEFEBDE8F3818CC600200B
:104CD000000C024000180240EC5E002000B583B0DA
:104CE000002861D1A1B11F20019000222D20009049
:104CF00000231146032000F0A7FFDFF8140D0190F8
:104D00000522002000900346A221032000F08AFE25
:104D10000123802200210320FFF74CFCFF23812286
:104D200000210320FFF746FCFF23822200210320FD
:104D3000FFF740FCFF23832200210320FFF73AFC0A
:104D4000FF23842200210320FFF734FC802310225C
:104D500001210320FFF72EFC01231822012103204B
:104D6000FFF728FC0223202201210320FFF722FC69
:104D70000323282201211846FFF71CFC00233022C0
:104D800001210320FFF716FCB0233122012103206B
:104D9000FFF710FC0023322201210320FFF70AFC59
:104DA0007823332200F010BE012861D1A1B11F2069
:104DB000019000222D20009000231146032000F0D6
:104DC00043FFDFF8500C01900522002000900346BD
:104DD000A221032000F026FE41239022002103207F
:104DE000FFF7E8FBFF23912200210320FFF7E2FBFE
:104DF000FF23922200210320FFF7DCFBFF239322F5
:104E000000210320FFF7D6FBFF239422002103207B
:104E1000FFF7D0FB0023102201210320FFF7CAFB7C
:104E20008123182201210320FFF7C4FB0223202243
:104E300001210320FFF7BEFB0323282201210320C9
:104E4000FFF7B8FB0023342201210320FFF7B2FB58
:104E5000B023352201210320FFF7ACFB00233622CB
:104E600001210320FFF7A6FB7823372200F0ACBD19
:104E7000022861D1A1B11F20019000222D200090B5
:104E800000231146032000F0DFFEDFF88C0B0190B9
:104E90000522002000900346A221032000F0C2FD5D
:104EA0008123A02200210320FFF784FBFF23A122FE
:104EB00000210320FFF77EFBFF23A2220021032015
:104EC000FFF778FBFF23A32200210320FFF772FBEB
:104ED000FF23A42200210320FFF76CFB00231022F4
:104EE00001210320FFF766FB012318220121032083
:104EF000FFF760FB8223202201210320FFF75AFBEA
:104F00000323282201211846FFF754FB00233822EF
:104F100001210320FFF74EFBB0233922012103209A
:104F2000FFF748FB00233A2201210320FFF742FB51
:104F300078233B2200F048BD03285AD1A1B11F209D
:104F4000019000222D20009000231146032000F044
:104F50007BFEDFF8C80A019005220020009003467E
:104F6000A221032000F05EFDC123B0220021032016
:104F7000FFF720FBFF23B12200210320FFF71AFBDC
:104F8000FF23B22200210320FFF714FBFF23B322EB
:104F900000210320FFF70EFBFF23B4220021032092
:104FA000FFF708FB0023102201210320FFF702FB7B
:104FB0000123182201210320FFF7FCFA02232022FB
:104FC00001210320FFF7F6FA832328220121032081
:104FD000FFF7F0FA00233C2201210320FFF7EAFA51
:104FE000B0233D2201210320FFF7E4FA002300F063
:104FF000E4BC042840F0A380F9B11F2001900022F6
:105000002D20009000231146032000F01DFEDFF844
:10501000000A019005220020009003464C21032045
:1050200000F000FDDFF8EC0901900522002000905F
:105030000346A221032000F0F5FC01238022002179
:105040000320FFF7B7FAFF23812200210320FFF797
:10505000B1FAFF23822200210320FFF7ABFA7F235E
:10506000832200210320FFF7A5FAFF2384220021D9
:105070000320FFF79FFA4123902200210320FFF72E
:1050800099FAFF23912200210320FFF793FAFF23CF
:10509000922200210320FFF78DFA7F239322002123
:1050A0000320FFF787FAFF23942200210320FFF754
:1050B00081FA8023102201210320FFF77BFA81234C
:1050C000182201210320FFF775FA02232022012173
:1050D0000320FFF76FFA0323282201210320FFF7A3
:1050E00069FA0023302201210320FFF763FA5823D5
:1050F000312201210320FFF75DFA00233222012132
:105100000320FFF757FA7823332201210320FFF70A
:1051100051FA5823342201210320FFF74BFAB02320
:10512000352201210320FFF745FA00233622012111
:105130000320FFF73FFA7823372200F045BC05280B
:1051400040F0A280F9B11F20019000222D20009094
:1051500000231146032000F077FDDFF8B40801902A
:1051600005220020009003464C21032000F05AFC49
:10517000DFF8A40801900522002000900346A22138
:10518000032000F04FFC0123802200210320FFF7C1
:1051900011FAFF23812200210320FFF70BFAFF23DE
:1051A000822200210320FFF705FA7F2383220021BA
:1051B0000320FFF7FFF9FF23842200210320FFF7DC
:1051C000F9F98123A02200210320FFF7F3F9FF233F
:1051D000A12200210320FFF7EDF9FF23A2220021E5
:1051E0000320FFF7E7F9FF23A32200210320FFF7A5
:1051F000E1F9FF23A42200210320FFF7DBF980233C
:10520000102201210320FFF7D5F9012318220121E3
:105210000320FFF7CFF98223202201210320FFF78B
:10522000C9F90323282201211846FFF7C3F90023F7
:10523000302201210320FFF7BDF95823312201213B
:105240000320FFF7B7F90023322201210320FFF7E3
:10525000B1F97823332201210320FFF7ABF958235A
:10526000382201210320FFF7A5F9B02339220121BB
:105270000320FFF79FF900233A2201210320FFF7C3
:1052800099F978233B229FE3062840F09B80F9B1EF
:105290001F20019000222D200090002311460320A2
:1052A00000F0D2FCDFF86807019005220020009092
:1052B00003464C21032000F0B5FBDFF860070190A6
:1052C0000522002000900346A221032000F0AAFB43
:1052D0000123802200210320FFF76CF9FF238122A4
:1052E00000210320FFF766F9FF238222002103201B
:1052F000FFF760F97F23832200210320FFF75AF98B
:10530000FF23842200210320FFF754F9C123B02298
:1053100000210320FFF74EF9FF23B12200210320D3
:10532000FFF748F9FF23B22200210320FFF742F9DB
:10533000FF23B32200210320FFF73CF9FF23B4220F
:1053400000210320FFF736F98023102201210320DA
:10535000FFF730F90123182201210320FFF72AF972
:105360000223202201210320FFF724F9832328228E
:1053700001210320FFF71EF9002330220121032021
:10538000FFF718F95823312201210320FFF712F902
:105390000023322201210320FFF70CF97823332266
:1053A00001210320FFF706F958233C2201210320A5
:1053B000FFF700F9B0233D2201210320FFF7FAF89F
:1053C0000023FAE2072840F0A280F9B11F200190E3
:1053D00000222D20009000231146032000F034FC11
:1053E000DFF83006019005220020009003464C2192
:1053F000032000F017FBDFF82006019005220020B3
:1054000000900346A221032000F00CFB41239022D0
:1054100000210320FFF7CEF8FF2391220021032073
:10542000FFF7C8F8FF23922200210320FFF7C2F8FC
:105430007F23932200210320FFF7BCF8FF2394224F
:1054400000210320FFF7B6F88123A02200210320CA
:10545000FFF7B0F8FF23A12200210320FFF7AAF8ED
:10546000FF23A22200210320FFF7A4F87F23A32219
:1054700000210320FFF79EF8FF23A4220021032030
:10548000FFF798F80023102201210320FFF792F87C
:105490008123182201210320FFF78CF88223202288
:1054A00001210320FFF786F803232822012103208E
:1054B000FFF780F80023342201210320FFF77AF858
:1054C0005823352201210320FFF774F800233622E8
:1054D00001210320FFF76EF87823372201210320F2
:1054E000FFF768F85823382201210320FFF762F8FC
:1054F000B023392201210320FFF75CF800233A2270
:1055000001210320FFF756F878233B225CE20828AC
:1055100040F09B80F9B11F20019000222D200090C7
:1055200000231146032000F08FFBDFF8E804019010
:1055300005220020009003464C21032000F072FA5F
:10554000DFF8D80401900522002000900346A22134
:10555000032000F067FA4123902200210320FFF787
:1055600029F8FF23912200210320FFF723F8FF23CE
:10557000922200210320FFF71DF87F2393220021B0
:105580000320FFF717F8FF23942200210320FFF7E1
:1055900011F8C123B02200210320FFF70BF8FF23ED
:1055A000B12200210320FFF705F8FF23B2220021DA
:1055B0000320FEF7FFFFFF23B32200210320FEF7A5
:1055C000F9FFFF23B42200210320FEF7F3FF00239D
:1055D000102201210320FEF7EDFF81231822012173
:1055E0000320FEF7E7FF0223202201210320FEF71C
:1055F000E1FF8323282201210320FEF7DBFF0023A4
:10560000342201210320FEF7D5FF58233522012142
:105610000320FEF7CFFF0023362201210320FEF7EF
:10562000C9FF7823372201210320FEF7C3FF582347
:105630003C2201210320FEF7BDFFB0233D220121C2
:105640000320FEF7B7FF0023B7E1092840F0998057
:10565000E9B11F20019000222D2000900023114667
:10566000032000F0F1FAEC480190052200200090A0
:1056700003464C21032000F0D5F9E84801900522AB
:10568000002000900346A221032000F0CBF98123E3
:10569000A02200210320FEF78DFFFF23A12200217D
:1056A0000320FEF787FFFF23A22200210320FEF73D
:1056B00081FF7F23A32200210320FEF77BFFFF232E
:1056C000A42200210320FEF775FFC123B022002190
:1056D0000320FEF76FFFFF23B12200210320FEF716
:1056E00069FFFF23B22200210320FEF763FFFF239F
:1056F000B32200210320FEF75DFFFF23B422002127
:105700000320FEF757FF0023102201210320FEF79C
:1057100051FF0123182201210320FEF74BFF8223B2
:10572000202201210320FEF745FF832328220121A7
:105730000320FEF73FFF0023382201210320FEF75C
:1057400039FF5823392201210320FEF733FF0023BC
:105750003A2201210320FEF72DFF78233B2201216D
:105760000320FEF727FF58233C2201210320FEF7E8
:1057700021FFB0233D2201210320FEF71BFF002360
:105780001BE10A2840F02781002931D01F20019019
:1057900000222D20009000231146032000F054FA2F
:1057A0009B48019005220020009003464C210320D5
:1057B00000F038F997480190052200200090034638
:1057C000A221032000F02EF9934801907D220020B1
:1057D000009003464C21032000F024F98F480190EB
:1057E0007D22002000900346A221032000F01AF938
:1057F0000123802200210320FEF7DCFE7F2381228B
:1058000000210320FEF7D6FEFF2382220021032081
:10581000FEF7D0FE7F23832200210320FEF7CAFE7D
:10582000FF23842200210320FEF7C4FE412390229F
:1058300000210320FEF7BEFE7F23912200210320DA
:10584000FEF7B8FEFF23922200210320FEF7B2FEEE
:105850007F23932200210320FEF7ACFEFF23942236
:1058600000210320FEF7A6FE8123A02200210320B1
:10587000FEF7A0FE7F23A12200210320FEF79AFE5F
:10588000FF23A22200210320FEF794FE7F23A32200
:1058900000210320FEF78EFEFF23A4220021032017
:1058A000FEF788FEC123B02200210320FEF782FE0E
:1058B0007F23B12200210320FEF77CFEFF23B222CA
:1058C00000210320FEF776FE7F23B3220021032070
:1058D000FEF770FEFF23B42200210320FEF76AFECC
:1058E0008023102201210320FEF764FE8123182269
:1058F00001210320FEF75EFE8223202201210320E6
:10590000FEF758FE8323282201210320FEF752FED2
:105910000023302201210320FEF74CFE58233122C0
:1059200001210320FEF746FE00233222012103203D
:10593000FEF740FE3C23332201210320FEF73AFE0E
:105940005823342201210320FEF734FEB0233522F0
:1059500001210320FEF72EFE002336220121032021
:10596000FEF728FE3C23372201210320FEF722FE0A
:105970000023382201210320FEF71CFE5823392280
:1059800001210320FEF716FE3C233A2201210320C9
:10599000FEF710FE78233B2201210320FEF70AFECA
:1059A00058233C2201210320FEF704FEB0233D22B0
:1059B00001210320FEF7FEFD3C233E2201210320AE
:1059C000FEF7F8FD78233F2203B05DF804EB0121D8
:1059D0000320FEF7EFBD03B000BD10B582B0FF207D
:1059E000009000220E4C234600210320FEF783FE88
:1059F000FF20009004F58073002201210320FEF7B0
:105A00007AFEBDE81340FEF7BFBB0000048600200D
:105A10003CB50020B4B800202CBC0020A4BF00205E
:105A20001CC30020FFE72DE9FE4F8AB0804617987F
:105A3000179003F0070717990078497801EB0020C9
:105A400080B2049003F0C005179817998078C97840
:105A5000DDF810C001EB0020179909791FFA80F9D1
:105A600016980A4619FB0CFC90FBF2F31CFB01F1A3
:105A700011FB03F102FB130010FB091080B206902A
:105A8000002206214046FEF720FC00220821404665
:105A9000FEF71BFC1798007900FB09F080B2059017
:105AA0000020019004980128C0F2CB8000200390D0
:105AB000B80080308DF8010007AF4EE01798305CD9
:105AC00028438DF81C004FEAA40A179830180AF0F2
:105AD0000F0B41782943797007AA81782943B9705F
:105AE0000021C0782843F870ABF18000387140463F
:105AF000FEF775FCBBF10F0F02D0201D48451EDBE1
:105B00009DF828005044A0EB0B02D2B2052140467C
:105B1000FEF7DBFB9DF8000040EA0B1040F00A02A4
:105B200009214046FEF7D1FB4046FEF71DFF000667
:105B3000FAD49DF801200A214046FEF7C6FB201D3D
:105B400084B2361D4C45B9DB01980599801C80B2A2
:105B50000190039800EB410003900198049988425A
:105B60006FDA03A8068805980199801980B2099018
:105B70004910BDF82C0011FA80F00290C2B2072142
:105B80004046FEF7A2FB0024B9F1010FDCDB0698CA
:105B90003018401D86B20298001280008DF8000077
:105BA00041E01798305C28438DF81C004FEAA40AA6
:105BB000179830180AF00F0B41782943797007AA1B
:105BC00081782943B9700021C0782843F870ABF17F
:105BD000800038714046FEF702FCBBF10F0F02D087
:105BE000201D48451CDB9DF828005044A0EB0B020B
:105BF000D2B205214046FEF768FB9DF8000040EA5E
:105C00000B1209214046FEF760FB4046FEF7ACFE52
:105C10000006FAD49DF801200A214046FEF755FB04
:105C2000201D84B2361D4C45BBDB06980999081827
:105C3000401D86B202980012800000248DF80000FA
:105C400080E70DB0BDE8F08F2DE9F8430E46914690
:105C5000089C80461D46FF220021FEF736FBFF22EE
:105C600001214046FEF731FBFF2202214046FEF7AC
:105C70002CFBFF2203214046FEF727FBE80000EB48
:105C80004505EAB207214046FEF71FFB099880B29E
:105C9000410011FA85F101EBC000401E87B2FAB253
:105CA00008214046FEF711FB2904080E390A01EBD2
:105CB000800040F00202D2B209214046FEF705FB07
:105CC000A000C0B24FEA8907040900F00F0519D0FF
:105CD000FAB205210020FEF7F8FA200150FA87F207
:105CE000D2B206210020FEF7F0FAB00000F1C002A7
:105CF000D2B20A210020FEF7E8FA4046FEF734FE51
:105D00000006FAD4EDB1200150FA87F2D2B2052193
:105D10000020FEF7DAFA07EB04102818421ED2B270
:105D200006210020FEF7D1FAB00000F1C002D2B285
:105D30000A210020FEF7C9FA4046FEF715FE0006CC
:105D4000FAD4BDE8F1832DE9F0410E4617468046AE
:105D50001D46FF220021FEF7B8FAFF22012140462E
:105D6000FEF7B3FAFF2202214046FEF7AEFAFF2209
:105D700003214046FEF7A9FAF80000EB4707FAB204
:105D800007214046FEF7A1FA069880B2410011FAB9
:105D900087F101EBC000401E84B2E2B20821404608
:105DA000FEF793FA3F04380E210A01EB800040F021
:105DB0000202D2B209214046FEF787FA6800760057
:105DC000C0B2050900F00F0716D0F2B2052100207D
:105DD000FEF77BFA280150FA86F2D2B206210020A3
:105DE000FEF773FAE0220A210020FEF76EFA404621
:105DF000FEF7BAFD0006FAD4D7B1280150FA86F2B0
:105E0000D2B205210020FEF760FA06EB0510381823
:105E1000421ED2B206210020FEF757FAE0220A21E4
:105E20000020FEF752FA4046FEF79EFD0006FAD427
:105E3000BDE8F08138B50478012C1EDB451C15F84F
:105E4000013B0B2202210320FEF7B4FB15F8013BB6
:105E50000C2202210320FEF7ADFB15F8013B0D22B9
:105E600002210320FEF7A6FB15F8013B0E220221BA
:105E70000320FEF79FFB641EE1D131BD0048D9E746
:105E8000F0C700202DE9F84304460026DFF864053A
:105E90000D4684421CBFDFF8600584421FD0DFF846
:105EA0005C0584421CBFDFF85805844217D0DFF838
:105EB000540584421CBFDFF8500584420FD0DFF840
:105EC0004C0584421FBFDFF848058442DFF84405D3
:105ED000844204D0C1210FF2405000F0EEFA28684D
:105EE00020B90FF23450C22100F0E7FA28790028D7
:105EF00018BF012808D0022818BF032804D0C321E6
:105F00000FF2145000F0D9FAE87940B1012818BF17
:105F1000022804D00FF20050C42100F0CEFA012074
:105F200000FA06F8286808EA0000404546D17700E4
:105F30000320B8406FEA0009206809EA00002060E9
:105F400020682979B940084320602879012818BFC2
:105F500002282AD16879002818BF012808D0022811
:105F600018BF032804D0D6210FF2AC4000F0A5FAE8
:105F7000A06809EA0000A060A0686979B9400843F8
:105F8000A060A879002818BF012804D0DD210FF2F5
:105F9000884000F092FA606820EA0800606060685B
:105FA000A979B14089B208436060E06809EA00005D
:105FB000E060E068E979B9400843E060761C102EA3
:105FC000ADD3BDE8F18370B504460026DFF82404A4
:105FD0000D4684421CBFDFF82004844220D0DFF845
:105FE0001C0484421CBFDFF81804844218D0DFF878
:105FF000140484421CBFDFF81004844210D0DFF880
:106000000C0484421FBFDFF808048442DFF8040454
:10601000844205D04FF49B710FF2FC3000F04DFA32
:10602000012D18BF022D29D0042D18BF082D25D011
:10603000102D18BF202D21D0402D18BF802D1DD030
:10604000B5F5807F18BFB5F5007F17D0B5F5806F27
:1060500018BFB5F5006F11D0B5F5805F18BFB5F565
:10606000005F0BD0B5F5804F18BFB5F5004F05D0D8
:106070000FF2A43040F2371100F01FFA20692842D5
:1060800018BF0126304670BD10B50446DFF8640322
:1060900084421CBFDFF86003844220D0DFF85C0339
:1060A00084421CBFDFF85803844218D0DFF8540341
:1060B00084421CBFDFF85003844210D0DFF84C0349
:1060C00084421FBFDFF848038442DFF8480384425C
:1060D00005D04FF4A6710FF2403000F0EEF92069C0
:1060E00080B210BD10B50446DFF8080384421CBF1F
:1060F000DFF80403844220D0DFF8000384421CBF91
:10610000DFF8FC02844218D0DFF8F80284421CBF9A
:10611000DFF8F402844210D0DFF8F00284421FBF9F
:10612000DFF8EC028442DFF8EC02844205D040F252
:1061300073110FF2E42000F0C0F9606980B210BD65
:1061400038B50446AB480D4684421CBFAA48844279
:1061500019D0AA4884421CBFA948844213D0A94838
:1061600084421CBFA84884420DD0A84884421FBF67
:10617000A7488442A748844205D040F285110FF217
:10618000982000F09AF92DB90FF28C204FF4C371CA
:1061900000F093F9258331BD38B5044695480D4686
:1061A00084421CBF9448844219D0944884421CBF46
:1061B0009348844213D0934884421CBF924884423F
:1061C0000DD0924884421FBF914884429148844236
:1061D00005D04FF4CC710FF2402000F06EF92DB9CC
:1061E0000FF2342040F2991100F067F9658331BD58
:1061F00070B504467F480D46164684421CBF7E4853
:10620000844219D07D4884421CBF7D48844213D00B
:106210007C4884421CBF7C4884420DD07B48844229
:106220001FBF7B4884427B48844205D04FF4D6711F
:106230000FF2E41000F041F9012D18BF022D29D012
:10624000042D18BF082D25D0102D18BF202D21D0CA
:10625000402D18BF802D1DD0B5F5807F18BFB5F536
:10626000007F17D0B5F5806F18BFB5F5006F11D05E
:10627000B5F5805F18BFB5F5005F0BD0B5F5804F61
:1062800018BFB5F5004F05D00FF28C1040F2AD11DC
:1062900000F013F94EB1012E05D04FF4D7710FF273
:1062A000781000F00AF9258370BD658370BD38B59C
:1062B000044650480D4684421CBF4F48844219D0C2
:1062C0004E4884421CBF4E48844213D04D488442FD
:1062D0001CBF4D4884420DD04C4884421FBF4C48DF
:1062E00084424C48844205D040F2C3110FF228107A
:1062F00000F0E3F8656131BD70B506463D480D46D6
:10630000144686421CBF3C48864219D03B48864210
:106310001CBF3B48864213D03A4886421CBF3A48CD
:1063200086420DD0394886421FBF394886423948D7
:10633000864205D040F21D210FF2DC0000F0BDF8CE
:10634000002D18BF012D21D0022D18BF032D1DD007
:10635000042D18BF052D19D0062D18BF072D15D0F7
:10636000082D18BF092D11D00A2D18BF0B2D0DD0E7
:106370000C2D18BF0D2D09D00E2D18BF0F2D05D0D7
:106380000FF2940040F21E2100F097F8002C18BF85
:10639000092C1ED0012C18BF022C1AD0032C18BFB8
:1063A000042C16D0052C18BF062C12D0072C18BFB1
:1063B000082C0ED00A2C18BF0B2C0AD00C2C1CBF9A
:1063C0000D2C0F2C05D040F21F210FF24C0000F0D5
:1063D00074F8E80806EB800005F007018900026AFE
:1063E0000F238B409A43026204FA01F1026A1143BF
:1063F000016270BD0000024000040240000802403B
:10640000000C02400010024000140240001802403C
:10641000001C024000200240443A5C4749545C574B
:106420004C465F4D4F4E49544F525C4543535F4D70
:106430005331325F30325F574C465F4D4F4E4954B7
:106440004F525F53544D33325F4150505C4C696240
:106450007261726965735C53544D33324634787897
:106460005F5374645065726970685F4472697665E1
:10647000725C7372635C73746D3332663478785F08
:106480006770696F2E63000080B500F070FD00201A
:1064900002BD00B585B04FF4E130009000A90020A6
:1064A0000190ADF80800ADF80C000C20ADF80A0022
:1064B000002000F003FE05B000BDFEE7DFF82C076A
:1064C000DFF8042941685160116006E04FF0006078
:1064D000DFF81C2741681164D163006880F30888E5
:1064E0000846004700B5DFF8E4080021017083B0DA
:1064F000012141708170C1700C2101710021417135
:106500008171D0E90023CDE90023DDE9000100F02D
:10651000BEFF03B000BDF0B58DB0DFF8B40802A92E
:10652000016000A9416004A9816006A9C160002141
:106530009DF8080000F0FC008DF8080000F0F30062
:106540008DF8080000F00F0040F030008DF80800D2
:1065500002A8417081700721C17000210171417949
:1065600001F0F00141F001014171312141714221FD
:1065700081712421C17108219DF8000000F0FC0008
:106580008DF8000000F0F3008DF8000000F0CF005F
:106590008DF8000000F03F008DF8000000A8417069
:1065A00010218170C17801F0F001C1700021C1702B
:1065B00041609DF8100000F0F0008DF81000802080
:1065C0008DF8100004A8417801F0F00141705021CD
:1065D0004170817801F0F00141F005018170552191
:1065E0008170C17801F0F00141F00801C1702821EB
:1065F000C170017901F0F00141F00701017127211B
:106600000171FF21417100200690002106A8416020
:106610008160C160016100208DF82C0001F001FA59
:106620000021084601F0FDF90021084601F0F9F9C2
:10663000002402AD00AE04AF15F8011B04F1080000
:1066400001F0EFF9052001F05AFB16F8011B04F1E7
:10665000100001F0E6F9052001F051FB17F8011BCD
:1066600004F1180001F0DDF9052001F048FB641C7D
:10667000082CE1DB002406AD15F8011B04F1320003
:1066800001F0CFF9052001F03AFB641C152CF3DB77
:106690000024FF2104F1640001F0C3F9052001F09A
:1066A0002EFB641C4F2CF4DB0024FF2104F1C800F6
:1066B00001F0B7F9052001F022FB641C1E2CF4DB6D
:1066C0000024FF2104F1E60001F0ABF9052001F000
:1066D00016FB641C1D2CF4DBFFF704FF0DB0F0BDAE
:1066E00010B5DFF80C450120A063FF2020740020C6
:1066F000608260746081E060207201F017FB6FF0CF
:10670000A061B0FBF1F16FF0A06202FB1100A0628A
:1067100010BD10B5DFF8B44684B0204600F007FF86
:1067200002208DF80000832100A84170217881703B
:106730006178C170A1780171E1784171217981712D
:1067400000A960798DF80700A0798DF80800FF2076
:106750008DF8090003208DF80A00042001F017FCD1
:1067600004B010BD0146002001F05BB901460120D4
:1067700001F057B9012001F082B9F8B5DFF8704493
:1067800001F093FC38B1E07D002840F09380207642
:1067900001F08BFC28B9012001F082FC0020A075DB
:1067A000F1BD642001F0ABFA207E401C2076C0B21F
:1067B0000F28EDDBA57F607F85420CD001F080FCC7
:1067C000DFF8A868304601F083FC2946304601F026
:1067D0005EFD01F0F9FC01F088FE0021F52001F0DA
:1067E00095FE642001F08BFA0021F52001F08EFE69
:1067F000DFF87C5840F2277600223146284602F026
:1068000081F9DFF8707800220221384602F046FD57
:1068100001F070FE002060630021DFF85C08017069
:1068200002F0CAFD4FF4966001F069FA002002F010
:10683000D0FE012002F0C3FE002002F0BBFE01F0FA
:10684000F9FB002001F0E0FB4FF47A7001F057FAF9
:1068500001F02BFC18BB012001F022FCDFF81C0822
:10686000017801290FD161760022002101702846AC
:10687000314602F047F900220221384602F00EFDAF
:10688000FFF724FE0BE000223146284602F03AF9D9
:1068900000220221384602F001FDFFF70FFE002022
:1068A00001F0FEFB002001F0FBFBBDE8F240002000
:1068B00001F0F6BBF1BD80B5FF210091FF23DFF8A9
:1068C000C017CA7C1946FFE701F068FE01BD80B51C
:1068D000DFF8AC170A7949791309009302F00F0326
:1068E00001F00F020146FF20EEE7002818BF022842
:1068F00006D1DFF88C1791F8202060F3010214E034
:10690000DFF87C1791F8200040F0030010E0DFF87A
:106910007017042804DA91F8202060F3850204E05F
:1069200091F8200040F03C0002E081F82020704700
:1069300081F820007047DFF84807818DB1F57B4F63
:10694000A8BF4FF6FF714184704780B5002818BF7B
:1069500002280CD101F0EAF94FF6FF2190FBF1F18A
:106960004FF6FF2202FB1100DFF81417888501BDE6
:1069700010B5DFF80C47002084B06072FFF7B5FF58
:106980000320FFF7C4FF0220FFF7DFFFFFF7D3FF6D
:10699000A06A10F1A06F28BF4FF0FF30606248F28C
:1069A000870148F2850002F090FF042300AA042129
:1069B00004F1240002F08EFF009860620A2001F0CA
:1069C0009EF904F120000CC802A918200CC18DF812
:1069D0000400FF208DF80500E7208DF80600282030
:1069E0008DF8070001A807C803F01AF904B010BD1C
:1069F00030B5DFF88C46A56A002085B06072FFF7DD
:106A000074FF0020FFF783FF0020FFF79EFFA08D9B
:106A1000B0F57B4FA8BF4FF6FF706084A9B2280C79
:106A200002F053FF042300AA042104F1240002F021
:106A300051FF009860620A2001F061F904F1200022
:106A40000CC802A918200CC13BE030B5DFF8304675
:106A5000A56A85B00020FFF748FF0120FFF757FF28
:106A60000020FFF772FFA08DB0F57B4FA8BF4FF657
:106A7000FF7012E030B55E4CA56A85B00020FFF7CC
:106A800034FF0220FFF743FF0020FFF75EFFA08DD9
:106A9000B0F57B4FA8BF4FF6FF706084A9B2280CF9
:106AA00002F013FF042300AA042104F1240002F0E1
:106AB00011FF0098606202A904F120000CC80CC10B
:106AC00018208DF80400FF208DF80500E7208DF8D0
:106AD000060028208DF8070001A807C803F0A0F8D9
:106AE00005B030BD20B5DFF89855A86A81B284B0F2
:106AF000000C02F0EAFE082300AA0821284602F052
:106B000014FF00A806C806C5083D95F8200029789E
:106B100000F0030201F003039A4202BFC0F38300B6
:106B2000C1F38301884202BF688C6988884203D11F
:106B30002979080904B020BDFF2004B020BD1CB590
:106B4000DFF83C45A06A81B2000C02F0BEFE0823CB
:106B500000AA0821204602F0E8FE00A806C806C4E4
:106B6000083C94F82000217800F0030201F00303B0
:106B70009A4202BFC1F38301C0F38300884202BF7F
:106B8000608C628890422BD1207900F00F02012A9C
:106B900022D10009012823D009D3032820D002D311
:106BA000042802D003E003201BE0052019E001299E
:106BB00016D1607900F00F00012818BF022810D00C
:106BC000032808BF07200CD0042808BF082008D0DD
:106BD000052805D1092004E0022A08BF062000D0BC
:106BE0000420FFF774FE13BD000000000040000801
:106BF00030F5002030B5DFF88844217C002083B0D8
:106C000001291EBFA16BB1F5803FB1F5801F00F0D7
:106C10009480012905D141F20100A063FFF7A8FE8D
:106C20008BE0102905D141F21000A063FFF7E0FED0
:106C300083E0CA0556D521F48071A163C90748BF16
:106C40000320FFF74FFF50BBA06BC1070ED50020FC
:106C50002072FF231020A0630421607900F00F024E
:106C6000FF20E274009001F099FC66E0C00664D554
:106C700000202072FF2301202074607900F00F02B1
:106C80004FF48030A063E274A5206074FF20009070
:106C90000146A52001F082FC0120A0724DE0207A7F
:106CA000401C2072C0B2052812DB00202072012097
:106CB00020744FF48010A063FE206074FF200090C9
:106CC0000146E27CFF23FE2001F068FC03B030BDEA
:106CD000A06BC10748BF012002D4C0062DD51020EB
:106CE000A0632AE041F2010081421CBF41F2100082
:106CF000814222D1607A05281FDA207A401C207256
:106D0000C0B2022819DB0020207201A904F1200082
:106D10000CC80CC118208DF80000FF208DF8010070
:106D2000E7208DF8020028208DF8030000A807C88E
:106D300002F076FF607A401C6072DFF84853A87852
:106D4000012818BF022810D1012802D1FFF77DFECB
:106D500003E0022808BFFFF78DFE0120A07403B0F6
:106D60000020A063FF20A87030BDA07C012804BFD4
:106D7000A06BB0F5807F03D10020A074FFF7DFFE89
:106D800003B030BD10B5DFF8F842E07A18B9FF2043
:106D9000E07203F075F8207B012803D1FF202073F7
:106DA00003F096F8607B012805D1FF20607303F0A3
:106DB00006F90020A072A07B012804BFBDE81040A6
:106DC000FFF78EBC10BD000038F6002020F6002032
:106DD000F4F5002010B502F0EFFAA94C607F01280D
:106DE00008BFFFF707FFA07A012808BFFFF7CAFF17
:106DF000207F1E2803DA401C2077012003E004BF17
:106E0000401C2077002002F0DAFBA0480088B0F593
:106E10007A7F14DD9E480078012810D102F0A2FD8F
:106E200001220221934802F039FA9A4800210170A8
:106E3000607D401C6075C0B20A28A8BF6175208EB5
:106E4000C82802DA401C208604E004BF401C2086CB
:106E5000FFF793FCA07E78B1E07E0A28BCBF401CFF
:106E6000E076E07E0A2807DB8B4801788B480078C3
:106E700003F05DFA0020A076607E01280ED0E07F4E
:106E8000012807D10020E0778548007802F042FC15
:106E900002F03CFCBDE8104003F056B810BD844A37
:106EA0001278002A08BFFDF719BF03F00FBE804912
:106EB0000978002908BFFDF737BE03F0F5BD38B5E6
:106EC0006F4CA07D01281CBF002001F0E9F80120D3
:106ED00001F09AF801F09CF803F020FF04F051FC57
:106EE00001F0CBF803F0A8FE01F0C2FA704D28784B
:106EF000022803DA002000F001FE04E00022402115
:106F00006C48FFF775F901F024FC02F02CFB00201F
:106F100002F04AFB012002F04DFB012002F04FFB82
:106F200002F004FC6449022000F0ADFF042000F0F0
:106F30006DFF02F017FD2878022813DB4B4800781C
:106F4000FF2808BF0020A077607703F0DBF900205E
:106F5000606301220221474802F0A0F9BDE83140F8
:106F600004F0A6BC002000F08AFDECE700002DE94B
:106F7000F047FFF78EFA4FF000654C4CDFF82081A8
:106F8000DFF82491DFF81CA13F4E3D4F04F090FB49
:106F900004F09BFB04F0D1FBFFF791FF10E0207899
:106FA000401CC0B2062808BF0020207003212078B2
:106FB00090FBF1F101EB4101401A08BF02F0A6FB82
:106FC0003089012815D100203081387D01280CD16D
:106FD0003078411C3170042807DB0020307004F049
:106FE0007EFE0021202001F091FA02F06AFE02F0FC
:106FF00037FE7089012804BF00207081B089012804
:1070000013D10020B081FFF7E5FEB97D787E01291C
:1070100018BF012809D10028B8D068683864F8631F
:10702000286880F30888F86B8047B08A012807D168
:107030000020B0829AF80000012818BF02F0F9FE83
:10704000F08A0128BCD10020F082F87E0A28B8BF5F
:10705000FFF75FFB99F80000012803D198F80000C2
:10706000FF289CD100202070AAE7000000000E0835
:107070000044004000640040DCF400202DAD0020FE
:1070800030F5002050F30020B0F50020F4ED002092
:107090005DF600205EF60020EAED0020E9ED00201C
:1070A000C4C80020EBED0020C5C80020F3F5002087
:1070B00048F6002000180240C8F50020F0B506464A
:1070C0000FF2BC000FF2BC0283B0354650F8250029
:1070D00052F825200C460121104305F009FA1EB98B
:1070E0000121102005F047FA0FF2AC00DFF88C60A8
:1070F00030F815200FF2980030F8151006EB8507D0
:10710000D2B27868FFF7F8F80FF2900030F8152047
:107110000FF2800030F81510B868D2B2FFF7ECF823
:1071200000208DF8060000A901208DF8070002203C
:107130008DF804000FF2500030F815000090022086
:107140008DF805007868FEF79DFE02208DF804009A
:1071500000A90FF2380030F815000090B868FEF76B
:1071600091FE56F82500214601F030FB56F8250027
:10717000012101F0F2FB03B0F0BD0000B4C8002013
:1071800001000000010000000002000000040000F7
:10719000090000000A00000007000000070050F886
:1071A000041B61B150F8042BD30744BFA9F10103BC
:1071B0009A18002342F8043B091FFAD1EFE7704701
:1071C00000B583B001004FF40072DFF87C06009236
:1071D00018BF01218DF8041002218DF8051001213E
:1071E0008DF8071000218DF8061000A9FEF74AFE61
:1071F00003B000BD10B564281BDA0A2190FBF1F141
:107200000A0150FA82F001EB8102A0EB4204DFF8A0
:107210003C060078022806DB00F08FFAA22000F07E
:1072200017FB092038E0E1B2BDE81040082000F06B
:107230009FBC10BD80B5DFF814060078022803DB80
:10724000092000F056FB02E0082000F0CFFC010905
:10725000B5E001460D2900DB704710B5D8B10A2012
:1072600091FBF0F0020151FA82F100EB8002DFF8AD
:10727000DC050078A1EB4204022806DB00F05DFA91
:10728000A22000F0E5FA082006E0E1B2BDE81040D7
:10729000072000F06DBC10BD00F0DAFAE0B200F09B
:1072A000D7FABDE8104071E280B5DFF8A00500789C
:1072B000022803DB082000F01CFB02E0072000F09E
:1072C00095FCC0F300117AE00146202900DB7047ED
:1072D00010B5D8B10A2091FBF0F0020151FA82F109
:1072E00000EB8002DFF864050078A1EB420402287D
:1072F00006DB00F022FAA22000F0AAFA0620CBE773
:10730000E1B2BDE81040062000F032BC10BD80B5EF
:10731000DFF838050078022803DB062000F0E9FAE0
:1073200002E0062000F062FC47E010B50446DFF8FA
:107330001C050078022809DB00F0FFF9A22000F00C
:1073400087FA072000F084FA2046A8E7082C06DA1E
:107350002CB12146BDE81040052000F009BC10BD4D
:1073600010B518281BDA0A2190FBF1F10A0150FA36
:1073700082F001EB8102A0EB4204DFF8D004007838
:10738000022806DB00F0D9F9A22000F061FA0520FE
:1073900082E7E1B2BDE81040042000F0E9BB10BD77
:1073A00080B5DFF8A8040078022803DB052000F090
:1073B000A0FA02E0042000F019FCC0F3011101EB77
:1073C000810200F00F0000EB4200C0B202BD10B518
:1073D0003C281BDA0A2190FBF1F10A0150FA82F0F5
:1073E00001EB8102A0EB4204DFF860040078022880
:1073F00006DB00F0A2F9A22000F02AFA04204BE7F5
:10740000E1B2BDE81040032000F0B2BB10BD80B572
:10741000DFF838040078022803DB042000F069FA62
:1074200002E0032000F0E2FBC0F30211C7E710B551
:107430003C281BDA0A2190FBF1F10A0150FA82F094
:1074400001EB8102A0EB4204DFF80004007802287F
:1074500006DB00F072F9A22000F0FAF903201BE726
:10746000E1B2BDE81040022000F082BB10BD80B543
:10747000DFF8D8030078022803DB032000F039FA94
:1074800002E0022000F0B2FBC0F3021197E72DE901
:10749000F343EE48007881B09DF80A409DF809500A
:1074A0009DF808609DF807709DF806809DF805908E
:1074B000022817DB9DF80400FFF79CFE4846FFF703
:1074C000C8FE4046FFF700FF3846FFF72EFF304664
:1074D000FFF746FF2846FFF77AFF204603B0BDE8D6
:1074E000F043A4E70221002000F042FB9DF80400D5
:1074F000FFF780FE4846FFF7ACFE4046FFF7E4FE8C
:107500003846FFF712FF3046FFF72AFF2846FFF7FD
:107510005EFF2046FFF78BFF0021002000F028FBD4
:1075200003B0BDE8F0430021012000F021BB38B5D5
:10753000C64D0446287802281FDBFFF77BFE20702B
:10754000FFF7B2FE6070FFF7E2FEA0702878022815
:1075500003DB072000F0CDF902E0052000F046FB38
:1075600000F00700E070FFF71BFF2071FFF74FFFEF
:107570006071FFF77CFFA07131BD0121002000F098
:10758000F7FAFFF757FE2070FFF78EFE6070FFF7E7
:10759000BEFEA0702878022803DB072000F0A9F9BE
:1075A00002E0052000F022FB00F00700E070FFF78A
:1075B000F7FE2071FFF72BFF6071FFF758FFA071F6
:1075C0000021BDE83440002000F0D2BA80B500F0C0
:1075D000ABF900F0A9F900F0A7F900F0A5F900F067
:1075E000A3F900F0A1F900F09FF900F09DF900F077
:1075F0009BF900F099F900F097F900F095F900F087
:1076000093F900F091F900F08FF900F08DF900F096
:107610008BF900F089F900F087F900F085F900F0A6
:1076200083F900F081F900F07FF900F07DF900F0B6
:107630007BF900F079F900F077F900F075F900F0C6
:1076400073F900F071F900F06FF900F06DF900F0D6
:107650006BF900F069F900F067F900F065F900F0E6
:1076600063F900F061F900F05FF900F05DF900F0F6
:107670005BF900F059F900F057F900F055F900F006
:1076800053F900F051F900F04FF900F04DF900F016
:107690004BF900F049F900F047F900F045F900F026
:1076A00043F900F041F900F03FF900F03DF900F036
:1076B0003BF900F039F900F037F900F035F900F046
:1076C00033F900F031F900F02FF900F02DF900F056
:1076D0002BF900F029F900F027F900F025F900F066
:1076E00023F900F021F900F01FF900F01DF900F076
:1076F0001BF900F019F900F017F900F015F900F086
:1077000013F900F011F900F00FF900F00DF900F095
:107710000BF900F009F900F007F900F005F900F0A5
:1077200003F900F001F900F0FFF800F0FDF800F0B7
:10773000FBF8BDE8014000F0F7B810B50120FFF7F5
:107740003FFD414C01224FF400712046FEF750FDF1
:1077500001224FF400712046FEF74AFD01224FF44A
:1077600080712046FEF744FDFFF730FF00224FF402
:1077700000712046FEF73CFDFFF728FF2046BDE8DC
:10778000104000224FF48071FEF732BD10B5012089
:10779000FFF716FD2C4C00224FF400712046FEF737
:1077A00027FDFFF713FF01224FF480712046FEF7FB
:1077B0001FFDFFF70BFF2046BDE8104001224FF4EC
:1077C0000071FEF715BD10B504460120FFF7F8FC67
:1077D000621E9241D2431C4CD20F4FF400712046DE
:1077E000FEF706FDFFF7F2FE01224FF480712046FE
:1077F000FEF7FEFCFFF7EAFE00224FF48071204600
:10780000FEF7F6FCBDE81040E0E638B50020FFF7D3
:10781000D7FC0D4C01224FF480712046FEF7E8FCA6
:10782000FFF7D4FE4FF400712046FEF7CCFB05466F
:10783000FFF7CCFE00224FF480712046FEF7D8FC03
:10784000FFF7C4FE284632BD0004024048F600207F
:1078500070B5044600250126C5F1070006FA00F0C0
:1078600000EA0401481E8041C043C00FFFF7ABFF90
:107870006D1C082DF0DBBDE87040C6E72DE9F8432C
:10788000FFF7C3FF0646FFF7C0FF0746FFF7BDFF40
:107890008046FFF7BAFF8146FFF7B7FF0446FFF7C0
:1078A000B4FF0546FFF7B1FF47EA460148EA410148
:1078B00049EA410144EA410145EA410140EA410403
:1078C000FFF7A3FF40EA4400C0B2BDE8F28338B539
:1078D00004460D46FFF731FFA220FFF7B9FF20460F
:1078E000FFF7B6FF2846FFE7FFF7B2FFBDE83140DC
:1078F0004CE710B50446FFF720FFA220FFF7A8FFD2
:107900002046FFF7A5FFFFF741FFFFF716FFA32073
:10791000FFF79EFFFFF7B2FF04460120FFF753FF7A
:10792000FFF734FF204610BD704700B50100DFF8B7
:10793000380283B001694FF400724FF6FF5308D04C
:1079400019404161009201218DF804108DF8051055
:1079500005E019404161009200218DF8041000A952
:10796000FEF790FA03B000BD70B504460825DFF8B5
:10797000F861E4B2E0094FF40071304602D0FEF73E
:10798000DFFB01E0FEF708FC4FF480713046FEF7A4
:10799000D7FB64004FF480713046FEF7FDFB6D1E8F
:1079A000E7D14FF400713046FEF7F6FB4FF48071DB
:1079B0003046FEF7C5FB3046BDE870404FF480719D
:1079C000FEF7EABB70B5DFF8A0514FF4807128468E
:1079D000FEF7E2FB4FF400712846FEF7B1FB0020F2
:1079E000FFF7A3FF08264FF480712846FEF7A8FB97
:1079F0004FF400712846FEF7E6FA40EA4404E4B288
:107A00004FF480712846FEF7C7FB761EEBD14FF48A
:107A100000712846FEF7C0FB0120FFF786FF2046D5
:107A200070BD70B50446514800780D46022825DA2D
:107A30004D4E4FF400713046FEF782FB0120FFF7F8
:107A400074FF4FF400713046FEF77AFB4FF48071FB
:107A50003046FEF775FB4FF400713046FEF79CFB95
:107A60004FF480713046FEF797FBA020FFF77CFFB4
:107A70002004000EFFF778FFE0B2A1E070BD38B53A
:107A80000446394D4FF400712846FEF759FB01209A
:107A9000FFF74BFF4FF400712846FEF751FB4FF400
:107AA00080712846FEF74CFB4FF400712846FEF724
:107AB00073FB4FF480712846FEF76EFBA020FFF7A2
:107AC00053FF2004000EFFF74FFFE0B2FFF74CFF1B
:107AD0004FF400712846FEF733FB4FF480712846BF
:107AE000FEF72EFB4FF400712846FEF755FB4FF4CE
:107AF00080712846FEF750FBA120B4E038B504465B
:107B0000194D4FF400712846FEF71AFB0120FFF7CC
:107B10000CFF4FF400712846FEF712FB4FF4807102
:107B20002846FEF70DFB4FF400712846FEF734FBA4
:107B30004FF480712846FEF72FFBD020FFF714FF8B
:107B40000A20FFF711FF2046FFF70EFF4FF40071E8
:107B50002846FEF721FB4FF480712846FEF7F0FA25
:107B60002846BDE834403DE00004024048F60020CD
:107B700070B504460D46014E02E000BF000402400D
:107B80004FF400713046FEF7DBFA0120FFF7CDFE1F
:107B90004FF400713046FEF7D3FA4FF4807130464F
:107BA000FEF7CEFA4FF400713046FEF7F5FA4FF4C7
:107BB00080713046FEF7F0FAD020FFF7D5FE204660
:107BC000FFF7D2FE2846FFF7CFFE4FF40071304694
:107BD000FEF7E2FA4FF480713046FEF7B1FA304614
:107BE000BDE870404FF40071FEF7AABA38B50446FC
:107BF000004D01E0000402404FF400712846FEF7FA
:107C00009FFA0120FFF791FE4FF400712846FEF71E
:107C100097FA4FF480712846FEF792FA4FF40071FC
:107C20002846FEF7B9FA4FF480712846FEF7B4FAF9
:107C3000D020FFF799FE2046FFF796FE4FF4007123
:107C40002846FEF77DFA4FF480712846FEF778FA51
:107C50004FF400712846FEF79FFA4FF480712846D2
:107C6000FEF79AFAD120FFF77FFEFFF7ABFE04463E
:107C70004FF400712846FEF763FA4FF480712846EE
:107C8000FEF75EFA4FF480712846FEF785FA4FF44E
:107C900000712846FEF780FA4FF480712846FEF7FF
:107CA0004FFA4FF400712846FEF74AFA204632BDDB
:107CB0000848016811B10168491E0160704700BFA2
:107CC00001B404480099016001680029FCD101B0A9
:107CD000704700004CF6002082B0002107E00099B8
:107CE000491C009100990529F9D30199491C01917A
:107CF0000199814238BF0021F3D302B0704782B0AE
:107D00000021019144F2682108E0009A521C00927F
:107D1000009A8A42F9D3019A521C0192019A824236
:107D200038BF0022F3D302B070470000F8B5344FDB
:107D3000384604F0FDFC0446381D04F0F9FC054605
:107D400007F1080004F0F4FC064607F10C0004F00B
:107D5000EFFC23782B492C4A002B40D12B6802FBE7
:107D600003132B60082702FB03132B6002FB031392
:107D70002B6002FB03132B6002FB03132B6002FB3F
:107D800003132B6002FB03132B6002FB03132B6016
:107D90000346D5F800C002FB0C1CC5F800C043F830
:107DA00004CB7F1ED5F800C002FB0C1CC5F800C038
:107DB00043F804CBD5F800C002FB0C1CC5F800C08A
:107DC00043F804CBD5F800C002FB0C1CC5F800C07A
:107DD00043F804CBDDD1C36F3360012323702B68DC
:107DE00002FB03112960317801F01F0150F82120B6
:107DF00032602A6840F82120306880008008F2BD97
:107E000064C700205FF36E3C0D66190030B585B085
:107E1000044600200290ADF80C00ADF810000C20D4
:107E2000ADF80E0001A90FF2C010684D50F8240003
:107E3000019055F8240000F0C9FC55F824000121F8
:107E400000F08BFD55F82400012240F2255100F08E
:107E500059FE55F82400002240F2277100F052FE2E
:107E60000FF2981030F814008DF8000000208DF803
:107E700001008DF8020001208DF8030000A804F035
:107E800059FC05B030BD70B50446514D94B00E4656
:107E9000284604F0F3FC4FF000600590079605A912
:107EA0004C480690402008901120099000200A902C
:107EB0004FF480600B90042010900320119000205C
:107EC0000C900D9012900E904FF440300F900020C7
:107ED0001390284604F0AFFD00221021284604F03C
:107EE000F1FF00200290ADF80C00ADF810000C205E
:107EF000ADF80E0001A90FF2F000344D50F8240047
:107F0000019055F8240000F061FC334801228021E3
:107F100000F0B6FD55F82400012240F2255100F092
:107F2000F1FD0FF2D80030F814008DF800000020A9
:107F30008DF801008DF8020001208DF8030000A8E3
:107F400004F0F8FB55F82400012100F006FD14B000
:107F500070BDF8B504460D461D4F16460021384643
:107F600004F093FE32462946204605F075F87E60FF
:107F70000121384604F089FE384604F0E1FE00286D
:107F8000FAD13846BDE8F440144904F03DBF38B595
:107F9000134D0446288840F2FF229042A4BF0020DF
:107FA000288028880F4B0B22C01805F055F8288828
:107FB0000B3028800122054850F82400BDE83840E5
:107FC00040F2277100F09EBD000000007CC8002038
:107FD000A060024004440040004400400000202013
:107FE000EEED0020FCED002000000000000000008D
:107FF00000C2010000E1000000C20100000000001A
:10800000260000003400000002464FF4805131E0A9
:1080100010B5284C012204212046FEF7E9F84FF460
:108020007A70FFF76CFE2046BDE810400022042164
:10803000FEF7DEB838B5204C01224FF480412046CF
:10804000FEF7D6F81B4D012204212846FEF7D0F892
:108050004FF47A70FFF753FE002204212846FEF702
:10806000C7F82046BDE83840FFE700224FF48041C2
:10807000FEF7BEB81048FEF7BBB810B50E4C002294
:108080004FF400412046FEF7B3F86420FFF737FEB7
:108090002046BDE8104001224FF40041FEF7A8B889
:1080A000024602210548FEF7A3B801210348FDF767
:1080B0008ABF0000000C0240000802400004024099
:1080C00080B500F075F8BDE80240F32000F041B93A
:1080D00080B500F009F8022100F07DF8082801D0F1
:1080E000012002BD002002BD0021A0F10062B2F516
:1080F000804F45D324490918B1F5804F38BF082176
:108100003ED322490918B1F5804F38BF102137D32B
:108110001F490918B1F5804F38BF182130D31D49C8
:108120000918B1F5803F38BF202129D31A49091811
:10813000B1F5003F38BF282122D318490918B1F5FD
:10814000003F38BF30211BD315490918B1F5003F56
:1081500038BF382114D313490918B1F5003F38BF8F
:1081600040210DD310490918B1F5003F38BF48210F
:1081700006D30E490818B0F5003F34BF50215821EE
:10818000084670470000000000C0FFF70080FFF7BE
:108190000040FFF70000FFF70000FEF70000FCF7CB
:1081A0000000FAF70000F8F70000F6F70000F4F717
:1081B000DFF83402C168002905D5DFF8301201600C
:1081C000DFF82C1201607047DFF82802016841F0E7
:1081D00000410160704770B5044600260D46002C32
:1081E00018BF082C19D0102C18BF182C15D0202C13
:1081F00018BF282C11D0302C18BF382C0DD0402C93
:1082000018BF482C09D0502C18BF582C05D040F26C
:1082100061110FF2EC10FEF750F96DB1012D30D065
:10822000022D31D0032D05D00FF2D4104FF4B171CF
:10823000FEF743F94FF4407600F09AF808281FD172
:10824000DFF8B051286820F44070286044F0020143
:10825000286830432860286820F0F80028602868E3
:1082600008432860286840F48030286000F080F8D7
:10827000296821F002012960296821F0F8012960AC
:1082800070BD4FF48076D7E74FF40076D4E738B569
:1082900004460D46A4F10060DFF85C11884221BF5E
:1082A00004F1604000F5084040F20F21884205D3F8
:1082B0004FF412710FF24810FEF7FFF800F058F873
:1082C000082845D1DFF83411486820F44070486030
:1082D00048684860486840F0010048602570082000
:1082E0008DF800000A68D20348BF012013D40A6841
:1082F000D20648BF05200ED40A6812F0EF0F18BF4F
:10830000062008D10A68920705D5072003E00A680D
:10831000920748BF07208DF800009DF80000012853
:1083200010D10A680820D20348BF0120F3D40A689C
:10833000D20648BF0520EED40A6812F0EF0FE6D04F
:108340000620E8E79DF800004A68520852004A609B
:1083500032BD10B5044634F0F30000D12CB940F220
:10836000CD310FF29C00FEF7A8F82448046010BD40
:1083700081B008208DF80000082120480268D2034F
:1083800048BF012113D40268D20648BF05210ED48C
:10839000026812F0EF0F18BF062108D10268920799
:1083A00005D5072103E00268920748BF07218DF831
:1083B00000109DF80010012910D102680821D20395
:1083C00048BF0121F3D40268D20648BF0521EED48C
:1083D000026812F0EF0FE6D00621E8E79DF80000F2
:1083E00001B0704700000000043C024023016745D3
:1083F000AB89EFCD103C0240FFFF0F000C3C024068
:10840000443A5C4749545C574C465F4D4F4E495483
:108410004F525C4543535F4D5331325F30325F57AB
:108420004C465F4D4F4E49544F525F53544D33327B
:108430005F4150505C4C69627261726965735C5354
:10844000544D3332463478785F53746450657269A2
:1084500070685F4472697665725C7372635C737492
:108460006D3332663478785F666C6173682E6300B2
:1084700010B584B042F210700290A820ADF804004C
:108480000020ADF80C00ADF8060001A91B4C2046F9
:1084900004F01EFE0121204604F0CAFE0122012143
:1084A000204605F023F81E208DF8000000208DF8EE
:1084B00001008DF8020001208DF8030000A804F0EF
:1084C00039F90F480021018041808180C18004B0CA
:1084D0000C484170017010BD4FF400610A48FDF76F
:1084E0002FBE07480121018070474FF40061064804
:1084F000FDF752BE0248002101807047000800408D
:1085000028F60020D2F400200018024030B583B0D5
:1085100004460D460B2100A805F0E8F802208DF86E
:108520000000210A80208DF801008DF8055000A878
:10853000C1708470210C017103208DF80A0020465F
:1085400000F003F89A4800783EE09A4901224A7008
:1085500000F01F000022002320FA03FC5FEACC7C1D
:1085600017D513B942F0010213E0012B08BF42F006
:1085700010020DD0022B08BF42F0020208D0032BDC
:1085800008BF42F0040203D0042B02D142F00802DB
:10859000D2B25B1C052BDFDB8A70704730B583B02D
:1085A00002258DF8005087258DF8015000ADA87088
:1085B00003208DF80A00E9702A718DF805307C4897
:1085C000069C00788DF8064018B900A90420FFF732
:1085D000DEFC03B030BD2DE9F041764C207860B967
:1085E000A062002260680121FDF702FEA06801225E
:1085F0000221FDF7FDFD01221AE001280BD1606880
:1086000001220121FDF7F4FDA06800220221FDF7FF
:10861000EFFD01220CE002280ED160680122012149
:10862000FDF7E6FDA06801220221FDF7E1FD002231
:10863000E0680421FDF7DCFD00250FF2841604F14B
:1086400010074FF0060836F8021B57F8040BFDF729
:10865000BAFC401E8041C00F690051FA80F5B8F1A4
:108660000108F0D1A06A28B925B12078C00005FA28
:1086700000F0A062606B32283CBF401C6063207831
:1086800002285DD1A06AD0B94B4D286888B100207E
:108690002063E0622860A06BB0F5003F05D10021A7
:1086A000FFF734FF0020A06303E000210020FFF764
:1086B0002DFF00202063E0622860607040E0E16AE6
:1086C00081423AD1216B491C216303290ED13A4DD5
:1086D000616B2860322909D3B0F5003F03D0002137
:1086E000FFF714FF00E0A06300206063E16A206BE5
:1086F000B1F5003F10D1642822D132212163A06A54
:108700002D4D616B286032291AD30121FFF7FEFE3F
:1087100000206063A06313E0B0F5967F10D1FA21CA
:108720002163A06A244D616B2860322908D301219E
:10873000FFF7ECFE0020606302E000212163E062AD
:108740002078401CC0B20328A8BF00202070BDE8DC
:10875000F08110B584B040F6C4100290A820ADF8A6
:1087600004000020ADF80C00ADF8060001A9134C80
:10877000204604F0ADFC0121204604F059FD012201
:108780000121204604F0B2FE32208DF800000020C6
:108790008DF801008DF8020001208DF8030000A87B
:1087A00003F0C8FF04480021016004B010BD0000C0
:1087B0002CAD002040C8002054F60020000C0040E2
:1087C000000400080010002000400080F0B50446BE
:1087D000DFF89472DFF8246385B00D46BC421CBFFD
:1087E000DFF88802844213D0DFF8840284421CBF81
:1087F000DFF8800284420BD0DFF87C0284421CBF89
:10880000DFF87802844203D0F1213046FDF755FEAF
:10881000286818B1DFF8E812884203D3F221304605
:10882000FDF74BFEA888002818BFB0F5805F03D085
:10883000F3213046FDF741FEE888002818BFB0F567
:10884000805F09D0B0F5005F18BFB0F5405F03D07E
:10885000F4213046FDF731FE288900281CBFB0F511
:10886000806FB0F5C06F03D0F5213046FDF725FECF
:1088700068894FF6F371084200D118B9F6213046E5
:10888000FDF71BFEA889F8B1B0F5807F1CBFB0F5DD
:10889000007FB0F5407F05D0F7213046FDF70DFE93
:1088A000A88988B1BC421CBFDFF8C00184420BD04C
:1088B000DFF8BC0184421CBFDFF8C001844203D052
:1088C000FC213046FDF7F9FD208A4CF6FF71084087
:1088D000E988084320824EF6F311A0890840A98850
:1088E00008432989084369890843A0814FF6FF415D
:1088F000A08A0840A9890843A08200A803F0B1FD1E
:10890000BC421BBFDFF874018442039802982968B7
:1089100019225043A28912044CBF49008900B0FBC0
:10892000F1F16420B1FBF0F000010209642303FBC4
:108930001211A289120406D5C9003231B1FBF3F13C
:1089400001F0070105E009013231B1FBF3F101F05B
:108950000F010843208105B0F0BD38B50446DFF8AB
:1089600008010D4684421CBFDFF80001844215D087
:10897000DFF8FC0084421CBFDFF8F80084420DD011
:10898000DFF8F40084421CBFDFF8F000844205D019
:1089900040F2A1110FF26030FDF78FFD5DB1012DA6
:1089A00005D00FF254304FF4D171FDF786FDA08948
:1089B00040F4005003E0A0894DF6FF710840A0810B
:1089C00031BD38B50446DFF8A0000D4684421CBF17
:1089D000DFF89800844215D0DFF8940084421CBF71
:1089E000DFF8900084420DD0DFF88C0084421CBF79
:1089F000DFF88800844205D040F223210FF2F820EE
:108A0000FDF75BFDB5F5007F05DB0FF2EC204FF4C1
:108A10000971FDF752FDE805C00DA08031BD10B50C
:108A20000446DFF8440084421CBFDFF84000844263
:108A300015D0DFF83C0084421CBFDFF838008442C8
:108A40000DD0DFF8340084421CBFDFF830008442D0
:108A500005D040F233210FF2A020FDF72EFDA088B3
:108A6000C005C00D10BD00000010014000440040D2
:108A700000480040004C00400050004000140140FD
:108A800070B50446DFF858020D46164684421CBFF6
:108A9000DFF85002844215D0DFF84C0284421CBF3C
:108AA000DFF8480284420DD0DFF8440284421CBF44
:108AB000DFF84002844205D040F241410FF23820F5
:108AC000FDF7FBFC4FF63F70054200D12DB940F297
:108AD00042410FF22420FDF7F0FC56B1012E05D0E3
:108AE0000FF2142040F24341FDF7E7FCA08A28432F
:108AF00001E0A08AA843A08270BD0000F88C0008A5
:108B0000E1707200F8B50546DFF8D4710E461446E0
:108B1000BD421CBFDFF8CC01854215D0DFF8C8018B
:108B200085421CBFDFF8C40185420DD0DFF8C001CB
:108B300085421CBFDFF8BC01854205D040F2C3412D
:108B40000FF2B410FDF7B9FC282E1CBF40F22770BD
:108B500086421BD040F2266086421CBF40F2255060
:108B6000864213D040F2244086421CBF40F64600A5
:108B700086420BD040F66A10864218BF602E05D0A0
:108B800040F2C4410FF27010FDF797FC002C18BFA3
:108B9000012C05D00FF2601040F2C541FDF78DFCAD
:108BA00040F66A10864210D1BD421CBF4D48854236
:108BB0000BD04D4885421CBF4E48854205D040F23F
:108BC000CA410FF23410FDF778FC3006012106F09F
:108BD0001F02400F9140012808BF05F10C0005D08D
:108BE00002280CBF05F1100005F114000268002CEA
:108BF00014BF114322EA01010160F1BDF8B504463A
:108C00000026374F0D46BC421CBF3648844211D067
:108C1000354884421CBF354884420BD034488442D6
:108C20001CBF3448844205D040F256510FF2C800B0
:108C3000FDF743FC282D1CBF40F227718D4234D034
:108C400040F226618D421CBF40F225518D422CD04E
:108C500040F224418D421CBF40F646018D4224D093
:108C600040F66A118D420FD0B5F5587F1CBF40F217
:108C700025318D4219D0B5F5187F18BFB5F5B07FF5
:108C800013D040F257510CE0BC421CBF154884423F
:108C90000BD0154884421CBF1648844205D040F2D0
:108CA0005C510FF25400FDF708FC2806400F01212B
:108CB00005F01F0201FA02F2012808BFA08903D0C3
:108CC00002280CBF208AA08A10402A0A91402288DC
:108CD000114000281CBF002901263046F2BD0000CB
:108CE000001001400044004000480040004C00409B
:108CF0000050004000140140443A5C4749545C571E
:108D00004C465F4D4F4E49544F525C4543535F4D67
:108D10005331325F30325F574C465F4D4F4E4954AE
:108D20004F525F53544D33325F4150505C4C696237
:108D30007261726965735C53544D3332463478788E
:108D40005F5374645065726970685F4472697665D8
:108D5000725C7372635C73746D3332663478785FFF
:108D600075736172742E630080B5DFF8C415884294
:108D700014D0DFF8C015884204D0AB21DFF8B80565
:108D8000FDF79BFB01214FF0806003F038FC0021D0
:108D90004FF08060BDE8044003F031BC01214FF08A
:108DA000007003F02CFC00214FF00070F2E7F8B5E2
:108DB00004460026DFF87805DFF87C750D4684420E
:108DC0001CBFDFF87005844203D0CB213846FDF785
:108DD00074FBA879002818BF012803D0CC2138469D
:108DE000FDF76BFBE879002818BF012803D0CD21DF
:108DF0003846FDF762FB287A002818BF012803D007
:108E0000CE213846FDF759FB687A002818BF0128A3
:108E100003D0CF213846FDF750FBA87A002818BFB1
:108E2000012803D0D0213846FDF747FBE87A002817
:108E300018BF012803D0D1213846FDF73EFBA878A2
:108E4000002818BF012807D0022818BF032803D024
:108E5000D2213846FDF731FBE878002818BF0128F9
:108E600007D0022818BF032803D0D3213846FDF7C6
:108E700024FB2879102803DBD4213846FDF71DFB9D
:108E80006879082803DBD5213846FDF716FB2888CA
:108E900010B1B0F5806F03DDD6213846FDF70DFB2C
:108EA000206820F002002060206840F0010020606F
:108EB0004FF6FF70014600E0491E6268D20701D4F8
:108EC0000029F9D16168C90754D5A9790129216818
:108ED0000CBF41F0800121F080012160E979012976
:108EE00021680CBF41F0400121F040012160297A46
:108EF000012921680CBF41F0200121F020012160EF
:108F0000697A012921680CBF41F0100121F010019C
:108F10002160A97A012921680CBF41F0080121F0E4
:108F200008012160E97A012921680CBF41F00401A0
:108F300021F004012160EA78A978120642EA8171E1
:108F40002A7941EA02416A7941EA02512A88521E8D
:108F50001143E161216849084900216000E0401E99
:108F60006168C90701D50028F9D1606800F00100E7
:108F700080F001063046F2BD70B50446A07A1C2888
:108F800005DB40F253110FF2C030FDF796FAE07A9C
:108F9000002818BF012805D04FF4AA710FF2A8309D
:108FA000FDF78BFA207B002818BF012805D040F27E
:108FB00055110FF29430FDF780FA2089002818BF70
:108FC000012805D04FF4AB710FF27C30FDF775FA34
:108FD000607B002818BF012805D040F257110FF21E
:108FE0006830FDF76AFAA17A01208840DFF84C1357
:108FF0000A6842F001020A60C243CB691340CB61A8
:10900000237B9BB9CB681340CB60E5886688DFF88B
:10901000303346EA0545A67A43F83650A57A2688C5
:1090200003EBC503A58846EA05455D60237B012B5C
:1090300013D1CB680343CB6025886688DFF8003303
:1090400046EA0545A67A43F83650A57AE68803EB4A
:10905000C503A58846EA05455D60E37A002B4B68A9
:109060000CBF134003434B60238913B94B691A406B
:1090700003E0012B02D14A6902434A61627B012A63
:1090800002D1CA691043C8610868400840000860FE
:1090900070BD00218171C171017241728172C17212
:1090A0008170C17003210171022141710121018090
:1090B000704770B50546DFF878020C4685421CBF44
:1090C000DFF88002854205D040F246210FF2782079
:1090D000FDF7F3F9207A002818BF042805D040F2E4
:1090E00047210FF26420FDF7E8F9607A002818BFE5
:1090F000022805D04FF412710FF24C20FDF7DDF974
:10910000A07A092805DB40F249210FF23C20FDF747
:10911000D4F9A86840011BD5002605EB0615D5F843
:10912000800100F00100C5F88001207AE0B92068D4
:10913000B0F5006F05D340F263210FF20C20FDF76C
:10914000BCF9D5F880012168627A42EA41511DE0FC
:10915000A868000148BF0126DFD4A868C00048BF46
:109160000226DAD404263EE06068B0F1005F05D341
:1091700040F269210FF2D010FDF79FF9D5F8800178
:109180006168227A42EAC101627A11430843C5F854
:109190008001A07A00F00F00A07205F5C070416850
:1091A0000909090141604168A27A11434160627B6B
:1091B000A17B120442EA0161227B41EA0221E27AA8
:1091C00011438160627CA17C120442EA0161227C2D
:1091D00041EA0221E27B1143C160D5F8800140F0F1
:1091E0000100C5F88001304670BDF8B50446DFF8CF
:1091F00040010D46164684421CBFDFF848018442F8
:1092000005D040F2F2210FF24010FDF756F92F0081
:1092100018BF012D05D00FF2301040F2F321FDF7F9
:109220004CF904EB0510D0F8B0113172317A4907CE
:10923000D0F8B01159BF490D3160C9087160D0F83C
:10924000B01101F00201717200F5D870416801F0AF
:109250000F01B1724168090AF1748168F172816885
:10926000090A31738168090C71738168090EB17341
:10927000C168F173C168090A3174C168090C71745D
:10928000C068000EB07425B9E06840F02000E060CE
:10929000F1BD206940F020002061F1BD70B50446A9
:1092A00023480D46164684421CBFDFF898008442CE
:1092B00005D04FF4A2610FF29000FDF7FEF8012DEA
:1092C00018BF022D24D0042D18BF082D20D0102D3A
:1092D00018BF202D1CD0402D18BFB5F5807F17D0AA
:1092E000B5F5007F18BFB5F5806F11D0B5F5006FEB
:1092F00018BFB5F5004F0BD0B5F5803F18BFB5F5D9
:10930000003F05D00FF2400040F21151FDF7D5F8B3
:1093100056B1012E05D040F212510FF22C00FDF78C
:10932000CCF86069284301E06069A843606170BDC2
:109330000064004000680040489300080066004058
:109340004066004000680040443A5C4749545C571E
:109350004C465F4D4F4E49544F525C4543535F4D11
:109360005331325F30325F574C465F4D4F4E495458
:109370004F525F53544D33325F4150505C4C6962E1
:109380007261726965735C53544D33324634787838
:109390005F5374645065726970685F447269766582
:1093A000725C7372635C73746D3332663478785FA9
:1093B00063616E2E63000000F8B57748774D007A40
:1093C0004FF4800418B1286840F4E0002860744924
:1093D00028680A68904238D008601726714F2868BC
:1093E000204214BF012200224FF400413846FCF70E
:1093F000FFFE01224FF480413846FCF7F9FE0120C0
:10940000FEF77DFC00224FF480413846FCF7F0FE69
:109410006408761EE3D101224FF400513846FCF770
:10942000E7FE0120FEF76BFC00224FF400513846A6
:10943000FCF7DEFE0120FEF762FC3846BDE8F8408E
:1094400001224FF40051FCF7D3BEF1BD5248002178
:10945000C160017801F003035A1E9241D243D20F3A
:10946000C260C1F3810202B10222C368D218C26095
:10947000C1F3011303B104239A18C260890918BF0C
:10948000082189184278C16003231A4214BF1023AF
:1094900000235918C160C2F3810303B12023591876
:1094A000C160C2F3011303B140235918C16092098E
:1094B00018BF802251188278C16003231A4214BF5A
:1094C0004FF4807300235918C160C2F381030BB1BC
:1094D0004FF400735918C160C2F301130BB14FF47C
:1094E00080635918C160920918BF4FF40062511887
:1094F000C278C16003231A4214BF4FF48053002383
:109500005918C160C2F381030BB14FF400535918CD
:10951000C160C2F301130BB14FF480435918C1600D
:10952000920918BF4FF4004251180279C160032319
:109530001A4214BF4FF4803300235918C160C2F39C
:1095400081030BB14FF400335918C160C2F301130A
:109550000BB14FF480235918104BC160920942633C
:1095600019600272704710B50E4C01224FF4805101
:109570002046FCF73DFE0A20FEF7C1FB00224FF417
:1095800080512046FCF734FE04486FF07F410160B3
:10959000BDE8104010E70000D4F4002064F500207E
:1095A00058F600200004024002464FF4004169488A
:1095B000FCF71EBE024610216748FCF719BE10B525
:1095C0000446224680216448FCF712FE634804707A
:1095D00010BD0FF29C12614932F8102048704A8089
:1095E000104610B586B07021ADF800100290012130
:1095F000ADF802100421ADF804100221ADF80C10F2
:109600000021ADF80E104FF48071ADF8101000215C
:10961000ADF8121000A9524C204603F05FFE012164
:10962000204603F005FE0121204603F03BFF06B073
:1096300010BD30B589B01020ADF81400FA2100201B
:10964000ADF81600464C47480068B0FBF1F0401EEC
:1096500080B2069005A90020ADF81C008DF81E0010
:10966000204603F035FD7020ADF8000041F27F3553
:109670000120ADF8020002950420ADF8040000A915
:109680000220ADF80C000020ADF80E004FF4807001
:10969000ADF810000020ADF81200204603F01EFEC9
:1096A0000121204603F0C4FD0121204603F0FAFE0B
:1096B0004FF47A70FEF723FB28480621417045805D
:1096C00009B030BD38B5284C234D01280DD10022FA
:1096D0004FF400712846FCF78BFD0A20FEF70FFBC4
:1096E00001224FF4807120460CE000224FF480717B
:1096F0002046FCF77DFD0A20FEF701FB01224FF416
:1097000000712846BDE83840FCF772BD1748007864
:10971000FDF7CDBB80B5FF2808BF002003D0012195
:10972000FDF7BDFB0120BDE80240CBE780B540F668
:10973000B830FEF7E4FA0020FFF7C4FFFFF779FF27
:10974000002280210448FCF753FD044800210170E9
:1097500001BD0000001802400008024050F6002041
:1097600000040140A0C8002000000240C4C800203E
:10977000FE403E377E2DFE267F20FF197F13FF0C13
:109780000000000030B4014600200023724A01F0BE
:1097900001049D56AC402043C9035B1C090C01F039
:1097A00001049D56AC40204349085B1C01F00104B4
:1097B0009D56AC40204349085B1C01F001049D56B6
:1097C000AC40204349085B1C102BE0DB30BC7047E9
:1097D00010B582B00C46FFF7D5FF604000905F489F
:1097E000BDF8001001F00F0130F82110ADF80010A5
:1097F0009DF8021001F00F0100EB81004088ADF8E8
:109800000200BDF80010484016BD81B00090C1F1C3
:109810001000BDF8002002FA01F302411A43ADF82E
:109820000020BDF8022042FA01F102FA00F00843DC
:10983000ADF80200009801B070472DE9F8430446E6
:109840000D469146CDB16D1E2788B4F802800026E2
:1098500031464846FFF7D9FF01464046FFF7B8FFBB
:10986000784080B247468046761C082EF0DB24F80C
:10987000027B24F8028B002DE5D10020BDE8F283A5
:109880002DE9F04780460E469246DEB1761EB8F8C6
:109890000050B8F8029008277F1E39465046FFF75F
:1098A000B4FF2C460146A0B2FFF792FF80EA090000
:1098B00085B2A146012FEFDA28F8025B28F8029B57
:1098C000002EE3D10020BDE8F08741EA00402449A2
:1098D000086070472DE9F0410F4614463D46AE1032
:1098E00017F0030818BF761C3A460146204603F0DD
:1098F000B3FBB8F1000F04D0381D07F00301471A7D
:109900003FB20020791B012906DB421900231355C1
:10991000401C00B28842F8DB1148026831462046FC
:10992000FFF78BFF78B2BDE8F08138B50C461546DD
:1099300003210C4202D04FF0FF3032BD22460146D7
:10994000284603F089FB06480268A1102846FFF765
:1099500097FF60B232BD0000A4E20008C8E1000831
:10996000C0C8002030B5DFF804478BB02046FFF7B1
:10997000FBF9DFF8FC562846FFF7F6F901A8FFF7D8
:1099800088FB00208DF80A0001A901208DF80B004A
:1099900000200390ADF806000F208DF8080003208A
:1099A0008DF809000420ADF804002046FFF7FFF908
:1099B0000020ADF816000690ADF8120004A90F20A3
:1099C0008DF8140003208DF815000820ADF8100064
:1099D0002846FFF7ECF90020ADF8260001208DF8AD
:1099E0002800002007900890ADF8240001208DF891
:1099F000290007A8FFF7C0FA14208DF80000002006
:109A00008DF801008DF8020001208DF8030000A8F8
:109A100002F090FE0BB030BD38B5DFF8584600209C
:109A20002074E061002106202070618200206070B7
:109A30002175FF20A070082228202071002060746A
:109A4000DFF834060180DFF83406017004F12000ED
:109A5000A061FF2104F1280003F04BFE0822FF2142
:109A600004F1300003F045FE0822FF2104F1380024
:109A700003F03FFE0822FF2104F1400003F039FE0D
:109A80000822FF2104F1480003F033FE0822FF21E1
:109A900004F1500003F02DFE0822FF2104F17000B4
:109AA00003F027FE0822FF2104F1080003F021FE45
:109AB000002020730822FF2104F1880003F019FE22
:109AC0000822FF2104F1900003F013FE0822FF2179
:109AD00004F1980003F00DFE0822FF2104F1A0001C
